{
  "contractName": "Event",
  "abi": [
    {
      "inputs": [],
      "stateMutability": "nonpayable",
      "type": "constructor"
    },
    {
      "anonymous": false,
      "inputs": [
        {
          "indexed": true,
          "internalType": "address",
          "name": "account",
          "type": "address"
        },
        {
          "indexed": true,
          "internalType": "address",
          "name": "operator",
          "type": "address"
        },
        {
          "indexed": false,
          "internalType": "bool",
          "name": "approved",
          "type": "bool"
        }
      ],
      "name": "ApprovalForAll",
      "type": "event"
    },
    {
      "anonymous": false,
      "inputs": [
        {
          "indexed": true,
          "internalType": "address",
          "name": "operator",
          "type": "address"
        },
        {
          "indexed": true,
          "internalType": "address",
          "name": "from",
          "type": "address"
        },
        {
          "indexed": true,
          "internalType": "address",
          "name": "to",
          "type": "address"
        },
        {
          "indexed": false,
          "internalType": "uint256[]",
          "name": "ids",
          "type": "uint256[]"
        },
        {
          "indexed": false,
          "internalType": "uint256[]",
          "name": "values",
          "type": "uint256[]"
        }
      ],
      "name": "TransferBatch",
      "type": "event"
    },
    {
      "anonymous": false,
      "inputs": [
        {
          "indexed": true,
          "internalType": "address",
          "name": "operator",
          "type": "address"
        },
        {
          "indexed": true,
          "internalType": "address",
          "name": "from",
          "type": "address"
        },
        {
          "indexed": true,
          "internalType": "address",
          "name": "to",
          "type": "address"
        },
        {
          "indexed": false,
          "internalType": "uint256",
          "name": "id",
          "type": "uint256"
        },
        {
          "indexed": false,
          "internalType": "uint256",
          "name": "value",
          "type": "uint256"
        }
      ],
      "name": "TransferSingle",
      "type": "event"
    },
    {
      "anonymous": false,
      "inputs": [
        {
          "indexed": false,
          "internalType": "string",
          "name": "value",
          "type": "string"
        },
        {
          "indexed": true,
          "internalType": "uint256",
          "name": "id",
          "type": "uint256"
        }
      ],
      "name": "URI",
      "type": "event"
    },
    {
      "inputs": [
        {
          "internalType": "address",
          "name": "account",
          "type": "address"
        },
        {
          "internalType": "uint256",
          "name": "id",
          "type": "uint256"
        }
      ],
      "name": "balanceOf",
      "outputs": [
        {
          "internalType": "uint256",
          "name": "",
          "type": "uint256"
        }
      ],
      "stateMutability": "view",
      "type": "function",
      "constant": true
    },
    {
      "inputs": [
        {
          "internalType": "address[]",
          "name": "accounts",
          "type": "address[]"
        },
        {
          "internalType": "uint256[]",
          "name": "ids",
          "type": "uint256[]"
        }
      ],
      "name": "balanceOfBatch",
      "outputs": [
        {
          "internalType": "uint256[]",
          "name": "",
          "type": "uint256[]"
        }
      ],
      "stateMutability": "view",
      "type": "function",
      "constant": true
    },
    {
      "inputs": [
        {
          "internalType": "address",
          "name": "account",
          "type": "address"
        },
        {
          "internalType": "address",
          "name": "operator",
          "type": "address"
        }
      ],
      "name": "isApprovedForAll",
      "outputs": [
        {
          "internalType": "bool",
          "name": "",
          "type": "bool"
        }
      ],
      "stateMutability": "view",
      "type": "function",
      "constant": true
    },
    {
      "inputs": [
        {
          "internalType": "address",
          "name": "from",
          "type": "address"
        },
        {
          "internalType": "address",
          "name": "to",
          "type": "address"
        },
        {
          "internalType": "uint256[]",
          "name": "ids",
          "type": "uint256[]"
        },
        {
          "internalType": "uint256[]",
          "name": "amounts",
          "type": "uint256[]"
        },
        {
          "internalType": "bytes",
          "name": "data",
          "type": "bytes"
        }
      ],
      "name": "safeBatchTransferFrom",
      "outputs": [],
      "stateMutability": "nonpayable",
      "type": "function"
    },
    {
      "inputs": [
        {
          "internalType": "address",
          "name": "from",
          "type": "address"
        },
        {
          "internalType": "address",
          "name": "to",
          "type": "address"
        },
        {
          "internalType": "uint256",
          "name": "id",
          "type": "uint256"
        },
        {
          "internalType": "uint256",
          "name": "amount",
          "type": "uint256"
        },
        {
          "internalType": "bytes",
          "name": "data",
          "type": "bytes"
        }
      ],
      "name": "safeTransferFrom",
      "outputs": [],
      "stateMutability": "nonpayable",
      "type": "function"
    },
    {
      "inputs": [
        {
          "internalType": "address",
          "name": "operator",
          "type": "address"
        },
        {
          "internalType": "bool",
          "name": "approved",
          "type": "bool"
        }
      ],
      "name": "setApprovalForAll",
      "outputs": [],
      "stateMutability": "nonpayable",
      "type": "function"
    },
    {
      "inputs": [
        {
          "internalType": "bytes4",
          "name": "interfaceId",
          "type": "bytes4"
        }
      ],
      "name": "supportsInterface",
      "outputs": [
        {
          "internalType": "bool",
          "name": "",
          "type": "bool"
        }
      ],
      "stateMutability": "view",
      "type": "function",
      "constant": true
    },
    {
      "inputs": [
        {
          "internalType": "uint256",
          "name": "tokenId",
          "type": "uint256"
        }
      ],
      "name": "uri",
      "outputs": [
        {
          "internalType": "string",
          "name": "",
          "type": "string"
        }
      ],
      "stateMutability": "view",
      "type": "function",
      "constant": true
    },
    {
      "inputs": [
        {
          "internalType": "uint256",
          "name": "tokenId",
          "type": "uint256"
        },
        {
          "internalType": "string",
          "name": "tokenUri",
          "type": "string"
        }
      ],
      "name": "setTokenUri",
      "outputs": [],
      "stateMutability": "nonpayable",
      "type": "function"
    },
    {
      "inputs": [
        {
          "internalType": "string",
          "name": "tokenUri",
          "type": "string"
        }
      ],
      "name": "mintEvent",
      "outputs": [],
      "stateMutability": "nonpayable",
      "type": "function"
    },
    {
      "inputs": [
        {
          "internalType": "string",
          "name": "tokenUri",
          "type": "string"
        },
        {
          "internalType": "uint256",
          "name": "eventTokenId",
          "type": "uint256"
        },
        {
          "internalType": "uint256",
          "name": "quantity",
          "type": "uint256"
        },
        {
          "internalType": "uint256",
          "name": "price",
          "type": "uint256"
        }
      ],
      "name": "mintTicket",
      "outputs": [],
      "stateMutability": "nonpayable",
      "type": "function"
    },
    {
      "inputs": [
        {
          "internalType": "uint256",
          "name": "tokenId",
          "type": "uint256"
        },
        {
          "internalType": "uint256",
          "name": "price",
          "type": "uint256"
        }
      ],
      "name": "createMarketItem",
      "outputs": [],
      "stateMutability": "payable",
      "type": "function",
      "payable": true
    },
    {
      "inputs": [],
      "name": "fetchMarketItems",
      "outputs": [
        {
          "components": [
            {
              "internalType": "uint256",
              "name": "itemId",
              "type": "uint256"
            },
            {
              "internalType": "uint256",
              "name": "tokenId",
              "type": "uint256"
            },
            {
              "internalType": "address payable",
              "name": "seller",
              "type": "address"
            },
            {
              "internalType": "address payable",
              "name": "owner",
              "type": "address"
            },
            {
              "internalType": "uint256",
              "name": "price",
              "type": "uint256"
            },
            {
              "internalType": "bool",
              "name": "sold",
              "type": "bool"
            }
          ],
          "internalType": "struct Event.MarketItem[]",
          "name": "",
          "type": "tuple[]"
        }
      ],
      "stateMutability": "view",
      "type": "function",
      "constant": true
    },
    {
      "inputs": [
        {
          "internalType": "address",
          "name": "account",
          "type": "address"
        }
      ],
      "name": "fetchCreatedEvents",
      "outputs": [
        {
          "components": [
            {
              "internalType": "uint256",
              "name": "tokenId",
              "type": "uint256"
            },
            {
              "internalType": "address payable",
              "name": "owner",
              "type": "address"
            }
          ],
          "internalType": "struct Event.EventItem[]",
          "name": "",
          "type": "tuple[]"
        }
      ],
      "stateMutability": "view",
      "type": "function",
      "constant": true
    },
    {
      "inputs": [
        {
          "internalType": "uint256",
          "name": "eventTokenId",
          "type": "uint256"
        }
      ],
      "name": "fetchTicketsInEvent",
      "outputs": [
        {
          "components": [
            {
              "internalType": "uint256",
              "name": "tokenId",
              "type": "uint256"
            },
            {
              "internalType": "uint256",
              "name": "eventTokenId",
              "type": "uint256"
            },
            {
              "internalType": "address payable",
              "name": "owner",
              "type": "address"
            },
            {
              "internalType": "uint256",
              "name": "price",
              "type": "uint256"
            }
          ],
          "internalType": "struct Event.TicketItem[]",
          "name": "",
          "type": "tuple[]"
        }
      ],
      "stateMutability": "view",
      "type": "function",
      "constant": true
    },
    {
      "inputs": [
        {
          "internalType": "uint256",
          "name": "tokenId",
          "type": "uint256"
        }
      ],
      "name": "fetchEvent",
      "outputs": [
        {
          "components": [
            {
              "internalType": "uint256",
              "name": "tokenId",
              "type": "uint256"
            },
            {
              "internalType": "address payable",
              "name": "owner",
              "type": "address"
            }
          ],
          "internalType": "struct Event.EventItem",
          "name": "",
          "type": "tuple"
        }
      ],
      "stateMutability": "view",
      "type": "function",
      "constant": true
    },
    {
      "inputs": [
        {
          "internalType": "uint256",
          "name": "tokenId",
          "type": "uint256"
        }
      ],
      "name": "fetchTicket",
      "outputs": [
        {
          "components": [
            {
              "internalType": "uint256",
              "name": "tokenId",
              "type": "uint256"
            },
            {
              "internalType": "uint256",
              "name": "eventTokenId",
              "type": "uint256"
            },
            {
              "internalType": "address payable",
              "name": "owner",
              "type": "address"
            },
            {
              "internalType": "uint256",
              "name": "price",
              "type": "uint256"
            }
          ],
          "internalType": "struct Event.TicketItem",
          "name": "",
          "type": "tuple"
        }
      ],
      "stateMutability": "view",
      "type": "function",
      "constant": true
    },
    {
      "inputs": [
        {
          "internalType": "address",
          "name": "",
          "type": "address"
        },
        {
          "internalType": "address",
          "name": "",
          "type": "address"
        },
        {
          "internalType": "uint256",
          "name": "",
          "type": "uint256"
        },
        {
          "internalType": "uint256",
          "name": "",
          "type": "uint256"
        },
        {
          "internalType": "bytes",
          "name": "",
          "type": "bytes"
        }
      ],
      "name": "onERC1155Received",
      "outputs": [
        {
          "internalType": "bytes4",
          "name": "",
          "type": "bytes4"
        }
      ],
      "stateMutability": "nonpayable",
      "type": "function"
    },
    {
      "inputs": [
        {
          "internalType": "address",
          "name": "",
          "type": "address"
        },
        {
          "internalType": "address",
          "name": "",
          "type": "address"
        },
        {
          "internalType": "uint256[]",
          "name": "",
          "type": "uint256[]"
        },
        {
          "internalType": "uint256[]",
          "name": "",
          "type": "uint256[]"
        },
        {
          "internalType": "bytes",
          "name": "",
          "type": "bytes"
        }
      ],
      "name": "onERC1155BatchReceived",
      "outputs": [
        {
          "internalType": "bytes4",
          "name": "",
          "type": "bytes4"
        }
      ],
      "stateMutability": "nonpayable",
      "type": "function"
    },
    {
      "inputs": [
        {
          "internalType": "address",
          "name": "",
          "type": "address"
        },
        {
          "internalType": "address",
          "name": "",
          "type": "address"
        },
        {
          "internalType": "uint256",
          "name": "",
          "type": "uint256"
        },
        {
          "internalType": "bytes",
          "name": "",
          "type": "bytes"
        }
      ],
      "name": "onERC721Received",
      "outputs": [
        {
          "internalType": "bytes4",
          "name": "",
          "type": "bytes4"
        }
      ],
      "stateMutability": "nonpayable",
      "type": "function"
    }
  ],
  "bytecode": "0x60806040523480156200001157600080fd5b506040518060200160405280600081525062000033816200007b60201b60201c565b5033600660006101000a81548173ffffffffffffffffffffffffffffffffffffffff021916908373ffffffffffffffffffffffffffffffffffffffff160217905550620001ac565b80600290805190602001906200009392919062000097565b5050565b828054620000a59062000176565b90600052602060002090601f016020900481019282620000c9576000855562000115565b82601f10620000e457805160ff191683800117855562000115565b8280016001018555821562000115579182015b8281111562000114578251825591602001919060010190620000f7565b5b50905062000124919062000128565b5090565b5b808211156200014357600081600090555060010162000129565b5090565b7f4e487b7100000000000000000000000000000000000000000000000000000000600052602260045260246000fd5b600060028204905060018216806200018f57607f821691505b60208210811415620001a657620001a562000147565b5b50919050565b613fd780620001bc6000396000f3fe60806040526004361061011e5760003560e01c806357f7789e116100a0578063bc197c8111610064578063bc197c811461041f578063e985e9c51461045c578063f23a6e6114610499578063f242432a146104d6578063f9d5c505146104ff5761011e565b806357f7789e1461033e5780638c8b5fd61461036757806397dada91146103a45780639be0b935146103cd578063a22cb465146103f65761011e565b80632eb2c2d6116100e75780632eb2c2d61461024257806331d909701461026b578063361c1995146102a85780634e1273f4146102c45780635105d526146103015761011e565b8062fdd58e1461012357806301ffc9a7146101605780630e89341c1461019d5780630f08efe0146101da578063150b7a0214610205575b600080fd5b34801561012f57600080fd5b5061014a6004803603810190610145919061255a565b61053c565b60405161015791906125a9565b60405180910390f35b34801561016c57600080fd5b506101876004803603810190610182919061261c565b610605565b6040516101949190612664565b60405180910390f35b3480156101a957600080fd5b506101c460048036038101906101bf919061267f565b6106e7565b6040516101d19190612745565b60405180910390f35b3480156101e657600080fd5b506101ef61078c565b6040516101fc91906128d0565b60405180910390f35b34801561021157600080fd5b5061022c60048036038101906102279190612a27565b6109bd565b6040516102399190612ab9565b60405180910390f35b34801561024e57600080fd5b5061026960048036038101906102649190612b9c565b6109d1565b005b34801561027757600080fd5b50610292600480360381019061028d9190612c6b565b610a72565b60405161029f9190612d76565b60405180910390f35b6102c260048036038101906102bd9190612d98565b610b76565b005b3480156102d057600080fd5b506102eb60048036038101906102e69190612e9b565b610d31565b6040516102f89190612fc2565b60405180910390f35b34801561030d57600080fd5b506103286004803603810190610323919061267f565b610e4a565b6040516103359190613039565b60405180910390f35b34801561034a57600080fd5b50610365600480360381019061036091906130f5565b610ef1565b005b34801561037357600080fd5b5061038e6004803603810190610389919061267f565b610f1d565b60405161039b9190613180565b60405180910390f35b3480156103b057600080fd5b506103cb60048036038101906103c6919061319b565b610fb0565b005b3480156103d957600080fd5b506103f460048036038101906103ef919061321e565b6111a6565b005b34801561040257600080fd5b5061041d60048036038101906104189190613293565b611368565b005b34801561042b57600080fd5b5061044660048036038101906104419190612b9c565b61137e565b6040516104539190612ab9565b60405180910390f35b34801561046857600080fd5b50610483600480360381019061047e91906132d3565b611393565b6040516104909190612664565b60405180910390f35b3480156104a557600080fd5b506104c060048036038101906104bb9190613313565b611427565b6040516104cd9190612ab9565b60405180910390f35b3480156104e257600080fd5b506104fd60048036038101906104f89190613313565b61143c565b005b34801561050b57600080fd5b506105266004803603810190610521919061267f565b6114dd565b60405161053391906134ae565b60405180910390f35b60008073ffffffffffffffffffffffffffffffffffffffff168373ffffffffffffffffffffffffffffffffffffffff1614156105ad576040517f08c379a00000000000000000000000000000000000000000000000000000000081526004016105a490613542565b60405180910390fd5b60008083815260200190815260200160002060008473ffffffffffffffffffffffffffffffffffffffff1673ffffffffffffffffffffffffffffffffffffffff16815260200190815260200160002054905092915050565b60007fd9b67a26000000000000000000000000000000000000000000000000000000007bffffffffffffffffffffffffffffffffffffffffffffffffffffffff1916827bffffffffffffffffffffffffffffffffffffffffffffffffffffffff191614806106d057507f0e89341c000000000000000000000000000000000000000000000000000000007bffffffffffffffffffffffffffffffffffffffffffffffffffffffff1916827bffffffffffffffffffffffffffffffffffffffffffffffffffffffff1916145b806106e057506106df826115c9565b5b9050919050565b606060076000838152602001908152602001600020805461070790613591565b80601f016020809104026020016040519081016040528092919081815260200182805461073390613591565b80156107805780601f1061075557610100808354040283529160200191610780565b820191906000526020600020905b81548152906001019060200180831161076357829003601f168201915b50505050509050919050565b6060600061079a6004611633565b905060006107a86005611633565b6107b26004611633565b6107bc91906135f2565b90506000808267ffffffffffffffff8111156107db576107da6128fc565b5b60405190808252806020026020018201604052801561081457816020015b61080161233d565b8152602001906001900390816107f95790505b50905060005b848110156109b257600b60006001836108339190613626565b815260200190815260200160002060050160009054906101000a900460ff1661099f5760006001826108659190613626565b90506000600b60008381526020019081526020016000209050806040518060c001604052908160008201548152602001600182015481526020016002820160009054906101000a900473ffffffffffffffffffffffffffffffffffffffff1673ffffffffffffffffffffffffffffffffffffffff1673ffffffffffffffffffffffffffffffffffffffff1681526020016003820160009054906101000a900473ffffffffffffffffffffffffffffffffffffffff1673ffffffffffffffffffffffffffffffffffffffff1673ffffffffffffffffffffffffffffffffffffffff168152602001600482015481526020016005820160009054906101000a900460ff1615151515815250508486815181106109825761098161367c565b5b602002602001018190525060018561099a9190613626565b945050505b80806109aa906136ab565b91505061081a565b508094505050505090565b600063150b7a0260e01b9050949350505050565b6109d9611641565b73ffffffffffffffffffffffffffffffffffffffff168573ffffffffffffffffffffffffffffffffffffffff161480610a1f5750610a1e85610a19611641565b611393565b5b610a5e576040517f08c379a0000000000000000000000000000000000000000000000000000000008152600401610a5590613766565b60405180910390fd5b610a6b8585858585611649565b5050505050565b60606000600c60008473ffffffffffffffffffffffffffffffffffffffff1673ffffffffffffffffffffffffffffffffffffffff168152602001908152602001600020805480602002602001604051908101604052809291908181526020016000905b82821015610b675783829060005260206000209060020201604051806040016040529081600082015481526020016001820160009054906101000a900473ffffffffffffffffffffffffffffffffffffffff1673ffffffffffffffffffffffffffffffffffffffff1673ffffffffffffffffffffffffffffffffffffffff168152505081526020019060010190610ad5565b50505050905080915050919050565b60008111610bb9576040517f08c379a0000000000000000000000000000000000000000000000000000000008152600401610bb0906137d2565b60405180910390fd5b610bc3600461195d565b6000610bcf6004611633565b90506040518060c001604052808281526020018481526020013373ffffffffffffffffffffffffffffffffffffffff1681526020013373ffffffffffffffffffffffffffffffffffffffff16815260200183815260200160001515815250600b6000838152602001908152602001600020600082015181600001556020820151816001015560408201518160020160006101000a81548173ffffffffffffffffffffffffffffffffffffffff021916908373ffffffffffffffffffffffffffffffffffffffff16021790555060608201518160030160006101000a81548173ffffffffffffffffffffffffffffffffffffffff021916908373ffffffffffffffffffffffffffffffffffffffff1602179055506080820151816004015560a08201518160050160006101000a81548160ff021916908315150217905550905050610d2c33308560016040518060200160405280600081525061143c565b505050565b60608151835114610d77576040517f08c379a0000000000000000000000000000000000000000000000000000000008152600401610d6e90613864565b60405180910390fd5b6000835167ffffffffffffffff811115610d9457610d936128fc565b5b604051908082528060200260200182016040528015610dc25781602001602082028036833780820191505090505b50905060005b8451811015610e3f57610e0f858281518110610de757610de661367c565b5b6020026020010151858381518110610e0257610e0161367c565b5b602002602001015161053c565b828281518110610e2257610e2161367c565b5b60200260200101818152505080610e38906136ab565b9050610dc8565b508091505092915050565b610e526123a1565b60006009600084815260200190815260200160002060405180608001604052908160008201548152602001600182015481526020016002820160009054906101000a900473ffffffffffffffffffffffffffffffffffffffff1673ffffffffffffffffffffffffffffffffffffffff1673ffffffffffffffffffffffffffffffffffffffff168152602001600382015481525050905080915050919050565b80600760008481526020019081526020016000209080519060200190610f189291906123df565b505050565b610f25612465565b600060086000848152602001908152602001600020604051806040016040529081600082015481526020016001820160009054906101000a900473ffffffffffffffffffffffffffffffffffffffff1673ffffffffffffffffffffffffffffffffffffffff1673ffffffffffffffffffffffffffffffffffffffff1681525050905080915050919050565b60005b8281101561119f57610fc5600361195d565b6000610fd16003611633565b9050610fef3382600160405180602001604052806000815250611973565b610ff98187610ef1565b60405180608001604052808281526020018681526020013373ffffffffffffffffffffffffffffffffffffffff1681526020018481525060096000838152602001908152602001600020600082015181600001556020820151816001015560408201518160020160006101000a81548173ffffffffffffffffffffffffffffffffffffffff021916908373ffffffffffffffffffffffffffffffffffffffff16021790555060608201518160030155905050600a600086815260200190815260200160002060096000838152602001908152602001600020908060018154018082558091505060019003906000526020600020906004020160009091909190915060008201548160000155600182015481600101556002820160009054906101000a900473ffffffffffffffffffffffffffffffffffffffff168160020160006101000a81548173ffffffffffffffffffffffffffffffffffffffff021916908373ffffffffffffffffffffffffffffffffffffffff16021790555060038201548160030155505061118b8184610b76565b508080611197906136ab565b915050610fb3565b5050505050565b6111b0600361195d565b60006111bc6003611633565b90506111da3382600160405180602001604052806000815250611973565b6111e48183610ef1565b60405180604001604052808281526020013373ffffffffffffffffffffffffffffffffffffffff16815250600860008381526020019081526020016000206000820151816000015560208201518160010160006101000a81548173ffffffffffffffffffffffffffffffffffffffff021916908373ffffffffffffffffffffffffffffffffffffffff160217905550905050600c60003373ffffffffffffffffffffffffffffffffffffffff1673ffffffffffffffffffffffffffffffffffffffff168152602001908152602001600020600860008381526020019081526020016000209080600181540180825580915050600190039060005260206000209060020201600090919091909150600082015481600001556001820160009054906101000a900473ffffffffffffffffffffffffffffffffffffffff168160010160006101000a81548173ffffffffffffffffffffffffffffffffffffffff021916908373ffffffffffffffffffffffffffffffffffffffff16021790555050505050565b61137a611373611641565b8383611b09565b5050565b600063bc197c8160e01b905095945050505050565b6000600160008473ffffffffffffffffffffffffffffffffffffffff1673ffffffffffffffffffffffffffffffffffffffff16815260200190815260200160002060008373ffffffffffffffffffffffffffffffffffffffff1673ffffffffffffffffffffffffffffffffffffffff16815260200190815260200160002060009054906101000a900460ff16905092915050565b600063f23a6e6160e01b905095945050505050565b611444611641565b73ffffffffffffffffffffffffffffffffffffffff168573ffffffffffffffffffffffffffffffffffffffff16148061148a575061148985611484611641565b611393565b5b6114c9576040517f08c379a00000000000000000000000000000000000000000000000000000000081526004016114c0906138f6565b60405180910390fd5b6114d68585858585611c76565b5050505050565b60606000600a6000848152602001908152602001600020805480602002602001604051908101604052809291908181526020016000905b828210156115ba578382906000526020600020906004020160405180608001604052908160008201548152602001600182015481526020016002820160009054906101000a900473ffffffffffffffffffffffffffffffffffffffff1673ffffffffffffffffffffffffffffffffffffffff1673ffffffffffffffffffffffffffffffffffffffff16815260200160038201548152505081526020019060010190611514565b50505050905080915050919050565b60007f01ffc9a7000000000000000000000000000000000000000000000000000000007bffffffffffffffffffffffffffffffffffffffffffffffffffffffff1916827bffffffffffffffffffffffffffffffffffffffffffffffffffffffff1916149050919050565b600081600001549050919050565b600033905090565b815183511461168d576040517f08c379a000000000000000000000000000000000000000000000000000000000815260040161168490613988565b60405180910390fd5b600073ffffffffffffffffffffffffffffffffffffffff168473ffffffffffffffffffffffffffffffffffffffff1614156116fd576040517f08c379a00000000000000000000000000000000000000000000000000000000081526004016116f490613a1a565b60405180910390fd5b6000611707611641565b9050611717818787878787611ef8565b60005b84518110156118c85760008582815181106117385761173761367c565b5b6020026020010151905060008583815181106117575761175661367c565b5b60200260200101519050600080600084815260200190815260200160002060008b73ffffffffffffffffffffffffffffffffffffffff1673ffffffffffffffffffffffffffffffffffffffff168152602001908152602001600020549050818110156117f8576040517f08c379a00000000000000000000000000000000000000000000000000000000081526004016117ef90613aac565b60405180910390fd5b81810360008085815260200190815260200160002060008c73ffffffffffffffffffffffffffffffffffffffff1673ffffffffffffffffffffffffffffffffffffffff168152602001908152602001600020819055508160008085815260200190815260200160002060008b73ffffffffffffffffffffffffffffffffffffffff1673ffffffffffffffffffffffffffffffffffffffff16815260200190815260200160002060008282546118ad9190613626565b92505081905550505050806118c1906136ab565b905061171a565b508473ffffffffffffffffffffffffffffffffffffffff168673ffffffffffffffffffffffffffffffffffffffff168273ffffffffffffffffffffffffffffffffffffffff167f4a39dc06d4c0dbc64b70af90fd698a233a518aa5d07e595d983b8c0526c8f7fb878760405161193f929190613acc565b60405180910390a4611955818787878787611f00565b505050505050565b6001816000016000828254019250508190555050565b600073ffffffffffffffffffffffffffffffffffffffff168473ffffffffffffffffffffffffffffffffffffffff1614156119e3576040517f08c379a00000000000000000000000000000000000000000000000000000000081526004016119da90613b75565b60405180910390fd5b60006119ed611641565b9050611a0e816000876119ff886120d8565b611a08886120d8565b87611ef8565b8260008086815260200190815260200160002060008773ffffffffffffffffffffffffffffffffffffffff1673ffffffffffffffffffffffffffffffffffffffff1681526020019081526020016000206000828254611a6d9190613626565b925050819055508473ffffffffffffffffffffffffffffffffffffffff16600073ffffffffffffffffffffffffffffffffffffffff168273ffffffffffffffffffffffffffffffffffffffff167fc3d58168c5ae7397731d063d5bbf3d657854427343f4c083240f7aacaa2d0f628787604051611aeb929190613b95565b60405180910390a4611b0281600087878787612152565b5050505050565b8173ffffffffffffffffffffffffffffffffffffffff168373ffffffffffffffffffffffffffffffffffffffff161415611b78576040517f08c379a0000000000000000000000000000000000000000000000000000000008152600401611b6f90613c30565b60405180910390fd5b80600160008573ffffffffffffffffffffffffffffffffffffffff1673ffffffffffffffffffffffffffffffffffffffff16815260200190815260200160002060008473ffffffffffffffffffffffffffffffffffffffff1673ffffffffffffffffffffffffffffffffffffffff16815260200190815260200160002060006101000a81548160ff0219169083151502179055508173ffffffffffffffffffffffffffffffffffffffff168373ffffffffffffffffffffffffffffffffffffffff167f17307eab39ab6107e8899845ad3d59bd9653f200f220920489ca2b5937696c3183604051611c699190612664565b60405180910390a3505050565b600073ffffffffffffffffffffffffffffffffffffffff168473ffffffffffffffffffffffffffffffffffffffff161415611ce6576040517f08c379a0000000000000000000000000000000000000000000000000000000008152600401611cdd90613a1a565b60405180910390fd5b6000611cf0611641565b9050611d10818787611d01886120d8565b611d0a886120d8565b87611ef8565b600080600086815260200190815260200160002060008873ffffffffffffffffffffffffffffffffffffffff1673ffffffffffffffffffffffffffffffffffffffff16815260200190815260200160002054905083811015611da7576040517f08c379a0000000000000000000000000000000000000000000000000000000008152600401611d9e90613aac565b60405180910390fd5b83810360008087815260200190815260200160002060008973ffffffffffffffffffffffffffffffffffffffff1673ffffffffffffffffffffffffffffffffffffffff168152602001908152602001600020819055508360008087815260200190815260200160002060008873ffffffffffffffffffffffffffffffffffffffff1673ffffffffffffffffffffffffffffffffffffffff1681526020019081526020016000206000828254611e5c9190613626565b925050819055508573ffffffffffffffffffffffffffffffffffffffff168773ffffffffffffffffffffffffffffffffffffffff168373ffffffffffffffffffffffffffffffffffffffff167fc3d58168c5ae7397731d063d5bbf3d657854427343f4c083240f7aacaa2d0f628888604051611ed9929190613b95565b60405180910390a4611eef828888888888612152565b50505050505050565b505050505050565b611f1f8473ffffffffffffffffffffffffffffffffffffffff1661232a565b156120d0578373ffffffffffffffffffffffffffffffffffffffff1663bc197c8187878686866040518663ffffffff1660e01b8152600401611f65959493929190613cb4565b6020604051808303816000875af1925050508015611fa157506040513d601f19601f82011682018060405250810190611f9e9190613d31565b60015b61204757611fad613d6b565b806308c379a0141561200a5750611fc2613d8d565b80611fcd575061200c565b806040517f08c379a00000000000000000000000000000000000000000000000000000000081526004016120019190612745565b60405180910390fd5b505b6040517f08c379a000000000000000000000000000000000000000000000000000000000815260040161203e90613e95565b60405180910390fd5b63bc197c8160e01b7bffffffffffffffffffffffffffffffffffffffffffffffffffffffff1916817bffffffffffffffffffffffffffffffffffffffffffffffffffffffff1916146120ce576040517f08c379a00000000000000000000000000000000000000000000000000000000081526004016120c590613f27565b60405180910390fd5b505b505050505050565b60606000600167ffffffffffffffff8111156120f7576120f66128fc565b5b6040519080825280602002602001820160405280156121255781602001602082028036833780820191505090505b509050828160008151811061213d5761213c61367c565b5b60200260200101818152505080915050919050565b6121718473ffffffffffffffffffffffffffffffffffffffff1661232a565b15612322578373ffffffffffffffffffffffffffffffffffffffff1663f23a6e6187878686866040518663ffffffff1660e01b81526004016121b7959493929190613f47565b6020604051808303816000875af19250505080156121f357506040513d601f19601f820116820180604052508101906121f09190613d31565b60015b612299576121ff613d6b565b806308c379a0141561225c5750612214613d8d565b8061221f575061225e565b806040517f08c379a00000000000000000000000000000000000000000000000000000000081526004016122539190612745565b60405180910390fd5b505b6040517f08c379a000000000000000000000000000000000000000000000000000000000815260040161229090613e95565b60405180910390fd5b63f23a6e6160e01b7bffffffffffffffffffffffffffffffffffffffffffffffffffffffff1916817bffffffffffffffffffffffffffffffffffffffffffffffffffffffff191614612320576040517f08c379a000000000000000000000000000000000000000000000000000000000815260040161231790613f27565b60405180910390fd5b505b505050505050565b600080823b905060008111915050919050565b6040518060c001604052806000815260200160008152602001600073ffffffffffffffffffffffffffffffffffffffff168152602001600073ffffffffffffffffffffffffffffffffffffffff168152602001600081526020016000151581525090565b60405180608001604052806000815260200160008152602001600073ffffffffffffffffffffffffffffffffffffffff168152602001600081525090565b8280546123eb90613591565b90600052602060002090601f01602090048101928261240d5760008555612454565b82601f1061242657805160ff1916838001178555612454565b82800160010185558215612454579182015b82811115612453578251825591602001919060010190612438565b5b5090506124619190612495565b5090565b604051806040016040528060008152602001600073ffffffffffffffffffffffffffffffffffffffff1681525090565b5b808211156124ae576000816000905550600101612496565b5090565b6000604051905090565b600080fd5b600080fd5b600073ffffffffffffffffffffffffffffffffffffffff82169050919050565b60006124f1826124c6565b9050919050565b612501816124e6565b811461250c57600080fd5b50565b60008135905061251e816124f8565b92915050565b6000819050919050565b61253781612524565b811461254257600080fd5b50565b6000813590506125548161252e565b92915050565b60008060408385031215612571576125706124bc565b5b600061257f8582860161250f565b925050602061259085828601612545565b9150509250929050565b6125a381612524565b82525050565b60006020820190506125be600083018461259a565b92915050565b60007fffffffff0000000000000000000000000000000000000000000000000000000082169050919050565b6125f9816125c4565b811461260457600080fd5b50565b600081359050612616816125f0565b92915050565b600060208284031215612632576126316124bc565b5b600061264084828501612607565b91505092915050565b60008115159050919050565b61265e81612649565b82525050565b60006020820190506126796000830184612655565b92915050565b600060208284031215612695576126946124bc565b5b60006126a384828501612545565b91505092915050565b600081519050919050565b600082825260208201905092915050565b60005b838110156126e65780820151818401526020810190506126cb565b838111156126f5576000848401525b50505050565b6000601f19601f8301169050919050565b6000612717826126ac565b61272181856126b7565b93506127318185602086016126c8565b61273a816126fb565b840191505092915050565b6000602082019050818103600083015261275f818461270c565b905092915050565b600081519050919050565b600082825260208201905092915050565b6000819050602082019050919050565b61279c81612524565b82525050565b60006127ad826124c6565b9050919050565b6127bd816127a2565b82525050565b6127cc81612649565b82525050565b60c0820160008201516127e86000850182612793565b5060208201516127fb6020850182612793565b50604082015161280e60408501826127b4565b50606082015161282160608501826127b4565b5060808201516128346080850182612793565b5060a082015161284760a08501826127c3565b50505050565b600061285983836127d2565b60c08301905092915050565b6000602082019050919050565b600061287d82612767565b6128878185612772565b935061289283612783565b8060005b838110156128c35781516128aa888261284d565b97506128b583612865565b925050600181019050612896565b5085935050505092915050565b600060208201905081810360008301526128ea8184612872565b905092915050565b600080fd5b600080fd5b7f4e487b7100000000000000000000000000000000000000000000000000000000600052604160045260246000fd5b612934826126fb565b810181811067ffffffffffffffff82111715612953576129526128fc565b5b80604052505050565b60006129666124b2565b9050612972828261292b565b919050565b600067ffffffffffffffff821115612992576129916128fc565b5b61299b826126fb565b9050602081019050919050565b82818337600083830152505050565b60006129ca6129c584612977565b61295c565b9050828152602081018484840111156129e6576129e56128f7565b5b6129f18482856129a8565b509392505050565b600082601f830112612a0e57612a0d6128f2565b5b8135612a1e8482602086016129b7565b91505092915050565b60008060008060808587031215612a4157612a406124bc565b5b6000612a4f8782880161250f565b9450506020612a608782880161250f565b9350506040612a7187828801612545565b925050606085013567ffffffffffffffff811115612a9257612a916124c1565b5b612a9e878288016129f9565b91505092959194509250565b612ab3816125c4565b82525050565b6000602082019050612ace6000830184612aaa565b92915050565b600067ffffffffffffffff821115612aef57612aee6128fc565b5b602082029050602081019050919050565b600080fd5b6000612b18612b1384612ad4565b61295c565b90508083825260208201905060208402830185811115612b3b57612b3a612b00565b5b835b81811015612b645780612b508882612545565b845260208401935050602081019050612b3d565b5050509392505050565b600082601f830112612b8357612b826128f2565b5b8135612b93848260208601612b05565b91505092915050565b600080600080600060a08688031215612bb857612bb76124bc565b5b6000612bc68882890161250f565b9550506020612bd78882890161250f565b945050604086013567ffffffffffffffff811115612bf857612bf76124c1565b5b612c0488828901612b6e565b935050606086013567ffffffffffffffff811115612c2557612c246124c1565b5b612c3188828901612b6e565b925050608086013567ffffffffffffffff811115612c5257612c516124c1565b5b612c5e888289016129f9565b9150509295509295909350565b600060208284031215612c8157612c806124bc565b5b6000612c8f8482850161250f565b91505092915050565b600081519050919050565b600082825260208201905092915050565b6000819050602082019050919050565b604082016000820151612cda6000850182612793565b506020820151612ced60208501826127b4565b50505050565b6000612cff8383612cc4565b60408301905092915050565b6000602082019050919050565b6000612d2382612c98565b612d2d8185612ca3565b9350612d3883612cb4565b8060005b83811015612d69578151612d508882612cf3565b9750612d5b83612d0b565b925050600181019050612d3c565b5085935050505092915050565b60006020820190508181036000830152612d908184612d18565b905092915050565b60008060408385031215612daf57612dae6124bc565b5b6000612dbd85828601612545565b9250506020612dce85828601612545565b9150509250929050565b600067ffffffffffffffff821115612df357612df26128fc565b5b602082029050602081019050919050565b6000612e17612e1284612dd8565b61295c565b90508083825260208201905060208402830185811115612e3a57612e39612b00565b5b835b81811015612e635780612e4f888261250f565b845260208401935050602081019050612e3c565b5050509392505050565b600082601f830112612e8257612e816128f2565b5b8135612e92848260208601612e04565b91505092915050565b60008060408385031215612eb257612eb16124bc565b5b600083013567ffffffffffffffff811115612ed057612ecf6124c1565b5b612edc85828601612e6d565b925050602083013567ffffffffffffffff811115612efd57612efc6124c1565b5b612f0985828601612b6e565b9150509250929050565b600081519050919050565b600082825260208201905092915050565b6000819050602082019050919050565b6000612f4b8383612793565b60208301905092915050565b6000602082019050919050565b6000612f6f82612f13565b612f798185612f1e565b9350612f8483612f2f565b8060005b83811015612fb5578151612f9c8882612f3f565b9750612fa783612f57565b925050600181019050612f88565b5085935050505092915050565b60006020820190508181036000830152612fdc8184612f64565b905092915050565b608082016000820151612ffa6000850182612793565b50602082015161300d6020850182612793565b50604082015161302060408501826127b4565b5060608201516130336060850182612793565b50505050565b600060808201905061304e6000830184612fe4565b92915050565b600067ffffffffffffffff82111561306f5761306e6128fc565b5b613078826126fb565b9050602081019050919050565b600061309861309384613054565b61295c565b9050828152602081018484840111156130b4576130b36128f7565b5b6130bf8482856129a8565b509392505050565b600082601f8301126130dc576130db6128f2565b5b81356130ec848260208601613085565b91505092915050565b6000806040838503121561310c5761310b6124bc565b5b600061311a85828601612545565b925050602083013567ffffffffffffffff81111561313b5761313a6124c1565b5b613147858286016130c7565b9150509250929050565b6040820160008201516131676000850182612793565b50602082015161317a60208501826127b4565b50505050565b60006040820190506131956000830184613151565b92915050565b600080600080608085870312156131b5576131b46124bc565b5b600085013567ffffffffffffffff8111156131d3576131d26124c1565b5b6131df878288016130c7565b94505060206131f087828801612545565b935050604061320187828801612545565b925050606061321287828801612545565b91505092959194509250565b600060208284031215613234576132336124bc565b5b600082013567ffffffffffffffff811115613252576132516124c1565b5b61325e848285016130c7565b91505092915050565b61327081612649565b811461327b57600080fd5b50565b60008135905061328d81613267565b92915050565b600080604083850312156132aa576132a96124bc565b5b60006132b88582860161250f565b92505060206132c98582860161327e565b9150509250929050565b600080604083850312156132ea576132e96124bc565b5b60006132f88582860161250f565b92505060206133098582860161250f565b9150509250929050565b600080600080600060a0868803121561332f5761332e6124bc565b5b600061333d8882890161250f565b955050602061334e8882890161250f565b945050604061335f88828901612545565b935050606061337088828901612545565b925050608086013567ffffffffffffffff811115613391576133906124c1565b5b61339d888289016129f9565b9150509295509295909350565b600081519050919050565b600082825260208201905092915050565b6000819050602082019050919050565b6080820160008201516133ec6000850182612793565b5060208201516133ff6020850182612793565b50604082015161341260408501826127b4565b5060608201516134256060850182612793565b50505050565b600061343783836133d6565b60808301905092915050565b6000602082019050919050565b600061345b826133aa565b61346581856133b5565b9350613470836133c6565b8060005b838110156134a1578151613488888261342b565b975061349383613443565b925050600181019050613474565b5085935050505092915050565b600060208201905081810360008301526134c88184613450565b905092915050565b7f455243313135353a2062616c616e636520717565727920666f7220746865207a60008201527f65726f2061646472657373000000000000000000000000000000000000000000602082015250565b600061352c602b836126b7565b9150613537826134d0565b604082019050919050565b6000602082019050818103600083015261355b8161351f565b9050919050565b7f4e487b7100000000000000000000000000000000000000000000000000000000600052602260045260246000fd5b600060028204905060018216806135a957607f821691505b602082108114156135bd576135bc613562565b5b50919050565b7f4e487b7100000000000000000000000000000000000000000000000000000000600052601160045260246000fd5b60006135fd82612524565b915061360883612524565b92508282101561361b5761361a6135c3565b5b828203905092915050565b600061363182612524565b915061363c83612524565b9250827fffffffffffffffffffffffffffffffffffffffffffffffffffffffffffffffff03821115613671576136706135c3565b5b828201905092915050565b7f4e487b7100000000000000000000000000000000000000000000000000000000600052603260045260246000fd5b60006136b682612524565b91507fffffffffffffffffffffffffffffffffffffffffffffffffffffffffffffffff8214156136e9576136e86135c3565b5b600182019050919050565b7f455243313135353a207472616e736665722063616c6c6572206973206e6f742060008201527f6f776e6572206e6f7220617070726f7665640000000000000000000000000000602082015250565b60006137506032836126b7565b915061375b826136f4565b604082019050919050565b6000602082019050818103600083015261377f81613743565b9050919050565b7f5072696365206d757374206265206174206c6561737420312077656900000000600082015250565b60006137bc601c836126b7565b91506137c782613786565b602082019050919050565b600060208201905081810360008301526137eb816137af565b9050919050565b7f455243313135353a206163636f756e747320616e6420696473206c656e67746860008201527f206d69736d617463680000000000000000000000000000000000000000000000602082015250565b600061384e6029836126b7565b9150613859826137f2565b604082019050919050565b6000602082019050818103600083015261387d81613841565b9050919050565b7f455243313135353a2063616c6c6572206973206e6f74206f776e6572206e6f7260008201527f20617070726f7665640000000000000000000000000000000000000000000000602082015250565b60006138e06029836126b7565b91506138eb82613884565b604082019050919050565b6000602082019050818103600083015261390f816138d3565b9050919050565b7f455243313135353a2069647320616e6420616d6f756e7473206c656e6774682060008201527f6d69736d61746368000000000000000000000000000000000000000000000000602082015250565b60006139726028836126b7565b915061397d82613916565b604082019050919050565b600060208201905081810360008301526139a181613965565b9050919050565b7f455243313135353a207472616e7366657220746f20746865207a65726f20616460008201527f6472657373000000000000000000000000000000000000000000000000000000602082015250565b6000613a046025836126b7565b9150613a0f826139a8565b604082019050919050565b60006020820190508181036000830152613a33816139f7565b9050919050565b7f455243313135353a20696e73756666696369656e742062616c616e636520666f60008201527f72207472616e7366657200000000000000000000000000000000000000000000602082015250565b6000613a96602a836126b7565b9150613aa182613a3a565b604082019050919050565b60006020820190508181036000830152613ac581613a89565b9050919050565b60006040820190508181036000830152613ae68185612f64565b90508181036020830152613afa8184612f64565b90509392505050565b7f455243313135353a206d696e7420746f20746865207a65726f2061646472657360008201527f7300000000000000000000000000000000000000000000000000000000000000602082015250565b6000613b5f6021836126b7565b9150613b6a82613b03565b604082019050919050565b60006020820190508181036000830152613b8e81613b52565b9050919050565b6000604082019050613baa600083018561259a565b613bb7602083018461259a565b9392505050565b7f455243313135353a2073657474696e6720617070726f76616c2073746174757360008201527f20666f722073656c660000000000000000000000000000000000000000000000602082015250565b6000613c1a6029836126b7565b9150613c2582613bbe565b604082019050919050565b60006020820190508181036000830152613c4981613c0d565b9050919050565b613c59816124e6565b82525050565b600081519050919050565b600082825260208201905092915050565b6000613c8682613c5f565b613c908185613c6a565b9350613ca08185602086016126c8565b613ca9816126fb565b840191505092915050565b600060a082019050613cc96000830188613c50565b613cd66020830187613c50565b8181036040830152613ce88186612f64565b90508181036060830152613cfc8185612f64565b90508181036080830152613d108184613c7b565b90509695505050505050565b600081519050613d2b816125f0565b92915050565b600060208284031215613d4757613d466124bc565b5b6000613d5584828501613d1c565b91505092915050565b60008160e01c9050919050565b600060033d1115613d8a5760046000803e613d87600051613d5e565b90505b90565b600060443d1015613d9d57613e20565b613da56124b2565b60043d036004823e80513d602482011167ffffffffffffffff82111715613dcd575050613e20565b808201805167ffffffffffffffff811115613deb5750505050613e20565b80602083010160043d038501811115613e08575050505050613e20565b613e178260200185018661292b565b82955050505050505b90565b7f455243313135353a207472616e7366657220746f206e6f6e204552433131353560008201527f526563656976657220696d706c656d656e746572000000000000000000000000602082015250565b6000613e7f6034836126b7565b9150613e8a82613e23565b604082019050919050565b60006020820190508181036000830152613eae81613e72565b9050919050565b7f455243313135353a204552433131353552656365697665722072656a6563746560008201527f6420746f6b656e73000000000000000000000000000000000000000000000000602082015250565b6000613f116028836126b7565b9150613f1c82613eb5565b604082019050919050565b60006020820190508181036000830152613f4081613f04565b9050919050565b600060a082019050613f5c6000830188613c50565b613f696020830187613c50565b613f76604083018661259a565b613f83606083018561259a565b8181036080830152613f958184613c7b565b9050969550505050505056fea2646970667358221220b3f68ace458100a6274dd4cfb94a7fe8021759975224bc054d2144da3029068164736f6c634300080b0033",
  "immutableReferences": {},
  "source": "// SPDX-License-Identifier: MIT\r\npragma solidity ^0.8.11;\r\n\r\nimport \"@openzeppelin/contracts/token/ERC1155/ERC1155.sol\";\r\nimport \"@openzeppelin/contracts/utils/Counters.sol\";\r\n\r\ncontract Event is ERC1155 {\r\n    using Counters for Counters.Counter;\r\n    Counters.Counter private _tokenIds;\r\n    Counters.Counter private _itemIds;\r\n    Counters.Counter private _itemsSold;\r\n    address payable owner;\r\n\r\n    constructor() ERC1155(\"\") {\r\n        owner = payable(msg.sender);\r\n    }\r\n\r\n    mapping(uint256 => string) private _uris;\r\n\r\n    struct EventItem {\r\n        uint256 tokenId;\r\n        address payable owner;\r\n    }\r\n\r\n    struct TicketItem {\r\n        uint256 tokenId;\r\n        uint256 eventTokenId;\r\n        address payable owner;\r\n        uint256 price;\r\n    }\r\n\r\n    struct MarketItem {\r\n        uint256 itemId;\r\n        uint256 tokenId;\r\n        address payable seller;\r\n        address payable owner;\r\n        uint256 price;\r\n        bool sold;\r\n    }\r\n\r\n    mapping(uint256 => EventItem) private eventToken;\r\n    mapping(uint256 => TicketItem) private ticketToken;\r\n    mapping(uint256 => TicketItem[]) private ticketsInEvent;\r\n    mapping(uint256 => MarketItem) private ticketInMarket;\r\n\r\n    mapping(address => EventItem[]) private createdEvents;\r\n\r\n    function uri(uint256 tokenId) public view override returns (string memory) {\r\n        return (_uris[tokenId]);\r\n    }\r\n\r\n    function setTokenUri(uint256 tokenId, string memory tokenUri) public {\r\n        // require(bytes(_uris[tokenId]).length == 0, \"Cannot set uri twice\");\r\n        _uris[tokenId] = tokenUri;\r\n    }\r\n\r\n    function mintEvent(string memory tokenUri) public {\r\n        _tokenIds.increment();\r\n        uint256 newItemId = _tokenIds.current();\r\n\r\n        _mint(msg.sender, newItemId, 1, \"\");\r\n        setTokenUri(newItemId, tokenUri);\r\n        eventToken[newItemId] = EventItem(newItemId, payable(msg.sender));\r\n        createdEvents[msg.sender].push(eventToken[newItemId]);\r\n    }\r\n\r\n    function mintTicket(\r\n        string memory tokenUri,\r\n        uint256 eventTokenId,\r\n        uint256 quantity,\r\n        uint256 price\r\n    ) public {\r\n        for (uint256 i = 0; i < quantity; i++) {\r\n            _tokenIds.increment();\r\n            uint256 newItemId = _tokenIds.current();\r\n\r\n            _mint(msg.sender, newItemId, 1, \"\");\r\n            setTokenUri(newItemId, tokenUri);\r\n            ticketToken[newItemId] = TicketItem(\r\n                newItemId,\r\n                eventTokenId,\r\n                payable(msg.sender),\r\n                price\r\n            );\r\n            ticketsInEvent[eventTokenId].push(ticketToken[newItemId]);\r\n            createMarketItem(newItemId, price);\r\n        }\r\n    }\r\n\r\n    function createMarketItem(uint256 tokenId, uint256 price) public payable {\r\n        require(price > 0, \"Price must be at least 1 wei\");\r\n        _itemIds.increment();\r\n        uint256 itemId = _itemIds.current();\r\n\r\n        ticketInMarket[itemId] = MarketItem(\r\n            itemId,\r\n            tokenId,\r\n            payable(msg.sender),\r\n            payable(msg.sender),\r\n            price,\r\n            false\r\n        );\r\n\r\n        safeTransferFrom(msg.sender, address(this), tokenId, 1, \"\");\r\n    }\r\n\r\n    function fetchMarketItems() public view returns (MarketItem[] memory) {\r\n        uint256 itemCount = _itemIds.current();\r\n        uint256 unsoldItemCount = _itemIds.current() - _itemsSold.current();\r\n        uint256 currentIndex = 0;\r\n\r\n        MarketItem[] memory items = new MarketItem[](unsoldItemCount);\r\n        for (uint256 i = 0; i < itemCount; i++) {\r\n            if (!ticketInMarket[i + 1].sold) {\r\n                uint256 currentId = i + 1;\r\n                MarketItem storage currentItem = ticketInMarket[currentId];\r\n                items[currentIndex] = currentItem;\r\n                currentIndex += 1;\r\n            }\r\n        }\r\n        return items;\r\n    }\r\n\r\n    function fetchCreatedEvents(address account)\r\n        public\r\n        view\r\n        returns (EventItem[] memory)\r\n    {\r\n        EventItem[] memory items = createdEvents[account];\r\n        return items;\r\n    }\r\n\r\n    function fetchTicketsInEvent(uint256 eventTokenId)\r\n        public\r\n        view\r\n        returns (TicketItem[] memory)\r\n    {\r\n        TicketItem[] memory items = ticketsInEvent[eventTokenId];\r\n        return items;\r\n    }\r\n\r\n    function fetchEvent(uint256 tokenId)\r\n        public\r\n        view\r\n        returns (EventItem memory)\r\n    {\r\n        EventItem memory item = eventToken[tokenId];\r\n        return item;\r\n    }\r\n\r\n    function fetchTicket(uint256 tokenId)\r\n        public\r\n        view\r\n        returns (TicketItem memory)\r\n    {\r\n        TicketItem memory item = ticketToken[tokenId];\r\n        return item;\r\n    }\r\n\r\n    function onERC1155Received(\r\n        address,\r\n        address,\r\n        uint256,\r\n        uint256,\r\n        bytes memory\r\n    ) public virtual returns (bytes4) {\r\n        return this.onERC1155Received.selector;\r\n    }\r\n\r\n    function onERC1155BatchReceived(\r\n        address,\r\n        address,\r\n        uint256[] memory,\r\n        uint256[] memory,\r\n        bytes memory\r\n    ) public virtual returns (bytes4) {\r\n        return this.onERC1155BatchReceived.selector;\r\n    }\r\n\r\n    function onERC721Received(\r\n        address,\r\n        address,\r\n        uint256,\r\n        bytes memory\r\n    ) public virtual returns (bytes4) {\r\n        return this.onERC721Received.selector;\r\n    }\r\n}\r\n",
  "sourcePath": "D:\\Final Project\\ticketplace\\contracts\\Event.sol",
  "compiler": {
    "name": "solc",
    "version": "0.8.11+commit.d7f03943.Emscripten.clang"
  },
  "schemaVersion": "3.4.4",
  "updatedAt": "2022-02-16T17:34:05.714Z",
  "networkType": "ethereum",
  "devdoc": {
    "kind": "dev",
    "methods": {
      "balanceOf(address,uint256)": {
        "details": "See {IERC1155-balanceOf}. Requirements: - `account` cannot be the zero address."
      },
      "balanceOfBatch(address[],uint256[])": {
        "details": "See {IERC1155-balanceOfBatch}. Requirements: - `accounts` and `ids` must have the same length."
      },
      "isApprovedForAll(address,address)": {
        "details": "See {IERC1155-isApprovedForAll}."
      },
      "safeBatchTransferFrom(address,address,uint256[],uint256[],bytes)": {
        "details": "See {IERC1155-safeBatchTransferFrom}."
      },
      "safeTransferFrom(address,address,uint256,uint256,bytes)": {
        "details": "See {IERC1155-safeTransferFrom}."
      },
      "setApprovalForAll(address,bool)": {
        "details": "See {IERC1155-setApprovalForAll}."
      },
      "supportsInterface(bytes4)": {
        "details": "See {IERC165-supportsInterface}."
      }
    },
    "version": 1
  },
  "userdoc": {
    "kind": "user",
    "methods": {},
    "version": 1
  }
}