{
  "contractName": "Event",
  "abi": [
    {
      "inputs": [],
      "stateMutability": "nonpayable",
      "type": "constructor"
    },
    {
      "anonymous": false,
      "inputs": [
        {
          "indexed": true,
          "internalType": "address",
          "name": "account",
          "type": "address"
        },
        {
          "indexed": true,
          "internalType": "address",
          "name": "operator",
          "type": "address"
        },
        {
          "indexed": false,
          "internalType": "bool",
          "name": "approved",
          "type": "bool"
        }
      ],
      "name": "ApprovalForAll",
      "type": "event"
    },
    {
      "anonymous": false,
      "inputs": [
        {
          "indexed": true,
          "internalType": "address",
          "name": "operator",
          "type": "address"
        },
        {
          "indexed": true,
          "internalType": "address",
          "name": "from",
          "type": "address"
        },
        {
          "indexed": true,
          "internalType": "address",
          "name": "to",
          "type": "address"
        },
        {
          "indexed": false,
          "internalType": "uint256[]",
          "name": "ids",
          "type": "uint256[]"
        },
        {
          "indexed": false,
          "internalType": "uint256[]",
          "name": "values",
          "type": "uint256[]"
        }
      ],
      "name": "TransferBatch",
      "type": "event"
    },
    {
      "anonymous": false,
      "inputs": [
        {
          "indexed": true,
          "internalType": "address",
          "name": "operator",
          "type": "address"
        },
        {
          "indexed": true,
          "internalType": "address",
          "name": "from",
          "type": "address"
        },
        {
          "indexed": true,
          "internalType": "address",
          "name": "to",
          "type": "address"
        },
        {
          "indexed": false,
          "internalType": "uint256",
          "name": "id",
          "type": "uint256"
        },
        {
          "indexed": false,
          "internalType": "uint256",
          "name": "value",
          "type": "uint256"
        }
      ],
      "name": "TransferSingle",
      "type": "event"
    },
    {
      "anonymous": false,
      "inputs": [
        {
          "indexed": false,
          "internalType": "string",
          "name": "value",
          "type": "string"
        },
        {
          "indexed": true,
          "internalType": "uint256",
          "name": "id",
          "type": "uint256"
        }
      ],
      "name": "URI",
      "type": "event"
    },
    {
      "inputs": [
        {
          "internalType": "address",
          "name": "account",
          "type": "address"
        },
        {
          "internalType": "uint256",
          "name": "id",
          "type": "uint256"
        }
      ],
      "name": "balanceOf",
      "outputs": [
        {
          "internalType": "uint256",
          "name": "",
          "type": "uint256"
        }
      ],
      "stateMutability": "view",
      "type": "function",
      "constant": true
    },
    {
      "inputs": [
        {
          "internalType": "address[]",
          "name": "accounts",
          "type": "address[]"
        },
        {
          "internalType": "uint256[]",
          "name": "ids",
          "type": "uint256[]"
        }
      ],
      "name": "balanceOfBatch",
      "outputs": [
        {
          "internalType": "uint256[]",
          "name": "",
          "type": "uint256[]"
        }
      ],
      "stateMutability": "view",
      "type": "function",
      "constant": true
    },
    {
      "inputs": [
        {
          "internalType": "address",
          "name": "account",
          "type": "address"
        },
        {
          "internalType": "address",
          "name": "operator",
          "type": "address"
        }
      ],
      "name": "isApprovedForAll",
      "outputs": [
        {
          "internalType": "bool",
          "name": "",
          "type": "bool"
        }
      ],
      "stateMutability": "view",
      "type": "function",
      "constant": true
    },
    {
      "inputs": [
        {
          "internalType": "address",
          "name": "from",
          "type": "address"
        },
        {
          "internalType": "address",
          "name": "to",
          "type": "address"
        },
        {
          "internalType": "uint256[]",
          "name": "ids",
          "type": "uint256[]"
        },
        {
          "internalType": "uint256[]",
          "name": "amounts",
          "type": "uint256[]"
        },
        {
          "internalType": "bytes",
          "name": "data",
          "type": "bytes"
        }
      ],
      "name": "safeBatchTransferFrom",
      "outputs": [],
      "stateMutability": "nonpayable",
      "type": "function"
    },
    {
      "inputs": [
        {
          "internalType": "address",
          "name": "from",
          "type": "address"
        },
        {
          "internalType": "address",
          "name": "to",
          "type": "address"
        },
        {
          "internalType": "uint256",
          "name": "id",
          "type": "uint256"
        },
        {
          "internalType": "uint256",
          "name": "amount",
          "type": "uint256"
        },
        {
          "internalType": "bytes",
          "name": "data",
          "type": "bytes"
        }
      ],
      "name": "safeTransferFrom",
      "outputs": [],
      "stateMutability": "nonpayable",
      "type": "function"
    },
    {
      "inputs": [
        {
          "internalType": "address",
          "name": "operator",
          "type": "address"
        },
        {
          "internalType": "bool",
          "name": "approved",
          "type": "bool"
        }
      ],
      "name": "setApprovalForAll",
      "outputs": [],
      "stateMutability": "nonpayable",
      "type": "function"
    },
    {
      "inputs": [
        {
          "internalType": "bytes4",
          "name": "interfaceId",
          "type": "bytes4"
        }
      ],
      "name": "supportsInterface",
      "outputs": [
        {
          "internalType": "bool",
          "name": "",
          "type": "bool"
        }
      ],
      "stateMutability": "view",
      "type": "function",
      "constant": true
    },
    {
      "inputs": [
        {
          "internalType": "uint256",
          "name": "tokenId",
          "type": "uint256"
        }
      ],
      "name": "uri",
      "outputs": [
        {
          "internalType": "string",
          "name": "",
          "type": "string"
        }
      ],
      "stateMutability": "view",
      "type": "function",
      "constant": true
    },
    {
      "inputs": [
        {
          "internalType": "uint256",
          "name": "tokenId",
          "type": "uint256"
        },
        {
          "internalType": "string",
          "name": "tokenUri",
          "type": "string"
        }
      ],
      "name": "setTokenUri",
      "outputs": [],
      "stateMutability": "nonpayable",
      "type": "function"
    },
    {
      "inputs": [
        {
          "internalType": "string",
          "name": "tokenUri",
          "type": "string"
        }
      ],
      "name": "mintEvent",
      "outputs": [],
      "stateMutability": "nonpayable",
      "type": "function"
    },
    {
      "inputs": [
        {
          "internalType": "string",
          "name": "tokenUri",
          "type": "string"
        },
        {
          "internalType": "uint256",
          "name": "eventTokenId",
          "type": "uint256"
        },
        {
          "internalType": "uint256",
          "name": "quantity",
          "type": "uint256"
        },
        {
          "internalType": "uint256",
          "name": "price",
          "type": "uint256"
        }
      ],
      "name": "mintTicket",
      "outputs": [],
      "stateMutability": "nonpayable",
      "type": "function"
    },
    {
      "inputs": [
        {
          "internalType": "uint256",
          "name": "tokenId",
          "type": "uint256"
        },
        {
          "internalType": "uint256",
          "name": "price",
          "type": "uint256"
        }
      ],
      "name": "createMarketItem",
      "outputs": [],
      "stateMutability": "payable",
      "type": "function",
      "payable": true
    },
    {
      "inputs": [
        {
          "internalType": "uint256",
          "name": "itemId",
          "type": "uint256"
        }
      ],
      "name": "cancelListing",
      "outputs": [],
      "stateMutability": "payable",
      "type": "function",
      "payable": true
    },
    {
      "inputs": [
        {
          "internalType": "uint256",
          "name": "itemId",
          "type": "uint256"
        }
      ],
      "name": "buyMarketItem",
      "outputs": [],
      "stateMutability": "payable",
      "type": "function",
      "payable": true
    },
    {
      "inputs": [
        {
          "internalType": "uint256",
          "name": "tokenId",
          "type": "uint256"
        }
      ],
      "name": "fetchMarketItem",
      "outputs": [
        {
          "components": [
            {
              "internalType": "uint256",
              "name": "itemId",
              "type": "uint256"
            },
            {
              "internalType": "uint256",
              "name": "tokenId",
              "type": "uint256"
            },
            {
              "internalType": "address payable",
              "name": "seller",
              "type": "address"
            },
            {
              "internalType": "address payable",
              "name": "owner",
              "type": "address"
            },
            {
              "internalType": "uint256",
              "name": "price",
              "type": "uint256"
            },
            {
              "internalType": "bool",
              "name": "sold",
              "type": "bool"
            }
          ],
          "internalType": "struct Event.MarketItem",
          "name": "",
          "type": "tuple"
        }
      ],
      "stateMutability": "view",
      "type": "function",
      "constant": true
    },
    {
      "inputs": [],
      "name": "fetchMarketItems",
      "outputs": [
        {
          "components": [
            {
              "internalType": "uint256",
              "name": "itemId",
              "type": "uint256"
            },
            {
              "internalType": "uint256",
              "name": "tokenId",
              "type": "uint256"
            },
            {
              "internalType": "address payable",
              "name": "seller",
              "type": "address"
            },
            {
              "internalType": "address payable",
              "name": "owner",
              "type": "address"
            },
            {
              "internalType": "uint256",
              "name": "price",
              "type": "uint256"
            },
            {
              "internalType": "bool",
              "name": "sold",
              "type": "bool"
            }
          ],
          "internalType": "struct Event.MarketItem[]",
          "name": "",
          "type": "tuple[]"
        }
      ],
      "stateMutability": "view",
      "type": "function",
      "constant": true
    },
    {
      "inputs": [
        {
          "internalType": "address",
          "name": "account",
          "type": "address"
        }
      ],
      "name": "fetchCreatedEvents",
      "outputs": [
        {
          "components": [
            {
              "internalType": "uint256",
              "name": "tokenId",
              "type": "uint256"
            },
            {
              "internalType": "address payable",
              "name": "owner",
              "type": "address"
            }
          ],
          "internalType": "struct Event.EventItem[]",
          "name": "",
          "type": "tuple[]"
        }
      ],
      "stateMutability": "view",
      "type": "function",
      "constant": true
    },
    {
      "inputs": [
        {
          "internalType": "uint256",
          "name": "eventTokenId",
          "type": "uint256"
        }
      ],
      "name": "fetchTicketsInEvent",
      "outputs": [
        {
          "components": [
            {
              "internalType": "uint256",
              "name": "tokenId",
              "type": "uint256"
            }
          ],
          "internalType": "struct Event.Item[]",
          "name": "",
          "type": "tuple[]"
        }
      ],
      "stateMutability": "view",
      "type": "function",
      "constant": true
    },
    {
      "inputs": [
        {
          "internalType": "uint256",
          "name": "tokenId",
          "type": "uint256"
        }
      ],
      "name": "fetchEvent",
      "outputs": [
        {
          "components": [
            {
              "internalType": "uint256",
              "name": "tokenId",
              "type": "uint256"
            },
            {
              "internalType": "address payable",
              "name": "owner",
              "type": "address"
            }
          ],
          "internalType": "struct Event.EventItem",
          "name": "",
          "type": "tuple"
        }
      ],
      "stateMutability": "view",
      "type": "function",
      "constant": true
    },
    {
      "inputs": [
        {
          "internalType": "uint256",
          "name": "tokenId",
          "type": "uint256"
        }
      ],
      "name": "fetchTicket",
      "outputs": [
        {
          "components": [
            {
              "internalType": "uint256",
              "name": "tokenId",
              "type": "uint256"
            },
            {
              "internalType": "uint256",
              "name": "eventTokenId",
              "type": "uint256"
            },
            {
              "internalType": "address payable",
              "name": "owner",
              "type": "address"
            },
            {
              "internalType": "uint256",
              "name": "price",
              "type": "uint256"
            },
            {
              "internalType": "bool",
              "name": "list",
              "type": "bool"
            },
            {
              "internalType": "bool",
              "name": "active",
              "type": "bool"
            }
          ],
          "internalType": "struct Event.TicketItem",
          "name": "",
          "type": "tuple"
        }
      ],
      "stateMutability": "view",
      "type": "function",
      "constant": true
    },
    {
      "inputs": [
        {
          "internalType": "address",
          "name": "",
          "type": "address"
        },
        {
          "internalType": "address",
          "name": "",
          "type": "address"
        },
        {
          "internalType": "uint256",
          "name": "",
          "type": "uint256"
        },
        {
          "internalType": "uint256",
          "name": "",
          "type": "uint256"
        },
        {
          "internalType": "bytes",
          "name": "",
          "type": "bytes"
        }
      ],
      "name": "onERC1155Received",
      "outputs": [
        {
          "internalType": "bytes4",
          "name": "",
          "type": "bytes4"
        }
      ],
      "stateMutability": "nonpayable",
      "type": "function"
    },
    {
      "inputs": [
        {
          "internalType": "address",
          "name": "",
          "type": "address"
        },
        {
          "internalType": "address",
          "name": "",
          "type": "address"
        },
        {
          "internalType": "uint256[]",
          "name": "",
          "type": "uint256[]"
        },
        {
          "internalType": "uint256[]",
          "name": "",
          "type": "uint256[]"
        },
        {
          "internalType": "bytes",
          "name": "",
          "type": "bytes"
        }
      ],
      "name": "onERC1155BatchReceived",
      "outputs": [
        {
          "internalType": "bytes4",
          "name": "",
          "type": "bytes4"
        }
      ],
      "stateMutability": "nonpayable",
      "type": "function"
    },
    {
      "inputs": [
        {
          "internalType": "address",
          "name": "",
          "type": "address"
        },
        {
          "internalType": "address",
          "name": "",
          "type": "address"
        },
        {
          "internalType": "uint256",
          "name": "",
          "type": "uint256"
        },
        {
          "internalType": "bytes",
          "name": "",
          "type": "bytes"
        }
      ],
      "name": "onERC721Received",
      "outputs": [
        {
          "internalType": "bytes4",
          "name": "",
          "type": "bytes4"
        }
      ],
      "stateMutability": "nonpayable",
      "type": "function"
    }
  ],
  "bytecode": "0x60806040523480156200001157600080fd5b506040518060200160405280600081525062000033816200007b60201b60201c565b5033600660006101000a81548173ffffffffffffffffffffffffffffffffffffffff021916908373ffffffffffffffffffffffffffffffffffffffff160217905550620001ac565b80600290805190602001906200009392919062000097565b5050565b828054620000a59062000176565b90600052602060002090601f016020900481019282620000c9576000855562000115565b82601f10620000e457805160ff191683800117855562000115565b8280016001018555821562000115579182015b8281111562000114578251825591602001919060010190620000f7565b5b50905062000124919062000128565b5090565b5b808211156200014357600081600090555060010162000129565b5090565b7f4e487b7100000000000000000000000000000000000000000000000000000000600052602260045260246000fd5b600060028204905060018216806200018f57607f821691505b60208210811415620001a657620001a562000147565b5b50919050565b61479c80620001bc6000396000f3fe60806040526004361061013f5760003560e01c80634e1273f4116100b6578063a22cb4651161006f578063a22cb4651461048c578063bc197c81146104b5578063e985e9c5146104f2578063f23a6e611461052f578063f242432a1461056c578063f9d5c505146105955761013f565b80634e1273f41461035a5780635105d5261461039757806357f7789e146103d45780638c8b5fd6146103fd57806397dada911461043a5780639be0b935146104635761013f565b80632a45b250116101085780632a45b250146102635780632eb2c2d6146102a0578063305a67a8146102c957806331d90970146102e5578063351901c314610322578063361c19951461033e5761013f565b8062fdd58e1461014457806301ffc9a7146101815780630e89341c146101be5780630f08efe0146101fb578063150b7a0214610226575b600080fd5b34801561015057600080fd5b5061016b60048036038101906101669190612b44565b6105d2565b6040516101789190612b93565b60405180910390f35b34801561018d57600080fd5b506101a860048036038101906101a39190612c06565b61069b565b6040516101b59190612c4e565b60405180910390f35b3480156101ca57600080fd5b506101e560048036038101906101e09190612c69565b61077d565b6040516101f29190612d2f565b60405180910390f35b34801561020757600080fd5b50610210610822565b60405161021d9190612eba565b60405180910390f35b34801561023257600080fd5b5061024d60048036038101906102489190613011565b610a53565b60405161025a91906130a3565b60405180910390f35b34801561026f57600080fd5b5061028a60048036038101906102859190612c69565b610a67565b6040516102979190613139565b60405180910390f35b3480156102ac57600080fd5b506102c760048036038101906102c2919061321c565b610bf0565b005b6102e360048036038101906102de9190612c69565b610c91565b005b3480156102f157600080fd5b5061030c600480360381019061030791906132eb565b610e30565b60405161031991906133f6565b60405180910390f35b61033c60048036038101906103379190612c69565b610f34565b005b61035860048036038101906103539190613418565b61116d565b005b34801561036657600080fd5b50610381600480360381019061037c919061351b565b611372565b60405161038e9190613642565b60405180910390f35b3480156103a357600080fd5b506103be60048036038101906103b99190612c69565b61148b565b6040516103cb91906136df565b60405180910390f35b3480156103e057600080fd5b506103fb60048036038101906103f6919061379b565b611568565b005b34801561040957600080fd5b50610424600480360381019061041f9190612c69565b611594565b6040516104319190613826565b60405180910390f35b34801561044657600080fd5b50610461600480360381019061045c9190613841565b611627565b005b34801561046f57600080fd5b5061048a600480360381019061048591906138c4565b6117ec565b005b34801561049857600080fd5b506104b360048036038101906104ae9190613939565b6119ae565b005b3480156104c157600080fd5b506104dc60048036038101906104d7919061321c565b6119c4565b6040516104e991906130a3565b60405180910390f35b3480156104fe57600080fd5b5061051960048036038101906105149190613979565b6119d9565b6040516105269190612c4e565b60405180910390f35b34801561053b57600080fd5b50610556600480360381019061055191906139b9565b611a6d565b60405161056391906130a3565b60405180910390f35b34801561057857600080fd5b50610593600480360381019061058e91906139b9565b611a82565b005b3480156105a157600080fd5b506105bc60048036038101906105b79190612c69565b611b23565b6040516105c99190613b1b565b60405180910390f35b60008073ffffffffffffffffffffffffffffffffffffffff168373ffffffffffffffffffffffffffffffffffffffff161415610643576040517f08c379a000000000000000000000000000000000000000000000000000000000815260040161063a90613baf565b60405180910390fd5b60008083815260200190815260200160002060008473ffffffffffffffffffffffffffffffffffffffff1673ffffffffffffffffffffffffffffffffffffffff16815260200190815260200160002054905092915050565b60007fd9b67a26000000000000000000000000000000000000000000000000000000007bffffffffffffffffffffffffffffffffffffffffffffffffffffffff1916827bffffffffffffffffffffffffffffffffffffffffffffffffffffffff1916148061076657507f0e89341c000000000000000000000000000000000000000000000000000000007bffffffffffffffffffffffffffffffffffffffffffffffffffffffff1916827bffffffffffffffffffffffffffffffffffffffffffffffffffffffff1916145b80610776575061077582611ba1565b5b9050919050565b606060076000838152602001908152602001600020805461079d90613bfe565b80601f01602080910402602001604051908101604052809291908181526020018280546107c990613bfe565b80156108165780601f106107eb57610100808354040283529160200191610816565b820191906000526020600020905b8154815290600101906020018083116107f957829003601f168201915b50505050509050919050565b606060006108306004611c0b565b9050600061083e6005611c0b565b6108486004611c0b565b6108529190613c5f565b90506000808267ffffffffffffffff81111561087157610870612ee6565b5b6040519080825280602002602001820160405280156108aa57816020015b610897612915565b81526020019060019003908161088f5790505b50905060005b84811015610a4857600b60006001836108c99190613c93565b815260200190815260200160002060050160009054906101000a900460ff16610a355760006001826108fb9190613c93565b90506000600b60008381526020019081526020016000209050806040518060c001604052908160008201548152602001600182015481526020016002820160009054906101000a900473ffffffffffffffffffffffffffffffffffffffff1673ffffffffffffffffffffffffffffffffffffffff1673ffffffffffffffffffffffffffffffffffffffff1681526020016003820160009054906101000a900473ffffffffffffffffffffffffffffffffffffffff1673ffffffffffffffffffffffffffffffffffffffff1673ffffffffffffffffffffffffffffffffffffffff168152602001600482015481526020016005820160009054906101000a900460ff161515151581525050848681518110610a1857610a17613ce9565b5b6020026020010181905250600185610a309190613c93565b945050505b8080610a4090613d18565b9150506108b0565b508094505050505090565b600063150b7a0260e01b9050949350505050565b610a6f612915565b6000610a7b6004611c0b565b9050610a85612915565b60005b82811015610be55784600b6000600184610aa29190613c93565b8152602001908152602001600020600101541415610bd2576000600182610ac99190613c93565b9050600b60008281526020019081526020016000206040518060c001604052908160008201548152602001600182015481526020016002820160009054906101000a900473ffffffffffffffffffffffffffffffffffffffff1673ffffffffffffffffffffffffffffffffffffffff1673ffffffffffffffffffffffffffffffffffffffff1681526020016003820160009054906101000a900473ffffffffffffffffffffffffffffffffffffffff1673ffffffffffffffffffffffffffffffffffffffff1673ffffffffffffffffffffffffffffffffffffffff168152602001600482015481526020016005820160009054906101000a900460ff1615151515815250509250505b8080610bdd90613d18565b915050610a88565b508092505050919050565b610bf8611c19565b73ffffffffffffffffffffffffffffffffffffffff168573ffffffffffffffffffffffffffffffffffffffff161480610c3e5750610c3d85610c38611c19565b6119d9565b5b610c7d576040517f08c379a0000000000000000000000000000000000000000000000000000000008152600401610c7490613dd3565b60405180910390fd5b610c8a8585858585611c21565b5050505050565b600b600082815260200190815260200160002060030160009054906101000a900473ffffffffffffffffffffffffffffffffffffffff1673ffffffffffffffffffffffffffffffffffffffff163373ffffffffffffffffffffffffffffffffffffffff1614610d35576040517f08c379a0000000000000000000000000000000000000000000000000000000008152600401610d2c90613e65565b60405180910390fd5b6000600b600083815260200190815260200160002060010154905060006009600083815260200190815260200160002060040160006101000a81548160ff021916908315150217905550600b600083815260200190815260200160002060008082016000905560018201600090556002820160006101000a81549073ffffffffffffffffffffffffffffffffffffffff02191690556003820160006101000a81549073ffffffffffffffffffffffffffffffffffffffff021916905560048201600090556005820160006101000a81549060ff02191690555050610e2c303383600160405180602001604052806000815250611f35565b5050565b60606000600c60008473ffffffffffffffffffffffffffffffffffffffff1673ffffffffffffffffffffffffffffffffffffffff168152602001908152602001600020805480602002602001604051908101604052809291908181526020016000905b82821015610f255783829060005260206000209060020201604051806040016040529081600082015481526020016001820160009054906101000a900473ffffffffffffffffffffffffffffffffffffffff1673ffffffffffffffffffffffffffffffffffffffff1673ffffffffffffffffffffffffffffffffffffffff168152505081526020019060010190610e93565b50505050905080915050919050565b6000600b60008381526020019081526020016000206004015490506000600b60008481526020019081526020016000206001015490506402540be40082610f7b9190613e85565b3414610fbc576040517f08c379a0000000000000000000000000000000000000000000000000000000008152600401610fb390613f2b565b60405180910390fd5b600b600084815260200190815260200160002060020160009054906101000a900473ffffffffffffffffffffffffffffffffffffffff1673ffffffffffffffffffffffffffffffffffffffff166108fc349081150290604051600060405180830381858888f19350505050158015611038573d6000803e3d6000fd5b5033600b600085815260200190815260200160002060030160006101000a81548173ffffffffffffffffffffffffffffffffffffffff021916908373ffffffffffffffffffffffffffffffffffffffff1602179055506001600b600085815260200190815260200160002060050160006101000a81548160ff021916908315150217905550336009600083815260200190815260200160002060020160006101000a81548173ffffffffffffffffffffffffffffffffffffffff021916908373ffffffffffffffffffffffffffffffffffffffff16021790555060006009600083815260200190815260200160002060040160006101000a81548160ff02191690831515021790555061114b60056121b7565b611168303383600160405180602001604052806000815250611f35565b505050565b600081116111b0576040517f08c379a00000000000000000000000000000000000000000000000000000000081526004016111a790613f97565b60405180910390fd5b6111ba60046121b7565b60006111c66004611c0b565b90506040518060c001604052808281526020018481526020013373ffffffffffffffffffffffffffffffffffffffff1681526020013373ffffffffffffffffffffffffffffffffffffffff16815260200183815260200160001515815250600b6000838152602001908152602001600020600082015181600001556020820151816001015560408201518160020160006101000a81548173ffffffffffffffffffffffffffffffffffffffff021916908373ffffffffffffffffffffffffffffffffffffffff16021790555060608201518160030160006101000a81548173ffffffffffffffffffffffffffffffffffffffff021916908373ffffffffffffffffffffffffffffffffffffffff1602179055506080820151816004015560a08201518160050160006101000a81548160ff02191690831515021790555090505081600960008581526020019081526020016000206003018190555060016009600085815260200190815260200160002060040160006101000a81548160ff02191690831515021790555061136d333085600160405180602001604052806000815250611a82565b505050565b606081518351146113b8576040517f08c379a00000000000000000000000000000000000000000000000000000000081526004016113af90614029565b60405180910390fd5b6000835167ffffffffffffffff8111156113d5576113d4612ee6565b5b6040519080825280602002602001820160405280156114035781602001602082028036833780820191505090505b50905060005b84518110156114805761145085828151811061142857611427613ce9565b5b602002602001015185838151811061144357611442613ce9565b5b60200260200101516105d2565b82828151811061146357611462613ce9565b5b6020026020010181815250508061147990613d18565b9050611409565b508091505092915050565b611493612979565b6000600960008481526020019081526020016000206040518060c001604052908160008201548152602001600182015481526020016002820160009054906101000a900473ffffffffffffffffffffffffffffffffffffffff1673ffffffffffffffffffffffffffffffffffffffff1673ffffffffffffffffffffffffffffffffffffffff168152602001600382015481526020016004820160009054906101000a900460ff161515151581526020016004820160019054906101000a900460ff161515151581525050905080915050919050565b8060076000848152602001908152602001600020908051906020019061158f9291906129c9565b505050565b61159c612a4f565b600060086000848152602001908152602001600020604051806040016040529081600082015481526020016001820160009054906101000a900473ffffffffffffffffffffffffffffffffffffffff1673ffffffffffffffffffffffffffffffffffffffff1673ffffffffffffffffffffffffffffffffffffffff1681525050905080915050919050565b60005b828110156117e55761163c60036121b7565b60006116486003611c0b565b905061166633826001604051806020016040528060008152506121cd565b6116708187611568565b6040518060c001604052808281526020018681526020013373ffffffffffffffffffffffffffffffffffffffff1681526020018481526020016000151581526020016001151581525060096000838152602001908152602001600020600082015181600001556020820151816001015560408201518160020160006101000a81548173ffffffffffffffffffffffffffffffffffffffff021916908373ffffffffffffffffffffffffffffffffffffffff1602179055506060820151816003015560808201518160040160006101000a81548160ff02191690831515021790555060a08201518160040160016101000a81548160ff021916908315150217905550905050600a6000868152602001908152602001600020604051806020016040528083815250908060018154018082558091505060019003906000526020600020016000909190919091506000820151816000015550506117d1818461116d565b5080806117dd90613d18565b91505061162a565b5050505050565b6117f660036121b7565b60006118026003611c0b565b905061182033826001604051806020016040528060008152506121cd565b61182a8183611568565b60405180604001604052808281526020013373ffffffffffffffffffffffffffffffffffffffff16815250600860008381526020019081526020016000206000820151816000015560208201518160010160006101000a81548173ffffffffffffffffffffffffffffffffffffffff021916908373ffffffffffffffffffffffffffffffffffffffff160217905550905050600c60003373ffffffffffffffffffffffffffffffffffffffff1673ffffffffffffffffffffffffffffffffffffffff168152602001908152602001600020600860008381526020019081526020016000209080600181540180825580915050600190039060005260206000209060020201600090919091909150600082015481600001556001820160009054906101000a900473ffffffffffffffffffffffffffffffffffffffff168160010160006101000a81548173ffffffffffffffffffffffffffffffffffffffff021916908373ffffffffffffffffffffffffffffffffffffffff16021790555050505050565b6119c06119b9611c19565b8383612363565b5050565b600063bc197c8160e01b905095945050505050565b6000600160008473ffffffffffffffffffffffffffffffffffffffff1673ffffffffffffffffffffffffffffffffffffffff16815260200190815260200160002060008373ffffffffffffffffffffffffffffffffffffffff1673ffffffffffffffffffffffffffffffffffffffff16815260200190815260200160002060009054906101000a900460ff16905092915050565b600063f23a6e6160e01b905095945050505050565b611a8a611c19565b73ffffffffffffffffffffffffffffffffffffffff168573ffffffffffffffffffffffffffffffffffffffff161480611ad05750611acf85611aca611c19565b6119d9565b5b611b0f576040517f08c379a0000000000000000000000000000000000000000000000000000000008152600401611b06906140bb565b60405180910390fd5b611b1c8585858585611f35565b5050505050565b60606000600a6000848152602001908152602001600020805480602002602001604051908101604052809291908181526020016000905b82821015611b925783829060005260206000200160405180602001604052908160008201548152505081526020019060010190611b5a565b50505050905080915050919050565b60007f01ffc9a7000000000000000000000000000000000000000000000000000000007bffffffffffffffffffffffffffffffffffffffffffffffffffffffff1916827bffffffffffffffffffffffffffffffffffffffffffffffffffffffff1916149050919050565b600081600001549050919050565b600033905090565b8151835114611c65576040517f08c379a0000000000000000000000000000000000000000000000000000000008152600401611c5c9061414d565b60405180910390fd5b600073ffffffffffffffffffffffffffffffffffffffff168473ffffffffffffffffffffffffffffffffffffffff161415611cd5576040517f08c379a0000000000000000000000000000000000000000000000000000000008152600401611ccc906141df565b60405180910390fd5b6000611cdf611c19565b9050611cef8187878787876124d0565b60005b8451811015611ea0576000858281518110611d1057611d0f613ce9565b5b602002602001015190506000858381518110611d2f57611d2e613ce9565b5b60200260200101519050600080600084815260200190815260200160002060008b73ffffffffffffffffffffffffffffffffffffffff1673ffffffffffffffffffffffffffffffffffffffff16815260200190815260200160002054905081811015611dd0576040517f08c379a0000000000000000000000000000000000000000000000000000000008152600401611dc790614271565b60405180910390fd5b81810360008085815260200190815260200160002060008c73ffffffffffffffffffffffffffffffffffffffff1673ffffffffffffffffffffffffffffffffffffffff168152602001908152602001600020819055508160008085815260200190815260200160002060008b73ffffffffffffffffffffffffffffffffffffffff1673ffffffffffffffffffffffffffffffffffffffff1681526020019081526020016000206000828254611e859190613c93565b9250508190555050505080611e9990613d18565b9050611cf2565b508473ffffffffffffffffffffffffffffffffffffffff168673ffffffffffffffffffffffffffffffffffffffff168273ffffffffffffffffffffffffffffffffffffffff167f4a39dc06d4c0dbc64b70af90fd698a233a518aa5d07e595d983b8c0526c8f7fb8787604051611f17929190614291565b60405180910390a4611f2d8187878787876124d8565b505050505050565b600073ffffffffffffffffffffffffffffffffffffffff168473ffffffffffffffffffffffffffffffffffffffff161415611fa5576040517f08c379a0000000000000000000000000000000000000000000000000000000008152600401611f9c906141df565b60405180910390fd5b6000611faf611c19565b9050611fcf818787611fc0886126b0565b611fc9886126b0565b876124d0565b600080600086815260200190815260200160002060008873ffffffffffffffffffffffffffffffffffffffff1673ffffffffffffffffffffffffffffffffffffffff16815260200190815260200160002054905083811015612066576040517f08c379a000000000000000000000000000000000000000000000000000000000815260040161205d90614271565b60405180910390fd5b83810360008087815260200190815260200160002060008973ffffffffffffffffffffffffffffffffffffffff1673ffffffffffffffffffffffffffffffffffffffff168152602001908152602001600020819055508360008087815260200190815260200160002060008873ffffffffffffffffffffffffffffffffffffffff1673ffffffffffffffffffffffffffffffffffffffff168152602001908152602001600020600082825461211b9190613c93565b925050819055508573ffffffffffffffffffffffffffffffffffffffff168773ffffffffffffffffffffffffffffffffffffffff168373ffffffffffffffffffffffffffffffffffffffff167fc3d58168c5ae7397731d063d5bbf3d657854427343f4c083240f7aacaa2d0f6288886040516121989291906142c8565b60405180910390a46121ae82888888888861272a565b50505050505050565b6001816000016000828254019250508190555050565b600073ffffffffffffffffffffffffffffffffffffffff168473ffffffffffffffffffffffffffffffffffffffff16141561223d576040517f08c379a000000000000000000000000000000000000000000000000000000000815260040161223490614363565b60405180910390fd5b6000612247611c19565b905061226881600087612259886126b0565b612262886126b0565b876124d0565b8260008086815260200190815260200160002060008773ffffffffffffffffffffffffffffffffffffffff1673ffffffffffffffffffffffffffffffffffffffff16815260200190815260200160002060008282546122c79190613c93565b925050819055508473ffffffffffffffffffffffffffffffffffffffff16600073ffffffffffffffffffffffffffffffffffffffff168273ffffffffffffffffffffffffffffffffffffffff167fc3d58168c5ae7397731d063d5bbf3d657854427343f4c083240f7aacaa2d0f6287876040516123459291906142c8565b60405180910390a461235c8160008787878761272a565b5050505050565b8173ffffffffffffffffffffffffffffffffffffffff168373ffffffffffffffffffffffffffffffffffffffff1614156123d2576040517f08c379a00000000000000000000000000000000000000000000000000000000081526004016123c9906143f5565b60405180910390fd5b80600160008573ffffffffffffffffffffffffffffffffffffffff1673ffffffffffffffffffffffffffffffffffffffff16815260200190815260200160002060008473ffffffffffffffffffffffffffffffffffffffff1673ffffffffffffffffffffffffffffffffffffffff16815260200190815260200160002060006101000a81548160ff0219169083151502179055508173ffffffffffffffffffffffffffffffffffffffff168373ffffffffffffffffffffffffffffffffffffffff167f17307eab39ab6107e8899845ad3d59bd9653f200f220920489ca2b5937696c31836040516124c39190612c4e565b60405180910390a3505050565b505050505050565b6124f78473ffffffffffffffffffffffffffffffffffffffff16612902565b156126a8578373ffffffffffffffffffffffffffffffffffffffff1663bc197c8187878686866040518663ffffffff1660e01b815260040161253d959493929190614479565b6020604051808303816000875af192505050801561257957506040513d601f19601f8201168201806040525081019061257691906144f6565b60015b61261f57612585614530565b806308c379a014156125e2575061259a614552565b806125a557506125e4565b806040517f08c379a00000000000000000000000000000000000000000000000000000000081526004016125d99190612d2f565b60405180910390fd5b505b6040517f08c379a00000000000000000000000000000000000000000000000000000000081526004016126169061465a565b60405180910390fd5b63bc197c8160e01b7bffffffffffffffffffffffffffffffffffffffffffffffffffffffff1916817bffffffffffffffffffffffffffffffffffffffffffffffffffffffff1916146126a6576040517f08c379a000000000000000000000000000000000000000000000000000000000815260040161269d906146ec565b60405180910390fd5b505b505050505050565b60606000600167ffffffffffffffff8111156126cf576126ce612ee6565b5b6040519080825280602002602001820160405280156126fd5781602001602082028036833780820191505090505b509050828160008151811061271557612714613ce9565b5b60200260200101818152505080915050919050565b6127498473ffffffffffffffffffffffffffffffffffffffff16612902565b156128fa578373ffffffffffffffffffffffffffffffffffffffff1663f23a6e6187878686866040518663ffffffff1660e01b815260040161278f95949392919061470c565b6020604051808303816000875af19250505080156127cb57506040513d601f19601f820116820180604052508101906127c891906144f6565b60015b612871576127d7614530565b806308c379a0141561283457506127ec614552565b806127f75750612836565b806040517f08c379a000000000000000000000000000000000000000000000000000000000815260040161282b9190612d2f565b60405180910390fd5b505b6040517f08c379a00000000000000000000000000000000000000000000000000000000081526004016128689061465a565b60405180910390fd5b63f23a6e6160e01b7bffffffffffffffffffffffffffffffffffffffffffffffffffffffff1916817bffffffffffffffffffffffffffffffffffffffffffffffffffffffff1916146128f8576040517f08c379a00000000000000000000000000000000000000000000000000000000081526004016128ef906146ec565b60405180910390fd5b505b505050505050565b600080823b905060008111915050919050565b6040518060c001604052806000815260200160008152602001600073ffffffffffffffffffffffffffffffffffffffff168152602001600073ffffffffffffffffffffffffffffffffffffffff168152602001600081526020016000151581525090565b6040518060c001604052806000815260200160008152602001600073ffffffffffffffffffffffffffffffffffffffff168152602001600081526020016000151581526020016000151581525090565b8280546129d590613bfe565b90600052602060002090601f0160209004810192826129f75760008555612a3e565b82601f10612a1057805160ff1916838001178555612a3e565b82800160010185558215612a3e579182015b82811115612a3d578251825591602001919060010190612a22565b5b509050612a4b9190612a7f565b5090565b604051806040016040528060008152602001600073ffffffffffffffffffffffffffffffffffffffff1681525090565b5b80821115612a98576000816000905550600101612a80565b5090565b6000604051905090565b600080fd5b600080fd5b600073ffffffffffffffffffffffffffffffffffffffff82169050919050565b6000612adb82612ab0565b9050919050565b612aeb81612ad0565b8114612af657600080fd5b50565b600081359050612b0881612ae2565b92915050565b6000819050919050565b612b2181612b0e565b8114612b2c57600080fd5b50565b600081359050612b3e81612b18565b92915050565b60008060408385031215612b5b57612b5a612aa6565b5b6000612b6985828601612af9565b9250506020612b7a85828601612b2f565b9150509250929050565b612b8d81612b0e565b82525050565b6000602082019050612ba86000830184612b84565b92915050565b60007fffffffff0000000000000000000000000000000000000000000000000000000082169050919050565b612be381612bae565b8114612bee57600080fd5b50565b600081359050612c0081612bda565b92915050565b600060208284031215612c1c57612c1b612aa6565b5b6000612c2a84828501612bf1565b91505092915050565b60008115159050919050565b612c4881612c33565b82525050565b6000602082019050612c636000830184612c3f565b92915050565b600060208284031215612c7f57612c7e612aa6565b5b6000612c8d84828501612b2f565b91505092915050565b600081519050919050565b600082825260208201905092915050565b60005b83811015612cd0578082015181840152602081019050612cb5565b83811115612cdf576000848401525b50505050565b6000601f19601f8301169050919050565b6000612d0182612c96565b612d0b8185612ca1565b9350612d1b818560208601612cb2565b612d2481612ce5565b840191505092915050565b60006020820190508181036000830152612d498184612cf6565b905092915050565b600081519050919050565b600082825260208201905092915050565b6000819050602082019050919050565b612d8681612b0e565b82525050565b6000612d9782612ab0565b9050919050565b612da781612d8c565b82525050565b612db681612c33565b82525050565b60c082016000820151612dd26000850182612d7d565b506020820151612de56020850182612d7d565b506040820151612df86040850182612d9e565b506060820151612e0b6060850182612d9e565b506080820151612e1e6080850182612d7d565b5060a0820151612e3160a0850182612dad565b50505050565b6000612e438383612dbc565b60c08301905092915050565b6000602082019050919050565b6000612e6782612d51565b612e718185612d5c565b9350612e7c83612d6d565b8060005b83811015612ead578151612e948882612e37565b9750612e9f83612e4f565b925050600181019050612e80565b5085935050505092915050565b60006020820190508181036000830152612ed48184612e5c565b905092915050565b600080fd5b600080fd5b7f4e487b7100000000000000000000000000000000000000000000000000000000600052604160045260246000fd5b612f1e82612ce5565b810181811067ffffffffffffffff82111715612f3d57612f3c612ee6565b5b80604052505050565b6000612f50612a9c565b9050612f5c8282612f15565b919050565b600067ffffffffffffffff821115612f7c57612f7b612ee6565b5b612f8582612ce5565b9050602081019050919050565b82818337600083830152505050565b6000612fb4612faf84612f61565b612f46565b905082815260208101848484011115612fd057612fcf612ee1565b5b612fdb848285612f92565b509392505050565b600082601f830112612ff857612ff7612edc565b5b8135613008848260208601612fa1565b91505092915050565b6000806000806080858703121561302b5761302a612aa6565b5b600061303987828801612af9565b945050602061304a87828801612af9565b935050604061305b87828801612b2f565b925050606085013567ffffffffffffffff81111561307c5761307b612aab565b5b61308887828801612fe3565b91505092959194509250565b61309d81612bae565b82525050565b60006020820190506130b86000830184613094565b92915050565b60c0820160008201516130d46000850182612d7d565b5060208201516130e76020850182612d7d565b5060408201516130fa6040850182612d9e565b50606082015161310d6060850182612d9e565b5060808201516131206080850182612d7d565b5060a082015161313360a0850182612dad565b50505050565b600060c08201905061314e60008301846130be565b92915050565b600067ffffffffffffffff82111561316f5761316e612ee6565b5b602082029050602081019050919050565b600080fd5b600061319861319384613154565b612f46565b905080838252602082019050602084028301858111156131bb576131ba613180565b5b835b818110156131e457806131d08882612b2f565b8452602084019350506020810190506131bd565b5050509392505050565b600082601f83011261320357613202612edc565b5b8135613213848260208601613185565b91505092915050565b600080600080600060a0868803121561323857613237612aa6565b5b600061324688828901612af9565b955050602061325788828901612af9565b945050604086013567ffffffffffffffff81111561327857613277612aab565b5b613284888289016131ee565b935050606086013567ffffffffffffffff8111156132a5576132a4612aab565b5b6132b1888289016131ee565b925050608086013567ffffffffffffffff8111156132d2576132d1612aab565b5b6132de88828901612fe3565b9150509295509295909350565b60006020828403121561330157613300612aa6565b5b600061330f84828501612af9565b91505092915050565b600081519050919050565b600082825260208201905092915050565b6000819050602082019050919050565b60408201600082015161335a6000850182612d7d565b50602082015161336d6020850182612d9e565b50505050565b600061337f8383613344565b60408301905092915050565b6000602082019050919050565b60006133a382613318565b6133ad8185613323565b93506133b883613334565b8060005b838110156133e95781516133d08882613373565b97506133db8361338b565b9250506001810190506133bc565b5085935050505092915050565b600060208201905081810360008301526134108184613398565b905092915050565b6000806040838503121561342f5761342e612aa6565b5b600061343d85828601612b2f565b925050602061344e85828601612b2f565b9150509250929050565b600067ffffffffffffffff82111561347357613472612ee6565b5b602082029050602081019050919050565b600061349761349284613458565b612f46565b905080838252602082019050602084028301858111156134ba576134b9613180565b5b835b818110156134e357806134cf8882612af9565b8452602084019350506020810190506134bc565b5050509392505050565b600082601f83011261350257613501612edc565b5b8135613512848260208601613484565b91505092915050565b6000806040838503121561353257613531612aa6565b5b600083013567ffffffffffffffff8111156135505761354f612aab565b5b61355c858286016134ed565b925050602083013567ffffffffffffffff81111561357d5761357c612aab565b5b613589858286016131ee565b9150509250929050565b600081519050919050565b600082825260208201905092915050565b6000819050602082019050919050565b60006135cb8383612d7d565b60208301905092915050565b6000602082019050919050565b60006135ef82613593565b6135f9818561359e565b9350613604836135af565b8060005b8381101561363557815161361c88826135bf565b9750613627836135d7565b925050600181019050613608565b5085935050505092915050565b6000602082019050818103600083015261365c81846135e4565b905092915050565b60c08201600082015161367a6000850182612d7d565b50602082015161368d6020850182612d7d565b5060408201516136a06040850182612d9e565b5060608201516136b36060850182612d7d565b5060808201516136c66080850182612dad565b5060a08201516136d960a0850182612dad565b50505050565b600060c0820190506136f46000830184613664565b92915050565b600067ffffffffffffffff82111561371557613714612ee6565b5b61371e82612ce5565b9050602081019050919050565b600061373e613739846136fa565b612f46565b90508281526020810184848401111561375a57613759612ee1565b5b613765848285612f92565b509392505050565b600082601f83011261378257613781612edc565b5b813561379284826020860161372b565b91505092915050565b600080604083850312156137b2576137b1612aa6565b5b60006137c085828601612b2f565b925050602083013567ffffffffffffffff8111156137e1576137e0612aab565b5b6137ed8582860161376d565b9150509250929050565b60408201600082015161380d6000850182612d7d565b5060208201516138206020850182612d9e565b50505050565b600060408201905061383b60008301846137f7565b92915050565b6000806000806080858703121561385b5761385a612aa6565b5b600085013567ffffffffffffffff81111561387957613878612aab565b5b6138858782880161376d565b945050602061389687828801612b2f565b93505060406138a787828801612b2f565b92505060606138b887828801612b2f565b91505092959194509250565b6000602082840312156138da576138d9612aa6565b5b600082013567ffffffffffffffff8111156138f8576138f7612aab565b5b6139048482850161376d565b91505092915050565b61391681612c33565b811461392157600080fd5b50565b6000813590506139338161390d565b92915050565b600080604083850312156139505761394f612aa6565b5b600061395e85828601612af9565b925050602061396f85828601613924565b9150509250929050565b600080604083850312156139905761398f612aa6565b5b600061399e85828601612af9565b92505060206139af85828601612af9565b9150509250929050565b600080600080600060a086880312156139d5576139d4612aa6565b5b60006139e388828901612af9565b95505060206139f488828901612af9565b9450506040613a0588828901612b2f565b9350506060613a1688828901612b2f565b925050608086013567ffffffffffffffff811115613a3757613a36612aab565b5b613a4388828901612fe3565b9150509295509295909350565b600081519050919050565b600082825260208201905092915050565b6000819050602082019050919050565b602082016000820151613a926000850182612d7d565b50505050565b6000613aa48383613a7c565b60208301905092915050565b6000602082019050919050565b6000613ac882613a50565b613ad28185613a5b565b9350613add83613a6c565b8060005b83811015613b0e578151613af58882613a98565b9750613b0083613ab0565b925050600181019050613ae1565b5085935050505092915050565b60006020820190508181036000830152613b358184613abd565b905092915050565b7f455243313135353a2062616c616e636520717565727920666f7220746865207a60008201527f65726f2061646472657373000000000000000000000000000000000000000000602082015250565b6000613b99602b83612ca1565b9150613ba482613b3d565b604082019050919050565b60006020820190508181036000830152613bc881613b8c565b9050919050565b7f4e487b7100000000000000000000000000000000000000000000000000000000600052602260045260246000fd5b60006002820490506001821680613c1657607f821691505b60208210811415613c2a57613c29613bcf565b5b50919050565b7f4e487b7100000000000000000000000000000000000000000000000000000000600052601160045260246000fd5b6000613c6a82612b0e565b9150613c7583612b0e565b925082821015613c8857613c87613c30565b5b828203905092915050565b6000613c9e82612b0e565b9150613ca983612b0e565b9250827fffffffffffffffffffffffffffffffffffffffffffffffffffffffffffffffff03821115613cde57613cdd613c30565b5b828201905092915050565b7f4e487b7100000000000000000000000000000000000000000000000000000000600052603260045260246000fd5b6000613d2382612b0e565b91507fffffffffffffffffffffffffffffffffffffffffffffffffffffffffffffffff821415613d5657613d55613c30565b5b600182019050919050565b7f455243313135353a207472616e736665722063616c6c6572206973206e6f742060008201527f6f776e6572206e6f7220617070726f7665640000000000000000000000000000602082015250565b6000613dbd603283612ca1565b9150613dc882613d61565b604082019050919050565b60006020820190508181036000830152613dec81613db0565b9050919050565b7f4f6e6c7920666f7220746865206f776e6572206f662074686973207469636b6560008201527f7421000000000000000000000000000000000000000000000000000000000000602082015250565b6000613e4f602283612ca1565b9150613e5a82613df3565b604082019050919050565b60006020820190508181036000830152613e7e81613e42565b9050919050565b6000613e9082612b0e565b9150613e9b83612b0e565b9250817fffffffffffffffffffffffffffffffffffffffffffffffffffffffffffffffff0483118215151615613ed457613ed3613c30565b5b828202905092915050565b7f6d73672e76616c756520213d207072696365202a2a20646563696d616c730000600082015250565b6000613f15601e83612ca1565b9150613f2082613edf565b602082019050919050565b60006020820190508181036000830152613f4481613f08565b9050919050565b7f5072696365206d757374206265206174206c6561737420312077656900000000600082015250565b6000613f81601c83612ca1565b9150613f8c82613f4b565b602082019050919050565b60006020820190508181036000830152613fb081613f74565b9050919050565b7f455243313135353a206163636f756e747320616e6420696473206c656e67746860008201527f206d69736d617463680000000000000000000000000000000000000000000000602082015250565b6000614013602983612ca1565b915061401e82613fb7565b604082019050919050565b6000602082019050818103600083015261404281614006565b9050919050565b7f455243313135353a2063616c6c6572206973206e6f74206f776e6572206e6f7260008201527f20617070726f7665640000000000000000000000000000000000000000000000602082015250565b60006140a5602983612ca1565b91506140b082614049565b604082019050919050565b600060208201905081810360008301526140d481614098565b9050919050565b7f455243313135353a2069647320616e6420616d6f756e7473206c656e6774682060008201527f6d69736d61746368000000000000000000000000000000000000000000000000602082015250565b6000614137602883612ca1565b9150614142826140db565b604082019050919050565b600060208201905081810360008301526141668161412a565b9050919050565b7f455243313135353a207472616e7366657220746f20746865207a65726f20616460008201527f6472657373000000000000000000000000000000000000000000000000000000602082015250565b60006141c9602583612ca1565b91506141d48261416d565b604082019050919050565b600060208201905081810360008301526141f8816141bc565b9050919050565b7f455243313135353a20696e73756666696369656e742062616c616e636520666f60008201527f72207472616e7366657200000000000000000000000000000000000000000000602082015250565b600061425b602a83612ca1565b9150614266826141ff565b604082019050919050565b6000602082019050818103600083015261428a8161424e565b9050919050565b600060408201905081810360008301526142ab81856135e4565b905081810360208301526142bf81846135e4565b90509392505050565b60006040820190506142dd6000830185612b84565b6142ea6020830184612b84565b9392505050565b7f455243313135353a206d696e7420746f20746865207a65726f2061646472657360008201527f7300000000000000000000000000000000000000000000000000000000000000602082015250565b600061434d602183612ca1565b9150614358826142f1565b604082019050919050565b6000602082019050818103600083015261437c81614340565b9050919050565b7f455243313135353a2073657474696e6720617070726f76616c2073746174757360008201527f20666f722073656c660000000000000000000000000000000000000000000000602082015250565b60006143df602983612ca1565b91506143ea82614383565b604082019050919050565b6000602082019050818103600083015261440e816143d2565b9050919050565b61441e81612ad0565b82525050565b600081519050919050565b600082825260208201905092915050565b600061444b82614424565b614455818561442f565b9350614465818560208601612cb2565b61446e81612ce5565b840191505092915050565b600060a08201905061448e6000830188614415565b61449b6020830187614415565b81810360408301526144ad81866135e4565b905081810360608301526144c181856135e4565b905081810360808301526144d58184614440565b90509695505050505050565b6000815190506144f081612bda565b92915050565b60006020828403121561450c5761450b612aa6565b5b600061451a848285016144e1565b91505092915050565b60008160e01c9050919050565b600060033d111561454f5760046000803e61454c600051614523565b90505b90565b600060443d1015614562576145e5565b61456a612a9c565b60043d036004823e80513d602482011167ffffffffffffffff821117156145925750506145e5565b808201805167ffffffffffffffff8111156145b057505050506145e5565b80602083010160043d0385018111156145cd5750505050506145e5565b6145dc82602001850186612f15565b82955050505050505b90565b7f455243313135353a207472616e7366657220746f206e6f6e204552433131353560008201527f526563656976657220696d706c656d656e746572000000000000000000000000602082015250565b6000614644603483612ca1565b915061464f826145e8565b604082019050919050565b6000602082019050818103600083015261467381614637565b9050919050565b7f455243313135353a204552433131353552656365697665722072656a6563746560008201527f6420746f6b656e73000000000000000000000000000000000000000000000000602082015250565b60006146d6602883612ca1565b91506146e18261467a565b604082019050919050565b60006020820190508181036000830152614705816146c9565b9050919050565b600060a0820190506147216000830188614415565b61472e6020830187614415565b61473b6040830186612b84565b6147486060830185612b84565b818103608083015261475a8184614440565b9050969550505050505056fea264697066735822122072a830c58da41a734626002a8f477d25998a2257e79d8210a5b47cf951f4ebb564736f6c634300080b0033",
  "immutableReferences": {},
  "source": "// SPDX-License-Identifier: MIT\r\npragma solidity ^0.8.11;\r\n\r\nimport \"@openzeppelin/contracts/token/ERC1155/ERC1155.sol\";\r\nimport \"@openzeppelin/contracts/utils/Counters.sol\";\r\n\r\ncontract Event is ERC1155 {\r\n    using Counters for Counters.Counter;\r\n    Counters.Counter private _tokenIds;\r\n    Counters.Counter private _itemIds;\r\n    Counters.Counter private _itemsSold;\r\n    address payable owner;\r\n\r\n    constructor() ERC1155(\"\") {\r\n        owner = payable(msg.sender);\r\n    }\r\n\r\n    mapping(uint256 => string) private _uris;\r\n\r\n    struct Item {\r\n        uint256 tokenId;\r\n    }\r\n\r\n    struct EventItem {\r\n        uint256 tokenId;\r\n        address payable owner;\r\n    }\r\n\r\n    struct TicketItem {\r\n        uint256 tokenId;\r\n        uint256 eventTokenId;\r\n        address payable owner;\r\n        uint256 price;\r\n        bool list;\r\n        bool active;\r\n    }\r\n\r\n    struct MarketItem {\r\n        uint256 itemId;\r\n        uint256 tokenId;\r\n        address payable seller;\r\n        address payable owner;\r\n        uint256 price;\r\n        bool sold;\r\n    }\r\n\r\n    mapping(uint256 => EventItem) private eventToken;\r\n    mapping(uint256 => TicketItem) private ticketToken;\r\n    mapping(uint256 => Item[]) private ticketsInEvent;\r\n    mapping(uint256 => MarketItem) private ticketInMarket;\r\n\r\n    mapping(address => EventItem[]) private createdEvents;\r\n\r\n    function uri(uint256 tokenId) public view override returns (string memory) {\r\n        return (_uris[tokenId]);\r\n    }\r\n\r\n    function setTokenUri(uint256 tokenId, string memory tokenUri) public {\r\n        // require(bytes(_uris[tokenId]).length == 0, \"Cannot set uri twice\");\r\n        _uris[tokenId] = tokenUri;\r\n    }\r\n\r\n    function mintEvent(string memory tokenUri) public {\r\n        _tokenIds.increment();\r\n        uint256 newItemId = _tokenIds.current();\r\n\r\n        _mint(msg.sender, newItemId, 1, \"\");\r\n        setTokenUri(newItemId, tokenUri);\r\n        eventToken[newItemId] = EventItem(newItemId, payable(msg.sender));\r\n        createdEvents[msg.sender].push(eventToken[newItemId]);\r\n    }\r\n\r\n    function mintTicket(\r\n        string memory tokenUri,\r\n        uint256 eventTokenId,\r\n        uint256 quantity,\r\n        uint256 price\r\n    ) public {\r\n        for (uint256 i = 0; i < quantity; i++) {\r\n            _tokenIds.increment();\r\n            uint256 newItemId = _tokenIds.current();\r\n\r\n            _mint(msg.sender, newItemId, 1, \"\");\r\n            setTokenUri(newItemId, tokenUri);\r\n            ticketToken[newItemId] = TicketItem(\r\n                newItemId,\r\n                eventTokenId,\r\n                payable(msg.sender),\r\n                price,\r\n                false,\r\n                true\r\n            );\r\n            ticketsInEvent[eventTokenId].push(Item(newItemId));\r\n            createMarketItem(newItemId, price);\r\n        }\r\n    }\r\n\r\n    function createMarketItem(uint256 tokenId, uint256 price) public payable {\r\n        require(price > 0, \"Price must be at least 1 wei\");\r\n\r\n        _itemIds.increment();\r\n        uint256 itemId = _itemIds.current();\r\n\r\n        ticketInMarket[itemId] = MarketItem(\r\n            itemId,\r\n            tokenId,\r\n            payable(msg.sender),\r\n            payable(msg.sender),\r\n            price,\r\n            false\r\n        );\r\n\r\n        ticketToken[tokenId].price = price;\r\n        ticketToken[tokenId].list = true;\r\n\r\n        safeTransferFrom(msg.sender, address(this), tokenId, 1, \"\");\r\n    }\r\n\r\n    function cancelListing(uint256 itemId) public payable {\r\n        require(\r\n            msg.sender == ticketInMarket[itemId].owner,\r\n            \"Only for the owner of this ticket!\"\r\n        );\r\n        uint256 tokenId = ticketInMarket[itemId].tokenId;\r\n        ticketToken[tokenId].list = false;\r\n        delete ticketInMarket[itemId];\r\n        _safeTransferFrom(address(this), msg.sender, tokenId, 1, \"\");\r\n    }\r\n\r\n    function buyMarketItem(uint256 itemId) public payable {\r\n        uint256 price = ticketInMarket[itemId].price;\r\n        uint256 tokenId = ticketInMarket[itemId].tokenId;\r\n        require(\r\n            msg.value == price * (10**10),\r\n            \"msg.value != price ** decimals\"\r\n        );\r\n\r\n        ticketInMarket[itemId].seller.transfer(msg.value);\r\n        ticketInMarket[itemId].owner = payable(msg.sender);\r\n        ticketInMarket[itemId].sold = true;\r\n        ticketToken[tokenId].owner = payable(msg.sender);\r\n        ticketToken[tokenId].list = false;\r\n        _itemsSold.increment();\r\n\r\n        _safeTransferFrom(address(this), msg.sender, tokenId, 1, \"\");\r\n    }\r\n\r\n    function fetchMarketItem(uint256 tokenId)\r\n        public\r\n        view\r\n        returns (MarketItem memory)\r\n    {\r\n        uint256 itemCount = _itemIds.current();\r\n        MarketItem memory item;\r\n\r\n        for (uint256 i = 0; i < itemCount; i++) {\r\n            if (ticketInMarket[i + 1].tokenId == tokenId) {\r\n                uint256 currentId = i + 1;\r\n                item = ticketInMarket[currentId];\r\n            }\r\n        }\r\n        return item;\r\n    }\r\n\r\n    function fetchMarketItems() public view returns (MarketItem[] memory) {\r\n        uint256 itemCount = _itemIds.current();\r\n        uint256 unsoldItemCount = _itemIds.current() - _itemsSold.current();\r\n        uint256 currentIndex = 0;\r\n\r\n        MarketItem[] memory items = new MarketItem[](unsoldItemCount);\r\n        for (uint256 i = 0; i < itemCount; i++) {\r\n            if (!ticketInMarket[i + 1].sold) {\r\n                uint256 currentId = i + 1;\r\n                MarketItem storage currentItem = ticketInMarket[currentId];\r\n                items[currentIndex] = currentItem;\r\n                currentIndex += 1;\r\n            }\r\n        }\r\n        return items;\r\n    }\r\n\r\n    function fetchCreatedEvents(address account)\r\n        public\r\n        view\r\n        returns (EventItem[] memory)\r\n    {\r\n        EventItem[] memory items = createdEvents[account];\r\n        return items;\r\n    }\r\n\r\n    function fetchTicketsInEvent(uint256 eventTokenId)\r\n        public\r\n        view\r\n        returns (Item[] memory)\r\n    {\r\n        Item[] memory items = ticketsInEvent[eventTokenId];\r\n        return items;\r\n    }\r\n\r\n    function fetchEvent(uint256 tokenId)\r\n        public\r\n        view\r\n        returns (EventItem memory)\r\n    {\r\n        EventItem memory item = eventToken[tokenId];\r\n        return item;\r\n    }\r\n\r\n    function fetchTicket(uint256 tokenId)\r\n        public\r\n        view\r\n        returns (TicketItem memory)\r\n    {\r\n        TicketItem memory item = ticketToken[tokenId];\r\n        return item;\r\n    }\r\n\r\n    function onERC1155Received(\r\n        address,\r\n        address,\r\n        uint256,\r\n        uint256,\r\n        bytes memory\r\n    ) public virtual returns (bytes4) {\r\n        return this.onERC1155Received.selector;\r\n    }\r\n\r\n    function onERC1155BatchReceived(\r\n        address,\r\n        address,\r\n        uint256[] memory,\r\n        uint256[] memory,\r\n        bytes memory\r\n    ) public virtual returns (bytes4) {\r\n        return this.onERC1155BatchReceived.selector;\r\n    }\r\n\r\n    function onERC721Received(\r\n        address,\r\n        address,\r\n        uint256,\r\n        bytes memory\r\n    ) public virtual returns (bytes4) {\r\n        return this.onERC721Received.selector;\r\n    }\r\n}\r\n",
  "sourcePath": "D:\\Final Project\\ticketplace\\contracts\\Event.sol",
  "compiler": {
    "name": "solc",
    "version": "0.8.11+commit.d7f03943.Emscripten.clang"
  },
  "schemaVersion": "3.4.4",
  "updatedAt": "2022-02-23T13:57:53.697Z",
  "networkType": "ethereum",
  "devdoc": {
    "kind": "dev",
    "methods": {
      "balanceOf(address,uint256)": {
        "details": "See {IERC1155-balanceOf}. Requirements: - `account` cannot be the zero address."
      },
      "balanceOfBatch(address[],uint256[])": {
        "details": "See {IERC1155-balanceOfBatch}. Requirements: - `accounts` and `ids` must have the same length."
      },
      "isApprovedForAll(address,address)": {
        "details": "See {IERC1155-isApprovedForAll}."
      },
      "safeBatchTransferFrom(address,address,uint256[],uint256[],bytes)": {
        "details": "See {IERC1155-safeBatchTransferFrom}."
      },
      "safeTransferFrom(address,address,uint256,uint256,bytes)": {
        "details": "See {IERC1155-safeTransferFrom}."
      },
      "setApprovalForAll(address,bool)": {
        "details": "See {IERC1155-setApprovalForAll}."
      },
      "supportsInterface(bytes4)": {
        "details": "See {IERC165-supportsInterface}."
      }
    },
    "version": 1
  },
  "userdoc": {
    "kind": "user",
    "methods": {},
    "version": 1
  }
}