{
  "contractName": "Event",
  "abi": [
    {
      "inputs": [],
      "stateMutability": "nonpayable",
      "type": "constructor"
    },
    {
      "anonymous": false,
      "inputs": [
        {
          "indexed": true,
          "internalType": "address",
          "name": "account",
          "type": "address"
        },
        {
          "indexed": true,
          "internalType": "address",
          "name": "operator",
          "type": "address"
        },
        {
          "indexed": false,
          "internalType": "bool",
          "name": "approved",
          "type": "bool"
        }
      ],
      "name": "ApprovalForAll",
      "type": "event"
    },
    {
      "anonymous": false,
      "inputs": [
        {
          "indexed": true,
          "internalType": "address",
          "name": "operator",
          "type": "address"
        },
        {
          "indexed": true,
          "internalType": "address",
          "name": "from",
          "type": "address"
        },
        {
          "indexed": true,
          "internalType": "address",
          "name": "to",
          "type": "address"
        },
        {
          "indexed": false,
          "internalType": "uint256[]",
          "name": "ids",
          "type": "uint256[]"
        },
        {
          "indexed": false,
          "internalType": "uint256[]",
          "name": "values",
          "type": "uint256[]"
        }
      ],
      "name": "TransferBatch",
      "type": "event"
    },
    {
      "anonymous": false,
      "inputs": [
        {
          "indexed": true,
          "internalType": "address",
          "name": "operator",
          "type": "address"
        },
        {
          "indexed": true,
          "internalType": "address",
          "name": "from",
          "type": "address"
        },
        {
          "indexed": true,
          "internalType": "address",
          "name": "to",
          "type": "address"
        },
        {
          "indexed": false,
          "internalType": "uint256",
          "name": "id",
          "type": "uint256"
        },
        {
          "indexed": false,
          "internalType": "uint256",
          "name": "value",
          "type": "uint256"
        }
      ],
      "name": "TransferSingle",
      "type": "event"
    },
    {
      "anonymous": false,
      "inputs": [
        {
          "indexed": false,
          "internalType": "string",
          "name": "value",
          "type": "string"
        },
        {
          "indexed": true,
          "internalType": "uint256",
          "name": "id",
          "type": "uint256"
        }
      ],
      "name": "URI",
      "type": "event"
    },
    {
      "inputs": [
        {
          "internalType": "address",
          "name": "account",
          "type": "address"
        },
        {
          "internalType": "uint256",
          "name": "id",
          "type": "uint256"
        }
      ],
      "name": "balanceOf",
      "outputs": [
        {
          "internalType": "uint256",
          "name": "",
          "type": "uint256"
        }
      ],
      "stateMutability": "view",
      "type": "function",
      "constant": true
    },
    {
      "inputs": [
        {
          "internalType": "address[]",
          "name": "accounts",
          "type": "address[]"
        },
        {
          "internalType": "uint256[]",
          "name": "ids",
          "type": "uint256[]"
        }
      ],
      "name": "balanceOfBatch",
      "outputs": [
        {
          "internalType": "uint256[]",
          "name": "",
          "type": "uint256[]"
        }
      ],
      "stateMutability": "view",
      "type": "function",
      "constant": true
    },
    {
      "inputs": [
        {
          "internalType": "address",
          "name": "account",
          "type": "address"
        },
        {
          "internalType": "address",
          "name": "operator",
          "type": "address"
        }
      ],
      "name": "isApprovedForAll",
      "outputs": [
        {
          "internalType": "bool",
          "name": "",
          "type": "bool"
        }
      ],
      "stateMutability": "view",
      "type": "function",
      "constant": true
    },
    {
      "inputs": [
        {
          "internalType": "address",
          "name": "from",
          "type": "address"
        },
        {
          "internalType": "address",
          "name": "to",
          "type": "address"
        },
        {
          "internalType": "uint256[]",
          "name": "ids",
          "type": "uint256[]"
        },
        {
          "internalType": "uint256[]",
          "name": "amounts",
          "type": "uint256[]"
        },
        {
          "internalType": "bytes",
          "name": "data",
          "type": "bytes"
        }
      ],
      "name": "safeBatchTransferFrom",
      "outputs": [],
      "stateMutability": "nonpayable",
      "type": "function"
    },
    {
      "inputs": [
        {
          "internalType": "address",
          "name": "from",
          "type": "address"
        },
        {
          "internalType": "address",
          "name": "to",
          "type": "address"
        },
        {
          "internalType": "uint256",
          "name": "id",
          "type": "uint256"
        },
        {
          "internalType": "uint256",
          "name": "amount",
          "type": "uint256"
        },
        {
          "internalType": "bytes",
          "name": "data",
          "type": "bytes"
        }
      ],
      "name": "safeTransferFrom",
      "outputs": [],
      "stateMutability": "nonpayable",
      "type": "function"
    },
    {
      "inputs": [
        {
          "internalType": "address",
          "name": "operator",
          "type": "address"
        },
        {
          "internalType": "bool",
          "name": "approved",
          "type": "bool"
        }
      ],
      "name": "setApprovalForAll",
      "outputs": [],
      "stateMutability": "nonpayable",
      "type": "function"
    },
    {
      "inputs": [
        {
          "internalType": "bytes4",
          "name": "interfaceId",
          "type": "bytes4"
        }
      ],
      "name": "supportsInterface",
      "outputs": [
        {
          "internalType": "bool",
          "name": "",
          "type": "bool"
        }
      ],
      "stateMutability": "view",
      "type": "function",
      "constant": true
    },
    {
      "inputs": [
        {
          "internalType": "uint256",
          "name": "tokenId",
          "type": "uint256"
        }
      ],
      "name": "uri",
      "outputs": [
        {
          "internalType": "string",
          "name": "",
          "type": "string"
        }
      ],
      "stateMutability": "view",
      "type": "function",
      "constant": true
    },
    {
      "inputs": [
        {
          "internalType": "uint256",
          "name": "tokenId",
          "type": "uint256"
        },
        {
          "internalType": "string",
          "name": "tokenUri",
          "type": "string"
        }
      ],
      "name": "setTokenUri",
      "outputs": [],
      "stateMutability": "nonpayable",
      "type": "function"
    },
    {
      "inputs": [
        {
          "internalType": "string",
          "name": "tokenUri",
          "type": "string"
        }
      ],
      "name": "mintEvent",
      "outputs": [],
      "stateMutability": "nonpayable",
      "type": "function"
    },
    {
      "inputs": [
        {
          "internalType": "string",
          "name": "tokenUri",
          "type": "string"
        },
        {
          "internalType": "uint256",
          "name": "eventTokenId",
          "type": "uint256"
        },
        {
          "internalType": "uint256",
          "name": "quantity",
          "type": "uint256"
        },
        {
          "internalType": "uint256",
          "name": "price",
          "type": "uint256"
        }
      ],
      "name": "mintTicket",
      "outputs": [],
      "stateMutability": "nonpayable",
      "type": "function"
    },
    {
      "inputs": [
        {
          "internalType": "uint256",
          "name": "tokenId",
          "type": "uint256"
        },
        {
          "internalType": "uint256",
          "name": "price",
          "type": "uint256"
        }
      ],
      "name": "createMarketItem",
      "outputs": [],
      "stateMutability": "payable",
      "type": "function",
      "payable": true
    },
    {
      "inputs": [
        {
          "internalType": "uint256",
          "name": "itemId",
          "type": "uint256"
        }
      ],
      "name": "cancelListing",
      "outputs": [],
      "stateMutability": "payable",
      "type": "function",
      "payable": true
    },
    {
      "inputs": [
        {
          "internalType": "uint256",
          "name": "itemId",
          "type": "uint256"
        }
      ],
      "name": "buyMarketItem",
      "outputs": [],
      "stateMutability": "payable",
      "type": "function",
      "payable": true
    },
    {
      "inputs": [
        {
          "internalType": "uint256",
          "name": "tokenId",
          "type": "uint256"
        }
      ],
      "name": "fetchMarketItem",
      "outputs": [
        {
          "components": [
            {
              "internalType": "uint256",
              "name": "itemId",
              "type": "uint256"
            },
            {
              "internalType": "uint256",
              "name": "tokenId",
              "type": "uint256"
            },
            {
              "internalType": "address payable",
              "name": "seller",
              "type": "address"
            },
            {
              "internalType": "address payable",
              "name": "owner",
              "type": "address"
            },
            {
              "internalType": "uint256",
              "name": "price",
              "type": "uint256"
            },
            {
              "internalType": "bool",
              "name": "sold",
              "type": "bool"
            }
          ],
          "internalType": "struct Event.MarketItem",
          "name": "",
          "type": "tuple"
        }
      ],
      "stateMutability": "view",
      "type": "function",
      "constant": true
    },
    {
      "inputs": [],
      "name": "fetchMarketItems",
      "outputs": [
        {
          "components": [
            {
              "internalType": "uint256",
              "name": "itemId",
              "type": "uint256"
            },
            {
              "internalType": "uint256",
              "name": "tokenId",
              "type": "uint256"
            },
            {
              "internalType": "address payable",
              "name": "seller",
              "type": "address"
            },
            {
              "internalType": "address payable",
              "name": "owner",
              "type": "address"
            },
            {
              "internalType": "uint256",
              "name": "price",
              "type": "uint256"
            },
            {
              "internalType": "bool",
              "name": "sold",
              "type": "bool"
            }
          ],
          "internalType": "struct Event.MarketItem[]",
          "name": "",
          "type": "tuple[]"
        }
      ],
      "stateMutability": "view",
      "type": "function",
      "constant": true
    },
    {
      "inputs": [
        {
          "internalType": "address",
          "name": "account",
          "type": "address"
        }
      ],
      "name": "fetchOwnedListings",
      "outputs": [
        {
          "components": [
            {
              "internalType": "uint256",
              "name": "itemId",
              "type": "uint256"
            },
            {
              "internalType": "uint256",
              "name": "tokenId",
              "type": "uint256"
            },
            {
              "internalType": "address payable",
              "name": "seller",
              "type": "address"
            },
            {
              "internalType": "address payable",
              "name": "owner",
              "type": "address"
            },
            {
              "internalType": "uint256",
              "name": "price",
              "type": "uint256"
            },
            {
              "internalType": "bool",
              "name": "sold",
              "type": "bool"
            }
          ],
          "internalType": "struct Event.MarketItem[]",
          "name": "",
          "type": "tuple[]"
        }
      ],
      "stateMutability": "view",
      "type": "function",
      "constant": true
    },
    {
      "inputs": [
        {
          "internalType": "address",
          "name": "account",
          "type": "address"
        }
      ],
      "name": "fetchCreatedEvents",
      "outputs": [
        {
          "components": [
            {
              "internalType": "uint256",
              "name": "tokenId",
              "type": "uint256"
            },
            {
              "internalType": "address payable",
              "name": "owner",
              "type": "address"
            }
          ],
          "internalType": "struct Event.EventItem[]",
          "name": "",
          "type": "tuple[]"
        }
      ],
      "stateMutability": "view",
      "type": "function",
      "constant": true
    },
    {
      "inputs": [
        {
          "internalType": "address",
          "name": "account",
          "type": "address"
        }
      ],
      "name": "fetchOwnedEvents",
      "outputs": [
        {
          "components": [
            {
              "internalType": "uint256",
              "name": "tokenId",
              "type": "uint256"
            },
            {
              "internalType": "address payable",
              "name": "owner",
              "type": "address"
            }
          ],
          "internalType": "struct Event.EventItem[]",
          "name": "",
          "type": "tuple[]"
        }
      ],
      "stateMutability": "view",
      "type": "function",
      "constant": true
    },
    {
      "inputs": [
        {
          "internalType": "address",
          "name": "account",
          "type": "address"
        }
      ],
      "name": "fetchCreatedTickets",
      "outputs": [
        {
          "components": [
            {
              "internalType": "uint256",
              "name": "tokenId",
              "type": "uint256"
            }
          ],
          "internalType": "struct Event.Item[]",
          "name": "",
          "type": "tuple[]"
        }
      ],
      "stateMutability": "view",
      "type": "function",
      "constant": true
    },
    {
      "inputs": [
        {
          "internalType": "address",
          "name": "account",
          "type": "address"
        },
        {
          "internalType": "bool",
          "name": "isAllOwned",
          "type": "bool"
        },
        {
          "internalType": "bool",
          "name": "isCreator",
          "type": "bool"
        }
      ],
      "name": "fetchOwnedTickets",
      "outputs": [
        {
          "components": [
            {
              "internalType": "uint256",
              "name": "tokenId",
              "type": "uint256"
            },
            {
              "internalType": "uint256",
              "name": "eventTokenId",
              "type": "uint256"
            },
            {
              "internalType": "address payable",
              "name": "owner",
              "type": "address"
            },
            {
              "internalType": "uint256",
              "name": "price",
              "type": "uint256"
            },
            {
              "internalType": "bool",
              "name": "list",
              "type": "bool"
            },
            {
              "internalType": "bool",
              "name": "active",
              "type": "bool"
            }
          ],
          "internalType": "struct Event.TicketItem[]",
          "name": "",
          "type": "tuple[]"
        }
      ],
      "stateMutability": "view",
      "type": "function",
      "constant": true
    },
    {
      "inputs": [
        {
          "internalType": "uint256",
          "name": "eventTokenId",
          "type": "uint256"
        }
      ],
      "name": "fetchTicketsInEvent",
      "outputs": [
        {
          "components": [
            {
              "internalType": "uint256",
              "name": "tokenId",
              "type": "uint256"
            }
          ],
          "internalType": "struct Event.Item[]",
          "name": "",
          "type": "tuple[]"
        }
      ],
      "stateMutability": "view",
      "type": "function",
      "constant": true
    },
    {
      "inputs": [
        {
          "internalType": "uint256",
          "name": "tokenId",
          "type": "uint256"
        }
      ],
      "name": "fetchEvent",
      "outputs": [
        {
          "components": [
            {
              "internalType": "uint256",
              "name": "tokenId",
              "type": "uint256"
            },
            {
              "internalType": "address payable",
              "name": "owner",
              "type": "address"
            }
          ],
          "internalType": "struct Event.EventItem",
          "name": "",
          "type": "tuple"
        }
      ],
      "stateMutability": "view",
      "type": "function",
      "constant": true
    },
    {
      "inputs": [
        {
          "internalType": "uint256",
          "name": "tokenId",
          "type": "uint256"
        }
      ],
      "name": "fetchTicket",
      "outputs": [
        {
          "components": [
            {
              "internalType": "uint256",
              "name": "tokenId",
              "type": "uint256"
            },
            {
              "internalType": "uint256",
              "name": "eventTokenId",
              "type": "uint256"
            },
            {
              "internalType": "address payable",
              "name": "owner",
              "type": "address"
            },
            {
              "internalType": "uint256",
              "name": "price",
              "type": "uint256"
            },
            {
              "internalType": "bool",
              "name": "list",
              "type": "bool"
            },
            {
              "internalType": "bool",
              "name": "active",
              "type": "bool"
            }
          ],
          "internalType": "struct Event.TicketItem",
          "name": "",
          "type": "tuple"
        }
      ],
      "stateMutability": "view",
      "type": "function",
      "constant": true
    },
    {
      "inputs": [
        {
          "internalType": "address",
          "name": "",
          "type": "address"
        },
        {
          "internalType": "address",
          "name": "",
          "type": "address"
        },
        {
          "internalType": "uint256",
          "name": "",
          "type": "uint256"
        },
        {
          "internalType": "uint256",
          "name": "",
          "type": "uint256"
        },
        {
          "internalType": "bytes",
          "name": "",
          "type": "bytes"
        }
      ],
      "name": "onERC1155Received",
      "outputs": [
        {
          "internalType": "bytes4",
          "name": "",
          "type": "bytes4"
        }
      ],
      "stateMutability": "nonpayable",
      "type": "function"
    },
    {
      "inputs": [
        {
          "internalType": "address",
          "name": "",
          "type": "address"
        },
        {
          "internalType": "address",
          "name": "",
          "type": "address"
        },
        {
          "internalType": "uint256[]",
          "name": "",
          "type": "uint256[]"
        },
        {
          "internalType": "uint256[]",
          "name": "",
          "type": "uint256[]"
        },
        {
          "internalType": "bytes",
          "name": "",
          "type": "bytes"
        }
      ],
      "name": "onERC1155BatchReceived",
      "outputs": [
        {
          "internalType": "bytes4",
          "name": "",
          "type": "bytes4"
        }
      ],
      "stateMutability": "nonpayable",
      "type": "function"
    },
    {
      "inputs": [
        {
          "internalType": "address",
          "name": "",
          "type": "address"
        },
        {
          "internalType": "address",
          "name": "",
          "type": "address"
        },
        {
          "internalType": "uint256",
          "name": "",
          "type": "uint256"
        },
        {
          "internalType": "bytes",
          "name": "",
          "type": "bytes"
        }
      ],
      "name": "onERC721Received",
      "outputs": [
        {
          "internalType": "bytes4",
          "name": "",
          "type": "bytes4"
        }
      ],
      "stateMutability": "nonpayable",
      "type": "function"
    }
  ],
  "bytecode": "0x60806040523480156200001157600080fd5b506040518060200160405280600081525062000033816200007b60201b60201c565b5033600660006101000a81548173ffffffffffffffffffffffffffffffffffffffff021916908373ffffffffffffffffffffffffffffffffffffffff160217905550620001ac565b80600290805190602001906200009392919062000097565b5050565b828054620000a59062000176565b90600052602060002090601f016020900481019282620000c9576000855562000115565b82601f10620000e457805160ff191683800117855562000115565b8280016001018555821562000115579182015b8281111562000114578251825591602001919060010190620000f7565b5b50905062000124919062000128565b5090565b5b808211156200014357600081600090555060010162000129565b5090565b7f4e487b7100000000000000000000000000000000000000000000000000000000600052602260045260246000fd5b600060028204905060018216806200018f57607f821691505b60208210811415620001a657620001a562000147565b5b50919050565b615d0a80620001bc6000396000f3fe60806040526004361061019b5760003560e01c80635105d526116100ec578063c9ce7d3c1161008a578063f242432a11610064578063f242432a14610642578063f6b92b231461066b578063f792d45d146106a8578063f9d5c505146106e55761019b565b8063c9ce7d3c1461058b578063e985e9c5146105c8578063f23a6e61146106055761019b565b806397dada91116100c657806397dada91146104d35780639be0b935146104fc578063a22cb46514610525578063bc197c811461054e5761019b565b80635105d5261461043057806357f7789e1461046d5780638c8b5fd6146104965761019b565b80632a45b2501161015957806331d909701161013357806331d909701461037e578063351901c3146103bb578063361c1995146103d75780634e1273f4146103f35761019b565b80632a45b250146102fc5780632eb2c2d614610339578063305a67a8146103625761019b565b8062fdd58e146101a057806301ffc9a7146101dd5780630e89341c1461021a5780630f08efe014610257578063150b7a021461028257806327a2cf39146102bf575b600080fd5b3480156101ac57600080fd5b506101c760048036038101906101c29190613f13565b610722565b6040516101d49190613f62565b60405180910390f35b3480156101e957600080fd5b5061020460048036038101906101ff9190613fd5565b6107eb565b604051610211919061401d565b60405180910390f35b34801561022657600080fd5b50610241600480360381019061023c9190614038565b6108cd565b60405161024e91906140fe565b60405180910390f35b34801561026357600080fd5b5061026c610972565b6040516102799190614289565b60405180910390f35b34801561028e57600080fd5b506102a960048036038101906102a491906143e0565b610b9d565b6040516102b69190614472565b60405180910390f35b3480156102cb57600080fd5b506102e660048036038101906102e1919061448d565b610bb1565b6040516102f39190614598565b60405180910390f35b34801561030857600080fd5b50610323600480360381019061031e9190614038565b610e20565b6040516103309190614635565b60405180910390f35b34801561034557600080fd5b50610360600480360381019061035b9190614718565b610fa9565b005b61037c60048036038101906103779190614038565b61104a565b005b34801561038a57600080fd5b506103a560048036038101906103a0919061448d565b611205565b6040516103b29190614598565b60405180910390f35b6103d560048036038101906103d09190614038565b611309565b005b6103f160048036038101906103ec91906147e7565b611542565b005b3480156103ff57600080fd5b5061041a600480360381019061041591906148ea565b6117eb565b6040516104279190614a11565b60405180910390f35b34801561043c57600080fd5b5061045760048036038101906104529190614038565b611904565b6040516104649190614aae565b60405180910390f35b34801561047957600080fd5b50610494600480360381019061048f9190614b6a565b6119e1565b005b3480156104a257600080fd5b506104bd60048036038101906104b89190614038565b611a0d565b6040516104ca9190614bf5565b60405180910390f35b3480156104df57600080fd5b506104fa60048036038101906104f59190614c10565b611aa0565b005b34801561050857600080fd5b50610523600480360381019061051e9190614c93565b611c65565b005b34801561053157600080fd5b5061054c60048036038101906105479190614d08565b611e27565b005b34801561055a57600080fd5b5061057560048036038101906105709190614718565b611e3d565b6040516105829190614472565b60405180910390f35b34801561059757600080fd5b506105b260048036038101906105ad9190614d48565b611e52565b6040516105bf9190614ec5565b60405180910390f35b3480156105d457600080fd5b506105ef60048036038101906105ea9190614ee7565b6127ff565b6040516105fc919061401d565b60405180910390f35b34801561061157600080fd5b5061062c60048036038101906106279190614f27565b612893565b6040516106399190614472565b60405180910390f35b34801561064e57600080fd5b5061066960048036038101906106649190614f27565b6128a8565b005b34801561067757600080fd5b50610692600480360381019061068d919061448d565b612949565b60405161069f9190615089565b60405180910390f35b3480156106b457600080fd5b506106cf60048036038101906106ca919061448d565b612beb565b6040516106dc9190614289565b60405180910390f35b3480156106f157600080fd5b5061070c60048036038101906107079190614038565b612edf565b6040516107199190615089565b60405180910390f35b60008073ffffffffffffffffffffffffffffffffffffffff168373ffffffffffffffffffffffffffffffffffffffff161415610793576040517f08c379a000000000000000000000000000000000000000000000000000000000815260040161078a9061511d565b60405180910390fd5b60008083815260200190815260200160002060008473ffffffffffffffffffffffffffffffffffffffff1673ffffffffffffffffffffffffffffffffffffffff16815260200190815260200160002054905092915050565b60007fd9b67a26000000000000000000000000000000000000000000000000000000007bffffffffffffffffffffffffffffffffffffffffffffffffffffffff1916827bffffffffffffffffffffffffffffffffffffffffffffffffffffffff191614806108b657507f0e89341c000000000000000000000000000000000000000000000000000000007bffffffffffffffffffffffffffffffffffffffffffffffffffffffff1916827bffffffffffffffffffffffffffffffffffffffffffffffffffffffff1916145b806108c657506108c582612f5d565b5b9050919050565b60606007600083815260200190815260200160002080546108ed9061516c565b80601f01602080910402602001604051908101604052809291908181526020018280546109199061516c565b80156109665780601f1061093b57610100808354040283529160200191610966565b820191906000526020600020905b81548152906001019060200180831161094957829003601f168201915b50505050509050919050565b606060006109806004612fc7565b9050600061098e6005612fc7565b6109986004612fc7565b6109a291906151cd565b90506000808267ffffffffffffffff8111156109c1576109c06142b5565b5b6040519080825280602002602001820160405280156109fa57816020015b6109e7613cd1565b8152602001906001900390816109df5790505b50905060005b84811015610b9257600b6000600183610a199190615201565b815260200190815260200160002060050160009054906101000a900460ff16610b7f576000600b6000600184610a4f9190615201565b81526020019081526020016000209050806040518060c001604052908160008201548152602001600182015481526020016002820160009054906101000a900473ffffffffffffffffffffffffffffffffffffffff1673ffffffffffffffffffffffffffffffffffffffff1673ffffffffffffffffffffffffffffffffffffffff1681526020016003820160009054906101000a900473ffffffffffffffffffffffffffffffffffffffff1673ffffffffffffffffffffffffffffffffffffffff1673ffffffffffffffffffffffffffffffffffffffff168152602001600482015481526020016005820160009054906101000a900460ff161515151581525050838581518110610b6357610b62615257565b5b6020026020010181905250600184610b7b9190615201565b9350505b8080610b8a90615286565b915050610a00565b508094505050505090565b600063150b7a0260e01b9050949350505050565b60606000610bbf6003612fc7565b905060008060005b83811015610c68578573ffffffffffffffffffffffffffffffffffffffff1660086000600184610bf79190615201565b815260200190815260200160002060010160009054906101000a900473ffffffffffffffffffffffffffffffffffffffff1673ffffffffffffffffffffffffffffffffffffffff161415610c5557600183610c529190615201565b92505b8080610c6090615286565b915050610bc7565b5060008267ffffffffffffffff811115610c8557610c846142b5565b5b604051908082528060200260200182016040528015610cbe57816020015b610cab613d35565b815260200190600190039081610ca35790505b50905060005b84811015610e13578673ffffffffffffffffffffffffffffffffffffffff1660086000600184610cf49190615201565b815260200190815260200160002060010160009054906101000a900473ffffffffffffffffffffffffffffffffffffffff1673ffffffffffffffffffffffffffffffffffffffff161415610e0057600060086000600184610d559190615201565b8152602001908152602001600020905080604051806040016040529081600082015481526020016001820160009054906101000a900473ffffffffffffffffffffffffffffffffffffffff1673ffffffffffffffffffffffffffffffffffffffff1673ffffffffffffffffffffffffffffffffffffffff1681525050838581518110610de457610de3615257565b5b6020026020010181905250600184610dfc9190615201565b9350505b8080610e0b90615286565b915050610cc4565b5080945050505050919050565b610e28613cd1565b6000610e346004612fc7565b9050610e3e613cd1565b60005b82811015610f9e5784600b6000600184610e5b9190615201565b8152602001908152602001600020600101541415610f8b576000600182610e829190615201565b9050600b60008281526020019081526020016000206040518060c001604052908160008201548152602001600182015481526020016002820160009054906101000a900473ffffffffffffffffffffffffffffffffffffffff1673ffffffffffffffffffffffffffffffffffffffff1673ffffffffffffffffffffffffffffffffffffffff1681526020016003820160009054906101000a900473ffffffffffffffffffffffffffffffffffffffff1673ffffffffffffffffffffffffffffffffffffffff1673ffffffffffffffffffffffffffffffffffffffff168152602001600482015481526020016005820160009054906101000a900460ff1615151515815250509250505b8080610f9690615286565b915050610e41565b508092505050919050565b610fb1612fd5565b73ffffffffffffffffffffffffffffffffffffffff168573ffffffffffffffffffffffffffffffffffffffff161480610ff75750610ff685610ff1612fd5565b6127ff565b5b611036576040517f08c379a000000000000000000000000000000000000000000000000000000000815260040161102d90615341565b60405180910390fd5b6110438585858585612fdd565b5050505050565b600b600082815260200190815260200160002060030160009054906101000a900473ffffffffffffffffffffffffffffffffffffffff1673ffffffffffffffffffffffffffffffffffffffff163373ffffffffffffffffffffffffffffffffffffffff16146110ee576040517f08c379a00000000000000000000000000000000000000000000000000000000081526004016110e5906153d3565b60405180910390fd5b6000600b60008381526020019081526020016000206001015490506000600960008381526020019081526020016000206003018190555060006009600083815260200190815260200160002060040160006101000a81548160ff021916908315150217905550600b600083815260200190815260200160002060008082016000905560018201600090556002820160006101000a81549073ffffffffffffffffffffffffffffffffffffffff02191690556003820160006101000a81549073ffffffffffffffffffffffffffffffffffffffff021916905560048201600090556005820160006101000a81549060ff021916905550506112013033836001604051806020016040528060008152506132f1565b5050565b60606000600c60008473ffffffffffffffffffffffffffffffffffffffff1673ffffffffffffffffffffffffffffffffffffffff168152602001908152602001600020805480602002602001604051908101604052809291908181526020016000905b828210156112fa5783829060005260206000209060020201604051806040016040529081600082015481526020016001820160009054906101000a900473ffffffffffffffffffffffffffffffffffffffff1673ffffffffffffffffffffffffffffffffffffffff1673ffffffffffffffffffffffffffffffffffffffff168152505081526020019060010190611268565b50505050905080915050919050565b6000600b60008381526020019081526020016000206004015490506000600b60008481526020019081526020016000206001015490506402540be4008261135091906153f3565b3414611391576040517f08c379a000000000000000000000000000000000000000000000000000000000815260040161138890615499565b60405180910390fd5b600b600084815260200190815260200160002060020160009054906101000a900473ffffffffffffffffffffffffffffffffffffffff1673ffffffffffffffffffffffffffffffffffffffff166108fc349081150290604051600060405180830381858888f1935050505015801561140d573d6000803e3d6000fd5b5033600b600085815260200190815260200160002060030160006101000a81548173ffffffffffffffffffffffffffffffffffffffff021916908373ffffffffffffffffffffffffffffffffffffffff1602179055506001600b600085815260200190815260200160002060050160006101000a81548160ff021916908315150217905550336009600083815260200190815260200160002060020160006101000a81548173ffffffffffffffffffffffffffffffffffffffff021916908373ffffffffffffffffffffffffffffffffffffffff16021790555060006009600083815260200190815260200160002060040160006101000a81548160ff0219169083151502179055506115206005613573565b61153d3033836001604051806020016040528060008152506132f1565b505050565b6009600083815260200190815260200160002060020160009054906101000a900473ffffffffffffffffffffffffffffffffffffffff1673ffffffffffffffffffffffffffffffffffffffff163373ffffffffffffffffffffffffffffffffffffffff16146115e6576040517f08c379a00000000000000000000000000000000000000000000000000000000081526004016115dd906153d3565b60405180910390fd5b60008111611629576040517f08c379a000000000000000000000000000000000000000000000000000000000815260040161162090615505565b60405180910390fd5b6116336004613573565b600061163f6004612fc7565b90506040518060c001604052808281526020018481526020013373ffffffffffffffffffffffffffffffffffffffff1681526020013373ffffffffffffffffffffffffffffffffffffffff16815260200183815260200160001515815250600b6000838152602001908152602001600020600082015181600001556020820151816001015560408201518160020160006101000a81548173ffffffffffffffffffffffffffffffffffffffff021916908373ffffffffffffffffffffffffffffffffffffffff16021790555060608201518160030160006101000a81548173ffffffffffffffffffffffffffffffffffffffff021916908373ffffffffffffffffffffffffffffffffffffffff1602179055506080820151816004015560a08201518160050160006101000a81548160ff02191690831515021790555090505081600960008581526020019081526020016000206003018190555060016009600085815260200190815260200160002060040160006101000a81548160ff0219169083151502179055506117e63330856001604051806020016040528060008152506128a8565b505050565b60608151835114611831576040517f08c379a000000000000000000000000000000000000000000000000000000000815260040161182890615597565b60405180910390fd5b6000835167ffffffffffffffff81111561184e5761184d6142b5565b5b60405190808252806020026020018201604052801561187c5781602001602082028036833780820191505090505b50905060005b84518110156118f9576118c98582815181106118a1576118a0615257565b5b60200260200101518583815181106118bc576118bb615257565b5b6020026020010151610722565b8282815181106118dc576118db615257565b5b602002602001018181525050806118f290615286565b9050611882565b508091505092915050565b61190c613d65565b6000600960008481526020019081526020016000206040518060c001604052908160008201548152602001600182015481526020016002820160009054906101000a900473ffffffffffffffffffffffffffffffffffffffff1673ffffffffffffffffffffffffffffffffffffffff1673ffffffffffffffffffffffffffffffffffffffff168152602001600382015481526020016004820160009054906101000a900460ff161515151581526020016004820160019054906101000a900460ff161515151581525050905080915050919050565b80600760008481526020019081526020016000209080519060200190611a08929190613db5565b505050565b611a15613d35565b600060086000848152602001908152602001600020604051806040016040529081600082015481526020016001820160009054906101000a900473ffffffffffffffffffffffffffffffffffffffff1673ffffffffffffffffffffffffffffffffffffffff1673ffffffffffffffffffffffffffffffffffffffff1681525050905080915050919050565b60005b82811015611c5e57611ab56003613573565b6000611ac16003612fc7565b9050611adf3382600160405180602001604052806000815250613589565b611ae981876119e1565b6040518060c001604052808281526020018681526020013373ffffffffffffffffffffffffffffffffffffffff1681526020018481526020016000151581526020016001151581525060096000838152602001908152602001600020600082015181600001556020820151816001015560408201518160020160006101000a81548173ffffffffffffffffffffffffffffffffffffffff021916908373ffffffffffffffffffffffffffffffffffffffff1602179055506060820151816003015560808201518160040160006101000a81548160ff02191690831515021790555060a08201518160040160016101000a81548160ff021916908315150217905550905050600a600086815260200190815260200160002060405180602001604052808381525090806001815401808255809150506001900390600052602060002001600090919091909150600082015181600001555050611c4a8184611542565b508080611c5690615286565b915050611aa3565b5050505050565b611c6f6003613573565b6000611c7b6003612fc7565b9050611c993382600160405180602001604052806000815250613589565b611ca381836119e1565b60405180604001604052808281526020013373ffffffffffffffffffffffffffffffffffffffff16815250600860008381526020019081526020016000206000820151816000015560208201518160010160006101000a81548173ffffffffffffffffffffffffffffffffffffffff021916908373ffffffffffffffffffffffffffffffffffffffff160217905550905050600c60003373ffffffffffffffffffffffffffffffffffffffff1673ffffffffffffffffffffffffffffffffffffffff168152602001908152602001600020600860008381526020019081526020016000209080600181540180825580915050600190039060005260206000209060020201600090919091909150600082015481600001556001820160009054906101000a900473ffffffffffffffffffffffffffffffffffffffff168160010160006101000a81548173ffffffffffffffffffffffffffffffffffffffff021916908373ffffffffffffffffffffffffffffffffffffffff16021790555050505050565b611e39611e32612fd5565b838361371f565b5050565b600063bc197c8160e01b905095945050505050565b60606000611e606003612fc7565b90506000808515611f155760005b83811015611f0f578773ffffffffffffffffffffffffffffffffffffffff1660096000600184611e9e9190615201565b815260200190815260200160002060020160009054906101000a900473ffffffffffffffffffffffffffffffffffffffff1673ffffffffffffffffffffffffffffffffffffffff161415611efc57600183611ef99190615201565b92505b8080611f0790615286565b915050611e6e565b5061218b565b84156120545760005b8381101561204e578773ffffffffffffffffffffffffffffffffffffffff166008600060096000600186611f529190615201565b815260200190815260200160002060010154815260200190815260200160002060010160009054906101000a900473ffffffffffffffffffffffffffffffffffffffff1673ffffffffffffffffffffffffffffffffffffffff1614801561202657508773ffffffffffffffffffffffffffffffffffffffff1660096000600184611fdc9190615201565b815260200190815260200160002060020160009054906101000a900473ffffffffffffffffffffffffffffffffffffffff1673ffffffffffffffffffffffffffffffffffffffff16145b1561203b576001836120389190615201565b92505b808061204690615286565b915050611f1e565b5061218a565b60005b83811015612188578773ffffffffffffffffffffffffffffffffffffffff16600860006009600060018661208b9190615201565b815260200190815260200160002060010154815260200190815260200160002060010160009054906101000a900473ffffffffffffffffffffffffffffffffffffffff1673ffffffffffffffffffffffffffffffffffffffff161415801561216057508773ffffffffffffffffffffffffffffffffffffffff16600960006001846121169190615201565b815260200190815260200160002060020160009054906101000a900473ffffffffffffffffffffffffffffffffffffffff1673ffffffffffffffffffffffffffffffffffffffff16145b15612175576001836121729190615201565b92505b808061218090615286565b915050612057565b505b5b60008267ffffffffffffffff8111156121a7576121a66142b5565b5b6040519080825280602002602001820160405280156121e057816020015b6121cd613d65565b8152602001906001900390816121c55790505b509050861561238b5760005b84811015612385578873ffffffffffffffffffffffffffffffffffffffff166009600060018461221c9190615201565b815260200190815260200160002060020160009054906101000a900473ffffffffffffffffffffffffffffffffffffffff1673ffffffffffffffffffffffffffffffffffffffff1614156123725760006009600060018461227d9190615201565b81526020019081526020016000209050806040518060c001604052908160008201548152602001600182015481526020016002820160009054906101000a900473ffffffffffffffffffffffffffffffffffffffff1673ffffffffffffffffffffffffffffffffffffffff1673ffffffffffffffffffffffffffffffffffffffff168152602001600382015481526020016004820160009054906101000a900460ff161515151581526020016004820160019054906101000a900460ff16151515158152505083858151811061235657612355615257565b5b602002602001018190525060018461236e9190615201565b9350505b808061237d90615286565b9150506121ec565b506127f1565b85156125c25760005b848110156125bc578873ffffffffffffffffffffffffffffffffffffffff1660086000600960006001866123c89190615201565b815260200190815260200160002060010154815260200190815260200160002060010160009054906101000a900473ffffffffffffffffffffffffffffffffffffffff1673ffffffffffffffffffffffffffffffffffffffff1614801561249c57508873ffffffffffffffffffffffffffffffffffffffff16600960006001846124529190615201565b815260200190815260200160002060020160009054906101000a900473ffffffffffffffffffffffffffffffffffffffff1673ffffffffffffffffffffffffffffffffffffffff16145b156125a9576000600960006001846124b49190615201565b81526020019081526020016000209050806040518060c001604052908160008201548152602001600182015481526020016002820160009054906101000a900473ffffffffffffffffffffffffffffffffffffffff1673ffffffffffffffffffffffffffffffffffffffff1673ffffffffffffffffffffffffffffffffffffffff168152602001600382015481526020016004820160009054906101000a900460ff161515151581526020016004820160019054906101000a900460ff16151515158152505083858151811061258d5761258c615257565b5b60200260200101819052506001846125a59190615201565b9350505b80806125b490615286565b915050612394565b506127f0565b60005b848110156127ee578873ffffffffffffffffffffffffffffffffffffffff1660086000600960006001866125f99190615201565b815260200190815260200160002060010154815260200190815260200160002060010160009054906101000a900473ffffffffffffffffffffffffffffffffffffffff1673ffffffffffffffffffffffffffffffffffffffff16141580156126ce57508873ffffffffffffffffffffffffffffffffffffffff16600960006001846126849190615201565b815260200190815260200160002060020160009054906101000a900473ffffffffffffffffffffffffffffffffffffffff1673ffffffffffffffffffffffffffffffffffffffff16145b156127db576000600960006001846126e69190615201565b81526020019081526020016000209050806040518060c001604052908160008201548152602001600182015481526020016002820160009054906101000a900473ffffffffffffffffffffffffffffffffffffffff1673ffffffffffffffffffffffffffffffffffffffff1673ffffffffffffffffffffffffffffffffffffffff168152602001600382015481526020016004820160009054906101000a900460ff161515151581526020016004820160019054906101000a900460ff1615151515815250508385815181106127bf576127be615257565b5b60200260200101819052506001846127d79190615201565b9350505b80806127e690615286565b9150506125c5565b505b5b809450505050509392505050565b6000600160008473ffffffffffffffffffffffffffffffffffffffff1673ffffffffffffffffffffffffffffffffffffffff16815260200190815260200160002060008373ffffffffffffffffffffffffffffffffffffffff1673ffffffffffffffffffffffffffffffffffffffff16815260200190815260200160002060009054906101000a900460ff16905092915050565b600063f23a6e6160e01b905095945050505050565b6128b0612fd5565b73ffffffffffffffffffffffffffffffffffffffff168573ffffffffffffffffffffffffffffffffffffffff1614806128f657506128f5856128f0612fd5565b6127ff565b5b612935576040517f08c379a000000000000000000000000000000000000000000000000000000000815260040161292c90615629565b60405180910390fd5b61294285858585856132f1565b5050505050565b60606000806000600c60008673ffffffffffffffffffffffffffffffffffffffff1673ffffffffffffffffffffffffffffffffffffffff168152602001908152602001600020805480602002602001604051908101604052809291908181526020016000905b82821015612a415783829060005260206000209060020201604051806040016040529081600082015481526020016001820160009054906101000a900473ffffffffffffffffffffffffffffffffffffffff1673ffffffffffffffffffffffffffffffffffffffff1673ffffffffffffffffffffffffffffffffffffffff1681525050815260200190600101906129af565b50505050905060005b8151811015612aae576000600a6000848481518110612a6c57612a6b615257565b5b60200260200101516000015181526020019081526020016000208054905090508085612a989190615201565b9450508080612aa690615286565b915050612a4a565b5060008367ffffffffffffffff811115612acb57612aca6142b5565b5b604051908082528060200260200182016040528015612b0457816020015b612af1613e3b565b815260200190600190039081612ae95790505b50905060005b8251811015612bde576000600a6000858481518110612b2c57612b2b615257565b5b6020026020010151600001518152602001908152602001600020905060005b8180549050811015612bc957818181548110612b6a57612b69615257565b5b90600052602060002001604051806020016040529081600082015481525050848781518110612b9c57612b9b615257565b5b6020026020010181905250600186612bb49190615201565b95508080612bc190615286565b915050612b4b565b50508080612bd690615286565b915050612b0a565b5080945050505050919050565b60606000612bf96004612fc7565b905060008060005b83811015612ca2578573ffffffffffffffffffffffffffffffffffffffff16600b6000600184612c319190615201565b815260200190815260200160002060020160009054906101000a900473ffffffffffffffffffffffffffffffffffffffff1673ffffffffffffffffffffffffffffffffffffffff161415612c8f57600183612c8c9190615201565b92505b8080612c9a90615286565b915050612c01565b5060008267ffffffffffffffff811115612cbf57612cbe6142b5565b5b604051908082528060200260200182016040528015612cf857816020015b612ce5613cd1565b815260200190600190039081612cdd5790505b50905060005b84811015612ed2578673ffffffffffffffffffffffffffffffffffffffff16600b6000600184612d2e9190615201565b815260200190815260200160002060020160009054906101000a900473ffffffffffffffffffffffffffffffffffffffff1673ffffffffffffffffffffffffffffffffffffffff161415612ebf576000600b6000600184612d8f9190615201565b81526020019081526020016000209050806040518060c001604052908160008201548152602001600182015481526020016002820160009054906101000a900473ffffffffffffffffffffffffffffffffffffffff1673ffffffffffffffffffffffffffffffffffffffff1673ffffffffffffffffffffffffffffffffffffffff1681526020016003820160009054906101000a900473ffffffffffffffffffffffffffffffffffffffff1673ffffffffffffffffffffffffffffffffffffffff1673ffffffffffffffffffffffffffffffffffffffff168152602001600482015481526020016005820160009054906101000a900460ff161515151581525050838581518110612ea357612ea2615257565b5b6020026020010181905250600184612ebb9190615201565b9350505b8080612eca90615286565b915050612cfe565b5080945050505050919050565b60606000600a6000848152602001908152602001600020805480602002602001604051908101604052809291908181526020016000905b82821015612f4e5783829060005260206000200160405180602001604052908160008201548152505081526020019060010190612f16565b50505050905080915050919050565b60007f01ffc9a7000000000000000000000000000000000000000000000000000000007bffffffffffffffffffffffffffffffffffffffffffffffffffffffff1916827bffffffffffffffffffffffffffffffffffffffffffffffffffffffff1916149050919050565b600081600001549050919050565b600033905090565b8151835114613021576040517f08c379a0000000000000000000000000000000000000000000000000000000008152600401613018906156bb565b60405180910390fd5b600073ffffffffffffffffffffffffffffffffffffffff168473ffffffffffffffffffffffffffffffffffffffff161415613091576040517f08c379a00000000000000000000000000000000000000000000000000000000081526004016130889061574d565b60405180910390fd5b600061309b612fd5565b90506130ab81878787878761388c565b60005b845181101561325c5760008582815181106130cc576130cb615257565b5b6020026020010151905060008583815181106130eb576130ea615257565b5b60200260200101519050600080600084815260200190815260200160002060008b73ffffffffffffffffffffffffffffffffffffffff1673ffffffffffffffffffffffffffffffffffffffff1681526020019081526020016000205490508181101561318c576040517f08c379a0000000000000000000000000000000000000000000000000000000008152600401613183906157df565b60405180910390fd5b81810360008085815260200190815260200160002060008c73ffffffffffffffffffffffffffffffffffffffff1673ffffffffffffffffffffffffffffffffffffffff168152602001908152602001600020819055508160008085815260200190815260200160002060008b73ffffffffffffffffffffffffffffffffffffffff1673ffffffffffffffffffffffffffffffffffffffff16815260200190815260200160002060008282546132419190615201565b925050819055505050508061325590615286565b90506130ae565b508473ffffffffffffffffffffffffffffffffffffffff168673ffffffffffffffffffffffffffffffffffffffff168273ffffffffffffffffffffffffffffffffffffffff167f4a39dc06d4c0dbc64b70af90fd698a233a518aa5d07e595d983b8c0526c8f7fb87876040516132d39291906157ff565b60405180910390a46132e9818787878787613894565b505050505050565b600073ffffffffffffffffffffffffffffffffffffffff168473ffffffffffffffffffffffffffffffffffffffff161415613361576040517f08c379a00000000000000000000000000000000000000000000000000000000081526004016133589061574d565b60405180910390fd5b600061336b612fd5565b905061338b81878761337c88613a6c565b61338588613a6c565b8761388c565b600080600086815260200190815260200160002060008873ffffffffffffffffffffffffffffffffffffffff1673ffffffffffffffffffffffffffffffffffffffff16815260200190815260200160002054905083811015613422576040517f08c379a0000000000000000000000000000000000000000000000000000000008152600401613419906157df565b60405180910390fd5b83810360008087815260200190815260200160002060008973ffffffffffffffffffffffffffffffffffffffff1673ffffffffffffffffffffffffffffffffffffffff168152602001908152602001600020819055508360008087815260200190815260200160002060008873ffffffffffffffffffffffffffffffffffffffff1673ffffffffffffffffffffffffffffffffffffffff16815260200190815260200160002060008282546134d79190615201565b925050819055508573ffffffffffffffffffffffffffffffffffffffff168773ffffffffffffffffffffffffffffffffffffffff168373ffffffffffffffffffffffffffffffffffffffff167fc3d58168c5ae7397731d063d5bbf3d657854427343f4c083240f7aacaa2d0f628888604051613554929190615836565b60405180910390a461356a828888888888613ae6565b50505050505050565b6001816000016000828254019250508190555050565b600073ffffffffffffffffffffffffffffffffffffffff168473ffffffffffffffffffffffffffffffffffffffff1614156135f9576040517f08c379a00000000000000000000000000000000000000000000000000000000081526004016135f0906158d1565b60405180910390fd5b6000613603612fd5565b90506136248160008761361588613a6c565b61361e88613a6c565b8761388c565b8260008086815260200190815260200160002060008773ffffffffffffffffffffffffffffffffffffffff1673ffffffffffffffffffffffffffffffffffffffff16815260200190815260200160002060008282546136839190615201565b925050819055508473ffffffffffffffffffffffffffffffffffffffff16600073ffffffffffffffffffffffffffffffffffffffff168273ffffffffffffffffffffffffffffffffffffffff167fc3d58168c5ae7397731d063d5bbf3d657854427343f4c083240f7aacaa2d0f628787604051613701929190615836565b60405180910390a461371881600087878787613ae6565b5050505050565b8173ffffffffffffffffffffffffffffffffffffffff168373ffffffffffffffffffffffffffffffffffffffff16141561378e576040517f08c379a000000000000000000000000000000000000000000000000000000000815260040161378590615963565b60405180910390fd5b80600160008573ffffffffffffffffffffffffffffffffffffffff1673ffffffffffffffffffffffffffffffffffffffff16815260200190815260200160002060008473ffffffffffffffffffffffffffffffffffffffff1673ffffffffffffffffffffffffffffffffffffffff16815260200190815260200160002060006101000a81548160ff0219169083151502179055508173ffffffffffffffffffffffffffffffffffffffff168373ffffffffffffffffffffffffffffffffffffffff167f17307eab39ab6107e8899845ad3d59bd9653f200f220920489ca2b5937696c318360405161387f919061401d565b60405180910390a3505050565b505050505050565b6138b38473ffffffffffffffffffffffffffffffffffffffff16613cbe565b15613a64578373ffffffffffffffffffffffffffffffffffffffff1663bc197c8187878686866040518663ffffffff1660e01b81526004016138f99594939291906159e7565b6020604051808303816000875af192505050801561393557506040513d601f19601f820116820180604052508101906139329190615a64565b60015b6139db57613941615a9e565b806308c379a0141561399e5750613956615ac0565b8061396157506139a0565b806040517f08c379a000000000000000000000000000000000000000000000000000000000815260040161399591906140fe565b60405180910390fd5b505b6040517f08c379a00000000000000000000000000000000000000000000000000000000081526004016139d290615bc8565b60405180910390fd5b63bc197c8160e01b7bffffffffffffffffffffffffffffffffffffffffffffffffffffffff1916817bffffffffffffffffffffffffffffffffffffffffffffffffffffffff191614613a62576040517f08c379a0000000000000000000000000000000000000000000000000000000008152600401613a5990615c5a565b60405180910390fd5b505b505050505050565b60606000600167ffffffffffffffff811115613a8b57613a8a6142b5565b5b604051908082528060200260200182016040528015613ab95781602001602082028036833780820191505090505b5090508281600081518110613ad157613ad0615257565b5b60200260200101818152505080915050919050565b613b058473ffffffffffffffffffffffffffffffffffffffff16613cbe565b15613cb6578373ffffffffffffffffffffffffffffffffffffffff1663f23a6e6187878686866040518663ffffffff1660e01b8152600401613b4b959493929190615c7a565b6020604051808303816000875af1925050508015613b8757506040513d601f19601f82011682018060405250810190613b849190615a64565b60015b613c2d57613b93615a9e565b806308c379a01415613bf05750613ba8615ac0565b80613bb35750613bf2565b806040517f08c379a0000000000000000000000000000000000000000000000000000000008152600401613be791906140fe565b60405180910390fd5b505b6040517f08c379a0000000000000000000000000000000000000000000000000000000008152600401613c2490615bc8565b60405180910390fd5b63f23a6e6160e01b7bffffffffffffffffffffffffffffffffffffffffffffffffffffffff1916817bffffffffffffffffffffffffffffffffffffffffffffffffffffffff191614613cb4576040517f08c379a0000000000000000000000000000000000000000000000000000000008152600401613cab90615c5a565b60405180910390fd5b505b505050505050565b600080823b905060008111915050919050565b6040518060c001604052806000815260200160008152602001600073ffffffffffffffffffffffffffffffffffffffff168152602001600073ffffffffffffffffffffffffffffffffffffffff168152602001600081526020016000151581525090565b604051806040016040528060008152602001600073ffffffffffffffffffffffffffffffffffffffff1681525090565b6040518060c001604052806000815260200160008152602001600073ffffffffffffffffffffffffffffffffffffffff168152602001600081526020016000151581526020016000151581525090565b828054613dc19061516c565b90600052602060002090601f016020900481019282613de35760008555613e2a565b82601f10613dfc57805160ff1916838001178555613e2a565b82800160010185558215613e2a579182015b82811115613e29578251825591602001919060010190613e0e565b5b509050613e379190613e4e565b5090565b6040518060200160405280600081525090565b5b80821115613e67576000816000905550600101613e4f565b5090565b6000604051905090565b600080fd5b600080fd5b600073ffffffffffffffffffffffffffffffffffffffff82169050919050565b6000613eaa82613e7f565b9050919050565b613eba81613e9f565b8114613ec557600080fd5b50565b600081359050613ed781613eb1565b92915050565b6000819050919050565b613ef081613edd565b8114613efb57600080fd5b50565b600081359050613f0d81613ee7565b92915050565b60008060408385031215613f2a57613f29613e75565b5b6000613f3885828601613ec8565b9250506020613f4985828601613efe565b9150509250929050565b613f5c81613edd565b82525050565b6000602082019050613f776000830184613f53565b92915050565b60007fffffffff0000000000000000000000000000000000000000000000000000000082169050919050565b613fb281613f7d565b8114613fbd57600080fd5b50565b600081359050613fcf81613fa9565b92915050565b600060208284031215613feb57613fea613e75565b5b6000613ff984828501613fc0565b91505092915050565b60008115159050919050565b61401781614002565b82525050565b6000602082019050614032600083018461400e565b92915050565b60006020828403121561404e5761404d613e75565b5b600061405c84828501613efe565b91505092915050565b600081519050919050565b600082825260208201905092915050565b60005b8381101561409f578082015181840152602081019050614084565b838111156140ae576000848401525b50505050565b6000601f19601f8301169050919050565b60006140d082614065565b6140da8185614070565b93506140ea818560208601614081565b6140f3816140b4565b840191505092915050565b6000602082019050818103600083015261411881846140c5565b905092915050565b600081519050919050565b600082825260208201905092915050565b6000819050602082019050919050565b61415581613edd565b82525050565b600061416682613e7f565b9050919050565b6141768161415b565b82525050565b61418581614002565b82525050565b60c0820160008201516141a1600085018261414c565b5060208201516141b4602085018261414c565b5060408201516141c7604085018261416d565b5060608201516141da606085018261416d565b5060808201516141ed608085018261414c565b5060a082015161420060a085018261417c565b50505050565b6000614212838361418b565b60c08301905092915050565b6000602082019050919050565b600061423682614120565b614240818561412b565b935061424b8361413c565b8060005b8381101561427c5781516142638882614206565b975061426e8361421e565b92505060018101905061424f565b5085935050505092915050565b600060208201905081810360008301526142a3818461422b565b905092915050565b600080fd5b600080fd5b7f4e487b7100000000000000000000000000000000000000000000000000000000600052604160045260246000fd5b6142ed826140b4565b810181811067ffffffffffffffff8211171561430c5761430b6142b5565b5b80604052505050565b600061431f613e6b565b905061432b82826142e4565b919050565b600067ffffffffffffffff82111561434b5761434a6142b5565b5b614354826140b4565b9050602081019050919050565b82818337600083830152505050565b600061438361437e84614330565b614315565b90508281526020810184848401111561439f5761439e6142b0565b5b6143aa848285614361565b509392505050565b600082601f8301126143c7576143c66142ab565b5b81356143d7848260208601614370565b91505092915050565b600080600080608085870312156143fa576143f9613e75565b5b600061440887828801613ec8565b945050602061441987828801613ec8565b935050604061442a87828801613efe565b925050606085013567ffffffffffffffff81111561444b5761444a613e7a565b5b614457878288016143b2565b91505092959194509250565b61446c81613f7d565b82525050565b60006020820190506144876000830184614463565b92915050565b6000602082840312156144a3576144a2613e75565b5b60006144b184828501613ec8565b91505092915050565b600081519050919050565b600082825260208201905092915050565b6000819050602082019050919050565b6040820160008201516144fc600085018261414c565b50602082015161450f602085018261416d565b50505050565b600061452183836144e6565b60408301905092915050565b6000602082019050919050565b6000614545826144ba565b61454f81856144c5565b935061455a836144d6565b8060005b8381101561458b5781516145728882614515565b975061457d8361452d565b92505060018101905061455e565b5085935050505092915050565b600060208201905081810360008301526145b2818461453a565b905092915050565b60c0820160008201516145d0600085018261414c565b5060208201516145e3602085018261414c565b5060408201516145f6604085018261416d565b506060820151614609606085018261416d565b50608082015161461c608085018261414c565b5060a082015161462f60a085018261417c565b50505050565b600060c08201905061464a60008301846145ba565b92915050565b600067ffffffffffffffff82111561466b5761466a6142b5565b5b602082029050602081019050919050565b600080fd5b600061469461468f84614650565b614315565b905080838252602082019050602084028301858111156146b7576146b661467c565b5b835b818110156146e057806146cc8882613efe565b8452602084019350506020810190506146b9565b5050509392505050565b600082601f8301126146ff576146fe6142ab565b5b813561470f848260208601614681565b91505092915050565b600080600080600060a0868803121561473457614733613e75565b5b600061474288828901613ec8565b955050602061475388828901613ec8565b945050604086013567ffffffffffffffff81111561477457614773613e7a565b5b614780888289016146ea565b935050606086013567ffffffffffffffff8111156147a1576147a0613e7a565b5b6147ad888289016146ea565b925050608086013567ffffffffffffffff8111156147ce576147cd613e7a565b5b6147da888289016143b2565b9150509295509295909350565b600080604083850312156147fe576147fd613e75565b5b600061480c85828601613efe565b925050602061481d85828601613efe565b9150509250929050565b600067ffffffffffffffff821115614842576148416142b5565b5b602082029050602081019050919050565b600061486661486184614827565b614315565b905080838252602082019050602084028301858111156148895761488861467c565b5b835b818110156148b2578061489e8882613ec8565b84526020840193505060208101905061488b565b5050509392505050565b600082601f8301126148d1576148d06142ab565b5b81356148e1848260208601614853565b91505092915050565b6000806040838503121561490157614900613e75565b5b600083013567ffffffffffffffff81111561491f5761491e613e7a565b5b61492b858286016148bc565b925050602083013567ffffffffffffffff81111561494c5761494b613e7a565b5b614958858286016146ea565b9150509250929050565b600081519050919050565b600082825260208201905092915050565b6000819050602082019050919050565b600061499a838361414c565b60208301905092915050565b6000602082019050919050565b60006149be82614962565b6149c8818561496d565b93506149d38361497e565b8060005b83811015614a045781516149eb888261498e565b97506149f6836149a6565b9250506001810190506149d7565b5085935050505092915050565b60006020820190508181036000830152614a2b81846149b3565b905092915050565b60c082016000820151614a49600085018261414c565b506020820151614a5c602085018261414c565b506040820151614a6f604085018261416d565b506060820151614a82606085018261414c565b506080820151614a95608085018261417c565b5060a0820151614aa860a085018261417c565b50505050565b600060c082019050614ac36000830184614a33565b92915050565b600067ffffffffffffffff821115614ae457614ae36142b5565b5b614aed826140b4565b9050602081019050919050565b6000614b0d614b0884614ac9565b614315565b905082815260208101848484011115614b2957614b286142b0565b5b614b34848285614361565b509392505050565b600082601f830112614b5157614b506142ab565b5b8135614b61848260208601614afa565b91505092915050565b60008060408385031215614b8157614b80613e75565b5b6000614b8f85828601613efe565b925050602083013567ffffffffffffffff811115614bb057614baf613e7a565b5b614bbc85828601614b3c565b9150509250929050565b604082016000820151614bdc600085018261414c565b506020820151614bef602085018261416d565b50505050565b6000604082019050614c0a6000830184614bc6565b92915050565b60008060008060808587031215614c2a57614c29613e75565b5b600085013567ffffffffffffffff811115614c4857614c47613e7a565b5b614c5487828801614b3c565b9450506020614c6587828801613efe565b9350506040614c7687828801613efe565b9250506060614c8787828801613efe565b91505092959194509250565b600060208284031215614ca957614ca8613e75565b5b600082013567ffffffffffffffff811115614cc757614cc6613e7a565b5b614cd384828501614b3c565b91505092915050565b614ce581614002565b8114614cf057600080fd5b50565b600081359050614d0281614cdc565b92915050565b60008060408385031215614d1f57614d1e613e75565b5b6000614d2d85828601613ec8565b9250506020614d3e85828601614cf3565b9150509250929050565b600080600060608486031215614d6157614d60613e75565b5b6000614d6f86828701613ec8565b9350506020614d8086828701614cf3565b9250506040614d9186828701614cf3565b9150509250925092565b600081519050919050565b600082825260208201905092915050565b6000819050602082019050919050565b60c082016000820151614ddd600085018261414c565b506020820151614df0602085018261414c565b506040820151614e03604085018261416d565b506060820151614e16606085018261414c565b506080820151614e29608085018261417c565b5060a0820151614e3c60a085018261417c565b50505050565b6000614e4e8383614dc7565b60c08301905092915050565b6000602082019050919050565b6000614e7282614d9b565b614e7c8185614da6565b9350614e8783614db7565b8060005b83811015614eb8578151614e9f8882614e42565b9750614eaa83614e5a565b925050600181019050614e8b565b5085935050505092915050565b60006020820190508181036000830152614edf8184614e67565b905092915050565b60008060408385031215614efe57614efd613e75565b5b6000614f0c85828601613ec8565b9250506020614f1d85828601613ec8565b9150509250929050565b600080600080600060a08688031215614f4357614f42613e75565b5b6000614f5188828901613ec8565b9550506020614f6288828901613ec8565b9450506040614f7388828901613efe565b9350506060614f8488828901613efe565b925050608086013567ffffffffffffffff811115614fa557614fa4613e7a565b5b614fb1888289016143b2565b9150509295509295909350565b600081519050919050565b600082825260208201905092915050565b6000819050602082019050919050565b602082016000820151615000600085018261414c565b50505050565b60006150128383614fea565b60208301905092915050565b6000602082019050919050565b600061503682614fbe565b6150408185614fc9565b935061504b83614fda565b8060005b8381101561507c5781516150638882615006565b975061506e8361501e565b92505060018101905061504f565b5085935050505092915050565b600060208201905081810360008301526150a3818461502b565b905092915050565b7f455243313135353a2062616c616e636520717565727920666f7220746865207a60008201527f65726f2061646472657373000000000000000000000000000000000000000000602082015250565b6000615107602b83614070565b9150615112826150ab565b604082019050919050565b60006020820190508181036000830152615136816150fa565b9050919050565b7f4e487b7100000000000000000000000000000000000000000000000000000000600052602260045260246000fd5b6000600282049050600182168061518457607f821691505b602082108114156151985761519761513d565b5b50919050565b7f4e487b7100000000000000000000000000000000000000000000000000000000600052601160045260246000fd5b60006151d882613edd565b91506151e383613edd565b9250828210156151f6576151f561519e565b5b828203905092915050565b600061520c82613edd565b915061521783613edd565b9250827fffffffffffffffffffffffffffffffffffffffffffffffffffffffffffffffff0382111561524c5761524b61519e565b5b828201905092915050565b7f4e487b7100000000000000000000000000000000000000000000000000000000600052603260045260246000fd5b600061529182613edd565b91507fffffffffffffffffffffffffffffffffffffffffffffffffffffffffffffffff8214156152c4576152c361519e565b5b600182019050919050565b7f455243313135353a207472616e736665722063616c6c6572206973206e6f742060008201527f6f776e6572206e6f7220617070726f7665640000000000000000000000000000602082015250565b600061532b603283614070565b9150615336826152cf565b604082019050919050565b6000602082019050818103600083015261535a8161531e565b9050919050565b7f4f6e6c7920666f7220746865206f776e6572206f662074686973207469636b6560008201527f7421000000000000000000000000000000000000000000000000000000000000602082015250565b60006153bd602283614070565b91506153c882615361565b604082019050919050565b600060208201905081810360008301526153ec816153b0565b9050919050565b60006153fe82613edd565b915061540983613edd565b9250817fffffffffffffffffffffffffffffffffffffffffffffffffffffffffffffffff04831182151516156154425761544161519e565b5b828202905092915050565b7f6d73672e76616c756520213d207072696365202a2a20646563696d616c730000600082015250565b6000615483601e83614070565b915061548e8261544d565b602082019050919050565b600060208201905081810360008301526154b281615476565b9050919050565b7f5072696365206d757374206265206174206c6561737420312077656900000000600082015250565b60006154ef601c83614070565b91506154fa826154b9565b602082019050919050565b6000602082019050818103600083015261551e816154e2565b9050919050565b7f455243313135353a206163636f756e747320616e6420696473206c656e67746860008201527f206d69736d617463680000000000000000000000000000000000000000000000602082015250565b6000615581602983614070565b915061558c82615525565b604082019050919050565b600060208201905081810360008301526155b081615574565b9050919050565b7f455243313135353a2063616c6c6572206973206e6f74206f776e6572206e6f7260008201527f20617070726f7665640000000000000000000000000000000000000000000000602082015250565b6000615613602983614070565b915061561e826155b7565b604082019050919050565b6000602082019050818103600083015261564281615606565b9050919050565b7f455243313135353a2069647320616e6420616d6f756e7473206c656e6774682060008201527f6d69736d61746368000000000000000000000000000000000000000000000000602082015250565b60006156a5602883614070565b91506156b082615649565b604082019050919050565b600060208201905081810360008301526156d481615698565b9050919050565b7f455243313135353a207472616e7366657220746f20746865207a65726f20616460008201527f6472657373000000000000000000000000000000000000000000000000000000602082015250565b6000615737602583614070565b9150615742826156db565b604082019050919050565b600060208201905081810360008301526157668161572a565b9050919050565b7f455243313135353a20696e73756666696369656e742062616c616e636520666f60008201527f72207472616e7366657200000000000000000000000000000000000000000000602082015250565b60006157c9602a83614070565b91506157d48261576d565b604082019050919050565b600060208201905081810360008301526157f8816157bc565b9050919050565b6000604082019050818103600083015261581981856149b3565b9050818103602083015261582d81846149b3565b90509392505050565b600060408201905061584b6000830185613f53565b6158586020830184613f53565b9392505050565b7f455243313135353a206d696e7420746f20746865207a65726f2061646472657360008201527f7300000000000000000000000000000000000000000000000000000000000000602082015250565b60006158bb602183614070565b91506158c68261585f565b604082019050919050565b600060208201905081810360008301526158ea816158ae565b9050919050565b7f455243313135353a2073657474696e6720617070726f76616c2073746174757360008201527f20666f722073656c660000000000000000000000000000000000000000000000602082015250565b600061594d602983614070565b9150615958826158f1565b604082019050919050565b6000602082019050818103600083015261597c81615940565b9050919050565b61598c81613e9f565b82525050565b600081519050919050565b600082825260208201905092915050565b60006159b982615992565b6159c3818561599d565b93506159d3818560208601614081565b6159dc816140b4565b840191505092915050565b600060a0820190506159fc6000830188615983565b615a096020830187615983565b8181036040830152615a1b81866149b3565b90508181036060830152615a2f81856149b3565b90508181036080830152615a4381846159ae565b90509695505050505050565b600081519050615a5e81613fa9565b92915050565b600060208284031215615a7a57615a79613e75565b5b6000615a8884828501615a4f565b91505092915050565b60008160e01c9050919050565b600060033d1115615abd5760046000803e615aba600051615a91565b90505b90565b600060443d1015615ad057615b53565b615ad8613e6b565b60043d036004823e80513d602482011167ffffffffffffffff82111715615b00575050615b53565b808201805167ffffffffffffffff811115615b1e5750505050615b53565b80602083010160043d038501811115615b3b575050505050615b53565b615b4a826020018501866142e4565b82955050505050505b90565b7f455243313135353a207472616e7366657220746f206e6f6e204552433131353560008201527f526563656976657220696d706c656d656e746572000000000000000000000000602082015250565b6000615bb2603483614070565b9150615bbd82615b56565b604082019050919050565b60006020820190508181036000830152615be181615ba5565b9050919050565b7f455243313135353a204552433131353552656365697665722072656a6563746560008201527f6420746f6b656e73000000000000000000000000000000000000000000000000602082015250565b6000615c44602883614070565b9150615c4f82615be8565b604082019050919050565b60006020820190508181036000830152615c7381615c37565b9050919050565b600060a082019050615c8f6000830188615983565b615c9c6020830187615983565b615ca96040830186613f53565b615cb66060830185613f53565b8181036080830152615cc881846159ae565b9050969550505050505056fea2646970667358221220dcbbe09b58117b4ae5707d5fdd328dc1a10fdd170622d3b473c01c4029f2a8ef64736f6c634300080b0033",
  "immutableReferences": {},
  "source": "// SPDX-License-Identifier: MIT\r\npragma solidity ^0.8.11;\r\n\r\nimport \"@openzeppelin/contracts/token/ERC1155/ERC1155.sol\";\r\nimport \"@openzeppelin/contracts/utils/Counters.sol\";\r\n\r\ncontract Event is ERC1155 {\r\n    using Counters for Counters.Counter;\r\n    Counters.Counter private _tokenIds;\r\n    Counters.Counter private _itemIds;\r\n    Counters.Counter private _itemsSold;\r\n    address payable owner;\r\n\r\n    constructor() ERC1155(\"\") {\r\n        owner = payable(msg.sender);\r\n    }\r\n\r\n    mapping(uint256 => string) private _uris;\r\n\r\n    struct Item {\r\n        uint256 tokenId;\r\n    }\r\n\r\n    struct EventItem {\r\n        uint256 tokenId;\r\n        address payable owner;\r\n    }\r\n\r\n    struct TicketItem {\r\n        uint256 tokenId;\r\n        uint256 eventTokenId;\r\n        address payable owner;\r\n        uint256 price;\r\n        bool list;\r\n        bool active;\r\n    }\r\n\r\n    struct MarketItem {\r\n        uint256 itemId;\r\n        uint256 tokenId;\r\n        address payable seller;\r\n        address payable owner;\r\n        uint256 price;\r\n        bool sold;\r\n    }\r\n\r\n    mapping(uint256 => EventItem) private eventToken;\r\n    mapping(uint256 => TicketItem) private ticketToken;\r\n    mapping(uint256 => Item[]) private ticketsInEvent;\r\n    mapping(uint256 => MarketItem) private ticketInMarket;\r\n\r\n    mapping(address => EventItem[]) private createdEvents;\r\n\r\n    function uri(uint256 tokenId) public view override returns (string memory) {\r\n        return (_uris[tokenId]);\r\n    }\r\n\r\n    function setTokenUri(uint256 tokenId, string memory tokenUri) public {\r\n        // require(bytes(_uris[tokenId]).length == 0, \"Cannot set uri twice\");\r\n        _uris[tokenId] = tokenUri;\r\n    }\r\n\r\n    function mintEvent(string memory tokenUri) public {\r\n        _tokenIds.increment();\r\n        uint256 newItemId = _tokenIds.current();\r\n\r\n        _mint(msg.sender, newItemId, 1, \"\");\r\n        setTokenUri(newItemId, tokenUri);\r\n        eventToken[newItemId] = EventItem(newItemId, payable(msg.sender));\r\n        createdEvents[msg.sender].push(eventToken[newItemId]);\r\n    }\r\n\r\n    function mintTicket(\r\n        string memory tokenUri,\r\n        uint256 eventTokenId,\r\n        uint256 quantity,\r\n        uint256 price\r\n    ) public {\r\n        for (uint256 i = 0; i < quantity; i++) {\r\n            _tokenIds.increment();\r\n            uint256 newItemId = _tokenIds.current();\r\n\r\n            _mint(msg.sender, newItemId, 1, \"\");\r\n            setTokenUri(newItemId, tokenUri);\r\n            ticketToken[newItemId] = TicketItem(\r\n                newItemId,\r\n                eventTokenId,\r\n                payable(msg.sender),\r\n                price,\r\n                false,\r\n                true\r\n            );\r\n            ticketsInEvent[eventTokenId].push(Item(newItemId));\r\n            createMarketItem(newItemId, price);\r\n        }\r\n    }\r\n\r\n    function createMarketItem(uint256 tokenId, uint256 price) public payable {\r\n        require(\r\n            msg.sender == ticketToken[tokenId].owner,\r\n            \"Only for the owner of this ticket!\"\r\n        );\r\n        require(price > 0, \"Price must be at least 1 wei\");\r\n\r\n        _itemIds.increment();\r\n        uint256 itemId = _itemIds.current();\r\n\r\n        ticketInMarket[itemId] = MarketItem(\r\n            itemId,\r\n            tokenId,\r\n            payable(msg.sender),\r\n            payable(msg.sender),\r\n            price,\r\n            false\r\n        );\r\n\r\n        ticketToken[tokenId].price = price;\r\n        ticketToken[tokenId].list = true;\r\n\r\n        safeTransferFrom(msg.sender, address(this), tokenId, 1, \"\");\r\n    }\r\n\r\n    function cancelListing(uint256 itemId) public payable {\r\n        require(\r\n            msg.sender == ticketInMarket[itemId].owner,\r\n            \"Only for the owner of this ticket!\"\r\n        );\r\n        uint256 tokenId = ticketInMarket[itemId].tokenId;\r\n        ticketToken[tokenId].price = 0;\r\n        ticketToken[tokenId].list = false;\r\n        delete ticketInMarket[itemId];\r\n        _safeTransferFrom(address(this), msg.sender, tokenId, 1, \"\");\r\n    }\r\n\r\n    function buyMarketItem(uint256 itemId) public payable {\r\n        uint256 price = ticketInMarket[itemId].price;\r\n        uint256 tokenId = ticketInMarket[itemId].tokenId;\r\n        require(\r\n            msg.value == price * (10**10),\r\n            \"msg.value != price ** decimals\"\r\n        );\r\n\r\n        ticketInMarket[itemId].seller.transfer(msg.value);\r\n        ticketInMarket[itemId].owner = payable(msg.sender);\r\n        ticketInMarket[itemId].sold = true;\r\n        ticketToken[tokenId].owner = payable(msg.sender);\r\n        ticketToken[tokenId].list = false;\r\n        _itemsSold.increment();\r\n\r\n        _safeTransferFrom(address(this), msg.sender, tokenId, 1, \"\");\r\n    }\r\n\r\n    function fetchMarketItem(uint256 tokenId)\r\n        public\r\n        view\r\n        returns (MarketItem memory)\r\n    {\r\n        uint256 itemCount = _itemIds.current();\r\n        MarketItem memory item;\r\n\r\n        for (uint256 i = 0; i < itemCount; i++) {\r\n            if (ticketInMarket[i + 1].tokenId == tokenId) {\r\n                uint256 currentId = i + 1;\r\n                item = ticketInMarket[currentId];\r\n            }\r\n        }\r\n        return item;\r\n    }\r\n\r\n    function fetchMarketItems() public view returns (MarketItem[] memory) {\r\n        uint256 itemCount = _itemIds.current();\r\n        uint256 unsoldItemCount = _itemIds.current() - _itemsSold.current();\r\n        uint256 currentIndex = 0;\r\n\r\n        MarketItem[] memory items = new MarketItem[](unsoldItemCount);\r\n        for (uint256 i = 0; i < itemCount; i++) {\r\n            if (!ticketInMarket[i + 1].sold) {\r\n                MarketItem storage currentItem = ticketInMarket[i + 1];\r\n                items[currentIndex] = currentItem;\r\n                currentIndex += 1;\r\n            }\r\n        }\r\n        return items;\r\n    }\r\n\r\n    function fetchOwnedListings(address account)\r\n        public\r\n        view\r\n        returns (MarketItem[] memory)\r\n    {\r\n        uint256 itemCount = _itemIds.current();\r\n        uint256 tokenCount = 0;\r\n        uint256 currentIndex = 0;\r\n\r\n        for (uint256 i = 0; i < itemCount; i++) {\r\n            if (ticketInMarket[i + 1].seller == account) {\r\n                tokenCount += 1;\r\n            }\r\n        }\r\n\r\n        MarketItem[] memory items = new MarketItem[](tokenCount);\r\n        for (uint256 i = 0; i < itemCount; i++) {\r\n            if (ticketInMarket[i + 1].seller == account) {\r\n                MarketItem storage currentItem = ticketInMarket[i + 1];\r\n                items[currentIndex] = currentItem;\r\n                currentIndex += 1;\r\n            }\r\n        }\r\n        return items;\r\n    }\r\n\r\n    function fetchCreatedEvents(address account)\r\n        public\r\n        view\r\n        returns (EventItem[] memory)\r\n    {\r\n        EventItem[] memory items = createdEvents[account];\r\n        return items;\r\n    }\r\n\r\n    function fetchOwnedEvents(address account)\r\n        public\r\n        view\r\n        returns (EventItem[] memory)\r\n    {\r\n        uint256 totalTokenCount = _tokenIds.current();\r\n        uint256 tokenCount = 0;\r\n        uint256 currentIndex = 0;\r\n\r\n        for (uint256 i = 0; i < totalTokenCount; i++) {\r\n            if (eventToken[i + 1].owner == account) {\r\n                tokenCount += 1;\r\n            }\r\n        }\r\n\r\n        EventItem[] memory items = new EventItem[](tokenCount);\r\n        for (uint256 i = 0; i < totalTokenCount; i++) {\r\n            if (eventToken[i + 1].owner == account) {\r\n                EventItem storage currentItem = eventToken[i + 1];\r\n                items[currentIndex] = currentItem;\r\n                currentIndex += 1;\r\n            }\r\n        }\r\n        return items;\r\n    }\r\n\r\n    function fetchCreatedTickets(address account)\r\n        public\r\n        view\r\n        returns (Item[] memory)\r\n    {\r\n        uint256 tokenCount = 0;\r\n        uint256 currentIndex = 0;\r\n\r\n        EventItem[] memory events = createdEvents[account];\r\n        for (uint256 i = 0; i < events.length; i++) {\r\n            uint256 ticketCount = ticketsInEvent[events[i].tokenId].length;\r\n            tokenCount += ticketCount;\r\n        }\r\n\r\n        Item[] memory items = new Item[](tokenCount);\r\n        for (uint256 i = 0; i < events.length; i++) {\r\n            Item[] storage currentItem = ticketsInEvent[events[i].tokenId];\r\n            for (uint256 j = 0; j < currentItem.length; j++) {\r\n                items[currentIndex] = currentItem[j];\r\n                currentIndex += 1;\r\n            }\r\n        }\r\n        return items;\r\n    }\r\n\r\n    function fetchOwnedTickets(\r\n        address account,\r\n        bool isAllOwned,\r\n        bool isCreator\r\n    ) public view returns (TicketItem[] memory) {\r\n        uint256 totalTokenCount = _tokenIds.current();\r\n        uint256 tokenCount = 0;\r\n        uint256 currentIndex = 0;\r\n\r\n        if (isAllOwned) {\r\n            for (uint256 i = 0; i < totalTokenCount; i++) {\r\n                if (ticketToken[i + 1].owner == account) {\r\n                    tokenCount += 1;\r\n                }\r\n            }\r\n        } else {\r\n            if (isCreator) {\r\n                for (uint256 i = 0; i < totalTokenCount; i++) {\r\n                    if (\r\n                        eventToken[ticketToken[i + 1].eventTokenId].owner ==\r\n                        account &&\r\n                        ticketToken[i + 1].owner == account\r\n                    ) {\r\n                        tokenCount += 1;\r\n                    }\r\n                }\r\n            } else {\r\n                for (uint256 i = 0; i < totalTokenCount; i++) {\r\n                    if (\r\n                        eventToken[ticketToken[i + 1].eventTokenId].owner !=\r\n                        account &&\r\n                        ticketToken[i + 1].owner == account\r\n                    ) {\r\n                        tokenCount += 1;\r\n                    }\r\n                }\r\n            }\r\n        }\r\n\r\n        TicketItem[] memory items = new TicketItem[](tokenCount);\r\n        if (isAllOwned) {\r\n            for (uint256 i = 0; i < totalTokenCount; i++) {\r\n                if (ticketToken[i + 1].owner == account) {\r\n                    TicketItem storage currentItem = ticketToken[i + 1];\r\n                    items[currentIndex] = currentItem;\r\n                    currentIndex += 1;\r\n                }\r\n            }\r\n        } else {\r\n            if (isCreator) {\r\n                for (uint256 i = 0; i < totalTokenCount; i++) {\r\n                    if (\r\n                        eventToken[ticketToken[i + 1].eventTokenId].owner ==\r\n                        account &&\r\n                        ticketToken[i + 1].owner == account\r\n                    ) {\r\n                        TicketItem storage currentItem = ticketToken[i + 1];\r\n                        items[currentIndex] = currentItem;\r\n                        currentIndex += 1;\r\n                    }\r\n                }\r\n            } else {\r\n                for (uint256 i = 0; i < totalTokenCount; i++) {\r\n                    if (\r\n                        eventToken[ticketToken[i + 1].eventTokenId].owner !=\r\n                        account &&\r\n                        ticketToken[i + 1].owner == account\r\n                    ) {\r\n                        TicketItem storage currentItem = ticketToken[i + 1];\r\n                        items[currentIndex] = currentItem;\r\n                        currentIndex += 1;\r\n                    }\r\n                }\r\n            }\r\n        }\r\n\r\n        return items;\r\n    }\r\n\r\n    function fetchTicketsInEvent(uint256 eventTokenId)\r\n        public\r\n        view\r\n        returns (Item[] memory)\r\n    {\r\n        Item[] memory items = ticketsInEvent[eventTokenId];\r\n        return items;\r\n    }\r\n\r\n    function fetchEvent(uint256 tokenId)\r\n        public\r\n        view\r\n        returns (EventItem memory)\r\n    {\r\n        EventItem memory item = eventToken[tokenId];\r\n        return item;\r\n    }\r\n\r\n    function fetchTicket(uint256 tokenId)\r\n        public\r\n        view\r\n        returns (TicketItem memory)\r\n    {\r\n        TicketItem memory item = ticketToken[tokenId];\r\n        return item;\r\n    }\r\n\r\n    function onERC1155Received(\r\n        address,\r\n        address,\r\n        uint256,\r\n        uint256,\r\n        bytes memory\r\n    ) public virtual returns (bytes4) {\r\n        return this.onERC1155Received.selector;\r\n    }\r\n\r\n    function onERC1155BatchReceived(\r\n        address,\r\n        address,\r\n        uint256[] memory,\r\n        uint256[] memory,\r\n        bytes memory\r\n    ) public virtual returns (bytes4) {\r\n        return this.onERC1155BatchReceived.selector;\r\n    }\r\n\r\n    function onERC721Received(\r\n        address,\r\n        address,\r\n        uint256,\r\n        bytes memory\r\n    ) public virtual returns (bytes4) {\r\n        return this.onERC721Received.selector;\r\n    }\r\n}\r\n",
  "sourcePath": "D:\\Final Project\\ticketplace\\contracts\\Event.sol",
  "compiler": {
    "name": "solc",
    "version": "0.8.11+commit.d7f03943.Emscripten.clang"
  },
  "schemaVersion": "3.4.4",
  "updatedAt": "2022-03-14T23:58:58.547Z",
  "networkType": "ethereum",
  "devdoc": {
    "kind": "dev",
    "methods": {
      "balanceOf(address,uint256)": {
        "details": "See {IERC1155-balanceOf}. Requirements: - `account` cannot be the zero address."
      },
      "balanceOfBatch(address[],uint256[])": {
        "details": "See {IERC1155-balanceOfBatch}. Requirements: - `accounts` and `ids` must have the same length."
      },
      "isApprovedForAll(address,address)": {
        "details": "See {IERC1155-isApprovedForAll}."
      },
      "safeBatchTransferFrom(address,address,uint256[],uint256[],bytes)": {
        "details": "See {IERC1155-safeBatchTransferFrom}."
      },
      "safeTransferFrom(address,address,uint256,uint256,bytes)": {
        "details": "See {IERC1155-safeTransferFrom}."
      },
      "setApprovalForAll(address,bool)": {
        "details": "See {IERC1155-setApprovalForAll}."
      },
      "supportsInterface(bytes4)": {
        "details": "See {IERC165-supportsInterface}."
      }
    },
    "version": 1
  },
  "userdoc": {
    "kind": "user",
    "methods": {},
    "version": 1
  }
}