{
  "contractName": "Event",
  "abi": [
    {
      "inputs": [],
      "stateMutability": "nonpayable",
      "type": "constructor"
    },
    {
      "anonymous": false,
      "inputs": [
        {
          "indexed": true,
          "internalType": "address",
          "name": "account",
          "type": "address"
        },
        {
          "indexed": true,
          "internalType": "address",
          "name": "operator",
          "type": "address"
        },
        {
          "indexed": false,
          "internalType": "bool",
          "name": "approved",
          "type": "bool"
        }
      ],
      "name": "ApprovalForAll",
      "type": "event"
    },
    {
      "anonymous": false,
      "inputs": [
        {
          "indexed": true,
          "internalType": "address",
          "name": "operator",
          "type": "address"
        },
        {
          "indexed": true,
          "internalType": "address",
          "name": "from",
          "type": "address"
        },
        {
          "indexed": true,
          "internalType": "address",
          "name": "to",
          "type": "address"
        },
        {
          "indexed": false,
          "internalType": "uint256[]",
          "name": "ids",
          "type": "uint256[]"
        },
        {
          "indexed": false,
          "internalType": "uint256[]",
          "name": "values",
          "type": "uint256[]"
        }
      ],
      "name": "TransferBatch",
      "type": "event"
    },
    {
      "anonymous": false,
      "inputs": [
        {
          "indexed": true,
          "internalType": "address",
          "name": "operator",
          "type": "address"
        },
        {
          "indexed": true,
          "internalType": "address",
          "name": "from",
          "type": "address"
        },
        {
          "indexed": true,
          "internalType": "address",
          "name": "to",
          "type": "address"
        },
        {
          "indexed": false,
          "internalType": "uint256",
          "name": "id",
          "type": "uint256"
        },
        {
          "indexed": false,
          "internalType": "uint256",
          "name": "value",
          "type": "uint256"
        }
      ],
      "name": "TransferSingle",
      "type": "event"
    },
    {
      "anonymous": false,
      "inputs": [
        {
          "indexed": false,
          "internalType": "string",
          "name": "value",
          "type": "string"
        },
        {
          "indexed": true,
          "internalType": "uint256",
          "name": "id",
          "type": "uint256"
        }
      ],
      "name": "URI",
      "type": "event"
    },
    {
      "inputs": [
        {
          "internalType": "address",
          "name": "account",
          "type": "address"
        },
        {
          "internalType": "uint256",
          "name": "id",
          "type": "uint256"
        }
      ],
      "name": "balanceOf",
      "outputs": [
        {
          "internalType": "uint256",
          "name": "",
          "type": "uint256"
        }
      ],
      "stateMutability": "view",
      "type": "function",
      "constant": true
    },
    {
      "inputs": [
        {
          "internalType": "address[]",
          "name": "accounts",
          "type": "address[]"
        },
        {
          "internalType": "uint256[]",
          "name": "ids",
          "type": "uint256[]"
        }
      ],
      "name": "balanceOfBatch",
      "outputs": [
        {
          "internalType": "uint256[]",
          "name": "",
          "type": "uint256[]"
        }
      ],
      "stateMutability": "view",
      "type": "function",
      "constant": true
    },
    {
      "inputs": [
        {
          "internalType": "address",
          "name": "account",
          "type": "address"
        },
        {
          "internalType": "address",
          "name": "operator",
          "type": "address"
        }
      ],
      "name": "isApprovedForAll",
      "outputs": [
        {
          "internalType": "bool",
          "name": "",
          "type": "bool"
        }
      ],
      "stateMutability": "view",
      "type": "function",
      "constant": true
    },
    {
      "inputs": [
        {
          "internalType": "address",
          "name": "from",
          "type": "address"
        },
        {
          "internalType": "address",
          "name": "to",
          "type": "address"
        },
        {
          "internalType": "uint256[]",
          "name": "ids",
          "type": "uint256[]"
        },
        {
          "internalType": "uint256[]",
          "name": "amounts",
          "type": "uint256[]"
        },
        {
          "internalType": "bytes",
          "name": "data",
          "type": "bytes"
        }
      ],
      "name": "safeBatchTransferFrom",
      "outputs": [],
      "stateMutability": "nonpayable",
      "type": "function"
    },
    {
      "inputs": [
        {
          "internalType": "address",
          "name": "from",
          "type": "address"
        },
        {
          "internalType": "address",
          "name": "to",
          "type": "address"
        },
        {
          "internalType": "uint256",
          "name": "id",
          "type": "uint256"
        },
        {
          "internalType": "uint256",
          "name": "amount",
          "type": "uint256"
        },
        {
          "internalType": "bytes",
          "name": "data",
          "type": "bytes"
        }
      ],
      "name": "safeTransferFrom",
      "outputs": [],
      "stateMutability": "nonpayable",
      "type": "function"
    },
    {
      "inputs": [
        {
          "internalType": "address",
          "name": "operator",
          "type": "address"
        },
        {
          "internalType": "bool",
          "name": "approved",
          "type": "bool"
        }
      ],
      "name": "setApprovalForAll",
      "outputs": [],
      "stateMutability": "nonpayable",
      "type": "function"
    },
    {
      "inputs": [
        {
          "internalType": "bytes4",
          "name": "interfaceId",
          "type": "bytes4"
        }
      ],
      "name": "supportsInterface",
      "outputs": [
        {
          "internalType": "bool",
          "name": "",
          "type": "bool"
        }
      ],
      "stateMutability": "view",
      "type": "function",
      "constant": true
    },
    {
      "inputs": [
        {
          "internalType": "uint256",
          "name": "tokenId",
          "type": "uint256"
        }
      ],
      "name": "uri",
      "outputs": [
        {
          "internalType": "string",
          "name": "",
          "type": "string"
        }
      ],
      "stateMutability": "view",
      "type": "function",
      "constant": true
    },
    {
      "inputs": [
        {
          "internalType": "uint256",
          "name": "tokenId",
          "type": "uint256"
        },
        {
          "internalType": "string",
          "name": "tokenUri",
          "type": "string"
        }
      ],
      "name": "setTokenUri",
      "outputs": [],
      "stateMutability": "nonpayable",
      "type": "function"
    },
    {
      "inputs": [
        {
          "internalType": "string",
          "name": "tokenUri",
          "type": "string"
        }
      ],
      "name": "mintEvent",
      "outputs": [],
      "stateMutability": "nonpayable",
      "type": "function"
    },
    {
      "inputs": [
        {
          "internalType": "string",
          "name": "tokenUri",
          "type": "string"
        },
        {
          "internalType": "uint256",
          "name": "eventTokenId",
          "type": "uint256"
        },
        {
          "internalType": "uint256",
          "name": "quantity",
          "type": "uint256"
        },
        {
          "internalType": "uint256",
          "name": "price",
          "type": "uint256"
        }
      ],
      "name": "mintTicket",
      "outputs": [],
      "stateMutability": "nonpayable",
      "type": "function"
    },
    {
      "inputs": [
        {
          "internalType": "uint256",
          "name": "tokenId",
          "type": "uint256"
        },
        {
          "internalType": "uint256",
          "name": "price",
          "type": "uint256"
        }
      ],
      "name": "createMarketItem",
      "outputs": [],
      "stateMutability": "payable",
      "type": "function",
      "payable": true
    },
    {
      "inputs": [
        {
          "internalType": "uint256",
          "name": "itemId",
          "type": "uint256"
        }
      ],
      "name": "cancelListing",
      "outputs": [],
      "stateMutability": "payable",
      "type": "function",
      "payable": true
    },
    {
      "inputs": [
        {
          "internalType": "uint256",
          "name": "itemId",
          "type": "uint256"
        }
      ],
      "name": "buyMarketItem",
      "outputs": [],
      "stateMutability": "payable",
      "type": "function",
      "payable": true
    },
    {
      "inputs": [
        {
          "internalType": "uint256",
          "name": "tokenId",
          "type": "uint256"
        }
      ],
      "name": "fetchMarketItem",
      "outputs": [
        {
          "components": [
            {
              "internalType": "uint256",
              "name": "itemId",
              "type": "uint256"
            },
            {
              "internalType": "uint256",
              "name": "tokenId",
              "type": "uint256"
            },
            {
              "internalType": "address payable",
              "name": "seller",
              "type": "address"
            },
            {
              "internalType": "address payable",
              "name": "owner",
              "type": "address"
            },
            {
              "internalType": "uint256",
              "name": "price",
              "type": "uint256"
            },
            {
              "internalType": "bool",
              "name": "sold",
              "type": "bool"
            }
          ],
          "internalType": "struct Event.MarketItem",
          "name": "",
          "type": "tuple"
        }
      ],
      "stateMutability": "view",
      "type": "function",
      "constant": true
    },
    {
      "inputs": [],
      "name": "fetchMarketItems",
      "outputs": [
        {
          "components": [
            {
              "internalType": "uint256",
              "name": "itemId",
              "type": "uint256"
            },
            {
              "internalType": "uint256",
              "name": "tokenId",
              "type": "uint256"
            },
            {
              "internalType": "address payable",
              "name": "seller",
              "type": "address"
            },
            {
              "internalType": "address payable",
              "name": "owner",
              "type": "address"
            },
            {
              "internalType": "uint256",
              "name": "price",
              "type": "uint256"
            },
            {
              "internalType": "bool",
              "name": "sold",
              "type": "bool"
            }
          ],
          "internalType": "struct Event.MarketItem[]",
          "name": "",
          "type": "tuple[]"
        }
      ],
      "stateMutability": "view",
      "type": "function",
      "constant": true
    },
    {
      "inputs": [
        {
          "internalType": "address",
          "name": "account",
          "type": "address"
        }
      ],
      "name": "fetchCreatedEvents",
      "outputs": [
        {
          "components": [
            {
              "internalType": "uint256",
              "name": "tokenId",
              "type": "uint256"
            },
            {
              "internalType": "address payable",
              "name": "owner",
              "type": "address"
            }
          ],
          "internalType": "struct Event.EventItem[]",
          "name": "",
          "type": "tuple[]"
        }
      ],
      "stateMutability": "view",
      "type": "function",
      "constant": true
    },
    {
      "inputs": [
        {
          "internalType": "address",
          "name": "account",
          "type": "address"
        }
      ],
      "name": "fetchOwnedEvents",
      "outputs": [
        {
          "components": [
            {
              "internalType": "uint256",
              "name": "tokenId",
              "type": "uint256"
            },
            {
              "internalType": "address payable",
              "name": "owner",
              "type": "address"
            }
          ],
          "internalType": "struct Event.EventItem[]",
          "name": "",
          "type": "tuple[]"
        }
      ],
      "stateMutability": "view",
      "type": "function",
      "constant": true
    },
    {
      "inputs": [
        {
          "internalType": "address",
          "name": "account",
          "type": "address"
        }
      ],
      "name": "fetchCreatedTickets",
      "outputs": [
        {
          "components": [
            {
              "internalType": "uint256",
              "name": "tokenId",
              "type": "uint256"
            }
          ],
          "internalType": "struct Event.Item[]",
          "name": "",
          "type": "tuple[]"
        }
      ],
      "stateMutability": "view",
      "type": "function",
      "constant": true
    },
    {
      "inputs": [
        {
          "internalType": "address",
          "name": "account",
          "type": "address"
        },
        {
          "internalType": "bool",
          "name": "isCreator",
          "type": "bool"
        }
      ],
      "name": "fetchOwnedTickets",
      "outputs": [
        {
          "components": [
            {
              "internalType": "uint256",
              "name": "tokenId",
              "type": "uint256"
            },
            {
              "internalType": "uint256",
              "name": "eventTokenId",
              "type": "uint256"
            },
            {
              "internalType": "address payable",
              "name": "owner",
              "type": "address"
            },
            {
              "internalType": "uint256",
              "name": "price",
              "type": "uint256"
            },
            {
              "internalType": "bool",
              "name": "list",
              "type": "bool"
            },
            {
              "internalType": "bool",
              "name": "active",
              "type": "bool"
            }
          ],
          "internalType": "struct Event.TicketItem[]",
          "name": "",
          "type": "tuple[]"
        }
      ],
      "stateMutability": "view",
      "type": "function",
      "constant": true
    },
    {
      "inputs": [
        {
          "internalType": "uint256",
          "name": "eventTokenId",
          "type": "uint256"
        }
      ],
      "name": "fetchTicketsInEvent",
      "outputs": [
        {
          "components": [
            {
              "internalType": "uint256",
              "name": "tokenId",
              "type": "uint256"
            }
          ],
          "internalType": "struct Event.Item[]",
          "name": "",
          "type": "tuple[]"
        }
      ],
      "stateMutability": "view",
      "type": "function",
      "constant": true
    },
    {
      "inputs": [
        {
          "internalType": "uint256",
          "name": "tokenId",
          "type": "uint256"
        }
      ],
      "name": "fetchEvent",
      "outputs": [
        {
          "components": [
            {
              "internalType": "uint256",
              "name": "tokenId",
              "type": "uint256"
            },
            {
              "internalType": "address payable",
              "name": "owner",
              "type": "address"
            }
          ],
          "internalType": "struct Event.EventItem",
          "name": "",
          "type": "tuple"
        }
      ],
      "stateMutability": "view",
      "type": "function",
      "constant": true
    },
    {
      "inputs": [
        {
          "internalType": "uint256",
          "name": "tokenId",
          "type": "uint256"
        }
      ],
      "name": "fetchTicket",
      "outputs": [
        {
          "components": [
            {
              "internalType": "uint256",
              "name": "tokenId",
              "type": "uint256"
            },
            {
              "internalType": "uint256",
              "name": "eventTokenId",
              "type": "uint256"
            },
            {
              "internalType": "address payable",
              "name": "owner",
              "type": "address"
            },
            {
              "internalType": "uint256",
              "name": "price",
              "type": "uint256"
            },
            {
              "internalType": "bool",
              "name": "list",
              "type": "bool"
            },
            {
              "internalType": "bool",
              "name": "active",
              "type": "bool"
            }
          ],
          "internalType": "struct Event.TicketItem",
          "name": "",
          "type": "tuple"
        }
      ],
      "stateMutability": "view",
      "type": "function",
      "constant": true
    },
    {
      "inputs": [
        {
          "internalType": "address",
          "name": "",
          "type": "address"
        },
        {
          "internalType": "address",
          "name": "",
          "type": "address"
        },
        {
          "internalType": "uint256",
          "name": "",
          "type": "uint256"
        },
        {
          "internalType": "uint256",
          "name": "",
          "type": "uint256"
        },
        {
          "internalType": "bytes",
          "name": "",
          "type": "bytes"
        }
      ],
      "name": "onERC1155Received",
      "outputs": [
        {
          "internalType": "bytes4",
          "name": "",
          "type": "bytes4"
        }
      ],
      "stateMutability": "nonpayable",
      "type": "function"
    },
    {
      "inputs": [
        {
          "internalType": "address",
          "name": "",
          "type": "address"
        },
        {
          "internalType": "address",
          "name": "",
          "type": "address"
        },
        {
          "internalType": "uint256[]",
          "name": "",
          "type": "uint256[]"
        },
        {
          "internalType": "uint256[]",
          "name": "",
          "type": "uint256[]"
        },
        {
          "internalType": "bytes",
          "name": "",
          "type": "bytes"
        }
      ],
      "name": "onERC1155BatchReceived",
      "outputs": [
        {
          "internalType": "bytes4",
          "name": "",
          "type": "bytes4"
        }
      ],
      "stateMutability": "nonpayable",
      "type": "function"
    },
    {
      "inputs": [
        {
          "internalType": "address",
          "name": "",
          "type": "address"
        },
        {
          "internalType": "address",
          "name": "",
          "type": "address"
        },
        {
          "internalType": "uint256",
          "name": "",
          "type": "uint256"
        },
        {
          "internalType": "bytes",
          "name": "",
          "type": "bytes"
        }
      ],
      "name": "onERC721Received",
      "outputs": [
        {
          "internalType": "bytes4",
          "name": "",
          "type": "bytes4"
        }
      ],
      "stateMutability": "nonpayable",
      "type": "function"
    }
  ],
  "bytecode": "0x60806040523480156200001157600080fd5b506040518060200160405280600081525062000033816200007b60201b60201c565b5033600660006101000a81548173ffffffffffffffffffffffffffffffffffffffff021916908373ffffffffffffffffffffffffffffffffffffffff160217905550620001ac565b80600290805190602001906200009392919062000097565b5050565b828054620000a59062000176565b90600052602060002090601f016020900481019282620000c9576000855562000115565b82601f10620000e457805160ff191683800117855562000115565b8280016001018555821562000115579182015b8281111562000114578251825591602001919060010190620000f7565b5b50905062000124919062000128565b5090565b5b808211156200014357600081600090555060010162000129565b5090565b7f4e487b7100000000000000000000000000000000000000000000000000000000600052602260045260246000fd5b600060028204905060018216806200018f57607f821691505b60208210811415620001a657620001a562000147565b5b50919050565b6155f280620001bc6000396000f3fe6080604052600436106101805760003560e01c80635105d526116100d1578063bc197c811161008a578063f23a6e6111610064578063f23a6e61146105ea578063f242432a14610627578063f6b92b2314610650578063f9d5c5051461068d57610180565b8063bc197c8114610533578063d94646b214610570578063e985e9c5146105ad57610180565b80635105d5261461041557806357f7789e146104525780638c8b5fd61461047b57806397dada91146104b85780639be0b935146104e1578063a22cb4651461050a57610180565b80632a45b2501161013e57806331d909701161011857806331d9097014610363578063351901c3146103a0578063361c1995146103bc5780634e1273f4146103d857610180565b80632a45b250146102e15780632eb2c2d61461031e578063305a67a81461034757610180565b8062fdd58e1461018557806301ffc9a7146101c25780630e89341c146101ff5780630f08efe01461023c578063150b7a021461026757806327a2cf39146102a4575b600080fd5b34801561019157600080fd5b506101ac60048036038101906101a7919061384e565b6106ca565b6040516101b9919061389d565b60405180910390f35b3480156101ce57600080fd5b506101e960048036038101906101e49190613910565b610793565b6040516101f69190613958565b60405180910390f35b34801561020b57600080fd5b5061022660048036038101906102219190613973565b610875565b6040516102339190613a39565b60405180910390f35b34801561024857600080fd5b5061025161091a565b60405161025e9190613bc4565b60405180910390f35b34801561027357600080fd5b5061028e60048036038101906102899190613d1b565b610b45565b60405161029b9190613dad565b60405180910390f35b3480156102b057600080fd5b506102cb60048036038101906102c69190613dc8565b610b59565b6040516102d89190613ed3565b60405180910390f35b3480156102ed57600080fd5b5061030860048036038101906103039190613973565b610dc8565b6040516103159190613f70565b60405180910390f35b34801561032a57600080fd5b5061034560048036038101906103409190614053565b610f51565b005b610361600480360381019061035c9190613973565b610ff2565b005b34801561036f57600080fd5b5061038a60048036038101906103859190613dc8565b6111ad565b6040516103979190613ed3565b60405180910390f35b6103ba60048036038101906103b59190613973565b6112b1565b005b6103d660048036038101906103d19190614122565b6114ea565b005b3480156103e457600080fd5b506103ff60048036038101906103fa9190614225565b611793565b60405161040c919061434c565b60405180910390f35b34801561042157600080fd5b5061043c60048036038101906104379190613973565b6118ac565b60405161044991906143e9565b60405180910390f35b34801561045e57600080fd5b50610479600480360381019061047491906144a5565b611989565b005b34801561048757600080fd5b506104a2600480360381019061049d9190613973565b6119b5565b6040516104af9190614530565b60405180910390f35b3480156104c457600080fd5b506104df60048036038101906104da919061454b565b611a48565b005b3480156104ed57600080fd5b50610508600480360381019061050391906145ce565b611c0d565b005b34801561051657600080fd5b50610531600480360381019061052c9190614643565b611dcf565b005b34801561053f57600080fd5b5061055a60048036038101906105559190614053565b611de5565b6040516105679190613dad565b60405180910390f35b34801561057c57600080fd5b5061059760048036038101906105929190614643565b611dfa565b6040516105a491906147ad565b60405180910390f35b3480156105b957600080fd5b506105d460048036038101906105cf91906147cf565b61242e565b6040516105e19190613958565b60405180910390f35b3480156105f657600080fd5b50610611600480360381019061060c919061480f565b6124c2565b60405161061e9190613dad565b60405180910390f35b34801561063357600080fd5b5061064e6004803603810190610649919061480f565b6124d7565b005b34801561065c57600080fd5b5061067760048036038101906106729190613dc8565b612578565b6040516106849190614971565b60405180910390f35b34801561069957600080fd5b506106b460048036038101906106af9190613973565b61281a565b6040516106c19190614971565b60405180910390f35b60008073ffffffffffffffffffffffffffffffffffffffff168373ffffffffffffffffffffffffffffffffffffffff16141561073b576040517f08c379a000000000000000000000000000000000000000000000000000000000815260040161073290614a05565b60405180910390fd5b60008083815260200190815260200160002060008473ffffffffffffffffffffffffffffffffffffffff1673ffffffffffffffffffffffffffffffffffffffff16815260200190815260200160002054905092915050565b60007fd9b67a26000000000000000000000000000000000000000000000000000000007bffffffffffffffffffffffffffffffffffffffffffffffffffffffff1916827bffffffffffffffffffffffffffffffffffffffffffffffffffffffff1916148061085e57507f0e89341c000000000000000000000000000000000000000000000000000000007bffffffffffffffffffffffffffffffffffffffffffffffffffffffff1916827bffffffffffffffffffffffffffffffffffffffffffffffffffffffff1916145b8061086e575061086d82612898565b5b9050919050565b606060076000838152602001908152602001600020805461089590614a54565b80601f01602080910402602001604051908101604052809291908181526020018280546108c190614a54565b801561090e5780601f106108e35761010080835404028352916020019161090e565b820191906000526020600020905b8154815290600101906020018083116108f157829003601f168201915b50505050509050919050565b606060006109286004612902565b905060006109366005612902565b6109406004612902565b61094a9190614ab5565b90506000808267ffffffffffffffff81111561096957610968613bf0565b5b6040519080825280602002602001820160405280156109a257816020015b61098f61360c565b8152602001906001900390816109875790505b50905060005b84811015610b3a57600b60006001836109c19190614ae9565b815260200190815260200160002060050160009054906101000a900460ff16610b27576000600b60006001846109f79190614ae9565b81526020019081526020016000209050806040518060c001604052908160008201548152602001600182015481526020016002820160009054906101000a900473ffffffffffffffffffffffffffffffffffffffff1673ffffffffffffffffffffffffffffffffffffffff1673ffffffffffffffffffffffffffffffffffffffff1681526020016003820160009054906101000a900473ffffffffffffffffffffffffffffffffffffffff1673ffffffffffffffffffffffffffffffffffffffff1673ffffffffffffffffffffffffffffffffffffffff168152602001600482015481526020016005820160009054906101000a900460ff161515151581525050838581518110610b0b57610b0a614b3f565b5b6020026020010181905250600184610b239190614ae9565b9350505b8080610b3290614b6e565b9150506109a8565b508094505050505090565b600063150b7a0260e01b9050949350505050565b60606000610b676003612902565b905060008060005b83811015610c10578573ffffffffffffffffffffffffffffffffffffffff1660086000600184610b9f9190614ae9565b815260200190815260200160002060010160009054906101000a900473ffffffffffffffffffffffffffffffffffffffff1673ffffffffffffffffffffffffffffffffffffffff161415610bfd57600183610bfa9190614ae9565b92505b8080610c0890614b6e565b915050610b6f565b5060008267ffffffffffffffff811115610c2d57610c2c613bf0565b5b604051908082528060200260200182016040528015610c6657816020015b610c53613670565b815260200190600190039081610c4b5790505b50905060005b84811015610dbb578673ffffffffffffffffffffffffffffffffffffffff1660086000600184610c9c9190614ae9565b815260200190815260200160002060010160009054906101000a900473ffffffffffffffffffffffffffffffffffffffff1673ffffffffffffffffffffffffffffffffffffffff161415610da857600060086000600184610cfd9190614ae9565b8152602001908152602001600020905080604051806040016040529081600082015481526020016001820160009054906101000a900473ffffffffffffffffffffffffffffffffffffffff1673ffffffffffffffffffffffffffffffffffffffff1673ffffffffffffffffffffffffffffffffffffffff1681525050838581518110610d8c57610d8b614b3f565b5b6020026020010181905250600184610da49190614ae9565b9350505b8080610db390614b6e565b915050610c6c565b5080945050505050919050565b610dd061360c565b6000610ddc6004612902565b9050610de661360c565b60005b82811015610f465784600b6000600184610e039190614ae9565b8152602001908152602001600020600101541415610f33576000600182610e2a9190614ae9565b9050600b60008281526020019081526020016000206040518060c001604052908160008201548152602001600182015481526020016002820160009054906101000a900473ffffffffffffffffffffffffffffffffffffffff1673ffffffffffffffffffffffffffffffffffffffff1673ffffffffffffffffffffffffffffffffffffffff1681526020016003820160009054906101000a900473ffffffffffffffffffffffffffffffffffffffff1673ffffffffffffffffffffffffffffffffffffffff1673ffffffffffffffffffffffffffffffffffffffff168152602001600482015481526020016005820160009054906101000a900460ff1615151515815250509250505b8080610f3e90614b6e565b915050610de9565b508092505050919050565b610f59612910565b73ffffffffffffffffffffffffffffffffffffffff168573ffffffffffffffffffffffffffffffffffffffff161480610f9f5750610f9e85610f99612910565b61242e565b5b610fde576040517f08c379a0000000000000000000000000000000000000000000000000000000008152600401610fd590614c29565b60405180910390fd5b610feb8585858585612918565b5050505050565b600b600082815260200190815260200160002060030160009054906101000a900473ffffffffffffffffffffffffffffffffffffffff1673ffffffffffffffffffffffffffffffffffffffff163373ffffffffffffffffffffffffffffffffffffffff1614611096576040517f08c379a000000000000000000000000000000000000000000000000000000000815260040161108d90614cbb565b60405180910390fd5b6000600b60008381526020019081526020016000206001015490506000600960008381526020019081526020016000206003018190555060006009600083815260200190815260200160002060040160006101000a81548160ff021916908315150217905550600b600083815260200190815260200160002060008082016000905560018201600090556002820160006101000a81549073ffffffffffffffffffffffffffffffffffffffff02191690556003820160006101000a81549073ffffffffffffffffffffffffffffffffffffffff021916905560048201600090556005820160006101000a81549060ff021916905550506111a9303383600160405180602001604052806000815250612c2c565b5050565b60606000600c60008473ffffffffffffffffffffffffffffffffffffffff1673ffffffffffffffffffffffffffffffffffffffff168152602001908152602001600020805480602002602001604051908101604052809291908181526020016000905b828210156112a25783829060005260206000209060020201604051806040016040529081600082015481526020016001820160009054906101000a900473ffffffffffffffffffffffffffffffffffffffff1673ffffffffffffffffffffffffffffffffffffffff1673ffffffffffffffffffffffffffffffffffffffff168152505081526020019060010190611210565b50505050905080915050919050565b6000600b60008381526020019081526020016000206004015490506000600b60008481526020019081526020016000206001015490506402540be400826112f89190614cdb565b3414611339576040517f08c379a000000000000000000000000000000000000000000000000000000000815260040161133090614d81565b60405180910390fd5b600b600084815260200190815260200160002060020160009054906101000a900473ffffffffffffffffffffffffffffffffffffffff1673ffffffffffffffffffffffffffffffffffffffff166108fc349081150290604051600060405180830381858888f193505050501580156113b5573d6000803e3d6000fd5b5033600b600085815260200190815260200160002060030160006101000a81548173ffffffffffffffffffffffffffffffffffffffff021916908373ffffffffffffffffffffffffffffffffffffffff1602179055506001600b600085815260200190815260200160002060050160006101000a81548160ff021916908315150217905550336009600083815260200190815260200160002060020160006101000a81548173ffffffffffffffffffffffffffffffffffffffff021916908373ffffffffffffffffffffffffffffffffffffffff16021790555060006009600083815260200190815260200160002060040160006101000a81548160ff0219169083151502179055506114c86005612eae565b6114e5303383600160405180602001604052806000815250612c2c565b505050565b6009600083815260200190815260200160002060020160009054906101000a900473ffffffffffffffffffffffffffffffffffffffff1673ffffffffffffffffffffffffffffffffffffffff163373ffffffffffffffffffffffffffffffffffffffff161461158e576040517f08c379a000000000000000000000000000000000000000000000000000000000815260040161158590614cbb565b60405180910390fd5b600081116115d1576040517f08c379a00000000000000000000000000000000000000000000000000000000081526004016115c890614ded565b60405180910390fd5b6115db6004612eae565b60006115e76004612902565b90506040518060c001604052808281526020018481526020013373ffffffffffffffffffffffffffffffffffffffff1681526020013373ffffffffffffffffffffffffffffffffffffffff16815260200183815260200160001515815250600b6000838152602001908152602001600020600082015181600001556020820151816001015560408201518160020160006101000a81548173ffffffffffffffffffffffffffffffffffffffff021916908373ffffffffffffffffffffffffffffffffffffffff16021790555060608201518160030160006101000a81548173ffffffffffffffffffffffffffffffffffffffff021916908373ffffffffffffffffffffffffffffffffffffffff1602179055506080820151816004015560a08201518160050160006101000a81548160ff02191690831515021790555090505081600960008581526020019081526020016000206003018190555060016009600085815260200190815260200160002060040160006101000a81548160ff02191690831515021790555061178e3330856001604051806020016040528060008152506124d7565b505050565b606081518351146117d9576040517f08c379a00000000000000000000000000000000000000000000000000000000081526004016117d090614e7f565b60405180910390fd5b6000835167ffffffffffffffff8111156117f6576117f5613bf0565b5b6040519080825280602002602001820160405280156118245781602001602082028036833780820191505090505b50905060005b84518110156118a15761187185828151811061184957611848614b3f565b5b602002602001015185838151811061186457611863614b3f565b5b60200260200101516106ca565b82828151811061188457611883614b3f565b5b6020026020010181815250508061189a90614b6e565b905061182a565b508091505092915050565b6118b46136a0565b6000600960008481526020019081526020016000206040518060c001604052908160008201548152602001600182015481526020016002820160009054906101000a900473ffffffffffffffffffffffffffffffffffffffff1673ffffffffffffffffffffffffffffffffffffffff1673ffffffffffffffffffffffffffffffffffffffff168152602001600382015481526020016004820160009054906101000a900460ff161515151581526020016004820160019054906101000a900460ff161515151581525050905080915050919050565b806007600084815260200190815260200160002090805190602001906119b09291906136f0565b505050565b6119bd613670565b600060086000848152602001908152602001600020604051806040016040529081600082015481526020016001820160009054906101000a900473ffffffffffffffffffffffffffffffffffffffff1673ffffffffffffffffffffffffffffffffffffffff1673ffffffffffffffffffffffffffffffffffffffff1681525050905080915050919050565b60005b82811015611c0657611a5d6003612eae565b6000611a696003612902565b9050611a873382600160405180602001604052806000815250612ec4565b611a918187611989565b6040518060c001604052808281526020018681526020013373ffffffffffffffffffffffffffffffffffffffff1681526020018481526020016000151581526020016001151581525060096000838152602001908152602001600020600082015181600001556020820151816001015560408201518160020160006101000a81548173ffffffffffffffffffffffffffffffffffffffff021916908373ffffffffffffffffffffffffffffffffffffffff1602179055506060820151816003015560808201518160040160006101000a81548160ff02191690831515021790555060a08201518160040160016101000a81548160ff021916908315150217905550905050600a600086815260200190815260200160002060405180602001604052808381525090806001815401808255809150506001900390600052602060002001600090919091909150600082015181600001555050611bf281846114ea565b508080611bfe90614b6e565b915050611a4b565b5050505050565b611c176003612eae565b6000611c236003612902565b9050611c413382600160405180602001604052806000815250612ec4565b611c4b8183611989565b60405180604001604052808281526020013373ffffffffffffffffffffffffffffffffffffffff16815250600860008381526020019081526020016000206000820151816000015560208201518160010160006101000a81548173ffffffffffffffffffffffffffffffffffffffff021916908373ffffffffffffffffffffffffffffffffffffffff160217905550905050600c60003373ffffffffffffffffffffffffffffffffffffffff1673ffffffffffffffffffffffffffffffffffffffff168152602001908152602001600020600860008381526020019081526020016000209080600181540180825580915050600190039060005260206000209060020201600090919091909150600082015481600001556001820160009054906101000a900473ffffffffffffffffffffffffffffffffffffffff168160010160006101000a81548173ffffffffffffffffffffffffffffffffffffffff021916908373ffffffffffffffffffffffffffffffffffffffff16021790555050505050565b611de1611dda612910565b838361305a565b5050565b600063bc197c8160e01b905095945050505050565b60606000611e086003612902565b90506000808415611ebd5760005b83811015611eb7578673ffffffffffffffffffffffffffffffffffffffff1660096000600184611e469190614ae9565b815260200190815260200160002060020160009054906101000a900473ffffffffffffffffffffffffffffffffffffffff1673ffffffffffffffffffffffffffffffffffffffff161415611ea457600183611ea19190614ae9565b92505b8080611eaf90614b6e565b915050611e16565b50611ff3565b60005b83811015611ff1578673ffffffffffffffffffffffffffffffffffffffff166008600060096000600186611ef49190614ae9565b815260200190815260200160002060010154815260200190815260200160002060010160009054906101000a900473ffffffffffffffffffffffffffffffffffffffff1673ffffffffffffffffffffffffffffffffffffffff1614158015611fc957508673ffffffffffffffffffffffffffffffffffffffff1660096000600184611f7f9190614ae9565b815260200190815260200160002060020160009054906101000a900473ffffffffffffffffffffffffffffffffffffffff1673ffffffffffffffffffffffffffffffffffffffff16145b15611fde57600183611fdb9190614ae9565b92505b8080611fe990614b6e565b915050611ec0565b505b60008267ffffffffffffffff81111561200f5761200e613bf0565b5b60405190808252806020026020018201604052801561204857816020015b6120356136a0565b81526020019060019003908161202d5790505b50905085156121f35760005b848110156121ed578773ffffffffffffffffffffffffffffffffffffffff16600960006001846120849190614ae9565b815260200190815260200160002060020160009054906101000a900473ffffffffffffffffffffffffffffffffffffffff1673ffffffffffffffffffffffffffffffffffffffff1614156121da576000600960006001846120e59190614ae9565b81526020019081526020016000209050806040518060c001604052908160008201548152602001600182015481526020016002820160009054906101000a900473ffffffffffffffffffffffffffffffffffffffff1673ffffffffffffffffffffffffffffffffffffffff1673ffffffffffffffffffffffffffffffffffffffff168152602001600382015481526020016004820160009054906101000a900460ff161515151581526020016004820160019054906101000a900460ff1615151515815250508385815181106121be576121bd614b3f565b5b60200260200101819052506001846121d69190614ae9565b9350505b80806121e590614b6e565b915050612054565b50612421565b60005b8481101561241f578773ffffffffffffffffffffffffffffffffffffffff16600860006009600060018661222a9190614ae9565b815260200190815260200160002060010154815260200190815260200160002060010160009054906101000a900473ffffffffffffffffffffffffffffffffffffffff1673ffffffffffffffffffffffffffffffffffffffff16141580156122ff57508773ffffffffffffffffffffffffffffffffffffffff16600960006001846122b59190614ae9565b815260200190815260200160002060020160009054906101000a900473ffffffffffffffffffffffffffffffffffffffff1673ffffffffffffffffffffffffffffffffffffffff16145b1561240c576000600960006001846123179190614ae9565b81526020019081526020016000209050806040518060c001604052908160008201548152602001600182015481526020016002820160009054906101000a900473ffffffffffffffffffffffffffffffffffffffff1673ffffffffffffffffffffffffffffffffffffffff1673ffffffffffffffffffffffffffffffffffffffff168152602001600382015481526020016004820160009054906101000a900460ff161515151581526020016004820160019054906101000a900460ff1615151515815250508385815181106123f0576123ef614b3f565b5b60200260200101819052506001846124089190614ae9565b9350505b808061241790614b6e565b9150506121f6565b505b8094505050505092915050565b6000600160008473ffffffffffffffffffffffffffffffffffffffff1673ffffffffffffffffffffffffffffffffffffffff16815260200190815260200160002060008373ffffffffffffffffffffffffffffffffffffffff1673ffffffffffffffffffffffffffffffffffffffff16815260200190815260200160002060009054906101000a900460ff16905092915050565b600063f23a6e6160e01b905095945050505050565b6124df612910565b73ffffffffffffffffffffffffffffffffffffffff168573ffffffffffffffffffffffffffffffffffffffff16148061252557506125248561251f612910565b61242e565b5b612564576040517f08c379a000000000000000000000000000000000000000000000000000000000815260040161255b90614f11565b60405180910390fd5b6125718585858585612c2c565b5050505050565b60606000806000600c60008673ffffffffffffffffffffffffffffffffffffffff1673ffffffffffffffffffffffffffffffffffffffff168152602001908152602001600020805480602002602001604051908101604052809291908181526020016000905b828210156126705783829060005260206000209060020201604051806040016040529081600082015481526020016001820160009054906101000a900473ffffffffffffffffffffffffffffffffffffffff1673ffffffffffffffffffffffffffffffffffffffff1673ffffffffffffffffffffffffffffffffffffffff1681525050815260200190600101906125de565b50505050905060005b81518110156126dd576000600a600084848151811061269b5761269a614b3f565b5b602002602001015160000151815260200190815260200160002080549050905080856126c79190614ae9565b94505080806126d590614b6e565b915050612679565b5060008367ffffffffffffffff8111156126fa576126f9613bf0565b5b60405190808252806020026020018201604052801561273357816020015b612720613776565b8152602001906001900390816127185790505b50905060005b825181101561280d576000600a600085848151811061275b5761275a614b3f565b5b6020026020010151600001518152602001908152602001600020905060005b81805490508110156127f85781818154811061279957612798614b3f565b5b906000526020600020016040518060200160405290816000820154815250508487815181106127cb576127ca614b3f565b5b60200260200101819052506001866127e39190614ae9565b955080806127f090614b6e565b91505061277a565b5050808061280590614b6e565b915050612739565b5080945050505050919050565b60606000600a6000848152602001908152602001600020805480602002602001604051908101604052809291908181526020016000905b828210156128895783829060005260206000200160405180602001604052908160008201548152505081526020019060010190612851565b50505050905080915050919050565b60007f01ffc9a7000000000000000000000000000000000000000000000000000000007bffffffffffffffffffffffffffffffffffffffffffffffffffffffff1916827bffffffffffffffffffffffffffffffffffffffffffffffffffffffff1916149050919050565b600081600001549050919050565b600033905090565b815183511461295c576040517f08c379a000000000000000000000000000000000000000000000000000000000815260040161295390614fa3565b60405180910390fd5b600073ffffffffffffffffffffffffffffffffffffffff168473ffffffffffffffffffffffffffffffffffffffff1614156129cc576040517f08c379a00000000000000000000000000000000000000000000000000000000081526004016129c390615035565b60405180910390fd5b60006129d6612910565b90506129e68187878787876131c7565b60005b8451811015612b97576000858281518110612a0757612a06614b3f565b5b602002602001015190506000858381518110612a2657612a25614b3f565b5b60200260200101519050600080600084815260200190815260200160002060008b73ffffffffffffffffffffffffffffffffffffffff1673ffffffffffffffffffffffffffffffffffffffff16815260200190815260200160002054905081811015612ac7576040517f08c379a0000000000000000000000000000000000000000000000000000000008152600401612abe906150c7565b60405180910390fd5b81810360008085815260200190815260200160002060008c73ffffffffffffffffffffffffffffffffffffffff1673ffffffffffffffffffffffffffffffffffffffff168152602001908152602001600020819055508160008085815260200190815260200160002060008b73ffffffffffffffffffffffffffffffffffffffff1673ffffffffffffffffffffffffffffffffffffffff1681526020019081526020016000206000828254612b7c9190614ae9565b9250508190555050505080612b9090614b6e565b90506129e9565b508473ffffffffffffffffffffffffffffffffffffffff168673ffffffffffffffffffffffffffffffffffffffff168273ffffffffffffffffffffffffffffffffffffffff167f4a39dc06d4c0dbc64b70af90fd698a233a518aa5d07e595d983b8c0526c8f7fb8787604051612c0e9291906150e7565b60405180910390a4612c248187878787876131cf565b505050505050565b600073ffffffffffffffffffffffffffffffffffffffff168473ffffffffffffffffffffffffffffffffffffffff161415612c9c576040517f08c379a0000000000000000000000000000000000000000000000000000000008152600401612c9390615035565b60405180910390fd5b6000612ca6612910565b9050612cc6818787612cb7886133a7565b612cc0886133a7565b876131c7565b600080600086815260200190815260200160002060008873ffffffffffffffffffffffffffffffffffffffff1673ffffffffffffffffffffffffffffffffffffffff16815260200190815260200160002054905083811015612d5d576040517f08c379a0000000000000000000000000000000000000000000000000000000008152600401612d54906150c7565b60405180910390fd5b83810360008087815260200190815260200160002060008973ffffffffffffffffffffffffffffffffffffffff1673ffffffffffffffffffffffffffffffffffffffff168152602001908152602001600020819055508360008087815260200190815260200160002060008873ffffffffffffffffffffffffffffffffffffffff1673ffffffffffffffffffffffffffffffffffffffff1681526020019081526020016000206000828254612e129190614ae9565b925050819055508573ffffffffffffffffffffffffffffffffffffffff168773ffffffffffffffffffffffffffffffffffffffff168373ffffffffffffffffffffffffffffffffffffffff167fc3d58168c5ae7397731d063d5bbf3d657854427343f4c083240f7aacaa2d0f628888604051612e8f92919061511e565b60405180910390a4612ea5828888888888613421565b50505050505050565b6001816000016000828254019250508190555050565b600073ffffffffffffffffffffffffffffffffffffffff168473ffffffffffffffffffffffffffffffffffffffff161415612f34576040517f08c379a0000000000000000000000000000000000000000000000000000000008152600401612f2b906151b9565b60405180910390fd5b6000612f3e612910565b9050612f5f81600087612f50886133a7565b612f59886133a7565b876131c7565b8260008086815260200190815260200160002060008773ffffffffffffffffffffffffffffffffffffffff1673ffffffffffffffffffffffffffffffffffffffff1681526020019081526020016000206000828254612fbe9190614ae9565b925050819055508473ffffffffffffffffffffffffffffffffffffffff16600073ffffffffffffffffffffffffffffffffffffffff168273ffffffffffffffffffffffffffffffffffffffff167fc3d58168c5ae7397731d063d5bbf3d657854427343f4c083240f7aacaa2d0f62878760405161303c92919061511e565b60405180910390a461305381600087878787613421565b5050505050565b8173ffffffffffffffffffffffffffffffffffffffff168373ffffffffffffffffffffffffffffffffffffffff1614156130c9576040517f08c379a00000000000000000000000000000000000000000000000000000000081526004016130c09061524b565b60405180910390fd5b80600160008573ffffffffffffffffffffffffffffffffffffffff1673ffffffffffffffffffffffffffffffffffffffff16815260200190815260200160002060008473ffffffffffffffffffffffffffffffffffffffff1673ffffffffffffffffffffffffffffffffffffffff16815260200190815260200160002060006101000a81548160ff0219169083151502179055508173ffffffffffffffffffffffffffffffffffffffff168373ffffffffffffffffffffffffffffffffffffffff167f17307eab39ab6107e8899845ad3d59bd9653f200f220920489ca2b5937696c31836040516131ba9190613958565b60405180910390a3505050565b505050505050565b6131ee8473ffffffffffffffffffffffffffffffffffffffff166135f9565b1561339f578373ffffffffffffffffffffffffffffffffffffffff1663bc197c8187878686866040518663ffffffff1660e01b81526004016132349594939291906152cf565b6020604051808303816000875af192505050801561327057506040513d601f19601f8201168201806040525081019061326d919061534c565b60015b6133165761327c615386565b806308c379a014156132d957506132916153a8565b8061329c57506132db565b806040517f08c379a00000000000000000000000000000000000000000000000000000000081526004016132d09190613a39565b60405180910390fd5b505b6040517f08c379a000000000000000000000000000000000000000000000000000000000815260040161330d906154b0565b60405180910390fd5b63bc197c8160e01b7bffffffffffffffffffffffffffffffffffffffffffffffffffffffff1916817bffffffffffffffffffffffffffffffffffffffffffffffffffffffff19161461339d576040517f08c379a000000000000000000000000000000000000000000000000000000000815260040161339490615542565b60405180910390fd5b505b505050505050565b60606000600167ffffffffffffffff8111156133c6576133c5613bf0565b5b6040519080825280602002602001820160405280156133f45781602001602082028036833780820191505090505b509050828160008151811061340c5761340b614b3f565b5b60200260200101818152505080915050919050565b6134408473ffffffffffffffffffffffffffffffffffffffff166135f9565b156135f1578373ffffffffffffffffffffffffffffffffffffffff1663f23a6e6187878686866040518663ffffffff1660e01b8152600401613486959493929190615562565b6020604051808303816000875af19250505080156134c257506040513d601f19601f820116820180604052508101906134bf919061534c565b60015b613568576134ce615386565b806308c379a0141561352b57506134e36153a8565b806134ee575061352d565b806040517f08c379a00000000000000000000000000000000000000000000000000000000081526004016135229190613a39565b60405180910390fd5b505b6040517f08c379a000000000000000000000000000000000000000000000000000000000815260040161355f906154b0565b60405180910390fd5b63f23a6e6160e01b7bffffffffffffffffffffffffffffffffffffffffffffffffffffffff1916817bffffffffffffffffffffffffffffffffffffffffffffffffffffffff1916146135ef576040517f08c379a00000000000000000000000000000000000000000000000000000000081526004016135e690615542565b60405180910390fd5b505b505050505050565b600080823b905060008111915050919050565b6040518060c001604052806000815260200160008152602001600073ffffffffffffffffffffffffffffffffffffffff168152602001600073ffffffffffffffffffffffffffffffffffffffff168152602001600081526020016000151581525090565b604051806040016040528060008152602001600073ffffffffffffffffffffffffffffffffffffffff1681525090565b6040518060c001604052806000815260200160008152602001600073ffffffffffffffffffffffffffffffffffffffff168152602001600081526020016000151581526020016000151581525090565b8280546136fc90614a54565b90600052602060002090601f01602090048101928261371e5760008555613765565b82601f1061373757805160ff1916838001178555613765565b82800160010185558215613765579182015b82811115613764578251825591602001919060010190613749565b5b5090506137729190613789565b5090565b6040518060200160405280600081525090565b5b808211156137a257600081600090555060010161378a565b5090565b6000604051905090565b600080fd5b600080fd5b600073ffffffffffffffffffffffffffffffffffffffff82169050919050565b60006137e5826137ba565b9050919050565b6137f5816137da565b811461380057600080fd5b50565b600081359050613812816137ec565b92915050565b6000819050919050565b61382b81613818565b811461383657600080fd5b50565b60008135905061384881613822565b92915050565b60008060408385031215613865576138646137b0565b5b600061387385828601613803565b925050602061388485828601613839565b9150509250929050565b61389781613818565b82525050565b60006020820190506138b2600083018461388e565b92915050565b60007fffffffff0000000000000000000000000000000000000000000000000000000082169050919050565b6138ed816138b8565b81146138f857600080fd5b50565b60008135905061390a816138e4565b92915050565b600060208284031215613926576139256137b0565b5b6000613934848285016138fb565b91505092915050565b60008115159050919050565b6139528161393d565b82525050565b600060208201905061396d6000830184613949565b92915050565b600060208284031215613989576139886137b0565b5b600061399784828501613839565b91505092915050565b600081519050919050565b600082825260208201905092915050565b60005b838110156139da5780820151818401526020810190506139bf565b838111156139e9576000848401525b50505050565b6000601f19601f8301169050919050565b6000613a0b826139a0565b613a1581856139ab565b9350613a258185602086016139bc565b613a2e816139ef565b840191505092915050565b60006020820190508181036000830152613a538184613a00565b905092915050565b600081519050919050565b600082825260208201905092915050565b6000819050602082019050919050565b613a9081613818565b82525050565b6000613aa1826137ba565b9050919050565b613ab181613a96565b82525050565b613ac08161393d565b82525050565b60c082016000820151613adc6000850182613a87565b506020820151613aef6020850182613a87565b506040820151613b026040850182613aa8565b506060820151613b156060850182613aa8565b506080820151613b286080850182613a87565b5060a0820151613b3b60a0850182613ab7565b50505050565b6000613b4d8383613ac6565b60c08301905092915050565b6000602082019050919050565b6000613b7182613a5b565b613b7b8185613a66565b9350613b8683613a77565b8060005b83811015613bb7578151613b9e8882613b41565b9750613ba983613b59565b925050600181019050613b8a565b5085935050505092915050565b60006020820190508181036000830152613bde8184613b66565b905092915050565b600080fd5b600080fd5b7f4e487b7100000000000000000000000000000000000000000000000000000000600052604160045260246000fd5b613c28826139ef565b810181811067ffffffffffffffff82111715613c4757613c46613bf0565b5b80604052505050565b6000613c5a6137a6565b9050613c668282613c1f565b919050565b600067ffffffffffffffff821115613c8657613c85613bf0565b5b613c8f826139ef565b9050602081019050919050565b82818337600083830152505050565b6000613cbe613cb984613c6b565b613c50565b905082815260208101848484011115613cda57613cd9613beb565b5b613ce5848285613c9c565b509392505050565b600082601f830112613d0257613d01613be6565b5b8135613d12848260208601613cab565b91505092915050565b60008060008060808587031215613d3557613d346137b0565b5b6000613d4387828801613803565b9450506020613d5487828801613803565b9350506040613d6587828801613839565b925050606085013567ffffffffffffffff811115613d8657613d856137b5565b5b613d9287828801613ced565b91505092959194509250565b613da7816138b8565b82525050565b6000602082019050613dc26000830184613d9e565b92915050565b600060208284031215613dde57613ddd6137b0565b5b6000613dec84828501613803565b91505092915050565b600081519050919050565b600082825260208201905092915050565b6000819050602082019050919050565b604082016000820151613e376000850182613a87565b506020820151613e4a6020850182613aa8565b50505050565b6000613e5c8383613e21565b60408301905092915050565b6000602082019050919050565b6000613e8082613df5565b613e8a8185613e00565b9350613e9583613e11565b8060005b83811015613ec6578151613ead8882613e50565b9750613eb883613e68565b925050600181019050613e99565b5085935050505092915050565b60006020820190508181036000830152613eed8184613e75565b905092915050565b60c082016000820151613f0b6000850182613a87565b506020820151613f1e6020850182613a87565b506040820151613f316040850182613aa8565b506060820151613f446060850182613aa8565b506080820151613f576080850182613a87565b5060a0820151613f6a60a0850182613ab7565b50505050565b600060c082019050613f856000830184613ef5565b92915050565b600067ffffffffffffffff821115613fa657613fa5613bf0565b5b602082029050602081019050919050565b600080fd5b6000613fcf613fca84613f8b565b613c50565b90508083825260208201905060208402830185811115613ff257613ff1613fb7565b5b835b8181101561401b57806140078882613839565b845260208401935050602081019050613ff4565b5050509392505050565b600082601f83011261403a57614039613be6565b5b813561404a848260208601613fbc565b91505092915050565b600080600080600060a0868803121561406f5761406e6137b0565b5b600061407d88828901613803565b955050602061408e88828901613803565b945050604086013567ffffffffffffffff8111156140af576140ae6137b5565b5b6140bb88828901614025565b935050606086013567ffffffffffffffff8111156140dc576140db6137b5565b5b6140e888828901614025565b925050608086013567ffffffffffffffff811115614109576141086137b5565b5b61411588828901613ced565b9150509295509295909350565b60008060408385031215614139576141386137b0565b5b600061414785828601613839565b925050602061415885828601613839565b9150509250929050565b600067ffffffffffffffff82111561417d5761417c613bf0565b5b602082029050602081019050919050565b60006141a161419c84614162565b613c50565b905080838252602082019050602084028301858111156141c4576141c3613fb7565b5b835b818110156141ed57806141d98882613803565b8452602084019350506020810190506141c6565b5050509392505050565b600082601f83011261420c5761420b613be6565b5b813561421c84826020860161418e565b91505092915050565b6000806040838503121561423c5761423b6137b0565b5b600083013567ffffffffffffffff81111561425a576142596137b5565b5b614266858286016141f7565b925050602083013567ffffffffffffffff811115614287576142866137b5565b5b61429385828601614025565b9150509250929050565b600081519050919050565b600082825260208201905092915050565b6000819050602082019050919050565b60006142d58383613a87565b60208301905092915050565b6000602082019050919050565b60006142f98261429d565b61430381856142a8565b935061430e836142b9565b8060005b8381101561433f57815161432688826142c9565b9750614331836142e1565b925050600181019050614312565b5085935050505092915050565b6000602082019050818103600083015261436681846142ee565b905092915050565b60c0820160008201516143846000850182613a87565b5060208201516143976020850182613a87565b5060408201516143aa6040850182613aa8565b5060608201516143bd6060850182613a87565b5060808201516143d06080850182613ab7565b5060a08201516143e360a0850182613ab7565b50505050565b600060c0820190506143fe600083018461436e565b92915050565b600067ffffffffffffffff82111561441f5761441e613bf0565b5b614428826139ef565b9050602081019050919050565b600061444861444384614404565b613c50565b90508281526020810184848401111561446457614463613beb565b5b61446f848285613c9c565b509392505050565b600082601f83011261448c5761448b613be6565b5b813561449c848260208601614435565b91505092915050565b600080604083850312156144bc576144bb6137b0565b5b60006144ca85828601613839565b925050602083013567ffffffffffffffff8111156144eb576144ea6137b5565b5b6144f785828601614477565b9150509250929050565b6040820160008201516145176000850182613a87565b50602082015161452a6020850182613aa8565b50505050565b60006040820190506145456000830184614501565b92915050565b60008060008060808587031215614565576145646137b0565b5b600085013567ffffffffffffffff811115614583576145826137b5565b5b61458f87828801614477565b94505060206145a087828801613839565b93505060406145b187828801613839565b92505060606145c287828801613839565b91505092959194509250565b6000602082840312156145e4576145e36137b0565b5b600082013567ffffffffffffffff811115614602576146016137b5565b5b61460e84828501614477565b91505092915050565b6146208161393d565b811461462b57600080fd5b50565b60008135905061463d81614617565b92915050565b6000806040838503121561465a576146596137b0565b5b600061466885828601613803565b92505060206146798582860161462e565b9150509250929050565b600081519050919050565b600082825260208201905092915050565b6000819050602082019050919050565b60c0820160008201516146c56000850182613a87565b5060208201516146d86020850182613a87565b5060408201516146eb6040850182613aa8565b5060608201516146fe6060850182613a87565b5060808201516147116080850182613ab7565b5060a082015161472460a0850182613ab7565b50505050565b600061473683836146af565b60c08301905092915050565b6000602082019050919050565b600061475a82614683565b614764818561468e565b935061476f8361469f565b8060005b838110156147a0578151614787888261472a565b975061479283614742565b925050600181019050614773565b5085935050505092915050565b600060208201905081810360008301526147c7818461474f565b905092915050565b600080604083850312156147e6576147e56137b0565b5b60006147f485828601613803565b925050602061480585828601613803565b9150509250929050565b600080600080600060a0868803121561482b5761482a6137b0565b5b600061483988828901613803565b955050602061484a88828901613803565b945050604061485b88828901613839565b935050606061486c88828901613839565b925050608086013567ffffffffffffffff81111561488d5761488c6137b5565b5b61489988828901613ced565b9150509295509295909350565b600081519050919050565b600082825260208201905092915050565b6000819050602082019050919050565b6020820160008201516148e86000850182613a87565b50505050565b60006148fa83836148d2565b60208301905092915050565b6000602082019050919050565b600061491e826148a6565b61492881856148b1565b9350614933836148c2565b8060005b8381101561496457815161494b88826148ee565b975061495683614906565b925050600181019050614937565b5085935050505092915050565b6000602082019050818103600083015261498b8184614913565b905092915050565b7f455243313135353a2062616c616e636520717565727920666f7220746865207a60008201527f65726f2061646472657373000000000000000000000000000000000000000000602082015250565b60006149ef602b836139ab565b91506149fa82614993565b604082019050919050565b60006020820190508181036000830152614a1e816149e2565b9050919050565b7f4e487b7100000000000000000000000000000000000000000000000000000000600052602260045260246000fd5b60006002820490506001821680614a6c57607f821691505b60208210811415614a8057614a7f614a25565b5b50919050565b7f4e487b7100000000000000000000000000000000000000000000000000000000600052601160045260246000fd5b6000614ac082613818565b9150614acb83613818565b925082821015614ade57614add614a86565b5b828203905092915050565b6000614af482613818565b9150614aff83613818565b9250827fffffffffffffffffffffffffffffffffffffffffffffffffffffffffffffffff03821115614b3457614b33614a86565b5b828201905092915050565b7f4e487b7100000000000000000000000000000000000000000000000000000000600052603260045260246000fd5b6000614b7982613818565b91507fffffffffffffffffffffffffffffffffffffffffffffffffffffffffffffffff821415614bac57614bab614a86565b5b600182019050919050565b7f455243313135353a207472616e736665722063616c6c6572206973206e6f742060008201527f6f776e6572206e6f7220617070726f7665640000000000000000000000000000602082015250565b6000614c136032836139ab565b9150614c1e82614bb7565b604082019050919050565b60006020820190508181036000830152614c4281614c06565b9050919050565b7f4f6e6c7920666f7220746865206f776e6572206f662074686973207469636b6560008201527f7421000000000000000000000000000000000000000000000000000000000000602082015250565b6000614ca56022836139ab565b9150614cb082614c49565b604082019050919050565b60006020820190508181036000830152614cd481614c98565b9050919050565b6000614ce682613818565b9150614cf183613818565b9250817fffffffffffffffffffffffffffffffffffffffffffffffffffffffffffffffff0483118215151615614d2a57614d29614a86565b5b828202905092915050565b7f6d73672e76616c756520213d207072696365202a2a20646563696d616c730000600082015250565b6000614d6b601e836139ab565b9150614d7682614d35565b602082019050919050565b60006020820190508181036000830152614d9a81614d5e565b9050919050565b7f5072696365206d757374206265206174206c6561737420312077656900000000600082015250565b6000614dd7601c836139ab565b9150614de282614da1565b602082019050919050565b60006020820190508181036000830152614e0681614dca565b9050919050565b7f455243313135353a206163636f756e747320616e6420696473206c656e67746860008201527f206d69736d617463680000000000000000000000000000000000000000000000602082015250565b6000614e696029836139ab565b9150614e7482614e0d565b604082019050919050565b60006020820190508181036000830152614e9881614e5c565b9050919050565b7f455243313135353a2063616c6c6572206973206e6f74206f776e6572206e6f7260008201527f20617070726f7665640000000000000000000000000000000000000000000000602082015250565b6000614efb6029836139ab565b9150614f0682614e9f565b604082019050919050565b60006020820190508181036000830152614f2a81614eee565b9050919050565b7f455243313135353a2069647320616e6420616d6f756e7473206c656e6774682060008201527f6d69736d61746368000000000000000000000000000000000000000000000000602082015250565b6000614f8d6028836139ab565b9150614f9882614f31565b604082019050919050565b60006020820190508181036000830152614fbc81614f80565b9050919050565b7f455243313135353a207472616e7366657220746f20746865207a65726f20616460008201527f6472657373000000000000000000000000000000000000000000000000000000602082015250565b600061501f6025836139ab565b915061502a82614fc3565b604082019050919050565b6000602082019050818103600083015261504e81615012565b9050919050565b7f455243313135353a20696e73756666696369656e742062616c616e636520666f60008201527f72207472616e7366657200000000000000000000000000000000000000000000602082015250565b60006150b1602a836139ab565b91506150bc82615055565b604082019050919050565b600060208201905081810360008301526150e0816150a4565b9050919050565b6000604082019050818103600083015261510181856142ee565b9050818103602083015261511581846142ee565b90509392505050565b6000604082019050615133600083018561388e565b615140602083018461388e565b9392505050565b7f455243313135353a206d696e7420746f20746865207a65726f2061646472657360008201527f7300000000000000000000000000000000000000000000000000000000000000602082015250565b60006151a36021836139ab565b91506151ae82615147565b604082019050919050565b600060208201905081810360008301526151d281615196565b9050919050565b7f455243313135353a2073657474696e6720617070726f76616c2073746174757360008201527f20666f722073656c660000000000000000000000000000000000000000000000602082015250565b60006152356029836139ab565b9150615240826151d9565b604082019050919050565b6000602082019050818103600083015261526481615228565b9050919050565b615274816137da565b82525050565b600081519050919050565b600082825260208201905092915050565b60006152a18261527a565b6152ab8185615285565b93506152bb8185602086016139bc565b6152c4816139ef565b840191505092915050565b600060a0820190506152e4600083018861526b565b6152f1602083018761526b565b818103604083015261530381866142ee565b9050818103606083015261531781856142ee565b9050818103608083015261532b8184615296565b90509695505050505050565b600081519050615346816138e4565b92915050565b600060208284031215615362576153616137b0565b5b600061537084828501615337565b91505092915050565b60008160e01c9050919050565b600060033d11156153a55760046000803e6153a2600051615379565b90505b90565b600060443d10156153b85761543b565b6153c06137a6565b60043d036004823e80513d602482011167ffffffffffffffff821117156153e857505061543b565b808201805167ffffffffffffffff811115615406575050505061543b565b80602083010160043d03850181111561542357505050505061543b565b61543282602001850186613c1f565b82955050505050505b90565b7f455243313135353a207472616e7366657220746f206e6f6e204552433131353560008201527f526563656976657220696d706c656d656e746572000000000000000000000000602082015250565b600061549a6034836139ab565b91506154a58261543e565b604082019050919050565b600060208201905081810360008301526154c98161548d565b9050919050565b7f455243313135353a204552433131353552656365697665722072656a6563746560008201527f6420746f6b656e73000000000000000000000000000000000000000000000000602082015250565b600061552c6028836139ab565b9150615537826154d0565b604082019050919050565b6000602082019050818103600083015261555b8161551f565b9050919050565b600060a082019050615577600083018861526b565b615584602083018761526b565b615591604083018661388e565b61559e606083018561388e565b81810360808301526155b08184615296565b9050969550505050505056fea264697066735822122055b6b940752247048bb008f24db8a9c7db87e99c19f9e346c54c5160ecfec1d764736f6c634300080b0033",
  "immutableReferences": {},
  "source": "// SPDX-License-Identifier: MIT\r\npragma solidity ^0.8.11;\r\n\r\nimport \"@openzeppelin/contracts/token/ERC1155/ERC1155.sol\";\r\nimport \"@openzeppelin/contracts/utils/Counters.sol\";\r\n\r\ncontract Event is ERC1155 {\r\n    using Counters for Counters.Counter;\r\n    Counters.Counter private _tokenIds;\r\n    Counters.Counter private _itemIds;\r\n    Counters.Counter private _itemsSold;\r\n    address payable owner;\r\n\r\n    constructor() ERC1155(\"\") {\r\n        owner = payable(msg.sender);\r\n    }\r\n\r\n    mapping(uint256 => string) private _uris;\r\n\r\n    struct Item {\r\n        uint256 tokenId;\r\n    }\r\n\r\n    struct EventItem {\r\n        uint256 tokenId;\r\n        address payable owner;\r\n    }\r\n\r\n    struct TicketItem {\r\n        uint256 tokenId;\r\n        uint256 eventTokenId;\r\n        address payable owner;\r\n        uint256 price;\r\n        bool list;\r\n        bool active;\r\n    }\r\n\r\n    struct MarketItem {\r\n        uint256 itemId;\r\n        uint256 tokenId;\r\n        address payable seller;\r\n        address payable owner;\r\n        uint256 price;\r\n        bool sold;\r\n    }\r\n\r\n    mapping(uint256 => EventItem) private eventToken;\r\n    mapping(uint256 => TicketItem) private ticketToken;\r\n    mapping(uint256 => Item[]) private ticketsInEvent;\r\n    mapping(uint256 => MarketItem) private ticketInMarket;\r\n\r\n    mapping(address => EventItem[]) private createdEvents;\r\n\r\n    function uri(uint256 tokenId) public view override returns (string memory) {\r\n        return (_uris[tokenId]);\r\n    }\r\n\r\n    function setTokenUri(uint256 tokenId, string memory tokenUri) public {\r\n        // require(bytes(_uris[tokenId]).length == 0, \"Cannot set uri twice\");\r\n        _uris[tokenId] = tokenUri;\r\n    }\r\n\r\n    function mintEvent(string memory tokenUri) public {\r\n        _tokenIds.increment();\r\n        uint256 newItemId = _tokenIds.current();\r\n\r\n        _mint(msg.sender, newItemId, 1, \"\");\r\n        setTokenUri(newItemId, tokenUri);\r\n        eventToken[newItemId] = EventItem(newItemId, payable(msg.sender));\r\n        createdEvents[msg.sender].push(eventToken[newItemId]);\r\n    }\r\n\r\n    function mintTicket(\r\n        string memory tokenUri,\r\n        uint256 eventTokenId,\r\n        uint256 quantity,\r\n        uint256 price\r\n    ) public {\r\n        for (uint256 i = 0; i < quantity; i++) {\r\n            _tokenIds.increment();\r\n            uint256 newItemId = _tokenIds.current();\r\n\r\n            _mint(msg.sender, newItemId, 1, \"\");\r\n            setTokenUri(newItemId, tokenUri);\r\n            ticketToken[newItemId] = TicketItem(\r\n                newItemId,\r\n                eventTokenId,\r\n                payable(msg.sender),\r\n                price,\r\n                false,\r\n                true\r\n            );\r\n            ticketsInEvent[eventTokenId].push(Item(newItemId));\r\n            createMarketItem(newItemId, price);\r\n        }\r\n    }\r\n\r\n    function createMarketItem(uint256 tokenId, uint256 price) public payable {\r\n        require(\r\n            msg.sender == ticketToken[tokenId].owner,\r\n            \"Only for the owner of this ticket!\"\r\n        );\r\n        require(price > 0, \"Price must be at least 1 wei\");\r\n\r\n        _itemIds.increment();\r\n        uint256 itemId = _itemIds.current();\r\n\r\n        ticketInMarket[itemId] = MarketItem(\r\n            itemId,\r\n            tokenId,\r\n            payable(msg.sender),\r\n            payable(msg.sender),\r\n            price,\r\n            false\r\n        );\r\n\r\n        ticketToken[tokenId].price = price;\r\n        ticketToken[tokenId].list = true;\r\n\r\n        safeTransferFrom(msg.sender, address(this), tokenId, 1, \"\");\r\n    }\r\n\r\n    function cancelListing(uint256 itemId) public payable {\r\n        require(\r\n            msg.sender == ticketInMarket[itemId].owner,\r\n            \"Only for the owner of this ticket!\"\r\n        );\r\n        uint256 tokenId = ticketInMarket[itemId].tokenId;\r\n        ticketToken[tokenId].price = 0;\r\n        ticketToken[tokenId].list = false;\r\n        delete ticketInMarket[itemId];\r\n        _safeTransferFrom(address(this), msg.sender, tokenId, 1, \"\");\r\n    }\r\n\r\n    function buyMarketItem(uint256 itemId) public payable {\r\n        uint256 price = ticketInMarket[itemId].price;\r\n        uint256 tokenId = ticketInMarket[itemId].tokenId;\r\n        require(\r\n            msg.value == price * (10**10),\r\n            \"msg.value != price ** decimals\"\r\n        );\r\n\r\n        ticketInMarket[itemId].seller.transfer(msg.value);\r\n        ticketInMarket[itemId].owner = payable(msg.sender);\r\n        ticketInMarket[itemId].sold = true;\r\n        ticketToken[tokenId].owner = payable(msg.sender);\r\n        ticketToken[tokenId].list = false;\r\n        _itemsSold.increment();\r\n\r\n        _safeTransferFrom(address(this), msg.sender, tokenId, 1, \"\");\r\n    }\r\n\r\n    function fetchMarketItem(uint256 tokenId)\r\n        public\r\n        view\r\n        returns (MarketItem memory)\r\n    {\r\n        uint256 itemCount = _itemIds.current();\r\n        MarketItem memory item;\r\n\r\n        for (uint256 i = 0; i < itemCount; i++) {\r\n            if (ticketInMarket[i + 1].tokenId == tokenId) {\r\n                uint256 currentId = i + 1;\r\n                item = ticketInMarket[currentId];\r\n            }\r\n        }\r\n        return item;\r\n    }\r\n\r\n    function fetchMarketItems() public view returns (MarketItem[] memory) {\r\n        uint256 itemCount = _itemIds.current();\r\n        uint256 unsoldItemCount = _itemIds.current() - _itemsSold.current();\r\n        uint256 currentIndex = 0;\r\n\r\n        MarketItem[] memory items = new MarketItem[](unsoldItemCount);\r\n        for (uint256 i = 0; i < itemCount; i++) {\r\n            if (!ticketInMarket[i + 1].sold) {\r\n                MarketItem storage currentItem = ticketInMarket[i + 1];\r\n                items[currentIndex] = currentItem;\r\n                currentIndex += 1;\r\n            }\r\n        }\r\n        return items;\r\n    }\r\n\r\n    function fetchCreatedEvents(address account)\r\n        public\r\n        view\r\n        returns (EventItem[] memory)\r\n    {\r\n        EventItem[] memory items = createdEvents[account];\r\n        return items;\r\n    }\r\n\r\n    function fetchOwnedEvents(address account)\r\n        public\r\n        view\r\n        returns (EventItem[] memory)\r\n    {\r\n        uint256 totalTokenCount = _tokenIds.current();\r\n        uint256 tokenCount = 0;\r\n        uint256 currentIndex = 0;\r\n\r\n        for (uint256 i = 0; i < totalTokenCount; i++) {\r\n            if (eventToken[i + 1].owner == account) {\r\n                tokenCount += 1;\r\n            }\r\n        }\r\n\r\n        EventItem[] memory items = new EventItem[](tokenCount);\r\n        for (uint256 i = 0; i < totalTokenCount; i++) {\r\n            if (eventToken[i + 1].owner == account) {\r\n                EventItem storage currentItem = eventToken[i + 1];\r\n                items[currentIndex] = currentItem;\r\n                currentIndex += 1;\r\n            }\r\n        }\r\n        return items;\r\n    }\r\n\r\n    function fetchCreatedTickets(address account)\r\n        public\r\n        view\r\n        returns (Item[] memory)\r\n    {\r\n        uint256 tokenCount = 0;\r\n        uint256 currentIndex = 0;\r\n\r\n        EventItem[] memory events = createdEvents[account];\r\n        for (uint256 i = 0; i < events.length; i++) {\r\n            uint256 ticketCount = ticketsInEvent[events[i].tokenId].length;\r\n            tokenCount += ticketCount;\r\n        }\r\n\r\n        Item[] memory items = new Item[](tokenCount);\r\n        for (uint256 i = 0; i < events.length; i++) {\r\n            Item[] storage currentItem = ticketsInEvent[events[i].tokenId];\r\n            for (uint256 j = 0; j < currentItem.length; j++) {\r\n                items[currentIndex] = currentItem[j];\r\n                currentIndex += 1;\r\n            }\r\n        }\r\n        return items;\r\n    }\r\n\r\n    function fetchOwnedTickets(address account, bool isCreator)\r\n        public\r\n        view\r\n        returns (TicketItem[] memory)\r\n    {\r\n        uint256 totalTokenCount = _tokenIds.current();\r\n        uint256 tokenCount = 0;\r\n        uint256 currentIndex = 0;\r\n\r\n        if (isCreator) {\r\n            for (uint256 i = 0; i < totalTokenCount; i++) {\r\n                if (ticketToken[i + 1].owner == account) {\r\n                    tokenCount += 1;\r\n                }\r\n            }\r\n        } else {\r\n            for (uint256 i = 0; i < totalTokenCount; i++) {\r\n                if (\r\n                    eventToken[ticketToken[i + 1].eventTokenId].owner !=\r\n                    account &&\r\n                    ticketToken[i + 1].owner == account\r\n                ) {\r\n                    tokenCount += 1;\r\n                }\r\n            }\r\n        }\r\n\r\n        TicketItem[] memory items = new TicketItem[](tokenCount);\r\n        if (isCreator) {\r\n            for (uint256 i = 0; i < totalTokenCount; i++) {\r\n                if (ticketToken[i + 1].owner == account) {\r\n                    TicketItem storage currentItem = ticketToken[i + 1];\r\n                    items[currentIndex] = currentItem;\r\n                    currentIndex += 1;\r\n                }\r\n            }\r\n        } else {\r\n            for (uint256 i = 0; i < totalTokenCount; i++) {\r\n                if (\r\n                    eventToken[ticketToken[i + 1].eventTokenId].owner !=\r\n                    account &&\r\n                    ticketToken[i + 1].owner == account\r\n                ) {\r\n                    TicketItem storage currentItem = ticketToken[i + 1];\r\n                    items[currentIndex] = currentItem;\r\n                    currentIndex += 1;\r\n                }\r\n            }\r\n        }\r\n\r\n        return items;\r\n    }\r\n\r\n    function fetchTicketsInEvent(uint256 eventTokenId)\r\n        public\r\n        view\r\n        returns (Item[] memory)\r\n    {\r\n        Item[] memory items = ticketsInEvent[eventTokenId];\r\n        return items;\r\n    }\r\n\r\n    function fetchEvent(uint256 tokenId)\r\n        public\r\n        view\r\n        returns (EventItem memory)\r\n    {\r\n        EventItem memory item = eventToken[tokenId];\r\n        return item;\r\n    }\r\n\r\n    function fetchTicket(uint256 tokenId)\r\n        public\r\n        view\r\n        returns (TicketItem memory)\r\n    {\r\n        TicketItem memory item = ticketToken[tokenId];\r\n        return item;\r\n    }\r\n\r\n    function onERC1155Received(\r\n        address,\r\n        address,\r\n        uint256,\r\n        uint256,\r\n        bytes memory\r\n    ) public virtual returns (bytes4) {\r\n        return this.onERC1155Received.selector;\r\n    }\r\n\r\n    function onERC1155BatchReceived(\r\n        address,\r\n        address,\r\n        uint256[] memory,\r\n        uint256[] memory,\r\n        bytes memory\r\n    ) public virtual returns (bytes4) {\r\n        return this.onERC1155BatchReceived.selector;\r\n    }\r\n\r\n    function onERC721Received(\r\n        address,\r\n        address,\r\n        uint256,\r\n        bytes memory\r\n    ) public virtual returns (bytes4) {\r\n        return this.onERC721Received.selector;\r\n    }\r\n}\r\n",
  "sourcePath": "D:\\Final Project\\ticketplace\\contracts\\Event.sol",
  "compiler": {
    "name": "solc",
    "version": "0.8.11+commit.d7f03943.Emscripten.clang"
  },
  "schemaVersion": "3.4.4",
  "updatedAt": "2022-03-02T11:49:06.154Z",
  "networkType": "ethereum",
  "devdoc": {
    "kind": "dev",
    "methods": {
      "balanceOf(address,uint256)": {
        "details": "See {IERC1155-balanceOf}. Requirements: - `account` cannot be the zero address."
      },
      "balanceOfBatch(address[],uint256[])": {
        "details": "See {IERC1155-balanceOfBatch}. Requirements: - `accounts` and `ids` must have the same length."
      },
      "isApprovedForAll(address,address)": {
        "details": "See {IERC1155-isApprovedForAll}."
      },
      "safeBatchTransferFrom(address,address,uint256[],uint256[],bytes)": {
        "details": "See {IERC1155-safeBatchTransferFrom}."
      },
      "safeTransferFrom(address,address,uint256,uint256,bytes)": {
        "details": "See {IERC1155-safeTransferFrom}."
      },
      "setApprovalForAll(address,bool)": {
        "details": "See {IERC1155-setApprovalForAll}."
      },
      "supportsInterface(bytes4)": {
        "details": "See {IERC165-supportsInterface}."
      }
    },
    "version": 1
  },
  "userdoc": {
    "kind": "user",
    "methods": {},
    "version": 1
  }
}