{
  "contractName": "Event",
  "abi": [
    {
      "inputs": [],
      "stateMutability": "nonpayable",
      "type": "constructor"
    },
    {
      "anonymous": false,
      "inputs": [
        {
          "indexed": true,
          "internalType": "address",
          "name": "account",
          "type": "address"
        },
        {
          "indexed": true,
          "internalType": "address",
          "name": "operator",
          "type": "address"
        },
        {
          "indexed": false,
          "internalType": "bool",
          "name": "approved",
          "type": "bool"
        }
      ],
      "name": "ApprovalForAll",
      "type": "event"
    },
    {
      "anonymous": false,
      "inputs": [
        {
          "indexed": true,
          "internalType": "address",
          "name": "operator",
          "type": "address"
        },
        {
          "indexed": true,
          "internalType": "address",
          "name": "from",
          "type": "address"
        },
        {
          "indexed": true,
          "internalType": "address",
          "name": "to",
          "type": "address"
        },
        {
          "indexed": false,
          "internalType": "uint256[]",
          "name": "ids",
          "type": "uint256[]"
        },
        {
          "indexed": false,
          "internalType": "uint256[]",
          "name": "values",
          "type": "uint256[]"
        }
      ],
      "name": "TransferBatch",
      "type": "event"
    },
    {
      "anonymous": false,
      "inputs": [
        {
          "indexed": true,
          "internalType": "address",
          "name": "operator",
          "type": "address"
        },
        {
          "indexed": true,
          "internalType": "address",
          "name": "from",
          "type": "address"
        },
        {
          "indexed": true,
          "internalType": "address",
          "name": "to",
          "type": "address"
        },
        {
          "indexed": false,
          "internalType": "uint256",
          "name": "id",
          "type": "uint256"
        },
        {
          "indexed": false,
          "internalType": "uint256",
          "name": "value",
          "type": "uint256"
        }
      ],
      "name": "TransferSingle",
      "type": "event"
    },
    {
      "anonymous": false,
      "inputs": [
        {
          "indexed": false,
          "internalType": "string",
          "name": "value",
          "type": "string"
        },
        {
          "indexed": true,
          "internalType": "uint256",
          "name": "id",
          "type": "uint256"
        }
      ],
      "name": "URI",
      "type": "event"
    },
    {
      "inputs": [
        {
          "internalType": "address",
          "name": "account",
          "type": "address"
        },
        {
          "internalType": "uint256",
          "name": "id",
          "type": "uint256"
        }
      ],
      "name": "balanceOf",
      "outputs": [
        {
          "internalType": "uint256",
          "name": "",
          "type": "uint256"
        }
      ],
      "stateMutability": "view",
      "type": "function",
      "constant": true
    },
    {
      "inputs": [
        {
          "internalType": "address[]",
          "name": "accounts",
          "type": "address[]"
        },
        {
          "internalType": "uint256[]",
          "name": "ids",
          "type": "uint256[]"
        }
      ],
      "name": "balanceOfBatch",
      "outputs": [
        {
          "internalType": "uint256[]",
          "name": "",
          "type": "uint256[]"
        }
      ],
      "stateMutability": "view",
      "type": "function",
      "constant": true
    },
    {
      "inputs": [
        {
          "internalType": "address",
          "name": "account",
          "type": "address"
        },
        {
          "internalType": "address",
          "name": "operator",
          "type": "address"
        }
      ],
      "name": "isApprovedForAll",
      "outputs": [
        {
          "internalType": "bool",
          "name": "",
          "type": "bool"
        }
      ],
      "stateMutability": "view",
      "type": "function",
      "constant": true
    },
    {
      "inputs": [
        {
          "internalType": "address",
          "name": "from",
          "type": "address"
        },
        {
          "internalType": "address",
          "name": "to",
          "type": "address"
        },
        {
          "internalType": "uint256[]",
          "name": "ids",
          "type": "uint256[]"
        },
        {
          "internalType": "uint256[]",
          "name": "amounts",
          "type": "uint256[]"
        },
        {
          "internalType": "bytes",
          "name": "data",
          "type": "bytes"
        }
      ],
      "name": "safeBatchTransferFrom",
      "outputs": [],
      "stateMutability": "nonpayable",
      "type": "function"
    },
    {
      "inputs": [
        {
          "internalType": "address",
          "name": "from",
          "type": "address"
        },
        {
          "internalType": "address",
          "name": "to",
          "type": "address"
        },
        {
          "internalType": "uint256",
          "name": "id",
          "type": "uint256"
        },
        {
          "internalType": "uint256",
          "name": "amount",
          "type": "uint256"
        },
        {
          "internalType": "bytes",
          "name": "data",
          "type": "bytes"
        }
      ],
      "name": "safeTransferFrom",
      "outputs": [],
      "stateMutability": "nonpayable",
      "type": "function"
    },
    {
      "inputs": [
        {
          "internalType": "address",
          "name": "operator",
          "type": "address"
        },
        {
          "internalType": "bool",
          "name": "approved",
          "type": "bool"
        }
      ],
      "name": "setApprovalForAll",
      "outputs": [],
      "stateMutability": "nonpayable",
      "type": "function"
    },
    {
      "inputs": [
        {
          "internalType": "bytes4",
          "name": "interfaceId",
          "type": "bytes4"
        }
      ],
      "name": "supportsInterface",
      "outputs": [
        {
          "internalType": "bool",
          "name": "",
          "type": "bool"
        }
      ],
      "stateMutability": "view",
      "type": "function",
      "constant": true
    },
    {
      "inputs": [
        {
          "internalType": "uint256",
          "name": "tokenId",
          "type": "uint256"
        }
      ],
      "name": "uri",
      "outputs": [
        {
          "internalType": "string",
          "name": "",
          "type": "string"
        }
      ],
      "stateMutability": "view",
      "type": "function",
      "constant": true
    },
    {
      "inputs": [
        {
          "internalType": "uint256",
          "name": "tokenId",
          "type": "uint256"
        },
        {
          "internalType": "string",
          "name": "tokenUri",
          "type": "string"
        }
      ],
      "name": "setTokenUri",
      "outputs": [],
      "stateMutability": "nonpayable",
      "type": "function"
    },
    {
      "inputs": [
        {
          "internalType": "string",
          "name": "tokenUri",
          "type": "string"
        }
      ],
      "name": "mintEvent",
      "outputs": [],
      "stateMutability": "nonpayable",
      "type": "function"
    },
    {
      "inputs": [
        {
          "internalType": "string",
          "name": "tokenUri",
          "type": "string"
        },
        {
          "internalType": "uint256",
          "name": "eventTokenId",
          "type": "uint256"
        },
        {
          "internalType": "uint256",
          "name": "quantity",
          "type": "uint256"
        },
        {
          "internalType": "uint256",
          "name": "price",
          "type": "uint256"
        }
      ],
      "name": "mintTicket",
      "outputs": [],
      "stateMutability": "nonpayable",
      "type": "function"
    },
    {
      "inputs": [
        {
          "internalType": "uint256",
          "name": "tokenId",
          "type": "uint256"
        },
        {
          "internalType": "uint256",
          "name": "price",
          "type": "uint256"
        }
      ],
      "name": "createMarketItem",
      "outputs": [],
      "stateMutability": "payable",
      "type": "function",
      "payable": true
    },
    {
      "inputs": [
        {
          "internalType": "uint256",
          "name": "itemId",
          "type": "uint256"
        }
      ],
      "name": "cancelListing",
      "outputs": [],
      "stateMutability": "payable",
      "type": "function",
      "payable": true
    },
    {
      "inputs": [
        {
          "internalType": "uint256",
          "name": "itemId",
          "type": "uint256"
        }
      ],
      "name": "buyMarketItem",
      "outputs": [],
      "stateMutability": "payable",
      "type": "function",
      "payable": true
    },
    {
      "inputs": [
        {
          "internalType": "uint256",
          "name": "tokenId",
          "type": "uint256"
        }
      ],
      "name": "fetchMarketItem",
      "outputs": [
        {
          "components": [
            {
              "internalType": "uint256",
              "name": "itemId",
              "type": "uint256"
            },
            {
              "internalType": "uint256",
              "name": "tokenId",
              "type": "uint256"
            },
            {
              "internalType": "address payable",
              "name": "seller",
              "type": "address"
            },
            {
              "internalType": "address payable",
              "name": "owner",
              "type": "address"
            },
            {
              "internalType": "uint256",
              "name": "price",
              "type": "uint256"
            },
            {
              "internalType": "bool",
              "name": "sold",
              "type": "bool"
            }
          ],
          "internalType": "struct Event.MarketItem",
          "name": "",
          "type": "tuple"
        }
      ],
      "stateMutability": "view",
      "type": "function",
      "constant": true
    },
    {
      "inputs": [],
      "name": "fetchMarketItems",
      "outputs": [
        {
          "components": [
            {
              "internalType": "uint256",
              "name": "itemId",
              "type": "uint256"
            },
            {
              "internalType": "uint256",
              "name": "tokenId",
              "type": "uint256"
            },
            {
              "internalType": "address payable",
              "name": "seller",
              "type": "address"
            },
            {
              "internalType": "address payable",
              "name": "owner",
              "type": "address"
            },
            {
              "internalType": "uint256",
              "name": "price",
              "type": "uint256"
            },
            {
              "internalType": "bool",
              "name": "sold",
              "type": "bool"
            }
          ],
          "internalType": "struct Event.MarketItem[]",
          "name": "",
          "type": "tuple[]"
        }
      ],
      "stateMutability": "view",
      "type": "function",
      "constant": true
    },
    {
      "inputs": [
        {
          "internalType": "address",
          "name": "account",
          "type": "address"
        }
      ],
      "name": "fetchOwnedListings",
      "outputs": [
        {
          "components": [
            {
              "internalType": "uint256",
              "name": "itemId",
              "type": "uint256"
            },
            {
              "internalType": "uint256",
              "name": "tokenId",
              "type": "uint256"
            },
            {
              "internalType": "address payable",
              "name": "seller",
              "type": "address"
            },
            {
              "internalType": "address payable",
              "name": "owner",
              "type": "address"
            },
            {
              "internalType": "uint256",
              "name": "price",
              "type": "uint256"
            },
            {
              "internalType": "bool",
              "name": "sold",
              "type": "bool"
            }
          ],
          "internalType": "struct Event.MarketItem[]",
          "name": "",
          "type": "tuple[]"
        }
      ],
      "stateMutability": "view",
      "type": "function",
      "constant": true
    },
    {
      "inputs": [
        {
          "internalType": "address",
          "name": "account",
          "type": "address"
        }
      ],
      "name": "fetchCreatedEvents",
      "outputs": [
        {
          "components": [
            {
              "internalType": "uint256",
              "name": "tokenId",
              "type": "uint256"
            },
            {
              "internalType": "address payable",
              "name": "owner",
              "type": "address"
            }
          ],
          "internalType": "struct Event.EventItem[]",
          "name": "",
          "type": "tuple[]"
        }
      ],
      "stateMutability": "view",
      "type": "function",
      "constant": true
    },
    {
      "inputs": [
        {
          "internalType": "address",
          "name": "account",
          "type": "address"
        }
      ],
      "name": "fetchCreatedTickets",
      "outputs": [
        {
          "components": [
            {
              "internalType": "uint256",
              "name": "tokenId",
              "type": "uint256"
            }
          ],
          "internalType": "struct Event.Item[]",
          "name": "",
          "type": "tuple[]"
        }
      ],
      "stateMutability": "view",
      "type": "function",
      "constant": true
    },
    {
      "inputs": [
        {
          "internalType": "address",
          "name": "account",
          "type": "address"
        },
        {
          "internalType": "bool",
          "name": "isAllOwned",
          "type": "bool"
        },
        {
          "internalType": "bool",
          "name": "isCreator",
          "type": "bool"
        }
      ],
      "name": "fetchOwnedTickets",
      "outputs": [
        {
          "components": [
            {
              "internalType": "uint256",
              "name": "tokenId",
              "type": "uint256"
            },
            {
              "internalType": "uint256",
              "name": "eventTokenId",
              "type": "uint256"
            },
            {
              "internalType": "address payable",
              "name": "owner",
              "type": "address"
            },
            {
              "internalType": "uint256",
              "name": "price",
              "type": "uint256"
            },
            {
              "internalType": "bool",
              "name": "list",
              "type": "bool"
            },
            {
              "internalType": "bool",
              "name": "active",
              "type": "bool"
            }
          ],
          "internalType": "struct Event.TicketItem[]",
          "name": "",
          "type": "tuple[]"
        }
      ],
      "stateMutability": "view",
      "type": "function",
      "constant": true
    },
    {
      "inputs": [
        {
          "internalType": "uint256",
          "name": "eventTokenId",
          "type": "uint256"
        }
      ],
      "name": "fetchTicketsInEvent",
      "outputs": [
        {
          "components": [
            {
              "internalType": "uint256",
              "name": "tokenId",
              "type": "uint256"
            }
          ],
          "internalType": "struct Event.Item[]",
          "name": "",
          "type": "tuple[]"
        }
      ],
      "stateMutability": "view",
      "type": "function",
      "constant": true
    },
    {
      "inputs": [],
      "name": "fetchEvents",
      "outputs": [
        {
          "components": [
            {
              "internalType": "uint256",
              "name": "tokenId",
              "type": "uint256"
            },
            {
              "internalType": "address payable",
              "name": "owner",
              "type": "address"
            }
          ],
          "internalType": "struct Event.EventItem[]",
          "name": "",
          "type": "tuple[]"
        }
      ],
      "stateMutability": "view",
      "type": "function",
      "constant": true
    },
    {
      "inputs": [
        {
          "internalType": "uint256",
          "name": "tokenId",
          "type": "uint256"
        }
      ],
      "name": "fetchEvent",
      "outputs": [
        {
          "components": [
            {
              "internalType": "uint256",
              "name": "tokenId",
              "type": "uint256"
            },
            {
              "internalType": "address payable",
              "name": "owner",
              "type": "address"
            }
          ],
          "internalType": "struct Event.EventItem",
          "name": "",
          "type": "tuple"
        }
      ],
      "stateMutability": "view",
      "type": "function",
      "constant": true
    },
    {
      "inputs": [],
      "name": "fetchTickets",
      "outputs": [
        {
          "components": [
            {
              "internalType": "uint256",
              "name": "tokenId",
              "type": "uint256"
            },
            {
              "internalType": "uint256",
              "name": "eventTokenId",
              "type": "uint256"
            },
            {
              "internalType": "address payable",
              "name": "owner",
              "type": "address"
            },
            {
              "internalType": "uint256",
              "name": "price",
              "type": "uint256"
            },
            {
              "internalType": "bool",
              "name": "list",
              "type": "bool"
            },
            {
              "internalType": "bool",
              "name": "active",
              "type": "bool"
            }
          ],
          "internalType": "struct Event.TicketItem[]",
          "name": "",
          "type": "tuple[]"
        }
      ],
      "stateMutability": "view",
      "type": "function",
      "constant": true
    },
    {
      "inputs": [
        {
          "internalType": "uint256",
          "name": "tokenId",
          "type": "uint256"
        }
      ],
      "name": "fetchTicket",
      "outputs": [
        {
          "components": [
            {
              "internalType": "uint256",
              "name": "tokenId",
              "type": "uint256"
            },
            {
              "internalType": "uint256",
              "name": "eventTokenId",
              "type": "uint256"
            },
            {
              "internalType": "address payable",
              "name": "owner",
              "type": "address"
            },
            {
              "internalType": "uint256",
              "name": "price",
              "type": "uint256"
            },
            {
              "internalType": "bool",
              "name": "list",
              "type": "bool"
            },
            {
              "internalType": "bool",
              "name": "active",
              "type": "bool"
            }
          ],
          "internalType": "struct Event.TicketItem",
          "name": "",
          "type": "tuple"
        }
      ],
      "stateMutability": "view",
      "type": "function",
      "constant": true
    },
    {
      "inputs": [
        {
          "internalType": "address",
          "name": "",
          "type": "address"
        },
        {
          "internalType": "address",
          "name": "",
          "type": "address"
        },
        {
          "internalType": "uint256",
          "name": "",
          "type": "uint256"
        },
        {
          "internalType": "uint256",
          "name": "",
          "type": "uint256"
        },
        {
          "internalType": "bytes",
          "name": "",
          "type": "bytes"
        }
      ],
      "name": "onERC1155Received",
      "outputs": [
        {
          "internalType": "bytes4",
          "name": "",
          "type": "bytes4"
        }
      ],
      "stateMutability": "nonpayable",
      "type": "function"
    },
    {
      "inputs": [
        {
          "internalType": "address",
          "name": "",
          "type": "address"
        },
        {
          "internalType": "address",
          "name": "",
          "type": "address"
        },
        {
          "internalType": "uint256[]",
          "name": "",
          "type": "uint256[]"
        },
        {
          "internalType": "uint256[]",
          "name": "",
          "type": "uint256[]"
        },
        {
          "internalType": "bytes",
          "name": "",
          "type": "bytes"
        }
      ],
      "name": "onERC1155BatchReceived",
      "outputs": [
        {
          "internalType": "bytes4",
          "name": "",
          "type": "bytes4"
        }
      ],
      "stateMutability": "nonpayable",
      "type": "function"
    },
    {
      "inputs": [
        {
          "internalType": "address",
          "name": "",
          "type": "address"
        },
        {
          "internalType": "address",
          "name": "",
          "type": "address"
        },
        {
          "internalType": "uint256",
          "name": "",
          "type": "uint256"
        },
        {
          "internalType": "bytes",
          "name": "",
          "type": "bytes"
        }
      ],
      "name": "onERC721Received",
      "outputs": [
        {
          "internalType": "bytes4",
          "name": "",
          "type": "bytes4"
        }
      ],
      "stateMutability": "nonpayable",
      "type": "function"
    }
  ],
  "bytecode": "0x60806040523480156200001157600080fd5b506040518060200160405280600081525062000033816200007b60201b60201c565b5033600660006101000a81548173ffffffffffffffffffffffffffffffffffffffff021916908373ffffffffffffffffffffffffffffffffffffffff160217905550620001ac565b80600290805190602001906200009392919062000097565b5050565b828054620000a59062000176565b90600052602060002090601f016020900481019282620000c9576000855562000115565b82601f10620000e457805160ff191683800117855562000115565b8280016001018555821562000115579182015b8281111562000114578251825591602001919060010190620000f7565b5b50905062000124919062000128565b5090565b5b808211156200014357600081600090555060010162000129565b5090565b7f4e487b7100000000000000000000000000000000000000000000000000000000600052602260045260246000fd5b600060028204905060018216806200018f57607f821691505b60208210811415620001a657620001a562000147565b5b50919050565b615ec380620001bc6000396000f3fe6080604052600436106101b65760003560e01c806357f7789e116100ec578063c9ce7d3c1161008a578063f242432a11610064578063f242432a14610676578063f6b92b231461069f578063f792d45d146106dc578063f9d5c50514610719576101b6565b8063c9ce7d3c146105bf578063e985e9c5146105fc578063f23a6e6114610639576101b6565b80639be0b935116100c65780639be0b93514610505578063a22cb4651461052e578063bc197c8114610557578063bcba434714610594576101b6565b806357f7789e146104765780638c8b5fd61461049f57806397dada91146104dc576101b6565b8063305a67a811610159578063361c199511610133578063361c1995146103b557806341c9eb0e146103d15780634e1273f4146103fc5780635105d52614610439576101b6565b8063305a67a81461034057806331d909701461035c578063351901c314610399576101b6565b80630f08efe0116101955780630f08efe014610272578063150b7a021461029d5780632a45b250146102da5780632eb2c2d614610317576101b6565b8062fdd58e146101bb57806301ffc9a7146101f85780630e89341c14610235575b600080fd5b3480156101c757600080fd5b506101e260048036038101906101dd91906140cc565b610756565b6040516101ef919061411b565b60405180910390f35b34801561020457600080fd5b5061021f600480360381019061021a919061418e565b61081f565b60405161022c91906141d6565b60405180910390f35b34801561024157600080fd5b5061025c600480360381019061025791906141f1565b610901565b60405161026991906142b7565b60405180910390f35b34801561027e57600080fd5b506102876109a6565b6040516102949190614442565b60405180910390f35b3480156102a957600080fd5b506102c460048036038101906102bf9190614599565b610bd1565b6040516102d1919061462b565b60405180910390f35b3480156102e657600080fd5b5061030160048036038101906102fc91906141f1565b610be5565b60405161030e91906146c1565b60405180910390f35b34801561032357600080fd5b5061033e600480360381019061033991906147a4565b610d6e565b005b61035a600480360381019061035591906141f1565b610e0f565b005b34801561036857600080fd5b50610383600480360381019061037e9190614873565b610fca565b604051610390919061497e565b60405180910390f35b6103b360048036038101906103ae91906141f1565b6110ce565b005b6103cf60048036038101906103ca91906149a0565b611307565b005b3480156103dd57600080fd5b506103e66115b0565b6040516103f39190614b0a565b60405180910390f35b34801561040857600080fd5b50610423600480360381019061041e9190614bef565b6117cf565b6040516104309190614d16565b60405180910390f35b34801561044557600080fd5b50610460600480360381019061045b91906141f1565b6118e8565b60405161046d9190614db3565b60405180910390f35b34801561048257600080fd5b5061049d60048036038101906104989190614e6f565b6119c5565b005b3480156104ab57600080fd5b506104c660048036038101906104c191906141f1565b6119f1565b6040516104d39190614efa565b60405180910390f35b3480156104e857600080fd5b5061050360048036038101906104fe9190614f15565b611a84565b005b34801561051157600080fd5b5061052c60048036038101906105279190614f98565b611c49565b005b34801561053a57600080fd5b506105556004803603810190610550919061500d565b611e0b565b005b34801561056357600080fd5b5061057e600480360381019061057991906147a4565b611e21565b60405161058b919061462b565b60405180910390f35b3480156105a057600080fd5b506105a9611e36565b6040516105b6919061497e565b60405180910390f35b3480156105cb57600080fd5b506105e660048036038101906105e1919061504d565b61200b565b6040516105f39190614b0a565b60405180910390f35b34801561060857600080fd5b50610623600480360381019061061e91906150a0565b6129b8565b60405161063091906141d6565b60405180910390f35b34801561064557600080fd5b50610660600480360381019061065b91906150e0565b612a4c565b60405161066d919061462b565b60405180910390f35b34801561068257600080fd5b5061069d600480360381019061069891906150e0565b612a61565b005b3480156106ab57600080fd5b506106c660048036038101906106c19190614873565b612b02565b6040516106d39190615242565b60405180910390f35b3480156106e857600080fd5b5061070360048036038101906106fe9190614873565b612da4565b6040516107109190614442565b60405180910390f35b34801561072557600080fd5b50610740600480360381019061073b91906141f1565b613098565b60405161074d9190615242565b60405180910390f35b60008073ffffffffffffffffffffffffffffffffffffffff168373ffffffffffffffffffffffffffffffffffffffff1614156107c7576040517f08c379a00000000000000000000000000000000000000000000000000000000081526004016107be906152d6565b60405180910390fd5b60008083815260200190815260200160002060008473ffffffffffffffffffffffffffffffffffffffff1673ffffffffffffffffffffffffffffffffffffffff16815260200190815260200160002054905092915050565b60007fd9b67a26000000000000000000000000000000000000000000000000000000007bffffffffffffffffffffffffffffffffffffffffffffffffffffffff1916827bffffffffffffffffffffffffffffffffffffffffffffffffffffffff191614806108ea57507f0e89341c000000000000000000000000000000000000000000000000000000007bffffffffffffffffffffffffffffffffffffffffffffffffffffffff1916827bffffffffffffffffffffffffffffffffffffffffffffffffffffffff1916145b806108fa57506108f982613116565b5b9050919050565b606060076000838152602001908152602001600020805461092190615325565b80601f016020809104026020016040519081016040528092919081815260200182805461094d90615325565b801561099a5780601f1061096f5761010080835404028352916020019161099a565b820191906000526020600020905b81548152906001019060200180831161097d57829003601f168201915b50505050509050919050565b606060006109b46004613180565b905060006109c26005613180565b6109cc6004613180565b6109d69190615386565b90506000808267ffffffffffffffff8111156109f5576109f461446e565b5b604051908082528060200260200182016040528015610a2e57816020015b610a1b613e8a565b815260200190600190039081610a135790505b50905060005b84811015610bc657600b6000600183610a4d91906153ba565b815260200190815260200160002060050160009054906101000a900460ff16610bb3576000600b6000600184610a8391906153ba565b81526020019081526020016000209050806040518060c001604052908160008201548152602001600182015481526020016002820160009054906101000a900473ffffffffffffffffffffffffffffffffffffffff1673ffffffffffffffffffffffffffffffffffffffff1673ffffffffffffffffffffffffffffffffffffffff1681526020016003820160009054906101000a900473ffffffffffffffffffffffffffffffffffffffff1673ffffffffffffffffffffffffffffffffffffffff1673ffffffffffffffffffffffffffffffffffffffff168152602001600482015481526020016005820160009054906101000a900460ff161515151581525050838581518110610b9757610b96615410565b5b6020026020010181905250600184610baf91906153ba565b9350505b8080610bbe9061543f565b915050610a34565b508094505050505090565b600063150b7a0260e01b9050949350505050565b610bed613e8a565b6000610bf96004613180565b9050610c03613e8a565b60005b82811015610d635784600b6000600184610c2091906153ba565b8152602001908152602001600020600101541415610d50576000600182610c4791906153ba565b9050600b60008281526020019081526020016000206040518060c001604052908160008201548152602001600182015481526020016002820160009054906101000a900473ffffffffffffffffffffffffffffffffffffffff1673ffffffffffffffffffffffffffffffffffffffff1673ffffffffffffffffffffffffffffffffffffffff1681526020016003820160009054906101000a900473ffffffffffffffffffffffffffffffffffffffff1673ffffffffffffffffffffffffffffffffffffffff1673ffffffffffffffffffffffffffffffffffffffff168152602001600482015481526020016005820160009054906101000a900460ff1615151515815250509250505b8080610d5b9061543f565b915050610c06565b508092505050919050565b610d7661318e565b73ffffffffffffffffffffffffffffffffffffffff168573ffffffffffffffffffffffffffffffffffffffff161480610dbc5750610dbb85610db661318e565b6129b8565b5b610dfb576040517f08c379a0000000000000000000000000000000000000000000000000000000008152600401610df2906154fa565b60405180910390fd5b610e088585858585613196565b5050505050565b600b600082815260200190815260200160002060030160009054906101000a900473ffffffffffffffffffffffffffffffffffffffff1673ffffffffffffffffffffffffffffffffffffffff163373ffffffffffffffffffffffffffffffffffffffff1614610eb3576040517f08c379a0000000000000000000000000000000000000000000000000000000008152600401610eaa9061558c565b60405180910390fd5b6000600b60008381526020019081526020016000206001015490506000600960008381526020019081526020016000206003018190555060006009600083815260200190815260200160002060040160006101000a81548160ff021916908315150217905550600b600083815260200190815260200160002060008082016000905560018201600090556002820160006101000a81549073ffffffffffffffffffffffffffffffffffffffff02191690556003820160006101000a81549073ffffffffffffffffffffffffffffffffffffffff021916905560048201600090556005820160006101000a81549060ff02191690555050610fc63033836001604051806020016040528060008152506134aa565b5050565b60606000600c60008473ffffffffffffffffffffffffffffffffffffffff1673ffffffffffffffffffffffffffffffffffffffff168152602001908152602001600020805480602002602001604051908101604052809291908181526020016000905b828210156110bf5783829060005260206000209060020201604051806040016040529081600082015481526020016001820160009054906101000a900473ffffffffffffffffffffffffffffffffffffffff1673ffffffffffffffffffffffffffffffffffffffff1673ffffffffffffffffffffffffffffffffffffffff16815250508152602001906001019061102d565b50505050905080915050919050565b6000600b60008381526020019081526020016000206004015490506000600b60008481526020019081526020016000206001015490506402540be4008261111591906155ac565b3414611156576040517f08c379a000000000000000000000000000000000000000000000000000000000815260040161114d90615652565b60405180910390fd5b600b600084815260200190815260200160002060020160009054906101000a900473ffffffffffffffffffffffffffffffffffffffff1673ffffffffffffffffffffffffffffffffffffffff166108fc349081150290604051600060405180830381858888f193505050501580156111d2573d6000803e3d6000fd5b5033600b600085815260200190815260200160002060030160006101000a81548173ffffffffffffffffffffffffffffffffffffffff021916908373ffffffffffffffffffffffffffffffffffffffff1602179055506001600b600085815260200190815260200160002060050160006101000a81548160ff021916908315150217905550336009600083815260200190815260200160002060020160006101000a81548173ffffffffffffffffffffffffffffffffffffffff021916908373ffffffffffffffffffffffffffffffffffffffff16021790555060006009600083815260200190815260200160002060040160006101000a81548160ff0219169083151502179055506112e5600561372c565b6113023033836001604051806020016040528060008152506134aa565b505050565b6009600083815260200190815260200160002060020160009054906101000a900473ffffffffffffffffffffffffffffffffffffffff1673ffffffffffffffffffffffffffffffffffffffff163373ffffffffffffffffffffffffffffffffffffffff16146113ab576040517f08c379a00000000000000000000000000000000000000000000000000000000081526004016113a29061558c565b60405180910390fd5b600081116113ee576040517f08c379a00000000000000000000000000000000000000000000000000000000081526004016113e5906156be565b60405180910390fd5b6113f8600461372c565b60006114046004613180565b90506040518060c001604052808281526020018481526020013373ffffffffffffffffffffffffffffffffffffffff1681526020013373ffffffffffffffffffffffffffffffffffffffff16815260200183815260200160001515815250600b6000838152602001908152602001600020600082015181600001556020820151816001015560408201518160020160006101000a81548173ffffffffffffffffffffffffffffffffffffffff021916908373ffffffffffffffffffffffffffffffffffffffff16021790555060608201518160030160006101000a81548173ffffffffffffffffffffffffffffffffffffffff021916908373ffffffffffffffffffffffffffffffffffffffff1602179055506080820151816004015560a08201518160050160006101000a81548160ff02191690831515021790555090505081600960008581526020019081526020016000206003018190555060016009600085815260200190815260200160002060040160006101000a81548160ff0219169083151502179055506115ab333085600160405180602001604052806000815250612a61565b505050565b606060006115be6003613180565b905060008060005b8381101561161b576000600960006001846115e191906153ba565b815260200190815260200160002060000154146116085760018361160591906153ba565b92505b80806116139061543f565b9150506115c6565b5060008267ffffffffffffffff8111156116385761163761446e565b5b60405190808252806020026020018201604052801561167157816020015b61165e613eee565b8152602001906001900390816116565790505b50905060005b848110156117c45760006009600060018461169291906153ba565b815260200190815260200160002060000154146117b1576000600960006001846116bc91906153ba565b81526020019081526020016000209050806040518060c001604052908160008201548152602001600182015481526020016002820160009054906101000a900473ffffffffffffffffffffffffffffffffffffffff1673ffffffffffffffffffffffffffffffffffffffff1673ffffffffffffffffffffffffffffffffffffffff168152602001600382015481526020016004820160009054906101000a900460ff161515151581526020016004820160019054906101000a900460ff16151515158152505083858151811061179557611794615410565b5b60200260200101819052506001846117ad91906153ba565b9350505b80806117bc9061543f565b915050611677565b508094505050505090565b60608151835114611815576040517f08c379a000000000000000000000000000000000000000000000000000000000815260040161180c90615750565b60405180910390fd5b6000835167ffffffffffffffff8111156118325761183161446e565b5b6040519080825280602002602001820160405280156118605781602001602082028036833780820191505090505b50905060005b84518110156118dd576118ad85828151811061188557611884615410565b5b60200260200101518583815181106118a05761189f615410565b5b6020026020010151610756565b8282815181106118c0576118bf615410565b5b602002602001018181525050806118d69061543f565b9050611866565b508091505092915050565b6118f0613eee565b6000600960008481526020019081526020016000206040518060c001604052908160008201548152602001600182015481526020016002820160009054906101000a900473ffffffffffffffffffffffffffffffffffffffff1673ffffffffffffffffffffffffffffffffffffffff1673ffffffffffffffffffffffffffffffffffffffff168152602001600382015481526020016004820160009054906101000a900460ff161515151581526020016004820160019054906101000a900460ff161515151581525050905080915050919050565b806007600084815260200190815260200160002090805190602001906119ec929190613f3e565b505050565b6119f9613fc4565b600060086000848152602001908152602001600020604051806040016040529081600082015481526020016001820160009054906101000a900473ffffffffffffffffffffffffffffffffffffffff1673ffffffffffffffffffffffffffffffffffffffff1673ffffffffffffffffffffffffffffffffffffffff1681525050905080915050919050565b60005b82811015611c4257611a99600361372c565b6000611aa56003613180565b9050611ac33382600160405180602001604052806000815250613742565b611acd81876119c5565b6040518060c001604052808281526020018681526020013373ffffffffffffffffffffffffffffffffffffffff1681526020018481526020016000151581526020016001151581525060096000838152602001908152602001600020600082015181600001556020820151816001015560408201518160020160006101000a81548173ffffffffffffffffffffffffffffffffffffffff021916908373ffffffffffffffffffffffffffffffffffffffff1602179055506060820151816003015560808201518160040160006101000a81548160ff02191690831515021790555060a08201518160040160016101000a81548160ff021916908315150217905550905050600a600086815260200190815260200160002060405180602001604052808381525090806001815401808255809150506001900390600052602060002001600090919091909150600082015181600001555050611c2e8184611307565b508080611c3a9061543f565b915050611a87565b5050505050565b611c53600361372c565b6000611c5f6003613180565b9050611c7d3382600160405180602001604052806000815250613742565b611c8781836119c5565b60405180604001604052808281526020013373ffffffffffffffffffffffffffffffffffffffff16815250600860008381526020019081526020016000206000820151816000015560208201518160010160006101000a81548173ffffffffffffffffffffffffffffffffffffffff021916908373ffffffffffffffffffffffffffffffffffffffff160217905550905050600c60003373ffffffffffffffffffffffffffffffffffffffff1673ffffffffffffffffffffffffffffffffffffffff168152602001908152602001600020600860008381526020019081526020016000209080600181540180825580915050600190039060005260206000209060020201600090919091909150600082015481600001556001820160009054906101000a900473ffffffffffffffffffffffffffffffffffffffff168160010160006101000a81548173ffffffffffffffffffffffffffffffffffffffff021916908373ffffffffffffffffffffffffffffffffffffffff16021790555050505050565b611e1d611e1661318e565b83836138d8565b5050565b600063bc197c8160e01b905095945050505050565b60606000611e446003613180565b905060008060005b83811015611ea157600060086000600184611e6791906153ba565b81526020019081526020016000206000015414611e8e57600183611e8b91906153ba565b92505b8080611e999061543f565b915050611e4c565b5060008267ffffffffffffffff811115611ebe57611ebd61446e565b5b604051908082528060200260200182016040528015611ef757816020015b611ee4613fc4565b815260200190600190039081611edc5790505b50905060005b8481101561200057600060086000600184611f1891906153ba565b81526020019081526020016000206000015414611fed57600060086000600184611f4291906153ba565b8152602001908152602001600020905080604051806040016040529081600082015481526020016001820160009054906101000a900473ffffffffffffffffffffffffffffffffffffffff1673ffffffffffffffffffffffffffffffffffffffff1673ffffffffffffffffffffffffffffffffffffffff1681525050838581518110611fd157611fd0615410565b5b6020026020010181905250600184611fe991906153ba565b9350505b8080611ff89061543f565b915050611efd565b508094505050505090565b606060006120196003613180565b905060008085156120ce5760005b838110156120c8578773ffffffffffffffffffffffffffffffffffffffff166009600060018461205791906153ba565b815260200190815260200160002060020160009054906101000a900473ffffffffffffffffffffffffffffffffffffffff1673ffffffffffffffffffffffffffffffffffffffff1614156120b5576001836120b291906153ba565b92505b80806120c09061543f565b915050612027565b50612344565b841561220d5760005b83811015612207578773ffffffffffffffffffffffffffffffffffffffff16600860006009600060018661210b91906153ba565b815260200190815260200160002060010154815260200190815260200160002060010160009054906101000a900473ffffffffffffffffffffffffffffffffffffffff1673ffffffffffffffffffffffffffffffffffffffff161480156121df57508773ffffffffffffffffffffffffffffffffffffffff166009600060018461219591906153ba565b815260200190815260200160002060020160009054906101000a900473ffffffffffffffffffffffffffffffffffffffff1673ffffffffffffffffffffffffffffffffffffffff16145b156121f4576001836121f191906153ba565b92505b80806121ff9061543f565b9150506120d7565b50612343565b60005b83811015612341578773ffffffffffffffffffffffffffffffffffffffff16600860006009600060018661224491906153ba565b815260200190815260200160002060010154815260200190815260200160002060010160009054906101000a900473ffffffffffffffffffffffffffffffffffffffff1673ffffffffffffffffffffffffffffffffffffffff161415801561231957508773ffffffffffffffffffffffffffffffffffffffff16600960006001846122cf91906153ba565b815260200190815260200160002060020160009054906101000a900473ffffffffffffffffffffffffffffffffffffffff1673ffffffffffffffffffffffffffffffffffffffff16145b1561232e5760018361232b91906153ba565b92505b80806123399061543f565b915050612210565b505b5b60008267ffffffffffffffff8111156123605761235f61446e565b5b60405190808252806020026020018201604052801561239957816020015b612386613eee565b81526020019060019003908161237e5790505b50905086156125445760005b8481101561253e578873ffffffffffffffffffffffffffffffffffffffff16600960006001846123d591906153ba565b815260200190815260200160002060020160009054906101000a900473ffffffffffffffffffffffffffffffffffffffff1673ffffffffffffffffffffffffffffffffffffffff16141561252b5760006009600060018461243691906153ba565b81526020019081526020016000209050806040518060c001604052908160008201548152602001600182015481526020016002820160009054906101000a900473ffffffffffffffffffffffffffffffffffffffff1673ffffffffffffffffffffffffffffffffffffffff1673ffffffffffffffffffffffffffffffffffffffff168152602001600382015481526020016004820160009054906101000a900460ff161515151581526020016004820160019054906101000a900460ff16151515158152505083858151811061250f5761250e615410565b5b602002602001018190525060018461252791906153ba565b9350505b80806125369061543f565b9150506123a5565b506129aa565b851561277b5760005b84811015612775578873ffffffffffffffffffffffffffffffffffffffff16600860006009600060018661258191906153ba565b815260200190815260200160002060010154815260200190815260200160002060010160009054906101000a900473ffffffffffffffffffffffffffffffffffffffff1673ffffffffffffffffffffffffffffffffffffffff1614801561265557508873ffffffffffffffffffffffffffffffffffffffff166009600060018461260b91906153ba565b815260200190815260200160002060020160009054906101000a900473ffffffffffffffffffffffffffffffffffffffff1673ffffffffffffffffffffffffffffffffffffffff16145b156127625760006009600060018461266d91906153ba565b81526020019081526020016000209050806040518060c001604052908160008201548152602001600182015481526020016002820160009054906101000a900473ffffffffffffffffffffffffffffffffffffffff1673ffffffffffffffffffffffffffffffffffffffff1673ffffffffffffffffffffffffffffffffffffffff168152602001600382015481526020016004820160009054906101000a900460ff161515151581526020016004820160019054906101000a900460ff16151515158152505083858151811061274657612745615410565b5b602002602001018190525060018461275e91906153ba565b9350505b808061276d9061543f565b91505061254d565b506129a9565b60005b848110156129a7578873ffffffffffffffffffffffffffffffffffffffff1660086000600960006001866127b291906153ba565b815260200190815260200160002060010154815260200190815260200160002060010160009054906101000a900473ffffffffffffffffffffffffffffffffffffffff1673ffffffffffffffffffffffffffffffffffffffff161415801561288757508873ffffffffffffffffffffffffffffffffffffffff166009600060018461283d91906153ba565b815260200190815260200160002060020160009054906101000a900473ffffffffffffffffffffffffffffffffffffffff1673ffffffffffffffffffffffffffffffffffffffff16145b156129945760006009600060018461289f91906153ba565b81526020019081526020016000209050806040518060c001604052908160008201548152602001600182015481526020016002820160009054906101000a900473ffffffffffffffffffffffffffffffffffffffff1673ffffffffffffffffffffffffffffffffffffffff1673ffffffffffffffffffffffffffffffffffffffff168152602001600382015481526020016004820160009054906101000a900460ff161515151581526020016004820160019054906101000a900460ff16151515158152505083858151811061297857612977615410565b5b602002602001018190525060018461299091906153ba565b9350505b808061299f9061543f565b91505061277e565b505b5b809450505050509392505050565b6000600160008473ffffffffffffffffffffffffffffffffffffffff1673ffffffffffffffffffffffffffffffffffffffff16815260200190815260200160002060008373ffffffffffffffffffffffffffffffffffffffff1673ffffffffffffffffffffffffffffffffffffffff16815260200190815260200160002060009054906101000a900460ff16905092915050565b600063f23a6e6160e01b905095945050505050565b612a6961318e565b73ffffffffffffffffffffffffffffffffffffffff168573ffffffffffffffffffffffffffffffffffffffff161480612aaf5750612aae85612aa961318e565b6129b8565b5b612aee576040517f08c379a0000000000000000000000000000000000000000000000000000000008152600401612ae5906157e2565b60405180910390fd5b612afb85858585856134aa565b5050505050565b60606000806000600c60008673ffffffffffffffffffffffffffffffffffffffff1673ffffffffffffffffffffffffffffffffffffffff168152602001908152602001600020805480602002602001604051908101604052809291908181526020016000905b82821015612bfa5783829060005260206000209060020201604051806040016040529081600082015481526020016001820160009054906101000a900473ffffffffffffffffffffffffffffffffffffffff1673ffffffffffffffffffffffffffffffffffffffff1673ffffffffffffffffffffffffffffffffffffffff168152505081526020019060010190612b68565b50505050905060005b8151811015612c67576000600a6000848481518110612c2557612c24615410565b5b60200260200101516000015181526020019081526020016000208054905090508085612c5191906153ba565b9450508080612c5f9061543f565b915050612c03565b5060008367ffffffffffffffff811115612c8457612c8361446e565b5b604051908082528060200260200182016040528015612cbd57816020015b612caa613ff4565b815260200190600190039081612ca25790505b50905060005b8251811015612d97576000600a6000858481518110612ce557612ce4615410565b5b6020026020010151600001518152602001908152602001600020905060005b8180549050811015612d8257818181548110612d2357612d22615410565b5b90600052602060002001604051806020016040529081600082015481525050848781518110612d5557612d54615410565b5b6020026020010181905250600186612d6d91906153ba565b95508080612d7a9061543f565b915050612d04565b50508080612d8f9061543f565b915050612cc3565b5080945050505050919050565b60606000612db26004613180565b905060008060005b83811015612e5b578573ffffffffffffffffffffffffffffffffffffffff16600b6000600184612dea91906153ba565b815260200190815260200160002060020160009054906101000a900473ffffffffffffffffffffffffffffffffffffffff1673ffffffffffffffffffffffffffffffffffffffff161415612e4857600183612e4591906153ba565b92505b8080612e539061543f565b915050612dba565b5060008267ffffffffffffffff811115612e7857612e7761446e565b5b604051908082528060200260200182016040528015612eb157816020015b612e9e613e8a565b815260200190600190039081612e965790505b50905060005b8481101561308b578673ffffffffffffffffffffffffffffffffffffffff16600b6000600184612ee791906153ba565b815260200190815260200160002060020160009054906101000a900473ffffffffffffffffffffffffffffffffffffffff1673ffffffffffffffffffffffffffffffffffffffff161415613078576000600b6000600184612f4891906153ba565b81526020019081526020016000209050806040518060c001604052908160008201548152602001600182015481526020016002820160009054906101000a900473ffffffffffffffffffffffffffffffffffffffff1673ffffffffffffffffffffffffffffffffffffffff1673ffffffffffffffffffffffffffffffffffffffff1681526020016003820160009054906101000a900473ffffffffffffffffffffffffffffffffffffffff1673ffffffffffffffffffffffffffffffffffffffff1673ffffffffffffffffffffffffffffffffffffffff168152602001600482015481526020016005820160009054906101000a900460ff16151515158152505083858151811061305c5761305b615410565b5b602002602001018190525060018461307491906153ba565b9350505b80806130839061543f565b915050612eb7565b5080945050505050919050565b60606000600a6000848152602001908152602001600020805480602002602001604051908101604052809291908181526020016000905b8282101561310757838290600052602060002001604051806020016040529081600082015481525050815260200190600101906130cf565b50505050905080915050919050565b60007f01ffc9a7000000000000000000000000000000000000000000000000000000007bffffffffffffffffffffffffffffffffffffffffffffffffffffffff1916827bffffffffffffffffffffffffffffffffffffffffffffffffffffffff1916149050919050565b600081600001549050919050565b600033905090565b81518351146131da576040517f08c379a00000000000000000000000000000000000000000000000000000000081526004016131d190615874565b60405180910390fd5b600073ffffffffffffffffffffffffffffffffffffffff168473ffffffffffffffffffffffffffffffffffffffff16141561324a576040517f08c379a000000000000000000000000000000000000000000000000000000000815260040161324190615906565b60405180910390fd5b600061325461318e565b9050613264818787878787613a45565b60005b845181101561341557600085828151811061328557613284615410565b5b6020026020010151905060008583815181106132a4576132a3615410565b5b60200260200101519050600080600084815260200190815260200160002060008b73ffffffffffffffffffffffffffffffffffffffff1673ffffffffffffffffffffffffffffffffffffffff16815260200190815260200160002054905081811015613345576040517f08c379a000000000000000000000000000000000000000000000000000000000815260040161333c90615998565b60405180910390fd5b81810360008085815260200190815260200160002060008c73ffffffffffffffffffffffffffffffffffffffff1673ffffffffffffffffffffffffffffffffffffffff168152602001908152602001600020819055508160008085815260200190815260200160002060008b73ffffffffffffffffffffffffffffffffffffffff1673ffffffffffffffffffffffffffffffffffffffff16815260200190815260200160002060008282546133fa91906153ba565b925050819055505050508061340e9061543f565b9050613267565b508473ffffffffffffffffffffffffffffffffffffffff168673ffffffffffffffffffffffffffffffffffffffff168273ffffffffffffffffffffffffffffffffffffffff167f4a39dc06d4c0dbc64b70af90fd698a233a518aa5d07e595d983b8c0526c8f7fb878760405161348c9291906159b8565b60405180910390a46134a2818787878787613a4d565b505050505050565b600073ffffffffffffffffffffffffffffffffffffffff168473ffffffffffffffffffffffffffffffffffffffff16141561351a576040517f08c379a000000000000000000000000000000000000000000000000000000000815260040161351190615906565b60405180910390fd5b600061352461318e565b905061354481878761353588613c25565b61353e88613c25565b87613a45565b600080600086815260200190815260200160002060008873ffffffffffffffffffffffffffffffffffffffff1673ffffffffffffffffffffffffffffffffffffffff168152602001908152602001600020549050838110156135db576040517f08c379a00000000000000000000000000000000000000000000000000000000081526004016135d290615998565b60405180910390fd5b83810360008087815260200190815260200160002060008973ffffffffffffffffffffffffffffffffffffffff1673ffffffffffffffffffffffffffffffffffffffff168152602001908152602001600020819055508360008087815260200190815260200160002060008873ffffffffffffffffffffffffffffffffffffffff1673ffffffffffffffffffffffffffffffffffffffff168152602001908152602001600020600082825461369091906153ba565b925050819055508573ffffffffffffffffffffffffffffffffffffffff168773ffffffffffffffffffffffffffffffffffffffff168373ffffffffffffffffffffffffffffffffffffffff167fc3d58168c5ae7397731d063d5bbf3d657854427343f4c083240f7aacaa2d0f62888860405161370d9291906159ef565b60405180910390a4613723828888888888613c9f565b50505050505050565b6001816000016000828254019250508190555050565b600073ffffffffffffffffffffffffffffffffffffffff168473ffffffffffffffffffffffffffffffffffffffff1614156137b2576040517f08c379a00000000000000000000000000000000000000000000000000000000081526004016137a990615a8a565b60405180910390fd5b60006137bc61318e565b90506137dd816000876137ce88613c25565b6137d788613c25565b87613a45565b8260008086815260200190815260200160002060008773ffffffffffffffffffffffffffffffffffffffff1673ffffffffffffffffffffffffffffffffffffffff168152602001908152602001600020600082825461383c91906153ba565b925050819055508473ffffffffffffffffffffffffffffffffffffffff16600073ffffffffffffffffffffffffffffffffffffffff168273ffffffffffffffffffffffffffffffffffffffff167fc3d58168c5ae7397731d063d5bbf3d657854427343f4c083240f7aacaa2d0f6287876040516138ba9291906159ef565b60405180910390a46138d181600087878787613c9f565b5050505050565b8173ffffffffffffffffffffffffffffffffffffffff168373ffffffffffffffffffffffffffffffffffffffff161415613947576040517f08c379a000000000000000000000000000000000000000000000000000000000815260040161393e90615b1c565b60405180910390fd5b80600160008573ffffffffffffffffffffffffffffffffffffffff1673ffffffffffffffffffffffffffffffffffffffff16815260200190815260200160002060008473ffffffffffffffffffffffffffffffffffffffff1673ffffffffffffffffffffffffffffffffffffffff16815260200190815260200160002060006101000a81548160ff0219169083151502179055508173ffffffffffffffffffffffffffffffffffffffff168373ffffffffffffffffffffffffffffffffffffffff167f17307eab39ab6107e8899845ad3d59bd9653f200f220920489ca2b5937696c3183604051613a3891906141d6565b60405180910390a3505050565b505050505050565b613a6c8473ffffffffffffffffffffffffffffffffffffffff16613e77565b15613c1d578373ffffffffffffffffffffffffffffffffffffffff1663bc197c8187878686866040518663ffffffff1660e01b8152600401613ab2959493929190615ba0565b6020604051808303816000875af1925050508015613aee57506040513d601f19601f82011682018060405250810190613aeb9190615c1d565b60015b613b9457613afa615c57565b806308c379a01415613b575750613b0f615c79565b80613b1a5750613b59565b806040517f08c379a0000000000000000000000000000000000000000000000000000000008152600401613b4e91906142b7565b60405180910390fd5b505b6040517f08c379a0000000000000000000000000000000000000000000000000000000008152600401613b8b90615d81565b60405180910390fd5b63bc197c8160e01b7bffffffffffffffffffffffffffffffffffffffffffffffffffffffff1916817bffffffffffffffffffffffffffffffffffffffffffffffffffffffff191614613c1b576040517f08c379a0000000000000000000000000000000000000000000000000000000008152600401613c1290615e13565b60405180910390fd5b505b505050505050565b60606000600167ffffffffffffffff811115613c4457613c4361446e565b5b604051908082528060200260200182016040528015613c725781602001602082028036833780820191505090505b5090508281600081518110613c8a57613c89615410565b5b60200260200101818152505080915050919050565b613cbe8473ffffffffffffffffffffffffffffffffffffffff16613e77565b15613e6f578373ffffffffffffffffffffffffffffffffffffffff1663f23a6e6187878686866040518663ffffffff1660e01b8152600401613d04959493929190615e33565b6020604051808303816000875af1925050508015613d4057506040513d601f19601f82011682018060405250810190613d3d9190615c1d565b60015b613de657613d4c615c57565b806308c379a01415613da95750613d61615c79565b80613d6c5750613dab565b806040517f08c379a0000000000000000000000000000000000000000000000000000000008152600401613da091906142b7565b60405180910390fd5b505b6040517f08c379a0000000000000000000000000000000000000000000000000000000008152600401613ddd90615d81565b60405180910390fd5b63f23a6e6160e01b7bffffffffffffffffffffffffffffffffffffffffffffffffffffffff1916817bffffffffffffffffffffffffffffffffffffffffffffffffffffffff191614613e6d576040517f08c379a0000000000000000000000000000000000000000000000000000000008152600401613e6490615e13565b60405180910390fd5b505b505050505050565b600080823b905060008111915050919050565b6040518060c001604052806000815260200160008152602001600073ffffffffffffffffffffffffffffffffffffffff168152602001600073ffffffffffffffffffffffffffffffffffffffff168152602001600081526020016000151581525090565b6040518060c001604052806000815260200160008152602001600073ffffffffffffffffffffffffffffffffffffffff168152602001600081526020016000151581526020016000151581525090565b828054613f4a90615325565b90600052602060002090601f016020900481019282613f6c5760008555613fb3565b82601f10613f8557805160ff1916838001178555613fb3565b82800160010185558215613fb3579182015b82811115613fb2578251825591602001919060010190613f97565b5b509050613fc09190614007565b5090565b604051806040016040528060008152602001600073ffffffffffffffffffffffffffffffffffffffff1681525090565b6040518060200160405280600081525090565b5b80821115614020576000816000905550600101614008565b5090565b6000604051905090565b600080fd5b600080fd5b600073ffffffffffffffffffffffffffffffffffffffff82169050919050565b600061406382614038565b9050919050565b61407381614058565b811461407e57600080fd5b50565b6000813590506140908161406a565b92915050565b6000819050919050565b6140a981614096565b81146140b457600080fd5b50565b6000813590506140c6816140a0565b92915050565b600080604083850312156140e3576140e261402e565b5b60006140f185828601614081565b9250506020614102858286016140b7565b9150509250929050565b61411581614096565b82525050565b6000602082019050614130600083018461410c565b92915050565b60007fffffffff0000000000000000000000000000000000000000000000000000000082169050919050565b61416b81614136565b811461417657600080fd5b50565b60008135905061418881614162565b92915050565b6000602082840312156141a4576141a361402e565b5b60006141b284828501614179565b91505092915050565b60008115159050919050565b6141d0816141bb565b82525050565b60006020820190506141eb60008301846141c7565b92915050565b6000602082840312156142075761420661402e565b5b6000614215848285016140b7565b91505092915050565b600081519050919050565b600082825260208201905092915050565b60005b8381101561425857808201518184015260208101905061423d565b83811115614267576000848401525b50505050565b6000601f19601f8301169050919050565b60006142898261421e565b6142938185614229565b93506142a381856020860161423a565b6142ac8161426d565b840191505092915050565b600060208201905081810360008301526142d1818461427e565b905092915050565b600081519050919050565b600082825260208201905092915050565b6000819050602082019050919050565b61430e81614096565b82525050565b600061431f82614038565b9050919050565b61432f81614314565b82525050565b61433e816141bb565b82525050565b60c08201600082015161435a6000850182614305565b50602082015161436d6020850182614305565b5060408201516143806040850182614326565b5060608201516143936060850182614326565b5060808201516143a66080850182614305565b5060a08201516143b960a0850182614335565b50505050565b60006143cb8383614344565b60c08301905092915050565b6000602082019050919050565b60006143ef826142d9565b6143f981856142e4565b9350614404836142f5565b8060005b8381101561443557815161441c88826143bf565b9750614427836143d7565b925050600181019050614408565b5085935050505092915050565b6000602082019050818103600083015261445c81846143e4565b905092915050565b600080fd5b600080fd5b7f4e487b7100000000000000000000000000000000000000000000000000000000600052604160045260246000fd5b6144a68261426d565b810181811067ffffffffffffffff821117156144c5576144c461446e565b5b80604052505050565b60006144d8614024565b90506144e4828261449d565b919050565b600067ffffffffffffffff8211156145045761450361446e565b5b61450d8261426d565b9050602081019050919050565b82818337600083830152505050565b600061453c614537846144e9565b6144ce565b90508281526020810184848401111561455857614557614469565b5b61456384828561451a565b509392505050565b600082601f8301126145805761457f614464565b5b8135614590848260208601614529565b91505092915050565b600080600080608085870312156145b3576145b261402e565b5b60006145c187828801614081565b94505060206145d287828801614081565b93505060406145e3878288016140b7565b925050606085013567ffffffffffffffff81111561460457614603614033565b5b6146108782880161456b565b91505092959194509250565b61462581614136565b82525050565b6000602082019050614640600083018461461c565b92915050565b60c08201600082015161465c6000850182614305565b50602082015161466f6020850182614305565b5060408201516146826040850182614326565b5060608201516146956060850182614326565b5060808201516146a86080850182614305565b5060a08201516146bb60a0850182614335565b50505050565b600060c0820190506146d66000830184614646565b92915050565b600067ffffffffffffffff8211156146f7576146f661446e565b5b602082029050602081019050919050565b600080fd5b600061472061471b846146dc565b6144ce565b9050808382526020820190506020840283018581111561474357614742614708565b5b835b8181101561476c578061475888826140b7565b845260208401935050602081019050614745565b5050509392505050565b600082601f83011261478b5761478a614464565b5b813561479b84826020860161470d565b91505092915050565b600080600080600060a086880312156147c0576147bf61402e565b5b60006147ce88828901614081565b95505060206147df88828901614081565b945050604086013567ffffffffffffffff811115614800576147ff614033565b5b61480c88828901614776565b935050606086013567ffffffffffffffff81111561482d5761482c614033565b5b61483988828901614776565b925050608086013567ffffffffffffffff81111561485a57614859614033565b5b6148668882890161456b565b9150509295509295909350565b6000602082840312156148895761488861402e565b5b600061489784828501614081565b91505092915050565b600081519050919050565b600082825260208201905092915050565b6000819050602082019050919050565b6040820160008201516148e26000850182614305565b5060208201516148f56020850182614326565b50505050565b600061490783836148cc565b60408301905092915050565b6000602082019050919050565b600061492b826148a0565b61493581856148ab565b9350614940836148bc565b8060005b8381101561497157815161495888826148fb565b975061496383614913565b925050600181019050614944565b5085935050505092915050565b600060208201905081810360008301526149988184614920565b905092915050565b600080604083850312156149b7576149b661402e565b5b60006149c5858286016140b7565b92505060206149d6858286016140b7565b9150509250929050565b600081519050919050565b600082825260208201905092915050565b6000819050602082019050919050565b60c082016000820151614a226000850182614305565b506020820151614a356020850182614305565b506040820151614a486040850182614326565b506060820151614a5b6060850182614305565b506080820151614a6e6080850182614335565b5060a0820151614a8160a0850182614335565b50505050565b6000614a938383614a0c565b60c08301905092915050565b6000602082019050919050565b6000614ab7826149e0565b614ac181856149eb565b9350614acc836149fc565b8060005b83811015614afd578151614ae48882614a87565b9750614aef83614a9f565b925050600181019050614ad0565b5085935050505092915050565b60006020820190508181036000830152614b248184614aac565b905092915050565b600067ffffffffffffffff821115614b4757614b4661446e565b5b602082029050602081019050919050565b6000614b6b614b6684614b2c565b6144ce565b90508083825260208201905060208402830185811115614b8e57614b8d614708565b5b835b81811015614bb75780614ba38882614081565b845260208401935050602081019050614b90565b5050509392505050565b600082601f830112614bd657614bd5614464565b5b8135614be6848260208601614b58565b91505092915050565b60008060408385031215614c0657614c0561402e565b5b600083013567ffffffffffffffff811115614c2457614c23614033565b5b614c3085828601614bc1565b925050602083013567ffffffffffffffff811115614c5157614c50614033565b5b614c5d85828601614776565b9150509250929050565b600081519050919050565b600082825260208201905092915050565b6000819050602082019050919050565b6000614c9f8383614305565b60208301905092915050565b6000602082019050919050565b6000614cc382614c67565b614ccd8185614c72565b9350614cd883614c83565b8060005b83811015614d09578151614cf08882614c93565b9750614cfb83614cab565b925050600181019050614cdc565b5085935050505092915050565b60006020820190508181036000830152614d308184614cb8565b905092915050565b60c082016000820151614d4e6000850182614305565b506020820151614d616020850182614305565b506040820151614d746040850182614326565b506060820151614d876060850182614305565b506080820151614d9a6080850182614335565b5060a0820151614dad60a0850182614335565b50505050565b600060c082019050614dc86000830184614d38565b92915050565b600067ffffffffffffffff821115614de957614de861446e565b5b614df28261426d565b9050602081019050919050565b6000614e12614e0d84614dce565b6144ce565b905082815260208101848484011115614e2e57614e2d614469565b5b614e3984828561451a565b509392505050565b600082601f830112614e5657614e55614464565b5b8135614e66848260208601614dff565b91505092915050565b60008060408385031215614e8657614e8561402e565b5b6000614e94858286016140b7565b925050602083013567ffffffffffffffff811115614eb557614eb4614033565b5b614ec185828601614e41565b9150509250929050565b604082016000820151614ee16000850182614305565b506020820151614ef46020850182614326565b50505050565b6000604082019050614f0f6000830184614ecb565b92915050565b60008060008060808587031215614f2f57614f2e61402e565b5b600085013567ffffffffffffffff811115614f4d57614f4c614033565b5b614f5987828801614e41565b9450506020614f6a878288016140b7565b9350506040614f7b878288016140b7565b9250506060614f8c878288016140b7565b91505092959194509250565b600060208284031215614fae57614fad61402e565b5b600082013567ffffffffffffffff811115614fcc57614fcb614033565b5b614fd884828501614e41565b91505092915050565b614fea816141bb565b8114614ff557600080fd5b50565b60008135905061500781614fe1565b92915050565b600080604083850312156150245761502361402e565b5b600061503285828601614081565b925050602061504385828601614ff8565b9150509250929050565b6000806000606084860312156150665761506561402e565b5b600061507486828701614081565b935050602061508586828701614ff8565b925050604061509686828701614ff8565b9150509250925092565b600080604083850312156150b7576150b661402e565b5b60006150c585828601614081565b92505060206150d685828601614081565b9150509250929050565b600080600080600060a086880312156150fc576150fb61402e565b5b600061510a88828901614081565b955050602061511b88828901614081565b945050604061512c888289016140b7565b935050606061513d888289016140b7565b925050608086013567ffffffffffffffff81111561515e5761515d614033565b5b61516a8882890161456b565b9150509295509295909350565b600081519050919050565b600082825260208201905092915050565b6000819050602082019050919050565b6020820160008201516151b96000850182614305565b50505050565b60006151cb83836151a3565b60208301905092915050565b6000602082019050919050565b60006151ef82615177565b6151f98185615182565b935061520483615193565b8060005b8381101561523557815161521c88826151bf565b9750615227836151d7565b925050600181019050615208565b5085935050505092915050565b6000602082019050818103600083015261525c81846151e4565b905092915050565b7f455243313135353a2062616c616e636520717565727920666f7220746865207a60008201527f65726f2061646472657373000000000000000000000000000000000000000000602082015250565b60006152c0602b83614229565b91506152cb82615264565b604082019050919050565b600060208201905081810360008301526152ef816152b3565b9050919050565b7f4e487b7100000000000000000000000000000000000000000000000000000000600052602260045260246000fd5b6000600282049050600182168061533d57607f821691505b60208210811415615351576153506152f6565b5b50919050565b7f4e487b7100000000000000000000000000000000000000000000000000000000600052601160045260246000fd5b600061539182614096565b915061539c83614096565b9250828210156153af576153ae615357565b5b828203905092915050565b60006153c582614096565b91506153d083614096565b9250827fffffffffffffffffffffffffffffffffffffffffffffffffffffffffffffffff0382111561540557615404615357565b5b828201905092915050565b7f4e487b7100000000000000000000000000000000000000000000000000000000600052603260045260246000fd5b600061544a82614096565b91507fffffffffffffffffffffffffffffffffffffffffffffffffffffffffffffffff82141561547d5761547c615357565b5b600182019050919050565b7f455243313135353a207472616e736665722063616c6c6572206973206e6f742060008201527f6f776e6572206e6f7220617070726f7665640000000000000000000000000000602082015250565b60006154e4603283614229565b91506154ef82615488565b604082019050919050565b60006020820190508181036000830152615513816154d7565b9050919050565b7f4f6e6c7920666f7220746865206f776e6572206f662074686973207469636b6560008201527f7421000000000000000000000000000000000000000000000000000000000000602082015250565b6000615576602283614229565b91506155818261551a565b604082019050919050565b600060208201905081810360008301526155a581615569565b9050919050565b60006155b782614096565b91506155c283614096565b9250817fffffffffffffffffffffffffffffffffffffffffffffffffffffffffffffffff04831182151516156155fb576155fa615357565b5b828202905092915050565b7f6d73672e76616c756520213d207072696365202a2a20646563696d616c730000600082015250565b600061563c601e83614229565b915061564782615606565b602082019050919050565b6000602082019050818103600083015261566b8161562f565b9050919050565b7f5072696365206d757374206265206174206c6561737420312077656900000000600082015250565b60006156a8601c83614229565b91506156b382615672565b602082019050919050565b600060208201905081810360008301526156d78161569b565b9050919050565b7f455243313135353a206163636f756e747320616e6420696473206c656e67746860008201527f206d69736d617463680000000000000000000000000000000000000000000000602082015250565b600061573a602983614229565b9150615745826156de565b604082019050919050565b600060208201905081810360008301526157698161572d565b9050919050565b7f455243313135353a2063616c6c6572206973206e6f74206f776e6572206e6f7260008201527f20617070726f7665640000000000000000000000000000000000000000000000602082015250565b60006157cc602983614229565b91506157d782615770565b604082019050919050565b600060208201905081810360008301526157fb816157bf565b9050919050565b7f455243313135353a2069647320616e6420616d6f756e7473206c656e6774682060008201527f6d69736d61746368000000000000000000000000000000000000000000000000602082015250565b600061585e602883614229565b915061586982615802565b604082019050919050565b6000602082019050818103600083015261588d81615851565b9050919050565b7f455243313135353a207472616e7366657220746f20746865207a65726f20616460008201527f6472657373000000000000000000000000000000000000000000000000000000602082015250565b60006158f0602583614229565b91506158fb82615894565b604082019050919050565b6000602082019050818103600083015261591f816158e3565b9050919050565b7f455243313135353a20696e73756666696369656e742062616c616e636520666f60008201527f72207472616e7366657200000000000000000000000000000000000000000000602082015250565b6000615982602a83614229565b915061598d82615926565b604082019050919050565b600060208201905081810360008301526159b181615975565b9050919050565b600060408201905081810360008301526159d28185614cb8565b905081810360208301526159e68184614cb8565b90509392505050565b6000604082019050615a04600083018561410c565b615a11602083018461410c565b9392505050565b7f455243313135353a206d696e7420746f20746865207a65726f2061646472657360008201527f7300000000000000000000000000000000000000000000000000000000000000602082015250565b6000615a74602183614229565b9150615a7f82615a18565b604082019050919050565b60006020820190508181036000830152615aa381615a67565b9050919050565b7f455243313135353a2073657474696e6720617070726f76616c2073746174757360008201527f20666f722073656c660000000000000000000000000000000000000000000000602082015250565b6000615b06602983614229565b9150615b1182615aaa565b604082019050919050565b60006020820190508181036000830152615b3581615af9565b9050919050565b615b4581614058565b82525050565b600081519050919050565b600082825260208201905092915050565b6000615b7282615b4b565b615b7c8185615b56565b9350615b8c81856020860161423a565b615b958161426d565b840191505092915050565b600060a082019050615bb56000830188615b3c565b615bc26020830187615b3c565b8181036040830152615bd48186614cb8565b90508181036060830152615be88185614cb8565b90508181036080830152615bfc8184615b67565b90509695505050505050565b600081519050615c1781614162565b92915050565b600060208284031215615c3357615c3261402e565b5b6000615c4184828501615c08565b91505092915050565b60008160e01c9050919050565b600060033d1115615c765760046000803e615c73600051615c4a565b90505b90565b600060443d1015615c8957615d0c565b615c91614024565b60043d036004823e80513d602482011167ffffffffffffffff82111715615cb9575050615d0c565b808201805167ffffffffffffffff811115615cd75750505050615d0c565b80602083010160043d038501811115615cf4575050505050615d0c565b615d038260200185018661449d565b82955050505050505b90565b7f455243313135353a207472616e7366657220746f206e6f6e204552433131353560008201527f526563656976657220696d706c656d656e746572000000000000000000000000602082015250565b6000615d6b603483614229565b9150615d7682615d0f565b604082019050919050565b60006020820190508181036000830152615d9a81615d5e565b9050919050565b7f455243313135353a204552433131353552656365697665722072656a6563746560008201527f6420746f6b656e73000000000000000000000000000000000000000000000000602082015250565b6000615dfd602883614229565b9150615e0882615da1565b604082019050919050565b60006020820190508181036000830152615e2c81615df0565b9050919050565b600060a082019050615e486000830188615b3c565b615e556020830187615b3c565b615e62604083018661410c565b615e6f606083018561410c565b8181036080830152615e818184615b67565b9050969550505050505056fea26469706673582212205339217510937966be3e1e8da7b4a0d32fb98b887e582d73be409f5bd5ed925364736f6c634300080b0033",
  "immutableReferences": {},
  "source": "// SPDX-License-Identifier: MIT\r\npragma solidity ^0.8.11;\r\n\r\nimport \"@openzeppelin/contracts/token/ERC1155/ERC1155.sol\";\r\nimport \"@openzeppelin/contracts/utils/Counters.sol\";\r\n\r\ncontract Event is ERC1155 {\r\n    using Counters for Counters.Counter;\r\n    Counters.Counter private _tokenIds;\r\n    Counters.Counter private _itemIds;\r\n    Counters.Counter private _itemsSold;\r\n    address payable owner;\r\n\r\n    constructor() ERC1155(\"\") {\r\n        owner = payable(msg.sender);\r\n    }\r\n\r\n    mapping(uint256 => string) private _uris;\r\n\r\n    struct Item {\r\n        uint256 tokenId;\r\n    }\r\n\r\n    struct EventItem {\r\n        uint256 tokenId;\r\n        address payable owner;\r\n    }\r\n\r\n    struct TicketItem {\r\n        uint256 tokenId;\r\n        uint256 eventTokenId;\r\n        address payable owner;\r\n        uint256 price;\r\n        bool list;\r\n        bool active;\r\n    }\r\n\r\n    struct MarketItem {\r\n        uint256 itemId;\r\n        uint256 tokenId;\r\n        address payable seller;\r\n        address payable owner;\r\n        uint256 price;\r\n        bool sold;\r\n    }\r\n\r\n    mapping(uint256 => EventItem) private eventToken;\r\n    mapping(uint256 => TicketItem) private ticketToken;\r\n    mapping(uint256 => Item[]) private ticketsInEvent;\r\n    mapping(uint256 => MarketItem) private ticketInMarket;\r\n\r\n    mapping(address => EventItem[]) private createdEvents;\r\n\r\n    function uri(uint256 tokenId) public view override returns (string memory) {\r\n        return (_uris[tokenId]);\r\n    }\r\n\r\n    function setTokenUri(uint256 tokenId, string memory tokenUri) public {\r\n        // require(bytes(_uris[tokenId]).length == 0, \"Cannot set uri twice\");\r\n        _uris[tokenId] = tokenUri;\r\n    }\r\n\r\n    function mintEvent(string memory tokenUri) public {\r\n        _tokenIds.increment();\r\n        uint256 newItemId = _tokenIds.current();\r\n\r\n        _mint(msg.sender, newItemId, 1, \"\");\r\n        setTokenUri(newItemId, tokenUri);\r\n        eventToken[newItemId] = EventItem(newItemId, payable(msg.sender));\r\n        createdEvents[msg.sender].push(eventToken[newItemId]);\r\n    }\r\n\r\n    function mintTicket(\r\n        string memory tokenUri,\r\n        uint256 eventTokenId,\r\n        uint256 quantity,\r\n        uint256 price\r\n    ) public {\r\n        for (uint256 i = 0; i < quantity; i++) {\r\n            _tokenIds.increment();\r\n            uint256 newItemId = _tokenIds.current();\r\n\r\n            _mint(msg.sender, newItemId, 1, \"\");\r\n            setTokenUri(newItemId, tokenUri);\r\n            ticketToken[newItemId] = TicketItem(\r\n                newItemId,\r\n                eventTokenId,\r\n                payable(msg.sender),\r\n                price,\r\n                false,\r\n                true\r\n            );\r\n            ticketsInEvent[eventTokenId].push(Item(newItemId));\r\n            createMarketItem(newItemId, price);\r\n        }\r\n    }\r\n\r\n    function createMarketItem(uint256 tokenId, uint256 price) public payable {\r\n        require(\r\n            msg.sender == ticketToken[tokenId].owner,\r\n            \"Only for the owner of this ticket!\"\r\n        );\r\n        require(price > 0, \"Price must be at least 1 wei\");\r\n\r\n        _itemIds.increment();\r\n        uint256 itemId = _itemIds.current();\r\n\r\n        ticketInMarket[itemId] = MarketItem(\r\n            itemId,\r\n            tokenId,\r\n            payable(msg.sender),\r\n            payable(msg.sender),\r\n            price,\r\n            false\r\n        );\r\n\r\n        ticketToken[tokenId].price = price;\r\n        ticketToken[tokenId].list = true;\r\n\r\n        safeTransferFrom(msg.sender, address(this), tokenId, 1, \"\");\r\n    }\r\n\r\n    function cancelListing(uint256 itemId) public payable {\r\n        require(\r\n            msg.sender == ticketInMarket[itemId].owner,\r\n            \"Only for the owner of this ticket!\"\r\n        );\r\n        uint256 tokenId = ticketInMarket[itemId].tokenId;\r\n        ticketToken[tokenId].price = 0;\r\n        ticketToken[tokenId].list = false;\r\n        delete ticketInMarket[itemId];\r\n        _safeTransferFrom(address(this), msg.sender, tokenId, 1, \"\");\r\n    }\r\n\r\n    function buyMarketItem(uint256 itemId) public payable {\r\n        uint256 price = ticketInMarket[itemId].price;\r\n        uint256 tokenId = ticketInMarket[itemId].tokenId;\r\n        require(\r\n            msg.value == price * (10**10),\r\n            \"msg.value != price ** decimals\"\r\n        );\r\n\r\n        ticketInMarket[itemId].seller.transfer(msg.value);\r\n        ticketInMarket[itemId].owner = payable(msg.sender);\r\n        ticketInMarket[itemId].sold = true;\r\n        ticketToken[tokenId].owner = payable(msg.sender);\r\n        ticketToken[tokenId].list = false;\r\n        _itemsSold.increment();\r\n\r\n        _safeTransferFrom(address(this), msg.sender, tokenId, 1, \"\");\r\n    }\r\n\r\n    function fetchMarketItem(uint256 tokenId)\r\n        public\r\n        view\r\n        returns (MarketItem memory)\r\n    {\r\n        uint256 itemCount = _itemIds.current();\r\n        MarketItem memory item;\r\n\r\n        for (uint256 i = 0; i < itemCount; i++) {\r\n            if (ticketInMarket[i + 1].tokenId == tokenId) {\r\n                uint256 currentId = i + 1;\r\n                item = ticketInMarket[currentId];\r\n            }\r\n        }\r\n        return item;\r\n    }\r\n\r\n    function fetchMarketItems() public view returns (MarketItem[] memory) {\r\n        uint256 itemCount = _itemIds.current();\r\n        uint256 unsoldItemCount = _itemIds.current() - _itemsSold.current();\r\n        uint256 currentIndex = 0;\r\n\r\n        MarketItem[] memory items = new MarketItem[](unsoldItemCount);\r\n        for (uint256 i = 0; i < itemCount; i++) {\r\n            if (!ticketInMarket[i + 1].sold) {\r\n                MarketItem storage currentItem = ticketInMarket[i + 1];\r\n                items[currentIndex] = currentItem;\r\n                currentIndex += 1;\r\n            }\r\n        }\r\n        return items;\r\n    }\r\n\r\n    function fetchOwnedListings(address account)\r\n        public\r\n        view\r\n        returns (MarketItem[] memory)\r\n    {\r\n        uint256 itemCount = _itemIds.current();\r\n        uint256 tokenCount = 0;\r\n        uint256 currentIndex = 0;\r\n\r\n        for (uint256 i = 0; i < itemCount; i++) {\r\n            if (ticketInMarket[i + 1].seller == account) {\r\n                tokenCount += 1;\r\n            }\r\n        }\r\n\r\n        MarketItem[] memory items = new MarketItem[](tokenCount);\r\n        for (uint256 i = 0; i < itemCount; i++) {\r\n            if (ticketInMarket[i + 1].seller == account) {\r\n                MarketItem storage currentItem = ticketInMarket[i + 1];\r\n                items[currentIndex] = currentItem;\r\n                currentIndex += 1;\r\n            }\r\n        }\r\n        return items;\r\n    }\r\n\r\n    function fetchCreatedEvents(address account)\r\n        public\r\n        view\r\n        returns (EventItem[] memory)\r\n    {\r\n        EventItem[] memory items = createdEvents[account];\r\n        return items;\r\n    }\r\n\r\n    function fetchCreatedTickets(address account)\r\n        public\r\n        view\r\n        returns (Item[] memory)\r\n    {\r\n        uint256 tokenCount = 0;\r\n        uint256 currentIndex = 0;\r\n\r\n        EventItem[] memory events = createdEvents[account];\r\n        for (uint256 i = 0; i < events.length; i++) {\r\n            uint256 ticketCount = ticketsInEvent[events[i].tokenId].length;\r\n            tokenCount += ticketCount;\r\n        }\r\n\r\n        Item[] memory items = new Item[](tokenCount);\r\n        for (uint256 i = 0; i < events.length; i++) {\r\n            Item[] storage currentItem = ticketsInEvent[events[i].tokenId];\r\n            for (uint256 j = 0; j < currentItem.length; j++) {\r\n                items[currentIndex] = currentItem[j];\r\n                currentIndex += 1;\r\n            }\r\n        }\r\n        return items;\r\n    }\r\n\r\n    function fetchOwnedTickets(\r\n        address account,\r\n        bool isAllOwned,\r\n        bool isCreator\r\n    ) public view returns (TicketItem[] memory) {\r\n        uint256 totalTokenCount = _tokenIds.current();\r\n        uint256 tokenCount = 0;\r\n        uint256 currentIndex = 0;\r\n\r\n        if (isAllOwned) {\r\n            for (uint256 i = 0; i < totalTokenCount; i++) {\r\n                if (ticketToken[i + 1].owner == account) {\r\n                    tokenCount += 1;\r\n                }\r\n            }\r\n        } else {\r\n            if (isCreator) {\r\n                for (uint256 i = 0; i < totalTokenCount; i++) {\r\n                    if (\r\n                        eventToken[ticketToken[i + 1].eventTokenId].owner ==\r\n                        account &&\r\n                        ticketToken[i + 1].owner == account\r\n                    ) {\r\n                        tokenCount += 1;\r\n                    }\r\n                }\r\n            } else {\r\n                for (uint256 i = 0; i < totalTokenCount; i++) {\r\n                    if (\r\n                        eventToken[ticketToken[i + 1].eventTokenId].owner !=\r\n                        account &&\r\n                        ticketToken[i + 1].owner == account\r\n                    ) {\r\n                        tokenCount += 1;\r\n                    }\r\n                }\r\n            }\r\n        }\r\n\r\n        TicketItem[] memory items = new TicketItem[](tokenCount);\r\n        if (isAllOwned) {\r\n            for (uint256 i = 0; i < totalTokenCount; i++) {\r\n                if (ticketToken[i + 1].owner == account) {\r\n                    TicketItem storage currentItem = ticketToken[i + 1];\r\n                    items[currentIndex] = currentItem;\r\n                    currentIndex += 1;\r\n                }\r\n            }\r\n        } else {\r\n            if (isCreator) {\r\n                for (uint256 i = 0; i < totalTokenCount; i++) {\r\n                    if (\r\n                        eventToken[ticketToken[i + 1].eventTokenId].owner ==\r\n                        account &&\r\n                        ticketToken[i + 1].owner == account\r\n                    ) {\r\n                        TicketItem storage currentItem = ticketToken[i + 1];\r\n                        items[currentIndex] = currentItem;\r\n                        currentIndex += 1;\r\n                    }\r\n                }\r\n            } else {\r\n                for (uint256 i = 0; i < totalTokenCount; i++) {\r\n                    if (\r\n                        eventToken[ticketToken[i + 1].eventTokenId].owner !=\r\n                        account &&\r\n                        ticketToken[i + 1].owner == account\r\n                    ) {\r\n                        TicketItem storage currentItem = ticketToken[i + 1];\r\n                        items[currentIndex] = currentItem;\r\n                        currentIndex += 1;\r\n                    }\r\n                }\r\n            }\r\n        }\r\n\r\n        return items;\r\n    }\r\n\r\n    function fetchTicketsInEvent(uint256 eventTokenId)\r\n        public\r\n        view\r\n        returns (Item[] memory)\r\n    {\r\n        Item[] memory items = ticketsInEvent[eventTokenId];\r\n        return items;\r\n    }\r\n\r\n    function fetchEvents() public view returns (EventItem[] memory) {\r\n        uint256 itemCount = _tokenIds.current();\r\n        uint256 tokenCount = 0;\r\n        uint256 currentIndex = 0;\r\n\r\n        for (uint256 i = 0; i < itemCount; i++) {\r\n            if (eventToken[i + 1].tokenId != 0) {\r\n                tokenCount += 1;\r\n            }\r\n        }\r\n\r\n        EventItem[] memory items = new EventItem[](tokenCount);\r\n        for (uint256 i = 0; i < itemCount; i++) {\r\n            if (eventToken[i + 1].tokenId != 0) {\r\n                EventItem storage currentItem = eventToken[i + 1];\r\n                items[currentIndex] = currentItem;\r\n                currentIndex += 1;\r\n            }\r\n        }\r\n        return items;\r\n    }\r\n\r\n    function fetchEvent(uint256 tokenId)\r\n        public\r\n        view\r\n        returns (EventItem memory)\r\n    {\r\n        EventItem memory item = eventToken[tokenId];\r\n        return item;\r\n    }\r\n\r\n    function fetchTickets() public view returns (TicketItem[] memory) {\r\n        uint256 itemCount = _tokenIds.current();\r\n        uint256 tokenCount = 0;\r\n        uint256 currentIndex = 0;\r\n\r\n        for (uint256 i = 0; i < itemCount; i++) {\r\n            if (ticketToken[i + 1].tokenId != 0) {\r\n                tokenCount += 1;\r\n            }\r\n        }\r\n\r\n        TicketItem[] memory items = new TicketItem[](tokenCount);\r\n        for (uint256 i = 0; i < itemCount; i++) {\r\n            if (ticketToken[i + 1].tokenId != 0) {\r\n                TicketItem storage currentItem = ticketToken[i + 1];\r\n                items[currentIndex] = currentItem;\r\n                currentIndex += 1;\r\n            }\r\n        }\r\n        return items;\r\n    }\r\n\r\n    function fetchTicket(uint256 tokenId)\r\n        public\r\n        view\r\n        returns (TicketItem memory)\r\n    {\r\n        TicketItem memory item = ticketToken[tokenId];\r\n        return item;\r\n    }\r\n\r\n    function onERC1155Received(\r\n        address,\r\n        address,\r\n        uint256,\r\n        uint256,\r\n        bytes memory\r\n    ) public virtual returns (bytes4) {\r\n        return this.onERC1155Received.selector;\r\n    }\r\n\r\n    function onERC1155BatchReceived(\r\n        address,\r\n        address,\r\n        uint256[] memory,\r\n        uint256[] memory,\r\n        bytes memory\r\n    ) public virtual returns (bytes4) {\r\n        return this.onERC1155BatchReceived.selector;\r\n    }\r\n\r\n    function onERC721Received(\r\n        address,\r\n        address,\r\n        uint256,\r\n        bytes memory\r\n    ) public virtual returns (bytes4) {\r\n        return this.onERC721Received.selector;\r\n    }\r\n}\r\n",
  "sourcePath": "D:\\Final Project\\ticketplace\\contracts\\Event.sol",
  "compiler": {
    "name": "solc",
    "version": "0.8.11+commit.d7f03943.Emscripten.clang"
  },
  "schemaVersion": "3.4.4",
  "updatedAt": "2022-03-17T18:22:38.590Z",
  "networkType": "ethereum",
  "devdoc": {
    "kind": "dev",
    "methods": {
      "balanceOf(address,uint256)": {
        "details": "See {IERC1155-balanceOf}. Requirements: - `account` cannot be the zero address."
      },
      "balanceOfBatch(address[],uint256[])": {
        "details": "See {IERC1155-balanceOfBatch}. Requirements: - `accounts` and `ids` must have the same length."
      },
      "isApprovedForAll(address,address)": {
        "details": "See {IERC1155-isApprovedForAll}."
      },
      "safeBatchTransferFrom(address,address,uint256[],uint256[],bytes)": {
        "details": "See {IERC1155-safeBatchTransferFrom}."
      },
      "safeTransferFrom(address,address,uint256,uint256,bytes)": {
        "details": "See {IERC1155-safeTransferFrom}."
      },
      "setApprovalForAll(address,bool)": {
        "details": "See {IERC1155-setApprovalForAll}."
      },
      "supportsInterface(bytes4)": {
        "details": "See {IERC165-supportsInterface}."
      }
    },
    "version": 1
  },
  "userdoc": {
    "kind": "user",
    "methods": {},
    "version": 1
  }
}