{
  "contractName": "Event",
  "abi": [
    {
      "inputs": [],
      "stateMutability": "nonpayable",
      "type": "constructor"
    },
    {
      "anonymous": false,
      "inputs": [
        {
          "indexed": true,
          "internalType": "address",
          "name": "account",
          "type": "address"
        },
        {
          "indexed": true,
          "internalType": "address",
          "name": "operator",
          "type": "address"
        },
        {
          "indexed": false,
          "internalType": "bool",
          "name": "approved",
          "type": "bool"
        }
      ],
      "name": "ApprovalForAll",
      "type": "event"
    },
    {
      "anonymous": false,
      "inputs": [
        {
          "indexed": true,
          "internalType": "address",
          "name": "operator",
          "type": "address"
        },
        {
          "indexed": true,
          "internalType": "address",
          "name": "from",
          "type": "address"
        },
        {
          "indexed": true,
          "internalType": "address",
          "name": "to",
          "type": "address"
        },
        {
          "indexed": false,
          "internalType": "uint256[]",
          "name": "ids",
          "type": "uint256[]"
        },
        {
          "indexed": false,
          "internalType": "uint256[]",
          "name": "values",
          "type": "uint256[]"
        }
      ],
      "name": "TransferBatch",
      "type": "event"
    },
    {
      "anonymous": false,
      "inputs": [
        {
          "indexed": true,
          "internalType": "address",
          "name": "operator",
          "type": "address"
        },
        {
          "indexed": true,
          "internalType": "address",
          "name": "from",
          "type": "address"
        },
        {
          "indexed": true,
          "internalType": "address",
          "name": "to",
          "type": "address"
        },
        {
          "indexed": false,
          "internalType": "uint256",
          "name": "id",
          "type": "uint256"
        },
        {
          "indexed": false,
          "internalType": "uint256",
          "name": "value",
          "type": "uint256"
        }
      ],
      "name": "TransferSingle",
      "type": "event"
    },
    {
      "anonymous": false,
      "inputs": [
        {
          "indexed": false,
          "internalType": "string",
          "name": "value",
          "type": "string"
        },
        {
          "indexed": true,
          "internalType": "uint256",
          "name": "id",
          "type": "uint256"
        }
      ],
      "name": "URI",
      "type": "event"
    },
    {
      "inputs": [
        {
          "internalType": "address",
          "name": "account",
          "type": "address"
        },
        {
          "internalType": "uint256",
          "name": "id",
          "type": "uint256"
        }
      ],
      "name": "balanceOf",
      "outputs": [
        {
          "internalType": "uint256",
          "name": "",
          "type": "uint256"
        }
      ],
      "stateMutability": "view",
      "type": "function",
      "constant": true
    },
    {
      "inputs": [
        {
          "internalType": "address[]",
          "name": "accounts",
          "type": "address[]"
        },
        {
          "internalType": "uint256[]",
          "name": "ids",
          "type": "uint256[]"
        }
      ],
      "name": "balanceOfBatch",
      "outputs": [
        {
          "internalType": "uint256[]",
          "name": "",
          "type": "uint256[]"
        }
      ],
      "stateMutability": "view",
      "type": "function",
      "constant": true
    },
    {
      "inputs": [
        {
          "internalType": "address",
          "name": "account",
          "type": "address"
        },
        {
          "internalType": "address",
          "name": "operator",
          "type": "address"
        }
      ],
      "name": "isApprovedForAll",
      "outputs": [
        {
          "internalType": "bool",
          "name": "",
          "type": "bool"
        }
      ],
      "stateMutability": "view",
      "type": "function",
      "constant": true
    },
    {
      "inputs": [
        {
          "internalType": "address",
          "name": "from",
          "type": "address"
        },
        {
          "internalType": "address",
          "name": "to",
          "type": "address"
        },
        {
          "internalType": "uint256[]",
          "name": "ids",
          "type": "uint256[]"
        },
        {
          "internalType": "uint256[]",
          "name": "amounts",
          "type": "uint256[]"
        },
        {
          "internalType": "bytes",
          "name": "data",
          "type": "bytes"
        }
      ],
      "name": "safeBatchTransferFrom",
      "outputs": [],
      "stateMutability": "nonpayable",
      "type": "function"
    },
    {
      "inputs": [
        {
          "internalType": "address",
          "name": "from",
          "type": "address"
        },
        {
          "internalType": "address",
          "name": "to",
          "type": "address"
        },
        {
          "internalType": "uint256",
          "name": "id",
          "type": "uint256"
        },
        {
          "internalType": "uint256",
          "name": "amount",
          "type": "uint256"
        },
        {
          "internalType": "bytes",
          "name": "data",
          "type": "bytes"
        }
      ],
      "name": "safeTransferFrom",
      "outputs": [],
      "stateMutability": "nonpayable",
      "type": "function"
    },
    {
      "inputs": [
        {
          "internalType": "address",
          "name": "operator",
          "type": "address"
        },
        {
          "internalType": "bool",
          "name": "approved",
          "type": "bool"
        }
      ],
      "name": "setApprovalForAll",
      "outputs": [],
      "stateMutability": "nonpayable",
      "type": "function"
    },
    {
      "inputs": [
        {
          "internalType": "bytes4",
          "name": "interfaceId",
          "type": "bytes4"
        }
      ],
      "name": "supportsInterface",
      "outputs": [
        {
          "internalType": "bool",
          "name": "",
          "type": "bool"
        }
      ],
      "stateMutability": "view",
      "type": "function",
      "constant": true
    },
    {
      "inputs": [
        {
          "internalType": "uint256",
          "name": "tokenId",
          "type": "uint256"
        }
      ],
      "name": "uri",
      "outputs": [
        {
          "internalType": "string",
          "name": "",
          "type": "string"
        }
      ],
      "stateMutability": "view",
      "type": "function",
      "constant": true
    },
    {
      "inputs": [
        {
          "internalType": "uint256",
          "name": "tokenId",
          "type": "uint256"
        },
        {
          "internalType": "string",
          "name": "tokenUri",
          "type": "string"
        }
      ],
      "name": "setTokenUri",
      "outputs": [],
      "stateMutability": "nonpayable",
      "type": "function"
    },
    {
      "inputs": [
        {
          "internalType": "string",
          "name": "tokenUri",
          "type": "string"
        }
      ],
      "name": "mintEvent",
      "outputs": [],
      "stateMutability": "nonpayable",
      "type": "function"
    },
    {
      "inputs": [
        {
          "internalType": "string",
          "name": "tokenUri",
          "type": "string"
        },
        {
          "internalType": "uint256",
          "name": "eventTokenId",
          "type": "uint256"
        },
        {
          "internalType": "uint256",
          "name": "quantity",
          "type": "uint256"
        },
        {
          "internalType": "uint256",
          "name": "price",
          "type": "uint256"
        }
      ],
      "name": "mintTicket",
      "outputs": [],
      "stateMutability": "nonpayable",
      "type": "function"
    },
    {
      "inputs": [
        {
          "internalType": "uint256",
          "name": "tokenId",
          "type": "uint256"
        },
        {
          "internalType": "uint256",
          "name": "price",
          "type": "uint256"
        }
      ],
      "name": "createMarketItem",
      "outputs": [],
      "stateMutability": "payable",
      "type": "function",
      "payable": true
    },
    {
      "inputs": [
        {
          "internalType": "uint256",
          "name": "itemId",
          "type": "uint256"
        }
      ],
      "name": "buyMarketItem",
      "outputs": [],
      "stateMutability": "payable",
      "type": "function",
      "payable": true
    },
    {
      "inputs": [
        {
          "internalType": "uint256",
          "name": "tokenId",
          "type": "uint256"
        }
      ],
      "name": "fetchMarketItem",
      "outputs": [
        {
          "components": [
            {
              "internalType": "uint256",
              "name": "itemId",
              "type": "uint256"
            },
            {
              "internalType": "uint256",
              "name": "tokenId",
              "type": "uint256"
            },
            {
              "internalType": "address payable",
              "name": "seller",
              "type": "address"
            },
            {
              "internalType": "address payable",
              "name": "owner",
              "type": "address"
            },
            {
              "internalType": "uint256",
              "name": "price",
              "type": "uint256"
            },
            {
              "internalType": "bool",
              "name": "sold",
              "type": "bool"
            }
          ],
          "internalType": "struct Event.MarketItem",
          "name": "",
          "type": "tuple"
        }
      ],
      "stateMutability": "view",
      "type": "function",
      "constant": true
    },
    {
      "inputs": [],
      "name": "fetchMarketItems",
      "outputs": [
        {
          "components": [
            {
              "internalType": "uint256",
              "name": "itemId",
              "type": "uint256"
            },
            {
              "internalType": "uint256",
              "name": "tokenId",
              "type": "uint256"
            },
            {
              "internalType": "address payable",
              "name": "seller",
              "type": "address"
            },
            {
              "internalType": "address payable",
              "name": "owner",
              "type": "address"
            },
            {
              "internalType": "uint256",
              "name": "price",
              "type": "uint256"
            },
            {
              "internalType": "bool",
              "name": "sold",
              "type": "bool"
            }
          ],
          "internalType": "struct Event.MarketItem[]",
          "name": "",
          "type": "tuple[]"
        }
      ],
      "stateMutability": "view",
      "type": "function",
      "constant": true
    },
    {
      "inputs": [
        {
          "internalType": "address",
          "name": "account",
          "type": "address"
        }
      ],
      "name": "fetchCreatedEvents",
      "outputs": [
        {
          "components": [
            {
              "internalType": "uint256",
              "name": "tokenId",
              "type": "uint256"
            },
            {
              "internalType": "address payable",
              "name": "owner",
              "type": "address"
            }
          ],
          "internalType": "struct Event.EventItem[]",
          "name": "",
          "type": "tuple[]"
        }
      ],
      "stateMutability": "view",
      "type": "function",
      "constant": true
    },
    {
      "inputs": [
        {
          "internalType": "uint256",
          "name": "eventTokenId",
          "type": "uint256"
        }
      ],
      "name": "fetchTicketsInEvent",
      "outputs": [
        {
          "components": [
            {
              "internalType": "uint256",
              "name": "tokenId",
              "type": "uint256"
            },
            {
              "internalType": "uint256",
              "name": "eventTokenId",
              "type": "uint256"
            },
            {
              "internalType": "address payable",
              "name": "owner",
              "type": "address"
            },
            {
              "internalType": "uint256",
              "name": "price",
              "type": "uint256"
            },
            {
              "internalType": "bool",
              "name": "list",
              "type": "bool"
            }
          ],
          "internalType": "struct Event.TicketItem[]",
          "name": "",
          "type": "tuple[]"
        }
      ],
      "stateMutability": "view",
      "type": "function",
      "constant": true
    },
    {
      "inputs": [
        {
          "internalType": "uint256",
          "name": "tokenId",
          "type": "uint256"
        }
      ],
      "name": "fetchEvent",
      "outputs": [
        {
          "components": [
            {
              "internalType": "uint256",
              "name": "tokenId",
              "type": "uint256"
            },
            {
              "internalType": "address payable",
              "name": "owner",
              "type": "address"
            }
          ],
          "internalType": "struct Event.EventItem",
          "name": "",
          "type": "tuple"
        }
      ],
      "stateMutability": "view",
      "type": "function",
      "constant": true
    },
    {
      "inputs": [
        {
          "internalType": "uint256",
          "name": "tokenId",
          "type": "uint256"
        }
      ],
      "name": "fetchTicket",
      "outputs": [
        {
          "components": [
            {
              "internalType": "uint256",
              "name": "tokenId",
              "type": "uint256"
            },
            {
              "internalType": "uint256",
              "name": "eventTokenId",
              "type": "uint256"
            },
            {
              "internalType": "address payable",
              "name": "owner",
              "type": "address"
            },
            {
              "internalType": "uint256",
              "name": "price",
              "type": "uint256"
            },
            {
              "internalType": "bool",
              "name": "list",
              "type": "bool"
            }
          ],
          "internalType": "struct Event.TicketItem",
          "name": "",
          "type": "tuple"
        }
      ],
      "stateMutability": "view",
      "type": "function",
      "constant": true
    },
    {
      "inputs": [
        {
          "internalType": "address",
          "name": "",
          "type": "address"
        },
        {
          "internalType": "address",
          "name": "",
          "type": "address"
        },
        {
          "internalType": "uint256",
          "name": "",
          "type": "uint256"
        },
        {
          "internalType": "uint256",
          "name": "",
          "type": "uint256"
        },
        {
          "internalType": "bytes",
          "name": "",
          "type": "bytes"
        }
      ],
      "name": "onERC1155Received",
      "outputs": [
        {
          "internalType": "bytes4",
          "name": "",
          "type": "bytes4"
        }
      ],
      "stateMutability": "nonpayable",
      "type": "function"
    },
    {
      "inputs": [
        {
          "internalType": "address",
          "name": "",
          "type": "address"
        },
        {
          "internalType": "address",
          "name": "",
          "type": "address"
        },
        {
          "internalType": "uint256[]",
          "name": "",
          "type": "uint256[]"
        },
        {
          "internalType": "uint256[]",
          "name": "",
          "type": "uint256[]"
        },
        {
          "internalType": "bytes",
          "name": "",
          "type": "bytes"
        }
      ],
      "name": "onERC1155BatchReceived",
      "outputs": [
        {
          "internalType": "bytes4",
          "name": "",
          "type": "bytes4"
        }
      ],
      "stateMutability": "nonpayable",
      "type": "function"
    },
    {
      "inputs": [
        {
          "internalType": "address",
          "name": "",
          "type": "address"
        },
        {
          "internalType": "address",
          "name": "",
          "type": "address"
        },
        {
          "internalType": "uint256",
          "name": "",
          "type": "uint256"
        },
        {
          "internalType": "bytes",
          "name": "",
          "type": "bytes"
        }
      ],
      "name": "onERC721Received",
      "outputs": [
        {
          "internalType": "bytes4",
          "name": "",
          "type": "bytes4"
        }
      ],
      "stateMutability": "nonpayable",
      "type": "function"
    }
  ],
  "bytecode": "0x60806040523480156200001157600080fd5b506040518060200160405280600081525062000033816200007b60201b60201c565b5033600660006101000a81548173ffffffffffffffffffffffffffffffffffffffff021916908373ffffffffffffffffffffffffffffffffffffffff160217905550620001ac565b80600290805190602001906200009392919062000097565b5050565b828054620000a59062000176565b90600052602060002090601f016020900481019282620000c9576000855562000115565b82601f10620000e457805160ff191683800117855562000115565b8280016001018555821562000115579182015b8281111562000114578251825591602001919060010190620000f7565b5b50905062000124919062000128565b5090565b5b808211156200014357600081600090555060010162000129565b5090565b7f4e487b7100000000000000000000000000000000000000000000000000000000600052602260045260246000fd5b600060028204905060018216806200018f57607f821691505b60208210811415620001a657620001a562000147565b5b50919050565b61465980620001bc6000396000f3fe6080604052600436106101345760003560e01c80635105d526116100ab578063a22cb4651161006f578063a22cb46514610465578063bc197c811461048e578063e985e9c5146104cb578063f23a6e6114610508578063f242432a14610545578063f9d5c5051461056e57610134565b80635105d5261461037057806357f7789e146103ad5780638c8b5fd6146103d657806397dada91146104135780639be0b9351461043c57610134565b80632a45b250116100fd5780632a45b250146102585780632eb2c2d61461029557806331d90970146102be578063351901c3146102fb578063361c1995146103175780634e1273f41461033357610134565b8062fdd58e1461013957806301ffc9a7146101765780630e89341c146101b35780630f08efe0146101f0578063150b7a021461021b575b600080fd5b34801561014557600080fd5b50610160600480360381019061015b9190612a5a565b6105ab565b60405161016d9190612aa9565b60405180910390f35b34801561018257600080fd5b5061019d60048036038101906101989190612b1c565b610674565b6040516101aa9190612b64565b60405180910390f35b3480156101bf57600080fd5b506101da60048036038101906101d59190612b7f565b610756565b6040516101e79190612c45565b60405180910390f35b3480156101fc57600080fd5b506102056107fb565b6040516102129190612dd0565b60405180910390f35b34801561022757600080fd5b50610242600480360381019061023d9190612f27565b610a2c565b60405161024f9190612fb9565b60405180910390f35b34801561026457600080fd5b5061027f600480360381019061027a9190612b7f565b610a40565b60405161028c919061304f565b60405180910390f35b3480156102a157600080fd5b506102bc60048036038101906102b79190613132565b610bc9565b005b3480156102ca57600080fd5b506102e560048036038101906102e09190613201565b610c6a565b6040516102f2919061330c565b60405180910390f35b61031560048036038101906103109190612b7f565b610d6e565b005b610331600480360381019061032c919061332e565b610fa7565b005b34801561033f57600080fd5b5061035a60048036038101906103559190613431565b611191565b6040516103679190613558565b60405180910390f35b34801561037c57600080fd5b5061039760048036038101906103929190612b7f565b6112aa565b6040516103a491906135e2565b60405180910390f35b3480156103b957600080fd5b506103d460048036038101906103cf919061369e565b61136c565b005b3480156103e257600080fd5b506103fd60048036038101906103f89190612b7f565b611398565b60405161040a9190613729565b60405180910390f35b34801561041f57600080fd5b5061043a60048036038101906104359190613744565b61142b565b005b34801561044857600080fd5b50610463600480360381019061045e91906137c7565b611682565b005b34801561047157600080fd5b5061048c6004803603810190610487919061383c565b611844565b005b34801561049a57600080fd5b506104b560048036038101906104b09190613132565b61185a565b6040516104c29190612fb9565b60405180910390f35b3480156104d757600080fd5b506104f260048036038101906104ed919061387c565b61186f565b6040516104ff9190612b64565b60405180910390f35b34801561051457600080fd5b5061052f600480360381019061052a91906138bc565b611903565b60405161053c9190612fb9565b60405180910390f35b34801561055157600080fd5b5061056c600480360381019061056791906138bc565b611918565b005b34801561057a57600080fd5b5061059560048036038101906105909190612b7f565b6119b9565b6040516105a29190613a6a565b60405180910390f35b60008073ffffffffffffffffffffffffffffffffffffffff168373ffffffffffffffffffffffffffffffffffffffff16141561061c576040517f08c379a000000000000000000000000000000000000000000000000000000000815260040161061390613afe565b60405180910390fd5b60008083815260200190815260200160002060008473ffffffffffffffffffffffffffffffffffffffff1673ffffffffffffffffffffffffffffffffffffffff16815260200190815260200160002054905092915050565b60007fd9b67a26000000000000000000000000000000000000000000000000000000007bffffffffffffffffffffffffffffffffffffffffffffffffffffffff1916827bffffffffffffffffffffffffffffffffffffffffffffffffffffffff1916148061073f57507f0e89341c000000000000000000000000000000000000000000000000000000007bffffffffffffffffffffffffffffffffffffffffffffffffffffffff1916827bffffffffffffffffffffffffffffffffffffffffffffffffffffffff1916145b8061074f575061074e82611ac0565b5b9050919050565b606060076000838152602001908152602001600020805461077690613b4d565b80601f01602080910402602001604051908101604052809291908181526020018280546107a290613b4d565b80156107ef5780601f106107c4576101008083540402835291602001916107ef565b820191906000526020600020905b8154815290600101906020018083116107d257829003601f168201915b50505050509050919050565b606060006108096004611b2a565b905060006108176005611b2a565b6108216004611b2a565b61082b9190613bae565b90506000808267ffffffffffffffff81111561084a57610849612dfc565b5b60405190808252806020026020018201604052801561088357816020015b610870612834565b8152602001906001900390816108685790505b50905060005b84811015610a2157600b60006001836108a29190613be2565b815260200190815260200160002060050160009054906101000a900460ff16610a0e5760006001826108d49190613be2565b90506000600b60008381526020019081526020016000209050806040518060c001604052908160008201548152602001600182015481526020016002820160009054906101000a900473ffffffffffffffffffffffffffffffffffffffff1673ffffffffffffffffffffffffffffffffffffffff1673ffffffffffffffffffffffffffffffffffffffff1681526020016003820160009054906101000a900473ffffffffffffffffffffffffffffffffffffffff1673ffffffffffffffffffffffffffffffffffffffff1673ffffffffffffffffffffffffffffffffffffffff168152602001600482015481526020016005820160009054906101000a900460ff1615151515815250508486815181106109f1576109f0613c38565b5b6020026020010181905250600185610a099190613be2565b945050505b8080610a1990613c67565b915050610889565b508094505050505090565b600063150b7a0260e01b9050949350505050565b610a48612834565b6000610a546004611b2a565b9050610a5e612834565b60005b82811015610bbe5784600b6000600184610a7b9190613be2565b8152602001908152602001600020600101541415610bab576000600182610aa29190613be2565b9050600b60008281526020019081526020016000206040518060c001604052908160008201548152602001600182015481526020016002820160009054906101000a900473ffffffffffffffffffffffffffffffffffffffff1673ffffffffffffffffffffffffffffffffffffffff1673ffffffffffffffffffffffffffffffffffffffff1681526020016003820160009054906101000a900473ffffffffffffffffffffffffffffffffffffffff1673ffffffffffffffffffffffffffffffffffffffff1673ffffffffffffffffffffffffffffffffffffffff168152602001600482015481526020016005820160009054906101000a900460ff1615151515815250509250505b8080610bb690613c67565b915050610a61565b508092505050919050565b610bd1611b38565b73ffffffffffffffffffffffffffffffffffffffff168573ffffffffffffffffffffffffffffffffffffffff161480610c175750610c1685610c11611b38565b61186f565b5b610c56576040517f08c379a0000000000000000000000000000000000000000000000000000000008152600401610c4d90613d22565b60405180910390fd5b610c638585858585611b40565b5050505050565b60606000600c60008473ffffffffffffffffffffffffffffffffffffffff1673ffffffffffffffffffffffffffffffffffffffff168152602001908152602001600020805480602002602001604051908101604052809291908181526020016000905b82821015610d5f5783829060005260206000209060020201604051806040016040529081600082015481526020016001820160009054906101000a900473ffffffffffffffffffffffffffffffffffffffff1673ffffffffffffffffffffffffffffffffffffffff1673ffffffffffffffffffffffffffffffffffffffff168152505081526020019060010190610ccd565b50505050905080915050919050565b6000600b60008381526020019081526020016000206004015490506000600b60008481526020019081526020016000206001015490506402540be40082610db59190613d42565b3414610df6576040517f08c379a0000000000000000000000000000000000000000000000000000000008152600401610ded90613de8565b60405180910390fd5b600b600084815260200190815260200160002060020160009054906101000a900473ffffffffffffffffffffffffffffffffffffffff1673ffffffffffffffffffffffffffffffffffffffff166108fc349081150290604051600060405180830381858888f19350505050158015610e72573d6000803e3d6000fd5b5033600b600085815260200190815260200160002060030160006101000a81548173ffffffffffffffffffffffffffffffffffffffff021916908373ffffffffffffffffffffffffffffffffffffffff1602179055506001600b600085815260200190815260200160002060050160006101000a81548160ff021916908315150217905550336009600083815260200190815260200160002060020160006101000a81548173ffffffffffffffffffffffffffffffffffffffff021916908373ffffffffffffffffffffffffffffffffffffffff16021790555060006009600083815260200190815260200160002060040160006101000a81548160ff021916908315150217905550610f856005611e54565b610fa2303383600160405180602001604052806000815250611e6a565b505050565b60008111610fea576040517f08c379a0000000000000000000000000000000000000000000000000000000008152600401610fe190613e54565b60405180910390fd5b610ff46004611e54565b60006110006004611b2a565b90506040518060c001604052808281526020018481526020013373ffffffffffffffffffffffffffffffffffffffff1681526020013373ffffffffffffffffffffffffffffffffffffffff16815260200183815260200160001515815250600b6000838152602001908152602001600020600082015181600001556020820151816001015560408201518160020160006101000a81548173ffffffffffffffffffffffffffffffffffffffff021916908373ffffffffffffffffffffffffffffffffffffffff16021790555060608201518160030160006101000a81548173ffffffffffffffffffffffffffffffffffffffff021916908373ffffffffffffffffffffffffffffffffffffffff1602179055506080820151816004015560a08201518160050160006101000a81548160ff02191690831515021790555090505060016009600085815260200190815260200160002060040160006101000a81548160ff02191690831515021790555061118c333085600160405180602001604052806000815250611918565b505050565b606081518351146111d7576040517f08c379a00000000000000000000000000000000000000000000000000000000081526004016111ce90613ee6565b60405180910390fd5b6000835167ffffffffffffffff8111156111f4576111f3612dfc565b5b6040519080825280602002602001820160405280156112225781602001602082028036833780820191505090505b50905060005b845181101561129f5761126f85828151811061124757611246613c38565b5b602002602001015185838151811061126257611261613c38565b5b60200260200101516105ab565b82828151811061128257611281613c38565b5b6020026020010181815250508061129890613c67565b9050611228565b508091505092915050565b6112b2612898565b6000600960008481526020019081526020016000206040518060a001604052908160008201548152602001600182015481526020016002820160009054906101000a900473ffffffffffffffffffffffffffffffffffffffff1673ffffffffffffffffffffffffffffffffffffffff1673ffffffffffffffffffffffffffffffffffffffff168152602001600382015481526020016004820160009054906101000a900460ff161515151581525050905080915050919050565b806007600084815260200190815260200160002090805190602001906113939291906128df565b505050565b6113a0612965565b600060086000848152602001908152602001600020604051806040016040529081600082015481526020016001820160009054906101000a900473ffffffffffffffffffffffffffffffffffffffff1673ffffffffffffffffffffffffffffffffffffffff1673ffffffffffffffffffffffffffffffffffffffff1681525050905080915050919050565b60005b8281101561167b576114406003611e54565b600061144c6003611b2a565b905061146a33826001604051806020016040528060008152506120ec565b611474818761136c565b6040518060a001604052808281526020018681526020013373ffffffffffffffffffffffffffffffffffffffff1681526020018481526020016000151581525060096000838152602001908152602001600020600082015181600001556020820151816001015560408201518160020160006101000a81548173ffffffffffffffffffffffffffffffffffffffff021916908373ffffffffffffffffffffffffffffffffffffffff1602179055506060820151816003015560808201518160040160006101000a81548160ff021916908315150217905550905050600a600086815260200190815260200160002060096000838152602001908152602001600020908060018154018082558091505060019003906000526020600020906005020160009091909190915060008201548160000155600182015481600101556002820160009054906101000a900473ffffffffffffffffffffffffffffffffffffffff168160020160006101000a81548173ffffffffffffffffffffffffffffffffffffffff021916908373ffffffffffffffffffffffffffffffffffffffff160217905550600382015481600301556004820160009054906101000a900460ff168160040160006101000a81548160ff021916908315150217905550505061165c8184610fa7565b611667306001611844565b50808061167390613c67565b91505061142e565b5050505050565b61168c6003611e54565b60006116986003611b2a565b90506116b633826001604051806020016040528060008152506120ec565b6116c0818361136c565b60405180604001604052808281526020013373ffffffffffffffffffffffffffffffffffffffff16815250600860008381526020019081526020016000206000820151816000015560208201518160010160006101000a81548173ffffffffffffffffffffffffffffffffffffffff021916908373ffffffffffffffffffffffffffffffffffffffff160217905550905050600c60003373ffffffffffffffffffffffffffffffffffffffff1673ffffffffffffffffffffffffffffffffffffffff168152602001908152602001600020600860008381526020019081526020016000209080600181540180825580915050600190039060005260206000209060020201600090919091909150600082015481600001556001820160009054906101000a900473ffffffffffffffffffffffffffffffffffffffff168160010160006101000a81548173ffffffffffffffffffffffffffffffffffffffff021916908373ffffffffffffffffffffffffffffffffffffffff16021790555050505050565b61185661184f611b38565b8383612282565b5050565b600063bc197c8160e01b905095945050505050565b6000600160008473ffffffffffffffffffffffffffffffffffffffff1673ffffffffffffffffffffffffffffffffffffffff16815260200190815260200160002060008373ffffffffffffffffffffffffffffffffffffffff1673ffffffffffffffffffffffffffffffffffffffff16815260200190815260200160002060009054906101000a900460ff16905092915050565b600063f23a6e6160e01b905095945050505050565b611920611b38565b73ffffffffffffffffffffffffffffffffffffffff168573ffffffffffffffffffffffffffffffffffffffff161480611966575061196585611960611b38565b61186f565b5b6119a5576040517f08c379a000000000000000000000000000000000000000000000000000000000815260040161199c90613f78565b60405180910390fd5b6119b28585858585611e6a565b5050505050565b60606000600a6000848152602001908152602001600020805480602002602001604051908101604052809291908181526020016000905b82821015611ab157838290600052602060002090600502016040518060a001604052908160008201548152602001600182015481526020016002820160009054906101000a900473ffffffffffffffffffffffffffffffffffffffff1673ffffffffffffffffffffffffffffffffffffffff1673ffffffffffffffffffffffffffffffffffffffff168152602001600382015481526020016004820160009054906101000a900460ff161515151581525050815260200190600101906119f0565b50505050905080915050919050565b60007f01ffc9a7000000000000000000000000000000000000000000000000000000007bffffffffffffffffffffffffffffffffffffffffffffffffffffffff1916827bffffffffffffffffffffffffffffffffffffffffffffffffffffffff1916149050919050565b600081600001549050919050565b600033905090565b8151835114611b84576040517f08c379a0000000000000000000000000000000000000000000000000000000008152600401611b7b9061400a565b60405180910390fd5b600073ffffffffffffffffffffffffffffffffffffffff168473ffffffffffffffffffffffffffffffffffffffff161415611bf4576040517f08c379a0000000000000000000000000000000000000000000000000000000008152600401611beb9061409c565b60405180910390fd5b6000611bfe611b38565b9050611c0e8187878787876123ef565b60005b8451811015611dbf576000858281518110611c2f57611c2e613c38565b5b602002602001015190506000858381518110611c4e57611c4d613c38565b5b60200260200101519050600080600084815260200190815260200160002060008b73ffffffffffffffffffffffffffffffffffffffff1673ffffffffffffffffffffffffffffffffffffffff16815260200190815260200160002054905081811015611cef576040517f08c379a0000000000000000000000000000000000000000000000000000000008152600401611ce69061412e565b60405180910390fd5b81810360008085815260200190815260200160002060008c73ffffffffffffffffffffffffffffffffffffffff1673ffffffffffffffffffffffffffffffffffffffff168152602001908152602001600020819055508160008085815260200190815260200160002060008b73ffffffffffffffffffffffffffffffffffffffff1673ffffffffffffffffffffffffffffffffffffffff1681526020019081526020016000206000828254611da49190613be2565b9250508190555050505080611db890613c67565b9050611c11565b508473ffffffffffffffffffffffffffffffffffffffff168673ffffffffffffffffffffffffffffffffffffffff168273ffffffffffffffffffffffffffffffffffffffff167f4a39dc06d4c0dbc64b70af90fd698a233a518aa5d07e595d983b8c0526c8f7fb8787604051611e3692919061414e565b60405180910390a4611e4c8187878787876123f7565b505050505050565b6001816000016000828254019250508190555050565b600073ffffffffffffffffffffffffffffffffffffffff168473ffffffffffffffffffffffffffffffffffffffff161415611eda576040517f08c379a0000000000000000000000000000000000000000000000000000000008152600401611ed19061409c565b60405180910390fd5b6000611ee4611b38565b9050611f04818787611ef5886125cf565b611efe886125cf565b876123ef565b600080600086815260200190815260200160002060008873ffffffffffffffffffffffffffffffffffffffff1673ffffffffffffffffffffffffffffffffffffffff16815260200190815260200160002054905083811015611f9b576040517f08c379a0000000000000000000000000000000000000000000000000000000008152600401611f929061412e565b60405180910390fd5b83810360008087815260200190815260200160002060008973ffffffffffffffffffffffffffffffffffffffff1673ffffffffffffffffffffffffffffffffffffffff168152602001908152602001600020819055508360008087815260200190815260200160002060008873ffffffffffffffffffffffffffffffffffffffff1673ffffffffffffffffffffffffffffffffffffffff16815260200190815260200160002060008282546120509190613be2565b925050819055508573ffffffffffffffffffffffffffffffffffffffff168773ffffffffffffffffffffffffffffffffffffffff168373ffffffffffffffffffffffffffffffffffffffff167fc3d58168c5ae7397731d063d5bbf3d657854427343f4c083240f7aacaa2d0f6288886040516120cd929190614185565b60405180910390a46120e3828888888888612649565b50505050505050565b600073ffffffffffffffffffffffffffffffffffffffff168473ffffffffffffffffffffffffffffffffffffffff16141561215c576040517f08c379a000000000000000000000000000000000000000000000000000000000815260040161215390614220565b60405180910390fd5b6000612166611b38565b905061218781600087612178886125cf565b612181886125cf565b876123ef565b8260008086815260200190815260200160002060008773ffffffffffffffffffffffffffffffffffffffff1673ffffffffffffffffffffffffffffffffffffffff16815260200190815260200160002060008282546121e69190613be2565b925050819055508473ffffffffffffffffffffffffffffffffffffffff16600073ffffffffffffffffffffffffffffffffffffffff168273ffffffffffffffffffffffffffffffffffffffff167fc3d58168c5ae7397731d063d5bbf3d657854427343f4c083240f7aacaa2d0f628787604051612264929190614185565b60405180910390a461227b81600087878787612649565b5050505050565b8173ffffffffffffffffffffffffffffffffffffffff168373ffffffffffffffffffffffffffffffffffffffff1614156122f1576040517f08c379a00000000000000000000000000000000000000000000000000000000081526004016122e8906142b2565b60405180910390fd5b80600160008573ffffffffffffffffffffffffffffffffffffffff1673ffffffffffffffffffffffffffffffffffffffff16815260200190815260200160002060008473ffffffffffffffffffffffffffffffffffffffff1673ffffffffffffffffffffffffffffffffffffffff16815260200190815260200160002060006101000a81548160ff0219169083151502179055508173ffffffffffffffffffffffffffffffffffffffff168373ffffffffffffffffffffffffffffffffffffffff167f17307eab39ab6107e8899845ad3d59bd9653f200f220920489ca2b5937696c31836040516123e29190612b64565b60405180910390a3505050565b505050505050565b6124168473ffffffffffffffffffffffffffffffffffffffff16612821565b156125c7578373ffffffffffffffffffffffffffffffffffffffff1663bc197c8187878686866040518663ffffffff1660e01b815260040161245c959493929190614336565b6020604051808303816000875af192505050801561249857506040513d601f19601f8201168201806040525081019061249591906143b3565b60015b61253e576124a46143ed565b806308c379a0141561250157506124b961440f565b806124c45750612503565b806040517f08c379a00000000000000000000000000000000000000000000000000000000081526004016124f89190612c45565b60405180910390fd5b505b6040517f08c379a000000000000000000000000000000000000000000000000000000000815260040161253590614517565b60405180910390fd5b63bc197c8160e01b7bffffffffffffffffffffffffffffffffffffffffffffffffffffffff1916817bffffffffffffffffffffffffffffffffffffffffffffffffffffffff1916146125c5576040517f08c379a00000000000000000000000000000000000000000000000000000000081526004016125bc906145a9565b60405180910390fd5b505b505050505050565b60606000600167ffffffffffffffff8111156125ee576125ed612dfc565b5b60405190808252806020026020018201604052801561261c5781602001602082028036833780820191505090505b509050828160008151811061263457612633613c38565b5b60200260200101818152505080915050919050565b6126688473ffffffffffffffffffffffffffffffffffffffff16612821565b15612819578373ffffffffffffffffffffffffffffffffffffffff1663f23a6e6187878686866040518663ffffffff1660e01b81526004016126ae9594939291906145c9565b6020604051808303816000875af19250505080156126ea57506040513d601f19601f820116820180604052508101906126e791906143b3565b60015b612790576126f66143ed565b806308c379a01415612753575061270b61440f565b806127165750612755565b806040517f08c379a000000000000000000000000000000000000000000000000000000000815260040161274a9190612c45565b60405180910390fd5b505b6040517f08c379a000000000000000000000000000000000000000000000000000000000815260040161278790614517565b60405180910390fd5b63f23a6e6160e01b7bffffffffffffffffffffffffffffffffffffffffffffffffffffffff1916817bffffffffffffffffffffffffffffffffffffffffffffffffffffffff191614612817576040517f08c379a000000000000000000000000000000000000000000000000000000000815260040161280e906145a9565b60405180910390fd5b505b505050505050565b600080823b905060008111915050919050565b6040518060c001604052806000815260200160008152602001600073ffffffffffffffffffffffffffffffffffffffff168152602001600073ffffffffffffffffffffffffffffffffffffffff168152602001600081526020016000151581525090565b6040518060a001604052806000815260200160008152602001600073ffffffffffffffffffffffffffffffffffffffff168152602001600081526020016000151581525090565b8280546128eb90613b4d565b90600052602060002090601f01602090048101928261290d5760008555612954565b82601f1061292657805160ff1916838001178555612954565b82800160010185558215612954579182015b82811115612953578251825591602001919060010190612938565b5b5090506129619190612995565b5090565b604051806040016040528060008152602001600073ffffffffffffffffffffffffffffffffffffffff1681525090565b5b808211156129ae576000816000905550600101612996565b5090565b6000604051905090565b600080fd5b600080fd5b600073ffffffffffffffffffffffffffffffffffffffff82169050919050565b60006129f1826129c6565b9050919050565b612a01816129e6565b8114612a0c57600080fd5b50565b600081359050612a1e816129f8565b92915050565b6000819050919050565b612a3781612a24565b8114612a4257600080fd5b50565b600081359050612a5481612a2e565b92915050565b60008060408385031215612a7157612a706129bc565b5b6000612a7f85828601612a0f565b9250506020612a9085828601612a45565b9150509250929050565b612aa381612a24565b82525050565b6000602082019050612abe6000830184612a9a565b92915050565b60007fffffffff0000000000000000000000000000000000000000000000000000000082169050919050565b612af981612ac4565b8114612b0457600080fd5b50565b600081359050612b1681612af0565b92915050565b600060208284031215612b3257612b316129bc565b5b6000612b4084828501612b07565b91505092915050565b60008115159050919050565b612b5e81612b49565b82525050565b6000602082019050612b796000830184612b55565b92915050565b600060208284031215612b9557612b946129bc565b5b6000612ba384828501612a45565b91505092915050565b600081519050919050565b600082825260208201905092915050565b60005b83811015612be6578082015181840152602081019050612bcb565b83811115612bf5576000848401525b50505050565b6000601f19601f8301169050919050565b6000612c1782612bac565b612c218185612bb7565b9350612c31818560208601612bc8565b612c3a81612bfb565b840191505092915050565b60006020820190508181036000830152612c5f8184612c0c565b905092915050565b600081519050919050565b600082825260208201905092915050565b6000819050602082019050919050565b612c9c81612a24565b82525050565b6000612cad826129c6565b9050919050565b612cbd81612ca2565b82525050565b612ccc81612b49565b82525050565b60c082016000820151612ce86000850182612c93565b506020820151612cfb6020850182612c93565b506040820151612d0e6040850182612cb4565b506060820151612d216060850182612cb4565b506080820151612d346080850182612c93565b5060a0820151612d4760a0850182612cc3565b50505050565b6000612d598383612cd2565b60c08301905092915050565b6000602082019050919050565b6000612d7d82612c67565b612d878185612c72565b9350612d9283612c83565b8060005b83811015612dc3578151612daa8882612d4d565b9750612db583612d65565b925050600181019050612d96565b5085935050505092915050565b60006020820190508181036000830152612dea8184612d72565b905092915050565b600080fd5b600080fd5b7f4e487b7100000000000000000000000000000000000000000000000000000000600052604160045260246000fd5b612e3482612bfb565b810181811067ffffffffffffffff82111715612e5357612e52612dfc565b5b80604052505050565b6000612e666129b2565b9050612e728282612e2b565b919050565b600067ffffffffffffffff821115612e9257612e91612dfc565b5b612e9b82612bfb565b9050602081019050919050565b82818337600083830152505050565b6000612eca612ec584612e77565b612e5c565b905082815260208101848484011115612ee657612ee5612df7565b5b612ef1848285612ea8565b509392505050565b600082601f830112612f0e57612f0d612df2565b5b8135612f1e848260208601612eb7565b91505092915050565b60008060008060808587031215612f4157612f406129bc565b5b6000612f4f87828801612a0f565b9450506020612f6087828801612a0f565b9350506040612f7187828801612a45565b925050606085013567ffffffffffffffff811115612f9257612f916129c1565b5b612f9e87828801612ef9565b91505092959194509250565b612fb381612ac4565b82525050565b6000602082019050612fce6000830184612faa565b92915050565b60c082016000820151612fea6000850182612c93565b506020820151612ffd6020850182612c93565b5060408201516130106040850182612cb4565b5060608201516130236060850182612cb4565b5060808201516130366080850182612c93565b5060a082015161304960a0850182612cc3565b50505050565b600060c0820190506130646000830184612fd4565b92915050565b600067ffffffffffffffff82111561308557613084612dfc565b5b602082029050602081019050919050565b600080fd5b60006130ae6130a98461306a565b612e5c565b905080838252602082019050602084028301858111156130d1576130d0613096565b5b835b818110156130fa57806130e68882612a45565b8452602084019350506020810190506130d3565b5050509392505050565b600082601f83011261311957613118612df2565b5b813561312984826020860161309b565b91505092915050565b600080600080600060a0868803121561314e5761314d6129bc565b5b600061315c88828901612a0f565b955050602061316d88828901612a0f565b945050604086013567ffffffffffffffff81111561318e5761318d6129c1565b5b61319a88828901613104565b935050606086013567ffffffffffffffff8111156131bb576131ba6129c1565b5b6131c788828901613104565b925050608086013567ffffffffffffffff8111156131e8576131e76129c1565b5b6131f488828901612ef9565b9150509295509295909350565b600060208284031215613217576132166129bc565b5b600061322584828501612a0f565b91505092915050565b600081519050919050565b600082825260208201905092915050565b6000819050602082019050919050565b6040820160008201516132706000850182612c93565b5060208201516132836020850182612cb4565b50505050565b6000613295838361325a565b60408301905092915050565b6000602082019050919050565b60006132b98261322e565b6132c38185613239565b93506132ce8361324a565b8060005b838110156132ff5781516132e68882613289565b97506132f1836132a1565b9250506001810190506132d2565b5085935050505092915050565b6000602082019050818103600083015261332681846132ae565b905092915050565b60008060408385031215613345576133446129bc565b5b600061335385828601612a45565b925050602061336485828601612a45565b9150509250929050565b600067ffffffffffffffff82111561338957613388612dfc565b5b602082029050602081019050919050565b60006133ad6133a88461336e565b612e5c565b905080838252602082019050602084028301858111156133d0576133cf613096565b5b835b818110156133f957806133e58882612a0f565b8452602084019350506020810190506133d2565b5050509392505050565b600082601f83011261341857613417612df2565b5b813561342884826020860161339a565b91505092915050565b60008060408385031215613448576134476129bc565b5b600083013567ffffffffffffffff811115613466576134656129c1565b5b61347285828601613403565b925050602083013567ffffffffffffffff811115613493576134926129c1565b5b61349f85828601613104565b9150509250929050565b600081519050919050565b600082825260208201905092915050565b6000819050602082019050919050565b60006134e18383612c93565b60208301905092915050565b6000602082019050919050565b6000613505826134a9565b61350f81856134b4565b935061351a836134c5565b8060005b8381101561354b57815161353288826134d5565b975061353d836134ed565b92505060018101905061351e565b5085935050505092915050565b6000602082019050818103600083015261357281846134fa565b905092915050565b60a0820160008201516135906000850182612c93565b5060208201516135a36020850182612c93565b5060408201516135b66040850182612cb4565b5060608201516135c96060850182612c93565b5060808201516135dc6080850182612cc3565b50505050565b600060a0820190506135f7600083018461357a565b92915050565b600067ffffffffffffffff82111561361857613617612dfc565b5b61362182612bfb565b9050602081019050919050565b600061364161363c846135fd565b612e5c565b90508281526020810184848401111561365d5761365c612df7565b5b613668848285612ea8565b509392505050565b600082601f83011261368557613684612df2565b5b813561369584826020860161362e565b91505092915050565b600080604083850312156136b5576136b46129bc565b5b60006136c385828601612a45565b925050602083013567ffffffffffffffff8111156136e4576136e36129c1565b5b6136f085828601613670565b9150509250929050565b6040820160008201516137106000850182612c93565b5060208201516137236020850182612cb4565b50505050565b600060408201905061373e60008301846136fa565b92915050565b6000806000806080858703121561375e5761375d6129bc565b5b600085013567ffffffffffffffff81111561377c5761377b6129c1565b5b61378887828801613670565b945050602061379987828801612a45565b93505060406137aa87828801612a45565b92505060606137bb87828801612a45565b91505092959194509250565b6000602082840312156137dd576137dc6129bc565b5b600082013567ffffffffffffffff8111156137fb576137fa6129c1565b5b61380784828501613670565b91505092915050565b61381981612b49565b811461382457600080fd5b50565b60008135905061383681613810565b92915050565b60008060408385031215613853576138526129bc565b5b600061386185828601612a0f565b925050602061387285828601613827565b9150509250929050565b60008060408385031215613893576138926129bc565b5b60006138a185828601612a0f565b92505060206138b285828601612a0f565b9150509250929050565b600080600080600060a086880312156138d8576138d76129bc565b5b60006138e688828901612a0f565b95505060206138f788828901612a0f565b945050604061390888828901612a45565b935050606061391988828901612a45565b925050608086013567ffffffffffffffff81111561393a576139396129c1565b5b61394688828901612ef9565b9150509295509295909350565b600081519050919050565b600082825260208201905092915050565b6000819050602082019050919050565b60a0820160008201516139956000850182612c93565b5060208201516139a86020850182612c93565b5060408201516139bb6040850182612cb4565b5060608201516139ce6060850182612c93565b5060808201516139e16080850182612cc3565b50505050565b60006139f3838361397f565b60a08301905092915050565b6000602082019050919050565b6000613a1782613953565b613a21818561395e565b9350613a2c8361396f565b8060005b83811015613a5d578151613a4488826139e7565b9750613a4f836139ff565b925050600181019050613a30565b5085935050505092915050565b60006020820190508181036000830152613a848184613a0c565b905092915050565b7f455243313135353a2062616c616e636520717565727920666f7220746865207a60008201527f65726f2061646472657373000000000000000000000000000000000000000000602082015250565b6000613ae8602b83612bb7565b9150613af382613a8c565b604082019050919050565b60006020820190508181036000830152613b1781613adb565b9050919050565b7f4e487b7100000000000000000000000000000000000000000000000000000000600052602260045260246000fd5b60006002820490506001821680613b6557607f821691505b60208210811415613b7957613b78613b1e565b5b50919050565b7f4e487b7100000000000000000000000000000000000000000000000000000000600052601160045260246000fd5b6000613bb982612a24565b9150613bc483612a24565b925082821015613bd757613bd6613b7f565b5b828203905092915050565b6000613bed82612a24565b9150613bf883612a24565b9250827fffffffffffffffffffffffffffffffffffffffffffffffffffffffffffffffff03821115613c2d57613c2c613b7f565b5b828201905092915050565b7f4e487b7100000000000000000000000000000000000000000000000000000000600052603260045260246000fd5b6000613c7282612a24565b91507fffffffffffffffffffffffffffffffffffffffffffffffffffffffffffffffff821415613ca557613ca4613b7f565b5b600182019050919050565b7f455243313135353a207472616e736665722063616c6c6572206973206e6f742060008201527f6f776e6572206e6f7220617070726f7665640000000000000000000000000000602082015250565b6000613d0c603283612bb7565b9150613d1782613cb0565b604082019050919050565b60006020820190508181036000830152613d3b81613cff565b9050919050565b6000613d4d82612a24565b9150613d5883612a24565b9250817fffffffffffffffffffffffffffffffffffffffffffffffffffffffffffffffff0483118215151615613d9157613d90613b7f565b5b828202905092915050565b7f6d73672e76616c756520213d207072696365202a2a20646563696d616c730000600082015250565b6000613dd2601e83612bb7565b9150613ddd82613d9c565b602082019050919050565b60006020820190508181036000830152613e0181613dc5565b9050919050565b7f5072696365206d757374206265206174206c6561737420312077656900000000600082015250565b6000613e3e601c83612bb7565b9150613e4982613e08565b602082019050919050565b60006020820190508181036000830152613e6d81613e31565b9050919050565b7f455243313135353a206163636f756e747320616e6420696473206c656e67746860008201527f206d69736d617463680000000000000000000000000000000000000000000000602082015250565b6000613ed0602983612bb7565b9150613edb82613e74565b604082019050919050565b60006020820190508181036000830152613eff81613ec3565b9050919050565b7f455243313135353a2063616c6c6572206973206e6f74206f776e6572206e6f7260008201527f20617070726f7665640000000000000000000000000000000000000000000000602082015250565b6000613f62602983612bb7565b9150613f6d82613f06565b604082019050919050565b60006020820190508181036000830152613f9181613f55565b9050919050565b7f455243313135353a2069647320616e6420616d6f756e7473206c656e6774682060008201527f6d69736d61746368000000000000000000000000000000000000000000000000602082015250565b6000613ff4602883612bb7565b9150613fff82613f98565b604082019050919050565b6000602082019050818103600083015261402381613fe7565b9050919050565b7f455243313135353a207472616e7366657220746f20746865207a65726f20616460008201527f6472657373000000000000000000000000000000000000000000000000000000602082015250565b6000614086602583612bb7565b91506140918261402a565b604082019050919050565b600060208201905081810360008301526140b581614079565b9050919050565b7f455243313135353a20696e73756666696369656e742062616c616e636520666f60008201527f72207472616e7366657200000000000000000000000000000000000000000000602082015250565b6000614118602a83612bb7565b9150614123826140bc565b604082019050919050565b600060208201905081810360008301526141478161410b565b9050919050565b6000604082019050818103600083015261416881856134fa565b9050818103602083015261417c81846134fa565b90509392505050565b600060408201905061419a6000830185612a9a565b6141a76020830184612a9a565b9392505050565b7f455243313135353a206d696e7420746f20746865207a65726f2061646472657360008201527f7300000000000000000000000000000000000000000000000000000000000000602082015250565b600061420a602183612bb7565b9150614215826141ae565b604082019050919050565b60006020820190508181036000830152614239816141fd565b9050919050565b7f455243313135353a2073657474696e6720617070726f76616c2073746174757360008201527f20666f722073656c660000000000000000000000000000000000000000000000602082015250565b600061429c602983612bb7565b91506142a782614240565b604082019050919050565b600060208201905081810360008301526142cb8161428f565b9050919050565b6142db816129e6565b82525050565b600081519050919050565b600082825260208201905092915050565b6000614308826142e1565b61431281856142ec565b9350614322818560208601612bc8565b61432b81612bfb565b840191505092915050565b600060a08201905061434b60008301886142d2565b61435860208301876142d2565b818103604083015261436a81866134fa565b9050818103606083015261437e81856134fa565b9050818103608083015261439281846142fd565b90509695505050505050565b6000815190506143ad81612af0565b92915050565b6000602082840312156143c9576143c86129bc565b5b60006143d78482850161439e565b91505092915050565b60008160e01c9050919050565b600060033d111561440c5760046000803e6144096000516143e0565b90505b90565b600060443d101561441f576144a2565b6144276129b2565b60043d036004823e80513d602482011167ffffffffffffffff8211171561444f5750506144a2565b808201805167ffffffffffffffff81111561446d57505050506144a2565b80602083010160043d03850181111561448a5750505050506144a2565b61449982602001850186612e2b565b82955050505050505b90565b7f455243313135353a207472616e7366657220746f206e6f6e204552433131353560008201527f526563656976657220696d706c656d656e746572000000000000000000000000602082015250565b6000614501603483612bb7565b915061450c826144a5565b604082019050919050565b60006020820190508181036000830152614530816144f4565b9050919050565b7f455243313135353a204552433131353552656365697665722072656a6563746560008201527f6420746f6b656e73000000000000000000000000000000000000000000000000602082015250565b6000614593602883612bb7565b915061459e82614537565b604082019050919050565b600060208201905081810360008301526145c281614586565b9050919050565b600060a0820190506145de60008301886142d2565b6145eb60208301876142d2565b6145f86040830186612a9a565b6146056060830185612a9a565b818103608083015261461781846142fd565b9050969550505050505056fea2646970667358221220a69964dd418f39ed37df342a0258e351feb2b735c616a9634023a4bac46abb9464736f6c634300080b0033",
  "immutableReferences": {},
  "source": "// SPDX-License-Identifier: MIT\r\npragma solidity ^0.8.11;\r\n\r\nimport '@openzeppelin/contracts/token/ERC1155/IERC1155.sol';\r\nimport \"@openzeppelin/contracts/token/ERC1155/ERC1155.sol\";\r\nimport \"@openzeppelin/contracts/utils/Counters.sol\";\r\n\r\ncontract Event is ERC1155 {\r\n    using Counters for Counters.Counter;\r\n    Counters.Counter private _tokenIds;\r\n    Counters.Counter private _itemIds;\r\n    Counters.Counter private _itemsSold;\r\n    address payable owner;\r\n\r\n    constructor() ERC1155(\"\") {\r\n        owner = payable(msg.sender);\r\n    }\r\n\r\n    mapping(uint256 => string) private _uris;\r\n\r\n    struct EventItem {\r\n        uint256 tokenId;\r\n        address payable owner;\r\n    }\r\n\r\n    struct TicketItem {\r\n        uint256 tokenId;\r\n        uint256 eventTokenId;\r\n        address payable owner;\r\n        uint256 price;\r\n        bool list;\r\n    }\r\n\r\n    struct MarketItem {\r\n        uint256 itemId;\r\n        uint256 tokenId;\r\n        address payable seller;\r\n        address payable owner;\r\n        uint256 price;\r\n        bool sold;\r\n    }\r\n\r\n    mapping(uint256 => EventItem) private eventToken;\r\n    mapping(uint256 => TicketItem) private ticketToken;\r\n    mapping(uint256 => TicketItem[]) private ticketsInEvent;\r\n    mapping(uint256 => MarketItem) private ticketInMarket;\r\n\r\n    mapping(address => EventItem[]) private createdEvents;\r\n\r\n    function uri(uint256 tokenId) public view override returns (string memory) {\r\n        return (_uris[tokenId]);\r\n    }\r\n\r\n    function setTokenUri(uint256 tokenId, string memory tokenUri) public {\r\n        // require(bytes(_uris[tokenId]).length == 0, \"Cannot set uri twice\");\r\n        _uris[tokenId] = tokenUri;\r\n    }\r\n\r\n    function mintEvent(string memory tokenUri) public {\r\n        _tokenIds.increment();\r\n        uint256 newItemId = _tokenIds.current();\r\n\r\n        _mint(msg.sender, newItemId, 1, \"\");\r\n        setTokenUri(newItemId, tokenUri);\r\n        eventToken[newItemId] = EventItem(newItemId, payable(msg.sender));\r\n        createdEvents[msg.sender].push(eventToken[newItemId]);\r\n    }\r\n\r\n    function mintTicket(\r\n        string memory tokenUri,\r\n        uint256 eventTokenId,\r\n        uint256 quantity,\r\n        uint256 price\r\n    ) public {\r\n        for (uint256 i = 0; i < quantity; i++) {\r\n            _tokenIds.increment();\r\n            uint256 newItemId = _tokenIds.current();\r\n\r\n            _mint(msg.sender, newItemId, 1, \"\");\r\n            setTokenUri(newItemId, tokenUri);\r\n            ticketToken[newItemId] = TicketItem(\r\n                newItemId,\r\n                eventTokenId,\r\n                payable(msg.sender),\r\n                price,\r\n                false\r\n            );\r\n            ticketsInEvent[eventTokenId].push(ticketToken[newItemId]);\r\n            createMarketItem(newItemId, price);\r\n            setApprovalForAll(address(this), true);\r\n        }\r\n    }\r\n\r\n    function createMarketItem(uint256 tokenId, uint256 price) public payable {\r\n        require(price > 0, \"Price must be at least 1 wei\");\r\n\r\n        _itemIds.increment();\r\n        uint256 itemId = _itemIds.current();\r\n\r\n        ticketInMarket[itemId] = MarketItem(\r\n            itemId,\r\n            tokenId,\r\n            payable(msg.sender),\r\n            payable(msg.sender),\r\n            price,\r\n            false\r\n        );\r\n\r\n        ticketToken[tokenId].list = true;\r\n\r\n        safeTransferFrom(msg.sender, address(this), tokenId, 1, \"\");\r\n    }\r\n\r\n    function buyMarketItem(uint256 itemId) public payable {\r\n        uint256 price = ticketInMarket[itemId].price;\r\n        uint256 tokenId = ticketInMarket[itemId].tokenId;\r\n        require(\r\n            msg.value == price * (10**10),\r\n            \"msg.value != price ** decimals\"\r\n        );\r\n\r\n        ticketInMarket[itemId].seller.transfer(msg.value);\r\n        ticketInMarket[itemId].owner = payable(msg.sender);\r\n        ticketInMarket[itemId].sold = true;\r\n        ticketToken[tokenId].owner = payable(msg.sender);\r\n        ticketToken[tokenId].list = false;\r\n        _itemsSold.increment();\r\n\r\n        _safeTransferFrom(address(this), msg.sender, tokenId, 1, \"\");\r\n    }\r\n\r\n    function fetchMarketItem(uint256 tokenId)\r\n        public\r\n        view\r\n        returns (MarketItem memory)\r\n    {\r\n        uint256 itemCount = _itemIds.current();\r\n        MarketItem memory item;\r\n\r\n        for (uint256 i = 0; i < itemCount; i++) {\r\n            if (ticketInMarket[i + 1].tokenId == tokenId) {\r\n                uint256 currentId = i + 1;\r\n                item = ticketInMarket[currentId];\r\n            }\r\n        }\r\n        return item;\r\n    }\r\n\r\n    function fetchMarketItems() public view returns (MarketItem[] memory) {\r\n        uint256 itemCount = _itemIds.current();\r\n        uint256 unsoldItemCount = _itemIds.current() - _itemsSold.current();\r\n        uint256 currentIndex = 0;\r\n\r\n        MarketItem[] memory items = new MarketItem[](unsoldItemCount);\r\n        for (uint256 i = 0; i < itemCount; i++) {\r\n            if (!ticketInMarket[i + 1].sold) {\r\n                uint256 currentId = i + 1;\r\n                MarketItem storage currentItem = ticketInMarket[currentId];\r\n                items[currentIndex] = currentItem;\r\n                currentIndex += 1;\r\n            }\r\n        }\r\n        return items;\r\n    }\r\n\r\n    function fetchCreatedEvents(address account)\r\n        public\r\n        view\r\n        returns (EventItem[] memory)\r\n    {\r\n        EventItem[] memory items = createdEvents[account];\r\n        return items;\r\n    }\r\n\r\n    function fetchTicketsInEvent(uint256 eventTokenId)\r\n        public\r\n        view\r\n        returns (TicketItem[] memory)\r\n    {\r\n        TicketItem[] memory items = ticketsInEvent[eventTokenId];\r\n        return items;\r\n    }\r\n\r\n    function fetchEvent(uint256 tokenId)\r\n        public\r\n        view\r\n        returns (EventItem memory)\r\n    {\r\n        EventItem memory item = eventToken[tokenId];\r\n        return item;\r\n    }\r\n\r\n    function fetchTicket(uint256 tokenId)\r\n        public\r\n        view\r\n        returns (TicketItem memory)\r\n    {\r\n        TicketItem memory item = ticketToken[tokenId];\r\n        return item;\r\n    }\r\n\r\n    function onERC1155Received(\r\n        address,\r\n        address,\r\n        uint256,\r\n        uint256,\r\n        bytes memory\r\n    ) public virtual returns (bytes4) {\r\n        return this.onERC1155Received.selector;\r\n    }\r\n\r\n    function onERC1155BatchReceived(\r\n        address,\r\n        address,\r\n        uint256[] memory,\r\n        uint256[] memory,\r\n        bytes memory\r\n    ) public virtual returns (bytes4) {\r\n        return this.onERC1155BatchReceived.selector;\r\n    }\r\n\r\n    function onERC721Received(\r\n        address,\r\n        address,\r\n        uint256,\r\n        bytes memory\r\n    ) public virtual returns (bytes4) {\r\n        return this.onERC721Received.selector;\r\n    }\r\n}\r\n",
  "sourcePath": "D:\\Final Project\\ticketplace\\contracts\\Event.sol",
  "compiler": {
    "name": "solc",
    "version": "0.8.11+commit.d7f03943.Emscripten.clang"
  },
  "schemaVersion": "3.4.4",
  "updatedAt": "2022-02-17T17:51:27.710Z",
  "networkType": "ethereum",
  "devdoc": {
    "kind": "dev",
    "methods": {
      "balanceOf(address,uint256)": {
        "details": "See {IERC1155-balanceOf}. Requirements: - `account` cannot be the zero address."
      },
      "balanceOfBatch(address[],uint256[])": {
        "details": "See {IERC1155-balanceOfBatch}. Requirements: - `accounts` and `ids` must have the same length."
      },
      "isApprovedForAll(address,address)": {
        "details": "See {IERC1155-isApprovedForAll}."
      },
      "safeBatchTransferFrom(address,address,uint256[],uint256[],bytes)": {
        "details": "See {IERC1155-safeBatchTransferFrom}."
      },
      "safeTransferFrom(address,address,uint256,uint256,bytes)": {
        "details": "See {IERC1155-safeTransferFrom}."
      },
      "setApprovalForAll(address,bool)": {
        "details": "See {IERC1155-setApprovalForAll}."
      },
      "supportsInterface(bytes4)": {
        "details": "See {IERC165-supportsInterface}."
      }
    },
    "version": 1
  },
  "userdoc": {
    "kind": "user",
    "methods": {},
    "version": 1
  }
}