{
  "contractName": "Event",
  "abi": [
    {
      "inputs": [],
      "stateMutability": "nonpayable",
      "type": "constructor"
    },
    {
      "anonymous": false,
      "inputs": [
        {
          "indexed": true,
          "internalType": "address",
          "name": "account",
          "type": "address"
        },
        {
          "indexed": true,
          "internalType": "address",
          "name": "operator",
          "type": "address"
        },
        {
          "indexed": false,
          "internalType": "bool",
          "name": "approved",
          "type": "bool"
        }
      ],
      "name": "ApprovalForAll",
      "type": "event"
    },
    {
      "anonymous": false,
      "inputs": [
        {
          "indexed": true,
          "internalType": "address",
          "name": "operator",
          "type": "address"
        },
        {
          "indexed": true,
          "internalType": "address",
          "name": "from",
          "type": "address"
        },
        {
          "indexed": true,
          "internalType": "address",
          "name": "to",
          "type": "address"
        },
        {
          "indexed": false,
          "internalType": "uint256[]",
          "name": "ids",
          "type": "uint256[]"
        },
        {
          "indexed": false,
          "internalType": "uint256[]",
          "name": "values",
          "type": "uint256[]"
        }
      ],
      "name": "TransferBatch",
      "type": "event"
    },
    {
      "anonymous": false,
      "inputs": [
        {
          "indexed": true,
          "internalType": "address",
          "name": "operator",
          "type": "address"
        },
        {
          "indexed": true,
          "internalType": "address",
          "name": "from",
          "type": "address"
        },
        {
          "indexed": true,
          "internalType": "address",
          "name": "to",
          "type": "address"
        },
        {
          "indexed": false,
          "internalType": "uint256",
          "name": "id",
          "type": "uint256"
        },
        {
          "indexed": false,
          "internalType": "uint256",
          "name": "value",
          "type": "uint256"
        }
      ],
      "name": "TransferSingle",
      "type": "event"
    },
    {
      "anonymous": false,
      "inputs": [
        {
          "indexed": false,
          "internalType": "string",
          "name": "value",
          "type": "string"
        },
        {
          "indexed": true,
          "internalType": "uint256",
          "name": "id",
          "type": "uint256"
        }
      ],
      "name": "URI",
      "type": "event"
    },
    {
      "inputs": [
        {
          "internalType": "address",
          "name": "account",
          "type": "address"
        },
        {
          "internalType": "uint256",
          "name": "id",
          "type": "uint256"
        }
      ],
      "name": "balanceOf",
      "outputs": [
        {
          "internalType": "uint256",
          "name": "",
          "type": "uint256"
        }
      ],
      "stateMutability": "view",
      "type": "function",
      "constant": true
    },
    {
      "inputs": [
        {
          "internalType": "address[]",
          "name": "accounts",
          "type": "address[]"
        },
        {
          "internalType": "uint256[]",
          "name": "ids",
          "type": "uint256[]"
        }
      ],
      "name": "balanceOfBatch",
      "outputs": [
        {
          "internalType": "uint256[]",
          "name": "",
          "type": "uint256[]"
        }
      ],
      "stateMutability": "view",
      "type": "function",
      "constant": true
    },
    {
      "inputs": [
        {
          "internalType": "address",
          "name": "account",
          "type": "address"
        },
        {
          "internalType": "address",
          "name": "operator",
          "type": "address"
        }
      ],
      "name": "isApprovedForAll",
      "outputs": [
        {
          "internalType": "bool",
          "name": "",
          "type": "bool"
        }
      ],
      "stateMutability": "view",
      "type": "function",
      "constant": true
    },
    {
      "inputs": [
        {
          "internalType": "address",
          "name": "from",
          "type": "address"
        },
        {
          "internalType": "address",
          "name": "to",
          "type": "address"
        },
        {
          "internalType": "uint256[]",
          "name": "ids",
          "type": "uint256[]"
        },
        {
          "internalType": "uint256[]",
          "name": "amounts",
          "type": "uint256[]"
        },
        {
          "internalType": "bytes",
          "name": "data",
          "type": "bytes"
        }
      ],
      "name": "safeBatchTransferFrom",
      "outputs": [],
      "stateMutability": "nonpayable",
      "type": "function"
    },
    {
      "inputs": [
        {
          "internalType": "address",
          "name": "from",
          "type": "address"
        },
        {
          "internalType": "address",
          "name": "to",
          "type": "address"
        },
        {
          "internalType": "uint256",
          "name": "id",
          "type": "uint256"
        },
        {
          "internalType": "uint256",
          "name": "amount",
          "type": "uint256"
        },
        {
          "internalType": "bytes",
          "name": "data",
          "type": "bytes"
        }
      ],
      "name": "safeTransferFrom",
      "outputs": [],
      "stateMutability": "nonpayable",
      "type": "function"
    },
    {
      "inputs": [
        {
          "internalType": "address",
          "name": "operator",
          "type": "address"
        },
        {
          "internalType": "bool",
          "name": "approved",
          "type": "bool"
        }
      ],
      "name": "setApprovalForAll",
      "outputs": [],
      "stateMutability": "nonpayable",
      "type": "function"
    },
    {
      "inputs": [
        {
          "internalType": "bytes4",
          "name": "interfaceId",
          "type": "bytes4"
        }
      ],
      "name": "supportsInterface",
      "outputs": [
        {
          "internalType": "bool",
          "name": "",
          "type": "bool"
        }
      ],
      "stateMutability": "view",
      "type": "function",
      "constant": true
    },
    {
      "inputs": [
        {
          "internalType": "uint256",
          "name": "tokenId",
          "type": "uint256"
        }
      ],
      "name": "uri",
      "outputs": [
        {
          "internalType": "string",
          "name": "",
          "type": "string"
        }
      ],
      "stateMutability": "view",
      "type": "function",
      "constant": true
    },
    {
      "inputs": [
        {
          "internalType": "uint256",
          "name": "tokenId",
          "type": "uint256"
        },
        {
          "internalType": "string",
          "name": "tokenUri",
          "type": "string"
        }
      ],
      "name": "setTokenUri",
      "outputs": [],
      "stateMutability": "nonpayable",
      "type": "function"
    },
    {
      "inputs": [
        {
          "internalType": "string",
          "name": "tokenUri",
          "type": "string"
        }
      ],
      "name": "mintEvent",
      "outputs": [],
      "stateMutability": "nonpayable",
      "type": "function"
    },
    {
      "inputs": [
        {
          "internalType": "string",
          "name": "tokenUri",
          "type": "string"
        },
        {
          "internalType": "uint256",
          "name": "eventTokenId",
          "type": "uint256"
        },
        {
          "internalType": "uint256",
          "name": "quantity",
          "type": "uint256"
        },
        {
          "internalType": "uint256",
          "name": "price",
          "type": "uint256"
        }
      ],
      "name": "mintTicket",
      "outputs": [],
      "stateMutability": "nonpayable",
      "type": "function"
    },
    {
      "inputs": [
        {
          "internalType": "uint256",
          "name": "tokenId",
          "type": "uint256"
        },
        {
          "internalType": "uint256",
          "name": "price",
          "type": "uint256"
        }
      ],
      "name": "createMarketItem",
      "outputs": [],
      "stateMutability": "payable",
      "type": "function",
      "payable": true
    },
    {
      "inputs": [
        {
          "internalType": "uint256",
          "name": "itemId",
          "type": "uint256"
        }
      ],
      "name": "cancelListing",
      "outputs": [],
      "stateMutability": "payable",
      "type": "function",
      "payable": true
    },
    {
      "inputs": [
        {
          "internalType": "uint256",
          "name": "itemId",
          "type": "uint256"
        }
      ],
      "name": "buyMarketItem",
      "outputs": [],
      "stateMutability": "payable",
      "type": "function",
      "payable": true
    },
    {
      "inputs": [
        {
          "internalType": "uint256",
          "name": "tokenId",
          "type": "uint256"
        }
      ],
      "name": "fetchMarketItem",
      "outputs": [
        {
          "components": [
            {
              "internalType": "uint256",
              "name": "itemId",
              "type": "uint256"
            },
            {
              "internalType": "uint256",
              "name": "tokenId",
              "type": "uint256"
            },
            {
              "internalType": "address payable",
              "name": "seller",
              "type": "address"
            },
            {
              "internalType": "address payable",
              "name": "owner",
              "type": "address"
            },
            {
              "internalType": "uint256",
              "name": "price",
              "type": "uint256"
            },
            {
              "internalType": "bool",
              "name": "sold",
              "type": "bool"
            }
          ],
          "internalType": "struct Event.MarketItem",
          "name": "",
          "type": "tuple"
        }
      ],
      "stateMutability": "view",
      "type": "function",
      "constant": true
    },
    {
      "inputs": [],
      "name": "fetchMarketItems",
      "outputs": [
        {
          "components": [
            {
              "internalType": "uint256",
              "name": "itemId",
              "type": "uint256"
            },
            {
              "internalType": "uint256",
              "name": "tokenId",
              "type": "uint256"
            },
            {
              "internalType": "address payable",
              "name": "seller",
              "type": "address"
            },
            {
              "internalType": "address payable",
              "name": "owner",
              "type": "address"
            },
            {
              "internalType": "uint256",
              "name": "price",
              "type": "uint256"
            },
            {
              "internalType": "bool",
              "name": "sold",
              "type": "bool"
            }
          ],
          "internalType": "struct Event.MarketItem[]",
          "name": "",
          "type": "tuple[]"
        }
      ],
      "stateMutability": "view",
      "type": "function",
      "constant": true
    },
    {
      "inputs": [
        {
          "internalType": "address",
          "name": "account",
          "type": "address"
        }
      ],
      "name": "fetchOwnedListings",
      "outputs": [
        {
          "components": [
            {
              "internalType": "uint256",
              "name": "itemId",
              "type": "uint256"
            },
            {
              "internalType": "uint256",
              "name": "tokenId",
              "type": "uint256"
            },
            {
              "internalType": "address payable",
              "name": "seller",
              "type": "address"
            },
            {
              "internalType": "address payable",
              "name": "owner",
              "type": "address"
            },
            {
              "internalType": "uint256",
              "name": "price",
              "type": "uint256"
            },
            {
              "internalType": "bool",
              "name": "sold",
              "type": "bool"
            }
          ],
          "internalType": "struct Event.MarketItem[]",
          "name": "",
          "type": "tuple[]"
        }
      ],
      "stateMutability": "view",
      "type": "function",
      "constant": true
    },
    {
      "inputs": [
        {
          "internalType": "address",
          "name": "account",
          "type": "address"
        }
      ],
      "name": "fetchCreatedEvents",
      "outputs": [
        {
          "components": [
            {
              "internalType": "uint256",
              "name": "tokenId",
              "type": "uint256"
            },
            {
              "internalType": "address payable",
              "name": "owner",
              "type": "address"
            }
          ],
          "internalType": "struct Event.EventItem[]",
          "name": "",
          "type": "tuple[]"
        }
      ],
      "stateMutability": "view",
      "type": "function",
      "constant": true
    },
    {
      "inputs": [
        {
          "internalType": "address",
          "name": "account",
          "type": "address"
        }
      ],
      "name": "fetchOwnedEvents",
      "outputs": [
        {
          "components": [
            {
              "internalType": "uint256",
              "name": "tokenId",
              "type": "uint256"
            },
            {
              "internalType": "address payable",
              "name": "owner",
              "type": "address"
            }
          ],
          "internalType": "struct Event.EventItem[]",
          "name": "",
          "type": "tuple[]"
        }
      ],
      "stateMutability": "view",
      "type": "function",
      "constant": true
    },
    {
      "inputs": [
        {
          "internalType": "address",
          "name": "account",
          "type": "address"
        }
      ],
      "name": "fetchCreatedTickets",
      "outputs": [
        {
          "components": [
            {
              "internalType": "uint256",
              "name": "tokenId",
              "type": "uint256"
            }
          ],
          "internalType": "struct Event.Item[]",
          "name": "",
          "type": "tuple[]"
        }
      ],
      "stateMutability": "view",
      "type": "function",
      "constant": true
    },
    {
      "inputs": [
        {
          "internalType": "address",
          "name": "account",
          "type": "address"
        },
        {
          "internalType": "bool",
          "name": "isCreator",
          "type": "bool"
        }
      ],
      "name": "fetchOwnedTickets",
      "outputs": [
        {
          "components": [
            {
              "internalType": "uint256",
              "name": "tokenId",
              "type": "uint256"
            },
            {
              "internalType": "uint256",
              "name": "eventTokenId",
              "type": "uint256"
            },
            {
              "internalType": "address payable",
              "name": "owner",
              "type": "address"
            },
            {
              "internalType": "uint256",
              "name": "price",
              "type": "uint256"
            },
            {
              "internalType": "bool",
              "name": "list",
              "type": "bool"
            },
            {
              "internalType": "bool",
              "name": "active",
              "type": "bool"
            }
          ],
          "internalType": "struct Event.TicketItem[]",
          "name": "",
          "type": "tuple[]"
        }
      ],
      "stateMutability": "view",
      "type": "function",
      "constant": true
    },
    {
      "inputs": [
        {
          "internalType": "uint256",
          "name": "eventTokenId",
          "type": "uint256"
        }
      ],
      "name": "fetchTicketsInEvent",
      "outputs": [
        {
          "components": [
            {
              "internalType": "uint256",
              "name": "tokenId",
              "type": "uint256"
            }
          ],
          "internalType": "struct Event.Item[]",
          "name": "",
          "type": "tuple[]"
        }
      ],
      "stateMutability": "view",
      "type": "function",
      "constant": true
    },
    {
      "inputs": [
        {
          "internalType": "uint256",
          "name": "tokenId",
          "type": "uint256"
        }
      ],
      "name": "fetchEvent",
      "outputs": [
        {
          "components": [
            {
              "internalType": "uint256",
              "name": "tokenId",
              "type": "uint256"
            },
            {
              "internalType": "address payable",
              "name": "owner",
              "type": "address"
            }
          ],
          "internalType": "struct Event.EventItem",
          "name": "",
          "type": "tuple"
        }
      ],
      "stateMutability": "view",
      "type": "function",
      "constant": true
    },
    {
      "inputs": [
        {
          "internalType": "uint256",
          "name": "tokenId",
          "type": "uint256"
        }
      ],
      "name": "fetchTicket",
      "outputs": [
        {
          "components": [
            {
              "internalType": "uint256",
              "name": "tokenId",
              "type": "uint256"
            },
            {
              "internalType": "uint256",
              "name": "eventTokenId",
              "type": "uint256"
            },
            {
              "internalType": "address payable",
              "name": "owner",
              "type": "address"
            },
            {
              "internalType": "uint256",
              "name": "price",
              "type": "uint256"
            },
            {
              "internalType": "bool",
              "name": "list",
              "type": "bool"
            },
            {
              "internalType": "bool",
              "name": "active",
              "type": "bool"
            }
          ],
          "internalType": "struct Event.TicketItem",
          "name": "",
          "type": "tuple"
        }
      ],
      "stateMutability": "view",
      "type": "function",
      "constant": true
    },
    {
      "inputs": [
        {
          "internalType": "address",
          "name": "",
          "type": "address"
        },
        {
          "internalType": "address",
          "name": "",
          "type": "address"
        },
        {
          "internalType": "uint256",
          "name": "",
          "type": "uint256"
        },
        {
          "internalType": "uint256",
          "name": "",
          "type": "uint256"
        },
        {
          "internalType": "bytes",
          "name": "",
          "type": "bytes"
        }
      ],
      "name": "onERC1155Received",
      "outputs": [
        {
          "internalType": "bytes4",
          "name": "",
          "type": "bytes4"
        }
      ],
      "stateMutability": "nonpayable",
      "type": "function"
    },
    {
      "inputs": [
        {
          "internalType": "address",
          "name": "",
          "type": "address"
        },
        {
          "internalType": "address",
          "name": "",
          "type": "address"
        },
        {
          "internalType": "uint256[]",
          "name": "",
          "type": "uint256[]"
        },
        {
          "internalType": "uint256[]",
          "name": "",
          "type": "uint256[]"
        },
        {
          "internalType": "bytes",
          "name": "",
          "type": "bytes"
        }
      ],
      "name": "onERC1155BatchReceived",
      "outputs": [
        {
          "internalType": "bytes4",
          "name": "",
          "type": "bytes4"
        }
      ],
      "stateMutability": "nonpayable",
      "type": "function"
    },
    {
      "inputs": [
        {
          "internalType": "address",
          "name": "",
          "type": "address"
        },
        {
          "internalType": "address",
          "name": "",
          "type": "address"
        },
        {
          "internalType": "uint256",
          "name": "",
          "type": "uint256"
        },
        {
          "internalType": "bytes",
          "name": "",
          "type": "bytes"
        }
      ],
      "name": "onERC721Received",
      "outputs": [
        {
          "internalType": "bytes4",
          "name": "",
          "type": "bytes4"
        }
      ],
      "stateMutability": "nonpayable",
      "type": "function"
    }
  ],
  "bytecode": "0x60806040523480156200001157600080fd5b506040518060200160405280600081525062000033816200007b60201b60201c565b5033600660006101000a81548173ffffffffffffffffffffffffffffffffffffffff021916908373ffffffffffffffffffffffffffffffffffffffff160217905550620001ac565b80600290805190602001906200009392919062000097565b5050565b828054620000a59062000176565b90600052602060002090601f016020900481019282620000c9576000855562000115565b82601f10620000e457805160ff191683800117855562000115565b8280016001018555821562000115579182015b8281111562000114578251825591602001919060010190620000f7565b5b50905062000124919062000128565b5090565b5b808211156200014357600081600090555060010162000129565b5090565b7f4e487b7100000000000000000000000000000000000000000000000000000000600052602260045260246000fd5b600060028204905060018216806200018f57607f821691505b60208210811415620001a657620001a562000147565b5b50919050565b61593e80620001bc6000396000f3fe60806040526004361061019b5760003560e01c80635105d526116100ec578063d94646b21161008a578063f242432a11610064578063f242432a14610642578063f6b92b231461066b578063f792d45d146106a8578063f9d5c505146106e55761019b565b8063d94646b21461058b578063e985e9c5146105c8578063f23a6e61146106055761019b565b806397dada91116100c657806397dada91146104d35780639be0b935146104fc578063a22cb46514610525578063bc197c811461054e5761019b565b80635105d5261461043057806357f7789e1461046d5780638c8b5fd6146104965761019b565b80632a45b2501161015957806331d909701161013357806331d909701461037e578063351901c3146103bb578063361c1995146103d75780634e1273f4146103f35761019b565b80632a45b250146102fc5780632eb2c2d614610339578063305a67a8146103625761019b565b8062fdd58e146101a057806301ffc9a7146101dd5780630e89341c1461021a5780630f08efe014610257578063150b7a021461028257806327a2cf39146102bf575b600080fd5b3480156101ac57600080fd5b506101c760048036038101906101c29190613b9a565b610722565b6040516101d49190613be9565b60405180910390f35b3480156101e957600080fd5b5061020460048036038101906101ff9190613c5c565b6107eb565b6040516102119190613ca4565b60405180910390f35b34801561022657600080fd5b50610241600480360381019061023c9190613cbf565b6108cd565b60405161024e9190613d85565b60405180910390f35b34801561026357600080fd5b5061026c610972565b6040516102799190613f10565b60405180910390f35b34801561028e57600080fd5b506102a960048036038101906102a49190614067565b610b9d565b6040516102b691906140f9565b60405180910390f35b3480156102cb57600080fd5b506102e660048036038101906102e19190614114565b610bb1565b6040516102f3919061421f565b60405180910390f35b34801561030857600080fd5b50610323600480360381019061031e9190613cbf565b610e20565b60405161033091906142bc565b60405180910390f35b34801561034557600080fd5b50610360600480360381019061035b919061439f565b610fa9565b005b61037c60048036038101906103779190613cbf565b61104a565b005b34801561038a57600080fd5b506103a560048036038101906103a09190614114565b611205565b6040516103b2919061421f565b60405180910390f35b6103d560048036038101906103d09190613cbf565b611309565b005b6103f160048036038101906103ec919061446e565b611542565b005b3480156103ff57600080fd5b5061041a60048036038101906104159190614571565b6117eb565b6040516104279190614698565b60405180910390f35b34801561043c57600080fd5b5061045760048036038101906104529190613cbf565b611904565b6040516104649190614735565b60405180910390f35b34801561047957600080fd5b50610494600480360381019061048f91906147f1565b6119e1565b005b3480156104a257600080fd5b506104bd60048036038101906104b89190613cbf565b611a0d565b6040516104ca919061487c565b60405180910390f35b3480156104df57600080fd5b506104fa60048036038101906104f59190614897565b611aa0565b005b34801561050857600080fd5b50610523600480360381019061051e919061491a565b611c65565b005b34801561053157600080fd5b5061054c6004803603810190610547919061498f565b611e27565b005b34801561055a57600080fd5b506105756004803603810190610570919061439f565b611e3d565b60405161058291906140f9565b60405180910390f35b34801561059757600080fd5b506105b260048036038101906105ad919061498f565b611e52565b6040516105bf9190614af9565b60405180910390f35b3480156105d457600080fd5b506105ef60048036038101906105ea9190614b1b565b612486565b6040516105fc9190613ca4565b60405180910390f35b34801561061157600080fd5b5061062c60048036038101906106279190614b5b565b61251a565b60405161063991906140f9565b60405180910390f35b34801561064e57600080fd5b5061066960048036038101906106649190614b5b565b61252f565b005b34801561067757600080fd5b50610692600480360381019061068d9190614114565b6125d0565b60405161069f9190614cbd565b60405180910390f35b3480156106b457600080fd5b506106cf60048036038101906106ca9190614114565b612872565b6040516106dc9190613f10565b60405180910390f35b3480156106f157600080fd5b5061070c60048036038101906107079190613cbf565b612b66565b6040516107199190614cbd565b60405180910390f35b60008073ffffffffffffffffffffffffffffffffffffffff168373ffffffffffffffffffffffffffffffffffffffff161415610793576040517f08c379a000000000000000000000000000000000000000000000000000000000815260040161078a90614d51565b60405180910390fd5b60008083815260200190815260200160002060008473ffffffffffffffffffffffffffffffffffffffff1673ffffffffffffffffffffffffffffffffffffffff16815260200190815260200160002054905092915050565b60007fd9b67a26000000000000000000000000000000000000000000000000000000007bffffffffffffffffffffffffffffffffffffffffffffffffffffffff1916827bffffffffffffffffffffffffffffffffffffffffffffffffffffffff191614806108b657507f0e89341c000000000000000000000000000000000000000000000000000000007bffffffffffffffffffffffffffffffffffffffffffffffffffffffff1916827bffffffffffffffffffffffffffffffffffffffffffffffffffffffff1916145b806108c657506108c582612be4565b5b9050919050565b60606007600083815260200190815260200160002080546108ed90614da0565b80601f016020809104026020016040519081016040528092919081815260200182805461091990614da0565b80156109665780601f1061093b57610100808354040283529160200191610966565b820191906000526020600020905b81548152906001019060200180831161094957829003601f168201915b50505050509050919050565b606060006109806004612c4e565b9050600061098e6005612c4e565b6109986004612c4e565b6109a29190614e01565b90506000808267ffffffffffffffff8111156109c1576109c0613f3c565b5b6040519080825280602002602001820160405280156109fa57816020015b6109e7613958565b8152602001906001900390816109df5790505b50905060005b84811015610b9257600b6000600183610a199190614e35565b815260200190815260200160002060050160009054906101000a900460ff16610b7f576000600b6000600184610a4f9190614e35565b81526020019081526020016000209050806040518060c001604052908160008201548152602001600182015481526020016002820160009054906101000a900473ffffffffffffffffffffffffffffffffffffffff1673ffffffffffffffffffffffffffffffffffffffff1673ffffffffffffffffffffffffffffffffffffffff1681526020016003820160009054906101000a900473ffffffffffffffffffffffffffffffffffffffff1673ffffffffffffffffffffffffffffffffffffffff1673ffffffffffffffffffffffffffffffffffffffff168152602001600482015481526020016005820160009054906101000a900460ff161515151581525050838581518110610b6357610b62614e8b565b5b6020026020010181905250600184610b7b9190614e35565b9350505b8080610b8a90614eba565b915050610a00565b508094505050505090565b600063150b7a0260e01b9050949350505050565b60606000610bbf6003612c4e565b905060008060005b83811015610c68578573ffffffffffffffffffffffffffffffffffffffff1660086000600184610bf79190614e35565b815260200190815260200160002060010160009054906101000a900473ffffffffffffffffffffffffffffffffffffffff1673ffffffffffffffffffffffffffffffffffffffff161415610c5557600183610c529190614e35565b92505b8080610c6090614eba565b915050610bc7565b5060008267ffffffffffffffff811115610c8557610c84613f3c565b5b604051908082528060200260200182016040528015610cbe57816020015b610cab6139bc565b815260200190600190039081610ca35790505b50905060005b84811015610e13578673ffffffffffffffffffffffffffffffffffffffff1660086000600184610cf49190614e35565b815260200190815260200160002060010160009054906101000a900473ffffffffffffffffffffffffffffffffffffffff1673ffffffffffffffffffffffffffffffffffffffff161415610e0057600060086000600184610d559190614e35565b8152602001908152602001600020905080604051806040016040529081600082015481526020016001820160009054906101000a900473ffffffffffffffffffffffffffffffffffffffff1673ffffffffffffffffffffffffffffffffffffffff1673ffffffffffffffffffffffffffffffffffffffff1681525050838581518110610de457610de3614e8b565b5b6020026020010181905250600184610dfc9190614e35565b9350505b8080610e0b90614eba565b915050610cc4565b5080945050505050919050565b610e28613958565b6000610e346004612c4e565b9050610e3e613958565b60005b82811015610f9e5784600b6000600184610e5b9190614e35565b8152602001908152602001600020600101541415610f8b576000600182610e829190614e35565b9050600b60008281526020019081526020016000206040518060c001604052908160008201548152602001600182015481526020016002820160009054906101000a900473ffffffffffffffffffffffffffffffffffffffff1673ffffffffffffffffffffffffffffffffffffffff1673ffffffffffffffffffffffffffffffffffffffff1681526020016003820160009054906101000a900473ffffffffffffffffffffffffffffffffffffffff1673ffffffffffffffffffffffffffffffffffffffff1673ffffffffffffffffffffffffffffffffffffffff168152602001600482015481526020016005820160009054906101000a900460ff1615151515815250509250505b8080610f9690614eba565b915050610e41565b508092505050919050565b610fb1612c5c565b73ffffffffffffffffffffffffffffffffffffffff168573ffffffffffffffffffffffffffffffffffffffff161480610ff75750610ff685610ff1612c5c565b612486565b5b611036576040517f08c379a000000000000000000000000000000000000000000000000000000000815260040161102d90614f75565b60405180910390fd5b6110438585858585612c64565b5050505050565b600b600082815260200190815260200160002060030160009054906101000a900473ffffffffffffffffffffffffffffffffffffffff1673ffffffffffffffffffffffffffffffffffffffff163373ffffffffffffffffffffffffffffffffffffffff16146110ee576040517f08c379a00000000000000000000000000000000000000000000000000000000081526004016110e590615007565b60405180910390fd5b6000600b60008381526020019081526020016000206001015490506000600960008381526020019081526020016000206003018190555060006009600083815260200190815260200160002060040160006101000a81548160ff021916908315150217905550600b600083815260200190815260200160002060008082016000905560018201600090556002820160006101000a81549073ffffffffffffffffffffffffffffffffffffffff02191690556003820160006101000a81549073ffffffffffffffffffffffffffffffffffffffff021916905560048201600090556005820160006101000a81549060ff02191690555050611201303383600160405180602001604052806000815250612f78565b5050565b60606000600c60008473ffffffffffffffffffffffffffffffffffffffff1673ffffffffffffffffffffffffffffffffffffffff168152602001908152602001600020805480602002602001604051908101604052809291908181526020016000905b828210156112fa5783829060005260206000209060020201604051806040016040529081600082015481526020016001820160009054906101000a900473ffffffffffffffffffffffffffffffffffffffff1673ffffffffffffffffffffffffffffffffffffffff1673ffffffffffffffffffffffffffffffffffffffff168152505081526020019060010190611268565b50505050905080915050919050565b6000600b60008381526020019081526020016000206004015490506000600b60008481526020019081526020016000206001015490506402540be400826113509190615027565b3414611391576040517f08c379a0000000000000000000000000000000000000000000000000000000008152600401611388906150cd565b60405180910390fd5b600b600084815260200190815260200160002060020160009054906101000a900473ffffffffffffffffffffffffffffffffffffffff1673ffffffffffffffffffffffffffffffffffffffff166108fc349081150290604051600060405180830381858888f1935050505015801561140d573d6000803e3d6000fd5b5033600b600085815260200190815260200160002060030160006101000a81548173ffffffffffffffffffffffffffffffffffffffff021916908373ffffffffffffffffffffffffffffffffffffffff1602179055506001600b600085815260200190815260200160002060050160006101000a81548160ff021916908315150217905550336009600083815260200190815260200160002060020160006101000a81548173ffffffffffffffffffffffffffffffffffffffff021916908373ffffffffffffffffffffffffffffffffffffffff16021790555060006009600083815260200190815260200160002060040160006101000a81548160ff02191690831515021790555061152060056131fa565b61153d303383600160405180602001604052806000815250612f78565b505050565b6009600083815260200190815260200160002060020160009054906101000a900473ffffffffffffffffffffffffffffffffffffffff1673ffffffffffffffffffffffffffffffffffffffff163373ffffffffffffffffffffffffffffffffffffffff16146115e6576040517f08c379a00000000000000000000000000000000000000000000000000000000081526004016115dd90615007565b60405180910390fd5b60008111611629576040517f08c379a000000000000000000000000000000000000000000000000000000000815260040161162090615139565b60405180910390fd5b61163360046131fa565b600061163f6004612c4e565b90506040518060c001604052808281526020018481526020013373ffffffffffffffffffffffffffffffffffffffff1681526020013373ffffffffffffffffffffffffffffffffffffffff16815260200183815260200160001515815250600b6000838152602001908152602001600020600082015181600001556020820151816001015560408201518160020160006101000a81548173ffffffffffffffffffffffffffffffffffffffff021916908373ffffffffffffffffffffffffffffffffffffffff16021790555060608201518160030160006101000a81548173ffffffffffffffffffffffffffffffffffffffff021916908373ffffffffffffffffffffffffffffffffffffffff1602179055506080820151816004015560a08201518160050160006101000a81548160ff02191690831515021790555090505081600960008581526020019081526020016000206003018190555060016009600085815260200190815260200160002060040160006101000a81548160ff0219169083151502179055506117e633308560016040518060200160405280600081525061252f565b505050565b60608151835114611831576040517f08c379a0000000000000000000000000000000000000000000000000000000008152600401611828906151cb565b60405180910390fd5b6000835167ffffffffffffffff81111561184e5761184d613f3c565b5b60405190808252806020026020018201604052801561187c5781602001602082028036833780820191505090505b50905060005b84518110156118f9576118c98582815181106118a1576118a0614e8b565b5b60200260200101518583815181106118bc576118bb614e8b565b5b6020026020010151610722565b8282815181106118dc576118db614e8b565b5b602002602001018181525050806118f290614eba565b9050611882565b508091505092915050565b61190c6139ec565b6000600960008481526020019081526020016000206040518060c001604052908160008201548152602001600182015481526020016002820160009054906101000a900473ffffffffffffffffffffffffffffffffffffffff1673ffffffffffffffffffffffffffffffffffffffff1673ffffffffffffffffffffffffffffffffffffffff168152602001600382015481526020016004820160009054906101000a900460ff161515151581526020016004820160019054906101000a900460ff161515151581525050905080915050919050565b80600760008481526020019081526020016000209080519060200190611a08929190613a3c565b505050565b611a156139bc565b600060086000848152602001908152602001600020604051806040016040529081600082015481526020016001820160009054906101000a900473ffffffffffffffffffffffffffffffffffffffff1673ffffffffffffffffffffffffffffffffffffffff1673ffffffffffffffffffffffffffffffffffffffff1681525050905080915050919050565b60005b82811015611c5e57611ab560036131fa565b6000611ac16003612c4e565b9050611adf3382600160405180602001604052806000815250613210565b611ae981876119e1565b6040518060c001604052808281526020018681526020013373ffffffffffffffffffffffffffffffffffffffff1681526020018481526020016000151581526020016001151581525060096000838152602001908152602001600020600082015181600001556020820151816001015560408201518160020160006101000a81548173ffffffffffffffffffffffffffffffffffffffff021916908373ffffffffffffffffffffffffffffffffffffffff1602179055506060820151816003015560808201518160040160006101000a81548160ff02191690831515021790555060a08201518160040160016101000a81548160ff021916908315150217905550905050600a600086815260200190815260200160002060405180602001604052808381525090806001815401808255809150506001900390600052602060002001600090919091909150600082015181600001555050611c4a8184611542565b508080611c5690614eba565b915050611aa3565b5050505050565b611c6f60036131fa565b6000611c7b6003612c4e565b9050611c993382600160405180602001604052806000815250613210565b611ca381836119e1565b60405180604001604052808281526020013373ffffffffffffffffffffffffffffffffffffffff16815250600860008381526020019081526020016000206000820151816000015560208201518160010160006101000a81548173ffffffffffffffffffffffffffffffffffffffff021916908373ffffffffffffffffffffffffffffffffffffffff160217905550905050600c60003373ffffffffffffffffffffffffffffffffffffffff1673ffffffffffffffffffffffffffffffffffffffff168152602001908152602001600020600860008381526020019081526020016000209080600181540180825580915050600190039060005260206000209060020201600090919091909150600082015481600001556001820160009054906101000a900473ffffffffffffffffffffffffffffffffffffffff168160010160006101000a81548173ffffffffffffffffffffffffffffffffffffffff021916908373ffffffffffffffffffffffffffffffffffffffff16021790555050505050565b611e39611e32612c5c565b83836133a6565b5050565b600063bc197c8160e01b905095945050505050565b60606000611e606003612c4e565b90506000808415611f155760005b83811015611f0f578673ffffffffffffffffffffffffffffffffffffffff1660096000600184611e9e9190614e35565b815260200190815260200160002060020160009054906101000a900473ffffffffffffffffffffffffffffffffffffffff1673ffffffffffffffffffffffffffffffffffffffff161415611efc57600183611ef99190614e35565b92505b8080611f0790614eba565b915050611e6e565b5061204b565b60005b83811015612049578673ffffffffffffffffffffffffffffffffffffffff166008600060096000600186611f4c9190614e35565b815260200190815260200160002060010154815260200190815260200160002060010160009054906101000a900473ffffffffffffffffffffffffffffffffffffffff1673ffffffffffffffffffffffffffffffffffffffff161415801561202157508673ffffffffffffffffffffffffffffffffffffffff1660096000600184611fd79190614e35565b815260200190815260200160002060020160009054906101000a900473ffffffffffffffffffffffffffffffffffffffff1673ffffffffffffffffffffffffffffffffffffffff16145b15612036576001836120339190614e35565b92505b808061204190614eba565b915050611f18565b505b60008267ffffffffffffffff81111561206757612066613f3c565b5b6040519080825280602002602001820160405280156120a057816020015b61208d6139ec565b8152602001906001900390816120855790505b509050851561224b5760005b84811015612245578773ffffffffffffffffffffffffffffffffffffffff16600960006001846120dc9190614e35565b815260200190815260200160002060020160009054906101000a900473ffffffffffffffffffffffffffffffffffffffff1673ffffffffffffffffffffffffffffffffffffffff1614156122325760006009600060018461213d9190614e35565b81526020019081526020016000209050806040518060c001604052908160008201548152602001600182015481526020016002820160009054906101000a900473ffffffffffffffffffffffffffffffffffffffff1673ffffffffffffffffffffffffffffffffffffffff1673ffffffffffffffffffffffffffffffffffffffff168152602001600382015481526020016004820160009054906101000a900460ff161515151581526020016004820160019054906101000a900460ff16151515158152505083858151811061221657612215614e8b565b5b602002602001018190525060018461222e9190614e35565b9350505b808061223d90614eba565b9150506120ac565b50612479565b60005b84811015612477578773ffffffffffffffffffffffffffffffffffffffff1660086000600960006001866122829190614e35565b815260200190815260200160002060010154815260200190815260200160002060010160009054906101000a900473ffffffffffffffffffffffffffffffffffffffff1673ffffffffffffffffffffffffffffffffffffffff161415801561235757508773ffffffffffffffffffffffffffffffffffffffff166009600060018461230d9190614e35565b815260200190815260200160002060020160009054906101000a900473ffffffffffffffffffffffffffffffffffffffff1673ffffffffffffffffffffffffffffffffffffffff16145b156124645760006009600060018461236f9190614e35565b81526020019081526020016000209050806040518060c001604052908160008201548152602001600182015481526020016002820160009054906101000a900473ffffffffffffffffffffffffffffffffffffffff1673ffffffffffffffffffffffffffffffffffffffff1673ffffffffffffffffffffffffffffffffffffffff168152602001600382015481526020016004820160009054906101000a900460ff161515151581526020016004820160019054906101000a900460ff16151515158152505083858151811061244857612447614e8b565b5b60200260200101819052506001846124609190614e35565b9350505b808061246f90614eba565b91505061224e565b505b8094505050505092915050565b6000600160008473ffffffffffffffffffffffffffffffffffffffff1673ffffffffffffffffffffffffffffffffffffffff16815260200190815260200160002060008373ffffffffffffffffffffffffffffffffffffffff1673ffffffffffffffffffffffffffffffffffffffff16815260200190815260200160002060009054906101000a900460ff16905092915050565b600063f23a6e6160e01b905095945050505050565b612537612c5c565b73ffffffffffffffffffffffffffffffffffffffff168573ffffffffffffffffffffffffffffffffffffffff16148061257d575061257c85612577612c5c565b612486565b5b6125bc576040517f08c379a00000000000000000000000000000000000000000000000000000000081526004016125b39061525d565b60405180910390fd5b6125c98585858585612f78565b5050505050565b60606000806000600c60008673ffffffffffffffffffffffffffffffffffffffff1673ffffffffffffffffffffffffffffffffffffffff168152602001908152602001600020805480602002602001604051908101604052809291908181526020016000905b828210156126c85783829060005260206000209060020201604051806040016040529081600082015481526020016001820160009054906101000a900473ffffffffffffffffffffffffffffffffffffffff1673ffffffffffffffffffffffffffffffffffffffff1673ffffffffffffffffffffffffffffffffffffffff168152505081526020019060010190612636565b50505050905060005b8151811015612735576000600a60008484815181106126f3576126f2614e8b565b5b6020026020010151600001518152602001908152602001600020805490509050808561271f9190614e35565b945050808061272d90614eba565b9150506126d1565b5060008367ffffffffffffffff81111561275257612751613f3c565b5b60405190808252806020026020018201604052801561278b57816020015b612778613ac2565b8152602001906001900390816127705790505b50905060005b8251811015612865576000600a60008584815181106127b3576127b2614e8b565b5b6020026020010151600001518152602001908152602001600020905060005b8180549050811015612850578181815481106127f1576127f0614e8b565b5b9060005260206000200160405180602001604052908160008201548152505084878151811061282357612822614e8b565b5b602002602001018190525060018661283b9190614e35565b9550808061284890614eba565b9150506127d2565b5050808061285d90614eba565b915050612791565b5080945050505050919050565b606060006128806004612c4e565b905060008060005b83811015612929578573ffffffffffffffffffffffffffffffffffffffff16600b60006001846128b89190614e35565b815260200190815260200160002060020160009054906101000a900473ffffffffffffffffffffffffffffffffffffffff1673ffffffffffffffffffffffffffffffffffffffff161415612916576001836129139190614e35565b92505b808061292190614eba565b915050612888565b5060008267ffffffffffffffff81111561294657612945613f3c565b5b60405190808252806020026020018201604052801561297f57816020015b61296c613958565b8152602001906001900390816129645790505b50905060005b84811015612b59578673ffffffffffffffffffffffffffffffffffffffff16600b60006001846129b59190614e35565b815260200190815260200160002060020160009054906101000a900473ffffffffffffffffffffffffffffffffffffffff1673ffffffffffffffffffffffffffffffffffffffff161415612b46576000600b6000600184612a169190614e35565b81526020019081526020016000209050806040518060c001604052908160008201548152602001600182015481526020016002820160009054906101000a900473ffffffffffffffffffffffffffffffffffffffff1673ffffffffffffffffffffffffffffffffffffffff1673ffffffffffffffffffffffffffffffffffffffff1681526020016003820160009054906101000a900473ffffffffffffffffffffffffffffffffffffffff1673ffffffffffffffffffffffffffffffffffffffff1673ffffffffffffffffffffffffffffffffffffffff168152602001600482015481526020016005820160009054906101000a900460ff161515151581525050838581518110612b2a57612b29614e8b565b5b6020026020010181905250600184612b429190614e35565b9350505b8080612b5190614eba565b915050612985565b5080945050505050919050565b60606000600a6000848152602001908152602001600020805480602002602001604051908101604052809291908181526020016000905b82821015612bd55783829060005260206000200160405180602001604052908160008201548152505081526020019060010190612b9d565b50505050905080915050919050565b60007f01ffc9a7000000000000000000000000000000000000000000000000000000007bffffffffffffffffffffffffffffffffffffffffffffffffffffffff1916827bffffffffffffffffffffffffffffffffffffffffffffffffffffffff1916149050919050565b600081600001549050919050565b600033905090565b8151835114612ca8576040517f08c379a0000000000000000000000000000000000000000000000000000000008152600401612c9f906152ef565b60405180910390fd5b600073ffffffffffffffffffffffffffffffffffffffff168473ffffffffffffffffffffffffffffffffffffffff161415612d18576040517f08c379a0000000000000000000000000000000000000000000000000000000008152600401612d0f90615381565b60405180910390fd5b6000612d22612c5c565b9050612d32818787878787613513565b60005b8451811015612ee3576000858281518110612d5357612d52614e8b565b5b602002602001015190506000858381518110612d7257612d71614e8b565b5b60200260200101519050600080600084815260200190815260200160002060008b73ffffffffffffffffffffffffffffffffffffffff1673ffffffffffffffffffffffffffffffffffffffff16815260200190815260200160002054905081811015612e13576040517f08c379a0000000000000000000000000000000000000000000000000000000008152600401612e0a90615413565b60405180910390fd5b81810360008085815260200190815260200160002060008c73ffffffffffffffffffffffffffffffffffffffff1673ffffffffffffffffffffffffffffffffffffffff168152602001908152602001600020819055508160008085815260200190815260200160002060008b73ffffffffffffffffffffffffffffffffffffffff1673ffffffffffffffffffffffffffffffffffffffff1681526020019081526020016000206000828254612ec89190614e35565b9250508190555050505080612edc90614eba565b9050612d35565b508473ffffffffffffffffffffffffffffffffffffffff168673ffffffffffffffffffffffffffffffffffffffff168273ffffffffffffffffffffffffffffffffffffffff167f4a39dc06d4c0dbc64b70af90fd698a233a518aa5d07e595d983b8c0526c8f7fb8787604051612f5a929190615433565b60405180910390a4612f7081878787878761351b565b505050505050565b600073ffffffffffffffffffffffffffffffffffffffff168473ffffffffffffffffffffffffffffffffffffffff161415612fe8576040517f08c379a0000000000000000000000000000000000000000000000000000000008152600401612fdf90615381565b60405180910390fd5b6000612ff2612c5c565b9050613012818787613003886136f3565b61300c886136f3565b87613513565b600080600086815260200190815260200160002060008873ffffffffffffffffffffffffffffffffffffffff1673ffffffffffffffffffffffffffffffffffffffff168152602001908152602001600020549050838110156130a9576040517f08c379a00000000000000000000000000000000000000000000000000000000081526004016130a090615413565b60405180910390fd5b83810360008087815260200190815260200160002060008973ffffffffffffffffffffffffffffffffffffffff1673ffffffffffffffffffffffffffffffffffffffff168152602001908152602001600020819055508360008087815260200190815260200160002060008873ffffffffffffffffffffffffffffffffffffffff1673ffffffffffffffffffffffffffffffffffffffff168152602001908152602001600020600082825461315e9190614e35565b925050819055508573ffffffffffffffffffffffffffffffffffffffff168773ffffffffffffffffffffffffffffffffffffffff168373ffffffffffffffffffffffffffffffffffffffff167fc3d58168c5ae7397731d063d5bbf3d657854427343f4c083240f7aacaa2d0f6288886040516131db92919061546a565b60405180910390a46131f182888888888861376d565b50505050505050565b6001816000016000828254019250508190555050565b600073ffffffffffffffffffffffffffffffffffffffff168473ffffffffffffffffffffffffffffffffffffffff161415613280576040517f08c379a000000000000000000000000000000000000000000000000000000000815260040161327790615505565b60405180910390fd5b600061328a612c5c565b90506132ab8160008761329c886136f3565b6132a5886136f3565b87613513565b8260008086815260200190815260200160002060008773ffffffffffffffffffffffffffffffffffffffff1673ffffffffffffffffffffffffffffffffffffffff168152602001908152602001600020600082825461330a9190614e35565b925050819055508473ffffffffffffffffffffffffffffffffffffffff16600073ffffffffffffffffffffffffffffffffffffffff168273ffffffffffffffffffffffffffffffffffffffff167fc3d58168c5ae7397731d063d5bbf3d657854427343f4c083240f7aacaa2d0f62878760405161338892919061546a565b60405180910390a461339f8160008787878761376d565b5050505050565b8173ffffffffffffffffffffffffffffffffffffffff168373ffffffffffffffffffffffffffffffffffffffff161415613415576040517f08c379a000000000000000000000000000000000000000000000000000000000815260040161340c90615597565b60405180910390fd5b80600160008573ffffffffffffffffffffffffffffffffffffffff1673ffffffffffffffffffffffffffffffffffffffff16815260200190815260200160002060008473ffffffffffffffffffffffffffffffffffffffff1673ffffffffffffffffffffffffffffffffffffffff16815260200190815260200160002060006101000a81548160ff0219169083151502179055508173ffffffffffffffffffffffffffffffffffffffff168373ffffffffffffffffffffffffffffffffffffffff167f17307eab39ab6107e8899845ad3d59bd9653f200f220920489ca2b5937696c31836040516135069190613ca4565b60405180910390a3505050565b505050505050565b61353a8473ffffffffffffffffffffffffffffffffffffffff16613945565b156136eb578373ffffffffffffffffffffffffffffffffffffffff1663bc197c8187878686866040518663ffffffff1660e01b815260040161358095949392919061561b565b6020604051808303816000875af19250505080156135bc57506040513d601f19601f820116820180604052508101906135b99190615698565b60015b613662576135c86156d2565b806308c379a0141561362557506135dd6156f4565b806135e85750613627565b806040517f08c379a000000000000000000000000000000000000000000000000000000000815260040161361c9190613d85565b60405180910390fd5b505b6040517f08c379a0000000000000000000000000000000000000000000000000000000008152600401613659906157fc565b60405180910390fd5b63bc197c8160e01b7bffffffffffffffffffffffffffffffffffffffffffffffffffffffff1916817bffffffffffffffffffffffffffffffffffffffffffffffffffffffff1916146136e9576040517f08c379a00000000000000000000000000000000000000000000000000000000081526004016136e09061588e565b60405180910390fd5b505b505050505050565b60606000600167ffffffffffffffff81111561371257613711613f3c565b5b6040519080825280602002602001820160405280156137405781602001602082028036833780820191505090505b509050828160008151811061375857613757614e8b565b5b60200260200101818152505080915050919050565b61378c8473ffffffffffffffffffffffffffffffffffffffff16613945565b1561393d578373ffffffffffffffffffffffffffffffffffffffff1663f23a6e6187878686866040518663ffffffff1660e01b81526004016137d29594939291906158ae565b6020604051808303816000875af192505050801561380e57506040513d601f19601f8201168201806040525081019061380b9190615698565b60015b6138b45761381a6156d2565b806308c379a01415613877575061382f6156f4565b8061383a5750613879565b806040517f08c379a000000000000000000000000000000000000000000000000000000000815260040161386e9190613d85565b60405180910390fd5b505b6040517f08c379a00000000000000000000000000000000000000000000000000000000081526004016138ab906157fc565b60405180910390fd5b63f23a6e6160e01b7bffffffffffffffffffffffffffffffffffffffffffffffffffffffff1916817bffffffffffffffffffffffffffffffffffffffffffffffffffffffff19161461393b576040517f08c379a00000000000000000000000000000000000000000000000000000000081526004016139329061588e565b60405180910390fd5b505b505050505050565b600080823b905060008111915050919050565b6040518060c001604052806000815260200160008152602001600073ffffffffffffffffffffffffffffffffffffffff168152602001600073ffffffffffffffffffffffffffffffffffffffff168152602001600081526020016000151581525090565b604051806040016040528060008152602001600073ffffffffffffffffffffffffffffffffffffffff1681525090565b6040518060c001604052806000815260200160008152602001600073ffffffffffffffffffffffffffffffffffffffff168152602001600081526020016000151581526020016000151581525090565b828054613a4890614da0565b90600052602060002090601f016020900481019282613a6a5760008555613ab1565b82601f10613a8357805160ff1916838001178555613ab1565b82800160010185558215613ab1579182015b82811115613ab0578251825591602001919060010190613a95565b5b509050613abe9190613ad5565b5090565b6040518060200160405280600081525090565b5b80821115613aee576000816000905550600101613ad6565b5090565b6000604051905090565b600080fd5b600080fd5b600073ffffffffffffffffffffffffffffffffffffffff82169050919050565b6000613b3182613b06565b9050919050565b613b4181613b26565b8114613b4c57600080fd5b50565b600081359050613b5e81613b38565b92915050565b6000819050919050565b613b7781613b64565b8114613b8257600080fd5b50565b600081359050613b9481613b6e565b92915050565b60008060408385031215613bb157613bb0613afc565b5b6000613bbf85828601613b4f565b9250506020613bd085828601613b85565b9150509250929050565b613be381613b64565b82525050565b6000602082019050613bfe6000830184613bda565b92915050565b60007fffffffff0000000000000000000000000000000000000000000000000000000082169050919050565b613c3981613c04565b8114613c4457600080fd5b50565b600081359050613c5681613c30565b92915050565b600060208284031215613c7257613c71613afc565b5b6000613c8084828501613c47565b91505092915050565b60008115159050919050565b613c9e81613c89565b82525050565b6000602082019050613cb96000830184613c95565b92915050565b600060208284031215613cd557613cd4613afc565b5b6000613ce384828501613b85565b91505092915050565b600081519050919050565b600082825260208201905092915050565b60005b83811015613d26578082015181840152602081019050613d0b565b83811115613d35576000848401525b50505050565b6000601f19601f8301169050919050565b6000613d5782613cec565b613d618185613cf7565b9350613d71818560208601613d08565b613d7a81613d3b565b840191505092915050565b60006020820190508181036000830152613d9f8184613d4c565b905092915050565b600081519050919050565b600082825260208201905092915050565b6000819050602082019050919050565b613ddc81613b64565b82525050565b6000613ded82613b06565b9050919050565b613dfd81613de2565b82525050565b613e0c81613c89565b82525050565b60c082016000820151613e286000850182613dd3565b506020820151613e3b6020850182613dd3565b506040820151613e4e6040850182613df4565b506060820151613e616060850182613df4565b506080820151613e746080850182613dd3565b5060a0820151613e8760a0850182613e03565b50505050565b6000613e998383613e12565b60c08301905092915050565b6000602082019050919050565b6000613ebd82613da7565b613ec78185613db2565b9350613ed283613dc3565b8060005b83811015613f03578151613eea8882613e8d565b9750613ef583613ea5565b925050600181019050613ed6565b5085935050505092915050565b60006020820190508181036000830152613f2a8184613eb2565b905092915050565b600080fd5b600080fd5b7f4e487b7100000000000000000000000000000000000000000000000000000000600052604160045260246000fd5b613f7482613d3b565b810181811067ffffffffffffffff82111715613f9357613f92613f3c565b5b80604052505050565b6000613fa6613af2565b9050613fb28282613f6b565b919050565b600067ffffffffffffffff821115613fd257613fd1613f3c565b5b613fdb82613d3b565b9050602081019050919050565b82818337600083830152505050565b600061400a61400584613fb7565b613f9c565b90508281526020810184848401111561402657614025613f37565b5b614031848285613fe8565b509392505050565b600082601f83011261404e5761404d613f32565b5b813561405e848260208601613ff7565b91505092915050565b6000806000806080858703121561408157614080613afc565b5b600061408f87828801613b4f565b94505060206140a087828801613b4f565b93505060406140b187828801613b85565b925050606085013567ffffffffffffffff8111156140d2576140d1613b01565b5b6140de87828801614039565b91505092959194509250565b6140f381613c04565b82525050565b600060208201905061410e60008301846140ea565b92915050565b60006020828403121561412a57614129613afc565b5b600061413884828501613b4f565b91505092915050565b600081519050919050565b600082825260208201905092915050565b6000819050602082019050919050565b6040820160008201516141836000850182613dd3565b5060208201516141966020850182613df4565b50505050565b60006141a8838361416d565b60408301905092915050565b6000602082019050919050565b60006141cc82614141565b6141d6818561414c565b93506141e18361415d565b8060005b838110156142125781516141f9888261419c565b9750614204836141b4565b9250506001810190506141e5565b5085935050505092915050565b6000602082019050818103600083015261423981846141c1565b905092915050565b60c0820160008201516142576000850182613dd3565b50602082015161426a6020850182613dd3565b50604082015161427d6040850182613df4565b5060608201516142906060850182613df4565b5060808201516142a36080850182613dd3565b5060a08201516142b660a0850182613e03565b50505050565b600060c0820190506142d16000830184614241565b92915050565b600067ffffffffffffffff8211156142f2576142f1613f3c565b5b602082029050602081019050919050565b600080fd5b600061431b614316846142d7565b613f9c565b9050808382526020820190506020840283018581111561433e5761433d614303565b5b835b8181101561436757806143538882613b85565b845260208401935050602081019050614340565b5050509392505050565b600082601f83011261438657614385613f32565b5b8135614396848260208601614308565b91505092915050565b600080600080600060a086880312156143bb576143ba613afc565b5b60006143c988828901613b4f565b95505060206143da88828901613b4f565b945050604086013567ffffffffffffffff8111156143fb576143fa613b01565b5b61440788828901614371565b935050606086013567ffffffffffffffff81111561442857614427613b01565b5b61443488828901614371565b925050608086013567ffffffffffffffff81111561445557614454613b01565b5b61446188828901614039565b9150509295509295909350565b6000806040838503121561448557614484613afc565b5b600061449385828601613b85565b92505060206144a485828601613b85565b9150509250929050565b600067ffffffffffffffff8211156144c9576144c8613f3c565b5b602082029050602081019050919050565b60006144ed6144e8846144ae565b613f9c565b905080838252602082019050602084028301858111156145105761450f614303565b5b835b8181101561453957806145258882613b4f565b845260208401935050602081019050614512565b5050509392505050565b600082601f83011261455857614557613f32565b5b81356145688482602086016144da565b91505092915050565b6000806040838503121561458857614587613afc565b5b600083013567ffffffffffffffff8111156145a6576145a5613b01565b5b6145b285828601614543565b925050602083013567ffffffffffffffff8111156145d3576145d2613b01565b5b6145df85828601614371565b9150509250929050565b600081519050919050565b600082825260208201905092915050565b6000819050602082019050919050565b60006146218383613dd3565b60208301905092915050565b6000602082019050919050565b6000614645826145e9565b61464f81856145f4565b935061465a83614605565b8060005b8381101561468b5781516146728882614615565b975061467d8361462d565b92505060018101905061465e565b5085935050505092915050565b600060208201905081810360008301526146b2818461463a565b905092915050565b60c0820160008201516146d06000850182613dd3565b5060208201516146e36020850182613dd3565b5060408201516146f66040850182613df4565b5060608201516147096060850182613dd3565b50608082015161471c6080850182613e03565b5060a082015161472f60a0850182613e03565b50505050565b600060c08201905061474a60008301846146ba565b92915050565b600067ffffffffffffffff82111561476b5761476a613f3c565b5b61477482613d3b565b9050602081019050919050565b600061479461478f84614750565b613f9c565b9050828152602081018484840111156147b0576147af613f37565b5b6147bb848285613fe8565b509392505050565b600082601f8301126147d8576147d7613f32565b5b81356147e8848260208601614781565b91505092915050565b6000806040838503121561480857614807613afc565b5b600061481685828601613b85565b925050602083013567ffffffffffffffff81111561483757614836613b01565b5b614843858286016147c3565b9150509250929050565b6040820160008201516148636000850182613dd3565b5060208201516148766020850182613df4565b50505050565b6000604082019050614891600083018461484d565b92915050565b600080600080608085870312156148b1576148b0613afc565b5b600085013567ffffffffffffffff8111156148cf576148ce613b01565b5b6148db878288016147c3565b94505060206148ec87828801613b85565b93505060406148fd87828801613b85565b925050606061490e87828801613b85565b91505092959194509250565b6000602082840312156149305761492f613afc565b5b600082013567ffffffffffffffff81111561494e5761494d613b01565b5b61495a848285016147c3565b91505092915050565b61496c81613c89565b811461497757600080fd5b50565b60008135905061498981614963565b92915050565b600080604083850312156149a6576149a5613afc565b5b60006149b485828601613b4f565b92505060206149c58582860161497a565b9150509250929050565b600081519050919050565b600082825260208201905092915050565b6000819050602082019050919050565b60c082016000820151614a116000850182613dd3565b506020820151614a246020850182613dd3565b506040820151614a376040850182613df4565b506060820151614a4a6060850182613dd3565b506080820151614a5d6080850182613e03565b5060a0820151614a7060a0850182613e03565b50505050565b6000614a8283836149fb565b60c08301905092915050565b6000602082019050919050565b6000614aa6826149cf565b614ab081856149da565b9350614abb836149eb565b8060005b83811015614aec578151614ad38882614a76565b9750614ade83614a8e565b925050600181019050614abf565b5085935050505092915050565b60006020820190508181036000830152614b138184614a9b565b905092915050565b60008060408385031215614b3257614b31613afc565b5b6000614b4085828601613b4f565b9250506020614b5185828601613b4f565b9150509250929050565b600080600080600060a08688031215614b7757614b76613afc565b5b6000614b8588828901613b4f565b9550506020614b9688828901613b4f565b9450506040614ba788828901613b85565b9350506060614bb888828901613b85565b925050608086013567ffffffffffffffff811115614bd957614bd8613b01565b5b614be588828901614039565b9150509295509295909350565b600081519050919050565b600082825260208201905092915050565b6000819050602082019050919050565b602082016000820151614c346000850182613dd3565b50505050565b6000614c468383614c1e565b60208301905092915050565b6000602082019050919050565b6000614c6a82614bf2565b614c748185614bfd565b9350614c7f83614c0e565b8060005b83811015614cb0578151614c978882614c3a565b9750614ca283614c52565b925050600181019050614c83565b5085935050505092915050565b60006020820190508181036000830152614cd78184614c5f565b905092915050565b7f455243313135353a2062616c616e636520717565727920666f7220746865207a60008201527f65726f2061646472657373000000000000000000000000000000000000000000602082015250565b6000614d3b602b83613cf7565b9150614d4682614cdf565b604082019050919050565b60006020820190508181036000830152614d6a81614d2e565b9050919050565b7f4e487b7100000000000000000000000000000000000000000000000000000000600052602260045260246000fd5b60006002820490506001821680614db857607f821691505b60208210811415614dcc57614dcb614d71565b5b50919050565b7f4e487b7100000000000000000000000000000000000000000000000000000000600052601160045260246000fd5b6000614e0c82613b64565b9150614e1783613b64565b925082821015614e2a57614e29614dd2565b5b828203905092915050565b6000614e4082613b64565b9150614e4b83613b64565b9250827fffffffffffffffffffffffffffffffffffffffffffffffffffffffffffffffff03821115614e8057614e7f614dd2565b5b828201905092915050565b7f4e487b7100000000000000000000000000000000000000000000000000000000600052603260045260246000fd5b6000614ec582613b64565b91507fffffffffffffffffffffffffffffffffffffffffffffffffffffffffffffffff821415614ef857614ef7614dd2565b5b600182019050919050565b7f455243313135353a207472616e736665722063616c6c6572206973206e6f742060008201527f6f776e6572206e6f7220617070726f7665640000000000000000000000000000602082015250565b6000614f5f603283613cf7565b9150614f6a82614f03565b604082019050919050565b60006020820190508181036000830152614f8e81614f52565b9050919050565b7f4f6e6c7920666f7220746865206f776e6572206f662074686973207469636b6560008201527f7421000000000000000000000000000000000000000000000000000000000000602082015250565b6000614ff1602283613cf7565b9150614ffc82614f95565b604082019050919050565b6000602082019050818103600083015261502081614fe4565b9050919050565b600061503282613b64565b915061503d83613b64565b9250817fffffffffffffffffffffffffffffffffffffffffffffffffffffffffffffffff048311821515161561507657615075614dd2565b5b828202905092915050565b7f6d73672e76616c756520213d207072696365202a2a20646563696d616c730000600082015250565b60006150b7601e83613cf7565b91506150c282615081565b602082019050919050565b600060208201905081810360008301526150e6816150aa565b9050919050565b7f5072696365206d757374206265206174206c6561737420312077656900000000600082015250565b6000615123601c83613cf7565b915061512e826150ed565b602082019050919050565b6000602082019050818103600083015261515281615116565b9050919050565b7f455243313135353a206163636f756e747320616e6420696473206c656e67746860008201527f206d69736d617463680000000000000000000000000000000000000000000000602082015250565b60006151b5602983613cf7565b91506151c082615159565b604082019050919050565b600060208201905081810360008301526151e4816151a8565b9050919050565b7f455243313135353a2063616c6c6572206973206e6f74206f776e6572206e6f7260008201527f20617070726f7665640000000000000000000000000000000000000000000000602082015250565b6000615247602983613cf7565b9150615252826151eb565b604082019050919050565b600060208201905081810360008301526152768161523a565b9050919050565b7f455243313135353a2069647320616e6420616d6f756e7473206c656e6774682060008201527f6d69736d61746368000000000000000000000000000000000000000000000000602082015250565b60006152d9602883613cf7565b91506152e48261527d565b604082019050919050565b60006020820190508181036000830152615308816152cc565b9050919050565b7f455243313135353a207472616e7366657220746f20746865207a65726f20616460008201527f6472657373000000000000000000000000000000000000000000000000000000602082015250565b600061536b602583613cf7565b91506153768261530f565b604082019050919050565b6000602082019050818103600083015261539a8161535e565b9050919050565b7f455243313135353a20696e73756666696369656e742062616c616e636520666f60008201527f72207472616e7366657200000000000000000000000000000000000000000000602082015250565b60006153fd602a83613cf7565b9150615408826153a1565b604082019050919050565b6000602082019050818103600083015261542c816153f0565b9050919050565b6000604082019050818103600083015261544d818561463a565b90508181036020830152615461818461463a565b90509392505050565b600060408201905061547f6000830185613bda565b61548c6020830184613bda565b9392505050565b7f455243313135353a206d696e7420746f20746865207a65726f2061646472657360008201527f7300000000000000000000000000000000000000000000000000000000000000602082015250565b60006154ef602183613cf7565b91506154fa82615493565b604082019050919050565b6000602082019050818103600083015261551e816154e2565b9050919050565b7f455243313135353a2073657474696e6720617070726f76616c2073746174757360008201527f20666f722073656c660000000000000000000000000000000000000000000000602082015250565b6000615581602983613cf7565b915061558c82615525565b604082019050919050565b600060208201905081810360008301526155b081615574565b9050919050565b6155c081613b26565b82525050565b600081519050919050565b600082825260208201905092915050565b60006155ed826155c6565b6155f781856155d1565b9350615607818560208601613d08565b61561081613d3b565b840191505092915050565b600060a08201905061563060008301886155b7565b61563d60208301876155b7565b818103604083015261564f818661463a565b90508181036060830152615663818561463a565b9050818103608083015261567781846155e2565b90509695505050505050565b60008151905061569281613c30565b92915050565b6000602082840312156156ae576156ad613afc565b5b60006156bc84828501615683565b91505092915050565b60008160e01c9050919050565b600060033d11156156f15760046000803e6156ee6000516156c5565b90505b90565b600060443d101561570457615787565b61570c613af2565b60043d036004823e80513d602482011167ffffffffffffffff82111715615734575050615787565b808201805167ffffffffffffffff8111156157525750505050615787565b80602083010160043d03850181111561576f575050505050615787565b61577e82602001850186613f6b565b82955050505050505b90565b7f455243313135353a207472616e7366657220746f206e6f6e204552433131353560008201527f526563656976657220696d706c656d656e746572000000000000000000000000602082015250565b60006157e6603483613cf7565b91506157f18261578a565b604082019050919050565b60006020820190508181036000830152615815816157d9565b9050919050565b7f455243313135353a204552433131353552656365697665722072656a6563746560008201527f6420746f6b656e73000000000000000000000000000000000000000000000000602082015250565b6000615878602883613cf7565b91506158838261581c565b604082019050919050565b600060208201905081810360008301526158a78161586b565b9050919050565b600060a0820190506158c360008301886155b7565b6158d060208301876155b7565b6158dd6040830186613bda565b6158ea6060830185613bda565b81810360808301526158fc81846155e2565b9050969550505050505056fea264697066735822122095226da374ca2a4b36772a088ce57e43f290d5faa77e843b07ec9daffc92427c64736f6c634300080b0033",
  "immutableReferences": {},
  "source": "// SPDX-License-Identifier: MIT\r\npragma solidity ^0.8.11;\r\n\r\nimport \"@openzeppelin/contracts/token/ERC1155/ERC1155.sol\";\r\nimport \"@openzeppelin/contracts/utils/Counters.sol\";\r\n\r\ncontract Event is ERC1155 {\r\n    using Counters for Counters.Counter;\r\n    Counters.Counter private _tokenIds;\r\n    Counters.Counter private _itemIds;\r\n    Counters.Counter private _itemsSold;\r\n    address payable owner;\r\n\r\n    constructor() ERC1155(\"\") {\r\n        owner = payable(msg.sender);\r\n    }\r\n\r\n    mapping(uint256 => string) private _uris;\r\n\r\n    struct Item {\r\n        uint256 tokenId;\r\n    }\r\n\r\n    struct EventItem {\r\n        uint256 tokenId;\r\n        address payable owner;\r\n    }\r\n\r\n    struct TicketItem {\r\n        uint256 tokenId;\r\n        uint256 eventTokenId;\r\n        address payable owner;\r\n        uint256 price;\r\n        bool list;\r\n        bool active;\r\n    }\r\n\r\n    struct MarketItem {\r\n        uint256 itemId;\r\n        uint256 tokenId;\r\n        address payable seller;\r\n        address payable owner;\r\n        uint256 price;\r\n        bool sold;\r\n    }\r\n\r\n    mapping(uint256 => EventItem) private eventToken;\r\n    mapping(uint256 => TicketItem) private ticketToken;\r\n    mapping(uint256 => Item[]) private ticketsInEvent;\r\n    mapping(uint256 => MarketItem) private ticketInMarket;\r\n\r\n    mapping(address => EventItem[]) private createdEvents;\r\n\r\n    function uri(uint256 tokenId) public view override returns (string memory) {\r\n        return (_uris[tokenId]);\r\n    }\r\n\r\n    function setTokenUri(uint256 tokenId, string memory tokenUri) public {\r\n        // require(bytes(_uris[tokenId]).length == 0, \"Cannot set uri twice\");\r\n        _uris[tokenId] = tokenUri;\r\n    }\r\n\r\n    function mintEvent(string memory tokenUri) public {\r\n        _tokenIds.increment();\r\n        uint256 newItemId = _tokenIds.current();\r\n\r\n        _mint(msg.sender, newItemId, 1, \"\");\r\n        setTokenUri(newItemId, tokenUri);\r\n        eventToken[newItemId] = EventItem(newItemId, payable(msg.sender));\r\n        createdEvents[msg.sender].push(eventToken[newItemId]);\r\n    }\r\n\r\n    function mintTicket(\r\n        string memory tokenUri,\r\n        uint256 eventTokenId,\r\n        uint256 quantity,\r\n        uint256 price\r\n    ) public {\r\n        for (uint256 i = 0; i < quantity; i++) {\r\n            _tokenIds.increment();\r\n            uint256 newItemId = _tokenIds.current();\r\n\r\n            _mint(msg.sender, newItemId, 1, \"\");\r\n            setTokenUri(newItemId, tokenUri);\r\n            ticketToken[newItemId] = TicketItem(\r\n                newItemId,\r\n                eventTokenId,\r\n                payable(msg.sender),\r\n                price,\r\n                false,\r\n                true\r\n            );\r\n            ticketsInEvent[eventTokenId].push(Item(newItemId));\r\n            createMarketItem(newItemId, price);\r\n        }\r\n    }\r\n\r\n    function createMarketItem(uint256 tokenId, uint256 price) public payable {\r\n        require(\r\n            msg.sender == ticketToken[tokenId].owner,\r\n            \"Only for the owner of this ticket!\"\r\n        );\r\n        require(price > 0, \"Price must be at least 1 wei\");\r\n\r\n        _itemIds.increment();\r\n        uint256 itemId = _itemIds.current();\r\n\r\n        ticketInMarket[itemId] = MarketItem(\r\n            itemId,\r\n            tokenId,\r\n            payable(msg.sender),\r\n            payable(msg.sender),\r\n            price,\r\n            false\r\n        );\r\n\r\n        ticketToken[tokenId].price = price;\r\n        ticketToken[tokenId].list = true;\r\n\r\n        safeTransferFrom(msg.sender, address(this), tokenId, 1, \"\");\r\n    }\r\n\r\n    function cancelListing(uint256 itemId) public payable {\r\n        require(\r\n            msg.sender == ticketInMarket[itemId].owner,\r\n            \"Only for the owner of this ticket!\"\r\n        );\r\n        uint256 tokenId = ticketInMarket[itemId].tokenId;\r\n        ticketToken[tokenId].price = 0;\r\n        ticketToken[tokenId].list = false;\r\n        delete ticketInMarket[itemId];\r\n        _safeTransferFrom(address(this), msg.sender, tokenId, 1, \"\");\r\n    }\r\n\r\n    function buyMarketItem(uint256 itemId) public payable {\r\n        uint256 price = ticketInMarket[itemId].price;\r\n        uint256 tokenId = ticketInMarket[itemId].tokenId;\r\n        require(\r\n            msg.value == price * (10**10),\r\n            \"msg.value != price ** decimals\"\r\n        );\r\n\r\n        ticketInMarket[itemId].seller.transfer(msg.value);\r\n        ticketInMarket[itemId].owner = payable(msg.sender);\r\n        ticketInMarket[itemId].sold = true;\r\n        ticketToken[tokenId].owner = payable(msg.sender);\r\n        ticketToken[tokenId].list = false;\r\n        _itemsSold.increment();\r\n\r\n        _safeTransferFrom(address(this), msg.sender, tokenId, 1, \"\");\r\n    }\r\n\r\n    function fetchMarketItem(uint256 tokenId)\r\n        public\r\n        view\r\n        returns (MarketItem memory)\r\n    {\r\n        uint256 itemCount = _itemIds.current();\r\n        MarketItem memory item;\r\n\r\n        for (uint256 i = 0; i < itemCount; i++) {\r\n            if (ticketInMarket[i + 1].tokenId == tokenId) {\r\n                uint256 currentId = i + 1;\r\n                item = ticketInMarket[currentId];\r\n            }\r\n        }\r\n        return item;\r\n    }\r\n\r\n    function fetchMarketItems() public view returns (MarketItem[] memory) {\r\n        uint256 itemCount = _itemIds.current();\r\n        uint256 unsoldItemCount = _itemIds.current() - _itemsSold.current();\r\n        uint256 currentIndex = 0;\r\n\r\n        MarketItem[] memory items = new MarketItem[](unsoldItemCount);\r\n        for (uint256 i = 0; i < itemCount; i++) {\r\n            if (!ticketInMarket[i + 1].sold) {\r\n                MarketItem storage currentItem = ticketInMarket[i + 1];\r\n                items[currentIndex] = currentItem;\r\n                currentIndex += 1;\r\n            }\r\n        }\r\n        return items;\r\n    }\r\n\r\n    function fetchOwnedListings(address account) public view returns (MarketItem[] memory) {\r\n        uint256 itemCount = _itemIds.current();\r\n        uint256 tokenCount = 0;\r\n        uint256 currentIndex = 0;\r\n\r\n        for (uint256 i = 0; i < itemCount; i++) {\r\n            if (ticketInMarket[i + 1].seller == account) {\r\n                tokenCount += 1;\r\n            }\r\n        }\r\n\r\n        MarketItem[] memory items = new MarketItem[](tokenCount);\r\n        for (uint256 i = 0; i < itemCount; i++) {\r\n            if (ticketInMarket[i + 1].seller == account) {\r\n                MarketItem storage currentItem = ticketInMarket[i + 1];\r\n                items[currentIndex] = currentItem;\r\n                currentIndex += 1;\r\n            }\r\n        }\r\n        return items;\r\n    }\r\n\r\n    function fetchCreatedEvents(address account)\r\n        public\r\n        view\r\n        returns (EventItem[] memory)\r\n    {\r\n        EventItem[] memory items = createdEvents[account];\r\n        return items;\r\n    }\r\n\r\n    function fetchOwnedEvents(address account)\r\n        public\r\n        view\r\n        returns (EventItem[] memory)\r\n    {\r\n        uint256 totalTokenCount = _tokenIds.current();\r\n        uint256 tokenCount = 0;\r\n        uint256 currentIndex = 0;\r\n\r\n        for (uint256 i = 0; i < totalTokenCount; i++) {\r\n            if (eventToken[i + 1].owner == account) {\r\n                tokenCount += 1;\r\n            }\r\n        }\r\n\r\n        EventItem[] memory items = new EventItem[](tokenCount);\r\n        for (uint256 i = 0; i < totalTokenCount; i++) {\r\n            if (eventToken[i + 1].owner == account) {\r\n                EventItem storage currentItem = eventToken[i + 1];\r\n                items[currentIndex] = currentItem;\r\n                currentIndex += 1;\r\n            }\r\n        }\r\n        return items;\r\n    }\r\n\r\n    function fetchCreatedTickets(address account)\r\n        public\r\n        view\r\n        returns (Item[] memory)\r\n    {\r\n        uint256 tokenCount = 0;\r\n        uint256 currentIndex = 0;\r\n\r\n        EventItem[] memory events = createdEvents[account];\r\n        for (uint256 i = 0; i < events.length; i++) {\r\n            uint256 ticketCount = ticketsInEvent[events[i].tokenId].length;\r\n            tokenCount += ticketCount;\r\n        }\r\n\r\n        Item[] memory items = new Item[](tokenCount);\r\n        for (uint256 i = 0; i < events.length; i++) {\r\n            Item[] storage currentItem = ticketsInEvent[events[i].tokenId];\r\n            for (uint256 j = 0; j < currentItem.length; j++) {\r\n                items[currentIndex] = currentItem[j];\r\n                currentIndex += 1;\r\n            }\r\n        }\r\n        return items;\r\n    }\r\n\r\n    function fetchOwnedTickets(address account, bool isCreator)\r\n        public\r\n        view\r\n        returns (TicketItem[] memory)\r\n    {\r\n        uint256 totalTokenCount = _tokenIds.current();\r\n        uint256 tokenCount = 0;\r\n        uint256 currentIndex = 0;\r\n\r\n        if (isCreator) {\r\n            for (uint256 i = 0; i < totalTokenCount; i++) {\r\n                if (ticketToken[i + 1].owner == account) {\r\n                    tokenCount += 1;\r\n                }\r\n            }\r\n        } else {\r\n            for (uint256 i = 0; i < totalTokenCount; i++) {\r\n                if (\r\n                    eventToken[ticketToken[i + 1].eventTokenId].owner !=\r\n                    account &&\r\n                    ticketToken[i + 1].owner == account\r\n                ) {\r\n                    tokenCount += 1;\r\n                }\r\n            }\r\n        }\r\n\r\n        TicketItem[] memory items = new TicketItem[](tokenCount);\r\n        if (isCreator) {\r\n            for (uint256 i = 0; i < totalTokenCount; i++) {\r\n                if (ticketToken[i + 1].owner == account) {\r\n                    TicketItem storage currentItem = ticketToken[i + 1];\r\n                    items[currentIndex] = currentItem;\r\n                    currentIndex += 1;\r\n                }\r\n            }\r\n        } else {\r\n            for (uint256 i = 0; i < totalTokenCount; i++) {\r\n                if (\r\n                    eventToken[ticketToken[i + 1].eventTokenId].owner !=\r\n                    account &&\r\n                    ticketToken[i + 1].owner == account\r\n                ) {\r\n                    TicketItem storage currentItem = ticketToken[i + 1];\r\n                    items[currentIndex] = currentItem;\r\n                    currentIndex += 1;\r\n                }\r\n            }\r\n        }\r\n\r\n        return items;\r\n    }\r\n\r\n    function fetchTicketsInEvent(uint256 eventTokenId)\r\n        public\r\n        view\r\n        returns (Item[] memory)\r\n    {\r\n        Item[] memory items = ticketsInEvent[eventTokenId];\r\n        return items;\r\n    }\r\n\r\n    function fetchEvent(uint256 tokenId)\r\n        public\r\n        view\r\n        returns (EventItem memory)\r\n    {\r\n        EventItem memory item = eventToken[tokenId];\r\n        return item;\r\n    }\r\n\r\n    function fetchTicket(uint256 tokenId)\r\n        public\r\n        view\r\n        returns (TicketItem memory)\r\n    {\r\n        TicketItem memory item = ticketToken[tokenId];\r\n        return item;\r\n    }\r\n\r\n    function onERC1155Received(\r\n        address,\r\n        address,\r\n        uint256,\r\n        uint256,\r\n        bytes memory\r\n    ) public virtual returns (bytes4) {\r\n        return this.onERC1155Received.selector;\r\n    }\r\n\r\n    function onERC1155BatchReceived(\r\n        address,\r\n        address,\r\n        uint256[] memory,\r\n        uint256[] memory,\r\n        bytes memory\r\n    ) public virtual returns (bytes4) {\r\n        return this.onERC1155BatchReceived.selector;\r\n    }\r\n\r\n    function onERC721Received(\r\n        address,\r\n        address,\r\n        uint256,\r\n        bytes memory\r\n    ) public virtual returns (bytes4) {\r\n        return this.onERC721Received.selector;\r\n    }\r\n}\r\n",
  "sourcePath": "D:\\Final Project\\ticketplace\\contracts\\Event.sol",
  "compiler": {
    "name": "solc",
    "version": "0.8.11+commit.d7f03943.Emscripten.clang"
  },
  "schemaVersion": "3.4.4",
  "updatedAt": "2022-03-07T12:38:13.876Z",
  "networkType": "ethereum",
  "devdoc": {
    "kind": "dev",
    "methods": {
      "balanceOf(address,uint256)": {
        "details": "See {IERC1155-balanceOf}. Requirements: - `account` cannot be the zero address."
      },
      "balanceOfBatch(address[],uint256[])": {
        "details": "See {IERC1155-balanceOfBatch}. Requirements: - `accounts` and `ids` must have the same length."
      },
      "isApprovedForAll(address,address)": {
        "details": "See {IERC1155-isApprovedForAll}."
      },
      "safeBatchTransferFrom(address,address,uint256[],uint256[],bytes)": {
        "details": "See {IERC1155-safeBatchTransferFrom}."
      },
      "safeTransferFrom(address,address,uint256,uint256,bytes)": {
        "details": "See {IERC1155-safeTransferFrom}."
      },
      "setApprovalForAll(address,bool)": {
        "details": "See {IERC1155-setApprovalForAll}."
      },
      "supportsInterface(bytes4)": {
        "details": "See {IERC165-supportsInterface}."
      }
    },
    "version": 1
  },
  "userdoc": {
    "kind": "user",
    "methods": {},
    "version": 1
  }
}