{
  "contractName": "Event",
  "abi": [
    {
      "inputs": [],
      "stateMutability": "nonpayable",
      "type": "constructor"
    },
    {
      "anonymous": false,
      "inputs": [
        {
          "indexed": true,
          "internalType": "address",
          "name": "account",
          "type": "address"
        },
        {
          "indexed": true,
          "internalType": "address",
          "name": "operator",
          "type": "address"
        },
        {
          "indexed": false,
          "internalType": "bool",
          "name": "approved",
          "type": "bool"
        }
      ],
      "name": "ApprovalForAll",
      "type": "event"
    },
    {
      "anonymous": false,
      "inputs": [
        {
          "indexed": false,
          "internalType": "address",
          "name": "sender",
          "type": "address"
        },
        {
          "indexed": false,
          "internalType": "uint256",
          "name": "tokenId",
          "type": "uint256"
        },
        {
          "indexed": false,
          "internalType": "uint256",
          "name": "price",
          "type": "uint256"
        }
      ],
      "name": "CreateMarketItem",
      "type": "event"
    },
    {
      "anonymous": false,
      "inputs": [
        {
          "indexed": true,
          "internalType": "address",
          "name": "operator",
          "type": "address"
        },
        {
          "indexed": true,
          "internalType": "address",
          "name": "from",
          "type": "address"
        },
        {
          "indexed": true,
          "internalType": "address",
          "name": "to",
          "type": "address"
        },
        {
          "indexed": false,
          "internalType": "uint256[]",
          "name": "ids",
          "type": "uint256[]"
        },
        {
          "indexed": false,
          "internalType": "uint256[]",
          "name": "values",
          "type": "uint256[]"
        }
      ],
      "name": "TransferBatch",
      "type": "event"
    },
    {
      "anonymous": false,
      "inputs": [
        {
          "indexed": true,
          "internalType": "address",
          "name": "operator",
          "type": "address"
        },
        {
          "indexed": true,
          "internalType": "address",
          "name": "from",
          "type": "address"
        },
        {
          "indexed": true,
          "internalType": "address",
          "name": "to",
          "type": "address"
        },
        {
          "indexed": false,
          "internalType": "uint256",
          "name": "id",
          "type": "uint256"
        },
        {
          "indexed": false,
          "internalType": "uint256",
          "name": "value",
          "type": "uint256"
        }
      ],
      "name": "TransferSingle",
      "type": "event"
    },
    {
      "anonymous": false,
      "inputs": [
        {
          "indexed": false,
          "internalType": "string",
          "name": "value",
          "type": "string"
        },
        {
          "indexed": true,
          "internalType": "uint256",
          "name": "id",
          "type": "uint256"
        }
      ],
      "name": "URI",
      "type": "event"
    },
    {
      "inputs": [
        {
          "internalType": "address",
          "name": "account",
          "type": "address"
        },
        {
          "internalType": "uint256",
          "name": "id",
          "type": "uint256"
        }
      ],
      "name": "balanceOf",
      "outputs": [
        {
          "internalType": "uint256",
          "name": "",
          "type": "uint256"
        }
      ],
      "stateMutability": "view",
      "type": "function",
      "constant": true
    },
    {
      "inputs": [
        {
          "internalType": "address[]",
          "name": "accounts",
          "type": "address[]"
        },
        {
          "internalType": "uint256[]",
          "name": "ids",
          "type": "uint256[]"
        }
      ],
      "name": "balanceOfBatch",
      "outputs": [
        {
          "internalType": "uint256[]",
          "name": "",
          "type": "uint256[]"
        }
      ],
      "stateMutability": "view",
      "type": "function",
      "constant": true
    },
    {
      "inputs": [
        {
          "internalType": "address",
          "name": "account",
          "type": "address"
        },
        {
          "internalType": "address",
          "name": "operator",
          "type": "address"
        }
      ],
      "name": "isApprovedForAll",
      "outputs": [
        {
          "internalType": "bool",
          "name": "",
          "type": "bool"
        }
      ],
      "stateMutability": "view",
      "type": "function",
      "constant": true
    },
    {
      "inputs": [
        {
          "internalType": "address",
          "name": "from",
          "type": "address"
        },
        {
          "internalType": "address",
          "name": "to",
          "type": "address"
        },
        {
          "internalType": "uint256[]",
          "name": "ids",
          "type": "uint256[]"
        },
        {
          "internalType": "uint256[]",
          "name": "amounts",
          "type": "uint256[]"
        },
        {
          "internalType": "bytes",
          "name": "data",
          "type": "bytes"
        }
      ],
      "name": "safeBatchTransferFrom",
      "outputs": [],
      "stateMutability": "nonpayable",
      "type": "function"
    },
    {
      "inputs": [
        {
          "internalType": "address",
          "name": "from",
          "type": "address"
        },
        {
          "internalType": "address",
          "name": "to",
          "type": "address"
        },
        {
          "internalType": "uint256",
          "name": "id",
          "type": "uint256"
        },
        {
          "internalType": "uint256",
          "name": "amount",
          "type": "uint256"
        },
        {
          "internalType": "bytes",
          "name": "data",
          "type": "bytes"
        }
      ],
      "name": "safeTransferFrom",
      "outputs": [],
      "stateMutability": "nonpayable",
      "type": "function"
    },
    {
      "inputs": [
        {
          "internalType": "address",
          "name": "operator",
          "type": "address"
        },
        {
          "internalType": "bool",
          "name": "approved",
          "type": "bool"
        }
      ],
      "name": "setApprovalForAll",
      "outputs": [],
      "stateMutability": "nonpayable",
      "type": "function"
    },
    {
      "inputs": [
        {
          "internalType": "bytes4",
          "name": "interfaceId",
          "type": "bytes4"
        }
      ],
      "name": "supportsInterface",
      "outputs": [
        {
          "internalType": "bool",
          "name": "",
          "type": "bool"
        }
      ],
      "stateMutability": "view",
      "type": "function",
      "constant": true
    },
    {
      "inputs": [
        {
          "internalType": "uint256",
          "name": "tokenId",
          "type": "uint256"
        }
      ],
      "name": "uri",
      "outputs": [
        {
          "internalType": "string",
          "name": "",
          "type": "string"
        }
      ],
      "stateMutability": "view",
      "type": "function",
      "constant": true
    },
    {
      "inputs": [
        {
          "internalType": "uint256",
          "name": "tokenId",
          "type": "uint256"
        },
        {
          "internalType": "string",
          "name": "tokenUri",
          "type": "string"
        }
      ],
      "name": "setTokenUri",
      "outputs": [],
      "stateMutability": "nonpayable",
      "type": "function"
    },
    {
      "inputs": [
        {
          "internalType": "string",
          "name": "tokenUri",
          "type": "string"
        }
      ],
      "name": "mintEvent",
      "outputs": [],
      "stateMutability": "nonpayable",
      "type": "function"
    },
    {
      "inputs": [
        {
          "internalType": "string",
          "name": "tokenUri",
          "type": "string"
        },
        {
          "internalType": "uint256",
          "name": "eventTokenId",
          "type": "uint256"
        },
        {
          "internalType": "uint256",
          "name": "quantity",
          "type": "uint256"
        },
        {
          "internalType": "uint256",
          "name": "price",
          "type": "uint256"
        }
      ],
      "name": "mintTicket",
      "outputs": [],
      "stateMutability": "nonpayable",
      "type": "function"
    },
    {
      "inputs": [
        {
          "internalType": "uint256",
          "name": "tokenId",
          "type": "uint256"
        },
        {
          "internalType": "uint256",
          "name": "price",
          "type": "uint256"
        }
      ],
      "name": "createMarketItem",
      "outputs": [],
      "stateMutability": "payable",
      "type": "function",
      "payable": true
    },
    {
      "inputs": [
        {
          "internalType": "uint256",
          "name": "itemId",
          "type": "uint256"
        }
      ],
      "name": "cancelListing",
      "outputs": [],
      "stateMutability": "payable",
      "type": "function",
      "payable": true
    },
    {
      "inputs": [
        {
          "internalType": "uint256",
          "name": "itemId",
          "type": "uint256"
        }
      ],
      "name": "buyMarketItem",
      "outputs": [],
      "stateMutability": "payable",
      "type": "function",
      "payable": true
    },
    {
      "inputs": [
        {
          "internalType": "uint256",
          "name": "tokenId",
          "type": "uint256"
        }
      ],
      "name": "fetchMarketItem",
      "outputs": [
        {
          "components": [
            {
              "internalType": "uint256",
              "name": "itemId",
              "type": "uint256"
            },
            {
              "internalType": "uint256",
              "name": "tokenId",
              "type": "uint256"
            },
            {
              "internalType": "address payable",
              "name": "seller",
              "type": "address"
            },
            {
              "internalType": "address payable",
              "name": "owner",
              "type": "address"
            },
            {
              "internalType": "uint256",
              "name": "price",
              "type": "uint256"
            },
            {
              "internalType": "bool",
              "name": "sold",
              "type": "bool"
            }
          ],
          "internalType": "struct Event.MarketItem",
          "name": "",
          "type": "tuple"
        }
      ],
      "stateMutability": "view",
      "type": "function",
      "constant": true
    },
    {
      "inputs": [],
      "name": "fetchMarketItems",
      "outputs": [
        {
          "components": [
            {
              "internalType": "uint256",
              "name": "itemId",
              "type": "uint256"
            },
            {
              "internalType": "uint256",
              "name": "tokenId",
              "type": "uint256"
            },
            {
              "internalType": "address payable",
              "name": "seller",
              "type": "address"
            },
            {
              "internalType": "address payable",
              "name": "owner",
              "type": "address"
            },
            {
              "internalType": "uint256",
              "name": "price",
              "type": "uint256"
            },
            {
              "internalType": "bool",
              "name": "sold",
              "type": "bool"
            }
          ],
          "internalType": "struct Event.MarketItem[]",
          "name": "",
          "type": "tuple[]"
        }
      ],
      "stateMutability": "view",
      "type": "function",
      "constant": true
    },
    {
      "inputs": [
        {
          "internalType": "address",
          "name": "account",
          "type": "address"
        }
      ],
      "name": "fetchOwnedListings",
      "outputs": [
        {
          "components": [
            {
              "internalType": "uint256",
              "name": "itemId",
              "type": "uint256"
            },
            {
              "internalType": "uint256",
              "name": "tokenId",
              "type": "uint256"
            },
            {
              "internalType": "address payable",
              "name": "seller",
              "type": "address"
            },
            {
              "internalType": "address payable",
              "name": "owner",
              "type": "address"
            },
            {
              "internalType": "uint256",
              "name": "price",
              "type": "uint256"
            },
            {
              "internalType": "bool",
              "name": "sold",
              "type": "bool"
            }
          ],
          "internalType": "struct Event.MarketItem[]",
          "name": "",
          "type": "tuple[]"
        }
      ],
      "stateMutability": "view",
      "type": "function",
      "constant": true
    },
    {
      "inputs": [
        {
          "internalType": "address",
          "name": "account",
          "type": "address"
        }
      ],
      "name": "fetchCreatedEvents",
      "outputs": [
        {
          "components": [
            {
              "internalType": "uint256",
              "name": "tokenId",
              "type": "uint256"
            },
            {
              "internalType": "address payable",
              "name": "owner",
              "type": "address"
            }
          ],
          "internalType": "struct Event.EventItem[]",
          "name": "",
          "type": "tuple[]"
        }
      ],
      "stateMutability": "view",
      "type": "function",
      "constant": true
    },
    {
      "inputs": [
        {
          "internalType": "address",
          "name": "account",
          "type": "address"
        }
      ],
      "name": "fetchCreatedTickets",
      "outputs": [
        {
          "components": [
            {
              "internalType": "uint256",
              "name": "tokenId",
              "type": "uint256"
            }
          ],
          "internalType": "struct Event.Item[]",
          "name": "",
          "type": "tuple[]"
        }
      ],
      "stateMutability": "view",
      "type": "function",
      "constant": true
    },
    {
      "inputs": [
        {
          "internalType": "address",
          "name": "account",
          "type": "address"
        },
        {
          "internalType": "bool",
          "name": "isAllOwned",
          "type": "bool"
        },
        {
          "internalType": "bool",
          "name": "isCreator",
          "type": "bool"
        }
      ],
      "name": "fetchOwnedTickets",
      "outputs": [
        {
          "components": [
            {
              "internalType": "uint256",
              "name": "tokenId",
              "type": "uint256"
            },
            {
              "internalType": "uint256",
              "name": "eventTokenId",
              "type": "uint256"
            },
            {
              "internalType": "address payable",
              "name": "owner",
              "type": "address"
            },
            {
              "internalType": "uint256",
              "name": "price",
              "type": "uint256"
            },
            {
              "internalType": "bool",
              "name": "list",
              "type": "bool"
            },
            {
              "internalType": "bool",
              "name": "active",
              "type": "bool"
            }
          ],
          "internalType": "struct Event.TicketItem[]",
          "name": "",
          "type": "tuple[]"
        }
      ],
      "stateMutability": "view",
      "type": "function",
      "constant": true
    },
    {
      "inputs": [
        {
          "internalType": "uint256",
          "name": "eventTokenId",
          "type": "uint256"
        }
      ],
      "name": "fetchTicketsInEvent",
      "outputs": [
        {
          "components": [
            {
              "internalType": "uint256",
              "name": "tokenId",
              "type": "uint256"
            }
          ],
          "internalType": "struct Event.Item[]",
          "name": "",
          "type": "tuple[]"
        }
      ],
      "stateMutability": "view",
      "type": "function",
      "constant": true
    },
    {
      "inputs": [],
      "name": "fetchEvents",
      "outputs": [
        {
          "components": [
            {
              "internalType": "uint256",
              "name": "tokenId",
              "type": "uint256"
            },
            {
              "internalType": "address payable",
              "name": "owner",
              "type": "address"
            }
          ],
          "internalType": "struct Event.EventItem[]",
          "name": "",
          "type": "tuple[]"
        }
      ],
      "stateMutability": "view",
      "type": "function",
      "constant": true
    },
    {
      "inputs": [
        {
          "internalType": "uint256",
          "name": "tokenId",
          "type": "uint256"
        }
      ],
      "name": "fetchEvent",
      "outputs": [
        {
          "components": [
            {
              "internalType": "uint256",
              "name": "tokenId",
              "type": "uint256"
            },
            {
              "internalType": "address payable",
              "name": "owner",
              "type": "address"
            }
          ],
          "internalType": "struct Event.EventItem",
          "name": "",
          "type": "tuple"
        }
      ],
      "stateMutability": "view",
      "type": "function",
      "constant": true
    },
    {
      "inputs": [],
      "name": "fetchTickets",
      "outputs": [
        {
          "components": [
            {
              "internalType": "uint256",
              "name": "tokenId",
              "type": "uint256"
            },
            {
              "internalType": "uint256",
              "name": "eventTokenId",
              "type": "uint256"
            },
            {
              "internalType": "address payable",
              "name": "owner",
              "type": "address"
            },
            {
              "internalType": "uint256",
              "name": "price",
              "type": "uint256"
            },
            {
              "internalType": "bool",
              "name": "list",
              "type": "bool"
            },
            {
              "internalType": "bool",
              "name": "active",
              "type": "bool"
            }
          ],
          "internalType": "struct Event.TicketItem[]",
          "name": "",
          "type": "tuple[]"
        }
      ],
      "stateMutability": "view",
      "type": "function",
      "constant": true
    },
    {
      "inputs": [
        {
          "internalType": "uint256",
          "name": "tokenId",
          "type": "uint256"
        }
      ],
      "name": "fetchTicket",
      "outputs": [
        {
          "components": [
            {
              "internalType": "uint256",
              "name": "tokenId",
              "type": "uint256"
            },
            {
              "internalType": "uint256",
              "name": "eventTokenId",
              "type": "uint256"
            },
            {
              "internalType": "address payable",
              "name": "owner",
              "type": "address"
            },
            {
              "internalType": "uint256",
              "name": "price",
              "type": "uint256"
            },
            {
              "internalType": "bool",
              "name": "list",
              "type": "bool"
            },
            {
              "internalType": "bool",
              "name": "active",
              "type": "bool"
            }
          ],
          "internalType": "struct Event.TicketItem",
          "name": "",
          "type": "tuple"
        }
      ],
      "stateMutability": "view",
      "type": "function",
      "constant": true
    },
    {
      "inputs": [
        {
          "internalType": "address",
          "name": "",
          "type": "address"
        },
        {
          "internalType": "address",
          "name": "",
          "type": "address"
        },
        {
          "internalType": "uint256",
          "name": "",
          "type": "uint256"
        },
        {
          "internalType": "uint256",
          "name": "",
          "type": "uint256"
        },
        {
          "internalType": "bytes",
          "name": "",
          "type": "bytes"
        }
      ],
      "name": "onERC1155Received",
      "outputs": [
        {
          "internalType": "bytes4",
          "name": "",
          "type": "bytes4"
        }
      ],
      "stateMutability": "nonpayable",
      "type": "function"
    },
    {
      "inputs": [
        {
          "internalType": "address",
          "name": "",
          "type": "address"
        },
        {
          "internalType": "address",
          "name": "",
          "type": "address"
        },
        {
          "internalType": "uint256[]",
          "name": "",
          "type": "uint256[]"
        },
        {
          "internalType": "uint256[]",
          "name": "",
          "type": "uint256[]"
        },
        {
          "internalType": "bytes",
          "name": "",
          "type": "bytes"
        }
      ],
      "name": "onERC1155BatchReceived",
      "outputs": [
        {
          "internalType": "bytes4",
          "name": "",
          "type": "bytes4"
        }
      ],
      "stateMutability": "nonpayable",
      "type": "function"
    },
    {
      "inputs": [
        {
          "internalType": "address",
          "name": "",
          "type": "address"
        },
        {
          "internalType": "address",
          "name": "",
          "type": "address"
        },
        {
          "internalType": "uint256",
          "name": "",
          "type": "uint256"
        },
        {
          "internalType": "bytes",
          "name": "",
          "type": "bytes"
        }
      ],
      "name": "onERC721Received",
      "outputs": [
        {
          "internalType": "bytes4",
          "name": "",
          "type": "bytes4"
        }
      ],
      "stateMutability": "nonpayable",
      "type": "function"
    }
  ],
  "bytecode": "0x60806040523480156200001157600080fd5b506040518060400160405280600b81526020017f5469636b6574706c6163650000000000000000000000000000000000000000008152506200005981620000a160201b60201c565b5033600660006101000a81548173ffffffffffffffffffffffffffffffffffffffff021916908373ffffffffffffffffffffffffffffffffffffffff160217905550620001d2565b8060029080519060200190620000b9929190620000bd565b5050565b828054620000cb906200019c565b90600052602060002090601f016020900481019282620000ef57600085556200013b565b82601f106200010a57805160ff19168380011785556200013b565b828001600101855582156200013b579182015b828111156200013a5782518255916020019190600101906200011d565b5b5090506200014a91906200014e565b5090565b5b80821115620001695760008160009055506001016200014f565b5090565b7f4e487b7100000000000000000000000000000000000000000000000000000000600052602260045260246000fd5b60006002820490506001821680620001b557607f821691505b60208210811415620001cc57620001cb6200016d565b5b50919050565b615f3580620001e26000396000f3fe6080604052600436106101b65760003560e01c806357f7789e116100ec578063c9ce7d3c1161008a578063f242432a11610064578063f242432a14610676578063f6b92b231461069f578063f792d45d146106dc578063f9d5c50514610719576101b6565b8063c9ce7d3c146105bf578063e985e9c5146105fc578063f23a6e6114610639576101b6565b80639be0b935116100c65780639be0b93514610505578063a22cb4651461052e578063bc197c8114610557578063bcba434714610594576101b6565b806357f7789e146104765780638c8b5fd61461049f57806397dada91146104dc576101b6565b8063305a67a811610159578063361c199511610133578063361c1995146103b557806341c9eb0e146103d15780634e1273f4146103fc5780635105d52614610439576101b6565b8063305a67a81461034057806331d909701461035c578063351901c314610399576101b6565b80630f08efe0116101955780630f08efe014610272578063150b7a021461029d5780632a45b250146102da5780632eb2c2d614610317576101b6565b8062fdd58e146101bb57806301ffc9a7146101f85780630e89341c14610235575b600080fd5b3480156101c757600080fd5b506101e260048036038101906101dd9190614107565b610756565b6040516101ef9190614156565b60405180910390f35b34801561020457600080fd5b5061021f600480360381019061021a91906141c9565b61081f565b60405161022c9190614211565b60405180910390f35b34801561024157600080fd5b5061025c6004803603810190610257919061422c565b610901565b60405161026991906142f2565b60405180910390f35b34801561027e57600080fd5b506102876109a6565b604051610294919061447d565b60405180910390f35b3480156102a957600080fd5b506102c460048036038101906102bf91906145d4565b610bd1565b6040516102d19190614666565b60405180910390f35b3480156102e657600080fd5b5061030160048036038101906102fc919061422c565b610be5565b60405161030e91906146fc565b60405180910390f35b34801561032357600080fd5b5061033e600480360381019061033991906147df565b610d6e565b005b61035a6004803603810190610355919061422c565b610e0f565b005b34801561036857600080fd5b50610383600480360381019061037e91906148ae565b610fca565b60405161039091906149b9565b60405180910390f35b6103b360048036038101906103ae919061422c565b6110ce565b005b6103cf60048036038101906103ca91906149db565b611307565b005b3480156103dd57600080fd5b506103e66115eb565b6040516103f39190614b45565b60405180910390f35b34801561040857600080fd5b50610423600480360381019061041e9190614c2a565b61180a565b6040516104309190614d51565b60405180910390f35b34801561044557600080fd5b50610460600480360381019061045b919061422c565b611923565b60405161046d9190614dee565b60405180910390f35b34801561048257600080fd5b5061049d60048036038101906104989190614eaa565b611a00565b005b3480156104ab57600080fd5b506104c660048036038101906104c1919061422c565b611a2c565b6040516104d39190614f35565b60405180910390f35b3480156104e857600080fd5b5061050360048036038101906104fe9190614f50565b611abf565b005b34801561051157600080fd5b5061052c60048036038101906105279190614fd3565b611c84565b005b34801561053a57600080fd5b5061055560048036038101906105509190615048565b611e46565b005b34801561056357600080fd5b5061057e600480360381019061057991906147df565b611e5c565b60405161058b9190614666565b60405180910390f35b3480156105a057600080fd5b506105a9611e71565b6040516105b691906149b9565b60405180910390f35b3480156105cb57600080fd5b506105e660048036038101906105e19190615088565b612046565b6040516105f39190614b45565b60405180910390f35b34801561060857600080fd5b50610623600480360381019061061e91906150db565b6129f3565b6040516106309190614211565b60405180910390f35b34801561064557600080fd5b50610660600480360381019061065b919061511b565b612a87565b60405161066d9190614666565b60405180910390f35b34801561068257600080fd5b5061069d6004803603810190610698919061511b565b612a9c565b005b3480156106ab57600080fd5b506106c660048036038101906106c191906148ae565b612b3d565b6040516106d3919061527d565b60405180910390f35b3480156106e857600080fd5b5061070360048036038101906106fe91906148ae565b612ddf565b604051610710919061447d565b60405180910390f35b34801561072557600080fd5b50610740600480360381019061073b919061422c565b6130d3565b60405161074d919061527d565b60405180910390f35b60008073ffffffffffffffffffffffffffffffffffffffff168373ffffffffffffffffffffffffffffffffffffffff1614156107c7576040517f08c379a00000000000000000000000000000000000000000000000000000000081526004016107be90615311565b60405180910390fd5b60008083815260200190815260200160002060008473ffffffffffffffffffffffffffffffffffffffff1673ffffffffffffffffffffffffffffffffffffffff16815260200190815260200160002054905092915050565b60007fd9b67a26000000000000000000000000000000000000000000000000000000007bffffffffffffffffffffffffffffffffffffffffffffffffffffffff1916827bffffffffffffffffffffffffffffffffffffffffffffffffffffffff191614806108ea57507f0e89341c000000000000000000000000000000000000000000000000000000007bffffffffffffffffffffffffffffffffffffffffffffffffffffffff1916827bffffffffffffffffffffffffffffffffffffffffffffffffffffffff1916145b806108fa57506108f982613151565b5b9050919050565b606060076000838152602001908152602001600020805461092190615360565b80601f016020809104026020016040519081016040528092919081815260200182805461094d90615360565b801561099a5780601f1061096f5761010080835404028352916020019161099a565b820191906000526020600020905b81548152906001019060200180831161097d57829003601f168201915b50505050509050919050565b606060006109b460046131bb565b905060006109c260056131bb565b6109cc60046131bb565b6109d691906153c1565b90506000808267ffffffffffffffff8111156109f5576109f46144a9565b5b604051908082528060200260200182016040528015610a2e57816020015b610a1b613ec5565b815260200190600190039081610a135790505b50905060005b84811015610bc657600b6000600183610a4d91906153f5565b815260200190815260200160002060050160009054906101000a900460ff16610bb3576000600b6000600184610a8391906153f5565b81526020019081526020016000209050806040518060c001604052908160008201548152602001600182015481526020016002820160009054906101000a900473ffffffffffffffffffffffffffffffffffffffff1673ffffffffffffffffffffffffffffffffffffffff1673ffffffffffffffffffffffffffffffffffffffff1681526020016003820160009054906101000a900473ffffffffffffffffffffffffffffffffffffffff1673ffffffffffffffffffffffffffffffffffffffff1673ffffffffffffffffffffffffffffffffffffffff168152602001600482015481526020016005820160009054906101000a900460ff161515151581525050838581518110610b9757610b9661544b565b5b6020026020010181905250600184610baf91906153f5565b9350505b8080610bbe9061547a565b915050610a34565b508094505050505090565b600063150b7a0260e01b9050949350505050565b610bed613ec5565b6000610bf960046131bb565b9050610c03613ec5565b60005b82811015610d635784600b6000600184610c2091906153f5565b8152602001908152602001600020600101541415610d50576000600182610c4791906153f5565b9050600b60008281526020019081526020016000206040518060c001604052908160008201548152602001600182015481526020016002820160009054906101000a900473ffffffffffffffffffffffffffffffffffffffff1673ffffffffffffffffffffffffffffffffffffffff1673ffffffffffffffffffffffffffffffffffffffff1681526020016003820160009054906101000a900473ffffffffffffffffffffffffffffffffffffffff1673ffffffffffffffffffffffffffffffffffffffff1673ffffffffffffffffffffffffffffffffffffffff168152602001600482015481526020016005820160009054906101000a900460ff1615151515815250509250505b8080610d5b9061547a565b915050610c06565b508092505050919050565b610d766131c9565b73ffffffffffffffffffffffffffffffffffffffff168573ffffffffffffffffffffffffffffffffffffffff161480610dbc5750610dbb85610db66131c9565b6129f3565b5b610dfb576040517f08c379a0000000000000000000000000000000000000000000000000000000008152600401610df290615535565b60405180910390fd5b610e0885858585856131d1565b5050505050565b600b600082815260200190815260200160002060030160009054906101000a900473ffffffffffffffffffffffffffffffffffffffff1673ffffffffffffffffffffffffffffffffffffffff163373ffffffffffffffffffffffffffffffffffffffff1614610eb3576040517f08c379a0000000000000000000000000000000000000000000000000000000008152600401610eaa906155c7565b60405180910390fd5b6000600b60008381526020019081526020016000206001015490506000600960008381526020019081526020016000206003018190555060006009600083815260200190815260200160002060040160006101000a81548160ff021916908315150217905550600b600083815260200190815260200160002060008082016000905560018201600090556002820160006101000a81549073ffffffffffffffffffffffffffffffffffffffff02191690556003820160006101000a81549073ffffffffffffffffffffffffffffffffffffffff021916905560048201600090556005820160006101000a81549060ff02191690555050610fc63033836001604051806020016040528060008152506134e5565b5050565b60606000600c60008473ffffffffffffffffffffffffffffffffffffffff1673ffffffffffffffffffffffffffffffffffffffff168152602001908152602001600020805480602002602001604051908101604052809291908181526020016000905b828210156110bf5783829060005260206000209060020201604051806040016040529081600082015481526020016001820160009054906101000a900473ffffffffffffffffffffffffffffffffffffffff1673ffffffffffffffffffffffffffffffffffffffff1673ffffffffffffffffffffffffffffffffffffffff16815250508152602001906001019061102d565b50505050905080915050919050565b6000600b60008381526020019081526020016000206004015490506000600b60008481526020019081526020016000206001015490506402540be4008261111591906155e7565b3414611156576040517f08c379a000000000000000000000000000000000000000000000000000000000815260040161114d9061568d565b60405180910390fd5b600b600084815260200190815260200160002060020160009054906101000a900473ffffffffffffffffffffffffffffffffffffffff1673ffffffffffffffffffffffffffffffffffffffff166108fc349081150290604051600060405180830381858888f193505050501580156111d2573d6000803e3d6000fd5b5033600b600085815260200190815260200160002060030160006101000a81548173ffffffffffffffffffffffffffffffffffffffff021916908373ffffffffffffffffffffffffffffffffffffffff1602179055506001600b600085815260200190815260200160002060050160006101000a81548160ff021916908315150217905550336009600083815260200190815260200160002060020160006101000a81548173ffffffffffffffffffffffffffffffffffffffff021916908373ffffffffffffffffffffffffffffffffffffffff16021790555060006009600083815260200190815260200160002060040160006101000a81548160ff0219169083151502179055506112e56005613767565b6113023033836001604051806020016040528060008152506134e5565b505050565b6009600083815260200190815260200160002060020160009054906101000a900473ffffffffffffffffffffffffffffffffffffffff1673ffffffffffffffffffffffffffffffffffffffff163373ffffffffffffffffffffffffffffffffffffffff16146113ab576040517f08c379a00000000000000000000000000000000000000000000000000000000081526004016113a2906155c7565b60405180910390fd5b600081116113ee576040517f08c379a00000000000000000000000000000000000000000000000000000000081526004016113e5906156f9565b60405180910390fd5b6113f86004613767565b600061140460046131bb565b90506040518060c001604052808281526020018481526020013373ffffffffffffffffffffffffffffffffffffffff1681526020013373ffffffffffffffffffffffffffffffffffffffff16815260200183815260200160001515815250600b6000838152602001908152602001600020600082015181600001556020820151816001015560408201518160020160006101000a81548173ffffffffffffffffffffffffffffffffffffffff021916908373ffffffffffffffffffffffffffffffffffffffff16021790555060608201518160030160006101000a81548173ffffffffffffffffffffffffffffffffffffffff021916908373ffffffffffffffffffffffffffffffffffffffff1602179055506080820151816004015560a08201518160050160006101000a81548160ff02191690831515021790555090505081600960008581526020019081526020016000206003018190555060016009600085815260200190815260200160002060040160006101000a81548160ff0219169083151502179055506115ab333085600160405180602001604052806000815250612a9c565b7f122bc23f7392642ed4d92b50be608e71c280a2527659732d294f52ec7fcaaf983384846040516115de93929190615728565b60405180910390a1505050565b606060006115f960036131bb565b905060008060005b838110156116565760006009600060018461161c91906153f5565b815260200190815260200160002060000154146116435760018361164091906153f5565b92505b808061164e9061547a565b915050611601565b5060008267ffffffffffffffff811115611673576116726144a9565b5b6040519080825280602002602001820160405280156116ac57816020015b611699613f29565b8152602001906001900390816116915790505b50905060005b848110156117ff576000600960006001846116cd91906153f5565b815260200190815260200160002060000154146117ec576000600960006001846116f791906153f5565b81526020019081526020016000209050806040518060c001604052908160008201548152602001600182015481526020016002820160009054906101000a900473ffffffffffffffffffffffffffffffffffffffff1673ffffffffffffffffffffffffffffffffffffffff1673ffffffffffffffffffffffffffffffffffffffff168152602001600382015481526020016004820160009054906101000a900460ff161515151581526020016004820160019054906101000a900460ff1615151515815250508385815181106117d0576117cf61544b565b5b60200260200101819052506001846117e891906153f5565b9350505b80806117f79061547a565b9150506116b2565b508094505050505090565b60608151835114611850576040517f08c379a0000000000000000000000000000000000000000000000000000000008152600401611847906157d1565b60405180910390fd5b6000835167ffffffffffffffff81111561186d5761186c6144a9565b5b60405190808252806020026020018201604052801561189b5781602001602082028036833780820191505090505b50905060005b8451811015611918576118e88582815181106118c0576118bf61544b565b5b60200260200101518583815181106118db576118da61544b565b5b6020026020010151610756565b8282815181106118fb576118fa61544b565b5b602002602001018181525050806119119061547a565b90506118a1565b508091505092915050565b61192b613f29565b6000600960008481526020019081526020016000206040518060c001604052908160008201548152602001600182015481526020016002820160009054906101000a900473ffffffffffffffffffffffffffffffffffffffff1673ffffffffffffffffffffffffffffffffffffffff1673ffffffffffffffffffffffffffffffffffffffff168152602001600382015481526020016004820160009054906101000a900460ff161515151581526020016004820160019054906101000a900460ff161515151581525050905080915050919050565b80600760008481526020019081526020016000209080519060200190611a27929190613f79565b505050565b611a34613fff565b600060086000848152602001908152602001600020604051806040016040529081600082015481526020016001820160009054906101000a900473ffffffffffffffffffffffffffffffffffffffff1673ffffffffffffffffffffffffffffffffffffffff1673ffffffffffffffffffffffffffffffffffffffff1681525050905080915050919050565b60005b82811015611c7d57611ad46003613767565b6000611ae060036131bb565b9050611afe338260016040518060200160405280600081525061377d565b611b088187611a00565b6040518060c001604052808281526020018681526020013373ffffffffffffffffffffffffffffffffffffffff1681526020018481526020016000151581526020016001151581525060096000838152602001908152602001600020600082015181600001556020820151816001015560408201518160020160006101000a81548173ffffffffffffffffffffffffffffffffffffffff021916908373ffffffffffffffffffffffffffffffffffffffff1602179055506060820151816003015560808201518160040160006101000a81548160ff02191690831515021790555060a08201518160040160016101000a81548160ff021916908315150217905550905050600a600086815260200190815260200160002060405180602001604052808381525090806001815401808255809150506001900390600052602060002001600090919091909150600082015181600001555050611c698184611307565b508080611c759061547a565b915050611ac2565b5050505050565b611c8e6003613767565b6000611c9a60036131bb565b9050611cb8338260016040518060200160405280600081525061377d565b611cc28183611a00565b60405180604001604052808281526020013373ffffffffffffffffffffffffffffffffffffffff16815250600860008381526020019081526020016000206000820151816000015560208201518160010160006101000a81548173ffffffffffffffffffffffffffffffffffffffff021916908373ffffffffffffffffffffffffffffffffffffffff160217905550905050600c60003373ffffffffffffffffffffffffffffffffffffffff1673ffffffffffffffffffffffffffffffffffffffff168152602001908152602001600020600860008381526020019081526020016000209080600181540180825580915050600190039060005260206000209060020201600090919091909150600082015481600001556001820160009054906101000a900473ffffffffffffffffffffffffffffffffffffffff168160010160006101000a81548173ffffffffffffffffffffffffffffffffffffffff021916908373ffffffffffffffffffffffffffffffffffffffff16021790555050505050565b611e58611e516131c9565b8383613913565b5050565b600063bc197c8160e01b905095945050505050565b60606000611e7f60036131bb565b905060008060005b83811015611edc57600060086000600184611ea291906153f5565b81526020019081526020016000206000015414611ec957600183611ec691906153f5565b92505b8080611ed49061547a565b915050611e87565b5060008267ffffffffffffffff811115611ef957611ef86144a9565b5b604051908082528060200260200182016040528015611f3257816020015b611f1f613fff565b815260200190600190039081611f175790505b50905060005b8481101561203b57600060086000600184611f5391906153f5565b8152602001908152602001600020600001541461202857600060086000600184611f7d91906153f5565b8152602001908152602001600020905080604051806040016040529081600082015481526020016001820160009054906101000a900473ffffffffffffffffffffffffffffffffffffffff1673ffffffffffffffffffffffffffffffffffffffff1673ffffffffffffffffffffffffffffffffffffffff168152505083858151811061200c5761200b61544b565b5b602002602001018190525060018461202491906153f5565b9350505b80806120339061547a565b915050611f38565b508094505050505090565b6060600061205460036131bb565b905060008085156121095760005b83811015612103578773ffffffffffffffffffffffffffffffffffffffff166009600060018461209291906153f5565b815260200190815260200160002060020160009054906101000a900473ffffffffffffffffffffffffffffffffffffffff1673ffffffffffffffffffffffffffffffffffffffff1614156120f0576001836120ed91906153f5565b92505b80806120fb9061547a565b915050612062565b5061237f565b84156122485760005b83811015612242578773ffffffffffffffffffffffffffffffffffffffff16600860006009600060018661214691906153f5565b815260200190815260200160002060010154815260200190815260200160002060010160009054906101000a900473ffffffffffffffffffffffffffffffffffffffff1673ffffffffffffffffffffffffffffffffffffffff1614801561221a57508773ffffffffffffffffffffffffffffffffffffffff16600960006001846121d091906153f5565b815260200190815260200160002060020160009054906101000a900473ffffffffffffffffffffffffffffffffffffffff1673ffffffffffffffffffffffffffffffffffffffff16145b1561222f5760018361222c91906153f5565b92505b808061223a9061547a565b915050612112565b5061237e565b60005b8381101561237c578773ffffffffffffffffffffffffffffffffffffffff16600860006009600060018661227f91906153f5565b815260200190815260200160002060010154815260200190815260200160002060010160009054906101000a900473ffffffffffffffffffffffffffffffffffffffff1673ffffffffffffffffffffffffffffffffffffffff161415801561235457508773ffffffffffffffffffffffffffffffffffffffff166009600060018461230a91906153f5565b815260200190815260200160002060020160009054906101000a900473ffffffffffffffffffffffffffffffffffffffff1673ffffffffffffffffffffffffffffffffffffffff16145b156123695760018361236691906153f5565b92505b80806123749061547a565b91505061224b565b505b5b60008267ffffffffffffffff81111561239b5761239a6144a9565b5b6040519080825280602002602001820160405280156123d457816020015b6123c1613f29565b8152602001906001900390816123b95790505b509050861561257f5760005b84811015612579578873ffffffffffffffffffffffffffffffffffffffff166009600060018461241091906153f5565b815260200190815260200160002060020160009054906101000a900473ffffffffffffffffffffffffffffffffffffffff1673ffffffffffffffffffffffffffffffffffffffff1614156125665760006009600060018461247191906153f5565b81526020019081526020016000209050806040518060c001604052908160008201548152602001600182015481526020016002820160009054906101000a900473ffffffffffffffffffffffffffffffffffffffff1673ffffffffffffffffffffffffffffffffffffffff1673ffffffffffffffffffffffffffffffffffffffff168152602001600382015481526020016004820160009054906101000a900460ff161515151581526020016004820160019054906101000a900460ff16151515158152505083858151811061254a5761254961544b565b5b602002602001018190525060018461256291906153f5565b9350505b80806125719061547a565b9150506123e0565b506129e5565b85156127b65760005b848110156127b0578873ffffffffffffffffffffffffffffffffffffffff1660086000600960006001866125bc91906153f5565b815260200190815260200160002060010154815260200190815260200160002060010160009054906101000a900473ffffffffffffffffffffffffffffffffffffffff1673ffffffffffffffffffffffffffffffffffffffff1614801561269057508873ffffffffffffffffffffffffffffffffffffffff166009600060018461264691906153f5565b815260200190815260200160002060020160009054906101000a900473ffffffffffffffffffffffffffffffffffffffff1673ffffffffffffffffffffffffffffffffffffffff16145b1561279d576000600960006001846126a891906153f5565b81526020019081526020016000209050806040518060c001604052908160008201548152602001600182015481526020016002820160009054906101000a900473ffffffffffffffffffffffffffffffffffffffff1673ffffffffffffffffffffffffffffffffffffffff1673ffffffffffffffffffffffffffffffffffffffff168152602001600382015481526020016004820160009054906101000a900460ff161515151581526020016004820160019054906101000a900460ff1615151515815250508385815181106127815761278061544b565b5b602002602001018190525060018461279991906153f5565b9350505b80806127a89061547a565b915050612588565b506129e4565b60005b848110156129e2578873ffffffffffffffffffffffffffffffffffffffff1660086000600960006001866127ed91906153f5565b815260200190815260200160002060010154815260200190815260200160002060010160009054906101000a900473ffffffffffffffffffffffffffffffffffffffff1673ffffffffffffffffffffffffffffffffffffffff16141580156128c257508873ffffffffffffffffffffffffffffffffffffffff166009600060018461287891906153f5565b815260200190815260200160002060020160009054906101000a900473ffffffffffffffffffffffffffffffffffffffff1673ffffffffffffffffffffffffffffffffffffffff16145b156129cf576000600960006001846128da91906153f5565b81526020019081526020016000209050806040518060c001604052908160008201548152602001600182015481526020016002820160009054906101000a900473ffffffffffffffffffffffffffffffffffffffff1673ffffffffffffffffffffffffffffffffffffffff1673ffffffffffffffffffffffffffffffffffffffff168152602001600382015481526020016004820160009054906101000a900460ff161515151581526020016004820160019054906101000a900460ff1615151515815250508385815181106129b3576129b261544b565b5b60200260200101819052506001846129cb91906153f5565b9350505b80806129da9061547a565b9150506127b9565b505b5b809450505050509392505050565b6000600160008473ffffffffffffffffffffffffffffffffffffffff1673ffffffffffffffffffffffffffffffffffffffff16815260200190815260200160002060008373ffffffffffffffffffffffffffffffffffffffff1673ffffffffffffffffffffffffffffffffffffffff16815260200190815260200160002060009054906101000a900460ff16905092915050565b600063f23a6e6160e01b905095945050505050565b612aa46131c9565b73ffffffffffffffffffffffffffffffffffffffff168573ffffffffffffffffffffffffffffffffffffffff161480612aea5750612ae985612ae46131c9565b6129f3565b5b612b29576040517f08c379a0000000000000000000000000000000000000000000000000000000008152600401612b2090615863565b60405180910390fd5b612b3685858585856134e5565b5050505050565b60606000806000600c60008673ffffffffffffffffffffffffffffffffffffffff1673ffffffffffffffffffffffffffffffffffffffff168152602001908152602001600020805480602002602001604051908101604052809291908181526020016000905b82821015612c355783829060005260206000209060020201604051806040016040529081600082015481526020016001820160009054906101000a900473ffffffffffffffffffffffffffffffffffffffff1673ffffffffffffffffffffffffffffffffffffffff1673ffffffffffffffffffffffffffffffffffffffff168152505081526020019060010190612ba3565b50505050905060005b8151811015612ca2576000600a6000848481518110612c6057612c5f61544b565b5b60200260200101516000015181526020019081526020016000208054905090508085612c8c91906153f5565b9450508080612c9a9061547a565b915050612c3e565b5060008367ffffffffffffffff811115612cbf57612cbe6144a9565b5b604051908082528060200260200182016040528015612cf857816020015b612ce561402f565b815260200190600190039081612cdd5790505b50905060005b8251811015612dd2576000600a6000858481518110612d2057612d1f61544b565b5b6020026020010151600001518152602001908152602001600020905060005b8180549050811015612dbd57818181548110612d5e57612d5d61544b565b5b90600052602060002001604051806020016040529081600082015481525050848781518110612d9057612d8f61544b565b5b6020026020010181905250600186612da891906153f5565b95508080612db59061547a565b915050612d3f565b50508080612dca9061547a565b915050612cfe565b5080945050505050919050565b60606000612ded60046131bb565b905060008060005b83811015612e96578573ffffffffffffffffffffffffffffffffffffffff16600b6000600184612e2591906153f5565b815260200190815260200160002060020160009054906101000a900473ffffffffffffffffffffffffffffffffffffffff1673ffffffffffffffffffffffffffffffffffffffff161415612e8357600183612e8091906153f5565b92505b8080612e8e9061547a565b915050612df5565b5060008267ffffffffffffffff811115612eb357612eb26144a9565b5b604051908082528060200260200182016040528015612eec57816020015b612ed9613ec5565b815260200190600190039081612ed15790505b50905060005b848110156130c6578673ffffffffffffffffffffffffffffffffffffffff16600b6000600184612f2291906153f5565b815260200190815260200160002060020160009054906101000a900473ffffffffffffffffffffffffffffffffffffffff1673ffffffffffffffffffffffffffffffffffffffff1614156130b3576000600b6000600184612f8391906153f5565b81526020019081526020016000209050806040518060c001604052908160008201548152602001600182015481526020016002820160009054906101000a900473ffffffffffffffffffffffffffffffffffffffff1673ffffffffffffffffffffffffffffffffffffffff1673ffffffffffffffffffffffffffffffffffffffff1681526020016003820160009054906101000a900473ffffffffffffffffffffffffffffffffffffffff1673ffffffffffffffffffffffffffffffffffffffff1673ffffffffffffffffffffffffffffffffffffffff168152602001600482015481526020016005820160009054906101000a900460ff1615151515815250508385815181106130975761309661544b565b5b60200260200101819052506001846130af91906153f5565b9350505b80806130be9061547a565b915050612ef2565b5080945050505050919050565b60606000600a6000848152602001908152602001600020805480602002602001604051908101604052809291908181526020016000905b82821015613142578382906000526020600020016040518060200160405290816000820154815250508152602001906001019061310a565b50505050905080915050919050565b60007f01ffc9a7000000000000000000000000000000000000000000000000000000007bffffffffffffffffffffffffffffffffffffffffffffffffffffffff1916827bffffffffffffffffffffffffffffffffffffffffffffffffffffffff1916149050919050565b600081600001549050919050565b600033905090565b8151835114613215576040517f08c379a000000000000000000000000000000000000000000000000000000000815260040161320c906158f5565b60405180910390fd5b600073ffffffffffffffffffffffffffffffffffffffff168473ffffffffffffffffffffffffffffffffffffffff161415613285576040517f08c379a000000000000000000000000000000000000000000000000000000000815260040161327c90615987565b60405180910390fd5b600061328f6131c9565b905061329f818787878787613a80565b60005b84518110156134505760008582815181106132c0576132bf61544b565b5b6020026020010151905060008583815181106132df576132de61544b565b5b60200260200101519050600080600084815260200190815260200160002060008b73ffffffffffffffffffffffffffffffffffffffff1673ffffffffffffffffffffffffffffffffffffffff16815260200190815260200160002054905081811015613380576040517f08c379a000000000000000000000000000000000000000000000000000000000815260040161337790615a19565b60405180910390fd5b81810360008085815260200190815260200160002060008c73ffffffffffffffffffffffffffffffffffffffff1673ffffffffffffffffffffffffffffffffffffffff168152602001908152602001600020819055508160008085815260200190815260200160002060008b73ffffffffffffffffffffffffffffffffffffffff1673ffffffffffffffffffffffffffffffffffffffff168152602001908152602001600020600082825461343591906153f5565b92505081905550505050806134499061547a565b90506132a2565b508473ffffffffffffffffffffffffffffffffffffffff168673ffffffffffffffffffffffffffffffffffffffff168273ffffffffffffffffffffffffffffffffffffffff167f4a39dc06d4c0dbc64b70af90fd698a233a518aa5d07e595d983b8c0526c8f7fb87876040516134c7929190615a39565b60405180910390a46134dd818787878787613a88565b505050505050565b600073ffffffffffffffffffffffffffffffffffffffff168473ffffffffffffffffffffffffffffffffffffffff161415613555576040517f08c379a000000000000000000000000000000000000000000000000000000000815260040161354c90615987565b60405180910390fd5b600061355f6131c9565b905061357f81878761357088613c60565b61357988613c60565b87613a80565b600080600086815260200190815260200160002060008873ffffffffffffffffffffffffffffffffffffffff1673ffffffffffffffffffffffffffffffffffffffff16815260200190815260200160002054905083811015613616576040517f08c379a000000000000000000000000000000000000000000000000000000000815260040161360d90615a19565b60405180910390fd5b83810360008087815260200190815260200160002060008973ffffffffffffffffffffffffffffffffffffffff1673ffffffffffffffffffffffffffffffffffffffff168152602001908152602001600020819055508360008087815260200190815260200160002060008873ffffffffffffffffffffffffffffffffffffffff1673ffffffffffffffffffffffffffffffffffffffff16815260200190815260200160002060008282546136cb91906153f5565b925050819055508573ffffffffffffffffffffffffffffffffffffffff168773ffffffffffffffffffffffffffffffffffffffff168373ffffffffffffffffffffffffffffffffffffffff167fc3d58168c5ae7397731d063d5bbf3d657854427343f4c083240f7aacaa2d0f628888604051613748929190615a70565b60405180910390a461375e828888888888613cda565b50505050505050565b6001816000016000828254019250508190555050565b600073ffffffffffffffffffffffffffffffffffffffff168473ffffffffffffffffffffffffffffffffffffffff1614156137ed576040517f08c379a00000000000000000000000000000000000000000000000000000000081526004016137e490615b0b565b60405180910390fd5b60006137f76131c9565b90506138188160008761380988613c60565b61381288613c60565b87613a80565b8260008086815260200190815260200160002060008773ffffffffffffffffffffffffffffffffffffffff1673ffffffffffffffffffffffffffffffffffffffff168152602001908152602001600020600082825461387791906153f5565b925050819055508473ffffffffffffffffffffffffffffffffffffffff16600073ffffffffffffffffffffffffffffffffffffffff168273ffffffffffffffffffffffffffffffffffffffff167fc3d58168c5ae7397731d063d5bbf3d657854427343f4c083240f7aacaa2d0f6287876040516138f5929190615a70565b60405180910390a461390c81600087878787613cda565b5050505050565b8173ffffffffffffffffffffffffffffffffffffffff168373ffffffffffffffffffffffffffffffffffffffff161415613982576040517f08c379a000000000000000000000000000000000000000000000000000000000815260040161397990615b9d565b60405180910390fd5b80600160008573ffffffffffffffffffffffffffffffffffffffff1673ffffffffffffffffffffffffffffffffffffffff16815260200190815260200160002060008473ffffffffffffffffffffffffffffffffffffffff1673ffffffffffffffffffffffffffffffffffffffff16815260200190815260200160002060006101000a81548160ff0219169083151502179055508173ffffffffffffffffffffffffffffffffffffffff168373ffffffffffffffffffffffffffffffffffffffff167f17307eab39ab6107e8899845ad3d59bd9653f200f220920489ca2b5937696c3183604051613a739190614211565b60405180910390a3505050565b505050505050565b613aa78473ffffffffffffffffffffffffffffffffffffffff16613eb2565b15613c58578373ffffffffffffffffffffffffffffffffffffffff1663bc197c8187878686866040518663ffffffff1660e01b8152600401613aed959493929190615c12565b6020604051808303816000875af1925050508015613b2957506040513d601f19601f82011682018060405250810190613b269190615c8f565b60015b613bcf57613b35615cc9565b806308c379a01415613b925750613b4a615ceb565b80613b555750613b94565b806040517f08c379a0000000000000000000000000000000000000000000000000000000008152600401613b8991906142f2565b60405180910390fd5b505b6040517f08c379a0000000000000000000000000000000000000000000000000000000008152600401613bc690615df3565b60405180910390fd5b63bc197c8160e01b7bffffffffffffffffffffffffffffffffffffffffffffffffffffffff1916817bffffffffffffffffffffffffffffffffffffffffffffffffffffffff191614613c56576040517f08c379a0000000000000000000000000000000000000000000000000000000008152600401613c4d90615e85565b60405180910390fd5b505b505050505050565b60606000600167ffffffffffffffff811115613c7f57613c7e6144a9565b5b604051908082528060200260200182016040528015613cad5781602001602082028036833780820191505090505b5090508281600081518110613cc557613cc461544b565b5b60200260200101818152505080915050919050565b613cf98473ffffffffffffffffffffffffffffffffffffffff16613eb2565b15613eaa578373ffffffffffffffffffffffffffffffffffffffff1663f23a6e6187878686866040518663ffffffff1660e01b8152600401613d3f959493929190615ea5565b6020604051808303816000875af1925050508015613d7b57506040513d601f19601f82011682018060405250810190613d789190615c8f565b60015b613e2157613d87615cc9565b806308c379a01415613de45750613d9c615ceb565b80613da75750613de6565b806040517f08c379a0000000000000000000000000000000000000000000000000000000008152600401613ddb91906142f2565b60405180910390fd5b505b6040517f08c379a0000000000000000000000000000000000000000000000000000000008152600401613e1890615df3565b60405180910390fd5b63f23a6e6160e01b7bffffffffffffffffffffffffffffffffffffffffffffffffffffffff1916817bffffffffffffffffffffffffffffffffffffffffffffffffffffffff191614613ea8576040517f08c379a0000000000000000000000000000000000000000000000000000000008152600401613e9f90615e85565b60405180910390fd5b505b505050505050565b600080823b905060008111915050919050565b6040518060c001604052806000815260200160008152602001600073ffffffffffffffffffffffffffffffffffffffff168152602001600073ffffffffffffffffffffffffffffffffffffffff168152602001600081526020016000151581525090565b6040518060c001604052806000815260200160008152602001600073ffffffffffffffffffffffffffffffffffffffff168152602001600081526020016000151581526020016000151581525090565b828054613f8590615360565b90600052602060002090601f016020900481019282613fa75760008555613fee565b82601f10613fc057805160ff1916838001178555613fee565b82800160010185558215613fee579182015b82811115613fed578251825591602001919060010190613fd2565b5b509050613ffb9190614042565b5090565b604051806040016040528060008152602001600073ffffffffffffffffffffffffffffffffffffffff1681525090565b6040518060200160405280600081525090565b5b8082111561405b576000816000905550600101614043565b5090565b6000604051905090565b600080fd5b600080fd5b600073ffffffffffffffffffffffffffffffffffffffff82169050919050565b600061409e82614073565b9050919050565b6140ae81614093565b81146140b957600080fd5b50565b6000813590506140cb816140a5565b92915050565b6000819050919050565b6140e4816140d1565b81146140ef57600080fd5b50565b600081359050614101816140db565b92915050565b6000806040838503121561411e5761411d614069565b5b600061412c858286016140bc565b925050602061413d858286016140f2565b9150509250929050565b614150816140d1565b82525050565b600060208201905061416b6000830184614147565b92915050565b60007fffffffff0000000000000000000000000000000000000000000000000000000082169050919050565b6141a681614171565b81146141b157600080fd5b50565b6000813590506141c38161419d565b92915050565b6000602082840312156141df576141de614069565b5b60006141ed848285016141b4565b91505092915050565b60008115159050919050565b61420b816141f6565b82525050565b60006020820190506142266000830184614202565b92915050565b60006020828403121561424257614241614069565b5b6000614250848285016140f2565b91505092915050565b600081519050919050565b600082825260208201905092915050565b60005b83811015614293578082015181840152602081019050614278565b838111156142a2576000848401525b50505050565b6000601f19601f8301169050919050565b60006142c482614259565b6142ce8185614264565b93506142de818560208601614275565b6142e7816142a8565b840191505092915050565b6000602082019050818103600083015261430c81846142b9565b905092915050565b600081519050919050565b600082825260208201905092915050565b6000819050602082019050919050565b614349816140d1565b82525050565b600061435a82614073565b9050919050565b61436a8161434f565b82525050565b614379816141f6565b82525050565b60c0820160008201516143956000850182614340565b5060208201516143a86020850182614340565b5060408201516143bb6040850182614361565b5060608201516143ce6060850182614361565b5060808201516143e16080850182614340565b5060a08201516143f460a0850182614370565b50505050565b6000614406838361437f565b60c08301905092915050565b6000602082019050919050565b600061442a82614314565b614434818561431f565b935061443f83614330565b8060005b8381101561447057815161445788826143fa565b975061446283614412565b925050600181019050614443565b5085935050505092915050565b60006020820190508181036000830152614497818461441f565b905092915050565b600080fd5b600080fd5b7f4e487b7100000000000000000000000000000000000000000000000000000000600052604160045260246000fd5b6144e1826142a8565b810181811067ffffffffffffffff82111715614500576144ff6144a9565b5b80604052505050565b600061451361405f565b905061451f82826144d8565b919050565b600067ffffffffffffffff82111561453f5761453e6144a9565b5b614548826142a8565b9050602081019050919050565b82818337600083830152505050565b600061457761457284614524565b614509565b905082815260208101848484011115614593576145926144a4565b5b61459e848285614555565b509392505050565b600082601f8301126145bb576145ba61449f565b5b81356145cb848260208601614564565b91505092915050565b600080600080608085870312156145ee576145ed614069565b5b60006145fc878288016140bc565b945050602061460d878288016140bc565b935050604061461e878288016140f2565b925050606085013567ffffffffffffffff81111561463f5761463e61406e565b5b61464b878288016145a6565b91505092959194509250565b61466081614171565b82525050565b600060208201905061467b6000830184614657565b92915050565b60c0820160008201516146976000850182614340565b5060208201516146aa6020850182614340565b5060408201516146bd6040850182614361565b5060608201516146d06060850182614361565b5060808201516146e36080850182614340565b5060a08201516146f660a0850182614370565b50505050565b600060c0820190506147116000830184614681565b92915050565b600067ffffffffffffffff821115614732576147316144a9565b5b602082029050602081019050919050565b600080fd5b600061475b61475684614717565b614509565b9050808382526020820190506020840283018581111561477e5761477d614743565b5b835b818110156147a7578061479388826140f2565b845260208401935050602081019050614780565b5050509392505050565b600082601f8301126147c6576147c561449f565b5b81356147d6848260208601614748565b91505092915050565b600080600080600060a086880312156147fb576147fa614069565b5b6000614809888289016140bc565b955050602061481a888289016140bc565b945050604086013567ffffffffffffffff81111561483b5761483a61406e565b5b614847888289016147b1565b935050606086013567ffffffffffffffff8111156148685761486761406e565b5b614874888289016147b1565b925050608086013567ffffffffffffffff8111156148955761489461406e565b5b6148a1888289016145a6565b9150509295509295909350565b6000602082840312156148c4576148c3614069565b5b60006148d2848285016140bc565b91505092915050565b600081519050919050565b600082825260208201905092915050565b6000819050602082019050919050565b60408201600082015161491d6000850182614340565b5060208201516149306020850182614361565b50505050565b60006149428383614907565b60408301905092915050565b6000602082019050919050565b6000614966826148db565b61497081856148e6565b935061497b836148f7565b8060005b838110156149ac5781516149938882614936565b975061499e8361494e565b92505060018101905061497f565b5085935050505092915050565b600060208201905081810360008301526149d3818461495b565b905092915050565b600080604083850312156149f2576149f1614069565b5b6000614a00858286016140f2565b9250506020614a11858286016140f2565b9150509250929050565b600081519050919050565b600082825260208201905092915050565b6000819050602082019050919050565b60c082016000820151614a5d6000850182614340565b506020820151614a706020850182614340565b506040820151614a836040850182614361565b506060820151614a966060850182614340565b506080820151614aa96080850182614370565b5060a0820151614abc60a0850182614370565b50505050565b6000614ace8383614a47565b60c08301905092915050565b6000602082019050919050565b6000614af282614a1b565b614afc8185614a26565b9350614b0783614a37565b8060005b83811015614b38578151614b1f8882614ac2565b9750614b2a83614ada565b925050600181019050614b0b565b5085935050505092915050565b60006020820190508181036000830152614b5f8184614ae7565b905092915050565b600067ffffffffffffffff821115614b8257614b816144a9565b5b602082029050602081019050919050565b6000614ba6614ba184614b67565b614509565b90508083825260208201905060208402830185811115614bc957614bc8614743565b5b835b81811015614bf25780614bde88826140bc565b845260208401935050602081019050614bcb565b5050509392505050565b600082601f830112614c1157614c1061449f565b5b8135614c21848260208601614b93565b91505092915050565b60008060408385031215614c4157614c40614069565b5b600083013567ffffffffffffffff811115614c5f57614c5e61406e565b5b614c6b85828601614bfc565b925050602083013567ffffffffffffffff811115614c8c57614c8b61406e565b5b614c98858286016147b1565b9150509250929050565b600081519050919050565b600082825260208201905092915050565b6000819050602082019050919050565b6000614cda8383614340565b60208301905092915050565b6000602082019050919050565b6000614cfe82614ca2565b614d088185614cad565b9350614d1383614cbe565b8060005b83811015614d44578151614d2b8882614cce565b9750614d3683614ce6565b925050600181019050614d17565b5085935050505092915050565b60006020820190508181036000830152614d6b8184614cf3565b905092915050565b60c082016000820151614d896000850182614340565b506020820151614d9c6020850182614340565b506040820151614daf6040850182614361565b506060820151614dc26060850182614340565b506080820151614dd56080850182614370565b5060a0820151614de860a0850182614370565b50505050565b600060c082019050614e036000830184614d73565b92915050565b600067ffffffffffffffff821115614e2457614e236144a9565b5b614e2d826142a8565b9050602081019050919050565b6000614e4d614e4884614e09565b614509565b905082815260208101848484011115614e6957614e686144a4565b5b614e74848285614555565b509392505050565b600082601f830112614e9157614e9061449f565b5b8135614ea1848260208601614e3a565b91505092915050565b60008060408385031215614ec157614ec0614069565b5b6000614ecf858286016140f2565b925050602083013567ffffffffffffffff811115614ef057614eef61406e565b5b614efc85828601614e7c565b9150509250929050565b604082016000820151614f1c6000850182614340565b506020820151614f2f6020850182614361565b50505050565b6000604082019050614f4a6000830184614f06565b92915050565b60008060008060808587031215614f6a57614f69614069565b5b600085013567ffffffffffffffff811115614f8857614f8761406e565b5b614f9487828801614e7c565b9450506020614fa5878288016140f2565b9350506040614fb6878288016140f2565b9250506060614fc7878288016140f2565b91505092959194509250565b600060208284031215614fe957614fe8614069565b5b600082013567ffffffffffffffff8111156150075761500661406e565b5b61501384828501614e7c565b91505092915050565b615025816141f6565b811461503057600080fd5b50565b6000813590506150428161501c565b92915050565b6000806040838503121561505f5761505e614069565b5b600061506d858286016140bc565b925050602061507e85828601615033565b9150509250929050565b6000806000606084860312156150a1576150a0614069565b5b60006150af868287016140bc565b93505060206150c086828701615033565b92505060406150d186828701615033565b9150509250925092565b600080604083850312156150f2576150f1614069565b5b6000615100858286016140bc565b9250506020615111858286016140bc565b9150509250929050565b600080600080600060a0868803121561513757615136614069565b5b6000615145888289016140bc565b9550506020615156888289016140bc565b9450506040615167888289016140f2565b9350506060615178888289016140f2565b925050608086013567ffffffffffffffff8111156151995761519861406e565b5b6151a5888289016145a6565b9150509295509295909350565b600081519050919050565b600082825260208201905092915050565b6000819050602082019050919050565b6020820160008201516151f46000850182614340565b50505050565b600061520683836151de565b60208301905092915050565b6000602082019050919050565b600061522a826151b2565b61523481856151bd565b935061523f836151ce565b8060005b8381101561527057815161525788826151fa565b975061526283615212565b925050600181019050615243565b5085935050505092915050565b60006020820190508181036000830152615297818461521f565b905092915050565b7f455243313135353a2062616c616e636520717565727920666f7220746865207a60008201527f65726f2061646472657373000000000000000000000000000000000000000000602082015250565b60006152fb602b83614264565b91506153068261529f565b604082019050919050565b6000602082019050818103600083015261532a816152ee565b9050919050565b7f4e487b7100000000000000000000000000000000000000000000000000000000600052602260045260246000fd5b6000600282049050600182168061537857607f821691505b6020821081141561538c5761538b615331565b5b50919050565b7f4e487b7100000000000000000000000000000000000000000000000000000000600052601160045260246000fd5b60006153cc826140d1565b91506153d7836140d1565b9250828210156153ea576153e9615392565b5b828203905092915050565b6000615400826140d1565b915061540b836140d1565b9250827fffffffffffffffffffffffffffffffffffffffffffffffffffffffffffffffff038211156154405761543f615392565b5b828201905092915050565b7f4e487b7100000000000000000000000000000000000000000000000000000000600052603260045260246000fd5b6000615485826140d1565b91507fffffffffffffffffffffffffffffffffffffffffffffffffffffffffffffffff8214156154b8576154b7615392565b5b600182019050919050565b7f455243313135353a207472616e736665722063616c6c6572206973206e6f742060008201527f6f776e6572206e6f7220617070726f7665640000000000000000000000000000602082015250565b600061551f603283614264565b915061552a826154c3565b604082019050919050565b6000602082019050818103600083015261554e81615512565b9050919050565b7f4f6e6c7920666f7220746865206f776e6572206f662074686973207469636b6560008201527f7421000000000000000000000000000000000000000000000000000000000000602082015250565b60006155b1602283614264565b91506155bc82615555565b604082019050919050565b600060208201905081810360008301526155e0816155a4565b9050919050565b60006155f2826140d1565b91506155fd836140d1565b9250817fffffffffffffffffffffffffffffffffffffffffffffffffffffffffffffffff048311821515161561563657615635615392565b5b828202905092915050565b7f6d73672e76616c756520213d207072696365202a2a20646563696d616c730000600082015250565b6000615677601e83614264565b915061568282615641565b602082019050919050565b600060208201905081810360008301526156a68161566a565b9050919050565b7f5072696365206d757374206265206174206c6561737420312077656900000000600082015250565b60006156e3601c83614264565b91506156ee826156ad565b602082019050919050565b60006020820190508181036000830152615712816156d6565b9050919050565b61572281614093565b82525050565b600060608201905061573d6000830186615719565b61574a6020830185614147565b6157576040830184614147565b949350505050565b7f455243313135353a206163636f756e747320616e6420696473206c656e67746860008201527f206d69736d617463680000000000000000000000000000000000000000000000602082015250565b60006157bb602983614264565b91506157c68261575f565b604082019050919050565b600060208201905081810360008301526157ea816157ae565b9050919050565b7f455243313135353a2063616c6c6572206973206e6f74206f776e6572206e6f7260008201527f20617070726f7665640000000000000000000000000000000000000000000000602082015250565b600061584d602983614264565b9150615858826157f1565b604082019050919050565b6000602082019050818103600083015261587c81615840565b9050919050565b7f455243313135353a2069647320616e6420616d6f756e7473206c656e6774682060008201527f6d69736d61746368000000000000000000000000000000000000000000000000602082015250565b60006158df602883614264565b91506158ea82615883565b604082019050919050565b6000602082019050818103600083015261590e816158d2565b9050919050565b7f455243313135353a207472616e7366657220746f20746865207a65726f20616460008201527f6472657373000000000000000000000000000000000000000000000000000000602082015250565b6000615971602583614264565b915061597c82615915565b604082019050919050565b600060208201905081810360008301526159a081615964565b9050919050565b7f455243313135353a20696e73756666696369656e742062616c616e636520666f60008201527f72207472616e7366657200000000000000000000000000000000000000000000602082015250565b6000615a03602a83614264565b9150615a0e826159a7565b604082019050919050565b60006020820190508181036000830152615a32816159f6565b9050919050565b60006040820190508181036000830152615a538185614cf3565b90508181036020830152615a678184614cf3565b90509392505050565b6000604082019050615a856000830185614147565b615a926020830184614147565b9392505050565b7f455243313135353a206d696e7420746f20746865207a65726f2061646472657360008201527f7300000000000000000000000000000000000000000000000000000000000000602082015250565b6000615af5602183614264565b9150615b0082615a99565b604082019050919050565b60006020820190508181036000830152615b2481615ae8565b9050919050565b7f455243313135353a2073657474696e6720617070726f76616c2073746174757360008201527f20666f722073656c660000000000000000000000000000000000000000000000602082015250565b6000615b87602983614264565b9150615b9282615b2b565b604082019050919050565b60006020820190508181036000830152615bb681615b7a565b9050919050565b600081519050919050565b600082825260208201905092915050565b6000615be482615bbd565b615bee8185615bc8565b9350615bfe818560208601614275565b615c07816142a8565b840191505092915050565b600060a082019050615c276000830188615719565b615c346020830187615719565b8181036040830152615c468186614cf3565b90508181036060830152615c5a8185614cf3565b90508181036080830152615c6e8184615bd9565b90509695505050505050565b600081519050615c898161419d565b92915050565b600060208284031215615ca557615ca4614069565b5b6000615cb384828501615c7a565b91505092915050565b60008160e01c9050919050565b600060033d1115615ce85760046000803e615ce5600051615cbc565b90505b90565b600060443d1015615cfb57615d7e565b615d0361405f565b60043d036004823e80513d602482011167ffffffffffffffff82111715615d2b575050615d7e565b808201805167ffffffffffffffff811115615d495750505050615d7e565b80602083010160043d038501811115615d66575050505050615d7e565b615d75826020018501866144d8565b82955050505050505b90565b7f455243313135353a207472616e7366657220746f206e6f6e204552433131353560008201527f526563656976657220696d706c656d656e746572000000000000000000000000602082015250565b6000615ddd603483614264565b9150615de882615d81565b604082019050919050565b60006020820190508181036000830152615e0c81615dd0565b9050919050565b7f455243313135353a204552433131353552656365697665722072656a6563746560008201527f6420746f6b656e73000000000000000000000000000000000000000000000000602082015250565b6000615e6f602883614264565b9150615e7a82615e13565b604082019050919050565b60006020820190508181036000830152615e9e81615e62565b9050919050565b600060a082019050615eba6000830188615719565b615ec76020830187615719565b615ed46040830186614147565b615ee16060830185614147565b8181036080830152615ef38184615bd9565b9050969550505050505056fea26469706673582212202d35160f7084aef3dc3cc4c70324735d233a27d4b7515329880971ec5083257564736f6c634300080b0033",
  "immutableReferences": {},
  "source": "// SPDX-License-Identifier: MIT\r\npragma solidity ^0.8.11;\r\n\r\nimport \"@openzeppelin/contracts/token/ERC1155/ERC1155.sol\";\r\nimport \"@openzeppelin/contracts/utils/Counters.sol\";\r\n\r\ncontract Event is ERC1155 {\r\n    using Counters for Counters.Counter;\r\n    Counters.Counter private _tokenIds;\r\n    Counters.Counter private _itemIds;\r\n    Counters.Counter private _itemsSold;\r\n    address payable owner;\r\n\r\n    constructor() ERC1155(\"Ticketplace\") {\r\n        owner = payable(msg.sender);\r\n    }\r\n\r\n    mapping(uint256 => string) private _uris;\r\n\r\n    struct Item {\r\n        uint256 tokenId;\r\n    }\r\n\r\n    struct EventItem {\r\n        uint256 tokenId;\r\n        address payable owner;\r\n    }\r\n\r\n    struct TicketItem {\r\n        uint256 tokenId;\r\n        uint256 eventTokenId;\r\n        address payable owner;\r\n        uint256 price;\r\n        bool list;\r\n        bool active;\r\n    }\r\n\r\n    struct MarketItem {\r\n        uint256 itemId;\r\n        uint256 tokenId;\r\n        address payable seller;\r\n        address payable owner;\r\n        uint256 price;\r\n        bool sold;\r\n    }\r\n\r\n    mapping(uint256 => EventItem) private eventToken;\r\n    mapping(uint256 => TicketItem) private ticketToken;\r\n    mapping(uint256 => Item[]) private ticketsInEvent;\r\n    mapping(uint256 => MarketItem) private ticketInMarket;\r\n\r\n    mapping(address => EventItem[]) private createdEvents;\r\n\r\n    event CreateMarketItem(address sender, uint256 tokenId, uint256 price);\r\n\r\n    function uri(uint256 tokenId) public view override returns (string memory) {\r\n        return (_uris[tokenId]);\r\n    }\r\n\r\n    function setTokenUri(uint256 tokenId, string memory tokenUri) public {\r\n        // require(bytes(_uris[tokenId]).length == 0, \"Cannot set uri twice\");\r\n        _uris[tokenId] = tokenUri;\r\n    }\r\n\r\n    function mintEvent(string memory tokenUri) public {\r\n        _tokenIds.increment();\r\n        uint256 newItemId = _tokenIds.current();\r\n\r\n        _mint(msg.sender, newItemId, 1, \"\");\r\n        setTokenUri(newItemId, tokenUri);\r\n        eventToken[newItemId] = EventItem(newItemId, payable(msg.sender));\r\n        createdEvents[msg.sender].push(eventToken[newItemId]);\r\n    }\r\n\r\n    function mintTicket(\r\n        string memory tokenUri,\r\n        uint256 eventTokenId,\r\n        uint256 quantity,\r\n        uint256 price\r\n    ) public {\r\n        for (uint256 i = 0; i < quantity; i++) {\r\n            _tokenIds.increment();\r\n            uint256 newItemId = _tokenIds.current();\r\n\r\n            _mint(msg.sender, newItemId, 1, \"\");\r\n            setTokenUri(newItemId, tokenUri);\r\n            ticketToken[newItemId] = TicketItem(\r\n                newItemId,\r\n                eventTokenId,\r\n                payable(msg.sender),\r\n                price,\r\n                false,\r\n                true\r\n            );\r\n            ticketsInEvent[eventTokenId].push(Item(newItemId));\r\n            createMarketItem(newItemId, price);\r\n        }\r\n    }\r\n\r\n    function createMarketItem(uint256 tokenId, uint256 price) public payable {\r\n        require(\r\n            msg.sender == ticketToken[tokenId].owner,\r\n            \"Only for the owner of this ticket!\"\r\n        );\r\n        require(price > 0, \"Price must be at least 1 wei\");\r\n\r\n        _itemIds.increment();\r\n        uint256 itemId = _itemIds.current();\r\n\r\n        ticketInMarket[itemId] = MarketItem(\r\n            itemId,\r\n            tokenId,\r\n            payable(msg.sender),\r\n            payable(msg.sender),\r\n            price,\r\n            false\r\n        );\r\n\r\n        ticketToken[tokenId].price = price;\r\n        ticketToken[tokenId].list = true;\r\n\r\n        safeTransferFrom(msg.sender, address(this), tokenId, 1, \"\");\r\n\r\n        emit CreateMarketItem(msg.sender, tokenId, price);\r\n    }\r\n\r\n    function cancelListing(uint256 itemId) public payable {\r\n        require(\r\n            msg.sender == ticketInMarket[itemId].owner,\r\n            \"Only for the owner of this ticket!\"\r\n        );\r\n        uint256 tokenId = ticketInMarket[itemId].tokenId;\r\n        ticketToken[tokenId].price = 0;\r\n        ticketToken[tokenId].list = false;\r\n        delete ticketInMarket[itemId];\r\n        _safeTransferFrom(address(this), msg.sender, tokenId, 1, \"\");\r\n    }\r\n\r\n    function buyMarketItem(uint256 itemId) public payable {\r\n        uint256 price = ticketInMarket[itemId].price;\r\n        uint256 tokenId = ticketInMarket[itemId].tokenId;\r\n        require(\r\n            msg.value == price * (10**10),\r\n            \"msg.value != price ** decimals\"\r\n        );\r\n\r\n        ticketInMarket[itemId].seller.transfer(msg.value);\r\n        ticketInMarket[itemId].owner = payable(msg.sender);\r\n        ticketInMarket[itemId].sold = true;\r\n        ticketToken[tokenId].owner = payable(msg.sender);\r\n        ticketToken[tokenId].list = false;\r\n        _itemsSold.increment();\r\n\r\n        _safeTransferFrom(address(this), msg.sender, tokenId, 1, \"\");\r\n    }\r\n\r\n    function fetchMarketItem(uint256 tokenId)\r\n        public\r\n        view\r\n        returns (MarketItem memory)\r\n    {\r\n        uint256 itemCount = _itemIds.current();\r\n        MarketItem memory item;\r\n\r\n        for (uint256 i = 0; i < itemCount; i++) {\r\n            if (ticketInMarket[i + 1].tokenId == tokenId) {\r\n                uint256 currentId = i + 1;\r\n                item = ticketInMarket[currentId];\r\n            }\r\n        }\r\n        return item;\r\n    }\r\n\r\n    function fetchMarketItems() public view returns (MarketItem[] memory) {\r\n        uint256 itemCount = _itemIds.current();\r\n        uint256 unsoldItemCount = _itemIds.current() - _itemsSold.current();\r\n        uint256 currentIndex = 0;\r\n\r\n        MarketItem[] memory items = new MarketItem[](unsoldItemCount);\r\n        for (uint256 i = 0; i < itemCount; i++) {\r\n            if (!ticketInMarket[i + 1].sold) {\r\n                MarketItem storage currentItem = ticketInMarket[i + 1];\r\n                items[currentIndex] = currentItem;\r\n                currentIndex += 1;\r\n            }\r\n        }\r\n        return items;\r\n    }\r\n\r\n    function fetchOwnedListings(address account)\r\n        public\r\n        view\r\n        returns (MarketItem[] memory)\r\n    {\r\n        uint256 itemCount = _itemIds.current();\r\n        uint256 tokenCount = 0;\r\n        uint256 currentIndex = 0;\r\n\r\n        for (uint256 i = 0; i < itemCount; i++) {\r\n            if (ticketInMarket[i + 1].seller == account) {\r\n                tokenCount += 1;\r\n            }\r\n        }\r\n\r\n        MarketItem[] memory items = new MarketItem[](tokenCount);\r\n        for (uint256 i = 0; i < itemCount; i++) {\r\n            if (ticketInMarket[i + 1].seller == account) {\r\n                MarketItem storage currentItem = ticketInMarket[i + 1];\r\n                items[currentIndex] = currentItem;\r\n                currentIndex += 1;\r\n            }\r\n        }\r\n        return items;\r\n    }\r\n\r\n    function fetchCreatedEvents(address account)\r\n        public\r\n        view\r\n        returns (EventItem[] memory)\r\n    {\r\n        EventItem[] memory items = createdEvents[account];\r\n        return items;\r\n    }\r\n\r\n    function fetchCreatedTickets(address account)\r\n        public\r\n        view\r\n        returns (Item[] memory)\r\n    {\r\n        uint256 tokenCount = 0;\r\n        uint256 currentIndex = 0;\r\n\r\n        EventItem[] memory events = createdEvents[account];\r\n        for (uint256 i = 0; i < events.length; i++) {\r\n            uint256 ticketCount = ticketsInEvent[events[i].tokenId].length;\r\n            tokenCount += ticketCount;\r\n        }\r\n\r\n        Item[] memory items = new Item[](tokenCount);\r\n        for (uint256 i = 0; i < events.length; i++) {\r\n            Item[] storage currentItem = ticketsInEvent[events[i].tokenId];\r\n            for (uint256 j = 0; j < currentItem.length; j++) {\r\n                items[currentIndex] = currentItem[j];\r\n                currentIndex += 1;\r\n            }\r\n        }\r\n        return items;\r\n    }\r\n\r\n    function fetchOwnedTickets(\r\n        address account,\r\n        bool isAllOwned,\r\n        bool isCreator\r\n    ) public view returns (TicketItem[] memory) {\r\n        uint256 totalTokenCount = _tokenIds.current();\r\n        uint256 tokenCount = 0;\r\n        uint256 currentIndex = 0;\r\n\r\n        if (isAllOwned) {\r\n            for (uint256 i = 0; i < totalTokenCount; i++) {\r\n                if (ticketToken[i + 1].owner == account) {\r\n                    tokenCount += 1;\r\n                }\r\n            }\r\n        } else {\r\n            if (isCreator) {\r\n                for (uint256 i = 0; i < totalTokenCount; i++) {\r\n                    if (\r\n                        eventToken[ticketToken[i + 1].eventTokenId].owner ==\r\n                        account &&\r\n                        ticketToken[i + 1].owner == account\r\n                    ) {\r\n                        tokenCount += 1;\r\n                    }\r\n                }\r\n            } else {\r\n                for (uint256 i = 0; i < totalTokenCount; i++) {\r\n                    if (\r\n                        eventToken[ticketToken[i + 1].eventTokenId].owner !=\r\n                        account &&\r\n                        ticketToken[i + 1].owner == account\r\n                    ) {\r\n                        tokenCount += 1;\r\n                    }\r\n                }\r\n            }\r\n        }\r\n\r\n        TicketItem[] memory items = new TicketItem[](tokenCount);\r\n        if (isAllOwned) {\r\n            for (uint256 i = 0; i < totalTokenCount; i++) {\r\n                if (ticketToken[i + 1].owner == account) {\r\n                    TicketItem storage currentItem = ticketToken[i + 1];\r\n                    items[currentIndex] = currentItem;\r\n                    currentIndex += 1;\r\n                }\r\n            }\r\n        } else {\r\n            if (isCreator) {\r\n                for (uint256 i = 0; i < totalTokenCount; i++) {\r\n                    if (\r\n                        eventToken[ticketToken[i + 1].eventTokenId].owner ==\r\n                        account &&\r\n                        ticketToken[i + 1].owner == account\r\n                    ) {\r\n                        TicketItem storage currentItem = ticketToken[i + 1];\r\n                        items[currentIndex] = currentItem;\r\n                        currentIndex += 1;\r\n                    }\r\n                }\r\n            } else {\r\n                for (uint256 i = 0; i < totalTokenCount; i++) {\r\n                    if (\r\n                        eventToken[ticketToken[i + 1].eventTokenId].owner !=\r\n                        account &&\r\n                        ticketToken[i + 1].owner == account\r\n                    ) {\r\n                        TicketItem storage currentItem = ticketToken[i + 1];\r\n                        items[currentIndex] = currentItem;\r\n                        currentIndex += 1;\r\n                    }\r\n                }\r\n            }\r\n        }\r\n\r\n        return items;\r\n    }\r\n\r\n    function fetchTicketsInEvent(uint256 eventTokenId)\r\n        public\r\n        view\r\n        returns (Item[] memory)\r\n    {\r\n        Item[] memory items = ticketsInEvent[eventTokenId];\r\n        return items;\r\n    }\r\n\r\n    function fetchEvents() public view returns (EventItem[] memory) {\r\n        uint256 itemCount = _tokenIds.current();\r\n        uint256 tokenCount = 0;\r\n        uint256 currentIndex = 0;\r\n\r\n        for (uint256 i = 0; i < itemCount; i++) {\r\n            if (eventToken[i + 1].tokenId != 0) {\r\n                tokenCount += 1;\r\n            }\r\n        }\r\n\r\n        EventItem[] memory items = new EventItem[](tokenCount);\r\n        for (uint256 i = 0; i < itemCount; i++) {\r\n            if (eventToken[i + 1].tokenId != 0) {\r\n                EventItem storage currentItem = eventToken[i + 1];\r\n                items[currentIndex] = currentItem;\r\n                currentIndex += 1;\r\n            }\r\n        }\r\n        return items;\r\n    }\r\n\r\n    function fetchEvent(uint256 tokenId)\r\n        public\r\n        view\r\n        returns (EventItem memory)\r\n    {\r\n        EventItem memory item = eventToken[tokenId];\r\n        return item;\r\n    }\r\n\r\n    function fetchTickets() public view returns (TicketItem[] memory) {\r\n        uint256 itemCount = _tokenIds.current();\r\n        uint256 tokenCount = 0;\r\n        uint256 currentIndex = 0;\r\n\r\n        for (uint256 i = 0; i < itemCount; i++) {\r\n            if (ticketToken[i + 1].tokenId != 0) {\r\n                tokenCount += 1;\r\n            }\r\n        }\r\n\r\n        TicketItem[] memory items = new TicketItem[](tokenCount);\r\n        for (uint256 i = 0; i < itemCount; i++) {\r\n            if (ticketToken[i + 1].tokenId != 0) {\r\n                TicketItem storage currentItem = ticketToken[i + 1];\r\n                items[currentIndex] = currentItem;\r\n                currentIndex += 1;\r\n            }\r\n        }\r\n        return items;\r\n    }\r\n\r\n    function fetchTicket(uint256 tokenId)\r\n        public\r\n        view\r\n        returns (TicketItem memory)\r\n    {\r\n        TicketItem memory item = ticketToken[tokenId];\r\n        return item;\r\n    }\r\n\r\n    function onERC1155Received(\r\n        address,\r\n        address,\r\n        uint256,\r\n        uint256,\r\n        bytes memory\r\n    ) public virtual returns (bytes4) {\r\n        return this.onERC1155Received.selector;\r\n    }\r\n\r\n    function onERC1155BatchReceived(\r\n        address,\r\n        address,\r\n        uint256[] memory,\r\n        uint256[] memory,\r\n        bytes memory\r\n    ) public virtual returns (bytes4) {\r\n        return this.onERC1155BatchReceived.selector;\r\n    }\r\n\r\n    function onERC721Received(\r\n        address,\r\n        address,\r\n        uint256,\r\n        bytes memory\r\n    ) public virtual returns (bytes4) {\r\n        return this.onERC721Received.selector;\r\n    }\r\n}\r\n",
  "sourcePath": "D:\\Final Project\\ticketplace\\contracts\\Event.sol",
  "compiler": {
    "name": "solc",
    "version": "0.8.11+commit.d7f03943.Emscripten.clang"
  },
  "schemaVersion": "3.4.4",
  "updatedAt": "2022-04-06T03:22:00.281Z",
  "networkType": "ethereum",
  "devdoc": {
    "kind": "dev",
    "methods": {
      "balanceOf(address,uint256)": {
        "details": "See {IERC1155-balanceOf}. Requirements: - `account` cannot be the zero address."
      },
      "balanceOfBatch(address[],uint256[])": {
        "details": "See {IERC1155-balanceOfBatch}. Requirements: - `accounts` and `ids` must have the same length."
      },
      "isApprovedForAll(address,address)": {
        "details": "See {IERC1155-isApprovedForAll}."
      },
      "safeBatchTransferFrom(address,address,uint256[],uint256[],bytes)": {
        "details": "See {IERC1155-safeBatchTransferFrom}."
      },
      "safeTransferFrom(address,address,uint256,uint256,bytes)": {
        "details": "See {IERC1155-safeTransferFrom}."
      },
      "setApprovalForAll(address,bool)": {
        "details": "See {IERC1155-setApprovalForAll}."
      },
      "supportsInterface(bytes4)": {
        "details": "See {IERC165-supportsInterface}."
      }
    },
    "version": 1
  },
  "userdoc": {
    "kind": "user",
    "methods": {},
    "version": 1
  }
}