{
  "contractName": "Event",
  "abi": [
    {
      "inputs": [],
      "stateMutability": "nonpayable",
      "type": "constructor"
    },
    {
      "anonymous": false,
      "inputs": [
        {
          "indexed": true,
          "internalType": "address",
          "name": "account",
          "type": "address"
        },
        {
          "indexed": true,
          "internalType": "address",
          "name": "operator",
          "type": "address"
        },
        {
          "indexed": false,
          "internalType": "bool",
          "name": "approved",
          "type": "bool"
        }
      ],
      "name": "ApprovalForAll",
      "type": "event"
    },
    {
      "anonymous": false,
      "inputs": [
        {
          "indexed": true,
          "internalType": "address",
          "name": "operator",
          "type": "address"
        },
        {
          "indexed": true,
          "internalType": "address",
          "name": "from",
          "type": "address"
        },
        {
          "indexed": true,
          "internalType": "address",
          "name": "to",
          "type": "address"
        },
        {
          "indexed": false,
          "internalType": "uint256[]",
          "name": "ids",
          "type": "uint256[]"
        },
        {
          "indexed": false,
          "internalType": "uint256[]",
          "name": "values",
          "type": "uint256[]"
        }
      ],
      "name": "TransferBatch",
      "type": "event"
    },
    {
      "anonymous": false,
      "inputs": [
        {
          "indexed": true,
          "internalType": "address",
          "name": "operator",
          "type": "address"
        },
        {
          "indexed": true,
          "internalType": "address",
          "name": "from",
          "type": "address"
        },
        {
          "indexed": true,
          "internalType": "address",
          "name": "to",
          "type": "address"
        },
        {
          "indexed": false,
          "internalType": "uint256",
          "name": "id",
          "type": "uint256"
        },
        {
          "indexed": false,
          "internalType": "uint256",
          "name": "value",
          "type": "uint256"
        }
      ],
      "name": "TransferSingle",
      "type": "event"
    },
    {
      "anonymous": false,
      "inputs": [
        {
          "indexed": false,
          "internalType": "string",
          "name": "value",
          "type": "string"
        },
        {
          "indexed": true,
          "internalType": "uint256",
          "name": "id",
          "type": "uint256"
        }
      ],
      "name": "URI",
      "type": "event"
    },
    {
      "inputs": [
        {
          "internalType": "address",
          "name": "account",
          "type": "address"
        },
        {
          "internalType": "uint256",
          "name": "id",
          "type": "uint256"
        }
      ],
      "name": "balanceOf",
      "outputs": [
        {
          "internalType": "uint256",
          "name": "",
          "type": "uint256"
        }
      ],
      "stateMutability": "view",
      "type": "function",
      "constant": true
    },
    {
      "inputs": [
        {
          "internalType": "address[]",
          "name": "accounts",
          "type": "address[]"
        },
        {
          "internalType": "uint256[]",
          "name": "ids",
          "type": "uint256[]"
        }
      ],
      "name": "balanceOfBatch",
      "outputs": [
        {
          "internalType": "uint256[]",
          "name": "",
          "type": "uint256[]"
        }
      ],
      "stateMutability": "view",
      "type": "function",
      "constant": true
    },
    {
      "inputs": [
        {
          "internalType": "address",
          "name": "account",
          "type": "address"
        },
        {
          "internalType": "address",
          "name": "operator",
          "type": "address"
        }
      ],
      "name": "isApprovedForAll",
      "outputs": [
        {
          "internalType": "bool",
          "name": "",
          "type": "bool"
        }
      ],
      "stateMutability": "view",
      "type": "function",
      "constant": true
    },
    {
      "inputs": [
        {
          "internalType": "address",
          "name": "from",
          "type": "address"
        },
        {
          "internalType": "address",
          "name": "to",
          "type": "address"
        },
        {
          "internalType": "uint256[]",
          "name": "ids",
          "type": "uint256[]"
        },
        {
          "internalType": "uint256[]",
          "name": "amounts",
          "type": "uint256[]"
        },
        {
          "internalType": "bytes",
          "name": "data",
          "type": "bytes"
        }
      ],
      "name": "safeBatchTransferFrom",
      "outputs": [],
      "stateMutability": "nonpayable",
      "type": "function"
    },
    {
      "inputs": [
        {
          "internalType": "address",
          "name": "from",
          "type": "address"
        },
        {
          "internalType": "address",
          "name": "to",
          "type": "address"
        },
        {
          "internalType": "uint256",
          "name": "id",
          "type": "uint256"
        },
        {
          "internalType": "uint256",
          "name": "amount",
          "type": "uint256"
        },
        {
          "internalType": "bytes",
          "name": "data",
          "type": "bytes"
        }
      ],
      "name": "safeTransferFrom",
      "outputs": [],
      "stateMutability": "nonpayable",
      "type": "function"
    },
    {
      "inputs": [
        {
          "internalType": "address",
          "name": "operator",
          "type": "address"
        },
        {
          "internalType": "bool",
          "name": "approved",
          "type": "bool"
        }
      ],
      "name": "setApprovalForAll",
      "outputs": [],
      "stateMutability": "nonpayable",
      "type": "function"
    },
    {
      "inputs": [
        {
          "internalType": "bytes4",
          "name": "interfaceId",
          "type": "bytes4"
        }
      ],
      "name": "supportsInterface",
      "outputs": [
        {
          "internalType": "bool",
          "name": "",
          "type": "bool"
        }
      ],
      "stateMutability": "view",
      "type": "function",
      "constant": true
    },
    {
      "inputs": [
        {
          "internalType": "uint256",
          "name": "tokenId",
          "type": "uint256"
        }
      ],
      "name": "uri",
      "outputs": [
        {
          "internalType": "string",
          "name": "",
          "type": "string"
        }
      ],
      "stateMutability": "view",
      "type": "function",
      "constant": true
    },
    {
      "inputs": [
        {
          "internalType": "uint256",
          "name": "tokenId",
          "type": "uint256"
        },
        {
          "internalType": "string",
          "name": "tokenUri",
          "type": "string"
        }
      ],
      "name": "setTokenUri",
      "outputs": [],
      "stateMutability": "nonpayable",
      "type": "function"
    },
    {
      "inputs": [
        {
          "internalType": "string",
          "name": "tokenUri",
          "type": "string"
        }
      ],
      "name": "mintEvent",
      "outputs": [],
      "stateMutability": "nonpayable",
      "type": "function"
    },
    {
      "inputs": [
        {
          "internalType": "string",
          "name": "tokenUri",
          "type": "string"
        },
        {
          "internalType": "uint256",
          "name": "eventTokenId",
          "type": "uint256"
        },
        {
          "internalType": "uint256",
          "name": "quantity",
          "type": "uint256"
        },
        {
          "internalType": "uint256",
          "name": "price",
          "type": "uint256"
        }
      ],
      "name": "mintTicket",
      "outputs": [],
      "stateMutability": "nonpayable",
      "type": "function"
    },
    {
      "inputs": [
        {
          "internalType": "uint256",
          "name": "tokenId",
          "type": "uint256"
        },
        {
          "internalType": "uint256",
          "name": "price",
          "type": "uint256"
        }
      ],
      "name": "createMarketItem",
      "outputs": [],
      "stateMutability": "payable",
      "type": "function",
      "payable": true
    },
    {
      "inputs": [
        {
          "internalType": "uint256",
          "name": "itemId",
          "type": "uint256"
        }
      ],
      "name": "cancelListing",
      "outputs": [],
      "stateMutability": "payable",
      "type": "function",
      "payable": true
    },
    {
      "inputs": [
        {
          "internalType": "uint256",
          "name": "itemId",
          "type": "uint256"
        }
      ],
      "name": "buyMarketItem",
      "outputs": [],
      "stateMutability": "payable",
      "type": "function",
      "payable": true
    },
    {
      "inputs": [
        {
          "internalType": "uint256",
          "name": "tokenId",
          "type": "uint256"
        }
      ],
      "name": "fetchMarketItem",
      "outputs": [
        {
          "components": [
            {
              "internalType": "uint256",
              "name": "itemId",
              "type": "uint256"
            },
            {
              "internalType": "uint256",
              "name": "tokenId",
              "type": "uint256"
            },
            {
              "internalType": "address payable",
              "name": "seller",
              "type": "address"
            },
            {
              "internalType": "address payable",
              "name": "owner",
              "type": "address"
            },
            {
              "internalType": "uint256",
              "name": "price",
              "type": "uint256"
            },
            {
              "internalType": "bool",
              "name": "sold",
              "type": "bool"
            }
          ],
          "internalType": "struct Event.MarketItem",
          "name": "",
          "type": "tuple"
        }
      ],
      "stateMutability": "view",
      "type": "function",
      "constant": true
    },
    {
      "inputs": [],
      "name": "fetchMarketItems",
      "outputs": [
        {
          "components": [
            {
              "internalType": "uint256",
              "name": "itemId",
              "type": "uint256"
            },
            {
              "internalType": "uint256",
              "name": "tokenId",
              "type": "uint256"
            },
            {
              "internalType": "address payable",
              "name": "seller",
              "type": "address"
            },
            {
              "internalType": "address payable",
              "name": "owner",
              "type": "address"
            },
            {
              "internalType": "uint256",
              "name": "price",
              "type": "uint256"
            },
            {
              "internalType": "bool",
              "name": "sold",
              "type": "bool"
            }
          ],
          "internalType": "struct Event.MarketItem[]",
          "name": "",
          "type": "tuple[]"
        }
      ],
      "stateMutability": "view",
      "type": "function",
      "constant": true
    },
    {
      "inputs": [
        {
          "internalType": "address",
          "name": "account",
          "type": "address"
        }
      ],
      "name": "fetchCreatedEvents",
      "outputs": [
        {
          "components": [
            {
              "internalType": "uint256",
              "name": "tokenId",
              "type": "uint256"
            },
            {
              "internalType": "address payable",
              "name": "owner",
              "type": "address"
            }
          ],
          "internalType": "struct Event.EventItem[]",
          "name": "",
          "type": "tuple[]"
        }
      ],
      "stateMutability": "view",
      "type": "function",
      "constant": true
    },
    {
      "inputs": [
        {
          "internalType": "address",
          "name": "account",
          "type": "address"
        }
      ],
      "name": "fetchOwnedEvents",
      "outputs": [
        {
          "components": [
            {
              "internalType": "uint256",
              "name": "tokenId",
              "type": "uint256"
            },
            {
              "internalType": "address payable",
              "name": "owner",
              "type": "address"
            }
          ],
          "internalType": "struct Event.EventItem[]",
          "name": "",
          "type": "tuple[]"
        }
      ],
      "stateMutability": "view",
      "type": "function",
      "constant": true
    },
    {
      "inputs": [
        {
          "internalType": "address",
          "name": "account",
          "type": "address"
        }
      ],
      "name": "fetchCreatedTickets",
      "outputs": [
        {
          "components": [
            {
              "internalType": "uint256",
              "name": "tokenId",
              "type": "uint256"
            }
          ],
          "internalType": "struct Event.Item[]",
          "name": "",
          "type": "tuple[]"
        }
      ],
      "stateMutability": "view",
      "type": "function",
      "constant": true
    },
    {
      "inputs": [
        {
          "internalType": "address",
          "name": "account",
          "type": "address"
        },
        {
          "internalType": "bool",
          "name": "isCreator",
          "type": "bool"
        }
      ],
      "name": "fetchOwnedTickets",
      "outputs": [
        {
          "components": [
            {
              "internalType": "uint256",
              "name": "tokenId",
              "type": "uint256"
            },
            {
              "internalType": "uint256",
              "name": "eventTokenId",
              "type": "uint256"
            },
            {
              "internalType": "address payable",
              "name": "owner",
              "type": "address"
            },
            {
              "internalType": "uint256",
              "name": "price",
              "type": "uint256"
            },
            {
              "internalType": "bool",
              "name": "list",
              "type": "bool"
            },
            {
              "internalType": "bool",
              "name": "active",
              "type": "bool"
            }
          ],
          "internalType": "struct Event.TicketItem[]",
          "name": "",
          "type": "tuple[]"
        }
      ],
      "stateMutability": "view",
      "type": "function",
      "constant": true
    },
    {
      "inputs": [
        {
          "internalType": "uint256",
          "name": "eventTokenId",
          "type": "uint256"
        }
      ],
      "name": "fetchTicketsInEvent",
      "outputs": [
        {
          "components": [
            {
              "internalType": "uint256",
              "name": "tokenId",
              "type": "uint256"
            }
          ],
          "internalType": "struct Event.Item[]",
          "name": "",
          "type": "tuple[]"
        }
      ],
      "stateMutability": "view",
      "type": "function",
      "constant": true
    },
    {
      "inputs": [
        {
          "internalType": "uint256",
          "name": "tokenId",
          "type": "uint256"
        }
      ],
      "name": "fetchEvent",
      "outputs": [
        {
          "components": [
            {
              "internalType": "uint256",
              "name": "tokenId",
              "type": "uint256"
            },
            {
              "internalType": "address payable",
              "name": "owner",
              "type": "address"
            }
          ],
          "internalType": "struct Event.EventItem",
          "name": "",
          "type": "tuple"
        }
      ],
      "stateMutability": "view",
      "type": "function",
      "constant": true
    },
    {
      "inputs": [
        {
          "internalType": "uint256",
          "name": "tokenId",
          "type": "uint256"
        }
      ],
      "name": "fetchTicket",
      "outputs": [
        {
          "components": [
            {
              "internalType": "uint256",
              "name": "tokenId",
              "type": "uint256"
            },
            {
              "internalType": "uint256",
              "name": "eventTokenId",
              "type": "uint256"
            },
            {
              "internalType": "address payable",
              "name": "owner",
              "type": "address"
            },
            {
              "internalType": "uint256",
              "name": "price",
              "type": "uint256"
            },
            {
              "internalType": "bool",
              "name": "list",
              "type": "bool"
            },
            {
              "internalType": "bool",
              "name": "active",
              "type": "bool"
            }
          ],
          "internalType": "struct Event.TicketItem",
          "name": "",
          "type": "tuple"
        }
      ],
      "stateMutability": "view",
      "type": "function",
      "constant": true
    },
    {
      "inputs": [
        {
          "internalType": "address",
          "name": "",
          "type": "address"
        },
        {
          "internalType": "address",
          "name": "",
          "type": "address"
        },
        {
          "internalType": "uint256",
          "name": "",
          "type": "uint256"
        },
        {
          "internalType": "uint256",
          "name": "",
          "type": "uint256"
        },
        {
          "internalType": "bytes",
          "name": "",
          "type": "bytes"
        }
      ],
      "name": "onERC1155Received",
      "outputs": [
        {
          "internalType": "bytes4",
          "name": "",
          "type": "bytes4"
        }
      ],
      "stateMutability": "nonpayable",
      "type": "function"
    },
    {
      "inputs": [
        {
          "internalType": "address",
          "name": "",
          "type": "address"
        },
        {
          "internalType": "address",
          "name": "",
          "type": "address"
        },
        {
          "internalType": "uint256[]",
          "name": "",
          "type": "uint256[]"
        },
        {
          "internalType": "uint256[]",
          "name": "",
          "type": "uint256[]"
        },
        {
          "internalType": "bytes",
          "name": "",
          "type": "bytes"
        }
      ],
      "name": "onERC1155BatchReceived",
      "outputs": [
        {
          "internalType": "bytes4",
          "name": "",
          "type": "bytes4"
        }
      ],
      "stateMutability": "nonpayable",
      "type": "function"
    },
    {
      "inputs": [
        {
          "internalType": "address",
          "name": "",
          "type": "address"
        },
        {
          "internalType": "address",
          "name": "",
          "type": "address"
        },
        {
          "internalType": "uint256",
          "name": "",
          "type": "uint256"
        },
        {
          "internalType": "bytes",
          "name": "",
          "type": "bytes"
        }
      ],
      "name": "onERC721Received",
      "outputs": [
        {
          "internalType": "bytes4",
          "name": "",
          "type": "bytes4"
        }
      ],
      "stateMutability": "nonpayable",
      "type": "function"
    }
  ],
  "bytecode": "0x60806040523480156200001157600080fd5b506040518060200160405280600081525062000033816200007b60201b60201c565b5033600660006101000a81548173ffffffffffffffffffffffffffffffffffffffff021916908373ffffffffffffffffffffffffffffffffffffffff160217905550620001ac565b80600290805190602001906200009392919062000097565b5050565b828054620000a59062000176565b90600052602060002090601f016020900481019282620000c9576000855562000115565b82601f10620000e457805160ff191683800117855562000115565b8280016001018555821562000115579182015b8281111562000114578251825591602001919060010190620000f7565b5b50905062000124919062000128565b5090565b5b808211156200014357600081600090555060010162000129565b5090565b7f4e487b7100000000000000000000000000000000000000000000000000000000600052602260045260246000fd5b600060028204905060018216806200018f57607f821691505b60208210811415620001a657620001a562000147565b5b50919050565b6155f880620001bc6000396000f3fe6080604052600436106101805760003560e01c80635105d526116100d1578063bc197c811161008a578063f23a6e6111610064578063f23a6e61146105ea578063f242432a14610627578063f6b92b2314610650578063f9d5c5051461068d57610180565b8063bc197c8114610533578063d94646b214610570578063e985e9c5146105ad57610180565b80635105d5261461041557806357f7789e146104525780638c8b5fd61461047b57806397dada91146104b85780639be0b935146104e1578063a22cb4651461050a57610180565b80632a45b2501161013e57806331d909701161011857806331d9097014610363578063351901c3146103a0578063361c1995146103bc5780634e1273f4146103d857610180565b80632a45b250146102e15780632eb2c2d61461031e578063305a67a81461034757610180565b8062fdd58e1461018557806301ffc9a7146101c25780630e89341c146101ff5780630f08efe01461023c578063150b7a021461026757806327a2cf39146102a4575b600080fd5b34801561019157600080fd5b506101ac60048036038101906101a79190613854565b6106ca565b6040516101b991906138a3565b60405180910390f35b3480156101ce57600080fd5b506101e960048036038101906101e49190613916565b610793565b6040516101f6919061395e565b60405180910390f35b34801561020b57600080fd5b5061022660048036038101906102219190613979565b610875565b6040516102339190613a3f565b60405180910390f35b34801561024857600080fd5b5061025161091a565b60405161025e9190613bca565b60405180910390f35b34801561027357600080fd5b5061028e60048036038101906102899190613d21565b610b4b565b60405161029b9190613db3565b60405180910390f35b3480156102b057600080fd5b506102cb60048036038101906102c69190613dce565b610b5f565b6040516102d89190613ed9565b60405180910390f35b3480156102ed57600080fd5b5061030860048036038101906103039190613979565b610dce565b6040516103159190613f76565b60405180910390f35b34801561032a57600080fd5b5061034560048036038101906103409190614059565b610f57565b005b610361600480360381019061035c9190613979565b610ff8565b005b34801561036f57600080fd5b5061038a60048036038101906103859190613dce565b6111b3565b6040516103979190613ed9565b60405180910390f35b6103ba60048036038101906103b59190613979565b6112b7565b005b6103d660048036038101906103d19190614128565b6114f0565b005b3480156103e457600080fd5b506103ff60048036038101906103fa919061422b565b611799565b60405161040c9190614352565b60405180910390f35b34801561042157600080fd5b5061043c60048036038101906104379190613979565b6118b2565b60405161044991906143ef565b60405180910390f35b34801561045e57600080fd5b50610479600480360381019061047491906144ab565b61198f565b005b34801561048757600080fd5b506104a2600480360381019061049d9190613979565b6119bb565b6040516104af9190614536565b60405180910390f35b3480156104c457600080fd5b506104df60048036038101906104da9190614551565b611a4e565b005b3480156104ed57600080fd5b50610508600480360381019061050391906145d4565b611c13565b005b34801561051657600080fd5b50610531600480360381019061052c9190614649565b611dd5565b005b34801561053f57600080fd5b5061055a60048036038101906105559190614059565b611deb565b6040516105679190613db3565b60405180910390f35b34801561057c57600080fd5b5061059760048036038101906105929190614649565b611e00565b6040516105a491906147b3565b60405180910390f35b3480156105b957600080fd5b506105d460048036038101906105cf91906147d5565b612434565b6040516105e1919061395e565b60405180910390f35b3480156105f657600080fd5b50610611600480360381019061060c9190614815565b6124c8565b60405161061e9190613db3565b60405180910390f35b34801561063357600080fd5b5061064e60048036038101906106499190614815565b6124dd565b005b34801561065c57600080fd5b5061067760048036038101906106729190613dce565b61257e565b6040516106849190614977565b60405180910390f35b34801561069957600080fd5b506106b460048036038101906106af9190613979565b612820565b6040516106c19190614977565b60405180910390f35b60008073ffffffffffffffffffffffffffffffffffffffff168373ffffffffffffffffffffffffffffffffffffffff16141561073b576040517f08c379a000000000000000000000000000000000000000000000000000000000815260040161073290614a0b565b60405180910390fd5b60008083815260200190815260200160002060008473ffffffffffffffffffffffffffffffffffffffff1673ffffffffffffffffffffffffffffffffffffffff16815260200190815260200160002054905092915050565b60007fd9b67a26000000000000000000000000000000000000000000000000000000007bffffffffffffffffffffffffffffffffffffffffffffffffffffffff1916827bffffffffffffffffffffffffffffffffffffffffffffffffffffffff1916148061085e57507f0e89341c000000000000000000000000000000000000000000000000000000007bffffffffffffffffffffffffffffffffffffffffffffffffffffffff1916827bffffffffffffffffffffffffffffffffffffffffffffffffffffffff1916145b8061086e575061086d8261289e565b5b9050919050565b606060076000838152602001908152602001600020805461089590614a5a565b80601f01602080910402602001604051908101604052809291908181526020018280546108c190614a5a565b801561090e5780601f106108e35761010080835404028352916020019161090e565b820191906000526020600020905b8154815290600101906020018083116108f157829003601f168201915b50505050509050919050565b606060006109286004612908565b905060006109366005612908565b6109406004612908565b61094a9190614abb565b90506000808267ffffffffffffffff81111561096957610968613bf6565b5b6040519080825280602002602001820160405280156109a257816020015b61098f613612565b8152602001906001900390816109875790505b50905060005b84811015610b4057600b60006001836109c19190614aef565b815260200190815260200160002060050160009054906101000a900460ff16610b2d5760006001826109f39190614aef565b90506000600b60008381526020019081526020016000209050806040518060c001604052908160008201548152602001600182015481526020016002820160009054906101000a900473ffffffffffffffffffffffffffffffffffffffff1673ffffffffffffffffffffffffffffffffffffffff1673ffffffffffffffffffffffffffffffffffffffff1681526020016003820160009054906101000a900473ffffffffffffffffffffffffffffffffffffffff1673ffffffffffffffffffffffffffffffffffffffff1673ffffffffffffffffffffffffffffffffffffffff168152602001600482015481526020016005820160009054906101000a900460ff161515151581525050848681518110610b1057610b0f614b45565b5b6020026020010181905250600185610b289190614aef565b945050505b8080610b3890614b74565b9150506109a8565b508094505050505090565b600063150b7a0260e01b9050949350505050565b60606000610b6d6003612908565b905060008060005b83811015610c16578573ffffffffffffffffffffffffffffffffffffffff1660086000600184610ba59190614aef565b815260200190815260200160002060010160009054906101000a900473ffffffffffffffffffffffffffffffffffffffff1673ffffffffffffffffffffffffffffffffffffffff161415610c0357600183610c009190614aef565b92505b8080610c0e90614b74565b915050610b75565b5060008267ffffffffffffffff811115610c3357610c32613bf6565b5b604051908082528060200260200182016040528015610c6c57816020015b610c59613676565b815260200190600190039081610c515790505b50905060005b84811015610dc1578673ffffffffffffffffffffffffffffffffffffffff1660086000600184610ca29190614aef565b815260200190815260200160002060010160009054906101000a900473ffffffffffffffffffffffffffffffffffffffff1673ffffffffffffffffffffffffffffffffffffffff161415610dae57600060086000600184610d039190614aef565b8152602001908152602001600020905080604051806040016040529081600082015481526020016001820160009054906101000a900473ffffffffffffffffffffffffffffffffffffffff1673ffffffffffffffffffffffffffffffffffffffff1673ffffffffffffffffffffffffffffffffffffffff1681525050838581518110610d9257610d91614b45565b5b6020026020010181905250600184610daa9190614aef565b9350505b8080610db990614b74565b915050610c72565b5080945050505050919050565b610dd6613612565b6000610de26004612908565b9050610dec613612565b60005b82811015610f4c5784600b6000600184610e099190614aef565b8152602001908152602001600020600101541415610f39576000600182610e309190614aef565b9050600b60008281526020019081526020016000206040518060c001604052908160008201548152602001600182015481526020016002820160009054906101000a900473ffffffffffffffffffffffffffffffffffffffff1673ffffffffffffffffffffffffffffffffffffffff1673ffffffffffffffffffffffffffffffffffffffff1681526020016003820160009054906101000a900473ffffffffffffffffffffffffffffffffffffffff1673ffffffffffffffffffffffffffffffffffffffff1673ffffffffffffffffffffffffffffffffffffffff168152602001600482015481526020016005820160009054906101000a900460ff1615151515815250509250505b8080610f4490614b74565b915050610def565b508092505050919050565b610f5f612916565b73ffffffffffffffffffffffffffffffffffffffff168573ffffffffffffffffffffffffffffffffffffffff161480610fa55750610fa485610f9f612916565b612434565b5b610fe4576040517f08c379a0000000000000000000000000000000000000000000000000000000008152600401610fdb90614c2f565b60405180910390fd5b610ff1858585858561291e565b5050505050565b600b600082815260200190815260200160002060030160009054906101000a900473ffffffffffffffffffffffffffffffffffffffff1673ffffffffffffffffffffffffffffffffffffffff163373ffffffffffffffffffffffffffffffffffffffff161461109c576040517f08c379a000000000000000000000000000000000000000000000000000000000815260040161109390614cc1565b60405180910390fd5b6000600b60008381526020019081526020016000206001015490506000600960008381526020019081526020016000206003018190555060006009600083815260200190815260200160002060040160006101000a81548160ff021916908315150217905550600b600083815260200190815260200160002060008082016000905560018201600090556002820160006101000a81549073ffffffffffffffffffffffffffffffffffffffff02191690556003820160006101000a81549073ffffffffffffffffffffffffffffffffffffffff021916905560048201600090556005820160006101000a81549060ff021916905550506111af303383600160405180602001604052806000815250612c32565b5050565b60606000600c60008473ffffffffffffffffffffffffffffffffffffffff1673ffffffffffffffffffffffffffffffffffffffff168152602001908152602001600020805480602002602001604051908101604052809291908181526020016000905b828210156112a85783829060005260206000209060020201604051806040016040529081600082015481526020016001820160009054906101000a900473ffffffffffffffffffffffffffffffffffffffff1673ffffffffffffffffffffffffffffffffffffffff1673ffffffffffffffffffffffffffffffffffffffff168152505081526020019060010190611216565b50505050905080915050919050565b6000600b60008381526020019081526020016000206004015490506000600b60008481526020019081526020016000206001015490506402540be400826112fe9190614ce1565b341461133f576040517f08c379a000000000000000000000000000000000000000000000000000000000815260040161133690614d87565b60405180910390fd5b600b600084815260200190815260200160002060020160009054906101000a900473ffffffffffffffffffffffffffffffffffffffff1673ffffffffffffffffffffffffffffffffffffffff166108fc349081150290604051600060405180830381858888f193505050501580156113bb573d6000803e3d6000fd5b5033600b600085815260200190815260200160002060030160006101000a81548173ffffffffffffffffffffffffffffffffffffffff021916908373ffffffffffffffffffffffffffffffffffffffff1602179055506001600b600085815260200190815260200160002060050160006101000a81548160ff021916908315150217905550336009600083815260200190815260200160002060020160006101000a81548173ffffffffffffffffffffffffffffffffffffffff021916908373ffffffffffffffffffffffffffffffffffffffff16021790555060006009600083815260200190815260200160002060040160006101000a81548160ff0219169083151502179055506114ce6005612eb4565b6114eb303383600160405180602001604052806000815250612c32565b505050565b6009600083815260200190815260200160002060020160009054906101000a900473ffffffffffffffffffffffffffffffffffffffff1673ffffffffffffffffffffffffffffffffffffffff163373ffffffffffffffffffffffffffffffffffffffff1614611594576040517f08c379a000000000000000000000000000000000000000000000000000000000815260040161158b90614cc1565b60405180910390fd5b600081116115d7576040517f08c379a00000000000000000000000000000000000000000000000000000000081526004016115ce90614df3565b60405180910390fd5b6115e16004612eb4565b60006115ed6004612908565b90506040518060c001604052808281526020018481526020013373ffffffffffffffffffffffffffffffffffffffff1681526020013373ffffffffffffffffffffffffffffffffffffffff16815260200183815260200160001515815250600b6000838152602001908152602001600020600082015181600001556020820151816001015560408201518160020160006101000a81548173ffffffffffffffffffffffffffffffffffffffff021916908373ffffffffffffffffffffffffffffffffffffffff16021790555060608201518160030160006101000a81548173ffffffffffffffffffffffffffffffffffffffff021916908373ffffffffffffffffffffffffffffffffffffffff1602179055506080820151816004015560a08201518160050160006101000a81548160ff02191690831515021790555090505081600960008581526020019081526020016000206003018190555060016009600085815260200190815260200160002060040160006101000a81548160ff0219169083151502179055506117943330856001604051806020016040528060008152506124dd565b505050565b606081518351146117df576040517f08c379a00000000000000000000000000000000000000000000000000000000081526004016117d690614e85565b60405180910390fd5b6000835167ffffffffffffffff8111156117fc576117fb613bf6565b5b60405190808252806020026020018201604052801561182a5781602001602082028036833780820191505090505b50905060005b84518110156118a75761187785828151811061184f5761184e614b45565b5b602002602001015185838151811061186a57611869614b45565b5b60200260200101516106ca565b82828151811061188a57611889614b45565b5b602002602001018181525050806118a090614b74565b9050611830565b508091505092915050565b6118ba6136a6565b6000600960008481526020019081526020016000206040518060c001604052908160008201548152602001600182015481526020016002820160009054906101000a900473ffffffffffffffffffffffffffffffffffffffff1673ffffffffffffffffffffffffffffffffffffffff1673ffffffffffffffffffffffffffffffffffffffff168152602001600382015481526020016004820160009054906101000a900460ff161515151581526020016004820160019054906101000a900460ff161515151581525050905080915050919050565b806007600084815260200190815260200160002090805190602001906119b69291906136f6565b505050565b6119c3613676565b600060086000848152602001908152602001600020604051806040016040529081600082015481526020016001820160009054906101000a900473ffffffffffffffffffffffffffffffffffffffff1673ffffffffffffffffffffffffffffffffffffffff1673ffffffffffffffffffffffffffffffffffffffff1681525050905080915050919050565b60005b82811015611c0c57611a636003612eb4565b6000611a6f6003612908565b9050611a8d3382600160405180602001604052806000815250612eca565b611a97818761198f565b6040518060c001604052808281526020018681526020013373ffffffffffffffffffffffffffffffffffffffff1681526020018481526020016000151581526020016001151581525060096000838152602001908152602001600020600082015181600001556020820151816001015560408201518160020160006101000a81548173ffffffffffffffffffffffffffffffffffffffff021916908373ffffffffffffffffffffffffffffffffffffffff1602179055506060820151816003015560808201518160040160006101000a81548160ff02191690831515021790555060a08201518160040160016101000a81548160ff021916908315150217905550905050600a600086815260200190815260200160002060405180602001604052808381525090806001815401808255809150506001900390600052602060002001600090919091909150600082015181600001555050611bf881846114f0565b508080611c0490614b74565b915050611a51565b5050505050565b611c1d6003612eb4565b6000611c296003612908565b9050611c473382600160405180602001604052806000815250612eca565b611c51818361198f565b60405180604001604052808281526020013373ffffffffffffffffffffffffffffffffffffffff16815250600860008381526020019081526020016000206000820151816000015560208201518160010160006101000a81548173ffffffffffffffffffffffffffffffffffffffff021916908373ffffffffffffffffffffffffffffffffffffffff160217905550905050600c60003373ffffffffffffffffffffffffffffffffffffffff1673ffffffffffffffffffffffffffffffffffffffff168152602001908152602001600020600860008381526020019081526020016000209080600181540180825580915050600190039060005260206000209060020201600090919091909150600082015481600001556001820160009054906101000a900473ffffffffffffffffffffffffffffffffffffffff168160010160006101000a81548173ffffffffffffffffffffffffffffffffffffffff021916908373ffffffffffffffffffffffffffffffffffffffff16021790555050505050565b611de7611de0612916565b8383613060565b5050565b600063bc197c8160e01b905095945050505050565b60606000611e0e6003612908565b90506000808415611ec35760005b83811015611ebd578673ffffffffffffffffffffffffffffffffffffffff1660096000600184611e4c9190614aef565b815260200190815260200160002060020160009054906101000a900473ffffffffffffffffffffffffffffffffffffffff1673ffffffffffffffffffffffffffffffffffffffff161415611eaa57600183611ea79190614aef565b92505b8080611eb590614b74565b915050611e1c565b50611ff9565b60005b83811015611ff7578673ffffffffffffffffffffffffffffffffffffffff166008600060096000600186611efa9190614aef565b815260200190815260200160002060010154815260200190815260200160002060010160009054906101000a900473ffffffffffffffffffffffffffffffffffffffff1673ffffffffffffffffffffffffffffffffffffffff1614158015611fcf57508673ffffffffffffffffffffffffffffffffffffffff1660096000600184611f859190614aef565b815260200190815260200160002060020160009054906101000a900473ffffffffffffffffffffffffffffffffffffffff1673ffffffffffffffffffffffffffffffffffffffff16145b15611fe457600183611fe19190614aef565b92505b8080611fef90614b74565b915050611ec6565b505b60008267ffffffffffffffff81111561201557612014613bf6565b5b60405190808252806020026020018201604052801561204e57816020015b61203b6136a6565b8152602001906001900390816120335790505b50905085156121f95760005b848110156121f3578773ffffffffffffffffffffffffffffffffffffffff166009600060018461208a9190614aef565b815260200190815260200160002060020160009054906101000a900473ffffffffffffffffffffffffffffffffffffffff1673ffffffffffffffffffffffffffffffffffffffff1614156121e0576000600960006001846120eb9190614aef565b81526020019081526020016000209050806040518060c001604052908160008201548152602001600182015481526020016002820160009054906101000a900473ffffffffffffffffffffffffffffffffffffffff1673ffffffffffffffffffffffffffffffffffffffff1673ffffffffffffffffffffffffffffffffffffffff168152602001600382015481526020016004820160009054906101000a900460ff161515151581526020016004820160019054906101000a900460ff1615151515815250508385815181106121c4576121c3614b45565b5b60200260200101819052506001846121dc9190614aef565b9350505b80806121eb90614b74565b91505061205a565b50612427565b60005b84811015612425578773ffffffffffffffffffffffffffffffffffffffff1660086000600960006001866122309190614aef565b815260200190815260200160002060010154815260200190815260200160002060010160009054906101000a900473ffffffffffffffffffffffffffffffffffffffff1673ffffffffffffffffffffffffffffffffffffffff161415801561230557508773ffffffffffffffffffffffffffffffffffffffff16600960006001846122bb9190614aef565b815260200190815260200160002060020160009054906101000a900473ffffffffffffffffffffffffffffffffffffffff1673ffffffffffffffffffffffffffffffffffffffff16145b156124125760006009600060018461231d9190614aef565b81526020019081526020016000209050806040518060c001604052908160008201548152602001600182015481526020016002820160009054906101000a900473ffffffffffffffffffffffffffffffffffffffff1673ffffffffffffffffffffffffffffffffffffffff1673ffffffffffffffffffffffffffffffffffffffff168152602001600382015481526020016004820160009054906101000a900460ff161515151581526020016004820160019054906101000a900460ff1615151515815250508385815181106123f6576123f5614b45565b5b602002602001018190525060018461240e9190614aef565b9350505b808061241d90614b74565b9150506121fc565b505b8094505050505092915050565b6000600160008473ffffffffffffffffffffffffffffffffffffffff1673ffffffffffffffffffffffffffffffffffffffff16815260200190815260200160002060008373ffffffffffffffffffffffffffffffffffffffff1673ffffffffffffffffffffffffffffffffffffffff16815260200190815260200160002060009054906101000a900460ff16905092915050565b600063f23a6e6160e01b905095945050505050565b6124e5612916565b73ffffffffffffffffffffffffffffffffffffffff168573ffffffffffffffffffffffffffffffffffffffff16148061252b575061252a85612525612916565b612434565b5b61256a576040517f08c379a000000000000000000000000000000000000000000000000000000000815260040161256190614f17565b60405180910390fd5b6125778585858585612c32565b5050505050565b60606000806000600c60008673ffffffffffffffffffffffffffffffffffffffff1673ffffffffffffffffffffffffffffffffffffffff168152602001908152602001600020805480602002602001604051908101604052809291908181526020016000905b828210156126765783829060005260206000209060020201604051806040016040529081600082015481526020016001820160009054906101000a900473ffffffffffffffffffffffffffffffffffffffff1673ffffffffffffffffffffffffffffffffffffffff1673ffffffffffffffffffffffffffffffffffffffff1681525050815260200190600101906125e4565b50505050905060005b81518110156126e3576000600a60008484815181106126a1576126a0614b45565b5b602002602001015160000151815260200190815260200160002080549050905080856126cd9190614aef565b94505080806126db90614b74565b91505061267f565b5060008367ffffffffffffffff811115612700576126ff613bf6565b5b60405190808252806020026020018201604052801561273957816020015b61272661377c565b81526020019060019003908161271e5790505b50905060005b8251811015612813576000600a600085848151811061276157612760614b45565b5b6020026020010151600001518152602001908152602001600020905060005b81805490508110156127fe5781818154811061279f5761279e614b45565b5b906000526020600020016040518060200160405290816000820154815250508487815181106127d1576127d0614b45565b5b60200260200101819052506001866127e99190614aef565b955080806127f690614b74565b915050612780565b5050808061280b90614b74565b91505061273f565b5080945050505050919050565b60606000600a6000848152602001908152602001600020805480602002602001604051908101604052809291908181526020016000905b8282101561288f5783829060005260206000200160405180602001604052908160008201548152505081526020019060010190612857565b50505050905080915050919050565b60007f01ffc9a7000000000000000000000000000000000000000000000000000000007bffffffffffffffffffffffffffffffffffffffffffffffffffffffff1916827bffffffffffffffffffffffffffffffffffffffffffffffffffffffff1916149050919050565b600081600001549050919050565b600033905090565b8151835114612962576040517f08c379a000000000000000000000000000000000000000000000000000000000815260040161295990614fa9565b60405180910390fd5b600073ffffffffffffffffffffffffffffffffffffffff168473ffffffffffffffffffffffffffffffffffffffff1614156129d2576040517f08c379a00000000000000000000000000000000000000000000000000000000081526004016129c99061503b565b60405180910390fd5b60006129dc612916565b90506129ec8187878787876131cd565b60005b8451811015612b9d576000858281518110612a0d57612a0c614b45565b5b602002602001015190506000858381518110612a2c57612a2b614b45565b5b60200260200101519050600080600084815260200190815260200160002060008b73ffffffffffffffffffffffffffffffffffffffff1673ffffffffffffffffffffffffffffffffffffffff16815260200190815260200160002054905081811015612acd576040517f08c379a0000000000000000000000000000000000000000000000000000000008152600401612ac4906150cd565b60405180910390fd5b81810360008085815260200190815260200160002060008c73ffffffffffffffffffffffffffffffffffffffff1673ffffffffffffffffffffffffffffffffffffffff168152602001908152602001600020819055508160008085815260200190815260200160002060008b73ffffffffffffffffffffffffffffffffffffffff1673ffffffffffffffffffffffffffffffffffffffff1681526020019081526020016000206000828254612b829190614aef565b9250508190555050505080612b9690614b74565b90506129ef565b508473ffffffffffffffffffffffffffffffffffffffff168673ffffffffffffffffffffffffffffffffffffffff168273ffffffffffffffffffffffffffffffffffffffff167f4a39dc06d4c0dbc64b70af90fd698a233a518aa5d07e595d983b8c0526c8f7fb8787604051612c149291906150ed565b60405180910390a4612c2a8187878787876131d5565b505050505050565b600073ffffffffffffffffffffffffffffffffffffffff168473ffffffffffffffffffffffffffffffffffffffff161415612ca2576040517f08c379a0000000000000000000000000000000000000000000000000000000008152600401612c999061503b565b60405180910390fd5b6000612cac612916565b9050612ccc818787612cbd886133ad565b612cc6886133ad565b876131cd565b600080600086815260200190815260200160002060008873ffffffffffffffffffffffffffffffffffffffff1673ffffffffffffffffffffffffffffffffffffffff16815260200190815260200160002054905083811015612d63576040517f08c379a0000000000000000000000000000000000000000000000000000000008152600401612d5a906150cd565b60405180910390fd5b83810360008087815260200190815260200160002060008973ffffffffffffffffffffffffffffffffffffffff1673ffffffffffffffffffffffffffffffffffffffff168152602001908152602001600020819055508360008087815260200190815260200160002060008873ffffffffffffffffffffffffffffffffffffffff1673ffffffffffffffffffffffffffffffffffffffff1681526020019081526020016000206000828254612e189190614aef565b925050819055508573ffffffffffffffffffffffffffffffffffffffff168773ffffffffffffffffffffffffffffffffffffffff168373ffffffffffffffffffffffffffffffffffffffff167fc3d58168c5ae7397731d063d5bbf3d657854427343f4c083240f7aacaa2d0f628888604051612e95929190615124565b60405180910390a4612eab828888888888613427565b50505050505050565b6001816000016000828254019250508190555050565b600073ffffffffffffffffffffffffffffffffffffffff168473ffffffffffffffffffffffffffffffffffffffff161415612f3a576040517f08c379a0000000000000000000000000000000000000000000000000000000008152600401612f31906151bf565b60405180910390fd5b6000612f44612916565b9050612f6581600087612f56886133ad565b612f5f886133ad565b876131cd565b8260008086815260200190815260200160002060008773ffffffffffffffffffffffffffffffffffffffff1673ffffffffffffffffffffffffffffffffffffffff1681526020019081526020016000206000828254612fc49190614aef565b925050819055508473ffffffffffffffffffffffffffffffffffffffff16600073ffffffffffffffffffffffffffffffffffffffff168273ffffffffffffffffffffffffffffffffffffffff167fc3d58168c5ae7397731d063d5bbf3d657854427343f4c083240f7aacaa2d0f628787604051613042929190615124565b60405180910390a461305981600087878787613427565b5050505050565b8173ffffffffffffffffffffffffffffffffffffffff168373ffffffffffffffffffffffffffffffffffffffff1614156130cf576040517f08c379a00000000000000000000000000000000000000000000000000000000081526004016130c690615251565b60405180910390fd5b80600160008573ffffffffffffffffffffffffffffffffffffffff1673ffffffffffffffffffffffffffffffffffffffff16815260200190815260200160002060008473ffffffffffffffffffffffffffffffffffffffff1673ffffffffffffffffffffffffffffffffffffffff16815260200190815260200160002060006101000a81548160ff0219169083151502179055508173ffffffffffffffffffffffffffffffffffffffff168373ffffffffffffffffffffffffffffffffffffffff167f17307eab39ab6107e8899845ad3d59bd9653f200f220920489ca2b5937696c31836040516131c0919061395e565b60405180910390a3505050565b505050505050565b6131f48473ffffffffffffffffffffffffffffffffffffffff166135ff565b156133a5578373ffffffffffffffffffffffffffffffffffffffff1663bc197c8187878686866040518663ffffffff1660e01b815260040161323a9594939291906152d5565b6020604051808303816000875af192505050801561327657506040513d601f19601f820116820180604052508101906132739190615352565b60015b61331c5761328261538c565b806308c379a014156132df57506132976153ae565b806132a257506132e1565b806040517f08c379a00000000000000000000000000000000000000000000000000000000081526004016132d69190613a3f565b60405180910390fd5b505b6040517f08c379a0000000000000000000000000000000000000000000000000000000008152600401613313906154b6565b60405180910390fd5b63bc197c8160e01b7bffffffffffffffffffffffffffffffffffffffffffffffffffffffff1916817bffffffffffffffffffffffffffffffffffffffffffffffffffffffff1916146133a3576040517f08c379a000000000000000000000000000000000000000000000000000000000815260040161339a90615548565b60405180910390fd5b505b505050505050565b60606000600167ffffffffffffffff8111156133cc576133cb613bf6565b5b6040519080825280602002602001820160405280156133fa5781602001602082028036833780820191505090505b509050828160008151811061341257613411614b45565b5b60200260200101818152505080915050919050565b6134468473ffffffffffffffffffffffffffffffffffffffff166135ff565b156135f7578373ffffffffffffffffffffffffffffffffffffffff1663f23a6e6187878686866040518663ffffffff1660e01b815260040161348c959493929190615568565b6020604051808303816000875af19250505080156134c857506040513d601f19601f820116820180604052508101906134c59190615352565b60015b61356e576134d461538c565b806308c379a0141561353157506134e96153ae565b806134f45750613533565b806040517f08c379a00000000000000000000000000000000000000000000000000000000081526004016135289190613a3f565b60405180910390fd5b505b6040517f08c379a0000000000000000000000000000000000000000000000000000000008152600401613565906154b6565b60405180910390fd5b63f23a6e6160e01b7bffffffffffffffffffffffffffffffffffffffffffffffffffffffff1916817bffffffffffffffffffffffffffffffffffffffffffffffffffffffff1916146135f5576040517f08c379a00000000000000000000000000000000000000000000000000000000081526004016135ec90615548565b60405180910390fd5b505b505050505050565b600080823b905060008111915050919050565b6040518060c001604052806000815260200160008152602001600073ffffffffffffffffffffffffffffffffffffffff168152602001600073ffffffffffffffffffffffffffffffffffffffff168152602001600081526020016000151581525090565b604051806040016040528060008152602001600073ffffffffffffffffffffffffffffffffffffffff1681525090565b6040518060c001604052806000815260200160008152602001600073ffffffffffffffffffffffffffffffffffffffff168152602001600081526020016000151581526020016000151581525090565b82805461370290614a5a565b90600052602060002090601f016020900481019282613724576000855561376b565b82601f1061373d57805160ff191683800117855561376b565b8280016001018555821561376b579182015b8281111561376a57825182559160200191906001019061374f565b5b509050613778919061378f565b5090565b6040518060200160405280600081525090565b5b808211156137a8576000816000905550600101613790565b5090565b6000604051905090565b600080fd5b600080fd5b600073ffffffffffffffffffffffffffffffffffffffff82169050919050565b60006137eb826137c0565b9050919050565b6137fb816137e0565b811461380657600080fd5b50565b600081359050613818816137f2565b92915050565b6000819050919050565b6138318161381e565b811461383c57600080fd5b50565b60008135905061384e81613828565b92915050565b6000806040838503121561386b5761386a6137b6565b5b600061387985828601613809565b925050602061388a8582860161383f565b9150509250929050565b61389d8161381e565b82525050565b60006020820190506138b86000830184613894565b92915050565b60007fffffffff0000000000000000000000000000000000000000000000000000000082169050919050565b6138f3816138be565b81146138fe57600080fd5b50565b600081359050613910816138ea565b92915050565b60006020828403121561392c5761392b6137b6565b5b600061393a84828501613901565b91505092915050565b60008115159050919050565b61395881613943565b82525050565b6000602082019050613973600083018461394f565b92915050565b60006020828403121561398f5761398e6137b6565b5b600061399d8482850161383f565b91505092915050565b600081519050919050565b600082825260208201905092915050565b60005b838110156139e05780820151818401526020810190506139c5565b838111156139ef576000848401525b50505050565b6000601f19601f8301169050919050565b6000613a11826139a6565b613a1b81856139b1565b9350613a2b8185602086016139c2565b613a34816139f5565b840191505092915050565b60006020820190508181036000830152613a598184613a06565b905092915050565b600081519050919050565b600082825260208201905092915050565b6000819050602082019050919050565b613a968161381e565b82525050565b6000613aa7826137c0565b9050919050565b613ab781613a9c565b82525050565b613ac681613943565b82525050565b60c082016000820151613ae26000850182613a8d565b506020820151613af56020850182613a8d565b506040820151613b086040850182613aae565b506060820151613b1b6060850182613aae565b506080820151613b2e6080850182613a8d565b5060a0820151613b4160a0850182613abd565b50505050565b6000613b538383613acc565b60c08301905092915050565b6000602082019050919050565b6000613b7782613a61565b613b818185613a6c565b9350613b8c83613a7d565b8060005b83811015613bbd578151613ba48882613b47565b9750613baf83613b5f565b925050600181019050613b90565b5085935050505092915050565b60006020820190508181036000830152613be48184613b6c565b905092915050565b600080fd5b600080fd5b7f4e487b7100000000000000000000000000000000000000000000000000000000600052604160045260246000fd5b613c2e826139f5565b810181811067ffffffffffffffff82111715613c4d57613c4c613bf6565b5b80604052505050565b6000613c606137ac565b9050613c6c8282613c25565b919050565b600067ffffffffffffffff821115613c8c57613c8b613bf6565b5b613c95826139f5565b9050602081019050919050565b82818337600083830152505050565b6000613cc4613cbf84613c71565b613c56565b905082815260208101848484011115613ce057613cdf613bf1565b5b613ceb848285613ca2565b509392505050565b600082601f830112613d0857613d07613bec565b5b8135613d18848260208601613cb1565b91505092915050565b60008060008060808587031215613d3b57613d3a6137b6565b5b6000613d4987828801613809565b9450506020613d5a87828801613809565b9350506040613d6b8782880161383f565b925050606085013567ffffffffffffffff811115613d8c57613d8b6137bb565b5b613d9887828801613cf3565b91505092959194509250565b613dad816138be565b82525050565b6000602082019050613dc86000830184613da4565b92915050565b600060208284031215613de457613de36137b6565b5b6000613df284828501613809565b91505092915050565b600081519050919050565b600082825260208201905092915050565b6000819050602082019050919050565b604082016000820151613e3d6000850182613a8d565b506020820151613e506020850182613aae565b50505050565b6000613e628383613e27565b60408301905092915050565b6000602082019050919050565b6000613e8682613dfb565b613e908185613e06565b9350613e9b83613e17565b8060005b83811015613ecc578151613eb38882613e56565b9750613ebe83613e6e565b925050600181019050613e9f565b5085935050505092915050565b60006020820190508181036000830152613ef38184613e7b565b905092915050565b60c082016000820151613f116000850182613a8d565b506020820151613f246020850182613a8d565b506040820151613f376040850182613aae565b506060820151613f4a6060850182613aae565b506080820151613f5d6080850182613a8d565b5060a0820151613f7060a0850182613abd565b50505050565b600060c082019050613f8b6000830184613efb565b92915050565b600067ffffffffffffffff821115613fac57613fab613bf6565b5b602082029050602081019050919050565b600080fd5b6000613fd5613fd084613f91565b613c56565b90508083825260208201905060208402830185811115613ff857613ff7613fbd565b5b835b81811015614021578061400d888261383f565b845260208401935050602081019050613ffa565b5050509392505050565b600082601f8301126140405761403f613bec565b5b8135614050848260208601613fc2565b91505092915050565b600080600080600060a08688031215614075576140746137b6565b5b600061408388828901613809565b955050602061409488828901613809565b945050604086013567ffffffffffffffff8111156140b5576140b46137bb565b5b6140c18882890161402b565b935050606086013567ffffffffffffffff8111156140e2576140e16137bb565b5b6140ee8882890161402b565b925050608086013567ffffffffffffffff81111561410f5761410e6137bb565b5b61411b88828901613cf3565b9150509295509295909350565b6000806040838503121561413f5761413e6137b6565b5b600061414d8582860161383f565b925050602061415e8582860161383f565b9150509250929050565b600067ffffffffffffffff82111561418357614182613bf6565b5b602082029050602081019050919050565b60006141a76141a284614168565b613c56565b905080838252602082019050602084028301858111156141ca576141c9613fbd565b5b835b818110156141f357806141df8882613809565b8452602084019350506020810190506141cc565b5050509392505050565b600082601f83011261421257614211613bec565b5b8135614222848260208601614194565b91505092915050565b60008060408385031215614242576142416137b6565b5b600083013567ffffffffffffffff8111156142605761425f6137bb565b5b61426c858286016141fd565b925050602083013567ffffffffffffffff81111561428d5761428c6137bb565b5b6142998582860161402b565b9150509250929050565b600081519050919050565b600082825260208201905092915050565b6000819050602082019050919050565b60006142db8383613a8d565b60208301905092915050565b6000602082019050919050565b60006142ff826142a3565b61430981856142ae565b9350614314836142bf565b8060005b8381101561434557815161432c88826142cf565b9750614337836142e7565b925050600181019050614318565b5085935050505092915050565b6000602082019050818103600083015261436c81846142f4565b905092915050565b60c08201600082015161438a6000850182613a8d565b50602082015161439d6020850182613a8d565b5060408201516143b06040850182613aae565b5060608201516143c36060850182613a8d565b5060808201516143d66080850182613abd565b5060a08201516143e960a0850182613abd565b50505050565b600060c0820190506144046000830184614374565b92915050565b600067ffffffffffffffff82111561442557614424613bf6565b5b61442e826139f5565b9050602081019050919050565b600061444e6144498461440a565b613c56565b90508281526020810184848401111561446a57614469613bf1565b5b614475848285613ca2565b509392505050565b600082601f83011261449257614491613bec565b5b81356144a284826020860161443b565b91505092915050565b600080604083850312156144c2576144c16137b6565b5b60006144d08582860161383f565b925050602083013567ffffffffffffffff8111156144f1576144f06137bb565b5b6144fd8582860161447d565b9150509250929050565b60408201600082015161451d6000850182613a8d565b5060208201516145306020850182613aae565b50505050565b600060408201905061454b6000830184614507565b92915050565b6000806000806080858703121561456b5761456a6137b6565b5b600085013567ffffffffffffffff811115614589576145886137bb565b5b6145958782880161447d565b94505060206145a68782880161383f565b93505060406145b78782880161383f565b92505060606145c88782880161383f565b91505092959194509250565b6000602082840312156145ea576145e96137b6565b5b600082013567ffffffffffffffff811115614608576146076137bb565b5b6146148482850161447d565b91505092915050565b61462681613943565b811461463157600080fd5b50565b6000813590506146438161461d565b92915050565b600080604083850312156146605761465f6137b6565b5b600061466e85828601613809565b925050602061467f85828601614634565b9150509250929050565b600081519050919050565b600082825260208201905092915050565b6000819050602082019050919050565b60c0820160008201516146cb6000850182613a8d565b5060208201516146de6020850182613a8d565b5060408201516146f16040850182613aae565b5060608201516147046060850182613a8d565b5060808201516147176080850182613abd565b5060a082015161472a60a0850182613abd565b50505050565b600061473c83836146b5565b60c08301905092915050565b6000602082019050919050565b600061476082614689565b61476a8185614694565b9350614775836146a5565b8060005b838110156147a657815161478d8882614730565b975061479883614748565b925050600181019050614779565b5085935050505092915050565b600060208201905081810360008301526147cd8184614755565b905092915050565b600080604083850312156147ec576147eb6137b6565b5b60006147fa85828601613809565b925050602061480b85828601613809565b9150509250929050565b600080600080600060a08688031215614831576148306137b6565b5b600061483f88828901613809565b955050602061485088828901613809565b94505060406148618882890161383f565b93505060606148728882890161383f565b925050608086013567ffffffffffffffff811115614893576148926137bb565b5b61489f88828901613cf3565b9150509295509295909350565b600081519050919050565b600082825260208201905092915050565b6000819050602082019050919050565b6020820160008201516148ee6000850182613a8d565b50505050565b600061490083836148d8565b60208301905092915050565b6000602082019050919050565b6000614924826148ac565b61492e81856148b7565b9350614939836148c8565b8060005b8381101561496a57815161495188826148f4565b975061495c8361490c565b92505060018101905061493d565b5085935050505092915050565b600060208201905081810360008301526149918184614919565b905092915050565b7f455243313135353a2062616c616e636520717565727920666f7220746865207a60008201527f65726f2061646472657373000000000000000000000000000000000000000000602082015250565b60006149f5602b836139b1565b9150614a0082614999565b604082019050919050565b60006020820190508181036000830152614a24816149e8565b9050919050565b7f4e487b7100000000000000000000000000000000000000000000000000000000600052602260045260246000fd5b60006002820490506001821680614a7257607f821691505b60208210811415614a8657614a85614a2b565b5b50919050565b7f4e487b7100000000000000000000000000000000000000000000000000000000600052601160045260246000fd5b6000614ac68261381e565b9150614ad18361381e565b925082821015614ae457614ae3614a8c565b5b828203905092915050565b6000614afa8261381e565b9150614b058361381e565b9250827fffffffffffffffffffffffffffffffffffffffffffffffffffffffffffffffff03821115614b3a57614b39614a8c565b5b828201905092915050565b7f4e487b7100000000000000000000000000000000000000000000000000000000600052603260045260246000fd5b6000614b7f8261381e565b91507fffffffffffffffffffffffffffffffffffffffffffffffffffffffffffffffff821415614bb257614bb1614a8c565b5b600182019050919050565b7f455243313135353a207472616e736665722063616c6c6572206973206e6f742060008201527f6f776e6572206e6f7220617070726f7665640000000000000000000000000000602082015250565b6000614c196032836139b1565b9150614c2482614bbd565b604082019050919050565b60006020820190508181036000830152614c4881614c0c565b9050919050565b7f4f6e6c7920666f7220746865206f776e6572206f662074686973207469636b6560008201527f7421000000000000000000000000000000000000000000000000000000000000602082015250565b6000614cab6022836139b1565b9150614cb682614c4f565b604082019050919050565b60006020820190508181036000830152614cda81614c9e565b9050919050565b6000614cec8261381e565b9150614cf78361381e565b9250817fffffffffffffffffffffffffffffffffffffffffffffffffffffffffffffffff0483118215151615614d3057614d2f614a8c565b5b828202905092915050565b7f6d73672e76616c756520213d207072696365202a2a20646563696d616c730000600082015250565b6000614d71601e836139b1565b9150614d7c82614d3b565b602082019050919050565b60006020820190508181036000830152614da081614d64565b9050919050565b7f5072696365206d757374206265206174206c6561737420312077656900000000600082015250565b6000614ddd601c836139b1565b9150614de882614da7565b602082019050919050565b60006020820190508181036000830152614e0c81614dd0565b9050919050565b7f455243313135353a206163636f756e747320616e6420696473206c656e67746860008201527f206d69736d617463680000000000000000000000000000000000000000000000602082015250565b6000614e6f6029836139b1565b9150614e7a82614e13565b604082019050919050565b60006020820190508181036000830152614e9e81614e62565b9050919050565b7f455243313135353a2063616c6c6572206973206e6f74206f776e6572206e6f7260008201527f20617070726f7665640000000000000000000000000000000000000000000000602082015250565b6000614f016029836139b1565b9150614f0c82614ea5565b604082019050919050565b60006020820190508181036000830152614f3081614ef4565b9050919050565b7f455243313135353a2069647320616e6420616d6f756e7473206c656e6774682060008201527f6d69736d61746368000000000000000000000000000000000000000000000000602082015250565b6000614f936028836139b1565b9150614f9e82614f37565b604082019050919050565b60006020820190508181036000830152614fc281614f86565b9050919050565b7f455243313135353a207472616e7366657220746f20746865207a65726f20616460008201527f6472657373000000000000000000000000000000000000000000000000000000602082015250565b60006150256025836139b1565b915061503082614fc9565b604082019050919050565b6000602082019050818103600083015261505481615018565b9050919050565b7f455243313135353a20696e73756666696369656e742062616c616e636520666f60008201527f72207472616e7366657200000000000000000000000000000000000000000000602082015250565b60006150b7602a836139b1565b91506150c28261505b565b604082019050919050565b600060208201905081810360008301526150e6816150aa565b9050919050565b6000604082019050818103600083015261510781856142f4565b9050818103602083015261511b81846142f4565b90509392505050565b60006040820190506151396000830185613894565b6151466020830184613894565b9392505050565b7f455243313135353a206d696e7420746f20746865207a65726f2061646472657360008201527f7300000000000000000000000000000000000000000000000000000000000000602082015250565b60006151a96021836139b1565b91506151b48261514d565b604082019050919050565b600060208201905081810360008301526151d88161519c565b9050919050565b7f455243313135353a2073657474696e6720617070726f76616c2073746174757360008201527f20666f722073656c660000000000000000000000000000000000000000000000602082015250565b600061523b6029836139b1565b9150615246826151df565b604082019050919050565b6000602082019050818103600083015261526a8161522e565b9050919050565b61527a816137e0565b82525050565b600081519050919050565b600082825260208201905092915050565b60006152a782615280565b6152b1818561528b565b93506152c18185602086016139c2565b6152ca816139f5565b840191505092915050565b600060a0820190506152ea6000830188615271565b6152f76020830187615271565b818103604083015261530981866142f4565b9050818103606083015261531d81856142f4565b90508181036080830152615331818461529c565b90509695505050505050565b60008151905061534c816138ea565b92915050565b600060208284031215615368576153676137b6565b5b60006153768482850161533d565b91505092915050565b60008160e01c9050919050565b600060033d11156153ab5760046000803e6153a860005161537f565b90505b90565b600060443d10156153be57615441565b6153c66137ac565b60043d036004823e80513d602482011167ffffffffffffffff821117156153ee575050615441565b808201805167ffffffffffffffff81111561540c5750505050615441565b80602083010160043d038501811115615429575050505050615441565b61543882602001850186613c25565b82955050505050505b90565b7f455243313135353a207472616e7366657220746f206e6f6e204552433131353560008201527f526563656976657220696d706c656d656e746572000000000000000000000000602082015250565b60006154a06034836139b1565b91506154ab82615444565b604082019050919050565b600060208201905081810360008301526154cf81615493565b9050919050565b7f455243313135353a204552433131353552656365697665722072656a6563746560008201527f6420746f6b656e73000000000000000000000000000000000000000000000000602082015250565b60006155326028836139b1565b915061553d826154d6565b604082019050919050565b6000602082019050818103600083015261556181615525565b9050919050565b600060a08201905061557d6000830188615271565b61558a6020830187615271565b6155976040830186613894565b6155a46060830185613894565b81810360808301526155b6818461529c565b9050969550505050505056fea2646970667358221220944a8ab25924855c195a980548f9255bb968bdba6810a481911f11c52f12837264736f6c634300080b0033",
  "immutableReferences": {},
  "source": "// SPDX-License-Identifier: MIT\r\npragma solidity ^0.8.11;\r\n\r\nimport \"@openzeppelin/contracts/token/ERC1155/ERC1155.sol\";\r\nimport \"@openzeppelin/contracts/utils/Counters.sol\";\r\n\r\ncontract Event is ERC1155 {\r\n    using Counters for Counters.Counter;\r\n    Counters.Counter private _tokenIds;\r\n    Counters.Counter private _itemIds;\r\n    Counters.Counter private _itemsSold;\r\n    address payable owner;\r\n\r\n    constructor() ERC1155(\"\") {\r\n        owner = payable(msg.sender);\r\n    }\r\n\r\n    mapping(uint256 => string) private _uris;\r\n\r\n    struct Item {\r\n        uint256 tokenId;\r\n    }\r\n\r\n    struct EventItem {\r\n        uint256 tokenId;\r\n        address payable owner;\r\n    }\r\n\r\n    struct TicketItem {\r\n        uint256 tokenId;\r\n        uint256 eventTokenId;\r\n        address payable owner;\r\n        uint256 price;\r\n        bool list;\r\n        bool active;\r\n    }\r\n\r\n    struct MarketItem {\r\n        uint256 itemId;\r\n        uint256 tokenId;\r\n        address payable seller;\r\n        address payable owner;\r\n        uint256 price;\r\n        bool sold;\r\n    }\r\n\r\n    mapping(uint256 => EventItem) private eventToken;\r\n    mapping(uint256 => TicketItem) private ticketToken;\r\n    mapping(uint256 => Item[]) private ticketsInEvent;\r\n    mapping(uint256 => MarketItem) private ticketInMarket;\r\n\r\n    mapping(address => EventItem[]) private createdEvents;\r\n\r\n    function uri(uint256 tokenId) public view override returns (string memory) {\r\n        return (_uris[tokenId]);\r\n    }\r\n\r\n    function setTokenUri(uint256 tokenId, string memory tokenUri) public {\r\n        // require(bytes(_uris[tokenId]).length == 0, \"Cannot set uri twice\");\r\n        _uris[tokenId] = tokenUri;\r\n    }\r\n\r\n    function mintEvent(string memory tokenUri) public {\r\n        _tokenIds.increment();\r\n        uint256 newItemId = _tokenIds.current();\r\n\r\n        _mint(msg.sender, newItemId, 1, \"\");\r\n        setTokenUri(newItemId, tokenUri);\r\n        eventToken[newItemId] = EventItem(newItemId, payable(msg.sender));\r\n        createdEvents[msg.sender].push(eventToken[newItemId]);\r\n    }\r\n\r\n    function mintTicket(\r\n        string memory tokenUri,\r\n        uint256 eventTokenId,\r\n        uint256 quantity,\r\n        uint256 price\r\n    ) public {\r\n        for (uint256 i = 0; i < quantity; i++) {\r\n            _tokenIds.increment();\r\n            uint256 newItemId = _tokenIds.current();\r\n\r\n            _mint(msg.sender, newItemId, 1, \"\");\r\n            setTokenUri(newItemId, tokenUri);\r\n            ticketToken[newItemId] = TicketItem(\r\n                newItemId,\r\n                eventTokenId,\r\n                payable(msg.sender),\r\n                price,\r\n                false,\r\n                true\r\n            );\r\n            ticketsInEvent[eventTokenId].push(Item(newItemId));\r\n            createMarketItem(newItemId, price);\r\n        }\r\n    }\r\n\r\n    function createMarketItem(uint256 tokenId, uint256 price) public payable {\r\n        require(\r\n            msg.sender == ticketToken[tokenId].owner,\r\n            \"Only for the owner of this ticket!\"\r\n        );\r\n        require(price > 0, \"Price must be at least 1 wei\");\r\n\r\n        _itemIds.increment();\r\n        uint256 itemId = _itemIds.current();\r\n\r\n        ticketInMarket[itemId] = MarketItem(\r\n            itemId,\r\n            tokenId,\r\n            payable(msg.sender),\r\n            payable(msg.sender),\r\n            price,\r\n            false\r\n        );\r\n\r\n        ticketToken[tokenId].price = price;\r\n        ticketToken[tokenId].list = true;\r\n\r\n        safeTransferFrom(msg.sender, address(this), tokenId, 1, \"\");\r\n    }\r\n\r\n    function cancelListing(uint256 itemId) public payable {\r\n        require(\r\n            msg.sender == ticketInMarket[itemId].owner,\r\n            \"Only for the owner of this ticket!\"\r\n        );\r\n        uint256 tokenId = ticketInMarket[itemId].tokenId;\r\n        ticketToken[tokenId].price = 0;\r\n        ticketToken[tokenId].list = false;\r\n        delete ticketInMarket[itemId];\r\n        _safeTransferFrom(address(this), msg.sender, tokenId, 1, \"\");\r\n    }\r\n\r\n    function buyMarketItem(uint256 itemId) public payable {\r\n        uint256 price = ticketInMarket[itemId].price;\r\n        uint256 tokenId = ticketInMarket[itemId].tokenId;\r\n        require(\r\n            msg.value == price * (10**10),\r\n            \"msg.value != price ** decimals\"\r\n        );\r\n\r\n        ticketInMarket[itemId].seller.transfer(msg.value);\r\n        ticketInMarket[itemId].owner = payable(msg.sender);\r\n        ticketInMarket[itemId].sold = true;\r\n        ticketToken[tokenId].owner = payable(msg.sender);\r\n        ticketToken[tokenId].list = false;\r\n        _itemsSold.increment();\r\n\r\n        _safeTransferFrom(address(this), msg.sender, tokenId, 1, \"\");\r\n    }\r\n\r\n    function fetchMarketItem(uint256 tokenId)\r\n        public\r\n        view\r\n        returns (MarketItem memory)\r\n    {\r\n        uint256 itemCount = _itemIds.current();\r\n        MarketItem memory item;\r\n\r\n        for (uint256 i = 0; i < itemCount; i++) {\r\n            if (ticketInMarket[i + 1].tokenId == tokenId) {\r\n                uint256 currentId = i + 1;\r\n                item = ticketInMarket[currentId];\r\n            }\r\n        }\r\n        return item;\r\n    }\r\n\r\n    function fetchMarketItems() public view returns (MarketItem[] memory) {\r\n        uint256 itemCount = _itemIds.current();\r\n        uint256 unsoldItemCount = _itemIds.current() - _itemsSold.current();\r\n        uint256 currentIndex = 0;\r\n\r\n        MarketItem[] memory items = new MarketItem[](unsoldItemCount);\r\n        for (uint256 i = 0; i < itemCount; i++) {\r\n            if (!ticketInMarket[i + 1].sold) {\r\n                uint256 currentId = i + 1;\r\n                MarketItem storage currentItem = ticketInMarket[currentId];\r\n                items[currentIndex] = currentItem;\r\n                currentIndex += 1;\r\n            }\r\n        }\r\n        return items;\r\n    }\r\n\r\n    function fetchCreatedEvents(address account)\r\n        public\r\n        view\r\n        returns (EventItem[] memory)\r\n    {\r\n        EventItem[] memory items = createdEvents[account];\r\n        return items;\r\n    }\r\n\r\n    function fetchOwnedEvents(address account)\r\n        public\r\n        view\r\n        returns (EventItem[] memory)\r\n    {\r\n        uint256 totalTokenCount = _tokenIds.current();\r\n        uint256 tokenCount = 0;\r\n        uint256 currentIndex = 0;\r\n\r\n        for (uint256 i = 0; i < totalTokenCount; i++) {\r\n            if (eventToken[i + 1].owner == account) {\r\n                tokenCount += 1;\r\n            }\r\n        }\r\n\r\n        EventItem[] memory items = new EventItem[](tokenCount);\r\n        for (uint256 i = 0; i < totalTokenCount; i++) {\r\n            if (eventToken[i + 1].owner == account) {\r\n                EventItem storage currentItem = eventToken[i + 1];\r\n                items[currentIndex] = currentItem;\r\n                currentIndex += 1;\r\n            }\r\n        }\r\n        return items;\r\n    }\r\n\r\n    function fetchCreatedTickets(address account)\r\n        public\r\n        view\r\n        returns (Item[] memory)\r\n    {\r\n        uint256 tokenCount = 0;\r\n        uint256 currentIndex = 0;\r\n\r\n        EventItem[] memory events = createdEvents[account];\r\n        for (uint256 i = 0; i < events.length; i++) {\r\n            uint256 ticketCount = ticketsInEvent[events[i].tokenId].length;\r\n            tokenCount += ticketCount;\r\n        }\r\n\r\n        Item[] memory items = new Item[](tokenCount);\r\n        for (uint256 i = 0; i < events.length; i++) {\r\n            Item[] storage currentItem = ticketsInEvent[events[i].tokenId];\r\n            for (uint256 j = 0; j < currentItem.length; j++) {\r\n                items[currentIndex] = currentItem[j];\r\n                currentIndex += 1;\r\n            }\r\n        }\r\n        return items;\r\n    }\r\n\r\n    function fetchOwnedTickets(address account, bool isCreator)\r\n        public\r\n        view\r\n        returns (TicketItem[] memory)\r\n    {\r\n        uint256 totalTokenCount = _tokenIds.current();\r\n        uint256 tokenCount = 0;\r\n        uint256 currentIndex = 0;\r\n\r\n        if (isCreator) {\r\n            for (uint256 i = 0; i < totalTokenCount; i++) {\r\n                if (ticketToken[i + 1].owner == account) {\r\n                    tokenCount += 1;\r\n                }\r\n            }\r\n        } else {\r\n            for (uint256 i = 0; i < totalTokenCount; i++) {\r\n                if (\r\n                    eventToken[ticketToken[i + 1].eventTokenId].owner !=\r\n                    account &&\r\n                    ticketToken[i + 1].owner == account\r\n                ) {\r\n                    tokenCount += 1;\r\n                }\r\n            }\r\n        }\r\n\r\n        TicketItem[] memory items = new TicketItem[](tokenCount);\r\n        if (isCreator) {\r\n            for (uint256 i = 0; i < totalTokenCount; i++) {\r\n                if (ticketToken[i + 1].owner == account) {\r\n                    TicketItem storage currentItem = ticketToken[i + 1];\r\n                    items[currentIndex] = currentItem;\r\n                    currentIndex += 1;\r\n                }\r\n            }\r\n        } else {\r\n            for (uint256 i = 0; i < totalTokenCount; i++) {\r\n                if (\r\n                    eventToken[ticketToken[i + 1].eventTokenId].owner !=\r\n                    account &&\r\n                    ticketToken[i + 1].owner == account\r\n                ) {\r\n                    TicketItem storage currentItem = ticketToken[i + 1];\r\n                    items[currentIndex] = currentItem;\r\n                    currentIndex += 1;\r\n                }\r\n            }\r\n        }\r\n\r\n        return items;\r\n    }\r\n\r\n    function fetchTicketsInEvent(uint256 eventTokenId)\r\n        public\r\n        view\r\n        returns (Item[] memory)\r\n    {\r\n        Item[] memory items = ticketsInEvent[eventTokenId];\r\n        return items;\r\n    }\r\n\r\n    function fetchEvent(uint256 tokenId)\r\n        public\r\n        view\r\n        returns (EventItem memory)\r\n    {\r\n        EventItem memory item = eventToken[tokenId];\r\n        return item;\r\n    }\r\n\r\n    function fetchTicket(uint256 tokenId)\r\n        public\r\n        view\r\n        returns (TicketItem memory)\r\n    {\r\n        TicketItem memory item = ticketToken[tokenId];\r\n        return item;\r\n    }\r\n\r\n    function onERC1155Received(\r\n        address,\r\n        address,\r\n        uint256,\r\n        uint256,\r\n        bytes memory\r\n    ) public virtual returns (bytes4) {\r\n        return this.onERC1155Received.selector;\r\n    }\r\n\r\n    function onERC1155BatchReceived(\r\n        address,\r\n        address,\r\n        uint256[] memory,\r\n        uint256[] memory,\r\n        bytes memory\r\n    ) public virtual returns (bytes4) {\r\n        return this.onERC1155BatchReceived.selector;\r\n    }\r\n\r\n    function onERC721Received(\r\n        address,\r\n        address,\r\n        uint256,\r\n        bytes memory\r\n    ) public virtual returns (bytes4) {\r\n        return this.onERC721Received.selector;\r\n    }\r\n}\r\n",
  "sourcePath": "D:\\Final Project\\ticketplace\\contracts\\Event.sol",
  "compiler": {
    "name": "solc",
    "version": "0.8.11+commit.d7f03943.Emscripten.clang"
  },
  "schemaVersion": "3.4.4",
  "updatedAt": "2022-03-01T21:07:53.402Z",
  "networkType": "ethereum",
  "devdoc": {
    "kind": "dev",
    "methods": {
      "balanceOf(address,uint256)": {
        "details": "See {IERC1155-balanceOf}. Requirements: - `account` cannot be the zero address."
      },
      "balanceOfBatch(address[],uint256[])": {
        "details": "See {IERC1155-balanceOfBatch}. Requirements: - `accounts` and `ids` must have the same length."
      },
      "isApprovedForAll(address,address)": {
        "details": "See {IERC1155-isApprovedForAll}."
      },
      "safeBatchTransferFrom(address,address,uint256[],uint256[],bytes)": {
        "details": "See {IERC1155-safeBatchTransferFrom}."
      },
      "safeTransferFrom(address,address,uint256,uint256,bytes)": {
        "details": "See {IERC1155-safeTransferFrom}."
      },
      "setApprovalForAll(address,bool)": {
        "details": "See {IERC1155-setApprovalForAll}."
      },
      "supportsInterface(bytes4)": {
        "details": "See {IERC165-supportsInterface}."
      }
    },
    "version": 1
  },
  "userdoc": {
    "kind": "user",
    "methods": {},
    "version": 1
  }
}