{
  "contractName": "Event",
  "abi": [
    {
      "inputs": [],
      "stateMutability": "nonpayable",
      "type": "constructor"
    },
    {
      "anonymous": false,
      "inputs": [
        {
          "indexed": true,
          "internalType": "address",
          "name": "account",
          "type": "address"
        },
        {
          "indexed": true,
          "internalType": "address",
          "name": "operator",
          "type": "address"
        },
        {
          "indexed": false,
          "internalType": "bool",
          "name": "approved",
          "type": "bool"
        }
      ],
      "name": "ApprovalForAll",
      "type": "event"
    },
    {
      "anonymous": false,
      "inputs": [
        {
          "indexed": true,
          "internalType": "address",
          "name": "operator",
          "type": "address"
        },
        {
          "indexed": true,
          "internalType": "address",
          "name": "from",
          "type": "address"
        },
        {
          "indexed": true,
          "internalType": "address",
          "name": "to",
          "type": "address"
        },
        {
          "indexed": false,
          "internalType": "uint256[]",
          "name": "ids",
          "type": "uint256[]"
        },
        {
          "indexed": false,
          "internalType": "uint256[]",
          "name": "values",
          "type": "uint256[]"
        }
      ],
      "name": "TransferBatch",
      "type": "event"
    },
    {
      "anonymous": false,
      "inputs": [
        {
          "indexed": true,
          "internalType": "address",
          "name": "operator",
          "type": "address"
        },
        {
          "indexed": true,
          "internalType": "address",
          "name": "from",
          "type": "address"
        },
        {
          "indexed": true,
          "internalType": "address",
          "name": "to",
          "type": "address"
        },
        {
          "indexed": false,
          "internalType": "uint256",
          "name": "id",
          "type": "uint256"
        },
        {
          "indexed": false,
          "internalType": "uint256",
          "name": "value",
          "type": "uint256"
        }
      ],
      "name": "TransferSingle",
      "type": "event"
    },
    {
      "anonymous": false,
      "inputs": [
        {
          "indexed": false,
          "internalType": "string",
          "name": "value",
          "type": "string"
        },
        {
          "indexed": true,
          "internalType": "uint256",
          "name": "id",
          "type": "uint256"
        }
      ],
      "name": "URI",
      "type": "event"
    },
    {
      "inputs": [
        {
          "internalType": "address",
          "name": "account",
          "type": "address"
        },
        {
          "internalType": "uint256",
          "name": "id",
          "type": "uint256"
        }
      ],
      "name": "balanceOf",
      "outputs": [
        {
          "internalType": "uint256",
          "name": "",
          "type": "uint256"
        }
      ],
      "stateMutability": "view",
      "type": "function",
      "constant": true
    },
    {
      "inputs": [
        {
          "internalType": "address[]",
          "name": "accounts",
          "type": "address[]"
        },
        {
          "internalType": "uint256[]",
          "name": "ids",
          "type": "uint256[]"
        }
      ],
      "name": "balanceOfBatch",
      "outputs": [
        {
          "internalType": "uint256[]",
          "name": "",
          "type": "uint256[]"
        }
      ],
      "stateMutability": "view",
      "type": "function",
      "constant": true
    },
    {
      "inputs": [
        {
          "internalType": "address",
          "name": "account",
          "type": "address"
        },
        {
          "internalType": "address",
          "name": "operator",
          "type": "address"
        }
      ],
      "name": "isApprovedForAll",
      "outputs": [
        {
          "internalType": "bool",
          "name": "",
          "type": "bool"
        }
      ],
      "stateMutability": "view",
      "type": "function",
      "constant": true
    },
    {
      "inputs": [
        {
          "internalType": "address",
          "name": "from",
          "type": "address"
        },
        {
          "internalType": "address",
          "name": "to",
          "type": "address"
        },
        {
          "internalType": "uint256[]",
          "name": "ids",
          "type": "uint256[]"
        },
        {
          "internalType": "uint256[]",
          "name": "amounts",
          "type": "uint256[]"
        },
        {
          "internalType": "bytes",
          "name": "data",
          "type": "bytes"
        }
      ],
      "name": "safeBatchTransferFrom",
      "outputs": [],
      "stateMutability": "nonpayable",
      "type": "function"
    },
    {
      "inputs": [
        {
          "internalType": "address",
          "name": "from",
          "type": "address"
        },
        {
          "internalType": "address",
          "name": "to",
          "type": "address"
        },
        {
          "internalType": "uint256",
          "name": "id",
          "type": "uint256"
        },
        {
          "internalType": "uint256",
          "name": "amount",
          "type": "uint256"
        },
        {
          "internalType": "bytes",
          "name": "data",
          "type": "bytes"
        }
      ],
      "name": "safeTransferFrom",
      "outputs": [],
      "stateMutability": "nonpayable",
      "type": "function"
    },
    {
      "inputs": [
        {
          "internalType": "address",
          "name": "operator",
          "type": "address"
        },
        {
          "internalType": "bool",
          "name": "approved",
          "type": "bool"
        }
      ],
      "name": "setApprovalForAll",
      "outputs": [],
      "stateMutability": "nonpayable",
      "type": "function"
    },
    {
      "inputs": [
        {
          "internalType": "bytes4",
          "name": "interfaceId",
          "type": "bytes4"
        }
      ],
      "name": "supportsInterface",
      "outputs": [
        {
          "internalType": "bool",
          "name": "",
          "type": "bool"
        }
      ],
      "stateMutability": "view",
      "type": "function",
      "constant": true
    },
    {
      "inputs": [
        {
          "internalType": "uint256",
          "name": "tokenId",
          "type": "uint256"
        }
      ],
      "name": "uri",
      "outputs": [
        {
          "internalType": "string",
          "name": "",
          "type": "string"
        }
      ],
      "stateMutability": "view",
      "type": "function",
      "constant": true
    },
    {
      "inputs": [
        {
          "internalType": "uint256",
          "name": "tokenId",
          "type": "uint256"
        },
        {
          "internalType": "string",
          "name": "tokenUri",
          "type": "string"
        }
      ],
      "name": "setTokenUri",
      "outputs": [],
      "stateMutability": "nonpayable",
      "type": "function"
    },
    {
      "inputs": [
        {
          "internalType": "string",
          "name": "tokenUri",
          "type": "string"
        }
      ],
      "name": "mintEvent",
      "outputs": [],
      "stateMutability": "nonpayable",
      "type": "function"
    },
    {
      "inputs": [
        {
          "internalType": "string",
          "name": "tokenUri",
          "type": "string"
        },
        {
          "internalType": "uint256",
          "name": "eventTokenId",
          "type": "uint256"
        },
        {
          "internalType": "uint256",
          "name": "supply",
          "type": "uint256"
        }
      ],
      "name": "mintTicket",
      "outputs": [],
      "stateMutability": "nonpayable",
      "type": "function"
    },
    {
      "inputs": [
        {
          "internalType": "address",
          "name": "account",
          "type": "address"
        }
      ],
      "name": "fetchCreatedEvents",
      "outputs": [
        {
          "components": [
            {
              "internalType": "uint256",
              "name": "tokenId",
              "type": "uint256"
            },
            {
              "internalType": "address payable",
              "name": "owner",
              "type": "address"
            }
          ],
          "internalType": "struct Event.EventItem[]",
          "name": "",
          "type": "tuple[]"
        }
      ],
      "stateMutability": "view",
      "type": "function",
      "constant": true
    },
    {
      "inputs": [
        {
          "internalType": "uint256",
          "name": "eventTokenId",
          "type": "uint256"
        }
      ],
      "name": "fetchTicketsInEvent",
      "outputs": [
        {
          "components": [
            {
              "internalType": "uint256",
              "name": "tokenId",
              "type": "uint256"
            },
            {
              "internalType": "address payable",
              "name": "owner",
              "type": "address"
            }
          ],
          "internalType": "struct Event.TicketItem[]",
          "name": "",
          "type": "tuple[]"
        }
      ],
      "stateMutability": "view",
      "type": "function",
      "constant": true
    },
    {
      "inputs": [
        {
          "internalType": "uint256",
          "name": "tokenId",
          "type": "uint256"
        }
      ],
      "name": "fetchEvent",
      "outputs": [
        {
          "components": [
            {
              "internalType": "uint256",
              "name": "tokenId",
              "type": "uint256"
            },
            {
              "internalType": "address payable",
              "name": "owner",
              "type": "address"
            }
          ],
          "internalType": "struct Event.EventItem",
          "name": "",
          "type": "tuple"
        }
      ],
      "stateMutability": "view",
      "type": "function",
      "constant": true
    },
    {
      "inputs": [
        {
          "internalType": "uint256",
          "name": "tokenId",
          "type": "uint256"
        }
      ],
      "name": "fetchTicket",
      "outputs": [
        {
          "components": [
            {
              "internalType": "uint256",
              "name": "tokenId",
              "type": "uint256"
            },
            {
              "internalType": "address payable",
              "name": "owner",
              "type": "address"
            }
          ],
          "internalType": "struct Event.TicketItem",
          "name": "",
          "type": "tuple"
        }
      ],
      "stateMutability": "view",
      "type": "function",
      "constant": true
    }
  ],
  "bytecode": "0x60806040523480156200001157600080fd5b506040518060200160405280600081525062000033816200007b60201b60201c565b5033600660006101000a81548173ffffffffffffffffffffffffffffffffffffffff021916908373ffffffffffffffffffffffffffffffffffffffff160217905550620001ac565b80600290805190602001906200009392919062000097565b5050565b828054620000a59062000176565b90600052602060002090601f016020900481019282620000c9576000855562000115565b82601f10620000e457805160ff191683800117855562000115565b8280016001018555821562000115579182015b8281111562000114578251825591602001919060010190620000f7565b5b50905062000124919062000128565b5090565b5b808211156200014357600081600090555060010162000129565b5090565b7f4e487b7100000000000000000000000000000000000000000000000000000000600052602260045260246000fd5b600060028204905060018216806200018f57607f821691505b60208210811415620001a657620001a562000147565b5b50919050565b61346d80620001bc6000396000f3fe608060405234801561001057600080fd5b50600436106100f45760003560e01c806357f4f75011610097578063a22cb46511610066578063a22cb465146102b9578063e985e9c5146102d5578063f242432a14610305578063f9d5c50514610321576100f4565b806357f4f7501461023557806357f7789e146102515780638c8b5fd61461026d5780639be0b9351461029d576100f4565b80632eb2c2d6116100d35780632eb2c2d61461018957806331d90970146101a55780634e1273f4146101d55780635105d52614610205576100f4565b8062fdd58e146100f957806301ffc9a7146101295780630e89341c14610159575b600080fd5b610113600480360381019061010e9190611d38565b610351565b6040516101209190611d87565b60405180910390f35b610143600480360381019061013e9190611dfa565b61041a565b6040516101509190611e42565b60405180910390f35b610173600480360381019061016e9190611e5d565b6104fc565b6040516101809190611f23565b60405180910390f35b6101a3600480360381019061019e9190612142565b6105a1565b005b6101bf60048036038101906101ba9190612211565b610642565b6040516101cc919061234c565b60405180910390f35b6101ef60048036038101906101ea9190612431565b610746565b6040516101fc9190612558565b60405180910390f35b61021f600480360381019061021a9190611e5d565b61085f565b60405161022c91906125a9565b60405180910390f35b61024f600480360381019061024a9190612665565b6108f2565b005b61026b600480360381019061026691906126d4565b610a0f565b005b61028760048036038101906102829190611e5d565b610a3b565b604051610294919061275f565b60405180910390f35b6102b760048036038101906102b2919061277a565b610ace565b005b6102d360048036038101906102ce91906127ef565b610bf6565b005b6102ef60048036038101906102ea919061282f565b610c0c565b6040516102fc9190611e42565b60405180910390f35b61031f600480360381019061031a919061286f565b610ca0565b005b61033b60048036038101906103369190611e5d565b610d41565b60405161034891906129e4565b60405180910390f35b60008073ffffffffffffffffffffffffffffffffffffffff168373ffffffffffffffffffffffffffffffffffffffff1614156103c2576040517f08c379a00000000000000000000000000000000000000000000000000000000081526004016103b990612a78565b60405180910390fd5b60008083815260200190815260200160002060008473ffffffffffffffffffffffffffffffffffffffff1673ffffffffffffffffffffffffffffffffffffffff16815260200190815260200160002054905092915050565b60007fd9b67a26000000000000000000000000000000000000000000000000000000007bffffffffffffffffffffffffffffffffffffffffffffffffffffffff1916827bffffffffffffffffffffffffffffffffffffffffffffffffffffffff191614806104e557507f0e89341c000000000000000000000000000000000000000000000000000000007bffffffffffffffffffffffffffffffffffffffffffffffffffffffff1916827bffffffffffffffffffffffffffffffffffffffffffffffffffffffff1916145b806104f557506104f482610e19565b5b9050919050565b606060076000838152602001908152602001600020805461051c90612ac7565b80601f016020809104026020016040519081016040528092919081815260200182805461054890612ac7565b80156105955780601f1061056a57610100808354040283529160200191610595565b820191906000526020600020905b81548152906001019060200180831161057857829003601f168201915b50505050509050919050565b6105a9610e83565b73ffffffffffffffffffffffffffffffffffffffff168573ffffffffffffffffffffffffffffffffffffffff1614806105ef57506105ee856105e9610e83565b610c0c565b5b61062e576040517f08c379a000000000000000000000000000000000000000000000000000000000815260040161062590612b6b565b60405180910390fd5b61063b8585858585610e8b565b5050505050565b60606000600c60008473ffffffffffffffffffffffffffffffffffffffff1673ffffffffffffffffffffffffffffffffffffffff168152602001908152602001600020805480602002602001604051908101604052809291908181526020016000905b828210156107375783829060005260206000209060020201604051806040016040529081600082015481526020016001820160009054906101000a900473ffffffffffffffffffffffffffffffffffffffff1673ffffffffffffffffffffffffffffffffffffffff1673ffffffffffffffffffffffffffffffffffffffff1681525050815260200190600101906106a5565b50505050905080915050919050565b6060815183511461078c576040517f08c379a000000000000000000000000000000000000000000000000000000000815260040161078390612bfd565b60405180910390fd5b6000835167ffffffffffffffff8111156107a9576107a8611f4a565b5b6040519080825280602002602001820160405280156107d75781602001602082028036833780820191505090505b50905060005b8451811015610854576108248582815181106107fc576107fb612c1d565b5b602002602001015185838151811061081757610816612c1d565b5b6020026020010151610351565b82828151811061083757610836612c1d565b5b6020026020010181815250508061084d90612c7b565b90506107dd565b508091505092915050565b610867611b8d565b600060096000848152602001908152602001600020604051806040016040529081600082015481526020016001820160009054906101000a900473ffffffffffffffffffffffffffffffffffffffff1673ffffffffffffffffffffffffffffffffffffffff1673ffffffffffffffffffffffffffffffffffffffff1681525050905080915050919050565b60005b81811015610a0957610907600361119f565b600061091360036111b5565b905061093133826001604051806020016040528060008152506111c3565b61093b8186610a0f565b600a600085815260200190815260200160002060405180604001604052808381526020013373ffffffffffffffffffffffffffffffffffffffff1681525090806001815401808255809150506001900390600052602060002090600202016000909190919091506000820151816000015560208201518160010160006101000a81548173ffffffffffffffffffffffffffffffffffffffff021916908373ffffffffffffffffffffffffffffffffffffffff1602179055505050508080610a0190612c7b565b9150506108f5565b50505050565b80600760008481526020019081526020016000209080519060200190610a36929190611bbd565b505050565b610a43611c43565b600060086000848152602001908152602001600020604051806040016040529081600082015481526020016001820160009054906101000a900473ffffffffffffffffffffffffffffffffffffffff1673ffffffffffffffffffffffffffffffffffffffff1673ffffffffffffffffffffffffffffffffffffffff1681525050905080915050919050565b610ad8600361119f565b6000610ae460036111b5565b9050610b0233826001604051806020016040528060008152506111c3565b610b0c8183610a0f565b600c60003373ffffffffffffffffffffffffffffffffffffffff1673ffffffffffffffffffffffffffffffffffffffff16815260200190815260200160002060405180604001604052808381526020013373ffffffffffffffffffffffffffffffffffffffff1681525090806001815401808255809150506001900390600052602060002090600202016000909190919091506000820151816000015560208201518160010160006101000a81548173ffffffffffffffffffffffffffffffffffffffff021916908373ffffffffffffffffffffffffffffffffffffffff16021790555050505050565b610c08610c01610e83565b8383611359565b5050565b6000600160008473ffffffffffffffffffffffffffffffffffffffff1673ffffffffffffffffffffffffffffffffffffffff16815260200190815260200160002060008373ffffffffffffffffffffffffffffffffffffffff1673ffffffffffffffffffffffffffffffffffffffff16815260200190815260200160002060009054906101000a900460ff16905092915050565b610ca8610e83565b73ffffffffffffffffffffffffffffffffffffffff168573ffffffffffffffffffffffffffffffffffffffff161480610cee5750610ced85610ce8610e83565b610c0c565b5b610d2d576040517f08c379a0000000000000000000000000000000000000000000000000000000008152600401610d2490612d36565b60405180910390fd5b610d3a85858585856114c6565b5050505050565b60606000600a6000848152602001908152602001600020805480602002602001604051908101604052809291908181526020016000905b82821015610e0a5783829060005260206000209060020201604051806040016040529081600082015481526020016001820160009054906101000a900473ffffffffffffffffffffffffffffffffffffffff1673ffffffffffffffffffffffffffffffffffffffff1673ffffffffffffffffffffffffffffffffffffffff168152505081526020019060010190610d78565b50505050905080915050919050565b60007f01ffc9a7000000000000000000000000000000000000000000000000000000007bffffffffffffffffffffffffffffffffffffffffffffffffffffffff1916827bffffffffffffffffffffffffffffffffffffffffffffffffffffffff1916149050919050565b600033905090565b8151835114610ecf576040517f08c379a0000000000000000000000000000000000000000000000000000000008152600401610ec690612dc8565b60405180910390fd5b600073ffffffffffffffffffffffffffffffffffffffff168473ffffffffffffffffffffffffffffffffffffffff161415610f3f576040517f08c379a0000000000000000000000000000000000000000000000000000000008152600401610f3690612e5a565b60405180910390fd5b6000610f49610e83565b9050610f59818787878787611748565b60005b845181101561110a576000858281518110610f7a57610f79612c1d565b5b602002602001015190506000858381518110610f9957610f98612c1d565b5b60200260200101519050600080600084815260200190815260200160002060008b73ffffffffffffffffffffffffffffffffffffffff1673ffffffffffffffffffffffffffffffffffffffff1681526020019081526020016000205490508181101561103a576040517f08c379a000000000000000000000000000000000000000000000000000000000815260040161103190612eec565b60405180910390fd5b81810360008085815260200190815260200160002060008c73ffffffffffffffffffffffffffffffffffffffff1673ffffffffffffffffffffffffffffffffffffffff168152602001908152602001600020819055508160008085815260200190815260200160002060008b73ffffffffffffffffffffffffffffffffffffffff1673ffffffffffffffffffffffffffffffffffffffff16815260200190815260200160002060008282546110ef9190612f0c565b925050819055505050508061110390612c7b565b9050610f5c565b508473ffffffffffffffffffffffffffffffffffffffff168673ffffffffffffffffffffffffffffffffffffffff168273ffffffffffffffffffffffffffffffffffffffff167f4a39dc06d4c0dbc64b70af90fd698a233a518aa5d07e595d983b8c0526c8f7fb8787604051611181929190612f62565b60405180910390a4611197818787878787611750565b505050505050565b6001816000016000828254019250508190555050565b600081600001549050919050565b600073ffffffffffffffffffffffffffffffffffffffff168473ffffffffffffffffffffffffffffffffffffffff161415611233576040517f08c379a000000000000000000000000000000000000000000000000000000000815260040161122a9061300b565b60405180910390fd5b600061123d610e83565b905061125e8160008761124f88611928565b61125888611928565b87611748565b8260008086815260200190815260200160002060008773ffffffffffffffffffffffffffffffffffffffff1673ffffffffffffffffffffffffffffffffffffffff16815260200190815260200160002060008282546112bd9190612f0c565b925050819055508473ffffffffffffffffffffffffffffffffffffffff16600073ffffffffffffffffffffffffffffffffffffffff168273ffffffffffffffffffffffffffffffffffffffff167fc3d58168c5ae7397731d063d5bbf3d657854427343f4c083240f7aacaa2d0f62878760405161133b92919061302b565b60405180910390a4611352816000878787876119a2565b5050505050565b8173ffffffffffffffffffffffffffffffffffffffff168373ffffffffffffffffffffffffffffffffffffffff1614156113c8576040517f08c379a00000000000000000000000000000000000000000000000000000000081526004016113bf906130c6565b60405180910390fd5b80600160008573ffffffffffffffffffffffffffffffffffffffff1673ffffffffffffffffffffffffffffffffffffffff16815260200190815260200160002060008473ffffffffffffffffffffffffffffffffffffffff1673ffffffffffffffffffffffffffffffffffffffff16815260200190815260200160002060006101000a81548160ff0219169083151502179055508173ffffffffffffffffffffffffffffffffffffffff168373ffffffffffffffffffffffffffffffffffffffff167f17307eab39ab6107e8899845ad3d59bd9653f200f220920489ca2b5937696c31836040516114b99190611e42565b60405180910390a3505050565b600073ffffffffffffffffffffffffffffffffffffffff168473ffffffffffffffffffffffffffffffffffffffff161415611536576040517f08c379a000000000000000000000000000000000000000000000000000000000815260040161152d90612e5a565b60405180910390fd5b6000611540610e83565b905061156081878761155188611928565b61155a88611928565b87611748565b600080600086815260200190815260200160002060008873ffffffffffffffffffffffffffffffffffffffff1673ffffffffffffffffffffffffffffffffffffffff168152602001908152602001600020549050838110156115f7576040517f08c379a00000000000000000000000000000000000000000000000000000000081526004016115ee90612eec565b60405180910390fd5b83810360008087815260200190815260200160002060008973ffffffffffffffffffffffffffffffffffffffff1673ffffffffffffffffffffffffffffffffffffffff168152602001908152602001600020819055508360008087815260200190815260200160002060008873ffffffffffffffffffffffffffffffffffffffff1673ffffffffffffffffffffffffffffffffffffffff16815260200190815260200160002060008282546116ac9190612f0c565b925050819055508573ffffffffffffffffffffffffffffffffffffffff168773ffffffffffffffffffffffffffffffffffffffff168373ffffffffffffffffffffffffffffffffffffffff167fc3d58168c5ae7397731d063d5bbf3d657854427343f4c083240f7aacaa2d0f62888860405161172992919061302b565b60405180910390a461173f8288888888886119a2565b50505050505050565b505050505050565b61176f8473ffffffffffffffffffffffffffffffffffffffff16611b7a565b15611920578373ffffffffffffffffffffffffffffffffffffffff1663bc197c8187878686866040518663ffffffff1660e01b81526004016117b595949392919061314a565b6020604051808303816000875af19250505080156117f157506040513d601f19601f820116820180604052508101906117ee91906131c7565b60015b611897576117fd613201565b806308c379a0141561185a5750611812613223565b8061181d575061185c565b806040517f08c379a00000000000000000000000000000000000000000000000000000000081526004016118519190611f23565b60405180910390fd5b505b6040517f08c379a000000000000000000000000000000000000000000000000000000000815260040161188e9061332b565b60405180910390fd5b63bc197c8160e01b7bffffffffffffffffffffffffffffffffffffffffffffffffffffffff1916817bffffffffffffffffffffffffffffffffffffffffffffffffffffffff19161461191e576040517f08c379a0000000000000000000000000000000000000000000000000000000008152600401611915906133bd565b60405180910390fd5b505b505050505050565b60606000600167ffffffffffffffff81111561194757611946611f4a565b5b6040519080825280602002602001820160405280156119755781602001602082028036833780820191505090505b509050828160008151811061198d5761198c612c1d565b5b60200260200101818152505080915050919050565b6119c18473ffffffffffffffffffffffffffffffffffffffff16611b7a565b15611b72578373ffffffffffffffffffffffffffffffffffffffff1663f23a6e6187878686866040518663ffffffff1660e01b8152600401611a079594939291906133dd565b6020604051808303816000875af1925050508015611a4357506040513d601f19601f82011682018060405250810190611a4091906131c7565b60015b611ae957611a4f613201565b806308c379a01415611aac5750611a64613223565b80611a6f5750611aae565b806040517f08c379a0000000000000000000000000000000000000000000000000000000008152600401611aa39190611f23565b60405180910390fd5b505b6040517f08c379a0000000000000000000000000000000000000000000000000000000008152600401611ae09061332b565b60405180910390fd5b63f23a6e6160e01b7bffffffffffffffffffffffffffffffffffffffffffffffffffffffff1916817bffffffffffffffffffffffffffffffffffffffffffffffffffffffff191614611b70576040517f08c379a0000000000000000000000000000000000000000000000000000000008152600401611b67906133bd565b60405180910390fd5b505b505050505050565b600080823b905060008111915050919050565b604051806040016040528060008152602001600073ffffffffffffffffffffffffffffffffffffffff1681525090565b828054611bc990612ac7565b90600052602060002090601f016020900481019282611beb5760008555611c32565b82601f10611c0457805160ff1916838001178555611c32565b82800160010185558215611c32579182015b82811115611c31578251825591602001919060010190611c16565b5b509050611c3f9190611c73565b5090565b604051806040016040528060008152602001600073ffffffffffffffffffffffffffffffffffffffff1681525090565b5b80821115611c8c576000816000905550600101611c74565b5090565b6000604051905090565b600080fd5b600080fd5b600073ffffffffffffffffffffffffffffffffffffffff82169050919050565b6000611ccf82611ca4565b9050919050565b611cdf81611cc4565b8114611cea57600080fd5b50565b600081359050611cfc81611cd6565b92915050565b6000819050919050565b611d1581611d02565b8114611d2057600080fd5b50565b600081359050611d3281611d0c565b92915050565b60008060408385031215611d4f57611d4e611c9a565b5b6000611d5d85828601611ced565b9250506020611d6e85828601611d23565b9150509250929050565b611d8181611d02565b82525050565b6000602082019050611d9c6000830184611d78565b92915050565b60007fffffffff0000000000000000000000000000000000000000000000000000000082169050919050565b611dd781611da2565b8114611de257600080fd5b50565b600081359050611df481611dce565b92915050565b600060208284031215611e1057611e0f611c9a565b5b6000611e1e84828501611de5565b91505092915050565b60008115159050919050565b611e3c81611e27565b82525050565b6000602082019050611e576000830184611e33565b92915050565b600060208284031215611e7357611e72611c9a565b5b6000611e8184828501611d23565b91505092915050565b600081519050919050565b600082825260208201905092915050565b60005b83811015611ec4578082015181840152602081019050611ea9565b83811115611ed3576000848401525b50505050565b6000601f19601f8301169050919050565b6000611ef582611e8a565b611eff8185611e95565b9350611f0f818560208601611ea6565b611f1881611ed9565b840191505092915050565b60006020820190508181036000830152611f3d8184611eea565b905092915050565b600080fd5b7f4e487b7100000000000000000000000000000000000000000000000000000000600052604160045260246000fd5b611f8282611ed9565b810181811067ffffffffffffffff82111715611fa157611fa0611f4a565b5b80604052505050565b6000611fb4611c90565b9050611fc08282611f79565b919050565b600067ffffffffffffffff821115611fe057611fdf611f4a565b5b602082029050602081019050919050565b600080fd5b600061200961200484611fc5565b611faa565b9050808382526020820190506020840283018581111561202c5761202b611ff1565b5b835b8181101561205557806120418882611d23565b84526020840193505060208101905061202e565b5050509392505050565b600082601f83011261207457612073611f45565b5b8135612084848260208601611ff6565b91505092915050565b600080fd5b600067ffffffffffffffff8211156120ad576120ac611f4a565b5b6120b682611ed9565b9050602081019050919050565b82818337600083830152505050565b60006120e56120e084612092565b611faa565b9050828152602081018484840111156121015761210061208d565b5b61210c8482856120c3565b509392505050565b600082601f83011261212957612128611f45565b5b81356121398482602086016120d2565b91505092915050565b600080600080600060a0868803121561215e5761215d611c9a565b5b600061216c88828901611ced565b955050602061217d88828901611ced565b945050604086013567ffffffffffffffff81111561219e5761219d611c9f565b5b6121aa8882890161205f565b935050606086013567ffffffffffffffff8111156121cb576121ca611c9f565b5b6121d78882890161205f565b925050608086013567ffffffffffffffff8111156121f8576121f7611c9f565b5b61220488828901612114565b9150509295509295909350565b60006020828403121561222757612226611c9a565b5b600061223584828501611ced565b91505092915050565b600081519050919050565b600082825260208201905092915050565b6000819050602082019050919050565b61227381611d02565b82525050565b600061228482611ca4565b9050919050565b61229481612279565b82525050565b6040820160008201516122b0600085018261226a565b5060208201516122c3602085018261228b565b50505050565b60006122d5838361229a565b60408301905092915050565b6000602082019050919050565b60006122f98261223e565b6123038185612249565b935061230e8361225a565b8060005b8381101561233f57815161232688826122c9565b9750612331836122e1565b925050600181019050612312565b5085935050505092915050565b6000602082019050818103600083015261236681846122ee565b905092915050565b600067ffffffffffffffff82111561238957612388611f4a565b5b602082029050602081019050919050565b60006123ad6123a88461236e565b611faa565b905080838252602082019050602084028301858111156123d0576123cf611ff1565b5b835b818110156123f957806123e58882611ced565b8452602084019350506020810190506123d2565b5050509392505050565b600082601f83011261241857612417611f45565b5b813561242884826020860161239a565b91505092915050565b6000806040838503121561244857612447611c9a565b5b600083013567ffffffffffffffff81111561246657612465611c9f565b5b61247285828601612403565b925050602083013567ffffffffffffffff81111561249357612492611c9f565b5b61249f8582860161205f565b9150509250929050565b600081519050919050565b600082825260208201905092915050565b6000819050602082019050919050565b60006124e1838361226a565b60208301905092915050565b6000602082019050919050565b6000612505826124a9565b61250f81856124b4565b935061251a836124c5565b8060005b8381101561254b57815161253288826124d5565b975061253d836124ed565b92505060018101905061251e565b5085935050505092915050565b6000602082019050818103600083015261257281846124fa565b905092915050565b604082016000820151612590600085018261226a565b5060208201516125a3602085018261228b565b50505050565b60006040820190506125be600083018461257a565b92915050565b600067ffffffffffffffff8211156125df576125de611f4a565b5b6125e882611ed9565b9050602081019050919050565b6000612608612603846125c4565b611faa565b9050828152602081018484840111156126245761262361208d565b5b61262f8482856120c3565b509392505050565b600082601f83011261264c5761264b611f45565b5b813561265c8482602086016125f5565b91505092915050565b60008060006060848603121561267e5761267d611c9a565b5b600084013567ffffffffffffffff81111561269c5761269b611c9f565b5b6126a886828701612637565b93505060206126b986828701611d23565b92505060406126ca86828701611d23565b9150509250925092565b600080604083850312156126eb576126ea611c9a565b5b60006126f985828601611d23565b925050602083013567ffffffffffffffff81111561271a57612719611c9f565b5b61272685828601612637565b9150509250929050565b604082016000820151612746600085018261226a565b506020820151612759602085018261228b565b50505050565b60006040820190506127746000830184612730565b92915050565b6000602082840312156127905761278f611c9a565b5b600082013567ffffffffffffffff8111156127ae576127ad611c9f565b5b6127ba84828501612637565b91505092915050565b6127cc81611e27565b81146127d757600080fd5b50565b6000813590506127e9816127c3565b92915050565b6000806040838503121561280657612805611c9a565b5b600061281485828601611ced565b9250506020612825858286016127da565b9150509250929050565b6000806040838503121561284657612845611c9a565b5b600061285485828601611ced565b925050602061286585828601611ced565b9150509250929050565b600080600080600060a0868803121561288b5761288a611c9a565b5b600061289988828901611ced565b95505060206128aa88828901611ced565b94505060406128bb88828901611d23565b93505060606128cc88828901611d23565b925050608086013567ffffffffffffffff8111156128ed576128ec611c9f565b5b6128f988828901612114565b9150509295509295909350565b600081519050919050565b600082825260208201905092915050565b6000819050602082019050919050565b604082016000820151612948600085018261226a565b50602082015161295b602085018261228b565b50505050565b600061296d8383612932565b60408301905092915050565b6000602082019050919050565b600061299182612906565b61299b8185612911565b93506129a683612922565b8060005b838110156129d75781516129be8882612961565b97506129c983612979565b9250506001810190506129aa565b5085935050505092915050565b600060208201905081810360008301526129fe8184612986565b905092915050565b7f455243313135353a2062616c616e636520717565727920666f7220746865207a60008201527f65726f2061646472657373000000000000000000000000000000000000000000602082015250565b6000612a62602b83611e95565b9150612a6d82612a06565b604082019050919050565b60006020820190508181036000830152612a9181612a55565b9050919050565b7f4e487b7100000000000000000000000000000000000000000000000000000000600052602260045260246000fd5b60006002820490506001821680612adf57607f821691505b60208210811415612af357612af2612a98565b5b50919050565b7f455243313135353a207472616e736665722063616c6c6572206973206e6f742060008201527f6f776e6572206e6f7220617070726f7665640000000000000000000000000000602082015250565b6000612b55603283611e95565b9150612b6082612af9565b604082019050919050565b60006020820190508181036000830152612b8481612b48565b9050919050565b7f455243313135353a206163636f756e747320616e6420696473206c656e67746860008201527f206d69736d617463680000000000000000000000000000000000000000000000602082015250565b6000612be7602983611e95565b9150612bf282612b8b565b604082019050919050565b60006020820190508181036000830152612c1681612bda565b9050919050565b7f4e487b7100000000000000000000000000000000000000000000000000000000600052603260045260246000fd5b7f4e487b7100000000000000000000000000000000000000000000000000000000600052601160045260246000fd5b6000612c8682611d02565b91507fffffffffffffffffffffffffffffffffffffffffffffffffffffffffffffffff821415612cb957612cb8612c4c565b5b600182019050919050565b7f455243313135353a2063616c6c6572206973206e6f74206f776e6572206e6f7260008201527f20617070726f7665640000000000000000000000000000000000000000000000602082015250565b6000612d20602983611e95565b9150612d2b82612cc4565b604082019050919050565b60006020820190508181036000830152612d4f81612d13565b9050919050565b7f455243313135353a2069647320616e6420616d6f756e7473206c656e6774682060008201527f6d69736d61746368000000000000000000000000000000000000000000000000602082015250565b6000612db2602883611e95565b9150612dbd82612d56565b604082019050919050565b60006020820190508181036000830152612de181612da5565b9050919050565b7f455243313135353a207472616e7366657220746f20746865207a65726f20616460008201527f6472657373000000000000000000000000000000000000000000000000000000602082015250565b6000612e44602583611e95565b9150612e4f82612de8565b604082019050919050565b60006020820190508181036000830152612e7381612e37565b9050919050565b7f455243313135353a20696e73756666696369656e742062616c616e636520666f60008201527f72207472616e7366657200000000000000000000000000000000000000000000602082015250565b6000612ed6602a83611e95565b9150612ee182612e7a565b604082019050919050565b60006020820190508181036000830152612f0581612ec9565b9050919050565b6000612f1782611d02565b9150612f2283611d02565b9250827fffffffffffffffffffffffffffffffffffffffffffffffffffffffffffffffff03821115612f5757612f56612c4c565b5b828201905092915050565b60006040820190508181036000830152612f7c81856124fa565b90508181036020830152612f9081846124fa565b90509392505050565b7f455243313135353a206d696e7420746f20746865207a65726f2061646472657360008201527f7300000000000000000000000000000000000000000000000000000000000000602082015250565b6000612ff5602183611e95565b915061300082612f99565b604082019050919050565b6000602082019050818103600083015261302481612fe8565b9050919050565b60006040820190506130406000830185611d78565b61304d6020830184611d78565b9392505050565b7f455243313135353a2073657474696e6720617070726f76616c2073746174757360008201527f20666f722073656c660000000000000000000000000000000000000000000000602082015250565b60006130b0602983611e95565b91506130bb82613054565b604082019050919050565b600060208201905081810360008301526130df816130a3565b9050919050565b6130ef81611cc4565b82525050565b600081519050919050565b600082825260208201905092915050565b600061311c826130f5565b6131268185613100565b9350613136818560208601611ea6565b61313f81611ed9565b840191505092915050565b600060a08201905061315f60008301886130e6565b61316c60208301876130e6565b818103604083015261317e81866124fa565b9050818103606083015261319281856124fa565b905081810360808301526131a68184613111565b90509695505050505050565b6000815190506131c181611dce565b92915050565b6000602082840312156131dd576131dc611c9a565b5b60006131eb848285016131b2565b91505092915050565b60008160e01c9050919050565b600060033d11156132205760046000803e61321d6000516131f4565b90505b90565b600060443d1015613233576132b6565b61323b611c90565b60043d036004823e80513d602482011167ffffffffffffffff821117156132635750506132b6565b808201805167ffffffffffffffff81111561328157505050506132b6565b80602083010160043d03850181111561329e5750505050506132b6565b6132ad82602001850186611f79565b82955050505050505b90565b7f455243313135353a207472616e7366657220746f206e6f6e204552433131353560008201527f526563656976657220696d706c656d656e746572000000000000000000000000602082015250565b6000613315603483611e95565b9150613320826132b9565b604082019050919050565b6000602082019050818103600083015261334481613308565b9050919050565b7f455243313135353a204552433131353552656365697665722072656a6563746560008201527f6420746f6b656e73000000000000000000000000000000000000000000000000602082015250565b60006133a7602883611e95565b91506133b28261334b565b604082019050919050565b600060208201905081810360008301526133d68161339a565b9050919050565b600060a0820190506133f260008301886130e6565b6133ff60208301876130e6565b61340c6040830186611d78565b6134196060830185611d78565b818103608083015261342b8184613111565b9050969550505050505056fea2646970667358221220a7dcb9c0506d34a69cd428f9179bb5f3fbd885bb4b5754bad71d48e187c6c42864736f6c634300080b0033",
  "immutableReferences": {},
  "source": "// SPDX-License-Identifier: MIT\r\npragma solidity ^0.8.11;\r\n\r\nimport \"@openzeppelin/contracts/token/ERC1155/ERC1155.sol\";\r\nimport \"@openzeppelin/contracts/utils/Counters.sol\";\r\n\r\ncontract Event is ERC1155 {\r\n    using Counters for Counters.Counter;\r\n    Counters.Counter private _tokenIds;\r\n    Counters.Counter private _itemIds;\r\n    Counters.Counter private _itemsSold;\r\n    address payable owner;\r\n\r\n    constructor() ERC1155(\"\") {\r\n        owner = payable(msg.sender);\r\n    }\r\n\r\n    mapping(uint256 => string) private _uris;\r\n\r\n    struct EventItem {\r\n        uint256 tokenId;\r\n        address payable owner;\r\n    }\r\n\r\n    struct TicketItem {\r\n        uint256 tokenId;\r\n        address payable owner;\r\n    }\r\n\r\n    struct MarketItem {\r\n        uint256 itemId;\r\n        uint256 tokenId;\r\n        address payable seller;\r\n        address payable owner;\r\n        uint256 price;\r\n        bool sold;\r\n    }\r\n\r\n    mapping(uint256 => EventItem) private eventToken;\r\n    mapping(uint256 => TicketItem) private ticketToken;\r\n    mapping(uint256 => TicketItem[]) private ticketsInEvent;\r\n    mapping(uint256 => MarketItem) private ticketInMarket;\r\n\r\n    mapping(address => EventItem[]) private createdEvents;\r\n\r\n    function uri(uint256 tokenId) public view override returns (string memory) {\r\n        return (_uris[tokenId]);\r\n    }\r\n\r\n    function setTokenUri(uint256 tokenId, string memory tokenUri) public {\r\n        // require(bytes(_uris[tokenId]).length == 0, \"Cannot set uri twice\");\r\n        _uris[tokenId] = tokenUri;\r\n    }\r\n\r\n    function mintEvent(string memory tokenUri) public {\r\n        _tokenIds.increment();\r\n        uint256 newItemId = _tokenIds.current();\r\n\r\n        _mint(msg.sender, newItemId, 1, \"\");\r\n        setTokenUri(newItemId, tokenUri);\r\n        createdEvents[msg.sender].push(\r\n            EventItem(newItemId, payable(msg.sender))\r\n        );\r\n    }\r\n\r\n    function mintTicket(\r\n        string memory tokenUri,\r\n        uint256 eventTokenId,\r\n        uint256 supply\r\n    ) public {\r\n        for (uint256 i = 0; i < supply; i++) {\r\n            _tokenIds.increment();\r\n            uint256 newItemId = _tokenIds.current();\r\n\r\n            _mint(msg.sender, newItemId, 1, \"\");\r\n            setTokenUri(newItemId, tokenUri);\r\n            ticketsInEvent[eventTokenId].push(\r\n                TicketItem(newItemId, payable(msg.sender))\r\n            );\r\n        }\r\n    }\r\n\r\n    function fetchCreatedEvents(address account)\r\n        public\r\n        view\r\n        returns (EventItem[] memory)\r\n    {\r\n        EventItem[] memory items = createdEvents[account];\r\n        return items;\r\n    }\r\n\r\n    function fetchTicketsInEvent(uint256 eventTokenId)\r\n        public\r\n        view\r\n        returns (TicketItem[] memory)\r\n    {\r\n        TicketItem[] memory items = ticketsInEvent[eventTokenId];\r\n        return items;\r\n    }\r\n\r\n    function fetchEvent(uint256 tokenId)\r\n        public\r\n        view\r\n        returns (EventItem memory)\r\n    {\r\n        EventItem memory item = eventToken[tokenId];\r\n        return item;\r\n    }\r\n\r\n    function fetchTicket(uint256 tokenId)\r\n        public\r\n        view\r\n        returns (TicketItem memory)\r\n    {\r\n        TicketItem memory item = ticketToken[tokenId];\r\n        return item;\r\n    }\r\n}\r\n",
  "sourcePath": "D:\\Final Project\\ticketplace\\contracts\\Event.sol",
  "compiler": {
    "name": "solc",
    "version": "0.8.11+commit.d7f03943.Emscripten.clang"
  },
  "schemaVersion": "3.4.4",
  "updatedAt": "2022-02-15T17:49:54.046Z",
  "networkType": "ethereum",
  "devdoc": {
    "kind": "dev",
    "methods": {
      "balanceOf(address,uint256)": {
        "details": "See {IERC1155-balanceOf}. Requirements: - `account` cannot be the zero address."
      },
      "balanceOfBatch(address[],uint256[])": {
        "details": "See {IERC1155-balanceOfBatch}. Requirements: - `accounts` and `ids` must have the same length."
      },
      "isApprovedForAll(address,address)": {
        "details": "See {IERC1155-isApprovedForAll}."
      },
      "safeBatchTransferFrom(address,address,uint256[],uint256[],bytes)": {
        "details": "See {IERC1155-safeBatchTransferFrom}."
      },
      "safeTransferFrom(address,address,uint256,uint256,bytes)": {
        "details": "See {IERC1155-safeTransferFrom}."
      },
      "setApprovalForAll(address,bool)": {
        "details": "See {IERC1155-setApprovalForAll}."
      },
      "supportsInterface(bytes4)": {
        "details": "See {IERC165-supportsInterface}."
      }
    },
    "version": 1
  },
  "userdoc": {
    "kind": "user",
    "methods": {},
    "version": 1
  }
}