{
  "contractName": "Event",
  "abi": [
    {
      "inputs": [],
      "stateMutability": "nonpayable",
      "type": "constructor"
    },
    {
      "anonymous": false,
      "inputs": [
        {
          "indexed": true,
          "internalType": "address",
          "name": "account",
          "type": "address"
        },
        {
          "indexed": true,
          "internalType": "address",
          "name": "operator",
          "type": "address"
        },
        {
          "indexed": false,
          "internalType": "bool",
          "name": "approved",
          "type": "bool"
        }
      ],
      "name": "ApprovalForAll",
      "type": "event"
    },
    {
      "anonymous": false,
      "inputs": [
        {
          "indexed": true,
          "internalType": "address",
          "name": "operator",
          "type": "address"
        },
        {
          "indexed": true,
          "internalType": "address",
          "name": "from",
          "type": "address"
        },
        {
          "indexed": true,
          "internalType": "address",
          "name": "to",
          "type": "address"
        },
        {
          "indexed": false,
          "internalType": "uint256[]",
          "name": "ids",
          "type": "uint256[]"
        },
        {
          "indexed": false,
          "internalType": "uint256[]",
          "name": "values",
          "type": "uint256[]"
        }
      ],
      "name": "TransferBatch",
      "type": "event"
    },
    {
      "anonymous": false,
      "inputs": [
        {
          "indexed": true,
          "internalType": "address",
          "name": "operator",
          "type": "address"
        },
        {
          "indexed": true,
          "internalType": "address",
          "name": "from",
          "type": "address"
        },
        {
          "indexed": true,
          "internalType": "address",
          "name": "to",
          "type": "address"
        },
        {
          "indexed": false,
          "internalType": "uint256",
          "name": "id",
          "type": "uint256"
        },
        {
          "indexed": false,
          "internalType": "uint256",
          "name": "value",
          "type": "uint256"
        }
      ],
      "name": "TransferSingle",
      "type": "event"
    },
    {
      "anonymous": false,
      "inputs": [
        {
          "indexed": false,
          "internalType": "string",
          "name": "value",
          "type": "string"
        },
        {
          "indexed": true,
          "internalType": "uint256",
          "name": "id",
          "type": "uint256"
        }
      ],
      "name": "URI",
      "type": "event"
    },
    {
      "inputs": [
        {
          "internalType": "address",
          "name": "account",
          "type": "address"
        },
        {
          "internalType": "uint256",
          "name": "id",
          "type": "uint256"
        }
      ],
      "name": "balanceOf",
      "outputs": [
        {
          "internalType": "uint256",
          "name": "",
          "type": "uint256"
        }
      ],
      "stateMutability": "view",
      "type": "function",
      "constant": true
    },
    {
      "inputs": [
        {
          "internalType": "address[]",
          "name": "accounts",
          "type": "address[]"
        },
        {
          "internalType": "uint256[]",
          "name": "ids",
          "type": "uint256[]"
        }
      ],
      "name": "balanceOfBatch",
      "outputs": [
        {
          "internalType": "uint256[]",
          "name": "",
          "type": "uint256[]"
        }
      ],
      "stateMutability": "view",
      "type": "function",
      "constant": true
    },
    {
      "inputs": [
        {
          "internalType": "address",
          "name": "account",
          "type": "address"
        },
        {
          "internalType": "address",
          "name": "operator",
          "type": "address"
        }
      ],
      "name": "isApprovedForAll",
      "outputs": [
        {
          "internalType": "bool",
          "name": "",
          "type": "bool"
        }
      ],
      "stateMutability": "view",
      "type": "function",
      "constant": true
    },
    {
      "inputs": [
        {
          "internalType": "address",
          "name": "from",
          "type": "address"
        },
        {
          "internalType": "address",
          "name": "to",
          "type": "address"
        },
        {
          "internalType": "uint256[]",
          "name": "ids",
          "type": "uint256[]"
        },
        {
          "internalType": "uint256[]",
          "name": "amounts",
          "type": "uint256[]"
        },
        {
          "internalType": "bytes",
          "name": "data",
          "type": "bytes"
        }
      ],
      "name": "safeBatchTransferFrom",
      "outputs": [],
      "stateMutability": "nonpayable",
      "type": "function"
    },
    {
      "inputs": [
        {
          "internalType": "address",
          "name": "from",
          "type": "address"
        },
        {
          "internalType": "address",
          "name": "to",
          "type": "address"
        },
        {
          "internalType": "uint256",
          "name": "id",
          "type": "uint256"
        },
        {
          "internalType": "uint256",
          "name": "amount",
          "type": "uint256"
        },
        {
          "internalType": "bytes",
          "name": "data",
          "type": "bytes"
        }
      ],
      "name": "safeTransferFrom",
      "outputs": [],
      "stateMutability": "nonpayable",
      "type": "function"
    },
    {
      "inputs": [
        {
          "internalType": "address",
          "name": "operator",
          "type": "address"
        },
        {
          "internalType": "bool",
          "name": "approved",
          "type": "bool"
        }
      ],
      "name": "setApprovalForAll",
      "outputs": [],
      "stateMutability": "nonpayable",
      "type": "function"
    },
    {
      "inputs": [
        {
          "internalType": "bytes4",
          "name": "interfaceId",
          "type": "bytes4"
        }
      ],
      "name": "supportsInterface",
      "outputs": [
        {
          "internalType": "bool",
          "name": "",
          "type": "bool"
        }
      ],
      "stateMutability": "view",
      "type": "function",
      "constant": true
    },
    {
      "inputs": [
        {
          "internalType": "uint256",
          "name": "tokenId",
          "type": "uint256"
        }
      ],
      "name": "uri",
      "outputs": [
        {
          "internalType": "string",
          "name": "",
          "type": "string"
        }
      ],
      "stateMutability": "view",
      "type": "function",
      "constant": true
    },
    {
      "inputs": [
        {
          "internalType": "uint256",
          "name": "tokenId",
          "type": "uint256"
        },
        {
          "internalType": "string",
          "name": "tokenUri",
          "type": "string"
        }
      ],
      "name": "setTokenUri",
      "outputs": [],
      "stateMutability": "nonpayable",
      "type": "function"
    },
    {
      "inputs": [
        {
          "internalType": "string",
          "name": "tokenUri",
          "type": "string"
        }
      ],
      "name": "mintEvent",
      "outputs": [],
      "stateMutability": "nonpayable",
      "type": "function"
    },
    {
      "inputs": [
        {
          "internalType": "string",
          "name": "tokenUri",
          "type": "string"
        },
        {
          "internalType": "uint256",
          "name": "eventTokenId",
          "type": "uint256"
        },
        {
          "internalType": "uint256",
          "name": "quantity",
          "type": "uint256"
        },
        {
          "internalType": "uint256",
          "name": "price",
          "type": "uint256"
        }
      ],
      "name": "mintTicket",
      "outputs": [],
      "stateMutability": "nonpayable",
      "type": "function"
    },
    {
      "inputs": [
        {
          "internalType": "uint256",
          "name": "tokenId",
          "type": "uint256"
        },
        {
          "internalType": "uint256",
          "name": "price",
          "type": "uint256"
        }
      ],
      "name": "createMarketItem",
      "outputs": [],
      "stateMutability": "payable",
      "type": "function",
      "payable": true
    },
    {
      "inputs": [
        {
          "internalType": "uint256",
          "name": "itemId",
          "type": "uint256"
        }
      ],
      "name": "buyMarketItem",
      "outputs": [],
      "stateMutability": "payable",
      "type": "function",
      "payable": true
    },
    {
      "inputs": [
        {
          "internalType": "uint256",
          "name": "tokenId",
          "type": "uint256"
        }
      ],
      "name": "fetchMarketItem",
      "outputs": [
        {
          "components": [
            {
              "internalType": "uint256",
              "name": "itemId",
              "type": "uint256"
            },
            {
              "internalType": "uint256",
              "name": "tokenId",
              "type": "uint256"
            },
            {
              "internalType": "address payable",
              "name": "seller",
              "type": "address"
            },
            {
              "internalType": "address payable",
              "name": "owner",
              "type": "address"
            },
            {
              "internalType": "uint256",
              "name": "price",
              "type": "uint256"
            },
            {
              "internalType": "bool",
              "name": "sold",
              "type": "bool"
            }
          ],
          "internalType": "struct Event.MarketItem",
          "name": "",
          "type": "tuple"
        }
      ],
      "stateMutability": "view",
      "type": "function",
      "constant": true
    },
    {
      "inputs": [],
      "name": "fetchMarketItems",
      "outputs": [
        {
          "components": [
            {
              "internalType": "uint256",
              "name": "itemId",
              "type": "uint256"
            },
            {
              "internalType": "uint256",
              "name": "tokenId",
              "type": "uint256"
            },
            {
              "internalType": "address payable",
              "name": "seller",
              "type": "address"
            },
            {
              "internalType": "address payable",
              "name": "owner",
              "type": "address"
            },
            {
              "internalType": "uint256",
              "name": "price",
              "type": "uint256"
            },
            {
              "internalType": "bool",
              "name": "sold",
              "type": "bool"
            }
          ],
          "internalType": "struct Event.MarketItem[]",
          "name": "",
          "type": "tuple[]"
        }
      ],
      "stateMutability": "view",
      "type": "function",
      "constant": true
    },
    {
      "inputs": [
        {
          "internalType": "address",
          "name": "account",
          "type": "address"
        }
      ],
      "name": "fetchCreatedEvents",
      "outputs": [
        {
          "components": [
            {
              "internalType": "uint256",
              "name": "tokenId",
              "type": "uint256"
            },
            {
              "internalType": "address payable",
              "name": "owner",
              "type": "address"
            }
          ],
          "internalType": "struct Event.EventItem[]",
          "name": "",
          "type": "tuple[]"
        }
      ],
      "stateMutability": "view",
      "type": "function",
      "constant": true
    },
    {
      "inputs": [
        {
          "internalType": "uint256",
          "name": "eventTokenId",
          "type": "uint256"
        }
      ],
      "name": "fetchTicketsInEvent",
      "outputs": [
        {
          "components": [
            {
              "internalType": "uint256",
              "name": "tokenId",
              "type": "uint256"
            },
            {
              "internalType": "uint256",
              "name": "eventTokenId",
              "type": "uint256"
            },
            {
              "internalType": "address payable",
              "name": "owner",
              "type": "address"
            },
            {
              "internalType": "uint256",
              "name": "price",
              "type": "uint256"
            },
            {
              "internalType": "bool",
              "name": "list",
              "type": "bool"
            }
          ],
          "internalType": "struct Event.TicketItem[]",
          "name": "",
          "type": "tuple[]"
        }
      ],
      "stateMutability": "view",
      "type": "function",
      "constant": true
    },
    {
      "inputs": [
        {
          "internalType": "uint256",
          "name": "tokenId",
          "type": "uint256"
        }
      ],
      "name": "fetchEvent",
      "outputs": [
        {
          "components": [
            {
              "internalType": "uint256",
              "name": "tokenId",
              "type": "uint256"
            },
            {
              "internalType": "address payable",
              "name": "owner",
              "type": "address"
            }
          ],
          "internalType": "struct Event.EventItem",
          "name": "",
          "type": "tuple"
        }
      ],
      "stateMutability": "view",
      "type": "function",
      "constant": true
    },
    {
      "inputs": [
        {
          "internalType": "uint256",
          "name": "tokenId",
          "type": "uint256"
        }
      ],
      "name": "fetchTicket",
      "outputs": [
        {
          "components": [
            {
              "internalType": "uint256",
              "name": "tokenId",
              "type": "uint256"
            },
            {
              "internalType": "uint256",
              "name": "eventTokenId",
              "type": "uint256"
            },
            {
              "internalType": "address payable",
              "name": "owner",
              "type": "address"
            },
            {
              "internalType": "uint256",
              "name": "price",
              "type": "uint256"
            },
            {
              "internalType": "bool",
              "name": "list",
              "type": "bool"
            }
          ],
          "internalType": "struct Event.TicketItem",
          "name": "",
          "type": "tuple"
        }
      ],
      "stateMutability": "view",
      "type": "function",
      "constant": true
    },
    {
      "inputs": [
        {
          "internalType": "address",
          "name": "",
          "type": "address"
        },
        {
          "internalType": "address",
          "name": "",
          "type": "address"
        },
        {
          "internalType": "uint256",
          "name": "",
          "type": "uint256"
        },
        {
          "internalType": "uint256",
          "name": "",
          "type": "uint256"
        },
        {
          "internalType": "bytes",
          "name": "",
          "type": "bytes"
        }
      ],
      "name": "onERC1155Received",
      "outputs": [
        {
          "internalType": "bytes4",
          "name": "",
          "type": "bytes4"
        }
      ],
      "stateMutability": "nonpayable",
      "type": "function"
    },
    {
      "inputs": [
        {
          "internalType": "address",
          "name": "",
          "type": "address"
        },
        {
          "internalType": "address",
          "name": "",
          "type": "address"
        },
        {
          "internalType": "uint256[]",
          "name": "",
          "type": "uint256[]"
        },
        {
          "internalType": "uint256[]",
          "name": "",
          "type": "uint256[]"
        },
        {
          "internalType": "bytes",
          "name": "",
          "type": "bytes"
        }
      ],
      "name": "onERC1155BatchReceived",
      "outputs": [
        {
          "internalType": "bytes4",
          "name": "",
          "type": "bytes4"
        }
      ],
      "stateMutability": "nonpayable",
      "type": "function"
    },
    {
      "inputs": [
        {
          "internalType": "address",
          "name": "",
          "type": "address"
        },
        {
          "internalType": "address",
          "name": "",
          "type": "address"
        },
        {
          "internalType": "uint256",
          "name": "",
          "type": "uint256"
        },
        {
          "internalType": "bytes",
          "name": "",
          "type": "bytes"
        }
      ],
      "name": "onERC721Received",
      "outputs": [
        {
          "internalType": "bytes4",
          "name": "",
          "type": "bytes4"
        }
      ],
      "stateMutability": "nonpayable",
      "type": "function"
    }
  ],
  "bytecode": "0x60806040523480156200001157600080fd5b506040518060200160405280600081525062000033816200007b60201b60201c565b5033600660006101000a81548173ffffffffffffffffffffffffffffffffffffffff021916908373ffffffffffffffffffffffffffffffffffffffff160217905550620001ac565b80600290805190602001906200009392919062000097565b5050565b828054620000a59062000176565b90600052602060002090601f016020900481019282620000c9576000855562000115565b82601f10620000e457805160ff191683800117855562000115565b8280016001018555821562000115579182015b8281111562000114578251825591602001919060010190620000f7565b5b50905062000124919062000128565b5090565b5b808211156200014357600081600090555060010162000129565b5090565b7f4e487b7100000000000000000000000000000000000000000000000000000000600052602260045260246000fd5b600060028204905060018216806200018f57607f821691505b60208210811415620001a657620001a562000147565b5b50919050565b6145f980620001bc6000396000f3fe6080604052600436106101345760003560e01c80635105d526116100ab578063a22cb4651161006f578063a22cb46514610465578063bc197c811461048e578063e985e9c5146104cb578063f23a6e6114610508578063f242432a14610545578063f9d5c5051461056e57610134565b80635105d5261461037057806357f7789e146103ad5780638c8b5fd6146103d657806397dada91146104135780639be0b9351461043c57610134565b80632a45b250116100fd5780632a45b250146102585780632eb2c2d61461029557806331d90970146102be578063351901c3146102fb578063361c1995146103175780634e1273f41461033357610134565b8062fdd58e1461013957806301ffc9a7146101765780630e89341c146101b35780630f08efe0146101f0578063150b7a021461021b575b600080fd5b34801561014557600080fd5b50610160600480360381019061015b91906129fa565b6105ab565b60405161016d9190612a49565b60405180910390f35b34801561018257600080fd5b5061019d60048036038101906101989190612abc565b610674565b6040516101aa9190612b04565b60405180910390f35b3480156101bf57600080fd5b506101da60048036038101906101d59190612b1f565b610756565b6040516101e79190612be5565b60405180910390f35b3480156101fc57600080fd5b506102056107fb565b6040516102129190612d70565b60405180910390f35b34801561022757600080fd5b50610242600480360381019061023d9190612ec7565b610a2c565b60405161024f9190612f59565b60405180910390f35b34801561026457600080fd5b5061027f600480360381019061027a9190612b1f565b610a40565b60405161028c9190612fef565b60405180910390f35b3480156102a157600080fd5b506102bc60048036038101906102b791906130d2565b610bc9565b005b3480156102ca57600080fd5b506102e560048036038101906102e091906131a1565b610c6a565b6040516102f291906132ac565b60405180910390f35b61031560048036038101906103109190612b1f565b610d6e565b005b610331600480360381019061032c91906132ce565b610f52565b005b34801561033f57600080fd5b5061035a600480360381019061035591906133d1565b61113c565b60405161036791906134f8565b60405180910390f35b34801561037c57600080fd5b5061039760048036038101906103929190612b1f565b611255565b6040516103a49190613582565b60405180910390f35b3480156103b957600080fd5b506103d460048036038101906103cf919061363e565b611317565b005b3480156103e257600080fd5b506103fd60048036038101906103f89190612b1f565b611343565b60405161040a91906136c9565b60405180910390f35b34801561041f57600080fd5b5061043a600480360381019061043591906136e4565b6113d6565b005b34801561044857600080fd5b50610463600480360381019061045e9190613767565b611622565b005b34801561047157600080fd5b5061048c600480360381019061048791906137dc565b6117e4565b005b34801561049a57600080fd5b506104b560048036038101906104b091906130d2565b6117fa565b6040516104c29190612f59565b60405180910390f35b3480156104d757600080fd5b506104f260048036038101906104ed919061381c565b61180f565b6040516104ff9190612b04565b60405180910390f35b34801561051457600080fd5b5061052f600480360381019061052a919061385c565b6118a3565b60405161053c9190612f59565b60405180910390f35b34801561055157600080fd5b5061056c6004803603810190610567919061385c565b6118b8565b005b34801561057a57600080fd5b5061059560048036038101906105909190612b1f565b611959565b6040516105a29190613a0a565b60405180910390f35b60008073ffffffffffffffffffffffffffffffffffffffff168373ffffffffffffffffffffffffffffffffffffffff16141561061c576040517f08c379a000000000000000000000000000000000000000000000000000000000815260040161061390613a9e565b60405180910390fd5b60008083815260200190815260200160002060008473ffffffffffffffffffffffffffffffffffffffff1673ffffffffffffffffffffffffffffffffffffffff16815260200190815260200160002054905092915050565b60007fd9b67a26000000000000000000000000000000000000000000000000000000007bffffffffffffffffffffffffffffffffffffffffffffffffffffffff1916827bffffffffffffffffffffffffffffffffffffffffffffffffffffffff1916148061073f57507f0e89341c000000000000000000000000000000000000000000000000000000007bffffffffffffffffffffffffffffffffffffffffffffffffffffffff1916827bffffffffffffffffffffffffffffffffffffffffffffffffffffffff1916145b8061074f575061074e82611a60565b5b9050919050565b606060076000838152602001908152602001600020805461077690613aed565b80601f01602080910402602001604051908101604052809291908181526020018280546107a290613aed565b80156107ef5780601f106107c4576101008083540402835291602001916107ef565b820191906000526020600020905b8154815290600101906020018083116107d257829003601f168201915b50505050509050919050565b606060006108096004611aca565b905060006108176005611aca565b6108216004611aca565b61082b9190613b4e565b90506000808267ffffffffffffffff81111561084a57610849612d9c565b5b60405190808252806020026020018201604052801561088357816020015b6108706127d4565b8152602001906001900390816108685790505b50905060005b84811015610a2157600b60006001836108a29190613b82565b815260200190815260200160002060050160009054906101000a900460ff16610a0e5760006001826108d49190613b82565b90506000600b60008381526020019081526020016000209050806040518060c001604052908160008201548152602001600182015481526020016002820160009054906101000a900473ffffffffffffffffffffffffffffffffffffffff1673ffffffffffffffffffffffffffffffffffffffff1673ffffffffffffffffffffffffffffffffffffffff1681526020016003820160009054906101000a900473ffffffffffffffffffffffffffffffffffffffff1673ffffffffffffffffffffffffffffffffffffffff1673ffffffffffffffffffffffffffffffffffffffff168152602001600482015481526020016005820160009054906101000a900460ff1615151515815250508486815181106109f1576109f0613bd8565b5b6020026020010181905250600185610a099190613b82565b945050505b8080610a1990613c07565b915050610889565b508094505050505090565b600063150b7a0260e01b9050949350505050565b610a486127d4565b6000610a546004611aca565b9050610a5e6127d4565b60005b82811015610bbe5784600b6000600184610a7b9190613b82565b8152602001908152602001600020600101541415610bab576000600182610aa29190613b82565b9050600b60008281526020019081526020016000206040518060c001604052908160008201548152602001600182015481526020016002820160009054906101000a900473ffffffffffffffffffffffffffffffffffffffff1673ffffffffffffffffffffffffffffffffffffffff1673ffffffffffffffffffffffffffffffffffffffff1681526020016003820160009054906101000a900473ffffffffffffffffffffffffffffffffffffffff1673ffffffffffffffffffffffffffffffffffffffff1673ffffffffffffffffffffffffffffffffffffffff168152602001600482015481526020016005820160009054906101000a900460ff1615151515815250509250505b8080610bb690613c07565b915050610a61565b508092505050919050565b610bd1611ad8565b73ffffffffffffffffffffffffffffffffffffffff168573ffffffffffffffffffffffffffffffffffffffff161480610c175750610c1685610c11611ad8565b61180f565b5b610c56576040517f08c379a0000000000000000000000000000000000000000000000000000000008152600401610c4d90613cc2565b60405180910390fd5b610c638585858585611ae0565b5050505050565b60606000600c60008473ffffffffffffffffffffffffffffffffffffffff1673ffffffffffffffffffffffffffffffffffffffff168152602001908152602001600020805480602002602001604051908101604052809291908181526020016000905b82821015610d5f5783829060005260206000209060020201604051806040016040529081600082015481526020016001820160009054906101000a900473ffffffffffffffffffffffffffffffffffffffff1673ffffffffffffffffffffffffffffffffffffffff1673ffffffffffffffffffffffffffffffffffffffff168152505081526020019060010190610ccd565b50505050905080915050919050565b6000600b60008381526020019081526020016000206004015490506000600b60008481526020019081526020016000206001015490506402540be40082610db59190613ce2565b3414610df6576040517f08c379a0000000000000000000000000000000000000000000000000000000008152600401610ded90613d88565b60405180910390fd5b600b600084815260200190815260200160002060020160009054906101000a900473ffffffffffffffffffffffffffffffffffffffff1673ffffffffffffffffffffffffffffffffffffffff166108fc349081150290604051600060405180830381858888f19350505050158015610e72573d6000803e3d6000fd5b5033600b600085815260200190815260200160002060030160006101000a81548173ffffffffffffffffffffffffffffffffffffffff021916908373ffffffffffffffffffffffffffffffffffffffff1602179055506001600b600085815260200190815260200160002060050160006101000a81548160ff02191690831515021790555060006009600083815260200190815260200160002060040160006101000a81548160ff021916908315150217905550610f306005611df4565b610f4d3033836001604051806020016040528060008152506118b8565b505050565b60008111610f95576040517f08c379a0000000000000000000000000000000000000000000000000000000008152600401610f8c90613df4565b60405180910390fd5b610f9f6004611df4565b6000610fab6004611aca565b90506040518060c001604052808281526020018481526020013373ffffffffffffffffffffffffffffffffffffffff1681526020013373ffffffffffffffffffffffffffffffffffffffff16815260200183815260200160001515815250600b6000838152602001908152602001600020600082015181600001556020820151816001015560408201518160020160006101000a81548173ffffffffffffffffffffffffffffffffffffffff021916908373ffffffffffffffffffffffffffffffffffffffff16021790555060608201518160030160006101000a81548173ffffffffffffffffffffffffffffffffffffffff021916908373ffffffffffffffffffffffffffffffffffffffff1602179055506080820151816004015560a08201518160050160006101000a81548160ff02191690831515021790555090505060016009600085815260200190815260200160002060040160006101000a81548160ff0219169083151502179055506111373330856001604051806020016040528060008152506118b8565b505050565b60608151835114611182576040517f08c379a000000000000000000000000000000000000000000000000000000000815260040161117990613e86565b60405180910390fd5b6000835167ffffffffffffffff81111561119f5761119e612d9c565b5b6040519080825280602002602001820160405280156111cd5781602001602082028036833780820191505090505b50905060005b845181101561124a5761121a8582815181106111f2576111f1613bd8565b5b602002602001015185838151811061120d5761120c613bd8565b5b60200260200101516105ab565b82828151811061122d5761122c613bd8565b5b6020026020010181815250508061124390613c07565b90506111d3565b508091505092915050565b61125d612838565b6000600960008481526020019081526020016000206040518060a001604052908160008201548152602001600182015481526020016002820160009054906101000a900473ffffffffffffffffffffffffffffffffffffffff1673ffffffffffffffffffffffffffffffffffffffff1673ffffffffffffffffffffffffffffffffffffffff168152602001600382015481526020016004820160009054906101000a900460ff161515151581525050905080915050919050565b8060076000848152602001908152602001600020908051906020019061133e92919061287f565b505050565b61134b612905565b600060086000848152602001908152602001600020604051806040016040529081600082015481526020016001820160009054906101000a900473ffffffffffffffffffffffffffffffffffffffff1673ffffffffffffffffffffffffffffffffffffffff1673ffffffffffffffffffffffffffffffffffffffff1681525050905080915050919050565b60005b8281101561161b576113eb6003611df4565b60006113f76003611aca565b90506114153382600160405180602001604052806000815250611e0a565b61141f8187611317565b6040518060a001604052808281526020018681526020013373ffffffffffffffffffffffffffffffffffffffff1681526020018481526020016000151581525060096000838152602001908152602001600020600082015181600001556020820151816001015560408201518160020160006101000a81548173ffffffffffffffffffffffffffffffffffffffff021916908373ffffffffffffffffffffffffffffffffffffffff1602179055506060820151816003015560808201518160040160006101000a81548160ff021916908315150217905550905050600a600086815260200190815260200160002060096000838152602001908152602001600020908060018154018082558091505060019003906000526020600020906005020160009091909190915060008201548160000155600182015481600101556002820160009054906101000a900473ffffffffffffffffffffffffffffffffffffffff168160020160006101000a81548173ffffffffffffffffffffffffffffffffffffffff021916908373ffffffffffffffffffffffffffffffffffffffff160217905550600382015481600301556004820160009054906101000a900460ff168160040160006101000a81548160ff02191690831515021790555050506116078184610f52565b50808061161390613c07565b9150506113d9565b5050505050565b61162c6003611df4565b60006116386003611aca565b90506116563382600160405180602001604052806000815250611e0a565b6116608183611317565b60405180604001604052808281526020013373ffffffffffffffffffffffffffffffffffffffff16815250600860008381526020019081526020016000206000820151816000015560208201518160010160006101000a81548173ffffffffffffffffffffffffffffffffffffffff021916908373ffffffffffffffffffffffffffffffffffffffff160217905550905050600c60003373ffffffffffffffffffffffffffffffffffffffff1673ffffffffffffffffffffffffffffffffffffffff168152602001908152602001600020600860008381526020019081526020016000209080600181540180825580915050600190039060005260206000209060020201600090919091909150600082015481600001556001820160009054906101000a900473ffffffffffffffffffffffffffffffffffffffff168160010160006101000a81548173ffffffffffffffffffffffffffffffffffffffff021916908373ffffffffffffffffffffffffffffffffffffffff16021790555050505050565b6117f66117ef611ad8565b8383611fa0565b5050565b600063bc197c8160e01b905095945050505050565b6000600160008473ffffffffffffffffffffffffffffffffffffffff1673ffffffffffffffffffffffffffffffffffffffff16815260200190815260200160002060008373ffffffffffffffffffffffffffffffffffffffff1673ffffffffffffffffffffffffffffffffffffffff16815260200190815260200160002060009054906101000a900460ff16905092915050565b600063f23a6e6160e01b905095945050505050565b6118c0611ad8565b73ffffffffffffffffffffffffffffffffffffffff168573ffffffffffffffffffffffffffffffffffffffff161480611906575061190585611900611ad8565b61180f565b5b611945576040517f08c379a000000000000000000000000000000000000000000000000000000000815260040161193c90613f18565b60405180910390fd5b611952858585858561210d565b5050505050565b60606000600a6000848152602001908152602001600020805480602002602001604051908101604052809291908181526020016000905b82821015611a5157838290600052602060002090600502016040518060a001604052908160008201548152602001600182015481526020016002820160009054906101000a900473ffffffffffffffffffffffffffffffffffffffff1673ffffffffffffffffffffffffffffffffffffffff1673ffffffffffffffffffffffffffffffffffffffff168152602001600382015481526020016004820160009054906101000a900460ff16151515158152505081526020019060010190611990565b50505050905080915050919050565b60007f01ffc9a7000000000000000000000000000000000000000000000000000000007bffffffffffffffffffffffffffffffffffffffffffffffffffffffff1916827bffffffffffffffffffffffffffffffffffffffffffffffffffffffff1916149050919050565b600081600001549050919050565b600033905090565b8151835114611b24576040517f08c379a0000000000000000000000000000000000000000000000000000000008152600401611b1b90613faa565b60405180910390fd5b600073ffffffffffffffffffffffffffffffffffffffff168473ffffffffffffffffffffffffffffffffffffffff161415611b94576040517f08c379a0000000000000000000000000000000000000000000000000000000008152600401611b8b9061403c565b60405180910390fd5b6000611b9e611ad8565b9050611bae81878787878761238f565b60005b8451811015611d5f576000858281518110611bcf57611bce613bd8565b5b602002602001015190506000858381518110611bee57611bed613bd8565b5b60200260200101519050600080600084815260200190815260200160002060008b73ffffffffffffffffffffffffffffffffffffffff1673ffffffffffffffffffffffffffffffffffffffff16815260200190815260200160002054905081811015611c8f576040517f08c379a0000000000000000000000000000000000000000000000000000000008152600401611c86906140ce565b60405180910390fd5b81810360008085815260200190815260200160002060008c73ffffffffffffffffffffffffffffffffffffffff1673ffffffffffffffffffffffffffffffffffffffff168152602001908152602001600020819055508160008085815260200190815260200160002060008b73ffffffffffffffffffffffffffffffffffffffff1673ffffffffffffffffffffffffffffffffffffffff1681526020019081526020016000206000828254611d449190613b82565b9250508190555050505080611d5890613c07565b9050611bb1565b508473ffffffffffffffffffffffffffffffffffffffff168673ffffffffffffffffffffffffffffffffffffffff168273ffffffffffffffffffffffffffffffffffffffff167f4a39dc06d4c0dbc64b70af90fd698a233a518aa5d07e595d983b8c0526c8f7fb8787604051611dd69291906140ee565b60405180910390a4611dec818787878787612397565b505050505050565b6001816000016000828254019250508190555050565b600073ffffffffffffffffffffffffffffffffffffffff168473ffffffffffffffffffffffffffffffffffffffff161415611e7a576040517f08c379a0000000000000000000000000000000000000000000000000000000008152600401611e7190614197565b60405180910390fd5b6000611e84611ad8565b9050611ea581600087611e968861256f565b611e9f8861256f565b8761238f565b8260008086815260200190815260200160002060008773ffffffffffffffffffffffffffffffffffffffff1673ffffffffffffffffffffffffffffffffffffffff1681526020019081526020016000206000828254611f049190613b82565b925050819055508473ffffffffffffffffffffffffffffffffffffffff16600073ffffffffffffffffffffffffffffffffffffffff168273ffffffffffffffffffffffffffffffffffffffff167fc3d58168c5ae7397731d063d5bbf3d657854427343f4c083240f7aacaa2d0f628787604051611f829291906141b7565b60405180910390a4611f99816000878787876125e9565b5050505050565b8173ffffffffffffffffffffffffffffffffffffffff168373ffffffffffffffffffffffffffffffffffffffff16141561200f576040517f08c379a000000000000000000000000000000000000000000000000000000000815260040161200690614252565b60405180910390fd5b80600160008573ffffffffffffffffffffffffffffffffffffffff1673ffffffffffffffffffffffffffffffffffffffff16815260200190815260200160002060008473ffffffffffffffffffffffffffffffffffffffff1673ffffffffffffffffffffffffffffffffffffffff16815260200190815260200160002060006101000a81548160ff0219169083151502179055508173ffffffffffffffffffffffffffffffffffffffff168373ffffffffffffffffffffffffffffffffffffffff167f17307eab39ab6107e8899845ad3d59bd9653f200f220920489ca2b5937696c31836040516121009190612b04565b60405180910390a3505050565b600073ffffffffffffffffffffffffffffffffffffffff168473ffffffffffffffffffffffffffffffffffffffff16141561217d576040517f08c379a00000000000000000000000000000000000000000000000000000000081526004016121749061403c565b60405180910390fd5b6000612187611ad8565b90506121a78187876121988861256f565b6121a18861256f565b8761238f565b600080600086815260200190815260200160002060008873ffffffffffffffffffffffffffffffffffffffff1673ffffffffffffffffffffffffffffffffffffffff1681526020019081526020016000205490508381101561223e576040517f08c379a0000000000000000000000000000000000000000000000000000000008152600401612235906140ce565b60405180910390fd5b83810360008087815260200190815260200160002060008973ffffffffffffffffffffffffffffffffffffffff1673ffffffffffffffffffffffffffffffffffffffff168152602001908152602001600020819055508360008087815260200190815260200160002060008873ffffffffffffffffffffffffffffffffffffffff1673ffffffffffffffffffffffffffffffffffffffff16815260200190815260200160002060008282546122f39190613b82565b925050819055508573ffffffffffffffffffffffffffffffffffffffff168773ffffffffffffffffffffffffffffffffffffffff168373ffffffffffffffffffffffffffffffffffffffff167fc3d58168c5ae7397731d063d5bbf3d657854427343f4c083240f7aacaa2d0f6288886040516123709291906141b7565b60405180910390a46123868288888888886125e9565b50505050505050565b505050505050565b6123b68473ffffffffffffffffffffffffffffffffffffffff166127c1565b15612567578373ffffffffffffffffffffffffffffffffffffffff1663bc197c8187878686866040518663ffffffff1660e01b81526004016123fc9594939291906142d6565b6020604051808303816000875af192505050801561243857506040513d601f19601f820116820180604052508101906124359190614353565b60015b6124de5761244461438d565b806308c379a014156124a157506124596143af565b8061246457506124a3565b806040517f08c379a00000000000000000000000000000000000000000000000000000000081526004016124989190612be5565b60405180910390fd5b505b6040517f08c379a00000000000000000000000000000000000000000000000000000000081526004016124d5906144b7565b60405180910390fd5b63bc197c8160e01b7bffffffffffffffffffffffffffffffffffffffffffffffffffffffff1916817bffffffffffffffffffffffffffffffffffffffffffffffffffffffff191614612565576040517f08c379a000000000000000000000000000000000000000000000000000000000815260040161255c90614549565b60405180910390fd5b505b505050505050565b60606000600167ffffffffffffffff81111561258e5761258d612d9c565b5b6040519080825280602002602001820160405280156125bc5781602001602082028036833780820191505090505b50905082816000815181106125d4576125d3613bd8565b5b60200260200101818152505080915050919050565b6126088473ffffffffffffffffffffffffffffffffffffffff166127c1565b156127b9578373ffffffffffffffffffffffffffffffffffffffff1663f23a6e6187878686866040518663ffffffff1660e01b815260040161264e959493929190614569565b6020604051808303816000875af192505050801561268a57506040513d601f19601f820116820180604052508101906126879190614353565b60015b6127305761269661438d565b806308c379a014156126f357506126ab6143af565b806126b657506126f5565b806040517f08c379a00000000000000000000000000000000000000000000000000000000081526004016126ea9190612be5565b60405180910390fd5b505b6040517f08c379a0000000000000000000000000000000000000000000000000000000008152600401612727906144b7565b60405180910390fd5b63f23a6e6160e01b7bffffffffffffffffffffffffffffffffffffffffffffffffffffffff1916817bffffffffffffffffffffffffffffffffffffffffffffffffffffffff1916146127b7576040517f08c379a00000000000000000000000000000000000000000000000000000000081526004016127ae90614549565b60405180910390fd5b505b505050505050565b600080823b905060008111915050919050565b6040518060c001604052806000815260200160008152602001600073ffffffffffffffffffffffffffffffffffffffff168152602001600073ffffffffffffffffffffffffffffffffffffffff168152602001600081526020016000151581525090565b6040518060a001604052806000815260200160008152602001600073ffffffffffffffffffffffffffffffffffffffff168152602001600081526020016000151581525090565b82805461288b90613aed565b90600052602060002090601f0160209004810192826128ad57600085556128f4565b82601f106128c657805160ff19168380011785556128f4565b828001600101855582156128f4579182015b828111156128f35782518255916020019190600101906128d8565b5b5090506129019190612935565b5090565b604051806040016040528060008152602001600073ffffffffffffffffffffffffffffffffffffffff1681525090565b5b8082111561294e576000816000905550600101612936565b5090565b6000604051905090565b600080fd5b600080fd5b600073ffffffffffffffffffffffffffffffffffffffff82169050919050565b600061299182612966565b9050919050565b6129a181612986565b81146129ac57600080fd5b50565b6000813590506129be81612998565b92915050565b6000819050919050565b6129d7816129c4565b81146129e257600080fd5b50565b6000813590506129f4816129ce565b92915050565b60008060408385031215612a1157612a1061295c565b5b6000612a1f858286016129af565b9250506020612a30858286016129e5565b9150509250929050565b612a43816129c4565b82525050565b6000602082019050612a5e6000830184612a3a565b92915050565b60007fffffffff0000000000000000000000000000000000000000000000000000000082169050919050565b612a9981612a64565b8114612aa457600080fd5b50565b600081359050612ab681612a90565b92915050565b600060208284031215612ad257612ad161295c565b5b6000612ae084828501612aa7565b91505092915050565b60008115159050919050565b612afe81612ae9565b82525050565b6000602082019050612b196000830184612af5565b92915050565b600060208284031215612b3557612b3461295c565b5b6000612b43848285016129e5565b91505092915050565b600081519050919050565b600082825260208201905092915050565b60005b83811015612b86578082015181840152602081019050612b6b565b83811115612b95576000848401525b50505050565b6000601f19601f8301169050919050565b6000612bb782612b4c565b612bc18185612b57565b9350612bd1818560208601612b68565b612bda81612b9b565b840191505092915050565b60006020820190508181036000830152612bff8184612bac565b905092915050565b600081519050919050565b600082825260208201905092915050565b6000819050602082019050919050565b612c3c816129c4565b82525050565b6000612c4d82612966565b9050919050565b612c5d81612c42565b82525050565b612c6c81612ae9565b82525050565b60c082016000820151612c886000850182612c33565b506020820151612c9b6020850182612c33565b506040820151612cae6040850182612c54565b506060820151612cc16060850182612c54565b506080820151612cd46080850182612c33565b5060a0820151612ce760a0850182612c63565b50505050565b6000612cf98383612c72565b60c08301905092915050565b6000602082019050919050565b6000612d1d82612c07565b612d278185612c12565b9350612d3283612c23565b8060005b83811015612d63578151612d4a8882612ced565b9750612d5583612d05565b925050600181019050612d36565b5085935050505092915050565b60006020820190508181036000830152612d8a8184612d12565b905092915050565b600080fd5b600080fd5b7f4e487b7100000000000000000000000000000000000000000000000000000000600052604160045260246000fd5b612dd482612b9b565b810181811067ffffffffffffffff82111715612df357612df2612d9c565b5b80604052505050565b6000612e06612952565b9050612e128282612dcb565b919050565b600067ffffffffffffffff821115612e3257612e31612d9c565b5b612e3b82612b9b565b9050602081019050919050565b82818337600083830152505050565b6000612e6a612e6584612e17565b612dfc565b905082815260208101848484011115612e8657612e85612d97565b5b612e91848285612e48565b509392505050565b600082601f830112612eae57612ead612d92565b5b8135612ebe848260208601612e57565b91505092915050565b60008060008060808587031215612ee157612ee061295c565b5b6000612eef878288016129af565b9450506020612f00878288016129af565b9350506040612f11878288016129e5565b925050606085013567ffffffffffffffff811115612f3257612f31612961565b5b612f3e87828801612e99565b91505092959194509250565b612f5381612a64565b82525050565b6000602082019050612f6e6000830184612f4a565b92915050565b60c082016000820151612f8a6000850182612c33565b506020820151612f9d6020850182612c33565b506040820151612fb06040850182612c54565b506060820151612fc36060850182612c54565b506080820151612fd66080850182612c33565b5060a0820151612fe960a0850182612c63565b50505050565b600060c0820190506130046000830184612f74565b92915050565b600067ffffffffffffffff82111561302557613024612d9c565b5b602082029050602081019050919050565b600080fd5b600061304e6130498461300a565b612dfc565b9050808382526020820190506020840283018581111561307157613070613036565b5b835b8181101561309a578061308688826129e5565b845260208401935050602081019050613073565b5050509392505050565b600082601f8301126130b9576130b8612d92565b5b81356130c984826020860161303b565b91505092915050565b600080600080600060a086880312156130ee576130ed61295c565b5b60006130fc888289016129af565b955050602061310d888289016129af565b945050604086013567ffffffffffffffff81111561312e5761312d612961565b5b61313a888289016130a4565b935050606086013567ffffffffffffffff81111561315b5761315a612961565b5b613167888289016130a4565b925050608086013567ffffffffffffffff81111561318857613187612961565b5b61319488828901612e99565b9150509295509295909350565b6000602082840312156131b7576131b661295c565b5b60006131c5848285016129af565b91505092915050565b600081519050919050565b600082825260208201905092915050565b6000819050602082019050919050565b6040820160008201516132106000850182612c33565b5060208201516132236020850182612c54565b50505050565b600061323583836131fa565b60408301905092915050565b6000602082019050919050565b6000613259826131ce565b61326381856131d9565b935061326e836131ea565b8060005b8381101561329f5781516132868882613229565b975061329183613241565b925050600181019050613272565b5085935050505092915050565b600060208201905081810360008301526132c6818461324e565b905092915050565b600080604083850312156132e5576132e461295c565b5b60006132f3858286016129e5565b9250506020613304858286016129e5565b9150509250929050565b600067ffffffffffffffff82111561332957613328612d9c565b5b602082029050602081019050919050565b600061334d6133488461330e565b612dfc565b905080838252602082019050602084028301858111156133705761336f613036565b5b835b81811015613399578061338588826129af565b845260208401935050602081019050613372565b5050509392505050565b600082601f8301126133b8576133b7612d92565b5b81356133c884826020860161333a565b91505092915050565b600080604083850312156133e8576133e761295c565b5b600083013567ffffffffffffffff81111561340657613405612961565b5b613412858286016133a3565b925050602083013567ffffffffffffffff81111561343357613432612961565b5b61343f858286016130a4565b9150509250929050565b600081519050919050565b600082825260208201905092915050565b6000819050602082019050919050565b60006134818383612c33565b60208301905092915050565b6000602082019050919050565b60006134a582613449565b6134af8185613454565b93506134ba83613465565b8060005b838110156134eb5781516134d28882613475565b97506134dd8361348d565b9250506001810190506134be565b5085935050505092915050565b60006020820190508181036000830152613512818461349a565b905092915050565b60a0820160008201516135306000850182612c33565b5060208201516135436020850182612c33565b5060408201516135566040850182612c54565b5060608201516135696060850182612c33565b50608082015161357c6080850182612c63565b50505050565b600060a082019050613597600083018461351a565b92915050565b600067ffffffffffffffff8211156135b8576135b7612d9c565b5b6135c182612b9b565b9050602081019050919050565b60006135e16135dc8461359d565b612dfc565b9050828152602081018484840111156135fd576135fc612d97565b5b613608848285612e48565b509392505050565b600082601f83011261362557613624612d92565b5b81356136358482602086016135ce565b91505092915050565b600080604083850312156136555761365461295c565b5b6000613663858286016129e5565b925050602083013567ffffffffffffffff81111561368457613683612961565b5b61369085828601613610565b9150509250929050565b6040820160008201516136b06000850182612c33565b5060208201516136c36020850182612c54565b50505050565b60006040820190506136de600083018461369a565b92915050565b600080600080608085870312156136fe576136fd61295c565b5b600085013567ffffffffffffffff81111561371c5761371b612961565b5b61372887828801613610565b9450506020613739878288016129e5565b935050604061374a878288016129e5565b925050606061375b878288016129e5565b91505092959194509250565b60006020828403121561377d5761377c61295c565b5b600082013567ffffffffffffffff81111561379b5761379a612961565b5b6137a784828501613610565b91505092915050565b6137b981612ae9565b81146137c457600080fd5b50565b6000813590506137d6816137b0565b92915050565b600080604083850312156137f3576137f261295c565b5b6000613801858286016129af565b9250506020613812858286016137c7565b9150509250929050565b600080604083850312156138335761383261295c565b5b6000613841858286016129af565b9250506020613852858286016129af565b9150509250929050565b600080600080600060a086880312156138785761387761295c565b5b6000613886888289016129af565b9550506020613897888289016129af565b94505060406138a8888289016129e5565b93505060606138b9888289016129e5565b925050608086013567ffffffffffffffff8111156138da576138d9612961565b5b6138e688828901612e99565b9150509295509295909350565b600081519050919050565b600082825260208201905092915050565b6000819050602082019050919050565b60a0820160008201516139356000850182612c33565b5060208201516139486020850182612c33565b50604082015161395b6040850182612c54565b50606082015161396e6060850182612c33565b5060808201516139816080850182612c63565b50505050565b6000613993838361391f565b60a08301905092915050565b6000602082019050919050565b60006139b7826138f3565b6139c181856138fe565b93506139cc8361390f565b8060005b838110156139fd5781516139e48882613987565b97506139ef8361399f565b9250506001810190506139d0565b5085935050505092915050565b60006020820190508181036000830152613a2481846139ac565b905092915050565b7f455243313135353a2062616c616e636520717565727920666f7220746865207a60008201527f65726f2061646472657373000000000000000000000000000000000000000000602082015250565b6000613a88602b83612b57565b9150613a9382613a2c565b604082019050919050565b60006020820190508181036000830152613ab781613a7b565b9050919050565b7f4e487b7100000000000000000000000000000000000000000000000000000000600052602260045260246000fd5b60006002820490506001821680613b0557607f821691505b60208210811415613b1957613b18613abe565b5b50919050565b7f4e487b7100000000000000000000000000000000000000000000000000000000600052601160045260246000fd5b6000613b59826129c4565b9150613b64836129c4565b925082821015613b7757613b76613b1f565b5b828203905092915050565b6000613b8d826129c4565b9150613b98836129c4565b9250827fffffffffffffffffffffffffffffffffffffffffffffffffffffffffffffffff03821115613bcd57613bcc613b1f565b5b828201905092915050565b7f4e487b7100000000000000000000000000000000000000000000000000000000600052603260045260246000fd5b6000613c12826129c4565b91507fffffffffffffffffffffffffffffffffffffffffffffffffffffffffffffffff821415613c4557613c44613b1f565b5b600182019050919050565b7f455243313135353a207472616e736665722063616c6c6572206973206e6f742060008201527f6f776e6572206e6f7220617070726f7665640000000000000000000000000000602082015250565b6000613cac603283612b57565b9150613cb782613c50565b604082019050919050565b60006020820190508181036000830152613cdb81613c9f565b9050919050565b6000613ced826129c4565b9150613cf8836129c4565b9250817fffffffffffffffffffffffffffffffffffffffffffffffffffffffffffffffff0483118215151615613d3157613d30613b1f565b5b828202905092915050565b7f6d73672e76616c756520213d207072696365202a2a20646563696d616c730000600082015250565b6000613d72601e83612b57565b9150613d7d82613d3c565b602082019050919050565b60006020820190508181036000830152613da181613d65565b9050919050565b7f5072696365206d757374206265206174206c6561737420312077656900000000600082015250565b6000613dde601c83612b57565b9150613de982613da8565b602082019050919050565b60006020820190508181036000830152613e0d81613dd1565b9050919050565b7f455243313135353a206163636f756e747320616e6420696473206c656e67746860008201527f206d69736d617463680000000000000000000000000000000000000000000000602082015250565b6000613e70602983612b57565b9150613e7b82613e14565b604082019050919050565b60006020820190508181036000830152613e9f81613e63565b9050919050565b7f455243313135353a2063616c6c6572206973206e6f74206f776e6572206e6f7260008201527f20617070726f7665640000000000000000000000000000000000000000000000602082015250565b6000613f02602983612b57565b9150613f0d82613ea6565b604082019050919050565b60006020820190508181036000830152613f3181613ef5565b9050919050565b7f455243313135353a2069647320616e6420616d6f756e7473206c656e6774682060008201527f6d69736d61746368000000000000000000000000000000000000000000000000602082015250565b6000613f94602883612b57565b9150613f9f82613f38565b604082019050919050565b60006020820190508181036000830152613fc381613f87565b9050919050565b7f455243313135353a207472616e7366657220746f20746865207a65726f20616460008201527f6472657373000000000000000000000000000000000000000000000000000000602082015250565b6000614026602583612b57565b915061403182613fca565b604082019050919050565b6000602082019050818103600083015261405581614019565b9050919050565b7f455243313135353a20696e73756666696369656e742062616c616e636520666f60008201527f72207472616e7366657200000000000000000000000000000000000000000000602082015250565b60006140b8602a83612b57565b91506140c38261405c565b604082019050919050565b600060208201905081810360008301526140e7816140ab565b9050919050565b60006040820190508181036000830152614108818561349a565b9050818103602083015261411c818461349a565b90509392505050565b7f455243313135353a206d696e7420746f20746865207a65726f2061646472657360008201527f7300000000000000000000000000000000000000000000000000000000000000602082015250565b6000614181602183612b57565b915061418c82614125565b604082019050919050565b600060208201905081810360008301526141b081614174565b9050919050565b60006040820190506141cc6000830185612a3a565b6141d96020830184612a3a565b9392505050565b7f455243313135353a2073657474696e6720617070726f76616c2073746174757360008201527f20666f722073656c660000000000000000000000000000000000000000000000602082015250565b600061423c602983612b57565b9150614247826141e0565b604082019050919050565b6000602082019050818103600083015261426b8161422f565b9050919050565b61427b81612986565b82525050565b600081519050919050565b600082825260208201905092915050565b60006142a882614281565b6142b2818561428c565b93506142c2818560208601612b68565b6142cb81612b9b565b840191505092915050565b600060a0820190506142eb6000830188614272565b6142f86020830187614272565b818103604083015261430a818661349a565b9050818103606083015261431e818561349a565b90508181036080830152614332818461429d565b90509695505050505050565b60008151905061434d81612a90565b92915050565b6000602082840312156143695761436861295c565b5b60006143778482850161433e565b91505092915050565b60008160e01c9050919050565b600060033d11156143ac5760046000803e6143a9600051614380565b90505b90565b600060443d10156143bf57614442565b6143c7612952565b60043d036004823e80513d602482011167ffffffffffffffff821117156143ef575050614442565b808201805167ffffffffffffffff81111561440d5750505050614442565b80602083010160043d03850181111561442a575050505050614442565b61443982602001850186612dcb565b82955050505050505b90565b7f455243313135353a207472616e7366657220746f206e6f6e204552433131353560008201527f526563656976657220696d706c656d656e746572000000000000000000000000602082015250565b60006144a1603483612b57565b91506144ac82614445565b604082019050919050565b600060208201905081810360008301526144d081614494565b9050919050565b7f455243313135353a204552433131353552656365697665722072656a6563746560008201527f6420746f6b656e73000000000000000000000000000000000000000000000000602082015250565b6000614533602883612b57565b915061453e826144d7565b604082019050919050565b6000602082019050818103600083015261456281614526565b9050919050565b600060a08201905061457e6000830188614272565b61458b6020830187614272565b6145986040830186612a3a565b6145a56060830185612a3a565b81810360808301526145b7818461429d565b9050969550505050505056fea264697066735822122045553eb5346ef9eb0f9e55dadd3914739666016042d1a742d959616798a7a1dc64736f6c634300080b0033",
  "immutableReferences": {},
  "source": "// SPDX-License-Identifier: MIT\r\npragma solidity ^0.8.11;\r\n\r\nimport \"@openzeppelin/contracts/token/ERC1155/ERC1155.sol\";\r\nimport \"@openzeppelin/contracts/utils/Counters.sol\";\r\n\r\ncontract Event is ERC1155 {\r\n    using Counters for Counters.Counter;\r\n    Counters.Counter private _tokenIds;\r\n    Counters.Counter private _itemIds;\r\n    Counters.Counter private _itemsSold;\r\n    address payable owner;\r\n\r\n    constructor() ERC1155(\"\") {\r\n        owner = payable(msg.sender);\r\n    }\r\n\r\n    mapping(uint256 => string) private _uris;\r\n\r\n    struct EventItem {\r\n        uint256 tokenId;\r\n        address payable owner;\r\n    }\r\n\r\n    struct TicketItem {\r\n        uint256 tokenId;\r\n        uint256 eventTokenId;\r\n        address payable owner;\r\n        uint256 price;\r\n        bool list;\r\n    }\r\n\r\n    struct MarketItem {\r\n        uint256 itemId;\r\n        uint256 tokenId;\r\n        address payable seller;\r\n        address payable owner;\r\n        uint256 price;\r\n        bool sold;\r\n    }\r\n\r\n    mapping(uint256 => EventItem) private eventToken;\r\n    mapping(uint256 => TicketItem) private ticketToken;\r\n    mapping(uint256 => TicketItem[]) private ticketsInEvent;\r\n    mapping(uint256 => MarketItem) private ticketInMarket;\r\n\r\n    mapping(address => EventItem[]) private createdEvents;\r\n\r\n    function uri(uint256 tokenId) public view override returns (string memory) {\r\n        return (_uris[tokenId]);\r\n    }\r\n\r\n    function setTokenUri(uint256 tokenId, string memory tokenUri) public {\r\n        // require(bytes(_uris[tokenId]).length == 0, \"Cannot set uri twice\");\r\n        _uris[tokenId] = tokenUri;\r\n    }\r\n\r\n    function mintEvent(string memory tokenUri) public {\r\n        _tokenIds.increment();\r\n        uint256 newItemId = _tokenIds.current();\r\n\r\n        _mint(msg.sender, newItemId, 1, \"\");\r\n        setTokenUri(newItemId, tokenUri);\r\n        eventToken[newItemId] = EventItem(newItemId, payable(msg.sender));\r\n        createdEvents[msg.sender].push(eventToken[newItemId]);\r\n    }\r\n\r\n    function mintTicket(\r\n        string memory tokenUri,\r\n        uint256 eventTokenId,\r\n        uint256 quantity,\r\n        uint256 price\r\n    ) public {\r\n        for (uint256 i = 0; i < quantity; i++) {\r\n            _tokenIds.increment();\r\n            uint256 newItemId = _tokenIds.current();\r\n\r\n            _mint(msg.sender, newItemId, 1, \"\");\r\n            setTokenUri(newItemId, tokenUri);\r\n            ticketToken[newItemId] = TicketItem(\r\n                newItemId,\r\n                eventTokenId,\r\n                payable(msg.sender),\r\n                price,\r\n                false\r\n            );\r\n            ticketsInEvent[eventTokenId].push(ticketToken[newItemId]);\r\n            createMarketItem(newItemId, price);\r\n        }\r\n    }\r\n\r\n    function createMarketItem(uint256 tokenId, uint256 price) public payable {\r\n        require(price > 0, \"Price must be at least 1 wei\");\r\n        _itemIds.increment();\r\n        uint256 itemId = _itemIds.current();\r\n\r\n        ticketInMarket[itemId] = MarketItem(\r\n            itemId,\r\n            tokenId,\r\n            payable(msg.sender),\r\n            payable(msg.sender),\r\n            price,\r\n            false\r\n        );\r\n\r\n        ticketToken[tokenId].list = true;\r\n\r\n        safeTransferFrom(msg.sender, address(this), tokenId, 1, \"\");\r\n    }\r\n\r\n    function buyMarketItem(uint256 itemId) public payable {\r\n        uint256 price = ticketInMarket[itemId].price;\r\n        uint256 tokenId = ticketInMarket[itemId].tokenId;\r\n        require(\r\n            msg.value == price * (10**10),\r\n            \"msg.value != price ** decimals\"\r\n        );\r\n\r\n        ticketInMarket[itemId].seller.transfer(msg.value);\r\n        ticketInMarket[itemId].owner = payable(msg.sender);\r\n        ticketInMarket[itemId].sold = true;\r\n        ticketToken[tokenId].list = false;\r\n        _itemsSold.increment();\r\n\r\n        safeTransferFrom(address(this), msg.sender, tokenId, 1, \"\");\r\n    }\r\n\r\n    function fetchMarketItem(uint256 tokenId)\r\n        public\r\n        view\r\n        returns (MarketItem memory)\r\n    {\r\n        uint256 itemCount = _itemIds.current();\r\n        MarketItem memory item;\r\n\r\n        for (uint256 i = 0; i < itemCount; i++) {\r\n            if (ticketInMarket[i + 1].tokenId == tokenId) {\r\n                uint256 currentId = i + 1;\r\n                item = ticketInMarket[currentId];\r\n            }\r\n        }\r\n        return item;\r\n    }\r\n\r\n    function fetchMarketItems() public view returns (MarketItem[] memory) {\r\n        uint256 itemCount = _itemIds.current();\r\n        uint256 unsoldItemCount = _itemIds.current() - _itemsSold.current();\r\n        uint256 currentIndex = 0;\r\n\r\n        MarketItem[] memory items = new MarketItem[](unsoldItemCount);\r\n        for (uint256 i = 0; i < itemCount; i++) {\r\n            if (!ticketInMarket[i + 1].sold) {\r\n                uint256 currentId = i + 1;\r\n                MarketItem storage currentItem = ticketInMarket[currentId];\r\n                items[currentIndex] = currentItem;\r\n                currentIndex += 1;\r\n            }\r\n        }\r\n        return items;\r\n    }\r\n\r\n    function fetchCreatedEvents(address account)\r\n        public\r\n        view\r\n        returns (EventItem[] memory)\r\n    {\r\n        EventItem[] memory items = createdEvents[account];\r\n        return items;\r\n    }\r\n\r\n    function fetchTicketsInEvent(uint256 eventTokenId)\r\n        public\r\n        view\r\n        returns (TicketItem[] memory)\r\n    {\r\n        TicketItem[] memory items = ticketsInEvent[eventTokenId];\r\n        return items;\r\n    }\r\n\r\n    function fetchEvent(uint256 tokenId)\r\n        public\r\n        view\r\n        returns (EventItem memory)\r\n    {\r\n        EventItem memory item = eventToken[tokenId];\r\n        return item;\r\n    }\r\n\r\n    function fetchTicket(uint256 tokenId)\r\n        public\r\n        view\r\n        returns (TicketItem memory)\r\n    {\r\n        TicketItem memory item = ticketToken[tokenId];\r\n        return item;\r\n    }\r\n\r\n    function onERC1155Received(\r\n        address,\r\n        address,\r\n        uint256,\r\n        uint256,\r\n        bytes memory\r\n    ) public virtual returns (bytes4) {\r\n        return this.onERC1155Received.selector;\r\n    }\r\n\r\n    function onERC1155BatchReceived(\r\n        address,\r\n        address,\r\n        uint256[] memory,\r\n        uint256[] memory,\r\n        bytes memory\r\n    ) public virtual returns (bytes4) {\r\n        return this.onERC1155BatchReceived.selector;\r\n    }\r\n\r\n    function onERC721Received(\r\n        address,\r\n        address,\r\n        uint256,\r\n        bytes memory\r\n    ) public virtual returns (bytes4) {\r\n        return this.onERC721Received.selector;\r\n    }\r\n}\r\n",
  "sourcePath": "D:\\Final Project\\ticketplace\\contracts\\Event.sol",
  "compiler": {
    "name": "solc",
    "version": "0.8.11+commit.d7f03943.Emscripten.clang"
  },
  "schemaVersion": "3.4.4",
  "updatedAt": "2022-02-17T14:17:08.165Z",
  "networkType": "ethereum",
  "devdoc": {
    "kind": "dev",
    "methods": {
      "balanceOf(address,uint256)": {
        "details": "See {IERC1155-balanceOf}. Requirements: - `account` cannot be the zero address."
      },
      "balanceOfBatch(address[],uint256[])": {
        "details": "See {IERC1155-balanceOfBatch}. Requirements: - `accounts` and `ids` must have the same length."
      },
      "isApprovedForAll(address,address)": {
        "details": "See {IERC1155-isApprovedForAll}."
      },
      "safeBatchTransferFrom(address,address,uint256[],uint256[],bytes)": {
        "details": "See {IERC1155-safeBatchTransferFrom}."
      },
      "safeTransferFrom(address,address,uint256,uint256,bytes)": {
        "details": "See {IERC1155-safeTransferFrom}."
      },
      "setApprovalForAll(address,bool)": {
        "details": "See {IERC1155-setApprovalForAll}."
      },
      "supportsInterface(bytes4)": {
        "details": "See {IERC165-supportsInterface}."
      }
    },
    "version": 1
  },
  "userdoc": {
    "kind": "user",
    "methods": {},
    "version": 1
  }
}