{
  "contractName": "Market",
  "abi": [
    {
      "anonymous": false,
      "inputs": [
        {
          "indexed": false,
          "internalType": "uint256",
          "name": "listingId",
          "type": "uint256"
        },
        {
          "indexed": false,
          "internalType": "address",
          "name": "seller",
          "type": "address"
        }
      ],
      "name": "Cancel",
      "type": "event"
    },
    {
      "anonymous": false,
      "inputs": [
        {
          "indexed": false,
          "internalType": "uint256",
          "name": "listingId",
          "type": "uint256"
        },
        {
          "indexed": false,
          "internalType": "address",
          "name": "seller",
          "type": "address"
        },
        {
          "indexed": false,
          "internalType": "address",
          "name": "token",
          "type": "address"
        },
        {
          "indexed": false,
          "internalType": "uint256",
          "name": "tokenId",
          "type": "uint256"
        },
        {
          "indexed": false,
          "internalType": "uint256",
          "name": "price",
          "type": "uint256"
        }
      ],
      "name": "Listed",
      "type": "event"
    },
    {
      "anonymous": false,
      "inputs": [
        {
          "indexed": false,
          "internalType": "uint256",
          "name": "listingId",
          "type": "uint256"
        },
        {
          "indexed": false,
          "internalType": "address",
          "name": "buyer",
          "type": "address"
        },
        {
          "indexed": false,
          "internalType": "address",
          "name": "token",
          "type": "address"
        },
        {
          "indexed": false,
          "internalType": "uint256",
          "name": "tokenId",
          "type": "uint256"
        },
        {
          "indexed": false,
          "internalType": "uint256",
          "name": "price",
          "type": "uint256"
        }
      ],
      "name": "Sale",
      "type": "event"
    },
    {
      "inputs": [
        {
          "internalType": "address",
          "name": "token",
          "type": "address"
        },
        {
          "internalType": "uint256",
          "name": "tokenId",
          "type": "uint256"
        },
        {
          "internalType": "uint256",
          "name": "price",
          "type": "uint256"
        }
      ],
      "name": "listToken",
      "outputs": [],
      "stateMutability": "nonpayable",
      "type": "function"
    },
    {
      "inputs": [
        {
          "internalType": "uint256",
          "name": "listingId",
          "type": "uint256"
        }
      ],
      "name": "getListing",
      "outputs": [
        {
          "components": [
            {
              "internalType": "enum Market.ListingStatus",
              "name": "status",
              "type": "uint8"
            },
            {
              "internalType": "address",
              "name": "seller",
              "type": "address"
            },
            {
              "internalType": "address",
              "name": "token",
              "type": "address"
            },
            {
              "internalType": "uint256",
              "name": "tokenId",
              "type": "uint256"
            },
            {
              "internalType": "uint256",
              "name": "price",
              "type": "uint256"
            }
          ],
          "internalType": "struct Market.Listing",
          "name": "listing",
          "type": "tuple"
        }
      ],
      "stateMutability": "view",
      "type": "function",
      "constant": true
    },
    {
      "inputs": [
        {
          "internalType": "uint256",
          "name": "listingId",
          "type": "uint256"
        }
      ],
      "name": "buyToken",
      "outputs": [],
      "stateMutability": "payable",
      "type": "function",
      "payable": true
    },
    {
      "inputs": [
        {
          "internalType": "uint256",
          "name": "listingId",
          "type": "uint256"
        }
      ],
      "name": "cancel",
      "outputs": [],
      "stateMutability": "nonpayable",
      "type": "function"
    }
  ],
  "bytecode": "0x60806040526000805534801561001457600080fd5b50610f68806100246000396000f3fe60806040526004361061003f5760003560e01c8063107a274a146100445780632d296bf11461008157806340e58ee51461009d5780637e07590d146100c6575b600080fd5b34801561005057600080fd5b5061006b60048036038101906100669190610a32565b6100ef565b6040516100789190610b8e565b60405180910390f35b61009b60048036038101906100969190610a32565b610217565b005b3480156100a957600080fd5b506100c460048036038101906100bf9190610a32565b610523565b005b3480156100d257600080fd5b506100ed60048036038101906100e89190610bd5565b610769565b005b6100f761098a565b600160008381526020019081526020016000206040518060a00160405290816000820160009054906101000a900460ff16600281111561013a57610139610a5f565b5b600281111561014c5761014b610a5f565b5b81526020016000820160019054906101000a900473ffffffffffffffffffffffffffffffffffffffff1673ffffffffffffffffffffffffffffffffffffffff1673ffffffffffffffffffffffffffffffffffffffff1681526020016001820160009054906101000a900473ffffffffffffffffffffffffffffffffffffffff1673ffffffffffffffffffffffffffffffffffffffff1673ffffffffffffffffffffffffffffffffffffffff168152602001600282015481526020016003820154815250509050919050565b60006001600083815260200190815260200160002090508060000160019054906101000a900473ffffffffffffffffffffffffffffffffffffffff1673ffffffffffffffffffffffffffffffffffffffff163373ffffffffffffffffffffffffffffffffffffffff1614156102c1576040517f08c379a00000000000000000000000000000000000000000000000000000000081526004016102b890610c85565b60405180910390fd5b600060028111156102d5576102d4610a5f565b5b8160000160009054906101000a900460ff1660028111156102f9576102f8610a5f565b5b141561033a576040517f08c379a000000000000000000000000000000000000000000000000000000000815260040161033190610cf1565b60405180910390fd5b8060030154341015610381576040517f08c379a000000000000000000000000000000000000000000000000000000000815260040161037890610d5d565b60405180910390fd5b8060000160019054906101000a900473ffffffffffffffffffffffffffffffffffffffff1673ffffffffffffffffffffffffffffffffffffffff166108fc82600301549081150290604051600060405180830381858888f193505050501580156103ef573d6000803e3d6000fd5b508060010160009054906101000a900473ffffffffffffffffffffffffffffffffffffffff1673ffffffffffffffffffffffffffffffffffffffff166323b872dd303384600201546040518463ffffffff1660e01b815260040161045593929190610d9b565b600060405180830381600087803b15801561046f57600080fd5b505af1158015610483573d6000803e3d6000fd5b5050505060018160000160006101000a81548160ff021916908360028111156104af576104ae610a5f565b5b02179055507ff3debaf22196a6ddf52a60fa71058cd7edf5e25bb98f4e96c994a5d4a9b0dd3e82338360010160009054906101000a900473ffffffffffffffffffffffffffffffffffffffff1684600201548560030154604051610517959493929190610dd2565b60405180910390a15050565b60006001600083815260200190815260200160002090508060000160019054906101000a900473ffffffffffffffffffffffffffffffffffffffff1673ffffffffffffffffffffffffffffffffffffffff163373ffffffffffffffffffffffffffffffffffffffff16146105cc576040517f08c379a00000000000000000000000000000000000000000000000000000000081526004016105c390610e71565b60405180910390fd5b600060028111156105e0576105df610a5f565b5b8160000160009054906101000a900460ff16600281111561060457610603610a5f565b5b14610644576040517f08c379a000000000000000000000000000000000000000000000000000000000815260040161063b90610cf1565b60405180910390fd5b60028160000160006101000a81548160ff0219169083600281111561066c5761066b610a5f565b5b02179055508060010160009054906101000a900473ffffffffffffffffffffffffffffffffffffffff1673ffffffffffffffffffffffffffffffffffffffff166323b872dd303384600201546040518463ffffffff1660e01b81526004016106d693929190610d9b565b600060405180830381600087803b1580156106f057600080fd5b505af1158015610704573d6000803e3d6000fd5b505050507f8dd3c361eb2366ff27c2db0eb07b9261f1d052570742ab8c9a0c326f37aa576d828260000160019054906101000a900473ffffffffffffffffffffffffffffffffffffffff1660405161075d929190610e91565b60405180910390a15050565b8273ffffffffffffffffffffffffffffffffffffffff166323b872dd3330856040518463ffffffff1660e01b81526004016107a693929190610d9b565b600060405180830381600087803b1580156107c057600080fd5b505af11580156107d4573d6000803e3d6000fd5b5050505060006040518060a00160405280600060028111156107f9576107f8610a5f565b5b81526020013373ffffffffffffffffffffffffffffffffffffffff1681526020018573ffffffffffffffffffffffffffffffffffffffff16815260200184815260200183815250905060008081548092919061085490610ee9565b919050555080600160008054815260200190815260200160002060008201518160000160006101000a81548160ff0219169083600281111561089957610898610a5f565b5b021790555060208201518160000160016101000a81548173ffffffffffffffffffffffffffffffffffffffff021916908373ffffffffffffffffffffffffffffffffffffffff16021790555060408201518160010160006101000a81548173ffffffffffffffffffffffffffffffffffffffff021916908373ffffffffffffffffffffffffffffffffffffffff16021790555060608201518160020155608082015181600301559050507f723f73331eaee88eec7fc68ef60ab6ed15e4b90d0472b55eb92fa43910bab6dd6000543386868660405161097c959493929190610dd2565b60405180910390a150505050565b6040518060a00160405280600060028111156109a9576109a8610a5f565b5b8152602001600073ffffffffffffffffffffffffffffffffffffffff168152602001600073ffffffffffffffffffffffffffffffffffffffff16815260200160008152602001600081525090565b600080fd5b6000819050919050565b610a0f816109fc565b8114610a1a57600080fd5b50565b600081359050610a2c81610a06565b92915050565b600060208284031215610a4857610a476109f7565b5b6000610a5684828501610a1d565b91505092915050565b7f4e487b7100000000000000000000000000000000000000000000000000000000600052602160045260246000fd5b60038110610a9f57610a9e610a5f565b5b50565b6000819050610ab082610a8e565b919050565b6000610ac082610aa2565b9050919050565b610ad081610ab5565b82525050565b600073ffffffffffffffffffffffffffffffffffffffff82169050919050565b6000610b0182610ad6565b9050919050565b610b1181610af6565b82525050565b610b20816109fc565b82525050565b60a082016000820151610b3c6000850182610ac7565b506020820151610b4f6020850182610b08565b506040820151610b626040850182610b08565b506060820151610b756060850182610b17565b506080820151610b886080850182610b17565b50505050565b600060a082019050610ba36000830184610b26565b92915050565b610bb281610af6565b8114610bbd57600080fd5b50565b600081359050610bcf81610ba9565b92915050565b600080600060608486031215610bee57610bed6109f7565b5b6000610bfc86828701610bc0565b9350506020610c0d86828701610a1d565b9250506040610c1e86828701610a1d565b9150509250925092565b600082825260208201905092915050565b7f53656c6c65722063616e6e6f7420626520627579657200000000000000000000600082015250565b6000610c6f601683610c28565b9150610c7a82610c39565b602082019050919050565b60006020820190508181036000830152610c9e81610c62565b9050919050565b7f4c697374696e67206973206e6f74206163746976650000000000000000000000600082015250565b6000610cdb601583610c28565b9150610ce682610ca5565b602082019050919050565b60006020820190508181036000830152610d0a81610cce565b9050919050565b7f496e73756666696369656e74207061796d656e74000000000000000000000000600082015250565b6000610d47601483610c28565b9150610d5282610d11565b602082019050919050565b60006020820190508181036000830152610d7681610d3a565b9050919050565b610d8681610af6565b82525050565b610d95816109fc565b82525050565b6000606082019050610db06000830186610d7d565b610dbd6020830185610d7d565b610dca6040830184610d8c565b949350505050565b600060a082019050610de76000830188610d8c565b610df46020830187610d7d565b610e016040830186610d7d565b610e0e6060830185610d8c565b610e1b6080830184610d8c565b9695505050505050565b7f4f6e6c792073656c6c65722063616e2063616e63656c206c697374696e670000600082015250565b6000610e5b601e83610c28565b9150610e6682610e25565b602082019050919050565b60006020820190508181036000830152610e8a81610e4e565b9050919050565b6000604082019050610ea66000830185610d8c565b610eb36020830184610d7d565b9392505050565b7f4e487b7100000000000000000000000000000000000000000000000000000000600052601160045260246000fd5b6000610ef4826109fc565b91507fffffffffffffffffffffffffffffffffffffffffffffffffffffffffffffffff821415610f2757610f26610eba565b5b60018201905091905056fea26469706673582212208d68bb7f2203d4ce45ed77a99fa1ead7ac6d8113df09e6f30cfdc17394e4981464736f6c634300080b0033",
  "immutableReferences": {},
  "source": "// SPDX-License-Identifier: MIT\r\npragma solidity ^0.8.11;\r\n\r\nimport \"./IERC721.sol\";\r\n\r\ncontract Market {\r\n    // public - anyone can call\r\n    // private - only this contract\r\n    // internal - only this contract and inheriting contracts\r\n    // external - only external calls\r\n\r\n    enum ListingStatus {\r\n        Active,\r\n        Sold,\r\n        Cancelled\r\n    }\r\n\r\n    struct Listing {\r\n        ListingStatus status;\r\n        address seller;\r\n        address token;\r\n        uint tokenId;\r\n        uint price;\r\n    }\r\n\r\n    event Listed(\r\n        uint listingId,\r\n        address seller,\r\n        address token,\r\n        uint tokenId,\r\n        uint price\r\n    );\r\n\r\n    event Sale(\r\n        uint listingId,\r\n        address buyer,\r\n        address token,\r\n        uint tokenId,\r\n        uint price\r\n    );\r\n\r\n    event Cancel(\r\n        uint listingId,\r\n        address seller\r\n    );\r\n\r\n    uint private _listingId = 0;\r\n    mapping(uint => Listing) private _listing;\r\n\r\n    function listToken(address token, uint tokenId, uint price) external {\r\n        IERC721(token).transferFrom(msg.sender, address(this), tokenId);\r\n\r\n        Listing memory listing = Listing(\r\n            ListingStatus.Active,\r\n            msg.sender,\r\n            token,\r\n            tokenId,\r\n            price\r\n        );\r\n\r\n        _listingId++;\r\n\r\n        _listing[_listingId] = listing;\r\n\r\n        emit Listed(_listingId, msg.sender, token, tokenId, price);\r\n    }\r\n\r\n    // fuction can read and write\r\n    // view - read only\r\n    // pure - no read, no write\r\n\r\n    function getListing(uint listingId) public view returns (Listing memory listing) {\r\n        return _listing[listingId];\r\n    }\r\n\r\n    function buyToken(uint listingId) external payable {\r\n        Listing storage listing = _listing[listingId];\r\n\r\n        require(msg.sender != listing.seller, \"Seller cannot be buyer\");\r\n        require(listing.status != ListingStatus.Active, \"Listing is not active\");\r\n\r\n        require(msg.value >= listing.price, \"Insufficient payment\");\r\n\r\n        payable(listing.seller).transfer(listing.price);\r\n        IERC721(listing.token).transferFrom(address(this), msg.sender, listing.tokenId);\r\n\r\n        listing.status = ListingStatus.Sold;\r\n\r\n        emit Sale(listingId, msg.sender, listing.token, listing.tokenId, listing.price);\r\n    }\r\n\r\n    function cancel(uint listingId) public {\r\n        Listing storage listing = _listing[listingId];\r\n\r\n        require(msg.sender == listing.seller, \"Only seller can cancel listing\");\r\n        require(listing.status == ListingStatus.Active, \"Listing is not active\");\r\n\r\n        listing.status = ListingStatus.Cancelled;\r\n        \r\n        IERC721(listing.token).transferFrom(address(this), msg.sender, listing.tokenId);\r\n\r\n        emit Cancel(listingId, listing.seller);\r\n    }\r\n}",
  "sourcePath": "D:\\Final Project\\ticketplace\\contracts\\Market.sol",
  "compiler": {
    "name": "solc",
    "version": "0.8.11+commit.d7f03943.Emscripten.clang"
  },
  "schemaVersion": "3.4.4",
  "updatedAt": "2022-01-27T18:27:12.017Z",
  "networkType": "ethereum",
  "devdoc": {
    "kind": "dev",
    "methods": {},
    "version": 1
  },
  "userdoc": {
    "kind": "user",
    "methods": {},
    "version": 1
  }
}