{
  "contractName": "Market",
  "abi": [
    {
      "inputs": [],
      "stateMutability": "nonpayable",
      "type": "constructor"
    },
    {
      "anonymous": false,
      "inputs": [
        {
          "indexed": true,
          "internalType": "uint256",
          "name": "itemId",
          "type": "uint256"
        },
        {
          "indexed": true,
          "internalType": "address",
          "name": "ticketContract",
          "type": "address"
        },
        {
          "indexed": true,
          "internalType": "uint256",
          "name": "tokenId",
          "type": "uint256"
        },
        {
          "indexed": false,
          "internalType": "address",
          "name": "seller",
          "type": "address"
        },
        {
          "indexed": false,
          "internalType": "address",
          "name": "owner",
          "type": "address"
        },
        {
          "indexed": false,
          "internalType": "address",
          "name": "minter",
          "type": "address"
        },
        {
          "indexed": false,
          "internalType": "uint256",
          "name": "price",
          "type": "uint256"
        },
        {
          "indexed": false,
          "internalType": "bool",
          "name": "list",
          "type": "bool"
        },
        {
          "indexed": false,
          "internalType": "bool",
          "name": "sold",
          "type": "bool"
        }
      ],
      "name": "MarketItemCreated",
      "type": "event"
    },
    {
      "inputs": [
        {
          "internalType": "address",
          "name": "ticketContract",
          "type": "address"
        },
        {
          "internalType": "uint256",
          "name": "tokenId",
          "type": "uint256"
        },
        {
          "internalType": "uint256",
          "name": "price",
          "type": "uint256"
        }
      ],
      "name": "createMarketItem",
      "outputs": [],
      "stateMutability": "payable",
      "type": "function",
      "payable": true
    },
    {
      "inputs": [
        {
          "internalType": "address",
          "name": "ticketContract",
          "type": "address"
        },
        {
          "internalType": "uint256",
          "name": "itemId",
          "type": "uint256"
        }
      ],
      "name": "createMarketSale",
      "outputs": [],
      "stateMutability": "payable",
      "type": "function",
      "payable": true
    },
    {
      "inputs": [
        {
          "internalType": "uint256",
          "name": "tokenId",
          "type": "uint256"
        }
      ],
      "name": "fetchItem",
      "outputs": [
        {
          "components": [
            {
              "internalType": "uint256",
              "name": "itemId",
              "type": "uint256"
            },
            {
              "internalType": "address",
              "name": "ticketContract",
              "type": "address"
            },
            {
              "internalType": "uint256",
              "name": "tokenId",
              "type": "uint256"
            },
            {
              "internalType": "address payable",
              "name": "seller",
              "type": "address"
            },
            {
              "internalType": "address payable",
              "name": "owner",
              "type": "address"
            },
            {
              "internalType": "address",
              "name": "minter",
              "type": "address"
            },
            {
              "internalType": "uint256",
              "name": "price",
              "type": "uint256"
            },
            {
              "internalType": "bool",
              "name": "list",
              "type": "bool"
            },
            {
              "internalType": "bool",
              "name": "sold",
              "type": "bool"
            }
          ],
          "internalType": "struct Market.MarketItem[]",
          "name": "",
          "type": "tuple[]"
        }
      ],
      "stateMutability": "view",
      "type": "function",
      "constant": true
    },
    {
      "inputs": [],
      "name": "fetchMarketItems",
      "outputs": [
        {
          "components": [
            {
              "internalType": "uint256",
              "name": "itemId",
              "type": "uint256"
            },
            {
              "internalType": "address",
              "name": "ticketContract",
              "type": "address"
            },
            {
              "internalType": "uint256",
              "name": "tokenId",
              "type": "uint256"
            },
            {
              "internalType": "address payable",
              "name": "seller",
              "type": "address"
            },
            {
              "internalType": "address payable",
              "name": "owner",
              "type": "address"
            },
            {
              "internalType": "address",
              "name": "minter",
              "type": "address"
            },
            {
              "internalType": "uint256",
              "name": "price",
              "type": "uint256"
            },
            {
              "internalType": "bool",
              "name": "list",
              "type": "bool"
            },
            {
              "internalType": "bool",
              "name": "sold",
              "type": "bool"
            }
          ],
          "internalType": "struct Market.MarketItem[]",
          "name": "",
          "type": "tuple[]"
        }
      ],
      "stateMutability": "view",
      "type": "function",
      "constant": true
    },
    {
      "inputs": [],
      "name": "fetchOwnedItems",
      "outputs": [
        {
          "components": [
            {
              "internalType": "uint256",
              "name": "itemId",
              "type": "uint256"
            },
            {
              "internalType": "address",
              "name": "ticketContract",
              "type": "address"
            },
            {
              "internalType": "uint256",
              "name": "tokenId",
              "type": "uint256"
            },
            {
              "internalType": "address payable",
              "name": "seller",
              "type": "address"
            },
            {
              "internalType": "address payable",
              "name": "owner",
              "type": "address"
            },
            {
              "internalType": "address",
              "name": "minter",
              "type": "address"
            },
            {
              "internalType": "uint256",
              "name": "price",
              "type": "uint256"
            },
            {
              "internalType": "bool",
              "name": "list",
              "type": "bool"
            },
            {
              "internalType": "bool",
              "name": "sold",
              "type": "bool"
            }
          ],
          "internalType": "struct Market.MarketItem[]",
          "name": "",
          "type": "tuple[]"
        }
      ],
      "stateMutability": "view",
      "type": "function",
      "constant": true
    },
    {
      "inputs": [
        {
          "internalType": "address",
          "name": "account",
          "type": "address"
        }
      ],
      "name": "fetchItemsCreated",
      "outputs": [
        {
          "components": [
            {
              "internalType": "uint256",
              "name": "itemId",
              "type": "uint256"
            },
            {
              "internalType": "address",
              "name": "ticketContract",
              "type": "address"
            },
            {
              "internalType": "uint256",
              "name": "tokenId",
              "type": "uint256"
            },
            {
              "internalType": "address payable",
              "name": "seller",
              "type": "address"
            },
            {
              "internalType": "address payable",
              "name": "owner",
              "type": "address"
            },
            {
              "internalType": "address",
              "name": "minter",
              "type": "address"
            },
            {
              "internalType": "uint256",
              "name": "price",
              "type": "uint256"
            },
            {
              "internalType": "bool",
              "name": "list",
              "type": "bool"
            },
            {
              "internalType": "bool",
              "name": "sold",
              "type": "bool"
            }
          ],
          "internalType": "struct Market.MarketItem[]",
          "name": "",
          "type": "tuple[]"
        }
      ],
      "stateMutability": "view",
      "type": "function",
      "constant": true
    },
    {
      "inputs": [],
      "name": "inspectSender",
      "outputs": [
        {
          "internalType": "address",
          "name": "",
          "type": "address"
        }
      ],
      "stateMutability": "view",
      "type": "function",
      "constant": true
    },
    {
      "inputs": [],
      "name": "inspectItemMinter",
      "outputs": [
        {
          "internalType": "address",
          "name": "",
          "type": "address"
        }
      ],
      "stateMutability": "view",
      "type": "function",
      "constant": true
    }
  ],
  "bytecode": "0x608060405234801561001057600080fd5b50600160008190555033600360006101000a81548173ffffffffffffffffffffffffffffffffffffffff021916908373ffffffffffffffffffffffffffffffffffffffff160217905550611d95806100696000396000f3fe60806040526004361061007b5760003560e01c8063775cdaad1161004e578063775cdaad1461011d578063ad4b9cfb14610148578063c23b139e14610185578063c8338456146101a15761007b565b80630f08efe0146100805780632575accc146100ab5780634903b044146100d657806358eb2df514610101575b600080fd5b34801561008c57600080fd5b506100956101de565b6040516100a29190611838565b60405180910390f35b3480156100b757600080fd5b506100c06104d8565b6040516100cd9190611869565b60405180910390f35b3480156100e257600080fd5b506100eb610517565b6040516100f89190611869565b60405180910390f35b61011b600480360381019061011691906118e1565b61051f565b005b34801561012957600080fd5b506101326108d0565b60405161013f9190611838565b60405180910390f35b34801561015457600080fd5b5061016f600480360381019061016a9190611934565b610c90565b60405161017c9190611838565b60405180910390f35b61019f600480360381019061019a9190611961565b610f5f565b005b3480156101ad57600080fd5b506101c860048036038101906101c391906119a1565b6111ad565b6040516101d59190611838565b60405180910390f35b606060006101ec600161156f565b905060006101fa600261156f565b610204600161156f565b61020e91906119fd565b90506000808267ffffffffffffffff81111561022d5761022c611a31565b5b60405190808252806020026020018201604052801561026657816020015b610253611593565b81526020019060019003908161024b5790505b50905060005b848110156104cd57600460006001836102859190611a60565b815260200190815260200160002060070160009054906101000a900460ff16156104ba5760006001826102b89190611a60565b905060006004600083815260200190815260200160002090508060405180610120016040529081600082015481526020016001820160009054906101000a900473ffffffffffffffffffffffffffffffffffffffff1673ffffffffffffffffffffffffffffffffffffffff1673ffffffffffffffffffffffffffffffffffffffff168152602001600282015481526020016003820160009054906101000a900473ffffffffffffffffffffffffffffffffffffffff1673ffffffffffffffffffffffffffffffffffffffff1673ffffffffffffffffffffffffffffffffffffffff1681526020016004820160009054906101000a900473ffffffffffffffffffffffffffffffffffffffff1673ffffffffffffffffffffffffffffffffffffffff1673ffffffffffffffffffffffffffffffffffffffff1681526020016005820160009054906101000a900473ffffffffffffffffffffffffffffffffffffffff1673ffffffffffffffffffffffffffffffffffffffff1673ffffffffffffffffffffffffffffffffffffffff168152602001600682015481526020016007820160009054906101000a900460ff161515151581526020016007820160019054906101000a900460ff16151515158152505084868151811061049d5761049c611ab6565b5b60200260200101819052506001856104b59190611a60565b945050505b80806104c590611ae5565b91505061026c565b508094505050505090565b6000600460006001815260200190815260200160002060050160009054906101000a900473ffffffffffffffffffffffffffffffffffffffff16905090565b600033905090565b60026000541415610565576040517f08c379a000000000000000000000000000000000000000000000000000000000815260040161055c90611b8b565b60405180910390fd5b6002600081905550600081116105b0576040517f08c379a00000000000000000000000000000000000000000000000000000000081526004016105a790611bf7565b60405180910390fd5b6105ba600161157d565b60006105c6600161156f565b90506040518061012001604052808281526020018573ffffffffffffffffffffffffffffffffffffffff1681526020018481526020013373ffffffffffffffffffffffffffffffffffffffff1681526020013373ffffffffffffffffffffffffffffffffffffffff1681526020013373ffffffffffffffffffffffffffffffffffffffff16815260200183815260200160011515815260200160001515815250600460008381526020019081526020016000206000820151816000015560208201518160010160006101000a81548173ffffffffffffffffffffffffffffffffffffffff021916908373ffffffffffffffffffffffffffffffffffffffff1602179055506040820151816002015560608201518160030160006101000a81548173ffffffffffffffffffffffffffffffffffffffff021916908373ffffffffffffffffffffffffffffffffffffffff16021790555060808201518160040160006101000a81548173ffffffffffffffffffffffffffffffffffffffff021916908373ffffffffffffffffffffffffffffffffffffffff16021790555060a08201518160050160006101000a81548173ffffffffffffffffffffffffffffffffffffffff021916908373ffffffffffffffffffffffffffffffffffffffff16021790555060c0820151816006015560e08201518160070160006101000a81548160ff0219169083151502179055506101008201518160070160016101000a81548160ff0219169083151502179055509050508373ffffffffffffffffffffffffffffffffffffffff166323b872dd3330866040518463ffffffff1660e01b815260040161083493929190611c26565b600060405180830381600087803b15801561084e57600080fd5b505af1158015610862573d6000803e3d6000fd5b50505050828473ffffffffffffffffffffffffffffffffffffffff16827fa3b15201f5409f14cce6233dc60972278c313ff3ddbdee57ff092c0e9531352633333388600160006040516108ba96959493929190611c6c565b60405180910390a4506001600081905550505050565b606060006108de600161156f565b905060008060005b83811015610987573373ffffffffffffffffffffffffffffffffffffffff16600460006001846109169190611a60565b815260200190815260200160002060040160009054906101000a900473ffffffffffffffffffffffffffffffffffffffff1673ffffffffffffffffffffffffffffffffffffffff161415610974576001836109719190611a60565b92505b808061097f90611ae5565b9150506108e6565b5060008267ffffffffffffffff8111156109a4576109a3611a31565b5b6040519080825280602002602001820160405280156109dd57816020015b6109ca611593565b8152602001906001900390816109c25790505b50905060005b84811015610c85573373ffffffffffffffffffffffffffffffffffffffff1660046000600184610a139190611a60565b815260200190815260200160002060040160009054906101000a900473ffffffffffffffffffffffffffffffffffffffff1673ffffffffffffffffffffffffffffffffffffffff161415610c72576000600182610a709190611a60565b905060006004600083815260200190815260200160002090508060405180610120016040529081600082015481526020016001820160009054906101000a900473ffffffffffffffffffffffffffffffffffffffff1673ffffffffffffffffffffffffffffffffffffffff1673ffffffffffffffffffffffffffffffffffffffff168152602001600282015481526020016003820160009054906101000a900473ffffffffffffffffffffffffffffffffffffffff1673ffffffffffffffffffffffffffffffffffffffff1673ffffffffffffffffffffffffffffffffffffffff1681526020016004820160009054906101000a900473ffffffffffffffffffffffffffffffffffffffff1673ffffffffffffffffffffffffffffffffffffffff1673ffffffffffffffffffffffffffffffffffffffff1681526020016005820160009054906101000a900473ffffffffffffffffffffffffffffffffffffffff1673ffffffffffffffffffffffffffffffffffffffff1673ffffffffffffffffffffffffffffffffffffffff168152602001600682015481526020016007820160009054906101000a900460ff161515151581526020016007820160019054906101000a900460ff161515151581525050848681518110610c5557610c54611ab6565b5b6020026020010181905250600185610c6d9190611a60565b945050505b8080610c7d90611ae5565b9150506109e3565b508094505050505090565b60606000610c9e600161156f565b9050600080600167ffffffffffffffff811115610cbe57610cbd611a31565b5b604051908082528060200260200182016040528015610cf757816020015b610ce4611593565b815260200190600190039081610cdc5790505b50905060005b83811015610f53578560046000600184610d179190611a60565b8152602001908152602001600020600201541415610f40576000600182610d3e9190611a60565b905060006004600083815260200190815260200160002090508060405180610120016040529081600082015481526020016001820160009054906101000a900473ffffffffffffffffffffffffffffffffffffffff1673ffffffffffffffffffffffffffffffffffffffff1673ffffffffffffffffffffffffffffffffffffffff168152602001600282015481526020016003820160009054906101000a900473ffffffffffffffffffffffffffffffffffffffff1673ffffffffffffffffffffffffffffffffffffffff1673ffffffffffffffffffffffffffffffffffffffff1681526020016004820160009054906101000a900473ffffffffffffffffffffffffffffffffffffffff1673ffffffffffffffffffffffffffffffffffffffff1673ffffffffffffffffffffffffffffffffffffffff1681526020016005820160009054906101000a900473ffffffffffffffffffffffffffffffffffffffff1673ffffffffffffffffffffffffffffffffffffffff1673ffffffffffffffffffffffffffffffffffffffff168152602001600682015481526020016007820160009054906101000a900460ff161515151581526020016007820160019054906101000a900460ff161515151581525050848681518110610f2357610f22611ab6565b5b6020026020010181905250600185610f3b9190611a60565b945050505b8080610f4b90611ae5565b915050610cfd565b50809350505050919050565b60026000541415610fa5576040517f08c379a0000000000000000000000000000000000000000000000000000000008152600401610f9c90611b8b565b60405180910390fd5b6002600081905550600060046000838152602001908152602001600020600601549050600060046000848152602001908152602001600020600201549050813414611025576040517f08c379a000000000000000000000000000000000000000000000000000000000815260040161101c90611d3f565b60405180910390fd5b6004600084815260200190815260200160002060030160009054906101000a900473ffffffffffffffffffffffffffffffffffffffff1673ffffffffffffffffffffffffffffffffffffffff166108fc349081150290604051600060405180830381858888f193505050501580156110a1573d6000803e3d6000fd5b508373ffffffffffffffffffffffffffffffffffffffff166323b872dd3033846040518463ffffffff1660e01b81526004016110df93929190611c26565b600060405180830381600087803b1580156110f957600080fd5b505af115801561110d573d6000803e3d6000fd5b50505050336004600085815260200190815260200160002060040160006101000a81548173ffffffffffffffffffffffffffffffffffffffff021916908373ffffffffffffffffffffffffffffffffffffffff16021790555060016004600085815260200190815260200160002060070160016101000a81548160ff02191690831515021790555061119f600261157d565b505060016000819055505050565b606060006111bb600161156f565b905060008060005b83811015611264578573ffffffffffffffffffffffffffffffffffffffff16600460006001846111f39190611a60565b815260200190815260200160002060050160009054906101000a900473ffffffffffffffffffffffffffffffffffffffff1673ffffffffffffffffffffffffffffffffffffffff1614156112515760018361124e9190611a60565b92505b808061125c90611ae5565b9150506111c3565b5060008267ffffffffffffffff81111561128157611280611a31565b5b6040519080825280602002602001820160405280156112ba57816020015b6112a7611593565b81526020019060019003908161129f5790505b50905060005b84811015611562578673ffffffffffffffffffffffffffffffffffffffff16600460006001846112f09190611a60565b815260200190815260200160002060050160009054906101000a900473ffffffffffffffffffffffffffffffffffffffff1673ffffffffffffffffffffffffffffffffffffffff16141561154f57600060018261134d9190611a60565b905060006004600083815260200190815260200160002090508060405180610120016040529081600082015481526020016001820160009054906101000a900473ffffffffffffffffffffffffffffffffffffffff1673ffffffffffffffffffffffffffffffffffffffff1673ffffffffffffffffffffffffffffffffffffffff168152602001600282015481526020016003820160009054906101000a900473ffffffffffffffffffffffffffffffffffffffff1673ffffffffffffffffffffffffffffffffffffffff1673ffffffffffffffffffffffffffffffffffffffff1681526020016004820160009054906101000a900473ffffffffffffffffffffffffffffffffffffffff1673ffffffffffffffffffffffffffffffffffffffff1673ffffffffffffffffffffffffffffffffffffffff1681526020016005820160009054906101000a900473ffffffffffffffffffffffffffffffffffffffff1673ffffffffffffffffffffffffffffffffffffffff1673ffffffffffffffffffffffffffffffffffffffff168152602001600682015481526020016007820160009054906101000a900460ff161515151581526020016007820160019054906101000a900460ff16151515158152505084868151811061153257611531611ab6565b5b602002602001018190525060018561154a9190611a60565b945050505b808061155a90611ae5565b9150506112c0565b5080945050505050919050565b600081600001549050919050565b6001816000016000828254019250508190555050565b60405180610120016040528060008152602001600073ffffffffffffffffffffffffffffffffffffffff16815260200160008152602001600073ffffffffffffffffffffffffffffffffffffffff168152602001600073ffffffffffffffffffffffffffffffffffffffff168152602001600073ffffffffffffffffffffffffffffffffffffffff168152602001600081526020016000151581526020016000151581525090565b600081519050919050565b600082825260208201905092915050565b6000819050602082019050919050565b6000819050919050565b61167a81611667565b82525050565b600073ffffffffffffffffffffffffffffffffffffffff82169050919050565b60006116ab82611680565b9050919050565b6116bb816116a0565b82525050565b60006116cc82611680565b9050919050565b6116dc816116c1565b82525050565b60008115159050919050565b6116f7816116e2565b82525050565b610120820160008201516117146000850182611671565b50602082015161172760208501826116b2565b50604082015161173a6040850182611671565b50606082015161174d60608501826116d3565b50608082015161176060808501826116d3565b5060a082015161177360a08501826116b2565b5060c082015161178660c0850182611671565b5060e082015161179960e08501826116ee565b506101008201516117ae6101008501826116ee565b50505050565b60006117c083836116fd565b6101208301905092915050565b6000602082019050919050565b60006117e58261163b565b6117ef8185611646565b93506117fa83611657565b8060005b8381101561182b57815161181288826117b4565b975061181d836117cd565b9250506001810190506117fe565b5085935050505092915050565b6000602082019050818103600083015261185281846117da565b905092915050565b611863816116a0565b82525050565b600060208201905061187e600083018461185a565b92915050565b600080fd5b611892816116a0565b811461189d57600080fd5b50565b6000813590506118af81611889565b92915050565b6118be81611667565b81146118c957600080fd5b50565b6000813590506118db816118b5565b92915050565b6000806000606084860312156118fa576118f9611884565b5b6000611908868287016118a0565b9350506020611919868287016118cc565b925050604061192a868287016118cc565b9150509250925092565b60006020828403121561194a57611949611884565b5b6000611958848285016118cc565b91505092915050565b6000806040838503121561197857611977611884565b5b6000611986858286016118a0565b9250506020611997858286016118cc565b9150509250929050565b6000602082840312156119b7576119b6611884565b5b60006119c5848285016118a0565b91505092915050565b7f4e487b7100000000000000000000000000000000000000000000000000000000600052601160045260246000fd5b6000611a0882611667565b9150611a1383611667565b925082821015611a2657611a256119ce565b5b828203905092915050565b7f4e487b7100000000000000000000000000000000000000000000000000000000600052604160045260246000fd5b6000611a6b82611667565b9150611a7683611667565b9250827fffffffffffffffffffffffffffffffffffffffffffffffffffffffffffffffff03821115611aab57611aaa6119ce565b5b828201905092915050565b7f4e487b7100000000000000000000000000000000000000000000000000000000600052603260045260246000fd5b6000611af082611667565b91507fffffffffffffffffffffffffffffffffffffffffffffffffffffffffffffffff821415611b2357611b226119ce565b5b600182019050919050565b600082825260208201905092915050565b7f5265656e7472616e637947756172643a207265656e7472616e742063616c6c00600082015250565b6000611b75601f83611b2e565b9150611b8082611b3f565b602082019050919050565b60006020820190508181036000830152611ba481611b68565b9050919050565b7f5072696365206d757374206265206174206c6561737420312077656900000000600082015250565b6000611be1601c83611b2e565b9150611bec82611bab565b602082019050919050565b60006020820190508181036000830152611c1081611bd4565b9050919050565b611c2081611667565b82525050565b6000606082019050611c3b600083018661185a565b611c48602083018561185a565b611c556040830184611c17565b949350505050565b611c66816116e2565b82525050565b600060c082019050611c81600083018961185a565b611c8e602083018861185a565b611c9b604083018761185a565b611ca86060830186611c17565b611cb56080830185611c5d565b611cc260a0830184611c5d565b979650505050505050565b7f506c65617365207375626d6974207468652061736b696e67207072696365206960008201527f6e206f7264657220746f20636f6d706c65746520746865207075726368617365602082015250565b6000611d29604083611b2e565b9150611d3482611ccd565b604082019050919050565b60006020820190508181036000830152611d5881611d1c565b905091905056fea264697066735822122083780ef7240758ce5f779a0cb6629b33039c65f04d1a5845b4bd8ea28765d0d764736f6c634300080b0033",
  "immutableReferences": {},
  "source": "// SPDX-License-Identifier: MIT\r\npragma solidity ^0.8.11;\r\n\r\nimport \"@openzeppelin/contracts/utils/Counters.sol\";\r\nimport \"@openzeppelin/contracts/token/ERC721/ERC721.sol\";\r\nimport \"@openzeppelin/contracts/security/ReentrancyGuard.sol\";\r\n\r\ncontract Market is ReentrancyGuard {\r\n    using Counters for Counters.Counter;\r\n    Counters.Counter private _itemIds;\r\n    Counters.Counter private _itemsSold;\r\n\r\n    address payable owner;\r\n\r\n    constructor() {\r\n        owner = payable(msg.sender);\r\n    }\r\n\r\n    struct MarketItem {\r\n        uint256 itemId;\r\n        address ticketContract;\r\n        uint256 tokenId;\r\n        address payable seller;\r\n        address payable owner;\r\n        address minter;\r\n        uint256 price;\r\n        bool list;\r\n        bool sold;\r\n    }\r\n\r\n    mapping(uint256 => MarketItem) private idToMarketItem;\r\n\r\n    event MarketItemCreated(\r\n        uint256 indexed itemId,\r\n        address indexed ticketContract,\r\n        uint256 indexed tokenId,\r\n        address seller,\r\n        address owner,\r\n        address minter,\r\n        uint256 price,\r\n        bool list,\r\n        bool sold\r\n    );\r\n\r\n    /* Places an item for sale on the marketplace */\r\n    function createMarketItem(\r\n        address ticketContract,\r\n        uint256 tokenId,\r\n        uint256 price\r\n    ) public payable nonReentrant {\r\n        require(price > 0, \"Price must be at least 1 wei\");\r\n\r\n        _itemIds.increment();\r\n        uint256 itemId = _itemIds.current();\r\n\r\n        idToMarketItem[itemId] = MarketItem(\r\n            itemId,\r\n            ticketContract,\r\n            tokenId,\r\n            payable(msg.sender),\r\n            payable(msg.sender),\r\n            msg.sender,\r\n            price,\r\n            true,\r\n            false\r\n        );\r\n\r\n        IERC721(ticketContract).transferFrom(\r\n            msg.sender,\r\n            address(this),\r\n            tokenId\r\n        );\r\n\r\n        emit MarketItemCreated(\r\n            itemId,\r\n            ticketContract,\r\n            tokenId,\r\n            msg.sender,\r\n            msg.sender,\r\n            msg.sender,\r\n            price,\r\n            true,\r\n            false\r\n        );\r\n    }\r\n\r\n    /* Creates the sale of a marketplace item */\r\n    /* Transfers ownership of the item, as well as funds between parties */\r\n    function createMarketSale(address ticketContract, uint256 itemId)\r\n        public\r\n        payable\r\n        nonReentrant\r\n    {\r\n        uint256 price = idToMarketItem[itemId].price;\r\n        uint256 tokenId = idToMarketItem[itemId].tokenId;\r\n        require(\r\n            msg.value == price,\r\n            \"Please submit the asking price in order to complete the purchase\"\r\n        );\r\n\r\n        idToMarketItem[itemId].seller.transfer(msg.value);\r\n        IERC721(ticketContract).transferFrom(\r\n            address(this),\r\n            msg.sender,\r\n            tokenId\r\n        );\r\n        idToMarketItem[itemId].owner = payable(msg.sender);\r\n        idToMarketItem[itemId].sold = true;\r\n        _itemsSold.increment();\r\n        // payable(owner).transfer(listingPrice);\r\n    }\r\n\r\n    function fetchItem(uint256 tokenId)\r\n        public\r\n        view\r\n        returns (MarketItem[] memory)\r\n    {\r\n        uint256 itemCount = _itemIds.current();\r\n        uint256 currentIndex = 0;\r\n\r\n        MarketItem[] memory items = new MarketItem[](1);\r\n        for (uint256 i = 0; i < itemCount; i++) {\r\n            if (idToMarketItem[i + 1].tokenId == tokenId) {\r\n                uint256 currentId = i + 1;\r\n                MarketItem storage currentItem = idToMarketItem[currentId];\r\n                items[currentIndex] = currentItem;\r\n                currentIndex += 1;\r\n            }\r\n        }\r\n        return items;\r\n    }\r\n\r\n    /* Returns all unsold market items */\r\n    function fetchMarketItems() public view returns (MarketItem[] memory) {\r\n        uint256 itemCount = _itemIds.current();\r\n        uint256 unsoldItemCount = _itemIds.current() - _itemsSold.current();\r\n        uint256 currentIndex = 0;\r\n\r\n        MarketItem[] memory items = new MarketItem[](unsoldItemCount);\r\n        for (uint256 i = 0; i < itemCount; i++) {\r\n            if (idToMarketItem[i + 1].list) {\r\n                uint256 currentId = i + 1;\r\n                MarketItem storage currentItem = idToMarketItem[currentId];\r\n                items[currentIndex] = currentItem;\r\n                currentIndex += 1;\r\n            }\r\n        }\r\n        return items;\r\n    }\r\n\r\n    /* Returns only items that a user has purchased */\r\n    function fetchOwnedItems() public view returns (MarketItem[] memory) {\r\n        uint256 totalItemCount = _itemIds.current();\r\n        uint256 itemCount = 0;\r\n        uint256 currentIndex = 0;\r\n\r\n        for (uint256 i = 0; i < totalItemCount; i++) {\r\n            if (idToMarketItem[i + 1].owner == msg.sender) {\r\n                itemCount += 1;\r\n            }\r\n        }\r\n\r\n        MarketItem[] memory items = new MarketItem[](itemCount);\r\n        for (uint256 i = 0; i < totalItemCount; i++) {\r\n            if (idToMarketItem[i + 1].owner == msg.sender) {\r\n                uint256 currentId = i + 1;\r\n                MarketItem storage currentItem = idToMarketItem[currentId];\r\n                items[currentIndex] = currentItem;\r\n                currentIndex += 1;\r\n            }\r\n        }\r\n        return items;\r\n    }\r\n\r\n    /* Returns only items a user has created */\r\n    function fetchItemsCreated(address account) public view returns (MarketItem[] memory) {\r\n        uint256 totalItemCount = _itemIds.current();\r\n        uint256 itemCount = 0;\r\n        uint256 currentIndex = 0;\r\n\r\n        for (uint256 i = 0; i < totalItemCount; i++) {\r\n            if (idToMarketItem[i + 1].minter == account) {\r\n                itemCount += 1;\r\n            }\r\n        }\r\n\r\n        MarketItem[] memory items = new MarketItem[](itemCount);\r\n        for (uint256 i = 0; i < totalItemCount; i++) {\r\n            if (idToMarketItem[i + 1].minter == account) {\r\n                uint256 currentId = i + 1;\r\n                MarketItem storage currentItem = idToMarketItem[currentId];\r\n                items[currentIndex] = currentItem;\r\n                currentIndex += 1;\r\n            }\r\n        }\r\n        return items;\r\n    }\r\n\r\n     function inspectSender() public view returns(address) {\r\n        return msg.sender;\r\n    }\r\n\r\n     function inspectItemMinter() public view returns(address) {\r\n        return idToMarketItem[1].minter;\r\n    }\r\n\r\n\r\n}\r\n",
  "sourcePath": "D:\\Final Project\\ticketplace\\contracts\\Market.sol",
  "compiler": {
    "name": "solc",
    "version": "0.8.11+commit.d7f03943.Emscripten.clang"
  },
  "schemaVersion": "3.4.4",
  "updatedAt": "2022-02-09T00:38:51.366Z",
  "networkType": "ethereum",
  "devdoc": {
    "kind": "dev",
    "methods": {},
    "version": 1
  },
  "userdoc": {
    "kind": "user",
    "methods": {},
    "version": 1
  }
}