{
  "contractName": "Ticket",
  "abi": [
    {
      "inputs": [],
      "stateMutability": "nonpayable",
      "type": "constructor"
    },
    {
      "anonymous": false,
      "inputs": [
        {
          "indexed": true,
          "internalType": "address",
          "name": "account",
          "type": "address"
        },
        {
          "indexed": true,
          "internalType": "address",
          "name": "operator",
          "type": "address"
        },
        {
          "indexed": false,
          "internalType": "bool",
          "name": "approved",
          "type": "bool"
        }
      ],
      "name": "ApprovalForAll",
      "type": "event"
    },
    {
      "anonymous": false,
      "inputs": [
        {
          "indexed": true,
          "internalType": "uint256",
          "name": "itemId",
          "type": "uint256"
        },
        {
          "indexed": true,
          "internalType": "uint256",
          "name": "tokenId",
          "type": "uint256"
        },
        {
          "indexed": false,
          "internalType": "address",
          "name": "seller",
          "type": "address"
        },
        {
          "indexed": false,
          "internalType": "address",
          "name": "owner",
          "type": "address"
        },
        {
          "indexed": false,
          "internalType": "uint256",
          "name": "price",
          "type": "uint256"
        },
        {
          "indexed": false,
          "internalType": "bool",
          "name": "list",
          "type": "bool"
        },
        {
          "indexed": false,
          "internalType": "bool",
          "name": "sold",
          "type": "bool"
        }
      ],
      "name": "MarketItemCreated",
      "type": "event"
    },
    {
      "anonymous": false,
      "inputs": [
        {
          "indexed": true,
          "internalType": "address",
          "name": "operator",
          "type": "address"
        },
        {
          "indexed": true,
          "internalType": "address",
          "name": "from",
          "type": "address"
        },
        {
          "indexed": true,
          "internalType": "address",
          "name": "to",
          "type": "address"
        },
        {
          "indexed": false,
          "internalType": "uint256[]",
          "name": "ids",
          "type": "uint256[]"
        },
        {
          "indexed": false,
          "internalType": "uint256[]",
          "name": "values",
          "type": "uint256[]"
        }
      ],
      "name": "TransferBatch",
      "type": "event"
    },
    {
      "anonymous": false,
      "inputs": [
        {
          "indexed": true,
          "internalType": "address",
          "name": "operator",
          "type": "address"
        },
        {
          "indexed": true,
          "internalType": "address",
          "name": "from",
          "type": "address"
        },
        {
          "indexed": true,
          "internalType": "address",
          "name": "to",
          "type": "address"
        },
        {
          "indexed": false,
          "internalType": "uint256",
          "name": "id",
          "type": "uint256"
        },
        {
          "indexed": false,
          "internalType": "uint256",
          "name": "value",
          "type": "uint256"
        }
      ],
      "name": "TransferSingle",
      "type": "event"
    },
    {
      "anonymous": false,
      "inputs": [
        {
          "indexed": false,
          "internalType": "string",
          "name": "value",
          "type": "string"
        },
        {
          "indexed": true,
          "internalType": "uint256",
          "name": "id",
          "type": "uint256"
        }
      ],
      "name": "URI",
      "type": "event"
    },
    {
      "inputs": [
        {
          "internalType": "address",
          "name": "account",
          "type": "address"
        },
        {
          "internalType": "uint256",
          "name": "id",
          "type": "uint256"
        }
      ],
      "name": "balanceOf",
      "outputs": [
        {
          "internalType": "uint256",
          "name": "",
          "type": "uint256"
        }
      ],
      "stateMutability": "view",
      "type": "function",
      "constant": true
    },
    {
      "inputs": [
        {
          "internalType": "address[]",
          "name": "accounts",
          "type": "address[]"
        },
        {
          "internalType": "uint256[]",
          "name": "ids",
          "type": "uint256[]"
        }
      ],
      "name": "balanceOfBatch",
      "outputs": [
        {
          "internalType": "uint256[]",
          "name": "",
          "type": "uint256[]"
        }
      ],
      "stateMutability": "view",
      "type": "function",
      "constant": true
    },
    {
      "inputs": [
        {
          "internalType": "address",
          "name": "",
          "type": "address"
        },
        {
          "internalType": "uint256",
          "name": "",
          "type": "uint256"
        }
      ],
      "name": "createdTokens",
      "outputs": [
        {
          "internalType": "uint256",
          "name": "tokenId",
          "type": "uint256"
        },
        {
          "internalType": "uint256",
          "name": "supply",
          "type": "uint256"
        },
        {
          "internalType": "address",
          "name": "owner",
          "type": "address"
        },
        {
          "internalType": "address",
          "name": "minter",
          "type": "address"
        }
      ],
      "stateMutability": "view",
      "type": "function",
      "constant": true
    },
    {
      "inputs": [
        {
          "internalType": "address",
          "name": "account",
          "type": "address"
        },
        {
          "internalType": "address",
          "name": "operator",
          "type": "address"
        }
      ],
      "name": "isApprovedForAll",
      "outputs": [
        {
          "internalType": "bool",
          "name": "",
          "type": "bool"
        }
      ],
      "stateMutability": "view",
      "type": "function",
      "constant": true
    },
    {
      "inputs": [
        {
          "internalType": "address",
          "name": "",
          "type": "address"
        },
        {
          "internalType": "uint256",
          "name": "",
          "type": "uint256"
        }
      ],
      "name": "listedTokens",
      "outputs": [
        {
          "internalType": "uint256",
          "name": "tokenId",
          "type": "uint256"
        },
        {
          "internalType": "uint256",
          "name": "supply",
          "type": "uint256"
        },
        {
          "internalType": "address",
          "name": "owner",
          "type": "address"
        },
        {
          "internalType": "address",
          "name": "minter",
          "type": "address"
        }
      ],
      "stateMutability": "view",
      "type": "function",
      "constant": true
    },
    {
      "inputs": [
        {
          "internalType": "address",
          "name": "",
          "type": "address"
        },
        {
          "internalType": "uint256",
          "name": "",
          "type": "uint256"
        }
      ],
      "name": "ownedTokens",
      "outputs": [
        {
          "internalType": "uint256",
          "name": "tokenId",
          "type": "uint256"
        },
        {
          "internalType": "uint256",
          "name": "supply",
          "type": "uint256"
        },
        {
          "internalType": "address",
          "name": "owner",
          "type": "address"
        },
        {
          "internalType": "address",
          "name": "minter",
          "type": "address"
        }
      ],
      "stateMutability": "view",
      "type": "function",
      "constant": true
    },
    {
      "inputs": [
        {
          "internalType": "address",
          "name": "from",
          "type": "address"
        },
        {
          "internalType": "address",
          "name": "to",
          "type": "address"
        },
        {
          "internalType": "uint256[]",
          "name": "ids",
          "type": "uint256[]"
        },
        {
          "internalType": "uint256[]",
          "name": "amounts",
          "type": "uint256[]"
        },
        {
          "internalType": "bytes",
          "name": "data",
          "type": "bytes"
        }
      ],
      "name": "safeBatchTransferFrom",
      "outputs": [],
      "stateMutability": "nonpayable",
      "type": "function"
    },
    {
      "inputs": [
        {
          "internalType": "address",
          "name": "from",
          "type": "address"
        },
        {
          "internalType": "address",
          "name": "to",
          "type": "address"
        },
        {
          "internalType": "uint256",
          "name": "id",
          "type": "uint256"
        },
        {
          "internalType": "uint256",
          "name": "amount",
          "type": "uint256"
        },
        {
          "internalType": "bytes",
          "name": "data",
          "type": "bytes"
        }
      ],
      "name": "safeTransferFrom",
      "outputs": [],
      "stateMutability": "nonpayable",
      "type": "function"
    },
    {
      "inputs": [
        {
          "internalType": "address",
          "name": "operator",
          "type": "address"
        },
        {
          "internalType": "bool",
          "name": "approved",
          "type": "bool"
        }
      ],
      "name": "setApprovalForAll",
      "outputs": [],
      "stateMutability": "nonpayable",
      "type": "function"
    },
    {
      "inputs": [
        {
          "internalType": "bytes4",
          "name": "interfaceId",
          "type": "bytes4"
        }
      ],
      "name": "supportsInterface",
      "outputs": [
        {
          "internalType": "bool",
          "name": "",
          "type": "bool"
        }
      ],
      "stateMutability": "view",
      "type": "function",
      "constant": true
    },
    {
      "inputs": [
        {
          "internalType": "uint256",
          "name": "tokenId",
          "type": "uint256"
        }
      ],
      "name": "uri",
      "outputs": [
        {
          "internalType": "string",
          "name": "",
          "type": "string"
        }
      ],
      "stateMutability": "view",
      "type": "function",
      "constant": true
    },
    {
      "inputs": [
        {
          "internalType": "uint256",
          "name": "tokenId",
          "type": "uint256"
        },
        {
          "internalType": "string",
          "name": "tokenUri",
          "type": "string"
        }
      ],
      "name": "setTokenUri",
      "outputs": [],
      "stateMutability": "nonpayable",
      "type": "function"
    },
    {
      "inputs": [
        {
          "internalType": "string",
          "name": "tokenUri",
          "type": "string"
        },
        {
          "internalType": "uint256",
          "name": "supply",
          "type": "uint256"
        }
      ],
      "name": "mintToken",
      "outputs": [
        {
          "internalType": "uint256",
          "name": "",
          "type": "uint256"
        }
      ],
      "stateMutability": "nonpayable",
      "type": "function"
    },
    {
      "inputs": [
        {
          "internalType": "uint256",
          "name": "tokenId",
          "type": "uint256"
        },
        {
          "internalType": "uint256",
          "name": "price",
          "type": "uint256"
        },
        {
          "internalType": "uint256",
          "name": "supply",
          "type": "uint256"
        }
      ],
      "name": "createMarketItem",
      "outputs": [],
      "stateMutability": "payable",
      "type": "function",
      "payable": true
    },
    {
      "inputs": [
        {
          "internalType": "address",
          "name": "account",
          "type": "address"
        }
      ],
      "name": "fetchCreatedItems",
      "outputs": [
        {
          "components": [
            {
              "internalType": "uint256",
              "name": "tokenId",
              "type": "uint256"
            },
            {
              "internalType": "uint256",
              "name": "supply",
              "type": "uint256"
            },
            {
              "internalType": "address",
              "name": "owner",
              "type": "address"
            },
            {
              "internalType": "address",
              "name": "minter",
              "type": "address"
            }
          ],
          "internalType": "struct Ticket.Item[]",
          "name": "",
          "type": "tuple[]"
        }
      ],
      "stateMutability": "view",
      "type": "function",
      "constant": true
    },
    {
      "inputs": [
        {
          "internalType": "address",
          "name": "account",
          "type": "address"
        }
      ],
      "name": "fetchOwnedItems",
      "outputs": [
        {
          "components": [
            {
              "internalType": "uint256",
              "name": "tokenId",
              "type": "uint256"
            },
            {
              "internalType": "uint256",
              "name": "supply",
              "type": "uint256"
            },
            {
              "internalType": "address",
              "name": "owner",
              "type": "address"
            },
            {
              "internalType": "address",
              "name": "minter",
              "type": "address"
            }
          ],
          "internalType": "struct Ticket.Item[]",
          "name": "",
          "type": "tuple[]"
        }
      ],
      "stateMutability": "view",
      "type": "function",
      "constant": true
    },
    {
      "inputs": [
        {
          "internalType": "address",
          "name": "account",
          "type": "address"
        }
      ],
      "name": "fetchListedItems",
      "outputs": [
        {
          "components": [
            {
              "internalType": "uint256",
              "name": "tokenId",
              "type": "uint256"
            },
            {
              "internalType": "uint256",
              "name": "supply",
              "type": "uint256"
            },
            {
              "internalType": "address",
              "name": "owner",
              "type": "address"
            },
            {
              "internalType": "address",
              "name": "minter",
              "type": "address"
            }
          ],
          "internalType": "struct Ticket.Item[]",
          "name": "",
          "type": "tuple[]"
        }
      ],
      "stateMutability": "view",
      "type": "function",
      "constant": true
    },
    {
      "inputs": [
        {
          "internalType": "uint256",
          "name": "tokenId",
          "type": "uint256"
        }
      ],
      "name": "fetchMarketItem",
      "outputs": [
        {
          "components": [
            {
              "internalType": "uint256",
              "name": "itemId",
              "type": "uint256"
            },
            {
              "internalType": "uint256",
              "name": "tokenId",
              "type": "uint256"
            },
            {
              "internalType": "address payable",
              "name": "seller",
              "type": "address"
            },
            {
              "internalType": "address payable",
              "name": "owner",
              "type": "address"
            },
            {
              "internalType": "uint256",
              "name": "price",
              "type": "uint256"
            },
            {
              "internalType": "uint256",
              "name": "supply",
              "type": "uint256"
            },
            {
              "internalType": "bool",
              "name": "sold",
              "type": "bool"
            }
          ],
          "internalType": "struct Ticket.MarketItem",
          "name": "",
          "type": "tuple"
        }
      ],
      "stateMutability": "view",
      "type": "function",
      "constant": true
    },
    {
      "inputs": [],
      "name": "fetchMarketItems",
      "outputs": [
        {
          "components": [
            {
              "internalType": "uint256",
              "name": "itemId",
              "type": "uint256"
            },
            {
              "internalType": "uint256",
              "name": "tokenId",
              "type": "uint256"
            },
            {
              "internalType": "address payable",
              "name": "seller",
              "type": "address"
            },
            {
              "internalType": "address payable",
              "name": "owner",
              "type": "address"
            },
            {
              "internalType": "uint256",
              "name": "price",
              "type": "uint256"
            },
            {
              "internalType": "uint256",
              "name": "supply",
              "type": "uint256"
            },
            {
              "internalType": "bool",
              "name": "sold",
              "type": "bool"
            }
          ],
          "internalType": "struct Ticket.MarketItem[]",
          "name": "",
          "type": "tuple[]"
        }
      ],
      "stateMutability": "view",
      "type": "function",
      "constant": true
    },
    {
      "inputs": [],
      "name": "inspectSender",
      "outputs": [
        {
          "internalType": "address",
          "name": "",
          "type": "address"
        }
      ],
      "stateMutability": "view",
      "type": "function",
      "constant": true
    },
    {
      "inputs": [
        {
          "internalType": "address",
          "name": "",
          "type": "address"
        },
        {
          "internalType": "address",
          "name": "",
          "type": "address"
        },
        {
          "internalType": "uint256",
          "name": "",
          "type": "uint256"
        },
        {
          "internalType": "uint256",
          "name": "",
          "type": "uint256"
        },
        {
          "internalType": "bytes",
          "name": "",
          "type": "bytes"
        }
      ],
      "name": "onERC1155Received",
      "outputs": [
        {
          "internalType": "bytes4",
          "name": "",
          "type": "bytes4"
        }
      ],
      "stateMutability": "nonpayable",
      "type": "function"
    },
    {
      "inputs": [
        {
          "internalType": "address",
          "name": "",
          "type": "address"
        },
        {
          "internalType": "address",
          "name": "",
          "type": "address"
        },
        {
          "internalType": "uint256[]",
          "name": "",
          "type": "uint256[]"
        },
        {
          "internalType": "uint256[]",
          "name": "",
          "type": "uint256[]"
        },
        {
          "internalType": "bytes",
          "name": "",
          "type": "bytes"
        }
      ],
      "name": "onERC1155BatchReceived",
      "outputs": [
        {
          "internalType": "bytes4",
          "name": "",
          "type": "bytes4"
        }
      ],
      "stateMutability": "nonpayable",
      "type": "function"
    },
    {
      "inputs": [
        {
          "internalType": "address",
          "name": "",
          "type": "address"
        },
        {
          "internalType": "address",
          "name": "",
          "type": "address"
        },
        {
          "internalType": "uint256",
          "name": "",
          "type": "uint256"
        },
        {
          "internalType": "bytes",
          "name": "",
          "type": "bytes"
        }
      ],
      "name": "onERC721Received",
      "outputs": [
        {
          "internalType": "bytes4",
          "name": "",
          "type": "bytes4"
        }
      ],
      "stateMutability": "nonpayable",
      "type": "function"
    }
  ],
  "bytecode": "0x60806040523480156200001157600080fd5b506040518060400160405280601681526020017f68747470733a2f2f697066732e696e667572612e696f000000000000000000008152506200005981620000a160201b60201c565b5033600660006101000a81548173ffffffffffffffffffffffffffffffffffffffff021916908373ffffffffffffffffffffffffffffffffffffffff160217905550620001d2565b8060029080519060200190620000b9929190620000bd565b5050565b828054620000cb906200019c565b90600052602060002090601f016020900481019282620000ef57600085556200013b565b82601f106200010a57805160ff19168380011785556200013b565b828001600101855582156200013b579182015b828111156200013a5782518255916020019190600101906200011d565b5b5090506200014a91906200014e565b5090565b5b80821115620001695760008160009055506001016200014f565b5090565b7f4e487b7100000000000000000000000000000000000000000000000000000000600052602260045260246000fd5b60006002820490506001821680620001b557607f821691505b60208210811415620001cc57620001cb6200016d565b5b50919050565b61445180620001e26000396000f3fe60806040526004361061013f5760003560e01c806357f7789e116100b6578063c046372c1161006f578063c046372c146104d3578063d2c3b71014610510578063e149f03614610550578063e985e9c514610590578063f23a6e61146105cd578063f242432a1461060a5761013f565b806357f7789e1461038d57806395fb77b9146103b6578063a22cb465146103f3578063a3c8bfb11461041c578063b4cfb07f14610459578063bc197c81146104965761013f565b806327f14fec1161010857806327f14fec146102635780632a45b250146102a35780632eb2c2d6146102e0578063320343da146103095780634903b044146103255780634e1273f4146103505761013f565b8062fdd58e1461014457806301ffc9a7146101815780630e89341c146101be5780630f08efe0146101fb578063150b7a0214610226575b600080fd5b34801561015057600080fd5b5061016b60048036038101906101669190612a01565b610633565b6040516101789190612a50565b60405180910390f35b34801561018d57600080fd5b506101a860048036038101906101a39190612ac3565b6106fc565b6040516101b59190612b0b565b60405180910390f35b3480156101ca57600080fd5b506101e560048036038101906101e09190612b26565b6107de565b6040516101f29190612bec565b60405180910390f35b34801561020757600080fd5b50610210610883565b60405161021d9190612d8a565b60405180910390f35b34801561023257600080fd5b5061024d60048036038101906102489190612ee1565b610a89565b60405161025a9190612f73565b60405180910390f35b34801561026f57600080fd5b5061028a60048036038101906102859190612a01565b610a9d565b60405161029a9493929190612f9d565b60405180910390f35b3480156102af57600080fd5b506102ca60048036038101906102c59190612b26565b610b2a565b6040516102d79190613070565b60405180910390f35b3480156102ec57600080fd5b5061030760048036038101906103029190613153565b610cc3565b005b610323600480360381019061031e9190613222565b610d64565b005b34801561033157600080fd5b5061033a6110cb565b6040516103479190613275565b60405180910390f35b34801561035c57600080fd5b5061037760048036038101906103729190613353565b6110d3565b604051610384919061347a565b60405180910390f35b34801561039957600080fd5b506103b460048036038101906103af919061353d565b6111ec565b005b3480156103c257600080fd5b506103dd60048036038101906103d89190613599565b61127a565b6040516103ea91906136d9565b60405180910390f35b3480156103ff57600080fd5b5061041a60048036038101906104159190613727565b6113de565b005b34801561042857600080fd5b50610443600480360381019061043e9190613599565b6113f4565b60405161045091906136d9565b60405180910390f35b34801561046557600080fd5b50610480600480360381019061047b9190613599565b611558565b60405161048d91906136d9565b60405180910390f35b3480156104a257600080fd5b506104bd60048036038101906104b89190613153565b6116bc565b6040516104ca9190612f73565b60405180910390f35b3480156104df57600080fd5b506104fa60048036038101906104f59190613767565b6116d1565b6040516105079190612a50565b60405180910390f35b34801561051c57600080fd5b5061053760048036038101906105329190612a01565b611873565b6040516105479493929190612f9d565b60405180910390f35b34801561055c57600080fd5b5061057760048036038101906105729190612a01565b611900565b6040516105879493929190612f9d565b60405180910390f35b34801561059c57600080fd5b506105b760048036038101906105b291906137c3565b61198d565b6040516105c49190612b0b565b60405180910390f35b3480156105d957600080fd5b506105f460048036038101906105ef9190613803565b611a21565b6040516106019190612f73565b60405180910390f35b34801561061657600080fd5b50610631600480360381019061062c9190613803565b611a36565b005b60008073ffffffffffffffffffffffffffffffffffffffff168373ffffffffffffffffffffffffffffffffffffffff1614156106a4576040517f08c379a000000000000000000000000000000000000000000000000000000000815260040161069b9061390c565b60405180910390fd5b60008083815260200190815260200160002060008473ffffffffffffffffffffffffffffffffffffffff1673ffffffffffffffffffffffffffffffffffffffff16815260200190815260200160002054905092915050565b60007fd9b67a26000000000000000000000000000000000000000000000000000000007bffffffffffffffffffffffffffffffffffffffffffffffffffffffff1916827bffffffffffffffffffffffffffffffffffffffffffffffffffffffff191614806107c757507f0e89341c000000000000000000000000000000000000000000000000000000007bffffffffffffffffffffffffffffffffffffffffffffffffffffffff1916827bffffffffffffffffffffffffffffffffffffffffffffffffffffffff1916145b806107d757506107d682611ad7565b5b9050919050565b6060600b600083815260200190815260200160002080546107fe9061395b565b80601f016020809104026020016040519081016040528092919081815260200182805461082a9061395b565b80156108775780601f1061084c57610100808354040283529160200191610877565b820191906000526020600020905b81548152906001019060200180831161085a57829003601f168201915b50505050509050919050565b606060006108916004611b41565b9050600061089f6005611b41565b6108a96004611b41565b6108b391906139bc565b90506000808267ffffffffffffffff8111156108d2576108d1612db6565b5b60405190808252806020026020018201604052801561090b57816020015b6108f861284b565b8152602001906001900390816108f05790505b50905060005b84811015610a7e57600060018261092891906139f0565b90506000600a60008381526020019081526020016000209050806040518060e001604052908160008201548152602001600182015481526020016002820160009054906101000a900473ffffffffffffffffffffffffffffffffffffffff1673ffffffffffffffffffffffffffffffffffffffff1673ffffffffffffffffffffffffffffffffffffffff1681526020016003820160009054906101000a900473ffffffffffffffffffffffffffffffffffffffff1673ffffffffffffffffffffffffffffffffffffffff1673ffffffffffffffffffffffffffffffffffffffff16815260200160048201548152602001600582015481526020016006820160009054906101000a900460ff161515151581525050848681518110610a4f57610a4e613a46565b5b6020026020010181905250600185610a6791906139f0565b945050508080610a7690613a75565b915050610911565b508094505050505090565b600063150b7a0260e01b9050949350505050565b60086020528160005260406000208181548110610ab957600080fd5b9060005260206000209060040201600091509150508060000154908060010154908060020160009054906101000a900473ffffffffffffffffffffffffffffffffffffffff16908060030160009054906101000a900473ffffffffffffffffffffffffffffffffffffffff16905084565b610b3261284b565b6000610b3e6004611b41565b9050610b4861284b565b60005b82811015610cb85784600a6000600184610b6591906139f0565b8152602001908152602001600020600101541415610ca5576000600182610b8c91906139f0565b90506000600a60008381526020019081526020016000209050806040518060e001604052908160008201548152602001600182015481526020016002820160009054906101000a900473ffffffffffffffffffffffffffffffffffffffff1673ffffffffffffffffffffffffffffffffffffffff1673ffffffffffffffffffffffffffffffffffffffff1681526020016003820160009054906101000a900473ffffffffffffffffffffffffffffffffffffffff1673ffffffffffffffffffffffffffffffffffffffff1673ffffffffffffffffffffffffffffffffffffffff16815260200160048201548152602001600582015481526020016006820160009054906101000a900460ff161515151581525050935050505b8080610cb090613a75565b915050610b4b565b508092505050919050565b610ccb611b4f565b73ffffffffffffffffffffffffffffffffffffffff168573ffffffffffffffffffffffffffffffffffffffff161480610d115750610d1085610d0b611b4f565b61198d565b5b610d50576040517f08c379a0000000000000000000000000000000000000000000000000000000008152600401610d4790613b30565b60405180910390fd5b610d5d8585858585611b57565b5050505050565b60008211610da7576040517f08c379a0000000000000000000000000000000000000000000000000000000008152600401610d9e90613b9c565b60405180910390fd5b610db16004611e6b565b6000610dbd6004611b41565b90506040518060e001604052808281526020018581526020013373ffffffffffffffffffffffffffffffffffffffff1681526020013373ffffffffffffffffffffffffffffffffffffffff16815260200184815260200183815260200160001515815250600a6000838152602001908152602001600020600082015181600001556020820151816001015560408201518160020160006101000a81548173ffffffffffffffffffffffffffffffffffffffff021916908373ffffffffffffffffffffffffffffffffffffffff16021790555060608201518160030160006101000a81548173ffffffffffffffffffffffffffffffffffffffff021916908373ffffffffffffffffffffffffffffffffffffffff1602179055506080820151816004015560a0820151816005015560c08201518160060160006101000a81548160ff021916908315150217905550905050600960003373ffffffffffffffffffffffffffffffffffffffff1673ffffffffffffffffffffffffffffffffffffffff16815260200190815260200160002060405180608001604052808681526020018481526020013373ffffffffffffffffffffffffffffffffffffffff1681526020013373ffffffffffffffffffffffffffffffffffffffff168152509080600181540180825580915050600190039060005260206000209060040201600090919091909150600082015181600001556020820151816001015560408201518160020160006101000a81548173ffffffffffffffffffffffffffffffffffffffff021916908373ffffffffffffffffffffffffffffffffffffffff16021790555060608201518160030160006101000a81548173ffffffffffffffffffffffffffffffffffffffff021916908373ffffffffffffffffffffffffffffffffffffffff16021790555050506110823330868560405180602001604052806000815250611a36565b83817f37a688d146d52021107322f877f4c58eb012a129b80d9383e2ec76c4d4a9e273333387600160006040516110bd959493929190613bbc565b60405180910390a350505050565b600033905090565b60608151835114611119576040517f08c379a000000000000000000000000000000000000000000000000000000000815260040161111090613c81565b60405180910390fd5b6000835167ffffffffffffffff81111561113657611135612db6565b5b6040519080825280602002602001820160405280156111645781602001602082028036833780820191505090505b50905060005b84518110156111e1576111b185828151811061118957611188613a46565b5b60200260200101518583815181106111a4576111a3613a46565b5b6020026020010151610633565b8282815181106111c4576111c3613a46565b5b602002602001018181525050806111da90613a75565b905061116a565b508091505092915050565b6000600b6000848152602001908152602001600020805461120c9061395b565b90501461124e576040517f08c379a000000000000000000000000000000000000000000000000000000000815260040161124590613ced565b60405180910390fd5b80600b600084815260200190815260200160002090805190602001906112759291906128b6565b505050565b60606000600960008473ffffffffffffffffffffffffffffffffffffffff1673ffffffffffffffffffffffffffffffffffffffff168152602001908152602001600020805480602002602001604051908101604052809291908181526020016000905b828210156113cf578382906000526020600020906004020160405180608001604052908160008201548152602001600182015481526020016002820160009054906101000a900473ffffffffffffffffffffffffffffffffffffffff1673ffffffffffffffffffffffffffffffffffffffff1673ffffffffffffffffffffffffffffffffffffffff1681526020016003820160009054906101000a900473ffffffffffffffffffffffffffffffffffffffff1673ffffffffffffffffffffffffffffffffffffffff1673ffffffffffffffffffffffffffffffffffffffff1681525050815260200190600101906112dd565b50505050905080915050919050565b6113f06113e9611b4f565b8383611e81565b5050565b60606000600760008473ffffffffffffffffffffffffffffffffffffffff1673ffffffffffffffffffffffffffffffffffffffff168152602001908152602001600020805480602002602001604051908101604052809291908181526020016000905b82821015611549578382906000526020600020906004020160405180608001604052908160008201548152602001600182015481526020016002820160009054906101000a900473ffffffffffffffffffffffffffffffffffffffff1673ffffffffffffffffffffffffffffffffffffffff1673ffffffffffffffffffffffffffffffffffffffff1681526020016003820160009054906101000a900473ffffffffffffffffffffffffffffffffffffffff1673ffffffffffffffffffffffffffffffffffffffff1673ffffffffffffffffffffffffffffffffffffffff168152505081526020019060010190611457565b50505050905080915050919050565b60606000600860008473ffffffffffffffffffffffffffffffffffffffff1673ffffffffffffffffffffffffffffffffffffffff168152602001908152602001600020805480602002602001604051908101604052809291908181526020016000905b828210156116ad578382906000526020600020906004020160405180608001604052908160008201548152602001600182015481526020016002820160009054906101000a900473ffffffffffffffffffffffffffffffffffffffff1673ffffffffffffffffffffffffffffffffffffffff1673ffffffffffffffffffffffffffffffffffffffff1681526020016003820160009054906101000a900473ffffffffffffffffffffffffffffffffffffffff1673ffffffffffffffffffffffffffffffffffffffff1673ffffffffffffffffffffffffffffffffffffffff1681525050815260200190600101906115bb565b50505050905080915050919050565b600063bc197c8160e01b905095945050505050565b60006116dd6003611e6b565b60006116e96003611b41565b905061170633828560405180602001604052806000815250611fee565b61171081856111ec565b600860003373ffffffffffffffffffffffffffffffffffffffff1673ffffffffffffffffffffffffffffffffffffffff16815260200190815260200160002060405180608001604052808381526020018581526020013373ffffffffffffffffffffffffffffffffffffffff1681526020013373ffffffffffffffffffffffffffffffffffffffff168152509080600181540180825580915050600190039060005260206000209060040201600090919091909150600082015181600001556020820151816001015560408201518160020160006101000a81548173ffffffffffffffffffffffffffffffffffffffff021916908373ffffffffffffffffffffffffffffffffffffffff16021790555060608201518160030160006101000a81548173ffffffffffffffffffffffffffffffffffffffff021916908373ffffffffffffffffffffffffffffffffffffffff16021790555050508091505092915050565b6009602052816000526040600020818154811061188f57600080fd5b9060005260206000209060040201600091509150508060000154908060010154908060020160009054906101000a900473ffffffffffffffffffffffffffffffffffffffff16908060030160009054906101000a900473ffffffffffffffffffffffffffffffffffffffff16905084565b6007602052816000526040600020818154811061191c57600080fd5b9060005260206000209060040201600091509150508060000154908060010154908060020160009054906101000a900473ffffffffffffffffffffffffffffffffffffffff16908060030160009054906101000a900473ffffffffffffffffffffffffffffffffffffffff16905084565b6000600160008473ffffffffffffffffffffffffffffffffffffffff1673ffffffffffffffffffffffffffffffffffffffff16815260200190815260200160002060008373ffffffffffffffffffffffffffffffffffffffff1673ffffffffffffffffffffffffffffffffffffffff16815260200190815260200160002060009054906101000a900460ff16905092915050565b600063f23a6e6160e01b905095945050505050565b611a3e611b4f565b73ffffffffffffffffffffffffffffffffffffffff168573ffffffffffffffffffffffffffffffffffffffff161480611a845750611a8385611a7e611b4f565b61198d565b5b611ac3576040517f08c379a0000000000000000000000000000000000000000000000000000000008152600401611aba90613d7f565b60405180910390fd5b611ad08585858585612184565b5050505050565b60007f01ffc9a7000000000000000000000000000000000000000000000000000000007bffffffffffffffffffffffffffffffffffffffffffffffffffffffff1916827bffffffffffffffffffffffffffffffffffffffffffffffffffffffff1916149050919050565b600081600001549050919050565b600033905090565b8151835114611b9b576040517f08c379a0000000000000000000000000000000000000000000000000000000008152600401611b9290613e11565b60405180910390fd5b600073ffffffffffffffffffffffffffffffffffffffff168473ffffffffffffffffffffffffffffffffffffffff161415611c0b576040517f08c379a0000000000000000000000000000000000000000000000000000000008152600401611c0290613ea3565b60405180910390fd5b6000611c15611b4f565b9050611c25818787878787612406565b60005b8451811015611dd6576000858281518110611c4657611c45613a46565b5b602002602001015190506000858381518110611c6557611c64613a46565b5b60200260200101519050600080600084815260200190815260200160002060008b73ffffffffffffffffffffffffffffffffffffffff1673ffffffffffffffffffffffffffffffffffffffff16815260200190815260200160002054905081811015611d06576040517f08c379a0000000000000000000000000000000000000000000000000000000008152600401611cfd90613f35565b60405180910390fd5b81810360008085815260200190815260200160002060008c73ffffffffffffffffffffffffffffffffffffffff1673ffffffffffffffffffffffffffffffffffffffff168152602001908152602001600020819055508160008085815260200190815260200160002060008b73ffffffffffffffffffffffffffffffffffffffff1673ffffffffffffffffffffffffffffffffffffffff1681526020019081526020016000206000828254611dbb91906139f0565b9250508190555050505080611dcf90613a75565b9050611c28565b508473ffffffffffffffffffffffffffffffffffffffff168673ffffffffffffffffffffffffffffffffffffffff168273ffffffffffffffffffffffffffffffffffffffff167f4a39dc06d4c0dbc64b70af90fd698a233a518aa5d07e595d983b8c0526c8f7fb8787604051611e4d929190613f55565b60405180910390a4611e6381878787878761240e565b505050505050565b6001816000016000828254019250508190555050565b8173ffffffffffffffffffffffffffffffffffffffff168373ffffffffffffffffffffffffffffffffffffffff161415611ef0576040517f08c379a0000000000000000000000000000000000000000000000000000000008152600401611ee790613ffe565b60405180910390fd5b80600160008573ffffffffffffffffffffffffffffffffffffffff1673ffffffffffffffffffffffffffffffffffffffff16815260200190815260200160002060008473ffffffffffffffffffffffffffffffffffffffff1673ffffffffffffffffffffffffffffffffffffffff16815260200190815260200160002060006101000a81548160ff0219169083151502179055508173ffffffffffffffffffffffffffffffffffffffff168373ffffffffffffffffffffffffffffffffffffffff167f17307eab39ab6107e8899845ad3d59bd9653f200f220920489ca2b5937696c3183604051611fe19190612b0b565b60405180910390a3505050565b600073ffffffffffffffffffffffffffffffffffffffff168473ffffffffffffffffffffffffffffffffffffffff16141561205e576040517f08c379a000000000000000000000000000000000000000000000000000000000815260040161205590614090565b60405180910390fd5b6000612068611b4f565b90506120898160008761207a886125e6565b612083886125e6565b87612406565b8260008086815260200190815260200160002060008773ffffffffffffffffffffffffffffffffffffffff1673ffffffffffffffffffffffffffffffffffffffff16815260200190815260200160002060008282546120e891906139f0565b925050819055508473ffffffffffffffffffffffffffffffffffffffff16600073ffffffffffffffffffffffffffffffffffffffff168273ffffffffffffffffffffffffffffffffffffffff167fc3d58168c5ae7397731d063d5bbf3d657854427343f4c083240f7aacaa2d0f6287876040516121669291906140b0565b60405180910390a461217d81600087878787612660565b5050505050565b600073ffffffffffffffffffffffffffffffffffffffff168473ffffffffffffffffffffffffffffffffffffffff1614156121f4576040517f08c379a00000000000000000000000000000000000000000000000000000000081526004016121eb90613ea3565b60405180910390fd5b60006121fe611b4f565b905061221e81878761220f886125e6565b612218886125e6565b87612406565b600080600086815260200190815260200160002060008873ffffffffffffffffffffffffffffffffffffffff1673ffffffffffffffffffffffffffffffffffffffff168152602001908152602001600020549050838110156122b5576040517f08c379a00000000000000000000000000000000000000000000000000000000081526004016122ac90613f35565b60405180910390fd5b83810360008087815260200190815260200160002060008973ffffffffffffffffffffffffffffffffffffffff1673ffffffffffffffffffffffffffffffffffffffff168152602001908152602001600020819055508360008087815260200190815260200160002060008873ffffffffffffffffffffffffffffffffffffffff1673ffffffffffffffffffffffffffffffffffffffff168152602001908152602001600020600082825461236a91906139f0565b925050819055508573ffffffffffffffffffffffffffffffffffffffff168773ffffffffffffffffffffffffffffffffffffffff168373ffffffffffffffffffffffffffffffffffffffff167fc3d58168c5ae7397731d063d5bbf3d657854427343f4c083240f7aacaa2d0f6288886040516123e79291906140b0565b60405180910390a46123fd828888888888612660565b50505050505050565b505050505050565b61242d8473ffffffffffffffffffffffffffffffffffffffff16612838565b156125de578373ffffffffffffffffffffffffffffffffffffffff1663bc197c8187878686866040518663ffffffff1660e01b815260040161247395949392919061412e565b6020604051808303816000875af19250505080156124af57506040513d601f19601f820116820180604052508101906124ac91906141ab565b60015b612555576124bb6141e5565b806308c379a0141561251857506124d0614207565b806124db575061251a565b806040517f08c379a000000000000000000000000000000000000000000000000000000000815260040161250f9190612bec565b60405180910390fd5b505b6040517f08c379a000000000000000000000000000000000000000000000000000000000815260040161254c9061430f565b60405180910390fd5b63bc197c8160e01b7bffffffffffffffffffffffffffffffffffffffffffffffffffffffff1916817bffffffffffffffffffffffffffffffffffffffffffffffffffffffff1916146125dc576040517f08c379a00000000000000000000000000000000000000000000000000000000081526004016125d3906143a1565b60405180910390fd5b505b505050505050565b60606000600167ffffffffffffffff81111561260557612604612db6565b5b6040519080825280602002602001820160405280156126335781602001602082028036833780820191505090505b509050828160008151811061264b5761264a613a46565b5b60200260200101818152505080915050919050565b61267f8473ffffffffffffffffffffffffffffffffffffffff16612838565b15612830578373ffffffffffffffffffffffffffffffffffffffff1663f23a6e6187878686866040518663ffffffff1660e01b81526004016126c59594939291906143c1565b6020604051808303816000875af192505050801561270157506040513d601f19601f820116820180604052508101906126fe91906141ab565b60015b6127a75761270d6141e5565b806308c379a0141561276a5750612722614207565b8061272d575061276c565b806040517f08c379a00000000000000000000000000000000000000000000000000000000081526004016127619190612bec565b60405180910390fd5b505b6040517f08c379a000000000000000000000000000000000000000000000000000000000815260040161279e9061430f565b60405180910390fd5b63f23a6e6160e01b7bffffffffffffffffffffffffffffffffffffffffffffffffffffffff1916817bffffffffffffffffffffffffffffffffffffffffffffffffffffffff19161461282e576040517f08c379a0000000000000000000000000000000000000000000000000000000008152600401612825906143a1565b60405180910390fd5b505b505050505050565b600080823b905060008111915050919050565b6040518060e001604052806000815260200160008152602001600073ffffffffffffffffffffffffffffffffffffffff168152602001600073ffffffffffffffffffffffffffffffffffffffff16815260200160008152602001600081526020016000151581525090565b8280546128c29061395b565b90600052602060002090601f0160209004810192826128e4576000855561292b565b82601f106128fd57805160ff191683800117855561292b565b8280016001018555821561292b579182015b8281111561292a57825182559160200191906001019061290f565b5b509050612938919061293c565b5090565b5b8082111561295557600081600090555060010161293d565b5090565b6000604051905090565b600080fd5b600080fd5b600073ffffffffffffffffffffffffffffffffffffffff82169050919050565b60006129988261296d565b9050919050565b6129a88161298d565b81146129b357600080fd5b50565b6000813590506129c58161299f565b92915050565b6000819050919050565b6129de816129cb565b81146129e957600080fd5b50565b6000813590506129fb816129d5565b92915050565b60008060408385031215612a1857612a17612963565b5b6000612a26858286016129b6565b9250506020612a37858286016129ec565b9150509250929050565b612a4a816129cb565b82525050565b6000602082019050612a656000830184612a41565b92915050565b60007fffffffff0000000000000000000000000000000000000000000000000000000082169050919050565b612aa081612a6b565b8114612aab57600080fd5b50565b600081359050612abd81612a97565b92915050565b600060208284031215612ad957612ad8612963565b5b6000612ae784828501612aae565b91505092915050565b60008115159050919050565b612b0581612af0565b82525050565b6000602082019050612b206000830184612afc565b92915050565b600060208284031215612b3c57612b3b612963565b5b6000612b4a848285016129ec565b91505092915050565b600081519050919050565b600082825260208201905092915050565b60005b83811015612b8d578082015181840152602081019050612b72565b83811115612b9c576000848401525b50505050565b6000601f19601f8301169050919050565b6000612bbe82612b53565b612bc88185612b5e565b9350612bd8818560208601612b6f565b612be181612ba2565b840191505092915050565b60006020820190508181036000830152612c068184612bb3565b905092915050565b600081519050919050565b600082825260208201905092915050565b6000819050602082019050919050565b612c43816129cb565b82525050565b6000612c548261296d565b9050919050565b612c6481612c49565b82525050565b612c7381612af0565b82525050565b60e082016000820151612c8f6000850182612c3a565b506020820151612ca26020850182612c3a565b506040820151612cb56040850182612c5b565b506060820151612cc86060850182612c5b565b506080820151612cdb6080850182612c3a565b5060a0820151612cee60a0850182612c3a565b5060c0820151612d0160c0850182612c6a565b50505050565b6000612d138383612c79565b60e08301905092915050565b6000602082019050919050565b6000612d3782612c0e565b612d418185612c19565b9350612d4c83612c2a565b8060005b83811015612d7d578151612d648882612d07565b9750612d6f83612d1f565b925050600181019050612d50565b5085935050505092915050565b60006020820190508181036000830152612da48184612d2c565b905092915050565b600080fd5b600080fd5b7f4e487b7100000000000000000000000000000000000000000000000000000000600052604160045260246000fd5b612dee82612ba2565b810181811067ffffffffffffffff82111715612e0d57612e0c612db6565b5b80604052505050565b6000612e20612959565b9050612e2c8282612de5565b919050565b600067ffffffffffffffff821115612e4c57612e4b612db6565b5b612e5582612ba2565b9050602081019050919050565b82818337600083830152505050565b6000612e84612e7f84612e31565b612e16565b905082815260208101848484011115612ea057612e9f612db1565b5b612eab848285612e62565b509392505050565b600082601f830112612ec857612ec7612dac565b5b8135612ed8848260208601612e71565b91505092915050565b60008060008060808587031215612efb57612efa612963565b5b6000612f09878288016129b6565b9450506020612f1a878288016129b6565b9350506040612f2b878288016129ec565b925050606085013567ffffffffffffffff811115612f4c57612f4b612968565b5b612f5887828801612eb3565b91505092959194509250565b612f6d81612a6b565b82525050565b6000602082019050612f886000830184612f64565b92915050565b612f978161298d565b82525050565b6000608082019050612fb26000830187612a41565b612fbf6020830186612a41565b612fcc6040830185612f8e565b612fd96060830184612f8e565b95945050505050565b60e082016000820151612ff86000850182612c3a565b50602082015161300b6020850182612c3a565b50604082015161301e6040850182612c5b565b5060608201516130316060850182612c5b565b5060808201516130446080850182612c3a565b5060a082015161305760a0850182612c3a565b5060c082015161306a60c0850182612c6a565b50505050565b600060e0820190506130856000830184612fe2565b92915050565b600067ffffffffffffffff8211156130a6576130a5612db6565b5b602082029050602081019050919050565b600080fd5b60006130cf6130ca8461308b565b612e16565b905080838252602082019050602084028301858111156130f2576130f16130b7565b5b835b8181101561311b578061310788826129ec565b8452602084019350506020810190506130f4565b5050509392505050565b600082601f83011261313a57613139612dac565b5b813561314a8482602086016130bc565b91505092915050565b600080600080600060a0868803121561316f5761316e612963565b5b600061317d888289016129b6565b955050602061318e888289016129b6565b945050604086013567ffffffffffffffff8111156131af576131ae612968565b5b6131bb88828901613125565b935050606086013567ffffffffffffffff8111156131dc576131db612968565b5b6131e888828901613125565b925050608086013567ffffffffffffffff81111561320957613208612968565b5b61321588828901612eb3565b9150509295509295909350565b60008060006060848603121561323b5761323a612963565b5b6000613249868287016129ec565b935050602061325a868287016129ec565b925050604061326b868287016129ec565b9150509250925092565b600060208201905061328a6000830184612f8e565b92915050565b600067ffffffffffffffff8211156132ab576132aa612db6565b5b602082029050602081019050919050565b60006132cf6132ca84613290565b612e16565b905080838252602082019050602084028301858111156132f2576132f16130b7565b5b835b8181101561331b578061330788826129b6565b8452602084019350506020810190506132f4565b5050509392505050565b600082601f83011261333a57613339612dac565b5b813561334a8482602086016132bc565b91505092915050565b6000806040838503121561336a57613369612963565b5b600083013567ffffffffffffffff81111561338857613387612968565b5b61339485828601613325565b925050602083013567ffffffffffffffff8111156133b5576133b4612968565b5b6133c185828601613125565b9150509250929050565b600081519050919050565b600082825260208201905092915050565b6000819050602082019050919050565b60006134038383612c3a565b60208301905092915050565b6000602082019050919050565b6000613427826133cb565b61343181856133d6565b935061343c836133e7565b8060005b8381101561346d57815161345488826133f7565b975061345f8361340f565b925050600181019050613440565b5085935050505092915050565b60006020820190508181036000830152613494818461341c565b905092915050565b600067ffffffffffffffff8211156134b7576134b6612db6565b5b6134c082612ba2565b9050602081019050919050565b60006134e06134db8461349c565b612e16565b9050828152602081018484840111156134fc576134fb612db1565b5b613507848285612e62565b509392505050565b600082601f83011261352457613523612dac565b5b81356135348482602086016134cd565b91505092915050565b6000806040838503121561355457613553612963565b5b6000613562858286016129ec565b925050602083013567ffffffffffffffff81111561358357613582612968565b5b61358f8582860161350f565b9150509250929050565b6000602082840312156135af576135ae612963565b5b60006135bd848285016129b6565b91505092915050565b600081519050919050565b600082825260208201905092915050565b6000819050602082019050919050565b6135fb8161298d565b82525050565b6080820160008201516136176000850182612c3a565b50602082015161362a6020850182612c3a565b50604082015161363d60408501826135f2565b50606082015161365060608501826135f2565b50505050565b60006136628383613601565b60808301905092915050565b6000602082019050919050565b6000613686826135c6565b61369081856135d1565b935061369b836135e2565b8060005b838110156136cc5781516136b38882613656565b97506136be8361366e565b92505060018101905061369f565b5085935050505092915050565b600060208201905081810360008301526136f3818461367b565b905092915050565b61370481612af0565b811461370f57600080fd5b50565b600081359050613721816136fb565b92915050565b6000806040838503121561373e5761373d612963565b5b600061374c858286016129b6565b925050602061375d85828601613712565b9150509250929050565b6000806040838503121561377e5761377d612963565b5b600083013567ffffffffffffffff81111561379c5761379b612968565b5b6137a88582860161350f565b92505060206137b9858286016129ec565b9150509250929050565b600080604083850312156137da576137d9612963565b5b60006137e8858286016129b6565b92505060206137f9858286016129b6565b9150509250929050565b600080600080600060a0868803121561381f5761381e612963565b5b600061382d888289016129b6565b955050602061383e888289016129b6565b945050604061384f888289016129ec565b9350506060613860888289016129ec565b925050608086013567ffffffffffffffff81111561388157613880612968565b5b61388d88828901612eb3565b9150509295509295909350565b7f455243313135353a2062616c616e636520717565727920666f7220746865207a60008201527f65726f2061646472657373000000000000000000000000000000000000000000602082015250565b60006138f6602b83612b5e565b91506139018261389a565b604082019050919050565b60006020820190508181036000830152613925816138e9565b9050919050565b7f4e487b7100000000000000000000000000000000000000000000000000000000600052602260045260246000fd5b6000600282049050600182168061397357607f821691505b602082108114156139875761398661392c565b5b50919050565b7f4e487b7100000000000000000000000000000000000000000000000000000000600052601160045260246000fd5b60006139c7826129cb565b91506139d2836129cb565b9250828210156139e5576139e461398d565b5b828203905092915050565b60006139fb826129cb565b9150613a06836129cb565b9250827fffffffffffffffffffffffffffffffffffffffffffffffffffffffffffffffff03821115613a3b57613a3a61398d565b5b828201905092915050565b7f4e487b7100000000000000000000000000000000000000000000000000000000600052603260045260246000fd5b6000613a80826129cb565b91507fffffffffffffffffffffffffffffffffffffffffffffffffffffffffffffffff821415613ab357613ab261398d565b5b600182019050919050565b7f455243313135353a207472616e736665722063616c6c6572206973206e6f742060008201527f6f776e6572206e6f7220617070726f7665640000000000000000000000000000602082015250565b6000613b1a603283612b5e565b9150613b2582613abe565b604082019050919050565b60006020820190508181036000830152613b4981613b0d565b9050919050565b7f5072696365206d757374206265206174206c6561737420312077656900000000600082015250565b6000613b86601c83612b5e565b9150613b9182613b50565b602082019050919050565b60006020820190508181036000830152613bb581613b79565b9050919050565b600060a082019050613bd16000830188612f8e565b613bde6020830187612f8e565b613beb6040830186612a41565b613bf86060830185612afc565b613c056080830184612afc565b9695505050505050565b7f455243313135353a206163636f756e747320616e6420696473206c656e67746860008201527f206d69736d617463680000000000000000000000000000000000000000000000602082015250565b6000613c6b602983612b5e565b9150613c7682613c0f565b604082019050919050565b60006020820190508181036000830152613c9a81613c5e565b9050919050565b7f43616e6e6f742073657420757269207477696365000000000000000000000000600082015250565b6000613cd7601483612b5e565b9150613ce282613ca1565b602082019050919050565b60006020820190508181036000830152613d0681613cca565b9050919050565b7f455243313135353a2063616c6c6572206973206e6f74206f776e6572206e6f7260008201527f20617070726f7665640000000000000000000000000000000000000000000000602082015250565b6000613d69602983612b5e565b9150613d7482613d0d565b604082019050919050565b60006020820190508181036000830152613d9881613d5c565b9050919050565b7f455243313135353a2069647320616e6420616d6f756e7473206c656e6774682060008201527f6d69736d61746368000000000000000000000000000000000000000000000000602082015250565b6000613dfb602883612b5e565b9150613e0682613d9f565b604082019050919050565b60006020820190508181036000830152613e2a81613dee565b9050919050565b7f455243313135353a207472616e7366657220746f20746865207a65726f20616460008201527f6472657373000000000000000000000000000000000000000000000000000000602082015250565b6000613e8d602583612b5e565b9150613e9882613e31565b604082019050919050565b60006020820190508181036000830152613ebc81613e80565b9050919050565b7f455243313135353a20696e73756666696369656e742062616c616e636520666f60008201527f72207472616e7366657200000000000000000000000000000000000000000000602082015250565b6000613f1f602a83612b5e565b9150613f2a82613ec3565b604082019050919050565b60006020820190508181036000830152613f4e81613f12565b9050919050565b60006040820190508181036000830152613f6f818561341c565b90508181036020830152613f83818461341c565b90509392505050565b7f455243313135353a2073657474696e6720617070726f76616c2073746174757360008201527f20666f722073656c660000000000000000000000000000000000000000000000602082015250565b6000613fe8602983612b5e565b9150613ff382613f8c565b604082019050919050565b6000602082019050818103600083015261401781613fdb565b9050919050565b7f455243313135353a206d696e7420746f20746865207a65726f2061646472657360008201527f7300000000000000000000000000000000000000000000000000000000000000602082015250565b600061407a602183612b5e565b91506140858261401e565b604082019050919050565b600060208201905081810360008301526140a98161406d565b9050919050565b60006040820190506140c56000830185612a41565b6140d26020830184612a41565b9392505050565b600081519050919050565b600082825260208201905092915050565b6000614100826140d9565b61410a81856140e4565b935061411a818560208601612b6f565b61412381612ba2565b840191505092915050565b600060a0820190506141436000830188612f8e565b6141506020830187612f8e565b8181036040830152614162818661341c565b90508181036060830152614176818561341c565b9050818103608083015261418a81846140f5565b90509695505050505050565b6000815190506141a581612a97565b92915050565b6000602082840312156141c1576141c0612963565b5b60006141cf84828501614196565b91505092915050565b60008160e01c9050919050565b600060033d11156142045760046000803e6142016000516141d8565b90505b90565b600060443d10156142175761429a565b61421f612959565b60043d036004823e80513d602482011167ffffffffffffffff8211171561424757505061429a565b808201805167ffffffffffffffff811115614265575050505061429a565b80602083010160043d03850181111561428257505050505061429a565b61429182602001850186612de5565b82955050505050505b90565b7f455243313135353a207472616e7366657220746f206e6f6e204552433131353560008201527f526563656976657220696d706c656d656e746572000000000000000000000000602082015250565b60006142f9603483612b5e565b91506143048261429d565b604082019050919050565b60006020820190508181036000830152614328816142ec565b9050919050565b7f455243313135353a204552433131353552656365697665722072656a6563746560008201527f6420746f6b656e73000000000000000000000000000000000000000000000000602082015250565b600061438b602883612b5e565b91506143968261432f565b604082019050919050565b600060208201905081810360008301526143ba8161437e565b9050919050565b600060a0820190506143d66000830188612f8e565b6143e36020830187612f8e565b6143f06040830186612a41565b6143fd6060830185612a41565b818103608083015261440f81846140f5565b9050969550505050505056fea2646970667358221220b01349826dea11f60af633691bdcefad26c73c9f54b16a0088ee37bcf69e61c364736f6c634300080b0033",
  "immutableReferences": {},
  "source": "// SPDX-License-Identifier: MIT\r\npragma solidity ^0.8.11;\r\n\r\nimport \"@openzeppelin/contracts/token/ERC1155/ERC1155.sol\";\r\nimport \"@openzeppelin/contracts/utils/Counters.sol\";\r\n\r\ncontract Ticket is ERC1155 {\r\n    using Counters for Counters.Counter;\r\n    Counters.Counter private _tokenIds;\r\n    Counters.Counter private _itemIds;\r\n    Counters.Counter private _itemsSold;\r\n    address payable owner;\r\n\r\n    // struct OwnedItem {\r\n    //     uint256 tokenId;\r\n    //     uint256 supply;\r\n    // }\r\n\r\n    // struct CreatedItem {\r\n    //     uint256 tokenId;\r\n    //     uint256 supply;\r\n    // }\r\n\r\n    struct Item {\r\n        uint256 tokenId;\r\n        uint256 supply;\r\n        address owner;\r\n        address minter;\r\n    }\r\n\r\n    mapping(address => Item[]) public ownedTokens;\r\n    mapping(address => Item[]) public createdTokens;\r\n    mapping(address => Item[]) public listedTokens;\r\n\r\n    constructor() ERC1155(\"https://ipfs.infura.io\") {\r\n        owner = payable(msg.sender);\r\n    }\r\n\r\n    // modifier onlyOwner() {\r\n    //     require(owner == msg.sender, \"Only Owner!\");\r\n    //     _;\r\n    // }\r\n\r\n    struct MarketItem {\r\n        uint256 itemId;\r\n        uint256 tokenId;\r\n        address payable seller;\r\n        address payable owner;\r\n        uint256 price;\r\n        uint256 supply;\r\n        bool sold;\r\n    }\r\n\r\n    mapping(uint256 => MarketItem) private idToMarketItem;\r\n\r\n    event MarketItemCreated(\r\n        uint256 indexed itemId,\r\n        uint256 indexed tokenId,\r\n        address seller,\r\n        address owner,\r\n        uint256 price,\r\n        bool list,\r\n        bool sold\r\n    );\r\n\r\n    mapping(uint256 => string) private _uris;\r\n\r\n    function uri(uint256 tokenId) public view override returns (string memory) {\r\n        return (_uris[tokenId]);\r\n    }\r\n\r\n    function setTokenUri(uint256 tokenId, string memory tokenUri) public {\r\n        require(bytes(_uris[tokenId]).length == 0, \"Cannot set uri twice\");\r\n        _uris[tokenId] = tokenUri;\r\n    }\r\n\r\n    function mintToken(string memory tokenUri, uint256 supply)\r\n        public\r\n        returns (uint256)\r\n    {\r\n        _tokenIds.increment();\r\n        uint256 newItemId = _tokenIds.current();\r\n\r\n        _mint(msg.sender, newItemId, supply, \"\");\r\n        setTokenUri(newItemId, tokenUri);\r\n        createdTokens[msg.sender].push(\r\n            Item(newItemId, supply, msg.sender, msg.sender)\r\n        );\r\n        return newItemId;\r\n    }\r\n\r\n    function createMarketItem(\r\n        uint256 tokenId,\r\n        uint256 price,\r\n        uint256 supply\r\n    ) public payable {\r\n        require(price > 0, \"Price must be at least 1 wei\");\r\n\r\n        _itemIds.increment();\r\n        uint256 itemId = _itemIds.current();\r\n\r\n        idToMarketItem[itemId] = MarketItem(\r\n            itemId,\r\n            tokenId,\r\n            payable(msg.sender),\r\n            payable(msg.sender),\r\n            price,\r\n            supply,\r\n            false\r\n        );\r\n\r\n        listedTokens[msg.sender].push(\r\n            Item(tokenId, supply, msg.sender, msg.sender)\r\n        );\r\n\r\n        safeTransferFrom(msg.sender, address(this), tokenId, supply, \"\");\r\n\r\n        emit MarketItemCreated(\r\n            itemId,\r\n            tokenId,\r\n            msg.sender,\r\n            msg.sender,\r\n            price,\r\n            true,\r\n            false\r\n        );\r\n    }\r\n\r\n    function fetchCreatedItems(address account)\r\n        public\r\n        view\r\n        returns (Item[] memory)\r\n    {\r\n        Item[] memory items = createdTokens[account];\r\n        return items;\r\n    }\r\n\r\n    function fetchOwnedItems(address account)\r\n        public\r\n        view\r\n        returns (Item[] memory)\r\n    {\r\n        Item[] memory items = ownedTokens[account];\r\n        return items;\r\n    }\r\n\r\n    function fetchListedItems(address account)\r\n        public\r\n        view\r\n        returns (Item[] memory)\r\n    {\r\n        Item[] memory items = listedTokens[account];\r\n        return items;\r\n    }\r\n\r\n    function fetchMarketItem(uint256 tokenId)\r\n        public\r\n        view\r\n        returns (MarketItem memory)\r\n    {\r\n        uint256 itemCount = _itemIds.current();\r\n\r\n        MarketItem memory item;\r\n        for (uint256 i = 0; i < itemCount; i++) {\r\n            if (idToMarketItem[i + 1].tokenId == tokenId) {\r\n                uint256 currentId = i + 1;\r\n                MarketItem storage currentItem = idToMarketItem[currentId];\r\n                item = currentItem;\r\n            }\r\n        }\r\n        return item;\r\n    }\r\n\r\n    function fetchMarketItems() public view returns (MarketItem[] memory) {\r\n        uint256 itemCount = _itemIds.current();\r\n        uint256 unsoldItemCount = _itemIds.current() - _itemsSold.current();\r\n        uint256 currentIndex = 0;\r\n\r\n        MarketItem[] memory items = new MarketItem[](unsoldItemCount);\r\n        for (uint256 i = 0; i < itemCount; i++) {\r\n            uint256 currentId = i + 1;\r\n            MarketItem storage currentItem = idToMarketItem[currentId];\r\n            items[currentIndex] = currentItem;\r\n            currentIndex += 1;\r\n        }\r\n        return items;\r\n    }\r\n\r\n    function inspectSender() public view returns (address) {\r\n        return msg.sender;\r\n    }\r\n\r\n    function onERC1155Received(\r\n        address,\r\n        address,\r\n        uint256,\r\n        uint256,\r\n        bytes memory\r\n    ) public virtual returns (bytes4) {\r\n        return this.onERC1155Received.selector;\r\n    }\r\n\r\n    function onERC1155BatchReceived(\r\n        address,\r\n        address,\r\n        uint256[] memory,\r\n        uint256[] memory,\r\n        bytes memory\r\n    ) public virtual returns (bytes4) {\r\n        return this.onERC1155BatchReceived.selector;\r\n    }\r\n\r\n    function onERC721Received(\r\n        address,\r\n        address,\r\n        uint256,\r\n        bytes memory\r\n    ) public virtual returns (bytes4) {\r\n        return this.onERC721Received.selector;\r\n    }\r\n}\r\n",
  "sourcePath": "D:\\Final Project\\ticketplace\\contracts\\Ticket.sol",
  "compiler": {
    "name": "solc",
    "version": "0.8.11+commit.d7f03943.Emscripten.clang"
  },
  "schemaVersion": "3.4.4",
  "updatedAt": "2022-02-12T06:20:54.421Z",
  "networkType": "ethereum",
  "devdoc": {
    "kind": "dev",
    "methods": {
      "balanceOf(address,uint256)": {
        "details": "See {IERC1155-balanceOf}. Requirements: - `account` cannot be the zero address."
      },
      "balanceOfBatch(address[],uint256[])": {
        "details": "See {IERC1155-balanceOfBatch}. Requirements: - `accounts` and `ids` must have the same length."
      },
      "isApprovedForAll(address,address)": {
        "details": "See {IERC1155-isApprovedForAll}."
      },
      "safeBatchTransferFrom(address,address,uint256[],uint256[],bytes)": {
        "details": "See {IERC1155-safeBatchTransferFrom}."
      },
      "safeTransferFrom(address,address,uint256,uint256,bytes)": {
        "details": "See {IERC1155-safeTransferFrom}."
      },
      "setApprovalForAll(address,bool)": {
        "details": "See {IERC1155-setApprovalForAll}."
      },
      "supportsInterface(bytes4)": {
        "details": "See {IERC165-supportsInterface}."
      }
    },
    "version": 1
  },
  "userdoc": {
    "kind": "user",
    "methods": {},
    "version": 1
  }
}