{
  "contractName": "Ticket",
  "abi": [
    {
      "inputs": [],
      "stateMutability": "nonpayable",
      "type": "constructor"
    },
    {
      "anonymous": false,
      "inputs": [
        {
          "indexed": true,
          "internalType": "address",
          "name": "owner",
          "type": "address"
        },
        {
          "indexed": true,
          "internalType": "address",
          "name": "approved",
          "type": "address"
        },
        {
          "indexed": true,
          "internalType": "uint256",
          "name": "tokenId",
          "type": "uint256"
        }
      ],
      "name": "Approval",
      "type": "event"
    },
    {
      "anonymous": false,
      "inputs": [
        {
          "indexed": true,
          "internalType": "address",
          "name": "owner",
          "type": "address"
        },
        {
          "indexed": true,
          "internalType": "address",
          "name": "operator",
          "type": "address"
        },
        {
          "indexed": false,
          "internalType": "bool",
          "name": "approved",
          "type": "bool"
        }
      ],
      "name": "ApprovalForAll",
      "type": "event"
    },
    {
      "anonymous": false,
      "inputs": [
        {
          "indexed": true,
          "internalType": "address",
          "name": "from",
          "type": "address"
        },
        {
          "indexed": true,
          "internalType": "address",
          "name": "to",
          "type": "address"
        },
        {
          "indexed": true,
          "internalType": "uint256",
          "name": "tokenId",
          "type": "uint256"
        }
      ],
      "name": "Transfer",
      "type": "event"
    },
    {
      "inputs": [
        {
          "internalType": "address",
          "name": "to",
          "type": "address"
        },
        {
          "internalType": "uint256",
          "name": "tokenId",
          "type": "uint256"
        }
      ],
      "name": "approve",
      "outputs": [],
      "stateMutability": "nonpayable",
      "type": "function"
    },
    {
      "inputs": [
        {
          "internalType": "address",
          "name": "owner",
          "type": "address"
        }
      ],
      "name": "balanceOf",
      "outputs": [
        {
          "internalType": "uint256",
          "name": "",
          "type": "uint256"
        }
      ],
      "stateMutability": "view",
      "type": "function",
      "constant": true
    },
    {
      "inputs": [
        {
          "internalType": "uint256",
          "name": "tokenId",
          "type": "uint256"
        }
      ],
      "name": "getApproved",
      "outputs": [
        {
          "internalType": "address",
          "name": "",
          "type": "address"
        }
      ],
      "stateMutability": "view",
      "type": "function",
      "constant": true
    },
    {
      "inputs": [
        {
          "internalType": "address",
          "name": "owner",
          "type": "address"
        },
        {
          "internalType": "address",
          "name": "operator",
          "type": "address"
        }
      ],
      "name": "isApprovedForAll",
      "outputs": [
        {
          "internalType": "bool",
          "name": "",
          "type": "bool"
        }
      ],
      "stateMutability": "view",
      "type": "function",
      "constant": true
    },
    {
      "inputs": [],
      "name": "name",
      "outputs": [
        {
          "internalType": "string",
          "name": "",
          "type": "string"
        }
      ],
      "stateMutability": "view",
      "type": "function",
      "constant": true
    },
    {
      "inputs": [
        {
          "internalType": "uint256",
          "name": "tokenId",
          "type": "uint256"
        }
      ],
      "name": "ownerOf",
      "outputs": [
        {
          "internalType": "address",
          "name": "",
          "type": "address"
        }
      ],
      "stateMutability": "view",
      "type": "function",
      "constant": true
    },
    {
      "inputs": [
        {
          "internalType": "address",
          "name": "from",
          "type": "address"
        },
        {
          "internalType": "address",
          "name": "to",
          "type": "address"
        },
        {
          "internalType": "uint256",
          "name": "tokenId",
          "type": "uint256"
        }
      ],
      "name": "safeTransferFrom",
      "outputs": [],
      "stateMutability": "nonpayable",
      "type": "function"
    },
    {
      "inputs": [
        {
          "internalType": "address",
          "name": "from",
          "type": "address"
        },
        {
          "internalType": "address",
          "name": "to",
          "type": "address"
        },
        {
          "internalType": "uint256",
          "name": "tokenId",
          "type": "uint256"
        },
        {
          "internalType": "bytes",
          "name": "_data",
          "type": "bytes"
        }
      ],
      "name": "safeTransferFrom",
      "outputs": [],
      "stateMutability": "nonpayable",
      "type": "function"
    },
    {
      "inputs": [
        {
          "internalType": "address",
          "name": "operator",
          "type": "address"
        },
        {
          "internalType": "bool",
          "name": "approved",
          "type": "bool"
        }
      ],
      "name": "setApprovalForAll",
      "outputs": [],
      "stateMutability": "nonpayable",
      "type": "function"
    },
    {
      "inputs": [
        {
          "internalType": "bytes4",
          "name": "interfaceId",
          "type": "bytes4"
        }
      ],
      "name": "supportsInterface",
      "outputs": [
        {
          "internalType": "bool",
          "name": "",
          "type": "bool"
        }
      ],
      "stateMutability": "view",
      "type": "function",
      "constant": true
    },
    {
      "inputs": [],
      "name": "symbol",
      "outputs": [
        {
          "internalType": "string",
          "name": "",
          "type": "string"
        }
      ],
      "stateMutability": "view",
      "type": "function",
      "constant": true
    },
    {
      "inputs": [
        {
          "internalType": "uint256",
          "name": "tokenId",
          "type": "uint256"
        }
      ],
      "name": "tokenURI",
      "outputs": [
        {
          "internalType": "string",
          "name": "",
          "type": "string"
        }
      ],
      "stateMutability": "view",
      "type": "function",
      "constant": true
    },
    {
      "inputs": [
        {
          "internalType": "address",
          "name": "from",
          "type": "address"
        },
        {
          "internalType": "address",
          "name": "to",
          "type": "address"
        },
        {
          "internalType": "uint256",
          "name": "tokenId",
          "type": "uint256"
        }
      ],
      "name": "transferFrom",
      "outputs": [],
      "stateMutability": "nonpayable",
      "type": "function"
    },
    {
      "inputs": [
        {
          "internalType": "string",
          "name": "tokenURI",
          "type": "string"
        }
      ],
      "name": "createToken",
      "outputs": [
        {
          "internalType": "uint256",
          "name": "",
          "type": "uint256"
        }
      ],
      "stateMutability": "nonpayable",
      "type": "function"
    }
  ],
  "bytecode": "0x60806040523480156200001157600080fd5b506040518060400160405280601181526020017f54696b6574706c61636520546f6b656e730000000000000000000000000000008152506040518060400160405280600381526020017f544b500000000000000000000000000000000000000000000000000000000000815250816000908051906020019062000096929190620000b8565b508060019080519060200190620000af929190620000b8565b505050620001cd565b828054620000c69062000197565b90600052602060002090601f016020900481019282620000ea576000855562000136565b82601f106200010557805160ff191683800117855562000136565b8280016001018555821562000136579182015b828111156200013557825182559160200191906001019062000118565b5b50905062000145919062000149565b5090565b5b80821115620001645760008160009055506001016200014a565b5090565b7f4e487b7100000000000000000000000000000000000000000000000000000000600052602260045260246000fd5b60006002820490506001821680620001b057607f821691505b60208210811415620001c757620001c662000168565b5b50919050565b612baf80620001dd6000396000f3fe608060405234801561001057600080fd5b50600436106100ea5760003560e01c80636352211e1161008c578063a22cb46511610066578063a22cb4651461026f578063b88d4fde1461028b578063c87b56dd146102a7578063e985e9c5146102d7576100ea565b80636352211e146101f157806370a082311461022157806395d89b4114610251576100ea565b8063095ea7b3116100c8578063095ea7b31461016d57806323b872dd1461018957806342842e0e146101a557806345576f94146101c1576100ea565b806301ffc9a7146100ef57806306fdde031461011f578063081812fc1461013d575b600080fd5b61010960048036038101906101049190611924565b610307565b604051610116919061196c565b60405180910390f35b6101276103e9565b6040516101349190611a20565b60405180910390f35b61015760048036038101906101529190611a78565b61047b565b6040516101649190611ae6565b60405180910390f35b61018760048036038101906101829190611b2d565b610500565b005b6101a3600480360381019061019e9190611b6d565b610618565b005b6101bf60048036038101906101ba9190611b6d565b610678565b005b6101db60048036038101906101d69190611cf5565b610698565b6040516101e89190611d4d565b60405180910390f35b61020b60048036038101906102069190611a78565b6106fc565b6040516102189190611ae6565b60405180910390f35b61023b60048036038101906102369190611d68565b6107ae565b6040516102489190611d4d565b60405180910390f35b610259610866565b6040516102669190611a20565b60405180910390f35b61028960048036038101906102849190611dc1565b6108f8565b005b6102a560048036038101906102a09190611ea2565b61090e565b005b6102c160048036038101906102bc9190611a78565b610970565b6040516102ce9190611a20565b60405180910390f35b6102f160048036038101906102ec9190611f25565b610ac2565b6040516102fe919061196c565b60405180910390f35b60007f80ac58cd000000000000000000000000000000000000000000000000000000007bffffffffffffffffffffffffffffffffffffffffffffffffffffffff1916827bffffffffffffffffffffffffffffffffffffffffffffffffffffffff191614806103d257507f5b5e139f000000000000000000000000000000000000000000000000000000007bffffffffffffffffffffffffffffffffffffffffffffffffffffffff1916827bffffffffffffffffffffffffffffffffffffffffffffffffffffffff1916145b806103e257506103e182610b56565b5b9050919050565b6060600080546103f890611f94565b80601f016020809104026020016040519081016040528092919081815260200182805461042490611f94565b80156104715780601f1061044657610100808354040283529160200191610471565b820191906000526020600020905b81548152906001019060200180831161045457829003601f168201915b5050505050905090565b600061048682610bc0565b6104c5576040517f08c379a00000000000000000000000000000000000000000000000000000000081526004016104bc90612038565b60405180910390fd5b6004600083815260200190815260200160002060009054906101000a900473ffffffffffffffffffffffffffffffffffffffff169050919050565b600061050b826106fc565b90508073ffffffffffffffffffffffffffffffffffffffff168373ffffffffffffffffffffffffffffffffffffffff16141561057c576040517f08c379a0000000000000000000000000000000000000000000000000000000008152600401610573906120ca565b60405180910390fd5b8073ffffffffffffffffffffffffffffffffffffffff1661059b610c2c565b73ffffffffffffffffffffffffffffffffffffffff1614806105ca57506105c9816105c4610c2c565b610ac2565b5b610609576040517f08c379a00000000000000000000000000000000000000000000000000000000081526004016106009061215c565b60405180910390fd5b6106138383610c34565b505050565b610629610623610c2c565b82610ced565b610668576040517f08c379a000000000000000000000000000000000000000000000000000000000815260040161065f906121ee565b60405180910390fd5b610673838383610dcb565b505050565b6106938383836040518060200160405280600081525061090e565b505050565b60006106a46007611027565b60006106b0600761103d565b90506106bc338261104b565b6106c68184611219565b6106f3600860009054906101000a900473ffffffffffffffffffffffffffffffffffffffff1660016108f8565b80915050919050565b6000806002600084815260200190815260200160002060009054906101000a900473ffffffffffffffffffffffffffffffffffffffff169050600073ffffffffffffffffffffffffffffffffffffffff168173ffffffffffffffffffffffffffffffffffffffff1614156107a5576040517f08c379a000000000000000000000000000000000000000000000000000000000815260040161079c90612280565b60405180910390fd5b80915050919050565b60008073ffffffffffffffffffffffffffffffffffffffff168273ffffffffffffffffffffffffffffffffffffffff16141561081f576040517f08c379a000000000000000000000000000000000000000000000000000000000815260040161081690612312565b60405180910390fd5b600360008373ffffffffffffffffffffffffffffffffffffffff1673ffffffffffffffffffffffffffffffffffffffff168152602001908152602001600020549050919050565b60606001805461087590611f94565b80601f01602080910402602001604051908101604052809291908181526020018280546108a190611f94565b80156108ee5780601f106108c3576101008083540402835291602001916108ee565b820191906000526020600020905b8154815290600101906020018083116108d157829003601f168201915b5050505050905090565b61090a610903610c2c565b838361128d565b5050565b61091f610919610c2c565b83610ced565b61095e576040517f08c379a0000000000000000000000000000000000000000000000000000000008152600401610955906121ee565b60405180910390fd5b61096a848484846113fa565b50505050565b606061097b82610bc0565b6109ba576040517f08c379a00000000000000000000000000000000000000000000000000000000081526004016109b1906123a4565b60405180910390fd5b60006006600084815260200190815260200160002080546109da90611f94565b80601f0160208091040260200160405190810160405280929190818152602001828054610a0690611f94565b8015610a535780601f10610a2857610100808354040283529160200191610a53565b820191906000526020600020905b815481529060010190602001808311610a3657829003601f168201915b505050505090506000610a64611456565b9050600081511415610a7a578192505050610abd565b600082511115610aaf578082604051602001610a97929190612400565b60405160208183030381529060405292505050610abd565b610ab88461146d565b925050505b919050565b6000600560008473ffffffffffffffffffffffffffffffffffffffff1673ffffffffffffffffffffffffffffffffffffffff16815260200190815260200160002060008373ffffffffffffffffffffffffffffffffffffffff1673ffffffffffffffffffffffffffffffffffffffff16815260200190815260200160002060009054906101000a900460ff16905092915050565b60007f01ffc9a7000000000000000000000000000000000000000000000000000000007bffffffffffffffffffffffffffffffffffffffffffffffffffffffff1916827bffffffffffffffffffffffffffffffffffffffffffffffffffffffff1916149050919050565b60008073ffffffffffffffffffffffffffffffffffffffff166002600084815260200190815260200160002060009054906101000a900473ffffffffffffffffffffffffffffffffffffffff1673ffffffffffffffffffffffffffffffffffffffff1614159050919050565b600033905090565b816004600083815260200190815260200160002060006101000a81548173ffffffffffffffffffffffffffffffffffffffff021916908373ffffffffffffffffffffffffffffffffffffffff160217905550808273ffffffffffffffffffffffffffffffffffffffff16610ca7836106fc565b73ffffffffffffffffffffffffffffffffffffffff167f8c5be1e5ebec7d5bd14f71427d1e84f3dd0314c0f7b2291e5b200ac8c7c3b92560405160405180910390a45050565b6000610cf882610bc0565b610d37576040517f08c379a0000000000000000000000000000000000000000000000000000000008152600401610d2e90612496565b60405180910390fd5b6000610d42836106fc565b90508073ffffffffffffffffffffffffffffffffffffffff168473ffffffffffffffffffffffffffffffffffffffff161480610db157508373ffffffffffffffffffffffffffffffffffffffff16610d998461047b565b73ffffffffffffffffffffffffffffffffffffffff16145b80610dc25750610dc18185610ac2565b5b91505092915050565b8273ffffffffffffffffffffffffffffffffffffffff16610deb826106fc565b73ffffffffffffffffffffffffffffffffffffffff1614610e41576040517f08c379a0000000000000000000000000000000000000000000000000000000008152600401610e3890612528565b60405180910390fd5b600073ffffffffffffffffffffffffffffffffffffffff168273ffffffffffffffffffffffffffffffffffffffff161415610eb1576040517f08c379a0000000000000000000000000000000000000000000000000000000008152600401610ea8906125ba565b60405180910390fd5b610ebc838383611514565b610ec7600082610c34565b6001600360008573ffffffffffffffffffffffffffffffffffffffff1673ffffffffffffffffffffffffffffffffffffffff1681526020019081526020016000206000828254610f179190612609565b925050819055506001600360008473ffffffffffffffffffffffffffffffffffffffff1673ffffffffffffffffffffffffffffffffffffffff1681526020019081526020016000206000828254610f6e919061263d565b92505081905550816002600083815260200190815260200160002060006101000a81548173ffffffffffffffffffffffffffffffffffffffff021916908373ffffffffffffffffffffffffffffffffffffffff160217905550808273ffffffffffffffffffffffffffffffffffffffff168473ffffffffffffffffffffffffffffffffffffffff167fddf252ad1be2c89b69c2b068fc378daa952ba7f163c4a11628f55a4df523b3ef60405160405180910390a4505050565b6001816000016000828254019250508190555050565b600081600001549050919050565b600073ffffffffffffffffffffffffffffffffffffffff168273ffffffffffffffffffffffffffffffffffffffff1614156110bb576040517f08c379a00000000000000000000000000000000000000000000000000000000081526004016110b2906126df565b60405180910390fd5b6110c481610bc0565b15611104576040517f08c379a00000000000000000000000000000000000000000000000000000000081526004016110fb9061274b565b60405180910390fd5b61111060008383611514565b6001600360008473ffffffffffffffffffffffffffffffffffffffff1673ffffffffffffffffffffffffffffffffffffffff1681526020019081526020016000206000828254611160919061263d565b92505081905550816002600083815260200190815260200160002060006101000a81548173ffffffffffffffffffffffffffffffffffffffff021916908373ffffffffffffffffffffffffffffffffffffffff160217905550808273ffffffffffffffffffffffffffffffffffffffff16600073ffffffffffffffffffffffffffffffffffffffff167fddf252ad1be2c89b69c2b068fc378daa952ba7f163c4a11628f55a4df523b3ef60405160405180910390a45050565b61122282610bc0565b611261576040517f08c379a0000000000000000000000000000000000000000000000000000000008152600401611258906127dd565b60405180910390fd5b80600660008481526020019081526020016000209080519060200190611288929190611815565b505050565b8173ffffffffffffffffffffffffffffffffffffffff168373ffffffffffffffffffffffffffffffffffffffff1614156112fc576040517f08c379a00000000000000000000000000000000000000000000000000000000081526004016112f390612849565b60405180910390fd5b80600560008573ffffffffffffffffffffffffffffffffffffffff1673ffffffffffffffffffffffffffffffffffffffff16815260200190815260200160002060008473ffffffffffffffffffffffffffffffffffffffff1673ffffffffffffffffffffffffffffffffffffffff16815260200190815260200160002060006101000a81548160ff0219169083151502179055508173ffffffffffffffffffffffffffffffffffffffff168373ffffffffffffffffffffffffffffffffffffffff167f17307eab39ab6107e8899845ad3d59bd9653f200f220920489ca2b5937696c31836040516113ed919061196c565b60405180910390a3505050565b611405848484610dcb565b61141184848484611519565b611450576040517f08c379a0000000000000000000000000000000000000000000000000000000008152600401611447906128db565b60405180910390fd5b50505050565b606060405180602001604052806000815250905090565b606061147882610bc0565b6114b7576040517f08c379a00000000000000000000000000000000000000000000000000000000081526004016114ae9061296d565b60405180910390fd5b60006114c1611456565b905060008151116114e1576040518060200160405280600081525061150c565b806114eb846116a1565b6040516020016114fc929190612400565b6040516020818303038152906040525b915050919050565b505050565b600061153a8473ffffffffffffffffffffffffffffffffffffffff16611802565b15611694578373ffffffffffffffffffffffffffffffffffffffff1663150b7a02611563610c2c565b8786866040518563ffffffff1660e01b815260040161158594939291906129e2565b6020604051808303816000875af19250505080156115c157506040513d601f19601f820116820180604052508101906115be9190612a43565b60015b611644573d80600081146115f1576040519150601f19603f3d011682016040523d82523d6000602084013e6115f6565b606091505b5060008151141561163c576040517f08c379a0000000000000000000000000000000000000000000000000000000008152600401611633906128db565b60405180910390fd5b805181602001fd5b63150b7a0260e01b7bffffffffffffffffffffffffffffffffffffffffffffffffffffffff1916817bffffffffffffffffffffffffffffffffffffffffffffffffffffffff191614915050611699565b600190505b949350505050565b606060008214156116e9576040518060400160405280600181526020017f300000000000000000000000000000000000000000000000000000000000000081525090506117fd565b600082905060005b6000821461171b57808061170490612a70565b915050600a826117149190612ae8565b91506116f1565b60008167ffffffffffffffff81111561173757611736611bca565b5b6040519080825280601f01601f1916602001820160405280156117695781602001600182028036833780820191505090505b5090505b600085146117f6576001826117829190612609565b9150600a856117919190612b19565b603061179d919061263d565b60f81b8183815181106117b3576117b2612b4a565b5b60200101907effffffffffffffffffffffffffffffffffffffffffffffffffffffffffffff1916908160001a905350600a856117ef9190612ae8565b945061176d565b8093505050505b919050565b600080823b905060008111915050919050565b82805461182190611f94565b90600052602060002090601f016020900481019282611843576000855561188a565b82601f1061185c57805160ff191683800117855561188a565b8280016001018555821561188a579182015b8281111561188957825182559160200191906001019061186e565b5b509050611897919061189b565b5090565b5b808211156118b457600081600090555060010161189c565b5090565b6000604051905090565b600080fd5b600080fd5b60007fffffffff0000000000000000000000000000000000000000000000000000000082169050919050565b611901816118cc565b811461190c57600080fd5b50565b60008135905061191e816118f8565b92915050565b60006020828403121561193a576119396118c2565b5b60006119488482850161190f565b91505092915050565b60008115159050919050565b61196681611951565b82525050565b6000602082019050611981600083018461195d565b92915050565b600081519050919050565b600082825260208201905092915050565b60005b838110156119c15780820151818401526020810190506119a6565b838111156119d0576000848401525b50505050565b6000601f19601f8301169050919050565b60006119f282611987565b6119fc8185611992565b9350611a0c8185602086016119a3565b611a15816119d6565b840191505092915050565b60006020820190508181036000830152611a3a81846119e7565b905092915050565b6000819050919050565b611a5581611a42565b8114611a6057600080fd5b50565b600081359050611a7281611a4c565b92915050565b600060208284031215611a8e57611a8d6118c2565b5b6000611a9c84828501611a63565b91505092915050565b600073ffffffffffffffffffffffffffffffffffffffff82169050919050565b6000611ad082611aa5565b9050919050565b611ae081611ac5565b82525050565b6000602082019050611afb6000830184611ad7565b92915050565b611b0a81611ac5565b8114611b1557600080fd5b50565b600081359050611b2781611b01565b92915050565b60008060408385031215611b4457611b436118c2565b5b6000611b5285828601611b18565b9250506020611b6385828601611a63565b9150509250929050565b600080600060608486031215611b8657611b856118c2565b5b6000611b9486828701611b18565b9350506020611ba586828701611b18565b9250506040611bb686828701611a63565b9150509250925092565b600080fd5b600080fd5b7f4e487b7100000000000000000000000000000000000000000000000000000000600052604160045260246000fd5b611c02826119d6565b810181811067ffffffffffffffff82111715611c2157611c20611bca565b5b80604052505050565b6000611c346118b8565b9050611c408282611bf9565b919050565b600067ffffffffffffffff821115611c6057611c5f611bca565b5b611c69826119d6565b9050602081019050919050565b82818337600083830152505050565b6000611c98611c9384611c45565b611c2a565b905082815260208101848484011115611cb457611cb3611bc5565b5b611cbf848285611c76565b509392505050565b600082601f830112611cdc57611cdb611bc0565b5b8135611cec848260208601611c85565b91505092915050565b600060208284031215611d0b57611d0a6118c2565b5b600082013567ffffffffffffffff811115611d2957611d286118c7565b5b611d3584828501611cc7565b91505092915050565b611d4781611a42565b82525050565b6000602082019050611d626000830184611d3e565b92915050565b600060208284031215611d7e57611d7d6118c2565b5b6000611d8c84828501611b18565b91505092915050565b611d9e81611951565b8114611da957600080fd5b50565b600081359050611dbb81611d95565b92915050565b60008060408385031215611dd857611dd76118c2565b5b6000611de685828601611b18565b9250506020611df785828601611dac565b9150509250929050565b600067ffffffffffffffff821115611e1c57611e1b611bca565b5b611e25826119d6565b9050602081019050919050565b6000611e45611e4084611e01565b611c2a565b905082815260208101848484011115611e6157611e60611bc5565b5b611e6c848285611c76565b509392505050565b600082601f830112611e8957611e88611bc0565b5b8135611e99848260208601611e32565b91505092915050565b60008060008060808587031215611ebc57611ebb6118c2565b5b6000611eca87828801611b18565b9450506020611edb87828801611b18565b9350506040611eec87828801611a63565b925050606085013567ffffffffffffffff811115611f0d57611f0c6118c7565b5b611f1987828801611e74565b91505092959194509250565b60008060408385031215611f3c57611f3b6118c2565b5b6000611f4a85828601611b18565b9250506020611f5b85828601611b18565b9150509250929050565b7f4e487b7100000000000000000000000000000000000000000000000000000000600052602260045260246000fd5b60006002820490506001821680611fac57607f821691505b60208210811415611fc057611fbf611f65565b5b50919050565b7f4552433732313a20617070726f76656420717565727920666f72206e6f6e657860008201527f697374656e7420746f6b656e0000000000000000000000000000000000000000602082015250565b6000612022602c83611992565b915061202d82611fc6565b604082019050919050565b6000602082019050818103600083015261205181612015565b9050919050565b7f4552433732313a20617070726f76616c20746f2063757272656e74206f776e6560008201527f7200000000000000000000000000000000000000000000000000000000000000602082015250565b60006120b4602183611992565b91506120bf82612058565b604082019050919050565b600060208201905081810360008301526120e3816120a7565b9050919050565b7f4552433732313a20617070726f76652063616c6c6572206973206e6f74206f7760008201527f6e6572206e6f7220617070726f76656420666f7220616c6c0000000000000000602082015250565b6000612146603883611992565b9150612151826120ea565b604082019050919050565b6000602082019050818103600083015261217581612139565b9050919050565b7f4552433732313a207472616e736665722063616c6c6572206973206e6f74206f60008201527f776e6572206e6f7220617070726f766564000000000000000000000000000000602082015250565b60006121d8603183611992565b91506121e38261217c565b604082019050919050565b60006020820190508181036000830152612207816121cb565b9050919050565b7f4552433732313a206f776e657220717565727920666f72206e6f6e657869737460008201527f656e7420746f6b656e0000000000000000000000000000000000000000000000602082015250565b600061226a602983611992565b91506122758261220e565b604082019050919050565b600060208201905081810360008301526122998161225d565b9050919050565b7f4552433732313a2062616c616e636520717565727920666f7220746865207a6560008201527f726f206164647265737300000000000000000000000000000000000000000000602082015250565b60006122fc602a83611992565b9150612307826122a0565b604082019050919050565b6000602082019050818103600083015261232b816122ef565b9050919050565b7f45524337323155524953746f726167653a2055524920717565727920666f722060008201527f6e6f6e6578697374656e7420746f6b656e000000000000000000000000000000602082015250565b600061238e603183611992565b915061239982612332565b604082019050919050565b600060208201905081810360008301526123bd81612381565b9050919050565b600081905092915050565b60006123da82611987565b6123e481856123c4565b93506123f48185602086016119a3565b80840191505092915050565b600061240c82856123cf565b915061241882846123cf565b91508190509392505050565b7f4552433732313a206f70657261746f7220717565727920666f72206e6f6e657860008201527f697374656e7420746f6b656e0000000000000000000000000000000000000000602082015250565b6000612480602c83611992565b915061248b82612424565b604082019050919050565b600060208201905081810360008301526124af81612473565b9050919050565b7f4552433732313a207472616e73666572206f6620746f6b656e2074686174206960008201527f73206e6f74206f776e0000000000000000000000000000000000000000000000602082015250565b6000612512602983611992565b915061251d826124b6565b604082019050919050565b6000602082019050818103600083015261254181612505565b9050919050565b7f4552433732313a207472616e7366657220746f20746865207a65726f2061646460008201527f7265737300000000000000000000000000000000000000000000000000000000602082015250565b60006125a4602483611992565b91506125af82612548565b604082019050919050565b600060208201905081810360008301526125d381612597565b9050919050565b7f4e487b7100000000000000000000000000000000000000000000000000000000600052601160045260246000fd5b600061261482611a42565b915061261f83611a42565b925082821015612632576126316125da565b5b828203905092915050565b600061264882611a42565b915061265383611a42565b9250827fffffffffffffffffffffffffffffffffffffffffffffffffffffffffffffffff03821115612688576126876125da565b5b828201905092915050565b7f4552433732313a206d696e7420746f20746865207a65726f2061646472657373600082015250565b60006126c9602083611992565b91506126d482612693565b602082019050919050565b600060208201905081810360008301526126f8816126bc565b9050919050565b7f4552433732313a20746f6b656e20616c7265616479206d696e74656400000000600082015250565b6000612735601c83611992565b9150612740826126ff565b602082019050919050565b6000602082019050818103600083015261276481612728565b9050919050565b7f45524337323155524953746f726167653a2055524920736574206f66206e6f6e60008201527f6578697374656e7420746f6b656e000000000000000000000000000000000000602082015250565b60006127c7602e83611992565b91506127d28261276b565b604082019050919050565b600060208201905081810360008301526127f6816127ba565b9050919050565b7f4552433732313a20617070726f766520746f2063616c6c657200000000000000600082015250565b6000612833601983611992565b915061283e826127fd565b602082019050919050565b6000602082019050818103600083015261286281612826565b9050919050565b7f4552433732313a207472616e7366657220746f206e6f6e20455243373231526560008201527f63656976657220696d706c656d656e7465720000000000000000000000000000602082015250565b60006128c5603283611992565b91506128d082612869565b604082019050919050565b600060208201905081810360008301526128f4816128b8565b9050919050565b7f4552433732314d657461646174613a2055524920717565727920666f72206e6f60008201527f6e6578697374656e7420746f6b656e0000000000000000000000000000000000602082015250565b6000612957602f83611992565b9150612962826128fb565b604082019050919050565b600060208201905081810360008301526129868161294a565b9050919050565b600081519050919050565b600082825260208201905092915050565b60006129b48261298d565b6129be8185612998565b93506129ce8185602086016119a3565b6129d7816119d6565b840191505092915050565b60006080820190506129f76000830187611ad7565b612a046020830186611ad7565b612a116040830185611d3e565b8181036060830152612a2381846129a9565b905095945050505050565b600081519050612a3d816118f8565b92915050565b600060208284031215612a5957612a586118c2565b5b6000612a6784828501612a2e565b91505092915050565b6000612a7b82611a42565b91507fffffffffffffffffffffffffffffffffffffffffffffffffffffffffffffffff821415612aae57612aad6125da565b5b600182019050919050565b7f4e487b7100000000000000000000000000000000000000000000000000000000600052601260045260246000fd5b6000612af382611a42565b9150612afe83611a42565b925082612b0e57612b0d612ab9565b5b828204905092915050565b6000612b2482611a42565b9150612b2f83611a42565b925082612b3f57612b3e612ab9565b5b828206905092915050565b7f4e487b7100000000000000000000000000000000000000000000000000000000600052603260045260246000fdfea26469706673582212206aa2230069505fa48174a0901cae5b21d9774c1896cd7a7a61d81131bd7f30fd64736f6c634300080b0033",
  "immutableReferences": {},
  "source": "// SPDX-License-Identifier: MIT\r\npragma solidity ^0.8.11;\r\n\r\nimport \"@openzeppelin/contracts/token/ERC721/ERC721.sol\";\r\nimport \"@openzeppelin/contracts/token/ERC721/extensions/ERC721URIStorage.sol\";\r\nimport \"@openzeppelin/contracts/utils/Counters.sol\";\r\n\r\ncontract Ticket is ERC721URIStorage {\r\n    using Counters for Counters.Counter;\r\n    Counters.Counter private _tokenIds;\r\n    address contractAddress;\r\n\r\n    constructor() ERC721(\"Tiketplace Tokens\", \"TKP\") {}\r\n\r\n    function createToken(string memory tokenURI) public returns (uint256) {\r\n        _tokenIds.increment();\r\n        uint256 newItemId = _tokenIds.current();\r\n\r\n        _mint(msg.sender, newItemId);\r\n        _setTokenURI(newItemId, tokenURI);\r\n        setApprovalForAll(contractAddress, true);\r\n        return newItemId;\r\n    }\r\n}\r\n",
  "sourcePath": "D:\\Final Project\\ticketplace\\contracts\\Ticket.sol",
  "compiler": {
    "name": "solc",
    "version": "0.8.11+commit.d7f03943.Emscripten.clang"
  },
  "schemaVersion": "3.4.4",
  "updatedAt": "2022-01-30T13:20:00.220Z",
  "networkType": "ethereum",
  "devdoc": {
    "kind": "dev",
    "methods": {
      "approve(address,uint256)": {
        "details": "See {IERC721-approve}."
      },
      "balanceOf(address)": {
        "details": "See {IERC721-balanceOf}."
      },
      "getApproved(uint256)": {
        "details": "See {IERC721-getApproved}."
      },
      "isApprovedForAll(address,address)": {
        "details": "See {IERC721-isApprovedForAll}."
      },
      "name()": {
        "details": "See {IERC721Metadata-name}."
      },
      "ownerOf(uint256)": {
        "details": "See {IERC721-ownerOf}."
      },
      "safeTransferFrom(address,address,uint256)": {
        "details": "See {IERC721-safeTransferFrom}."
      },
      "safeTransferFrom(address,address,uint256,bytes)": {
        "details": "See {IERC721-safeTransferFrom}."
      },
      "setApprovalForAll(address,bool)": {
        "details": "See {IERC721-setApprovalForAll}."
      },
      "supportsInterface(bytes4)": {
        "details": "See {IERC165-supportsInterface}."
      },
      "symbol()": {
        "details": "See {IERC721Metadata-symbol}."
      },
      "tokenURI(uint256)": {
        "details": "See {IERC721Metadata-tokenURI}."
      },
      "transferFrom(address,address,uint256)": {
        "details": "See {IERC721-transferFrom}."
      }
    },
    "version": 1
  },
  "userdoc": {
    "kind": "user",
    "methods": {},
    "version": 1
  }
}