{
  "contractName": "Ticket",
  "abi": [
    {
      "inputs": [],
      "stateMutability": "nonpayable",
      "type": "constructor"
    },
    {
      "anonymous": false,
      "inputs": [
        {
          "indexed": true,
          "internalType": "address",
          "name": "account",
          "type": "address"
        },
        {
          "indexed": true,
          "internalType": "address",
          "name": "operator",
          "type": "address"
        },
        {
          "indexed": false,
          "internalType": "bool",
          "name": "approved",
          "type": "bool"
        }
      ],
      "name": "ApprovalForAll",
      "type": "event"
    },
    {
      "anonymous": false,
      "inputs": [
        {
          "indexed": true,
          "internalType": "uint256",
          "name": "itemId",
          "type": "uint256"
        },
        {
          "indexed": true,
          "internalType": "uint256",
          "name": "tokenId",
          "type": "uint256"
        },
        {
          "indexed": false,
          "internalType": "address",
          "name": "seller",
          "type": "address"
        },
        {
          "indexed": false,
          "internalType": "address",
          "name": "owner",
          "type": "address"
        },
        {
          "indexed": false,
          "internalType": "uint256",
          "name": "price",
          "type": "uint256"
        },
        {
          "indexed": false,
          "internalType": "bool",
          "name": "list",
          "type": "bool"
        },
        {
          "indexed": false,
          "internalType": "bool",
          "name": "sold",
          "type": "bool"
        }
      ],
      "name": "MarketItemCreated",
      "type": "event"
    },
    {
      "anonymous": false,
      "inputs": [
        {
          "indexed": true,
          "internalType": "address",
          "name": "operator",
          "type": "address"
        },
        {
          "indexed": true,
          "internalType": "address",
          "name": "from",
          "type": "address"
        },
        {
          "indexed": true,
          "internalType": "address",
          "name": "to",
          "type": "address"
        },
        {
          "indexed": false,
          "internalType": "uint256[]",
          "name": "ids",
          "type": "uint256[]"
        },
        {
          "indexed": false,
          "internalType": "uint256[]",
          "name": "values",
          "type": "uint256[]"
        }
      ],
      "name": "TransferBatch",
      "type": "event"
    },
    {
      "anonymous": false,
      "inputs": [
        {
          "indexed": true,
          "internalType": "address",
          "name": "operator",
          "type": "address"
        },
        {
          "indexed": true,
          "internalType": "address",
          "name": "from",
          "type": "address"
        },
        {
          "indexed": true,
          "internalType": "address",
          "name": "to",
          "type": "address"
        },
        {
          "indexed": false,
          "internalType": "uint256",
          "name": "id",
          "type": "uint256"
        },
        {
          "indexed": false,
          "internalType": "uint256",
          "name": "value",
          "type": "uint256"
        }
      ],
      "name": "TransferSingle",
      "type": "event"
    },
    {
      "anonymous": false,
      "inputs": [
        {
          "indexed": false,
          "internalType": "string",
          "name": "value",
          "type": "string"
        },
        {
          "indexed": true,
          "internalType": "uint256",
          "name": "id",
          "type": "uint256"
        }
      ],
      "name": "URI",
      "type": "event"
    },
    {
      "inputs": [
        {
          "internalType": "address",
          "name": "account",
          "type": "address"
        },
        {
          "internalType": "uint256",
          "name": "id",
          "type": "uint256"
        }
      ],
      "name": "balanceOf",
      "outputs": [
        {
          "internalType": "uint256",
          "name": "",
          "type": "uint256"
        }
      ],
      "stateMutability": "view",
      "type": "function",
      "constant": true
    },
    {
      "inputs": [
        {
          "internalType": "address[]",
          "name": "accounts",
          "type": "address[]"
        },
        {
          "internalType": "uint256[]",
          "name": "ids",
          "type": "uint256[]"
        }
      ],
      "name": "balanceOfBatch",
      "outputs": [
        {
          "internalType": "uint256[]",
          "name": "",
          "type": "uint256[]"
        }
      ],
      "stateMutability": "view",
      "type": "function",
      "constant": true
    },
    {
      "inputs": [
        {
          "internalType": "address",
          "name": "",
          "type": "address"
        },
        {
          "internalType": "uint256",
          "name": "",
          "type": "uint256"
        }
      ],
      "name": "createdTokens",
      "outputs": [
        {
          "internalType": "uint256",
          "name": "tokenId",
          "type": "uint256"
        },
        {
          "internalType": "uint256",
          "name": "supply",
          "type": "uint256"
        }
      ],
      "stateMutability": "view",
      "type": "function",
      "constant": true
    },
    {
      "inputs": [
        {
          "internalType": "address",
          "name": "account",
          "type": "address"
        },
        {
          "internalType": "address",
          "name": "operator",
          "type": "address"
        }
      ],
      "name": "isApprovedForAll",
      "outputs": [
        {
          "internalType": "bool",
          "name": "",
          "type": "bool"
        }
      ],
      "stateMutability": "view",
      "type": "function",
      "constant": true
    },
    {
      "inputs": [
        {
          "internalType": "address",
          "name": "from",
          "type": "address"
        },
        {
          "internalType": "address",
          "name": "to",
          "type": "address"
        },
        {
          "internalType": "uint256[]",
          "name": "ids",
          "type": "uint256[]"
        },
        {
          "internalType": "uint256[]",
          "name": "amounts",
          "type": "uint256[]"
        },
        {
          "internalType": "bytes",
          "name": "data",
          "type": "bytes"
        }
      ],
      "name": "safeBatchTransferFrom",
      "outputs": [],
      "stateMutability": "nonpayable",
      "type": "function"
    },
    {
      "inputs": [
        {
          "internalType": "address",
          "name": "from",
          "type": "address"
        },
        {
          "internalType": "address",
          "name": "to",
          "type": "address"
        },
        {
          "internalType": "uint256",
          "name": "id",
          "type": "uint256"
        },
        {
          "internalType": "uint256",
          "name": "amount",
          "type": "uint256"
        },
        {
          "internalType": "bytes",
          "name": "data",
          "type": "bytes"
        }
      ],
      "name": "safeTransferFrom",
      "outputs": [],
      "stateMutability": "nonpayable",
      "type": "function"
    },
    {
      "inputs": [
        {
          "internalType": "address",
          "name": "operator",
          "type": "address"
        },
        {
          "internalType": "bool",
          "name": "approved",
          "type": "bool"
        }
      ],
      "name": "setApprovalForAll",
      "outputs": [],
      "stateMutability": "nonpayable",
      "type": "function"
    },
    {
      "inputs": [
        {
          "internalType": "bytes4",
          "name": "interfaceId",
          "type": "bytes4"
        }
      ],
      "name": "supportsInterface",
      "outputs": [
        {
          "internalType": "bool",
          "name": "",
          "type": "bool"
        }
      ],
      "stateMutability": "view",
      "type": "function",
      "constant": true
    },
    {
      "inputs": [
        {
          "internalType": "uint256",
          "name": "tokenId",
          "type": "uint256"
        }
      ],
      "name": "uri",
      "outputs": [
        {
          "internalType": "string",
          "name": "",
          "type": "string"
        }
      ],
      "stateMutability": "view",
      "type": "function",
      "constant": true
    },
    {
      "inputs": [
        {
          "internalType": "uint256",
          "name": "tokenId",
          "type": "uint256"
        },
        {
          "internalType": "string",
          "name": "tokenUri",
          "type": "string"
        }
      ],
      "name": "setTokenUri",
      "outputs": [],
      "stateMutability": "nonpayable",
      "type": "function"
    },
    {
      "inputs": [
        {
          "internalType": "string",
          "name": "tokenUri",
          "type": "string"
        },
        {
          "internalType": "uint256",
          "name": "supply",
          "type": "uint256"
        }
      ],
      "name": "mintToken",
      "outputs": [
        {
          "internalType": "uint256",
          "name": "",
          "type": "uint256"
        }
      ],
      "stateMutability": "nonpayable",
      "type": "function"
    },
    {
      "inputs": [
        {
          "internalType": "uint256",
          "name": "tokenId",
          "type": "uint256"
        },
        {
          "internalType": "uint256",
          "name": "price",
          "type": "uint256"
        },
        {
          "internalType": "uint256",
          "name": "supply",
          "type": "uint256"
        }
      ],
      "name": "createMarketItem",
      "outputs": [],
      "stateMutability": "payable",
      "type": "function",
      "payable": true
    },
    {
      "inputs": [
        {
          "internalType": "address",
          "name": "account",
          "type": "address"
        }
      ],
      "name": "fetchItemsCreated",
      "outputs": [
        {
          "components": [
            {
              "internalType": "uint256",
              "name": "tokenId",
              "type": "uint256"
            },
            {
              "internalType": "uint256",
              "name": "supply",
              "type": "uint256"
            }
          ],
          "internalType": "struct Ticket.CreatedItem[]",
          "name": "",
          "type": "tuple[]"
        }
      ],
      "stateMutability": "view",
      "type": "function",
      "constant": true
    },
    {
      "inputs": [
        {
          "internalType": "uint256",
          "name": "tokenId",
          "type": "uint256"
        }
      ],
      "name": "fetchMarketItem",
      "outputs": [
        {
          "components": [
            {
              "internalType": "uint256",
              "name": "itemId",
              "type": "uint256"
            },
            {
              "internalType": "uint256",
              "name": "tokenId",
              "type": "uint256"
            },
            {
              "internalType": "address payable",
              "name": "seller",
              "type": "address"
            },
            {
              "internalType": "address payable",
              "name": "owner",
              "type": "address"
            },
            {
              "internalType": "uint256",
              "name": "price",
              "type": "uint256"
            },
            {
              "internalType": "uint256",
              "name": "supply",
              "type": "uint256"
            },
            {
              "internalType": "bool",
              "name": "sold",
              "type": "bool"
            }
          ],
          "internalType": "struct Ticket.MarketItem",
          "name": "",
          "type": "tuple"
        }
      ],
      "stateMutability": "view",
      "type": "function",
      "constant": true
    },
    {
      "inputs": [],
      "name": "fetchMarketItems",
      "outputs": [
        {
          "components": [
            {
              "internalType": "uint256",
              "name": "itemId",
              "type": "uint256"
            },
            {
              "internalType": "uint256",
              "name": "tokenId",
              "type": "uint256"
            },
            {
              "internalType": "address payable",
              "name": "seller",
              "type": "address"
            },
            {
              "internalType": "address payable",
              "name": "owner",
              "type": "address"
            },
            {
              "internalType": "uint256",
              "name": "price",
              "type": "uint256"
            },
            {
              "internalType": "uint256",
              "name": "supply",
              "type": "uint256"
            },
            {
              "internalType": "bool",
              "name": "sold",
              "type": "bool"
            }
          ],
          "internalType": "struct Ticket.MarketItem[]",
          "name": "",
          "type": "tuple[]"
        }
      ],
      "stateMutability": "view",
      "type": "function",
      "constant": true
    },
    {
      "inputs": [],
      "name": "inspectSender",
      "outputs": [
        {
          "internalType": "address",
          "name": "",
          "type": "address"
        }
      ],
      "stateMutability": "view",
      "type": "function",
      "constant": true
    },
    {
      "inputs": [
        {
          "internalType": "address",
          "name": "",
          "type": "address"
        },
        {
          "internalType": "address",
          "name": "",
          "type": "address"
        },
        {
          "internalType": "uint256",
          "name": "",
          "type": "uint256"
        },
        {
          "internalType": "uint256",
          "name": "",
          "type": "uint256"
        },
        {
          "internalType": "bytes",
          "name": "",
          "type": "bytes"
        }
      ],
      "name": "onERC1155Received",
      "outputs": [
        {
          "internalType": "bytes4",
          "name": "",
          "type": "bytes4"
        }
      ],
      "stateMutability": "nonpayable",
      "type": "function"
    },
    {
      "inputs": [
        {
          "internalType": "address",
          "name": "",
          "type": "address"
        },
        {
          "internalType": "address",
          "name": "",
          "type": "address"
        },
        {
          "internalType": "uint256[]",
          "name": "",
          "type": "uint256[]"
        },
        {
          "internalType": "uint256[]",
          "name": "",
          "type": "uint256[]"
        },
        {
          "internalType": "bytes",
          "name": "",
          "type": "bytes"
        }
      ],
      "name": "onERC1155BatchReceived",
      "outputs": [
        {
          "internalType": "bytes4",
          "name": "",
          "type": "bytes4"
        }
      ],
      "stateMutability": "nonpayable",
      "type": "function"
    },
    {
      "inputs": [
        {
          "internalType": "address",
          "name": "",
          "type": "address"
        },
        {
          "internalType": "address",
          "name": "",
          "type": "address"
        },
        {
          "internalType": "uint256",
          "name": "",
          "type": "uint256"
        },
        {
          "internalType": "bytes",
          "name": "",
          "type": "bytes"
        }
      ],
      "name": "onERC721Received",
      "outputs": [
        {
          "internalType": "bytes4",
          "name": "",
          "type": "bytes4"
        }
      ],
      "stateMutability": "nonpayable",
      "type": "function"
    }
  ],
  "bytecode": "0x60806040523480156200001157600080fd5b506040518060400160405280601681526020017f68747470733a2f2f697066732e696e667572612e696f000000000000000000008152506200005981620000a160201b60201c565b5033600660006101000a81548173ffffffffffffffffffffffffffffffffffffffff021916908373ffffffffffffffffffffffffffffffffffffffff160217905550620001d2565b8060029080519060200190620000b9929190620000bd565b5050565b828054620000cb906200019c565b90600052602060002090601f016020900481019282620000ef57600085556200013b565b82601f106200010a57805160ff19168380011785556200013b565b828001600101855582156200013b579182015b828111156200013a5782518255916020019190600101906200011d565b5b5090506200014a91906200014e565b5090565b5b80821115620001695760008160009055506001016200014f565b5090565b7f4e487b7100000000000000000000000000000000000000000000000000000000600052602260045260246000fd5b60006002820490506001821680620001b557607f821691505b60208210811415620001cc57620001cb6200016d565b5b50919050565b613bb680620001e26000396000f3fe6080604052600436106101135760003560e01c80634903b044116100a0578063c046372c11610064578063c046372c146103ee578063c83384561461042b578063e985e9c514610468578063f23a6e61146104a5578063f242432a146104e257610113565b80634903b044146102f75780634e1273f41461032257806357f7789e1461035f578063a22cb46514610388578063bc197c81146103b157610113565b8063150b7a02116100e7578063150b7a02146101fa57806327f14fec146102375780632a45b250146102755780632eb2c2d6146102b2578063320343da146102db57610113565b8062fdd58e1461011857806301ffc9a7146101555780630e89341c146101925780630f08efe0146101cf575b600080fd5b34801561012457600080fd5b5061013f600480360381019061013a91906121e0565b61050b565b60405161014c919061222f565b60405180910390f35b34801561016157600080fd5b5061017c600480360381019061017791906122a2565b6105d4565b60405161018991906122ea565b60405180910390f35b34801561019e57600080fd5b506101b960048036038101906101b49190612305565b6106b6565b6040516101c691906123cb565b60405180910390f35b3480156101db57600080fd5b506101e461075b565b6040516101f19190612569565b60405180910390f35b34801561020657600080fd5b50610221600480360381019061021c91906126c0565b610961565b60405161022e9190612752565b60405180910390f35b34801561024357600080fd5b5061025e600480360381019061025991906121e0565b610975565b60405161026c92919061276d565b60405180910390f35b34801561028157600080fd5b5061029c60048036038101906102979190612305565b6109b6565b6040516102a99190612824565b60405180910390f35b3480156102be57600080fd5b506102d960048036038101906102d49190612907565b610b4f565b005b6102f560048036038101906102f091906129d6565b610bf0565b005b34801561030357600080fd5b5061030c610dfe565b6040516103199190612a38565b60405180910390f35b34801561032e57600080fd5b5061034960048036038101906103449190612b16565b610e06565b6040516103569190612c3d565b60405180910390f35b34801561036b57600080fd5b5061038660048036038101906103819190612d00565b610f1f565b005b34801561039457600080fd5b506103af60048036038101906103aa9190612d88565b610fad565b005b3480156103bd57600080fd5b506103d860048036038101906103d39190612907565b610fc3565b6040516103e59190612752565b60405180910390f35b3480156103fa57600080fd5b5061041560048036038101906104109190612dc8565b610fd8565b604051610422919061222f565b60405180910390f35b34801561043757600080fd5b50610452600480360381019061044d9190612e24565b6110b4565b60405161045f9190612f2f565b60405180910390f35b34801561047457600080fd5b5061048f600480360381019061048a9190612f51565b61116c565b60405161049c91906122ea565b60405180910390f35b3480156104b157600080fd5b506104cc60048036038101906104c79190612f91565b611200565b6040516104d99190612752565b60405180910390f35b3480156104ee57600080fd5b5061050960048036038101906105049190612f91565b611215565b005b60008073ffffffffffffffffffffffffffffffffffffffff168373ffffffffffffffffffffffffffffffffffffffff16141561057c576040517f08c379a00000000000000000000000000000000000000000000000000000000081526004016105739061309a565b60405180910390fd5b60008083815260200190815260200160002060008473ffffffffffffffffffffffffffffffffffffffff1673ffffffffffffffffffffffffffffffffffffffff16815260200190815260200160002054905092915050565b60007fd9b67a26000000000000000000000000000000000000000000000000000000007bffffffffffffffffffffffffffffffffffffffffffffffffffffffff1916827bffffffffffffffffffffffffffffffffffffffffffffffffffffffff1916148061069f57507f0e89341c000000000000000000000000000000000000000000000000000000007bffffffffffffffffffffffffffffffffffffffffffffffffffffffff1916827bffffffffffffffffffffffffffffffffffffffffffffffffffffffff1916145b806106af57506106ae826112b6565b5b9050919050565b60606009600083815260200190815260200160002080546106d6906130e9565b80601f0160208091040260200160405190810160405280929190818152602001828054610702906130e9565b801561074f5780601f106107245761010080835404028352916020019161074f565b820191906000526020600020905b81548152906001019060200180831161073257829003601f168201915b50505050509050919050565b606060006107696004611320565b905060006107776005611320565b6107816004611320565b61078b919061314a565b90506000808267ffffffffffffffff8111156107aa576107a9612595565b5b6040519080825280602002602001820160405280156107e357816020015b6107d061202a565b8152602001906001900390816107c85790505b50905060005b84811015610956576000600182610800919061317e565b90506000600860008381526020019081526020016000209050806040518060e001604052908160008201548152602001600182015481526020016002820160009054906101000a900473ffffffffffffffffffffffffffffffffffffffff1673ffffffffffffffffffffffffffffffffffffffff1673ffffffffffffffffffffffffffffffffffffffff1681526020016003820160009054906101000a900473ffffffffffffffffffffffffffffffffffffffff1673ffffffffffffffffffffffffffffffffffffffff1673ffffffffffffffffffffffffffffffffffffffff16815260200160048201548152602001600582015481526020016006820160009054906101000a900460ff161515151581525050848681518110610927576109266131d4565b5b602002602001018190525060018561093f919061317e565b94505050808061094e90613203565b9150506107e9565b508094505050505090565b600063150b7a0260e01b9050949350505050565b6007602052816000526040600020818154811061099157600080fd5b9060005260206000209060020201600091509150508060000154908060010154905082565b6109be61202a565b60006109ca6004611320565b90506109d461202a565b60005b82811015610b445784600860006001846109f1919061317e565b8152602001908152602001600020600101541415610b31576000600182610a18919061317e565b90506000600860008381526020019081526020016000209050806040518060e001604052908160008201548152602001600182015481526020016002820160009054906101000a900473ffffffffffffffffffffffffffffffffffffffff1673ffffffffffffffffffffffffffffffffffffffff1673ffffffffffffffffffffffffffffffffffffffff1681526020016003820160009054906101000a900473ffffffffffffffffffffffffffffffffffffffff1673ffffffffffffffffffffffffffffffffffffffff1673ffffffffffffffffffffffffffffffffffffffff16815260200160048201548152602001600582015481526020016006820160009054906101000a900460ff161515151581525050935050505b8080610b3c90613203565b9150506109d7565b508092505050919050565b610b5761132e565b73ffffffffffffffffffffffffffffffffffffffff168573ffffffffffffffffffffffffffffffffffffffff161480610b9d5750610b9c85610b9761132e565b61116c565b5b610bdc576040517f08c379a0000000000000000000000000000000000000000000000000000000008152600401610bd3906132be565b60405180910390fd5b610be98585858585611336565b5050505050565b60008211610c33576040517f08c379a0000000000000000000000000000000000000000000000000000000008152600401610c2a9061332a565b60405180910390fd5b610c3d600461164a565b6000610c496004611320565b90506040518060e001604052808281526020018581526020013373ffffffffffffffffffffffffffffffffffffffff1681526020013373ffffffffffffffffffffffffffffffffffffffff1681526020018481526020018381526020016000151581525060086000838152602001908152602001600020600082015181600001556020820151816001015560408201518160020160006101000a81548173ffffffffffffffffffffffffffffffffffffffff021916908373ffffffffffffffffffffffffffffffffffffffff16021790555060608201518160030160006101000a81548173ffffffffffffffffffffffffffffffffffffffff021916908373ffffffffffffffffffffffffffffffffffffffff1602179055506080820151816004015560a0820151816005015560c08201518160060160006101000a81548160ff021916908315150217905550905050610db53330868560405180602001604052806000815250611215565b83817f37a688d146d52021107322f877f4c58eb012a129b80d9383e2ec76c4d4a9e27333338760016000604051610df095949392919061334a565b60405180910390a350505050565b600033905090565b60608151835114610e4c576040517f08c379a0000000000000000000000000000000000000000000000000000000008152600401610e439061340f565b60405180910390fd5b6000835167ffffffffffffffff811115610e6957610e68612595565b5b604051908082528060200260200182016040528015610e975781602001602082028036833780820191505090505b50905060005b8451811015610f1457610ee4858281518110610ebc57610ebb6131d4565b5b6020026020010151858381518110610ed757610ed66131d4565b5b602002602001015161050b565b828281518110610ef757610ef66131d4565b5b60200260200101818152505080610f0d90613203565b9050610e9d565b508091505092915050565b6000600960008481526020019081526020016000208054610f3f906130e9565b905014610f81576040517f08c379a0000000000000000000000000000000000000000000000000000000008152600401610f789061347b565b60405180910390fd5b80600960008481526020019081526020016000209080519060200190610fa8929190612095565b505050565b610fbf610fb861132e565b8383611660565b5050565b600063bc197c8160e01b905095945050505050565b6000610fe4600361164a565b6000610ff06003611320565b905061100d338285604051806020016040528060008152506117cd565b6110178185610f1f565b600760003373ffffffffffffffffffffffffffffffffffffffff1673ffffffffffffffffffffffffffffffffffffffff1681526020019081526020016000206040518060400160405280838152602001858152509080600181540180825580915050600190039060005260206000209060020201600090919091909150600082015181600001556020820151816001015550508091505092915050565b60606000600760008473ffffffffffffffffffffffffffffffffffffffff1673ffffffffffffffffffffffffffffffffffffffff168152602001908152602001600020805480602002602001604051908101604052809291908181526020016000905b8282101561115d57838290600052602060002090600202016040518060400160405290816000820154815260200160018201548152505081526020019060010190611117565b50505050905080915050919050565b6000600160008473ffffffffffffffffffffffffffffffffffffffff1673ffffffffffffffffffffffffffffffffffffffff16815260200190815260200160002060008373ffffffffffffffffffffffffffffffffffffffff1673ffffffffffffffffffffffffffffffffffffffff16815260200190815260200160002060009054906101000a900460ff16905092915050565b600063f23a6e6160e01b905095945050505050565b61121d61132e565b73ffffffffffffffffffffffffffffffffffffffff168573ffffffffffffffffffffffffffffffffffffffff16148061126357506112628561125d61132e565b61116c565b5b6112a2576040517f08c379a00000000000000000000000000000000000000000000000000000000081526004016112999061350d565b60405180910390fd5b6112af8585858585611963565b5050505050565b60007f01ffc9a7000000000000000000000000000000000000000000000000000000007bffffffffffffffffffffffffffffffffffffffffffffffffffffffff1916827bffffffffffffffffffffffffffffffffffffffffffffffffffffffff1916149050919050565b600081600001549050919050565b600033905090565b815183511461137a576040517f08c379a00000000000000000000000000000000000000000000000000000000081526004016113719061359f565b60405180910390fd5b600073ffffffffffffffffffffffffffffffffffffffff168473ffffffffffffffffffffffffffffffffffffffff1614156113ea576040517f08c379a00000000000000000000000000000000000000000000000000000000081526004016113e190613631565b60405180910390fd5b60006113f461132e565b9050611404818787878787611be5565b60005b84518110156115b5576000858281518110611425576114246131d4565b5b602002602001015190506000858381518110611444576114436131d4565b5b60200260200101519050600080600084815260200190815260200160002060008b73ffffffffffffffffffffffffffffffffffffffff1673ffffffffffffffffffffffffffffffffffffffff168152602001908152602001600020549050818110156114e5576040517f08c379a00000000000000000000000000000000000000000000000000000000081526004016114dc906136c3565b60405180910390fd5b81810360008085815260200190815260200160002060008c73ffffffffffffffffffffffffffffffffffffffff1673ffffffffffffffffffffffffffffffffffffffff168152602001908152602001600020819055508160008085815260200190815260200160002060008b73ffffffffffffffffffffffffffffffffffffffff1673ffffffffffffffffffffffffffffffffffffffff168152602001908152602001600020600082825461159a919061317e565b92505081905550505050806115ae90613203565b9050611407565b508473ffffffffffffffffffffffffffffffffffffffff168673ffffffffffffffffffffffffffffffffffffffff168273ffffffffffffffffffffffffffffffffffffffff167f4a39dc06d4c0dbc64b70af90fd698a233a518aa5d07e595d983b8c0526c8f7fb878760405161162c9291906136e3565b60405180910390a4611642818787878787611bed565b505050505050565b6001816000016000828254019250508190555050565b8173ffffffffffffffffffffffffffffffffffffffff168373ffffffffffffffffffffffffffffffffffffffff1614156116cf576040517f08c379a00000000000000000000000000000000000000000000000000000000081526004016116c69061378c565b60405180910390fd5b80600160008573ffffffffffffffffffffffffffffffffffffffff1673ffffffffffffffffffffffffffffffffffffffff16815260200190815260200160002060008473ffffffffffffffffffffffffffffffffffffffff1673ffffffffffffffffffffffffffffffffffffffff16815260200190815260200160002060006101000a81548160ff0219169083151502179055508173ffffffffffffffffffffffffffffffffffffffff168373ffffffffffffffffffffffffffffffffffffffff167f17307eab39ab6107e8899845ad3d59bd9653f200f220920489ca2b5937696c31836040516117c091906122ea565b60405180910390a3505050565b600073ffffffffffffffffffffffffffffffffffffffff168473ffffffffffffffffffffffffffffffffffffffff16141561183d576040517f08c379a00000000000000000000000000000000000000000000000000000000081526004016118349061381e565b60405180910390fd5b600061184761132e565b90506118688160008761185988611dc5565b61186288611dc5565b87611be5565b8260008086815260200190815260200160002060008773ffffffffffffffffffffffffffffffffffffffff1673ffffffffffffffffffffffffffffffffffffffff16815260200190815260200160002060008282546118c7919061317e565b925050819055508473ffffffffffffffffffffffffffffffffffffffff16600073ffffffffffffffffffffffffffffffffffffffff168273ffffffffffffffffffffffffffffffffffffffff167fc3d58168c5ae7397731d063d5bbf3d657854427343f4c083240f7aacaa2d0f62878760405161194592919061276d565b60405180910390a461195c81600087878787611e3f565b5050505050565b600073ffffffffffffffffffffffffffffffffffffffff168473ffffffffffffffffffffffffffffffffffffffff1614156119d3576040517f08c379a00000000000000000000000000000000000000000000000000000000081526004016119ca90613631565b60405180910390fd5b60006119dd61132e565b90506119fd8187876119ee88611dc5565b6119f788611dc5565b87611be5565b600080600086815260200190815260200160002060008873ffffffffffffffffffffffffffffffffffffffff1673ffffffffffffffffffffffffffffffffffffffff16815260200190815260200160002054905083811015611a94576040517f08c379a0000000000000000000000000000000000000000000000000000000008152600401611a8b906136c3565b60405180910390fd5b83810360008087815260200190815260200160002060008973ffffffffffffffffffffffffffffffffffffffff1673ffffffffffffffffffffffffffffffffffffffff168152602001908152602001600020819055508360008087815260200190815260200160002060008873ffffffffffffffffffffffffffffffffffffffff1673ffffffffffffffffffffffffffffffffffffffff1681526020019081526020016000206000828254611b49919061317e565b925050819055508573ffffffffffffffffffffffffffffffffffffffff168773ffffffffffffffffffffffffffffffffffffffff168373ffffffffffffffffffffffffffffffffffffffff167fc3d58168c5ae7397731d063d5bbf3d657854427343f4c083240f7aacaa2d0f628888604051611bc692919061276d565b60405180910390a4611bdc828888888888611e3f565b50505050505050565b505050505050565b611c0c8473ffffffffffffffffffffffffffffffffffffffff16612017565b15611dbd578373ffffffffffffffffffffffffffffffffffffffff1663bc197c8187878686866040518663ffffffff1660e01b8152600401611c52959493929190613893565b6020604051808303816000875af1925050508015611c8e57506040513d601f19601f82011682018060405250810190611c8b9190613910565b60015b611d3457611c9a61394a565b806308c379a01415611cf75750611caf61396c565b80611cba5750611cf9565b806040517f08c379a0000000000000000000000000000000000000000000000000000000008152600401611cee91906123cb565b60405180910390fd5b505b6040517f08c379a0000000000000000000000000000000000000000000000000000000008152600401611d2b90613a74565b60405180910390fd5b63bc197c8160e01b7bffffffffffffffffffffffffffffffffffffffffffffffffffffffff1916817bffffffffffffffffffffffffffffffffffffffffffffffffffffffff191614611dbb576040517f08c379a0000000000000000000000000000000000000000000000000000000008152600401611db290613b06565b60405180910390fd5b505b505050505050565b60606000600167ffffffffffffffff811115611de457611de3612595565b5b604051908082528060200260200182016040528015611e125781602001602082028036833780820191505090505b5090508281600081518110611e2a57611e296131d4565b5b60200260200101818152505080915050919050565b611e5e8473ffffffffffffffffffffffffffffffffffffffff16612017565b1561200f578373ffffffffffffffffffffffffffffffffffffffff1663f23a6e6187878686866040518663ffffffff1660e01b8152600401611ea4959493929190613b26565b6020604051808303816000875af1925050508015611ee057506040513d601f19601f82011682018060405250810190611edd9190613910565b60015b611f8657611eec61394a565b806308c379a01415611f495750611f0161396c565b80611f0c5750611f4b565b806040517f08c379a0000000000000000000000000000000000000000000000000000000008152600401611f4091906123cb565b60405180910390fd5b505b6040517f08c379a0000000000000000000000000000000000000000000000000000000008152600401611f7d90613a74565b60405180910390fd5b63f23a6e6160e01b7bffffffffffffffffffffffffffffffffffffffffffffffffffffffff1916817bffffffffffffffffffffffffffffffffffffffffffffffffffffffff19161461200d576040517f08c379a000000000000000000000000000000000000000000000000000000000815260040161200490613b06565b60405180910390fd5b505b505050505050565b600080823b905060008111915050919050565b6040518060e001604052806000815260200160008152602001600073ffffffffffffffffffffffffffffffffffffffff168152602001600073ffffffffffffffffffffffffffffffffffffffff16815260200160008152602001600081526020016000151581525090565b8280546120a1906130e9565b90600052602060002090601f0160209004810192826120c3576000855561210a565b82601f106120dc57805160ff191683800117855561210a565b8280016001018555821561210a579182015b828111156121095782518255916020019190600101906120ee565b5b509050612117919061211b565b5090565b5b8082111561213457600081600090555060010161211c565b5090565b6000604051905090565b600080fd5b600080fd5b600073ffffffffffffffffffffffffffffffffffffffff82169050919050565b60006121778261214c565b9050919050565b6121878161216c565b811461219257600080fd5b50565b6000813590506121a48161217e565b92915050565b6000819050919050565b6121bd816121aa565b81146121c857600080fd5b50565b6000813590506121da816121b4565b92915050565b600080604083850312156121f7576121f6612142565b5b600061220585828601612195565b9250506020612216858286016121cb565b9150509250929050565b612229816121aa565b82525050565b60006020820190506122446000830184612220565b92915050565b60007fffffffff0000000000000000000000000000000000000000000000000000000082169050919050565b61227f8161224a565b811461228a57600080fd5b50565b60008135905061229c81612276565b92915050565b6000602082840312156122b8576122b7612142565b5b60006122c68482850161228d565b91505092915050565b60008115159050919050565b6122e4816122cf565b82525050565b60006020820190506122ff60008301846122db565b92915050565b60006020828403121561231b5761231a612142565b5b6000612329848285016121cb565b91505092915050565b600081519050919050565b600082825260208201905092915050565b60005b8381101561236c578082015181840152602081019050612351565b8381111561237b576000848401525b50505050565b6000601f19601f8301169050919050565b600061239d82612332565b6123a7818561233d565b93506123b781856020860161234e565b6123c081612381565b840191505092915050565b600060208201905081810360008301526123e58184612392565b905092915050565b600081519050919050565b600082825260208201905092915050565b6000819050602082019050919050565b612422816121aa565b82525050565b60006124338261214c565b9050919050565b61244381612428565b82525050565b612452816122cf565b82525050565b60e08201600082015161246e6000850182612419565b5060208201516124816020850182612419565b506040820151612494604085018261243a565b5060608201516124a7606085018261243a565b5060808201516124ba6080850182612419565b5060a08201516124cd60a0850182612419565b5060c08201516124e060c0850182612449565b50505050565b60006124f28383612458565b60e08301905092915050565b6000602082019050919050565b6000612516826123ed565b61252081856123f8565b935061252b83612409565b8060005b8381101561255c57815161254388826124e6565b975061254e836124fe565b92505060018101905061252f565b5085935050505092915050565b60006020820190508181036000830152612583818461250b565b905092915050565b600080fd5b600080fd5b7f4e487b7100000000000000000000000000000000000000000000000000000000600052604160045260246000fd5b6125cd82612381565b810181811067ffffffffffffffff821117156125ec576125eb612595565b5b80604052505050565b60006125ff612138565b905061260b82826125c4565b919050565b600067ffffffffffffffff82111561262b5761262a612595565b5b61263482612381565b9050602081019050919050565b82818337600083830152505050565b600061266361265e84612610565b6125f5565b90508281526020810184848401111561267f5761267e612590565b5b61268a848285612641565b509392505050565b600082601f8301126126a7576126a661258b565b5b81356126b7848260208601612650565b91505092915050565b600080600080608085870312156126da576126d9612142565b5b60006126e887828801612195565b94505060206126f987828801612195565b935050604061270a878288016121cb565b925050606085013567ffffffffffffffff81111561272b5761272a612147565b5b61273787828801612692565b91505092959194509250565b61274c8161224a565b82525050565b60006020820190506127676000830184612743565b92915050565b60006040820190506127826000830185612220565b61278f6020830184612220565b9392505050565b60e0820160008201516127ac6000850182612419565b5060208201516127bf6020850182612419565b5060408201516127d2604085018261243a565b5060608201516127e5606085018261243a565b5060808201516127f86080850182612419565b5060a082015161280b60a0850182612419565b5060c082015161281e60c0850182612449565b50505050565b600060e0820190506128396000830184612796565b92915050565b600067ffffffffffffffff82111561285a57612859612595565b5b602082029050602081019050919050565b600080fd5b600061288361287e8461283f565b6125f5565b905080838252602082019050602084028301858111156128a6576128a561286b565b5b835b818110156128cf57806128bb88826121cb565b8452602084019350506020810190506128a8565b5050509392505050565b600082601f8301126128ee576128ed61258b565b5b81356128fe848260208601612870565b91505092915050565b600080600080600060a0868803121561292357612922612142565b5b600061293188828901612195565b955050602061294288828901612195565b945050604086013567ffffffffffffffff81111561296357612962612147565b5b61296f888289016128d9565b935050606086013567ffffffffffffffff8111156129905761298f612147565b5b61299c888289016128d9565b925050608086013567ffffffffffffffff8111156129bd576129bc612147565b5b6129c988828901612692565b9150509295509295909350565b6000806000606084860312156129ef576129ee612142565b5b60006129fd868287016121cb565b9350506020612a0e868287016121cb565b9250506040612a1f868287016121cb565b9150509250925092565b612a328161216c565b82525050565b6000602082019050612a4d6000830184612a29565b92915050565b600067ffffffffffffffff821115612a6e57612a6d612595565b5b602082029050602081019050919050565b6000612a92612a8d84612a53565b6125f5565b90508083825260208201905060208402830185811115612ab557612ab461286b565b5b835b81811015612ade5780612aca8882612195565b845260208401935050602081019050612ab7565b5050509392505050565b600082601f830112612afd57612afc61258b565b5b8135612b0d848260208601612a7f565b91505092915050565b60008060408385031215612b2d57612b2c612142565b5b600083013567ffffffffffffffff811115612b4b57612b4a612147565b5b612b5785828601612ae8565b925050602083013567ffffffffffffffff811115612b7857612b77612147565b5b612b84858286016128d9565b9150509250929050565b600081519050919050565b600082825260208201905092915050565b6000819050602082019050919050565b6000612bc68383612419565b60208301905092915050565b6000602082019050919050565b6000612bea82612b8e565b612bf48185612b99565b9350612bff83612baa565b8060005b83811015612c30578151612c178882612bba565b9750612c2283612bd2565b925050600181019050612c03565b5085935050505092915050565b60006020820190508181036000830152612c578184612bdf565b905092915050565b600067ffffffffffffffff821115612c7a57612c79612595565b5b612c8382612381565b9050602081019050919050565b6000612ca3612c9e84612c5f565b6125f5565b905082815260208101848484011115612cbf57612cbe612590565b5b612cca848285612641565b509392505050565b600082601f830112612ce757612ce661258b565b5b8135612cf7848260208601612c90565b91505092915050565b60008060408385031215612d1757612d16612142565b5b6000612d25858286016121cb565b925050602083013567ffffffffffffffff811115612d4657612d45612147565b5b612d5285828601612cd2565b9150509250929050565b612d65816122cf565b8114612d7057600080fd5b50565b600081359050612d8281612d5c565b92915050565b60008060408385031215612d9f57612d9e612142565b5b6000612dad85828601612195565b9250506020612dbe85828601612d73565b9150509250929050565b60008060408385031215612ddf57612dde612142565b5b600083013567ffffffffffffffff811115612dfd57612dfc612147565b5b612e0985828601612cd2565b9250506020612e1a858286016121cb565b9150509250929050565b600060208284031215612e3a57612e39612142565b5b6000612e4884828501612195565b91505092915050565b600081519050919050565b600082825260208201905092915050565b6000819050602082019050919050565b604082016000820151612e936000850182612419565b506020820151612ea66020850182612419565b50505050565b6000612eb88383612e7d565b60408301905092915050565b6000602082019050919050565b6000612edc82612e51565b612ee68185612e5c565b9350612ef183612e6d565b8060005b83811015612f22578151612f098882612eac565b9750612f1483612ec4565b925050600181019050612ef5565b5085935050505092915050565b60006020820190508181036000830152612f498184612ed1565b905092915050565b60008060408385031215612f6857612f67612142565b5b6000612f7685828601612195565b9250506020612f8785828601612195565b9150509250929050565b600080600080600060a08688031215612fad57612fac612142565b5b6000612fbb88828901612195565b9550506020612fcc88828901612195565b9450506040612fdd888289016121cb565b9350506060612fee888289016121cb565b925050608086013567ffffffffffffffff81111561300f5761300e612147565b5b61301b88828901612692565b9150509295509295909350565b7f455243313135353a2062616c616e636520717565727920666f7220746865207a60008201527f65726f2061646472657373000000000000000000000000000000000000000000602082015250565b6000613084602b8361233d565b915061308f82613028565b604082019050919050565b600060208201905081810360008301526130b381613077565b9050919050565b7f4e487b7100000000000000000000000000000000000000000000000000000000600052602260045260246000fd5b6000600282049050600182168061310157607f821691505b60208210811415613115576131146130ba565b5b50919050565b7f4e487b7100000000000000000000000000000000000000000000000000000000600052601160045260246000fd5b6000613155826121aa565b9150613160836121aa565b9250828210156131735761317261311b565b5b828203905092915050565b6000613189826121aa565b9150613194836121aa565b9250827fffffffffffffffffffffffffffffffffffffffffffffffffffffffffffffffff038211156131c9576131c861311b565b5b828201905092915050565b7f4e487b7100000000000000000000000000000000000000000000000000000000600052603260045260246000fd5b600061320e826121aa565b91507fffffffffffffffffffffffffffffffffffffffffffffffffffffffffffffffff8214156132415761324061311b565b5b600182019050919050565b7f455243313135353a207472616e736665722063616c6c6572206973206e6f742060008201527f6f776e6572206e6f7220617070726f7665640000000000000000000000000000602082015250565b60006132a860328361233d565b91506132b38261324c565b604082019050919050565b600060208201905081810360008301526132d78161329b565b9050919050565b7f5072696365206d757374206265206174206c6561737420312077656900000000600082015250565b6000613314601c8361233d565b915061331f826132de565b602082019050919050565b6000602082019050818103600083015261334381613307565b9050919050565b600060a08201905061335f6000830188612a29565b61336c6020830187612a29565b6133796040830186612220565b61338660608301856122db565b61339360808301846122db565b9695505050505050565b7f455243313135353a206163636f756e747320616e6420696473206c656e67746860008201527f206d69736d617463680000000000000000000000000000000000000000000000602082015250565b60006133f960298361233d565b91506134048261339d565b604082019050919050565b60006020820190508181036000830152613428816133ec565b9050919050565b7f43616e6e6f742073657420757269207477696365000000000000000000000000600082015250565b600061346560148361233d565b91506134708261342f565b602082019050919050565b6000602082019050818103600083015261349481613458565b9050919050565b7f455243313135353a2063616c6c6572206973206e6f74206f776e6572206e6f7260008201527f20617070726f7665640000000000000000000000000000000000000000000000602082015250565b60006134f760298361233d565b91506135028261349b565b604082019050919050565b60006020820190508181036000830152613526816134ea565b9050919050565b7f455243313135353a2069647320616e6420616d6f756e7473206c656e6774682060008201527f6d69736d61746368000000000000000000000000000000000000000000000000602082015250565b600061358960288361233d565b91506135948261352d565b604082019050919050565b600060208201905081810360008301526135b88161357c565b9050919050565b7f455243313135353a207472616e7366657220746f20746865207a65726f20616460008201527f6472657373000000000000000000000000000000000000000000000000000000602082015250565b600061361b60258361233d565b9150613626826135bf565b604082019050919050565b6000602082019050818103600083015261364a8161360e565b9050919050565b7f455243313135353a20696e73756666696369656e742062616c616e636520666f60008201527f72207472616e7366657200000000000000000000000000000000000000000000602082015250565b60006136ad602a8361233d565b91506136b882613651565b604082019050919050565b600060208201905081810360008301526136dc816136a0565b9050919050565b600060408201905081810360008301526136fd8185612bdf565b905081810360208301526137118184612bdf565b90509392505050565b7f455243313135353a2073657474696e6720617070726f76616c2073746174757360008201527f20666f722073656c660000000000000000000000000000000000000000000000602082015250565b600061377660298361233d565b91506137818261371a565b604082019050919050565b600060208201905081810360008301526137a581613769565b9050919050565b7f455243313135353a206d696e7420746f20746865207a65726f2061646472657360008201527f7300000000000000000000000000000000000000000000000000000000000000602082015250565b600061380860218361233d565b9150613813826137ac565b604082019050919050565b60006020820190508181036000830152613837816137fb565b9050919050565b600081519050919050565b600082825260208201905092915050565b60006138658261383e565b61386f8185613849565b935061387f81856020860161234e565b61388881612381565b840191505092915050565b600060a0820190506138a86000830188612a29565b6138b56020830187612a29565b81810360408301526138c78186612bdf565b905081810360608301526138db8185612bdf565b905081810360808301526138ef818461385a565b90509695505050505050565b60008151905061390a81612276565b92915050565b60006020828403121561392657613925612142565b5b6000613934848285016138fb565b91505092915050565b60008160e01c9050919050565b600060033d11156139695760046000803e61396660005161393d565b90505b90565b600060443d101561397c576139ff565b613984612138565b60043d036004823e80513d602482011167ffffffffffffffff821117156139ac5750506139ff565b808201805167ffffffffffffffff8111156139ca57505050506139ff565b80602083010160043d0385018111156139e75750505050506139ff565b6139f6826020018501866125c4565b82955050505050505b90565b7f455243313135353a207472616e7366657220746f206e6f6e204552433131353560008201527f526563656976657220696d706c656d656e746572000000000000000000000000602082015250565b6000613a5e60348361233d565b9150613a6982613a02565b604082019050919050565b60006020820190508181036000830152613a8d81613a51565b9050919050565b7f455243313135353a204552433131353552656365697665722072656a6563746560008201527f6420746f6b656e73000000000000000000000000000000000000000000000000602082015250565b6000613af060288361233d565b9150613afb82613a94565b604082019050919050565b60006020820190508181036000830152613b1f81613ae3565b9050919050565b600060a082019050613b3b6000830188612a29565b613b486020830187612a29565b613b556040830186612220565b613b626060830185612220565b8181036080830152613b74818461385a565b9050969550505050505056fea264697066735822122027bee6cba3f50dd686e58fd6dad12f384997a2539fc84b1f53b762ed8ad839e264736f6c634300080b0033",
  "immutableReferences": {},
  "source": "// SPDX-License-Identifier: MIT\r\npragma solidity ^0.8.11;\r\n\r\nimport \"@openzeppelin/contracts/token/ERC1155/ERC1155.sol\";\r\nimport \"@openzeppelin/contracts/utils/Counters.sol\";\r\n\r\ncontract Ticket is ERC1155 {\r\n    using Counters for Counters.Counter;\r\n    Counters.Counter private _tokenIds;\r\n    Counters.Counter private _itemIds;\r\n    Counters.Counter private _itemsSold;\r\n    address payable owner;\r\n\r\n    struct CreatedItem {\r\n        uint256 tokenId;\r\n        uint256 supply;\r\n    }\r\n\r\n    // mapping(address => OwnedItem[]) public ownedTokens;\r\n    mapping(address => CreatedItem[]) public createdTokens;\r\n\r\n    constructor() ERC1155(\"https://ipfs.infura.io\") {\r\n        owner = payable(msg.sender);\r\n    }\r\n\r\n    // modifier onlyOwner() {\r\n    //     require(owner == msg.sender, \"Only Owner!\");\r\n    //     _;\r\n    // }\r\n\r\n    struct MarketItem {\r\n        uint256 itemId;\r\n        uint256 tokenId;\r\n        address payable seller;\r\n        address payable owner;\r\n        uint256 price;\r\n        uint256 supply;\r\n        bool sold;\r\n    }\r\n\r\n    mapping(uint256 => MarketItem) private idToMarketItem;\r\n\r\n    event MarketItemCreated(\r\n        uint256 indexed itemId,\r\n        uint256 indexed tokenId,\r\n        address seller,\r\n        address owner,\r\n        uint256 price,\r\n        bool list,\r\n        bool sold\r\n    );\r\n\r\n    mapping(uint256 => string) private _uris;\r\n\r\n    function uri(uint256 tokenId) public view override returns (string memory) {\r\n        return (_uris[tokenId]);\r\n    }\r\n\r\n    function setTokenUri(uint256 tokenId, string memory tokenUri) public {\r\n        require(bytes(_uris[tokenId]).length == 0, \"Cannot set uri twice\");\r\n        _uris[tokenId] = tokenUri;\r\n    }\r\n\r\n    function mintToken(string memory tokenUri, uint256 supply)\r\n        public\r\n        returns (uint256)\r\n    {\r\n        _tokenIds.increment();\r\n        uint256 newItemId = _tokenIds.current();\r\n\r\n        _mint(msg.sender, newItemId, supply, \"\");\r\n        setTokenUri(newItemId, tokenUri);\r\n        createdTokens[msg.sender].push(CreatedItem(newItemId, supply));\r\n        return newItemId;\r\n    }\r\n\r\n    function createMarketItem(\r\n        uint256 tokenId,\r\n        uint256 price,\r\n        uint256 supply\r\n    ) public payable {\r\n        require(price > 0, \"Price must be at least 1 wei\");\r\n\r\n        _itemIds.increment();\r\n        uint256 itemId = _itemIds.current();\r\n\r\n        idToMarketItem[itemId] = MarketItem(\r\n            itemId,\r\n            tokenId,\r\n            payable(msg.sender),\r\n            payable(msg.sender),\r\n            price,\r\n            supply,\r\n            false\r\n        );\r\n\r\n        safeTransferFrom(msg.sender, address(this), tokenId, supply, \"\");\r\n\r\n        emit MarketItemCreated(\r\n            itemId,\r\n            tokenId,\r\n            msg.sender,\r\n            msg.sender,\r\n            price,\r\n            true,\r\n            false\r\n        );\r\n    }\r\n\r\n    function fetchItemsCreated(address account)\r\n        public\r\n        view\r\n        returns (CreatedItem[] memory)\r\n    {\r\n        CreatedItem[] memory items = createdTokens[account];\r\n        return items;\r\n    }\r\n\r\n    function fetchMarketItem(uint256 tokenId)\r\n        public\r\n        view\r\n        returns (MarketItem memory)\r\n    {\r\n        uint256 itemCount = _itemIds.current();\r\n\r\n        MarketItem memory item;\r\n        for (uint256 i = 0; i < itemCount; i++) {\r\n            if (idToMarketItem[i + 1].tokenId == tokenId) {\r\n                uint256 currentId = i + 1;\r\n                MarketItem storage currentItem = idToMarketItem[currentId];\r\n                item = currentItem;\r\n            }\r\n        }\r\n        return item;\r\n    }\r\n\r\n    function fetchMarketItems() public view returns (MarketItem[] memory) {\r\n        uint256 itemCount = _itemIds.current();\r\n        uint256 unsoldItemCount = _itemIds.current() - _itemsSold.current();\r\n        uint256 currentIndex = 0;\r\n\r\n        MarketItem[] memory items = new MarketItem[](unsoldItemCount);\r\n        for (uint256 i = 0; i < itemCount; i++) {\r\n            uint256 currentId = i + 1;\r\n            MarketItem storage currentItem = idToMarketItem[currentId];\r\n            items[currentIndex] = currentItem;\r\n            currentIndex += 1;\r\n        }\r\n        return items;\r\n    }\r\n\r\n    function inspectSender() public view returns (address) {\r\n        return msg.sender;\r\n    }\r\n\r\n    function onERC1155Received(\r\n        address,\r\n        address,\r\n        uint256,\r\n        uint256,\r\n        bytes memory\r\n    ) public virtual returns (bytes4) {\r\n        return this.onERC1155Received.selector;\r\n    }\r\n\r\n    function onERC1155BatchReceived(\r\n        address,\r\n        address,\r\n        uint256[] memory,\r\n        uint256[] memory,\r\n        bytes memory\r\n    ) public virtual returns (bytes4) {\r\n        return this.onERC1155BatchReceived.selector;\r\n    }\r\n\r\n    function onERC721Received(\r\n        address,\r\n        address,\r\n        uint256,\r\n        bytes memory\r\n    ) public virtual returns (bytes4) {\r\n        return this.onERC721Received.selector;\r\n    }\r\n}\r\n",
  "sourcePath": "D:\\Final Project\\ticketplace\\contracts\\Ticket.sol",
  "compiler": {
    "name": "solc",
    "version": "0.8.11+commit.d7f03943.Emscripten.clang"
  },
  "schemaVersion": "3.4.4",
  "updatedAt": "2022-02-10T19:02:53.056Z",
  "networkType": "ethereum",
  "devdoc": {
    "kind": "dev",
    "methods": {
      "balanceOf(address,uint256)": {
        "details": "See {IERC1155-balanceOf}. Requirements: - `account` cannot be the zero address."
      },
      "balanceOfBatch(address[],uint256[])": {
        "details": "See {IERC1155-balanceOfBatch}. Requirements: - `accounts` and `ids` must have the same length."
      },
      "isApprovedForAll(address,address)": {
        "details": "See {IERC1155-isApprovedForAll}."
      },
      "safeBatchTransferFrom(address,address,uint256[],uint256[],bytes)": {
        "details": "See {IERC1155-safeBatchTransferFrom}."
      },
      "safeTransferFrom(address,address,uint256,uint256,bytes)": {
        "details": "See {IERC1155-safeTransferFrom}."
      },
      "setApprovalForAll(address,bool)": {
        "details": "See {IERC1155-setApprovalForAll}."
      },
      "supportsInterface(bytes4)": {
        "details": "See {IERC165-supportsInterface}."
      }
    },
    "version": 1
  },
  "userdoc": {
    "kind": "user",
    "methods": {},
    "version": 1
  }
}