{
  "contractName": "Ticket",
  "abi": [
    {
      "inputs": [],
      "stateMutability": "nonpayable",
      "type": "constructor"
    },
    {
      "anonymous": false,
      "inputs": [
        {
          "indexed": true,
          "internalType": "address",
          "name": "account",
          "type": "address"
        },
        {
          "indexed": true,
          "internalType": "address",
          "name": "operator",
          "type": "address"
        },
        {
          "indexed": false,
          "internalType": "bool",
          "name": "approved",
          "type": "bool"
        }
      ],
      "name": "ApprovalForAll",
      "type": "event"
    },
    {
      "anonymous": false,
      "inputs": [
        {
          "indexed": true,
          "internalType": "uint256",
          "name": "itemId",
          "type": "uint256"
        },
        {
          "indexed": true,
          "internalType": "uint256",
          "name": "tokenId",
          "type": "uint256"
        },
        {
          "indexed": false,
          "internalType": "address",
          "name": "seller",
          "type": "address"
        },
        {
          "indexed": false,
          "internalType": "address payable[]",
          "name": "owner",
          "type": "address[]"
        },
        {
          "indexed": false,
          "internalType": "uint256",
          "name": "price",
          "type": "uint256"
        },
        {
          "indexed": false,
          "internalType": "uint256",
          "name": "supply",
          "type": "uint256"
        },
        {
          "indexed": false,
          "internalType": "uint256",
          "name": "quantity",
          "type": "uint256"
        },
        {
          "indexed": false,
          "internalType": "bool",
          "name": "sold",
          "type": "bool"
        }
      ],
      "name": "MarketItemCreated",
      "type": "event"
    },
    {
      "anonymous": false,
      "inputs": [
        {
          "indexed": true,
          "internalType": "address",
          "name": "operator",
          "type": "address"
        },
        {
          "indexed": true,
          "internalType": "address",
          "name": "from",
          "type": "address"
        },
        {
          "indexed": true,
          "internalType": "address",
          "name": "to",
          "type": "address"
        },
        {
          "indexed": false,
          "internalType": "uint256[]",
          "name": "ids",
          "type": "uint256[]"
        },
        {
          "indexed": false,
          "internalType": "uint256[]",
          "name": "values",
          "type": "uint256[]"
        }
      ],
      "name": "TransferBatch",
      "type": "event"
    },
    {
      "anonymous": false,
      "inputs": [
        {
          "indexed": true,
          "internalType": "address",
          "name": "operator",
          "type": "address"
        },
        {
          "indexed": true,
          "internalType": "address",
          "name": "from",
          "type": "address"
        },
        {
          "indexed": true,
          "internalType": "address",
          "name": "to",
          "type": "address"
        },
        {
          "indexed": false,
          "internalType": "uint256",
          "name": "id",
          "type": "uint256"
        },
        {
          "indexed": false,
          "internalType": "uint256",
          "name": "value",
          "type": "uint256"
        }
      ],
      "name": "TransferSingle",
      "type": "event"
    },
    {
      "anonymous": false,
      "inputs": [
        {
          "indexed": false,
          "internalType": "string",
          "name": "value",
          "type": "string"
        },
        {
          "indexed": true,
          "internalType": "uint256",
          "name": "id",
          "type": "uint256"
        }
      ],
      "name": "URI",
      "type": "event"
    },
    {
      "inputs": [
        {
          "internalType": "address",
          "name": "account",
          "type": "address"
        },
        {
          "internalType": "uint256",
          "name": "id",
          "type": "uint256"
        }
      ],
      "name": "balanceOf",
      "outputs": [
        {
          "internalType": "uint256",
          "name": "",
          "type": "uint256"
        }
      ],
      "stateMutability": "view",
      "type": "function",
      "constant": true
    },
    {
      "inputs": [
        {
          "internalType": "address[]",
          "name": "accounts",
          "type": "address[]"
        },
        {
          "internalType": "uint256[]",
          "name": "ids",
          "type": "uint256[]"
        }
      ],
      "name": "balanceOfBatch",
      "outputs": [
        {
          "internalType": "uint256[]",
          "name": "",
          "type": "uint256[]"
        }
      ],
      "stateMutability": "view",
      "type": "function",
      "constant": true
    },
    {
      "inputs": [
        {
          "internalType": "address",
          "name": "",
          "type": "address"
        },
        {
          "internalType": "uint256",
          "name": "",
          "type": "uint256"
        }
      ],
      "name": "createdTokens",
      "outputs": [
        {
          "internalType": "uint256",
          "name": "tokenId",
          "type": "uint256"
        },
        {
          "internalType": "uint256",
          "name": "supply",
          "type": "uint256"
        },
        {
          "internalType": "uint256",
          "name": "quantity",
          "type": "uint256"
        },
        {
          "internalType": "address",
          "name": "minter",
          "type": "address"
        }
      ],
      "stateMutability": "view",
      "type": "function",
      "constant": true
    },
    {
      "inputs": [
        {
          "internalType": "address",
          "name": "account",
          "type": "address"
        },
        {
          "internalType": "address",
          "name": "operator",
          "type": "address"
        }
      ],
      "name": "isApprovedForAll",
      "outputs": [
        {
          "internalType": "bool",
          "name": "",
          "type": "bool"
        }
      ],
      "stateMutability": "view",
      "type": "function",
      "constant": true
    },
    {
      "inputs": [
        {
          "internalType": "address",
          "name": "",
          "type": "address"
        },
        {
          "internalType": "uint256",
          "name": "",
          "type": "uint256"
        }
      ],
      "name": "ownedTokens",
      "outputs": [
        {
          "internalType": "uint256",
          "name": "tokenId",
          "type": "uint256"
        },
        {
          "internalType": "uint256",
          "name": "supply",
          "type": "uint256"
        },
        {
          "internalType": "uint256",
          "name": "quantity",
          "type": "uint256"
        },
        {
          "internalType": "address",
          "name": "minter",
          "type": "address"
        }
      ],
      "stateMutability": "view",
      "type": "function",
      "constant": true
    },
    {
      "inputs": [
        {
          "internalType": "address",
          "name": "from",
          "type": "address"
        },
        {
          "internalType": "address",
          "name": "to",
          "type": "address"
        },
        {
          "internalType": "uint256[]",
          "name": "ids",
          "type": "uint256[]"
        },
        {
          "internalType": "uint256[]",
          "name": "amounts",
          "type": "uint256[]"
        },
        {
          "internalType": "bytes",
          "name": "data",
          "type": "bytes"
        }
      ],
      "name": "safeBatchTransferFrom",
      "outputs": [],
      "stateMutability": "nonpayable",
      "type": "function"
    },
    {
      "inputs": [
        {
          "internalType": "address",
          "name": "from",
          "type": "address"
        },
        {
          "internalType": "address",
          "name": "to",
          "type": "address"
        },
        {
          "internalType": "uint256",
          "name": "id",
          "type": "uint256"
        },
        {
          "internalType": "uint256",
          "name": "amount",
          "type": "uint256"
        },
        {
          "internalType": "bytes",
          "name": "data",
          "type": "bytes"
        }
      ],
      "name": "safeTransferFrom",
      "outputs": [],
      "stateMutability": "nonpayable",
      "type": "function"
    },
    {
      "inputs": [
        {
          "internalType": "address",
          "name": "operator",
          "type": "address"
        },
        {
          "internalType": "bool",
          "name": "approved",
          "type": "bool"
        }
      ],
      "name": "setApprovalForAll",
      "outputs": [],
      "stateMutability": "nonpayable",
      "type": "function"
    },
    {
      "inputs": [
        {
          "internalType": "bytes4",
          "name": "interfaceId",
          "type": "bytes4"
        }
      ],
      "name": "supportsInterface",
      "outputs": [
        {
          "internalType": "bool",
          "name": "",
          "type": "bool"
        }
      ],
      "stateMutability": "view",
      "type": "function",
      "constant": true
    },
    {
      "inputs": [
        {
          "internalType": "uint256",
          "name": "tokenId",
          "type": "uint256"
        }
      ],
      "name": "uri",
      "outputs": [
        {
          "internalType": "string",
          "name": "",
          "type": "string"
        }
      ],
      "stateMutability": "view",
      "type": "function",
      "constant": true
    },
    {
      "inputs": [
        {
          "internalType": "uint256",
          "name": "tokenId",
          "type": "uint256"
        },
        {
          "internalType": "string",
          "name": "tokenUri",
          "type": "string"
        }
      ],
      "name": "setTokenUri",
      "outputs": [],
      "stateMutability": "nonpayable",
      "type": "function"
    },
    {
      "inputs": [
        {
          "internalType": "string",
          "name": "tokenUri",
          "type": "string"
        },
        {
          "internalType": "uint256",
          "name": "supply",
          "type": "uint256"
        }
      ],
      "name": "mintToken",
      "outputs": [
        {
          "internalType": "uint256",
          "name": "",
          "type": "uint256"
        }
      ],
      "stateMutability": "nonpayable",
      "type": "function"
    },
    {
      "inputs": [
        {
          "internalType": "uint256",
          "name": "tokenId",
          "type": "uint256"
        },
        {
          "internalType": "uint256",
          "name": "price",
          "type": "uint256"
        },
        {
          "internalType": "uint256",
          "name": "quantity",
          "type": "uint256"
        }
      ],
      "name": "createMarketItem",
      "outputs": [],
      "stateMutability": "payable",
      "type": "function",
      "payable": true
    },
    {
      "inputs": [
        {
          "internalType": "uint256",
          "name": "tokenId",
          "type": "uint256"
        }
      ],
      "name": "fetchItem",
      "outputs": [
        {
          "components": [
            {
              "internalType": "uint256",
              "name": "tokenId",
              "type": "uint256"
            },
            {
              "internalType": "uint256",
              "name": "supply",
              "type": "uint256"
            },
            {
              "internalType": "uint256",
              "name": "quantity",
              "type": "uint256"
            },
            {
              "internalType": "address payable[]",
              "name": "owner",
              "type": "address[]"
            },
            {
              "internalType": "address",
              "name": "minter",
              "type": "address"
            }
          ],
          "internalType": "struct Ticket.Item",
          "name": "",
          "type": "tuple"
        }
      ],
      "stateMutability": "view",
      "type": "function",
      "constant": true
    },
    {
      "inputs": [
        {
          "internalType": "address",
          "name": "account",
          "type": "address"
        }
      ],
      "name": "fetchCreatedItems",
      "outputs": [
        {
          "components": [
            {
              "internalType": "uint256",
              "name": "tokenId",
              "type": "uint256"
            },
            {
              "internalType": "uint256",
              "name": "supply",
              "type": "uint256"
            },
            {
              "internalType": "uint256",
              "name": "quantity",
              "type": "uint256"
            },
            {
              "internalType": "address payable[]",
              "name": "owner",
              "type": "address[]"
            },
            {
              "internalType": "address",
              "name": "minter",
              "type": "address"
            }
          ],
          "internalType": "struct Ticket.Item[]",
          "name": "",
          "type": "tuple[]"
        }
      ],
      "stateMutability": "view",
      "type": "function",
      "constant": true
    },
    {
      "inputs": [
        {
          "internalType": "address",
          "name": "account",
          "type": "address"
        }
      ],
      "name": "fetchOwnedItems",
      "outputs": [
        {
          "components": [
            {
              "internalType": "uint256",
              "name": "tokenId",
              "type": "uint256"
            },
            {
              "internalType": "uint256",
              "name": "supply",
              "type": "uint256"
            },
            {
              "internalType": "uint256",
              "name": "quantity",
              "type": "uint256"
            },
            {
              "internalType": "address payable[]",
              "name": "owner",
              "type": "address[]"
            },
            {
              "internalType": "address",
              "name": "minter",
              "type": "address"
            }
          ],
          "internalType": "struct Ticket.Item[]",
          "name": "",
          "type": "tuple[]"
        }
      ],
      "stateMutability": "view",
      "type": "function",
      "constant": true
    },
    {
      "inputs": [
        {
          "internalType": "address",
          "name": "account",
          "type": "address"
        }
      ],
      "name": "fetchListedItems",
      "outputs": [
        {
          "components": [
            {
              "internalType": "uint256",
              "name": "itemId",
              "type": "uint256"
            },
            {
              "internalType": "uint256",
              "name": "tokenId",
              "type": "uint256"
            },
            {
              "internalType": "address payable",
              "name": "seller",
              "type": "address"
            },
            {
              "internalType": "address payable[]",
              "name": "owner",
              "type": "address[]"
            },
            {
              "internalType": "uint256",
              "name": "price",
              "type": "uint256"
            },
            {
              "internalType": "uint256",
              "name": "supply",
              "type": "uint256"
            },
            {
              "internalType": "uint256",
              "name": "quantity",
              "type": "uint256"
            },
            {
              "internalType": "bool",
              "name": "sold",
              "type": "bool"
            }
          ],
          "internalType": "struct Ticket.MarketItem[]",
          "name": "",
          "type": "tuple[]"
        }
      ],
      "stateMutability": "view",
      "type": "function",
      "constant": true
    },
    {
      "inputs": [
        {
          "internalType": "uint256",
          "name": "tokenId",
          "type": "uint256"
        }
      ],
      "name": "fetchMarketItem",
      "outputs": [
        {
          "components": [
            {
              "internalType": "uint256",
              "name": "itemId",
              "type": "uint256"
            },
            {
              "internalType": "uint256",
              "name": "tokenId",
              "type": "uint256"
            },
            {
              "internalType": "address payable",
              "name": "seller",
              "type": "address"
            },
            {
              "internalType": "address payable[]",
              "name": "owner",
              "type": "address[]"
            },
            {
              "internalType": "uint256",
              "name": "price",
              "type": "uint256"
            },
            {
              "internalType": "uint256",
              "name": "supply",
              "type": "uint256"
            },
            {
              "internalType": "uint256",
              "name": "quantity",
              "type": "uint256"
            },
            {
              "internalType": "bool",
              "name": "sold",
              "type": "bool"
            }
          ],
          "internalType": "struct Ticket.MarketItem[]",
          "name": "",
          "type": "tuple[]"
        }
      ],
      "stateMutability": "view",
      "type": "function",
      "constant": true
    },
    {
      "inputs": [],
      "name": "fetchMarketItems",
      "outputs": [
        {
          "components": [
            {
              "internalType": "uint256",
              "name": "itemId",
              "type": "uint256"
            },
            {
              "internalType": "uint256",
              "name": "tokenId",
              "type": "uint256"
            },
            {
              "internalType": "address payable",
              "name": "seller",
              "type": "address"
            },
            {
              "internalType": "address payable[]",
              "name": "owner",
              "type": "address[]"
            },
            {
              "internalType": "uint256",
              "name": "price",
              "type": "uint256"
            },
            {
              "internalType": "uint256",
              "name": "supply",
              "type": "uint256"
            },
            {
              "internalType": "uint256",
              "name": "quantity",
              "type": "uint256"
            },
            {
              "internalType": "bool",
              "name": "sold",
              "type": "bool"
            }
          ],
          "internalType": "struct Ticket.MarketItem[]",
          "name": "",
          "type": "tuple[]"
        }
      ],
      "stateMutability": "view",
      "type": "function",
      "constant": true
    },
    {
      "inputs": [],
      "name": "inspectSender",
      "outputs": [
        {
          "internalType": "address",
          "name": "",
          "type": "address"
        }
      ],
      "stateMutability": "view",
      "type": "function",
      "constant": true
    },
    {
      "inputs": [
        {
          "internalType": "address",
          "name": "",
          "type": "address"
        },
        {
          "internalType": "address",
          "name": "",
          "type": "address"
        },
        {
          "internalType": "uint256",
          "name": "",
          "type": "uint256"
        },
        {
          "internalType": "uint256",
          "name": "",
          "type": "uint256"
        },
        {
          "internalType": "bytes",
          "name": "",
          "type": "bytes"
        }
      ],
      "name": "onERC1155Received",
      "outputs": [
        {
          "internalType": "bytes4",
          "name": "",
          "type": "bytes4"
        }
      ],
      "stateMutability": "nonpayable",
      "type": "function"
    },
    {
      "inputs": [
        {
          "internalType": "address",
          "name": "",
          "type": "address"
        },
        {
          "internalType": "address",
          "name": "",
          "type": "address"
        },
        {
          "internalType": "uint256[]",
          "name": "",
          "type": "uint256[]"
        },
        {
          "internalType": "uint256[]",
          "name": "",
          "type": "uint256[]"
        },
        {
          "internalType": "bytes",
          "name": "",
          "type": "bytes"
        }
      ],
      "name": "onERC1155BatchReceived",
      "outputs": [
        {
          "internalType": "bytes4",
          "name": "",
          "type": "bytes4"
        }
      ],
      "stateMutability": "nonpayable",
      "type": "function"
    },
    {
      "inputs": [
        {
          "internalType": "address",
          "name": "",
          "type": "address"
        },
        {
          "internalType": "address",
          "name": "",
          "type": "address"
        },
        {
          "internalType": "uint256",
          "name": "",
          "type": "uint256"
        },
        {
          "internalType": "bytes",
          "name": "",
          "type": "bytes"
        }
      ],
      "name": "onERC721Received",
      "outputs": [
        {
          "internalType": "bytes4",
          "name": "",
          "type": "bytes4"
        }
      ],
      "stateMutability": "nonpayable",
      "type": "function"
    }
  ],
  "bytecode": "0x60806040523480156200001157600080fd5b506040518060400160405280601681526020017f68747470733a2f2f697066732e696e667572612e696f000000000000000000008152506200005981620000a160201b60201c565b5033600660006101000a81548173ffffffffffffffffffffffffffffffffffffffff021916908373ffffffffffffffffffffffffffffffffffffffff160217905550620001d2565b8060029080519060200190620000b9929190620000bd565b5050565b828054620000cb906200019c565b90600052602060002090601f016020900481019282620000ef57600085556200013b565b82601f106200010a57805160ff19168380011785556200013b565b828001600101855582156200013b579182015b828111156200013a5782518255916020019190600101906200011d565b5b5090506200014a91906200014e565b5090565b5b80821115620001695760008160009055506001016200014f565b5090565b7f4e487b7100000000000000000000000000000000000000000000000000000000600052602260045260246000fd5b60006002820490506001821680620001b557607f821691505b60208210811415620001cc57620001cb6200016d565b5b50919050565b614d5480620001e26000396000f3fe60806040526004361061013f5760003560e01c806357f7789e116100b6578063bc197c811161006f578063bc197c81146104d3578063c046372c14610510578063e149f0361461054d578063e985e9c51461058d578063f23a6e61146105ca578063f242432a146106075761013f565b806357f7789e1461038d57806395fb77b9146103b6578063a22cb465146103f3578063a3c8bfb11461041c578063ad4b9cfb14610459578063b4cfb07f146104965761013f565b806327f14fec1161010857806327f14fec146102635780632a45b250146102a35780632eb2c2d6146102e0578063320343da146103095780634903b044146103255780634e1273f4146103505761013f565b8062fdd58e1461014457806301ffc9a7146101815780630e89341c146101be5780630f08efe0146101fb578063150b7a0214610226575b600080fd5b34801561015057600080fd5b5061016b60048036038101906101669190612fed565b610630565b604051610178919061303c565b60405180910390f35b34801561018d57600080fd5b506101a860048036038101906101a391906130af565b6106f9565b6040516101b591906130f7565b60405180910390f35b3480156101ca57600080fd5b506101e560048036038101906101e09190613112565b6107db565b6040516101f291906131d8565b60405180910390f35b34801561020757600080fd5b50610210610880565b60405161021d919061345a565b60405180910390f35b34801561023257600080fd5b5061024d600480360381019061024891906135b1565b610ac9565b60405161025a9190613643565b60405180910390f35b34801561026f57600080fd5b5061028a60048036038101906102859190612fed565b610add565b60405161029a949392919061366d565b60405180910390f35b3480156102af57600080fd5b506102ca60048036038101906102c59190613112565b610b4a565b6040516102d7919061345a565b60405180910390f35b3480156102ec57600080fd5b506103076004803603810190610302919061377a565b610df9565b005b610323600480360381019061031e9190613849565b610e9a565b005b34801561033157600080fd5b5061033a611249565b604051610347919061389c565b60405180910390f35b34801561035c57600080fd5b506103776004803603810190610372919061397a565b611251565b6040516103849190613aa1565b60405180910390f35b34801561039957600080fd5b506103b460048036038101906103af9190613b64565b61136a565b005b3480156103c257600080fd5b506103dd60048036038101906103d89190613bc0565b6113f8565b6040516103ea919061345a565b60405180910390f35b3480156103ff57600080fd5b5061041a60048036038101906104159190613c19565b6116ba565b005b34801561042857600080fd5b50610443600480360381019061043e9190613bc0565b6116d0565b6040516104509190613da0565b60405180910390f35b34801561046557600080fd5b50610480600480360381019061047b9190613112565b611876565b60405161048d9190613e38565b60405180910390f35b3480156104a257600080fd5b506104bd60048036038101906104b89190613bc0565b6119ab565b6040516104ca9190613da0565b60405180910390f35b3480156104df57600080fd5b506104fa60048036038101906104f5919061377a565b611b51565b6040516105079190613643565b60405180910390f35b34801561051c57600080fd5b5061053760048036038101906105329190613e5a565b611b66565b604051610544919061303c565b60405180910390f35b34801561055957600080fd5b50610574600480360381019061056f9190612fed565b611e4b565b604051610584949392919061366d565b60405180910390f35b34801561059957600080fd5b506105b460048036038101906105af9190613eb6565b611eb8565b6040516105c191906130f7565b60405180910390f35b3480156105d657600080fd5b506105f160048036038101906105ec9190613ef6565b611f4c565b6040516105fe9190613643565b60405180910390f35b34801561061357600080fd5b5061062e60048036038101906106299190613ef6565b611f61565b005b60008073ffffffffffffffffffffffffffffffffffffffff168373ffffffffffffffffffffffffffffffffffffffff1614156106a1576040517f08c379a000000000000000000000000000000000000000000000000000000000815260040161069890613fff565b60405180910390fd5b60008083815260200190815260200160002060008473ffffffffffffffffffffffffffffffffffffffff1673ffffffffffffffffffffffffffffffffffffffff16815260200190815260200160002054905092915050565b60007fd9b67a26000000000000000000000000000000000000000000000000000000007bffffffffffffffffffffffffffffffffffffffffffffffffffffffff1916827bffffffffffffffffffffffffffffffffffffffffffffffffffffffff191614806107c457507f0e89341c000000000000000000000000000000000000000000000000000000007bffffffffffffffffffffffffffffffffffffffffffffffffffffffff1916827bffffffffffffffffffffffffffffffffffffffffffffffffffffffff1916145b806107d457506107d382612002565b5b9050919050565b6060600b600083815260200190815260200160002080546107fb9061404e565b80601f01602080910402602001604051908101604052809291908181526020018280546108279061404e565b80156108745780601f1061084957610100808354040283529160200191610874565b820191906000526020600020905b81548152906001019060200180831161085757829003601f168201915b50505050509050919050565b6060600061088e600461206c565b9050600061089c600561206c565b6108a6600461206c565b6108b091906140af565b90506000808267ffffffffffffffff8111156108cf576108ce613486565b5b60405190808252806020026020018201604052801561090857816020015b6108f5612d76565b8152602001906001900390816108ed5790505b50905060005b84811015610abe57600060018261092591906140e3565b90506000600a60008381526020019081526020016000209050806040518061010001604052908160008201548152602001600182015481526020016002820160009054906101000a900473ffffffffffffffffffffffffffffffffffffffff1673ffffffffffffffffffffffffffffffffffffffff1673ffffffffffffffffffffffffffffffffffffffff16815260200160038201805480602002602001604051908101604052809291908181526020018280548015610a3a57602002820191906000526020600020905b8160009054906101000a900473ffffffffffffffffffffffffffffffffffffffff1673ffffffffffffffffffffffffffffffffffffffff16815260200190600101908083116109f0575b505050505081526020016004820154815260200160058201548152602001600682015481526020016007820160009054906101000a900460ff161515151581525050848681518110610a8f57610a8e614139565b5b6020026020010181905250600185610aa791906140e3565b945050508080610ab690614168565b91505061090e565b508094505050505090565b600063150b7a0260e01b9050949350505050565b60096020528160005260406000208181548110610af957600080fd5b9060005260206000209060050201600091509150508060000154908060010154908060020154908060040160009054906101000a900473ffffffffffffffffffffffffffffffffffffffff16905084565b60606000610b58600461206c565b905060008060005b83811015610bb55785600a6000600184610b7a91906140e3565b8152602001908152602001600020600101541415610ba257600183610b9f91906140e3565b92505b8080610bad90614168565b915050610b60565b5060008267ffffffffffffffff811115610bd257610bd1613486565b5b604051908082528060200260200182016040528015610c0b57816020015b610bf8612d76565b815260200190600190039081610bf05790505b50905060005b83811015610dec5786600a6000600184610c2b91906140e3565b8152602001908152602001600020600101541415610dd9576000600182610c5291906140e3565b90506000600a60008381526020019081526020016000209050806040518061010001604052908160008201548152602001600182015481526020016002820160009054906101000a900473ffffffffffffffffffffffffffffffffffffffff1673ffffffffffffffffffffffffffffffffffffffff1673ffffffffffffffffffffffffffffffffffffffff16815260200160038201805480602002602001604051908101604052809291908181526020018280548015610d6757602002820191906000526020600020905b8160009054906101000a900473ffffffffffffffffffffffffffffffffffffffff1673ffffffffffffffffffffffffffffffffffffffff1681526020019060010190808311610d1d575b505050505081526020016004820154815260200160058201548152602001600682015481526020016007820160009054906101000a900460ff161515151581525050848681518110610dbc57610dbb614139565b5b6020026020010181905250600185610dd491906140e3565b945050505b8080610de490614168565b915050610c11565b5080945050505050919050565b610e0161207a565b73ffffffffffffffffffffffffffffffffffffffff168573ffffffffffffffffffffffffffffffffffffffff161480610e475750610e4685610e4161207a565b611eb8565b5b610e86576040517f08c379a0000000000000000000000000000000000000000000000000000000008152600401610e7d90614223565b60405180910390fd5b610e938585858585612082565b5050505050565b6000600760008581526020019081526020016000206002015411610ef3576040517f08c379a0000000000000000000000000000000000000000000000000000000008152600401610eea9061428f565b60405180910390fd5b6007600084815260200190815260200160002060020154811115610f4c576040517f08c379a0000000000000000000000000000000000000000000000000000000008152600401610f4390614321565b60405180910390fd5b60008211610f8f576040517f08c379a0000000000000000000000000000000000000000000000000000000008152600401610f869061438d565b60405180910390fd5b610f996004612396565b6000610fa5600461206c565b90506000826007600087815260200190815260200160002060010154610fcb91906140af565b90508060076000878152602001908152602001600020600201819055506040518061010001604052808381526020018681526020013373ffffffffffffffffffffffffffffffffffffffff168152602001600760008881526020019081526020016000206003018054806020026020016040519081016040528092919081815260200182805480156110b257602002820191906000526020600020905b8160009054906101000a900473ffffffffffffffffffffffffffffffffffffffff1673ffffffffffffffffffffffffffffffffffffffff1681526020019060010190808311611068575b505050505081526020018581526020016007600088815260200190815260200160002060010154815260200184815260200160001515815250600a6000848152602001908152602001600020600082015181600001556020820151816001015560408201518160020160006101000a81548173ffffffffffffffffffffffffffffffffffffffff021916908373ffffffffffffffffffffffffffffffffffffffff1602179055506060820151816003019080519060200190611175929190612dd3565b506080820151816004015560a0820151816005015560c0820151816006015560e08201518160070160006101000a81548160ff0219169083151502179055509050506111d33330878660405180602001604052806000815250611f61565b84827fb02a06dd265d9d92f0b39b96897ec45015a7609502d4937b485e25ac9ac70a9033600760008a815260200190815260200160002060030188600760008c81526020019081526020016000206001015489600160405161123a969594939291906144aa565b60405180910390a35050505050565b600033905090565b60608151835114611297576040517f08c379a000000000000000000000000000000000000000000000000000000000815260040161128e90614584565b60405180910390fd5b6000835167ffffffffffffffff8111156112b4576112b3613486565b5b6040519080825280602002602001820160405280156112e25781602001602082028036833780820191505090505b50905060005b845181101561135f5761132f85828151811061130757611306614139565b5b602002602001015185838151811061132257611321614139565b5b6020026020010151610630565b82828151811061134257611341614139565b5b6020026020010181815250508061135890614168565b90506112e8565b508091505092915050565b6000600b6000848152602001908152602001600020805461138a9061404e565b9050146113cc576040517f08c379a00000000000000000000000000000000000000000000000000000000081526004016113c3906145f0565b60405180910390fd5b80600b600084815260200190815260200160002090805190602001906113f3929190612e5d565b505050565b60606000611406600461206c565b90506000611414600561206c565b61141e600461206c565b61142891906140af565b90506000808267ffffffffffffffff81111561144757611446613486565b5b60405190808252806020026020018201604052801561148057816020015b61146d612d76565b8152602001906001900390816114655790505b50905060005b848110156116ad578673ffffffffffffffffffffffffffffffffffffffff16600a60006001846114b691906140e3565b815260200190815260200160002060020160009054906101000a900473ffffffffffffffffffffffffffffffffffffffff1673ffffffffffffffffffffffffffffffffffffffff16141561169a57600060018261151391906140e3565b90506000600a60008381526020019081526020016000209050806040518061010001604052908160008201548152602001600182015481526020016002820160009054906101000a900473ffffffffffffffffffffffffffffffffffffffff1673ffffffffffffffffffffffffffffffffffffffff1673ffffffffffffffffffffffffffffffffffffffff1681526020016003820180548060200260200160405190810160405280929190818152602001828054801561162857602002820191906000526020600020905b8160009054906101000a900473ffffffffffffffffffffffffffffffffffffffff1673ffffffffffffffffffffffffffffffffffffffff16815260200190600101908083116115de575b505050505081526020016004820154815260200160058201548152602001600682015481526020016007820160009054906101000a900460ff16151515158152505084868151811061167d5761167c614139565b5b602002602001018190525060018561169591906140e3565b945050505b80806116a590614168565b915050611486565b5080945050505050919050565b6116cc6116c561207a565b83836123ac565b5050565b60606000600860008473ffffffffffffffffffffffffffffffffffffffff1673ffffffffffffffffffffffffffffffffffffffff168152602001908152602001600020805480602002602001604051908101604052809291908181526020016000905b8282101561186757838290600052602060002090600502016040518060a0016040529081600082015481526020016001820154815260200160028201548152602001600382018054806020026020016040519081016040528092919081815260200182805480156117f957602002820191906000526020600020905b8160009054906101000a900473ffffffffffffffffffffffffffffffffffffffff1673ffffffffffffffffffffffffffffffffffffffff16815260200190600101908083116117af575b505050505081526020016004820160009054906101000a900473ffffffffffffffffffffffffffffffffffffffff1673ffffffffffffffffffffffffffffffffffffffff1673ffffffffffffffffffffffffffffffffffffffff168152505081526020019060010190611733565b50505050905080915050919050565b61187e612ee3565b6000600760008481526020019081526020016000206040518060a00160405290816000820154815260200160018201548152602001600282015481526020016003820180548060200260200160405190810160405280929190818152602001828054801561194157602002820191906000526020600020905b8160009054906101000a900473ffffffffffffffffffffffffffffffffffffffff1673ffffffffffffffffffffffffffffffffffffffff16815260200190600101908083116118f7575b505050505081526020016004820160009054906101000a900473ffffffffffffffffffffffffffffffffffffffff1673ffffffffffffffffffffffffffffffffffffffff1673ffffffffffffffffffffffffffffffffffffffff1681525050905080915050919050565b60606000600960008473ffffffffffffffffffffffffffffffffffffffff1673ffffffffffffffffffffffffffffffffffffffff168152602001908152602001600020805480602002602001604051908101604052809291908181526020016000905b82821015611b4257838290600052602060002090600502016040518060a001604052908160008201548152602001600182015481526020016002820154815260200160038201805480602002602001604051908101604052809291908181526020018280548015611ad457602002820191906000526020600020905b8160009054906101000a900473ffffffffffffffffffffffffffffffffffffffff1673ffffffffffffffffffffffffffffffffffffffff1681526020019060010190808311611a8a575b505050505081526020016004820160009054906101000a900473ffffffffffffffffffffffffffffffffffffffff1673ffffffffffffffffffffffffffffffffffffffff1673ffffffffffffffffffffffffffffffffffffffff168152505081526020019060010190611a0e565b50505050905080915050919050565b600063bc197c8160e01b905095945050505050565b6000611b726003612396565b6000611b7e600361206c565b9050611b9b33828560405180602001604052806000815250612519565b611ba5818561136a565b6000600167ffffffffffffffff811115611bc257611bc1613486565b5b604051908082528060200260200182016040528015611bf05781602001602082028036833780820191505090505b5090503381600081518110611c0857611c07614139565b5b602002602001019073ffffffffffffffffffffffffffffffffffffffff16908173ffffffffffffffffffffffffffffffffffffffff16815250506040518060a001604052808381526020018581526020018581526020018281526020013373ffffffffffffffffffffffffffffffffffffffff16815250600760008481526020019081526020016000206000820151816000015560208201518160010155604082015181600201556060820151816003019080519060200190611ccc929190612dd3565b5060808201518160040160006101000a81548173ffffffffffffffffffffffffffffffffffffffff021916908373ffffffffffffffffffffffffffffffffffffffff160217905550905050600960003373ffffffffffffffffffffffffffffffffffffffff1673ffffffffffffffffffffffffffffffffffffffff1681526020019081526020016000206040518060a001604052808481526020018681526020018681526020018381526020013373ffffffffffffffffffffffffffffffffffffffff1681525090806001815401808255809150506001900390600052602060002090600502016000909190919091506000820151816000015560208201518160010155604082015181600201556060820151816003019080519060200190611df6929190612dd3565b5060808201518160040160006101000a81548173ffffffffffffffffffffffffffffffffffffffff021916908373ffffffffffffffffffffffffffffffffffffffff1602179055505050819250505092915050565b60086020528160005260406000208181548110611e6757600080fd5b9060005260206000209060050201600091509150508060000154908060010154908060020154908060040160009054906101000a900473ffffffffffffffffffffffffffffffffffffffff16905084565b6000600160008473ffffffffffffffffffffffffffffffffffffffff1673ffffffffffffffffffffffffffffffffffffffff16815260200190815260200160002060008373ffffffffffffffffffffffffffffffffffffffff1673ffffffffffffffffffffffffffffffffffffffff16815260200190815260200160002060009054906101000a900460ff16905092915050565b600063f23a6e6160e01b905095945050505050565b611f6961207a565b73ffffffffffffffffffffffffffffffffffffffff168573ffffffffffffffffffffffffffffffffffffffff161480611faf5750611fae85611fa961207a565b611eb8565b5b611fee576040517f08c379a0000000000000000000000000000000000000000000000000000000008152600401611fe590614682565b60405180910390fd5b611ffb85858585856126af565b5050505050565b60007f01ffc9a7000000000000000000000000000000000000000000000000000000007bffffffffffffffffffffffffffffffffffffffffffffffffffffffff1916827bffffffffffffffffffffffffffffffffffffffffffffffffffffffff1916149050919050565b600081600001549050919050565b600033905090565b81518351146120c6576040517f08c379a00000000000000000000000000000000000000000000000000000000081526004016120bd90614714565b60405180910390fd5b600073ffffffffffffffffffffffffffffffffffffffff168473ffffffffffffffffffffffffffffffffffffffff161415612136576040517f08c379a000000000000000000000000000000000000000000000000000000000815260040161212d906147a6565b60405180910390fd5b600061214061207a565b9050612150818787878787612931565b60005b845181101561230157600085828151811061217157612170614139565b5b6020026020010151905060008583815181106121905761218f614139565b5b60200260200101519050600080600084815260200190815260200160002060008b73ffffffffffffffffffffffffffffffffffffffff1673ffffffffffffffffffffffffffffffffffffffff16815260200190815260200160002054905081811015612231576040517f08c379a000000000000000000000000000000000000000000000000000000000815260040161222890614838565b60405180910390fd5b81810360008085815260200190815260200160002060008c73ffffffffffffffffffffffffffffffffffffffff1673ffffffffffffffffffffffffffffffffffffffff168152602001908152602001600020819055508160008085815260200190815260200160002060008b73ffffffffffffffffffffffffffffffffffffffff1673ffffffffffffffffffffffffffffffffffffffff16815260200190815260200160002060008282546122e691906140e3565b92505081905550505050806122fa90614168565b9050612153565b508473ffffffffffffffffffffffffffffffffffffffff168673ffffffffffffffffffffffffffffffffffffffff168273ffffffffffffffffffffffffffffffffffffffff167f4a39dc06d4c0dbc64b70af90fd698a233a518aa5d07e595d983b8c0526c8f7fb8787604051612378929190614858565b60405180910390a461238e818787878787612939565b505050505050565b6001816000016000828254019250508190555050565b8173ffffffffffffffffffffffffffffffffffffffff168373ffffffffffffffffffffffffffffffffffffffff16141561241b576040517f08c379a000000000000000000000000000000000000000000000000000000000815260040161241290614901565b60405180910390fd5b80600160008573ffffffffffffffffffffffffffffffffffffffff1673ffffffffffffffffffffffffffffffffffffffff16815260200190815260200160002060008473ffffffffffffffffffffffffffffffffffffffff1673ffffffffffffffffffffffffffffffffffffffff16815260200190815260200160002060006101000a81548160ff0219169083151502179055508173ffffffffffffffffffffffffffffffffffffffff168373ffffffffffffffffffffffffffffffffffffffff167f17307eab39ab6107e8899845ad3d59bd9653f200f220920489ca2b5937696c318360405161250c91906130f7565b60405180910390a3505050565b600073ffffffffffffffffffffffffffffffffffffffff168473ffffffffffffffffffffffffffffffffffffffff161415612589576040517f08c379a000000000000000000000000000000000000000000000000000000000815260040161258090614993565b60405180910390fd5b600061259361207a565b90506125b4816000876125a588612b11565b6125ae88612b11565b87612931565b8260008086815260200190815260200160002060008773ffffffffffffffffffffffffffffffffffffffff1673ffffffffffffffffffffffffffffffffffffffff168152602001908152602001600020600082825461261391906140e3565b925050819055508473ffffffffffffffffffffffffffffffffffffffff16600073ffffffffffffffffffffffffffffffffffffffff168273ffffffffffffffffffffffffffffffffffffffff167fc3d58168c5ae7397731d063d5bbf3d657854427343f4c083240f7aacaa2d0f6287876040516126919291906149b3565b60405180910390a46126a881600087878787612b8b565b5050505050565b600073ffffffffffffffffffffffffffffffffffffffff168473ffffffffffffffffffffffffffffffffffffffff16141561271f576040517f08c379a0000000000000000000000000000000000000000000000000000000008152600401612716906147a6565b60405180910390fd5b600061272961207a565b905061274981878761273a88612b11565b61274388612b11565b87612931565b600080600086815260200190815260200160002060008873ffffffffffffffffffffffffffffffffffffffff1673ffffffffffffffffffffffffffffffffffffffff168152602001908152602001600020549050838110156127e0576040517f08c379a00000000000000000000000000000000000000000000000000000000081526004016127d790614838565b60405180910390fd5b83810360008087815260200190815260200160002060008973ffffffffffffffffffffffffffffffffffffffff1673ffffffffffffffffffffffffffffffffffffffff168152602001908152602001600020819055508360008087815260200190815260200160002060008873ffffffffffffffffffffffffffffffffffffffff1673ffffffffffffffffffffffffffffffffffffffff168152602001908152602001600020600082825461289591906140e3565b925050819055508573ffffffffffffffffffffffffffffffffffffffff168773ffffffffffffffffffffffffffffffffffffffff168373ffffffffffffffffffffffffffffffffffffffff167fc3d58168c5ae7397731d063d5bbf3d657854427343f4c083240f7aacaa2d0f6288886040516129129291906149b3565b60405180910390a4612928828888888888612b8b565b50505050505050565b505050505050565b6129588473ffffffffffffffffffffffffffffffffffffffff16612d63565b15612b09578373ffffffffffffffffffffffffffffffffffffffff1663bc197c8187878686866040518663ffffffff1660e01b815260040161299e959493929190614a31565b6020604051808303816000875af19250505080156129da57506040513d601f19601f820116820180604052508101906129d79190614aae565b60015b612a80576129e6614ae8565b806308c379a01415612a4357506129fb614b0a565b80612a065750612a45565b806040517f08c379a0000000000000000000000000000000000000000000000000000000008152600401612a3a91906131d8565b60405180910390fd5b505b6040517f08c379a0000000000000000000000000000000000000000000000000000000008152600401612a7790614c12565b60405180910390fd5b63bc197c8160e01b7bffffffffffffffffffffffffffffffffffffffffffffffffffffffff1916817bffffffffffffffffffffffffffffffffffffffffffffffffffffffff191614612b07576040517f08c379a0000000000000000000000000000000000000000000000000000000008152600401612afe90614ca4565b60405180910390fd5b505b505050505050565b60606000600167ffffffffffffffff811115612b3057612b2f613486565b5b604051908082528060200260200182016040528015612b5e5781602001602082028036833780820191505090505b5090508281600081518110612b7657612b75614139565b5b60200260200101818152505080915050919050565b612baa8473ffffffffffffffffffffffffffffffffffffffff16612d63565b15612d5b578373ffffffffffffffffffffffffffffffffffffffff1663f23a6e6187878686866040518663ffffffff1660e01b8152600401612bf0959493929190614cc4565b6020604051808303816000875af1925050508015612c2c57506040513d601f19601f82011682018060405250810190612c299190614aae565b60015b612cd257612c38614ae8565b806308c379a01415612c955750612c4d614b0a565b80612c585750612c97565b806040517f08c379a0000000000000000000000000000000000000000000000000000000008152600401612c8c91906131d8565b60405180910390fd5b505b6040517f08c379a0000000000000000000000000000000000000000000000000000000008152600401612cc990614c12565b60405180910390fd5b63f23a6e6160e01b7bffffffffffffffffffffffffffffffffffffffffffffffffffffffff1916817bffffffffffffffffffffffffffffffffffffffffffffffffffffffff191614612d59576040517f08c379a0000000000000000000000000000000000000000000000000000000008152600401612d5090614ca4565b60405180910390fd5b505b505050505050565b600080823b905060008111915050919050565b6040518061010001604052806000815260200160008152602001600073ffffffffffffffffffffffffffffffffffffffff168152602001606081526020016000815260200160008152602001600081526020016000151581525090565b828054828255906000526020600020908101928215612e4c579160200282015b82811115612e4b5782518260006101000a81548173ffffffffffffffffffffffffffffffffffffffff021916908373ffffffffffffffffffffffffffffffffffffffff16021790555091602001919060010190612df3565b5b509050612e599190612f28565b5090565b828054612e699061404e565b90600052602060002090601f016020900481019282612e8b5760008555612ed2565b82601f10612ea457805160ff1916838001178555612ed2565b82800160010185558215612ed2579182015b82811115612ed1578251825591602001919060010190612eb6565b5b509050612edf9190612f28565b5090565b6040518060a0016040528060008152602001600081526020016000815260200160608152602001600073ffffffffffffffffffffffffffffffffffffffff1681525090565b5b80821115612f41576000816000905550600101612f29565b5090565b6000604051905090565b600080fd5b600080fd5b600073ffffffffffffffffffffffffffffffffffffffff82169050919050565b6000612f8482612f59565b9050919050565b612f9481612f79565b8114612f9f57600080fd5b50565b600081359050612fb181612f8b565b92915050565b6000819050919050565b612fca81612fb7565b8114612fd557600080fd5b50565b600081359050612fe781612fc1565b92915050565b6000806040838503121561300457613003612f4f565b5b600061301285828601612fa2565b925050602061302385828601612fd8565b9150509250929050565b61303681612fb7565b82525050565b6000602082019050613051600083018461302d565b92915050565b60007fffffffff0000000000000000000000000000000000000000000000000000000082169050919050565b61308c81613057565b811461309757600080fd5b50565b6000813590506130a981613083565b92915050565b6000602082840312156130c5576130c4612f4f565b5b60006130d38482850161309a565b91505092915050565b60008115159050919050565b6130f1816130dc565b82525050565b600060208201905061310c60008301846130e8565b92915050565b60006020828403121561312857613127612f4f565b5b600061313684828501612fd8565b91505092915050565b600081519050919050565b600082825260208201905092915050565b60005b8381101561317957808201518184015260208101905061315e565b83811115613188576000848401525b50505050565b6000601f19601f8301169050919050565b60006131aa8261313f565b6131b4818561314a565b93506131c481856020860161315b565b6131cd8161318e565b840191505092915050565b600060208201905081810360008301526131f2818461319f565b905092915050565b600081519050919050565b600082825260208201905092915050565b6000819050602082019050919050565b61322f81612fb7565b82525050565b600061324082612f59565b9050919050565b61325081613235565b82525050565b600081519050919050565b600082825260208201905092915050565b6000819050602082019050919050565b600061328e8383613247565b60208301905092915050565b6000602082019050919050565b60006132b282613256565b6132bc8185613261565b93506132c783613272565b8060005b838110156132f85781516132df8882613282565b97506132ea8361329a565b9250506001810190506132cb565b5085935050505092915050565b61330e816130dc565b82525050565b60006101008301600083015161332d6000860182613226565b5060208301516133406020860182613226565b5060408301516133536040860182613247565b506060830151848203606086015261336b82826132a7565b91505060808301516133806080860182613226565b5060a083015161339360a0860182613226565b5060c08301516133a660c0860182613226565b5060e08301516133b960e0860182613305565b508091505092915050565b60006133d08383613314565b905092915050565b6000602082019050919050565b60006133f0826131fa565b6133fa8185613205565b93508360208202850161340c85613216565b8060005b85811015613448578484038952815161342985826133c4565b9450613434836133d8565b925060208a01995050600181019050613410565b50829750879550505050505092915050565b6000602082019050818103600083015261347481846133e5565b905092915050565b600080fd5b600080fd5b7f4e487b7100000000000000000000000000000000000000000000000000000000600052604160045260246000fd5b6134be8261318e565b810181811067ffffffffffffffff821117156134dd576134dc613486565b5b80604052505050565b60006134f0612f45565b90506134fc82826134b5565b919050565b600067ffffffffffffffff82111561351c5761351b613486565b5b6135258261318e565b9050602081019050919050565b82818337600083830152505050565b600061355461354f84613501565b6134e6565b9050828152602081018484840111156135705761356f613481565b5b61357b848285613532565b509392505050565b600082601f8301126135985761359761347c565b5b81356135a8848260208601613541565b91505092915050565b600080600080608085870312156135cb576135ca612f4f565b5b60006135d987828801612fa2565b94505060206135ea87828801612fa2565b93505060406135fb87828801612fd8565b925050606085013567ffffffffffffffff81111561361c5761361b612f54565b5b61362887828801613583565b91505092959194509250565b61363d81613057565b82525050565b60006020820190506136586000830184613634565b92915050565b61366781612f79565b82525050565b6000608082019050613682600083018761302d565b61368f602083018661302d565b61369c604083018561302d565b6136a9606083018461365e565b95945050505050565b600067ffffffffffffffff8211156136cd576136cc613486565b5b602082029050602081019050919050565b600080fd5b60006136f66136f1846136b2565b6134e6565b90508083825260208201905060208402830185811115613719576137186136de565b5b835b81811015613742578061372e8882612fd8565b84526020840193505060208101905061371b565b5050509392505050565b600082601f8301126137615761376061347c565b5b81356137718482602086016136e3565b91505092915050565b600080600080600060a0868803121561379657613795612f4f565b5b60006137a488828901612fa2565b95505060206137b588828901612fa2565b945050604086013567ffffffffffffffff8111156137d6576137d5612f54565b5b6137e28882890161374c565b935050606086013567ffffffffffffffff81111561380357613802612f54565b5b61380f8882890161374c565b925050608086013567ffffffffffffffff8111156138305761382f612f54565b5b61383c88828901613583565b9150509295509295909350565b60008060006060848603121561386257613861612f4f565b5b600061387086828701612fd8565b935050602061388186828701612fd8565b925050604061389286828701612fd8565b9150509250925092565b60006020820190506138b1600083018461365e565b92915050565b600067ffffffffffffffff8211156138d2576138d1613486565b5b602082029050602081019050919050565b60006138f66138f1846138b7565b6134e6565b90508083825260208201905060208402830185811115613919576139186136de565b5b835b81811015613942578061392e8882612fa2565b84526020840193505060208101905061391b565b5050509392505050565b600082601f8301126139615761396061347c565b5b81356139718482602086016138e3565b91505092915050565b6000806040838503121561399157613990612f4f565b5b600083013567ffffffffffffffff8111156139af576139ae612f54565b5b6139bb8582860161394c565b925050602083013567ffffffffffffffff8111156139dc576139db612f54565b5b6139e88582860161374c565b9150509250929050565b600081519050919050565b600082825260208201905092915050565b6000819050602082019050919050565b6000613a2a8383613226565b60208301905092915050565b6000602082019050919050565b6000613a4e826139f2565b613a5881856139fd565b9350613a6383613a0e565b8060005b83811015613a94578151613a7b8882613a1e565b9750613a8683613a36565b925050600181019050613a67565b5085935050505092915050565b60006020820190508181036000830152613abb8184613a43565b905092915050565b600067ffffffffffffffff821115613ade57613add613486565b5b613ae78261318e565b9050602081019050919050565b6000613b07613b0284613ac3565b6134e6565b905082815260208101848484011115613b2357613b22613481565b5b613b2e848285613532565b509392505050565b600082601f830112613b4b57613b4a61347c565b5b8135613b5b848260208601613af4565b91505092915050565b60008060408385031215613b7b57613b7a612f4f565b5b6000613b8985828601612fd8565b925050602083013567ffffffffffffffff811115613baa57613ba9612f54565b5b613bb685828601613b36565b9150509250929050565b600060208284031215613bd657613bd5612f4f565b5b6000613be484828501612fa2565b91505092915050565b613bf6816130dc565b8114613c0157600080fd5b50565b600081359050613c1381613bed565b92915050565b60008060408385031215613c3057613c2f612f4f565b5b6000613c3e85828601612fa2565b9250506020613c4f85828601613c04565b9150509250929050565b600081519050919050565b600082825260208201905092915050565b6000819050602082019050919050565b613c8e81612f79565b82525050565b600060a083016000830151613cac6000860182613226565b506020830151613cbf6020860182613226565b506040830151613cd26040860182613226565b5060608301518482036060860152613cea82826132a7565b9150506080830151613cff6080860182613c85565b508091505092915050565b6000613d168383613c94565b905092915050565b6000602082019050919050565b6000613d3682613c59565b613d408185613c64565b935083602082028501613d5285613c75565b8060005b85811015613d8e5784840389528151613d6f8582613d0a565b9450613d7a83613d1e565b925060208a01995050600181019050613d56565b50829750879550505050505092915050565b60006020820190508181036000830152613dba8184613d2b565b905092915050565b600060a083016000830151613dda6000860182613226565b506020830151613ded6020860182613226565b506040830151613e006040860182613226565b5060608301518482036060860152613e1882826132a7565b9150506080830151613e2d6080860182613c85565b508091505092915050565b60006020820190508181036000830152613e528184613dc2565b905092915050565b60008060408385031215613e7157613e70612f4f565b5b600083013567ffffffffffffffff811115613e8f57613e8e612f54565b5b613e9b85828601613b36565b9250506020613eac85828601612fd8565b9150509250929050565b60008060408385031215613ecd57613ecc612f4f565b5b6000613edb85828601612fa2565b9250506020613eec85828601612fa2565b9150509250929050565b600080600080600060a08688031215613f1257613f11612f4f565b5b6000613f2088828901612fa2565b9550506020613f3188828901612fa2565b9450506040613f4288828901612fd8565b9350506060613f5388828901612fd8565b925050608086013567ffffffffffffffff811115613f7457613f73612f54565b5b613f8088828901613583565b9150509295509295909350565b7f455243313135353a2062616c616e636520717565727920666f7220746865207a60008201527f65726f2061646472657373000000000000000000000000000000000000000000602082015250565b6000613fe9602b8361314a565b9150613ff482613f8d565b604082019050919050565b6000602082019050818103600083015261401881613fdc565b9050919050565b7f4e487b7100000000000000000000000000000000000000000000000000000000600052602260045260246000fd5b6000600282049050600182168061406657607f821691505b6020821081141561407a5761407961401f565b5b50919050565b7f4e487b7100000000000000000000000000000000000000000000000000000000600052601160045260246000fd5b60006140ba82612fb7565b91506140c583612fb7565b9250828210156140d8576140d7614080565b5b828203905092915050565b60006140ee82612fb7565b91506140f983612fb7565b9250827fffffffffffffffffffffffffffffffffffffffffffffffffffffffffffffffff0382111561412e5761412d614080565b5b828201905092915050565b7f4e487b7100000000000000000000000000000000000000000000000000000000600052603260045260246000fd5b600061417382612fb7565b91507fffffffffffffffffffffffffffffffffffffffffffffffffffffffffffffffff8214156141a6576141a5614080565b5b600182019050919050565b7f455243313135353a207472616e736665722063616c6c6572206973206e6f742060008201527f6f776e6572206e6f7220617070726f7665640000000000000000000000000000602082015250565b600061420d60328361314a565b9150614218826141b1565b604082019050919050565b6000602082019050818103600083015261423c81614200565b9050919050565b7f52756e206f7574206f6620546f6b656e00000000000000000000000000000000600082015250565b600061427960108361314a565b915061428482614243565b602082019050919050565b600060208201905081810360008301526142a88161426c565b9050919050565b7f5175616e74697479206d757374206c657373207468616e206f7220657175616c60008201527f20546f6b656e20617661696c61626c6500000000000000000000000000000000602082015250565b600061430b60308361314a565b9150614316826142af565b604082019050919050565b6000602082019050818103600083015261433a816142fe565b9050919050565b7f5072696365206d757374206265206174206c6561737420312077656900000000600082015250565b6000614377601c8361314a565b915061438282614341565b602082019050919050565b600060208201905081810360008301526143a68161436a565b9050919050565b600081549050919050565b600082825260208201905092915050565b60008190508160005260206000209050919050565b60008160001c9050919050565b600073ffffffffffffffffffffffffffffffffffffffff82169050919050565b600061441e614419836143de565b6143eb565b9050919050565b6000614431825461440b565b9050919050565b6000600182019050919050565b6000614450826143ad565b61445a81856143b8565b9350614465836143c9565b8060005b8381101561449d5761447a82614425565b6144848882613282565b975061448f83614438565b925050600181019050614469565b5085935050505092915050565b600060c0820190506144bf600083018961365e565b81810360208301526144d18188614445565b90506144e0604083018761302d565b6144ed606083018661302d565b6144fa608083018561302d565b61450760a08301846130e8565b979650505050505050565b7f455243313135353a206163636f756e747320616e6420696473206c656e67746860008201527f206d69736d617463680000000000000000000000000000000000000000000000602082015250565b600061456e60298361314a565b915061457982614512565b604082019050919050565b6000602082019050818103600083015261459d81614561565b9050919050565b7f43616e6e6f742073657420757269207477696365000000000000000000000000600082015250565b60006145da60148361314a565b91506145e5826145a4565b602082019050919050565b60006020820190508181036000830152614609816145cd565b9050919050565b7f455243313135353a2063616c6c6572206973206e6f74206f776e6572206e6f7260008201527f20617070726f7665640000000000000000000000000000000000000000000000602082015250565b600061466c60298361314a565b915061467782614610565b604082019050919050565b6000602082019050818103600083015261469b8161465f565b9050919050565b7f455243313135353a2069647320616e6420616d6f756e7473206c656e6774682060008201527f6d69736d61746368000000000000000000000000000000000000000000000000602082015250565b60006146fe60288361314a565b9150614709826146a2565b604082019050919050565b6000602082019050818103600083015261472d816146f1565b9050919050565b7f455243313135353a207472616e7366657220746f20746865207a65726f20616460008201527f6472657373000000000000000000000000000000000000000000000000000000602082015250565b600061479060258361314a565b915061479b82614734565b604082019050919050565b600060208201905081810360008301526147bf81614783565b9050919050565b7f455243313135353a20696e73756666696369656e742062616c616e636520666f60008201527f72207472616e7366657200000000000000000000000000000000000000000000602082015250565b6000614822602a8361314a565b915061482d826147c6565b604082019050919050565b6000602082019050818103600083015261485181614815565b9050919050565b600060408201905081810360008301526148728185613a43565b905081810360208301526148868184613a43565b90509392505050565b7f455243313135353a2073657474696e6720617070726f76616c2073746174757360008201527f20666f722073656c660000000000000000000000000000000000000000000000602082015250565b60006148eb60298361314a565b91506148f68261488f565b604082019050919050565b6000602082019050818103600083015261491a816148de565b9050919050565b7f455243313135353a206d696e7420746f20746865207a65726f2061646472657360008201527f7300000000000000000000000000000000000000000000000000000000000000602082015250565b600061497d60218361314a565b915061498882614921565b604082019050919050565b600060208201905081810360008301526149ac81614970565b9050919050565b60006040820190506149c8600083018561302d565b6149d5602083018461302d565b9392505050565b600081519050919050565b600082825260208201905092915050565b6000614a03826149dc565b614a0d81856149e7565b9350614a1d81856020860161315b565b614a268161318e565b840191505092915050565b600060a082019050614a46600083018861365e565b614a53602083018761365e565b8181036040830152614a658186613a43565b90508181036060830152614a798185613a43565b90508181036080830152614a8d81846149f8565b90509695505050505050565b600081519050614aa881613083565b92915050565b600060208284031215614ac457614ac3612f4f565b5b6000614ad284828501614a99565b91505092915050565b60008160e01c9050919050565b600060033d1115614b075760046000803e614b04600051614adb565b90505b90565b600060443d1015614b1a57614b9d565b614b22612f45565b60043d036004823e80513d602482011167ffffffffffffffff82111715614b4a575050614b9d565b808201805167ffffffffffffffff811115614b685750505050614b9d565b80602083010160043d038501811115614b85575050505050614b9d565b614b94826020018501866134b5565b82955050505050505b90565b7f455243313135353a207472616e7366657220746f206e6f6e204552433131353560008201527f526563656976657220696d706c656d656e746572000000000000000000000000602082015250565b6000614bfc60348361314a565b9150614c0782614ba0565b604082019050919050565b60006020820190508181036000830152614c2b81614bef565b9050919050565b7f455243313135353a204552433131353552656365697665722072656a6563746560008201527f6420746f6b656e73000000000000000000000000000000000000000000000000602082015250565b6000614c8e60288361314a565b9150614c9982614c32565b604082019050919050565b60006020820190508181036000830152614cbd81614c81565b9050919050565b600060a082019050614cd9600083018861365e565b614ce6602083018761365e565b614cf3604083018661302d565b614d00606083018561302d565b8181036080830152614d1281846149f8565b9050969550505050505056fea2646970667358221220d87d4946090039894fc6a3a14c7c45601434be2d06d8fa2a1e7c9b449dd1483164736f6c634300080b0033",
  "immutableReferences": {},
  "source": "// SPDX-License-Identifier: MIT\r\npragma solidity ^0.8.11;\r\n\r\nimport \"@openzeppelin/contracts/token/ERC1155/ERC1155.sol\";\r\nimport \"@openzeppelin/contracts/utils/Counters.sol\";\r\n\r\ncontract Ticket is ERC1155 {\r\n    using Counters for Counters.Counter;\r\n    Counters.Counter private _tokenIds;\r\n    Counters.Counter private _itemIds;\r\n    Counters.Counter private _itemsSold;\r\n    address payable owner;\r\n\r\n    constructor() ERC1155(\"https://ipfs.infura.io\") {\r\n        owner = payable(msg.sender);\r\n    }\r\n\r\n    // modifier onlyOwner() {\r\n    //     require(owner == msg.sender, \"Only Owner!\");\r\n    //     _;\r\n    // }\r\n\r\n    // struct OwnedItem {\r\n    //     uint256 tokenId;\r\n    //     uint256 supply;\r\n    // }\r\n\r\n    // struct CreatedItem {\r\n    //     uint256 tokenId;\r\n    //     uint256 supply;\r\n    // }\r\n\r\n    struct Item {\r\n        uint256 tokenId;\r\n        uint256 supply;\r\n        uint256 quantity;\r\n        address payable[] owner;\r\n        address minter;\r\n    }\r\n\r\n    // struct ListedItem {\r\n    //     uint256 tokenId;\r\n    //     uint256 supply;\r\n    //     uint256 quantity;\r\n    //     address payable[] owner;\r\n    //     address minter;\r\n    //     uint256 price;\r\n    // }\r\n\r\n    struct MarketItem {\r\n        uint256 itemId;\r\n        uint256 tokenId;\r\n        address payable seller;\r\n        address payable[] owner;\r\n        uint256 price;\r\n        uint256 supply;\r\n        uint256 quantity;\r\n        bool sold;\r\n    }\r\n\r\n    mapping(uint256 => Item) private token;\r\n    mapping(address => Item[]) public ownedTokens;\r\n    mapping(address => Item[]) public createdTokens;\r\n    // mapping(address => ListedItem[]) public listedTokens;\r\n\r\n    mapping(uint256 => MarketItem) private idToMarketItem;\r\n\r\n    mapping(uint256 => string) private _uris;\r\n\r\n    event MarketItemCreated(\r\n        uint256 indexed itemId,\r\n        uint256 indexed tokenId,\r\n        address seller,\r\n        address payable[] owner,\r\n        uint256 price,\r\n        uint256 supply,\r\n        uint256 quantity,\r\n        bool sold\r\n    );\r\n\r\n    function uri(uint256 tokenId) public view override returns (string memory) {\r\n        return (_uris[tokenId]);\r\n    }\r\n\r\n    function setTokenUri(uint256 tokenId, string memory tokenUri) public {\r\n        require(bytes(_uris[tokenId]).length == 0, \"Cannot set uri twice\");\r\n        _uris[tokenId] = tokenUri;\r\n    }\r\n\r\n    function mintToken(string memory tokenUri, uint256 supply)\r\n        public\r\n        returns (uint256)\r\n    {\r\n        _tokenIds.increment();\r\n        uint256 newItemId = _tokenIds.current();\r\n\r\n        _mint(msg.sender, newItemId, supply, \"\");\r\n        setTokenUri(newItemId, tokenUri);\r\n        address payable[] memory newOwner = new address payable[](1);\r\n        newOwner[0] = payable(msg.sender);\r\n        token[newItemId] = Item(\r\n            newItemId,\r\n            supply,\r\n            supply,\r\n            newOwner,\r\n            msg.sender\r\n        );\r\n        createdTokens[msg.sender].push(\r\n            Item(newItemId, supply, supply, newOwner, msg.sender)\r\n        );\r\n        return newItemId;\r\n    }\r\n\r\n    function createMarketItem(\r\n        uint256 tokenId,\r\n        uint256 price,\r\n        uint256 quantity\r\n    ) public payable {\r\n        require(token[tokenId].quantity > 0, \"Run out of Token\");\r\n        require(\r\n            quantity <= token[tokenId].quantity,\r\n            \"Quantity must less than or equal Token available\"\r\n        );\r\n        require(price > 0, \"Price must be at least 1 wei\");\r\n\r\n        _itemIds.increment();\r\n        uint256 itemId = _itemIds.current();\r\n\r\n        uint256 available = token[tokenId].supply - quantity;\r\n        token[tokenId].quantity = available;\r\n\r\n        // address payable[] memory newOwner = token[tokenId].owner;\r\n        // newOwner[token[tokenId].owner.length] = payable(msg.sender);\r\n\r\n        idToMarketItem[itemId] = MarketItem(\r\n            itemId,\r\n            tokenId,\r\n            payable(msg.sender),\r\n            token[tokenId].owner,\r\n            price,\r\n            token[tokenId].supply,\r\n            quantity,\r\n            false\r\n        );\r\n\r\n        safeTransferFrom(msg.sender, address(this), tokenId, quantity, \"\");\r\n\r\n        emit MarketItemCreated(\r\n            itemId,\r\n            tokenId,\r\n            msg.sender,\r\n            token[tokenId].owner,\r\n            price,\r\n            token[tokenId].supply,\r\n            quantity,\r\n            true\r\n        );\r\n    }\r\n\r\n    function fetchItem(uint256 tokenId) public view returns (Item memory) {\r\n        Item memory item = token[tokenId];\r\n        return item;\r\n    }\r\n\r\n    function fetchCreatedItems(address account)\r\n        public\r\n        view\r\n        returns (Item[] memory)\r\n    {\r\n        Item[] memory items = createdTokens[account];\r\n        return items;\r\n    }\r\n\r\n    function fetchOwnedItems(address account)\r\n        public\r\n        view\r\n        returns (Item[] memory)\r\n    {\r\n        Item[] memory items = ownedTokens[account];\r\n        return items;\r\n    }\r\n\r\n    function fetchListedItems(address account)\r\n        public\r\n        view\r\n        returns (MarketItem[] memory)\r\n    {\r\n        uint256 itemCount = _itemIds.current();\r\n        uint256 unsoldItemCount = _itemIds.current() - _itemsSold.current();\r\n        uint256 currentIndex = 0;\r\n\r\n        MarketItem[] memory items = new MarketItem[](unsoldItemCount);\r\n        for (uint256 i = 0; i < itemCount; i++) {\r\n            if (idToMarketItem[i + 1].seller == account) {\r\n                uint256 currentId = i + 1;\r\n                MarketItem storage currentItem = idToMarketItem[currentId];\r\n                items[currentIndex] = currentItem;\r\n                currentIndex += 1;\r\n            }\r\n        }\r\n        return items;\r\n    }\r\n\r\n    function fetchMarketItem(uint256 tokenId)\r\n        public\r\n        view\r\n        returns (MarketItem[] memory)\r\n    {\r\n        uint256 totalItemCount = _itemIds.current();\r\n        uint256 itemCount = 0;\r\n        uint256 currentIndex = 0;\r\n\r\n        for (uint256 i = 0; i < totalItemCount; i++) {\r\n            if (idToMarketItem[i + 1].tokenId == tokenId) {\r\n                itemCount += 1;\r\n            }\r\n        }\r\n\r\n        MarketItem[] memory items = new MarketItem[](itemCount);\r\n        for (uint256 i = 0; i < itemCount; i++) {\r\n            if (idToMarketItem[i + 1].tokenId == tokenId) {\r\n                uint256 currentId = i + 1;\r\n                MarketItem storage currentItem = idToMarketItem[currentId];\r\n                items[currentIndex] = currentItem;\r\n                currentIndex += 1;\r\n            }\r\n        }\r\n        return items;\r\n    }\r\n\r\n    function fetchMarketItems() public view returns (MarketItem[] memory) {\r\n        uint256 itemCount = _itemIds.current();\r\n        uint256 unsoldItemCount = _itemIds.current() - _itemsSold.current();\r\n        uint256 currentIndex = 0;\r\n\r\n        MarketItem[] memory items = new MarketItem[](unsoldItemCount);\r\n        for (uint256 i = 0; i < itemCount; i++) {\r\n            uint256 currentId = i + 1;\r\n            MarketItem storage currentItem = idToMarketItem[currentId];\r\n            items[currentIndex] = currentItem;\r\n            currentIndex += 1;\r\n        }\r\n        return items;\r\n    }\r\n\r\n    function inspectSender() public view returns (address) {\r\n        return msg.sender;\r\n    }\r\n\r\n    function onERC1155Received(\r\n        address,\r\n        address,\r\n        uint256,\r\n        uint256,\r\n        bytes memory\r\n    ) public virtual returns (bytes4) {\r\n        return this.onERC1155Received.selector;\r\n    }\r\n\r\n    function onERC1155BatchReceived(\r\n        address,\r\n        address,\r\n        uint256[] memory,\r\n        uint256[] memory,\r\n        bytes memory\r\n    ) public virtual returns (bytes4) {\r\n        return this.onERC1155BatchReceived.selector;\r\n    }\r\n\r\n    function onERC721Received(\r\n        address,\r\n        address,\r\n        uint256,\r\n        bytes memory\r\n    ) public virtual returns (bytes4) {\r\n        return this.onERC721Received.selector;\r\n    }\r\n}\r\n",
  "sourcePath": "D:\\Final Project\\ticketplace\\contracts\\Ticket.sol",
  "compiler": {
    "name": "solc",
    "version": "0.8.11+commit.d7f03943.Emscripten.clang"
  },
  "schemaVersion": "3.4.4",
  "updatedAt": "2022-02-12T16:23:11.409Z",
  "networkType": "ethereum",
  "devdoc": {
    "kind": "dev",
    "methods": {
      "balanceOf(address,uint256)": {
        "details": "See {IERC1155-balanceOf}. Requirements: - `account` cannot be the zero address."
      },
      "balanceOfBatch(address[],uint256[])": {
        "details": "See {IERC1155-balanceOfBatch}. Requirements: - `accounts` and `ids` must have the same length."
      },
      "isApprovedForAll(address,address)": {
        "details": "See {IERC1155-isApprovedForAll}."
      },
      "safeBatchTransferFrom(address,address,uint256[],uint256[],bytes)": {
        "details": "See {IERC1155-safeBatchTransferFrom}."
      },
      "safeTransferFrom(address,address,uint256,uint256,bytes)": {
        "details": "See {IERC1155-safeTransferFrom}."
      },
      "setApprovalForAll(address,bool)": {
        "details": "See {IERC1155-setApprovalForAll}."
      },
      "supportsInterface(bytes4)": {
        "details": "See {IERC165-supportsInterface}."
      }
    },
    "version": 1
  },
  "userdoc": {
    "kind": "user",
    "methods": {},
    "version": 1
  }
}